:020000040020DA
:10200000B856012059202000C5292000011E1000CB
:10201000C3292000FB212000112A2000000000001D
:10202000000000000000000000000000151E10006D
:10203000C129200000000000C7292000CD29200070
:10204000DFF810D000F048FC00F060F800480047CE
:10205000B1B02000B8560120014880470148004730
:10206000E1292000C9B020000649074A086850430A
:1020700043F2390210440860400870470149086083
:10208000704700008C2F00206D4EC64110B5431ADA
:10209000934209D28318881803E010F8011D03F851
:1020A000011D521EF9D210BD40EA01039B0703D067
:1020B00009E008C9121F08C0042AFAD203E011F887
:1020C000013B00F8013B521EF9D210BDD2B201E033
:1020D00000F8012B491EFBD270470022F6E710B52D
:1020E00013460A4604461946FFF7F0FF204610BD86
:1020F00030B504460020034600E05B1C934203D247
:10210000E05CCD5C401BF8D030BD000070B5054CE4
:10211000054D03E0206820448047241DAC42F9D1DE
:1021200070BD0000A0FB2000A4FB200030B40446DA
:1021300096230800214604D0B62330BC002200F0CC
:10214000B4BA20460021F8E70EB540F233410291BF
:102150000021CDE900110A460B4600F0E3FA03B076
:1021600000BD0EB540F2334202920022CDE90022BA
:10217000134600F0D7FA03B000BD20F00040C20DB6
:10218000C0F3160040F400007F2A02DA0020014666
:1021900070470021962A03DCC2F19602D0407047B6
:1021A000963A00F048BA70B5C1F30A5201F0004502
:1021B0000024C1F3130140F2FF3341F480119A422D
:1021C00001DA002070BD40F233439A42A2F233425A
:1021D00003DC524200F03EFA00E090402C43F1D084
:1021E000404270BD10B505F613F810B102F0F8FBCF
:1021F00010BDBDE810402CF6F9BAFEE702F0BCBDF8
:1022000058585247010000003253000000202000BF
:10221000002020008BEB924700010000000000002E
:1022200000000000000000000000000000000000AE
:10223000000000000000000000000000000000009E
:102240002DE9FE4F804681EA0300C00F0C46009046
:1022500021F0004123F00045B8EB0200A94105D26E
:102260004046214690461C460B46024623F000405D
:10227000104347D0270DC7F30A00C3F30A51029059
:10228000401A019040286BDAC3F3130040F4801B1E
:102290000098924620B10023D2EB030A63EB0B0BAC
:1022A00001985946C0F14002504600F0C4F9064674
:1022B0000D4650465946019A00F0DCF910EB080033
:1022C0006141002487EA115284EAE7731A4340D03F
:1022D000009A62B3019A012A4FEA075215DC001BEB
:1022E00061EB02014FF0004202EA0752CDE90042E1
:1022F000001C41F5801132462B4600F013FA03B062
:10230000BDE8F08F40462146F9E7001B61EB020172
:10231000001C41F5801300185B412018A2F500173E
:1023200047EB030140EAD570B6196D4111E06D0825
:102330004FEA360645EAC0754FEA0752001B61EBCB
:102340000201001C41F5801149084FEA30000019D4
:10235000514132462B4603B0BDE8F04F00F0D3B9EF
:102360000098012240000023D0EB020263EBE073EF
:10237000009821464FEAE074B8EB000061EB0401DD
:10238000E9E783F000435BE781F0004158E72DE97E
:10239000FE4F81EA030404F0004421F00041009460
:1023A0004FF0000B23F0004350EA01045ED052EAE4
:1023B00003045BD0C3F30A54C1F30A552C44A4F2BE
:1023C000F3340194A0FB0254C1F3130141F48011D2
:1023D000C3F3130343F4801301FB024400FB034ED9
:1023E000840A970A44EA815447EA8357A4FB0768A2
:1023F00002958D0A05FB07854FEA932C04FB0C54CC
:102400002705029D4FEA065847EA1637B5EB08053F
:102410006EEB070C870E920E47EA811742EA831291
:10242000A7FB0201B6EB0B0164EB00042B0D43EAA2
:102430000C335E1844EB1C50DA465146E7FB0201B0
:10244000C5F313044FEA0B3343EA14534FEA043243
:10245000019C43EA0603A4F10C040294009CCDE91C
:1024600000B400F05FF903B0BDE8F08F0020014632
:10247000F9E72DE9F04D81EA030404F0004B21F067
:10248000004514464FF0000A23F0004150EA0502CF
:1024900020D054EA01021DD0C5F30A570246C5F305
:1024A0001303C1F31300C1F30A5640F4801543F43B
:1024B0008013A7EB0608101BD64608F2FD3873EB15
:1024C000050002D308F1010801E092185B41B8F160
:1024D000000F03DA00200146BDE8F08D00204FF424
:1024E0008011064684460EE0171B73EB050705D3E3
:1024F000121B63EB050306434CEA010C49084FEA43
:10250000300092185B4150EA0107EDD152EA030016
:1025100012D082EA040083EA0501084305D0101BAB
:10252000AB4106D20122002306E000224FF0004317
:1025300002E06FF0010253101AEB06004CEB085159
:1025400010EB0A0041EB0B01BDE8F04D00F0DBB8E9
:10255000C1F30A5210B5C1F3130140F2FF3341F445
:1025600080119A4201DA002010BD40F233439A42B2
:10257000A2F2334203DC524200F06CF810BD9040EE
:1025800010BD00F0004230F000400AD0C10D01F54E
:102590006071C0F3160042EA0151C20840071143BE
:1025A000704700200146704730B50B4601460020B9
:1025B0002022012409E021FA02F59D4205D303FA05
:1025C00002F5491B04FA02F52844151EA2F1010286
:1025D000F1DC30BD2DE9F05F0546002092469B46B8
:1025E00088460646814640241BE028464146474629
:1025F000224600F02FF853465A46C01A914110D394
:1026000011461846224600F016F82D1A67EB01080D
:102610004F4622460120002100F00DF817EB00097B
:102620004E41201EA4F10104DFDC484631462A4613
:102630004346BDE8F09F202A04DB203A00FA02F16D
:10264000002070479140C2F1200320FA03F31943A0
:1026500090407047202A04DB203A21FA02F0002142
:10266000704721FA02F3D040C2F1200291400843A2
:1026700019467047202A06DBCB17203A41FA02F0B0
:1026800043EAE07306E041FA02F3D040C2F12002CF
:1026900091400843194670470029A8BF7047401C65
:1026A000490008BF20F00100704710B4B0FA80FC68
:1026B00000FA0CF050EA010404BF10BC704749B1A5
:1026C000CCF1200421FA04F411FA0CF118BF012115
:1026D00021430843A3EB0C01CB1D4FEA00614FEAF5
:1026E000102042BF002010BC704700EBC3501044C4
:1026F0000029A4BF10BC7047401C490008BF20F04F
:10270000010010BC704710B5141E73F1000408DA04
:10271000401C41F1000192185B411A4301D120F0A5
:10272000010010BD2DE9F04D92469B4611B1B1FA62
:1027300081F202E0B0FA80F220329046FFF77BFF90
:1027400004460F4640EA0A0041EA0B0153465A4646
:10275000084313D0114653EA010019D0C8F14002D2
:102760005046FFF777FF05460E465046594642460B
:10277000FFF761FF084305D0012004E020463946F9
:10278000BDE8F08D0020054346EAE0762C43374350
:102790000A986305E40AA0EB08000022FD0A44EA57
:1027A00047540A3002D500200146E9E70105101917
:1027B0006941DDE9084500196941BDE8F04DA2E72E
:1027C0002DE9F041054621F000400C46284309D090
:1027D000C4F30A5040F23341884205DD28462146C1
:1027E000BDE8F0812846FBE740F2FE31884210DC6C
:1027F0000CDB4FEA043040EA155050EA053105D0B1
:10280000104804F0004101430020E9E700200146A0
:10281000E6E7A0F233404642C6F140022846214690
:10282000FFF709FF07468846284621463246FFF74C
:1028300011FF43463A46FFF766FF3246BDE8F041D6
:10284000FFF7F9BE0000F03FC1F30A52C1F31301D4
:1028500040F2FF3341F480119A4202DA002001462F
:10286000704740F233439A42A2F2334202DC5242B2
:10287000FFF7F0BEFFF7DFBE30B5041E71F10004B4
:1028800004DB4FF00044404264EB0101141E73F17D
:10289000000405DB1C464FF00043524263EB040387
:1028A0008B4208BF824230BD30B5041E71F1000476
:1028B00004DB4FF00044404264EB0101141E73F14D
:1028C000000405DB1C464FF00043524263EB040357
:1028D000994208BF904230BD064C074D06E0E068C3
:1028E00040F0010394E8070098471034AC42F6D357
:1028F000FFF7AAFB60FB2000A0FB200070B58C183E
:1029000010F8015B15F0070301D110F8013B2A1103
:1029100006D110F8012B03E010F8016B01F8016BF0
:102920005B1EF9D12B0705D40023521E0DD401F8EC
:10293000013BFAE710F8013BCB1A921C03E013F8B5
:10294000015B01F8015B521EF9D5A142D8D30020EA
:1029500070BD000010B5122000F079F803F036F8D1
:1029600004490446096A88472046BDE8104002F041
:10297000EFBF0000A42C002010B52CF623F802288D
:1029800018D00D4CD4F8880220F00100C4F8880259
:102990004FF0E0214FF00050C1F8800204F522749E
:1029A00002F022FB05484168491C4160206840F064
:1029B0000100206010BD000000E00040402D00201C
:1029C000FEE7FEE7FEE7FEE704F0F0B9FEE70000F1
:1029D0000249096801F007010170704700A000403A
:1029E0000248016841F470010160704788ED00E021
:1029F00002480068001D04F095BC0000D02B0020A8
:102A000002484068001D04F08DBC0000D02B00205F
:102A1000FEE700000FB4054B10B503A9044A029865
:102A200000F026FC10BC5DF814FB00002D5A2000BD
:102A3000F42B0020002809DB00F01F020121914047
:102A40004009800000F1E020C0F8801270470028A3
:102A500009DB00F01F02012191404009800000F1D4
:102A6000E020C0F880127047002809DB00F01F0248
:102A7000012191404009800000F1E020C0F880125F
:102A80007047002809DB00F01F0201219140400936
:102A9000800000F1E020C0F800117047002809DB39
:102AA00000F01F02012191404009800000F1E02068
:102AB000C0F800117047002804DB00F1E02090F816
:102AC0000004704700F00F0000F1E02090F8140DB2
:102AD0007047002804DB00F1E02090F80004704704
:102AE00000F00F0000F1E02090F8140D7047000096
:102AF00002480068C0F30220704700000CED00E0BF
:102B0000EFF31080704700002DE9F0412DED020B2E
:102B10009FED3D0B2DED028B9FED3D8BDDE90254CA
:102B2000C4F30A50A0F2FF36142E37DA002E18DA5A
:102B300053EC102B9DED020B51EC100BFFF780FBBB
:102B400053EC182BFFF7B0FE57D2002CBCBF4FF050
:102B50000044002551DB54EA050018BF2E4C1BD160
:102B60004BE02E4820FA06F704EA070028431FD05E
:102B700053EC102B9DED020B51EC100BFFF760FB9B
:102B800053EC182BFFF790FE37D2002C03DD4FF4E7
:102B90008010F0400444BC4300252EE0332E07DCB7
:102BA000A6F114004FF0FF3121FA00F73D4206D1A3
:102BB0009DED020BBDEC028B02B0BDE8F08153EC41
:102BC000102B9DED020B51EC100BFFF7DDFB53ECCE
:102BD000182BFFF769FE10D2002C0DDD142E08BF54
:102BE000641C09D0C6F13400012101FA00F0284428
:102BF000A84238BF641C0546BD43CDE902549DED93
:102C0000020BD7E7000000009C7500883CE4377E8B
:102C100000000000000000000000F03FFFFF0F0078
:102C200010B52DED020B2DED088B84B09DED0C0B36
:102C300051EC100BFFF7C4FD41EC180B9DED0C0B94
:102C400053EC182B51EC100BFFF79BFB41EC190BCD
:102C50000D989FED290B10F0004F53EC102B51EC09
:102C6000190B9FED21AB9FED22BB0ED0FFF704FEA9
:102C70000ED953EC1B2B51EC190BFFF715FE1CD290
:102C800014E000BF41EC180B17E0FFF7F5FD06D28A
:102C900053EC1A2B51EC180BFFF773FBF2E753ECD4
:102CA0001B2B51EC190BFFF7FFFD06D853EC1A2B29
:102CB00051EC180BFFF7C4FAE4E78DED028B9DEDA4
:102CC0000C0B18EE901A10EE900A8DED000B61F3CC
:102CD0001E0003909DED020B04B0BDEC088B02B00A
:102CE00010BD000000000000000000000000F03FE8
:102CF000000000000000E03F000000000000E0BF16
:102D000002E008C8121F08C1002AFAD170477047B4
:102D1000002001E001C1121F002AFBD1704780F39F
:102D2000108870472DE9F74F07460298DFF86CA12D
:102D3000DFF86C814FEA500B5A48019D5C465646BD
:102D4000CAF80000D8F804203F2060F30502C8F854
:102D50000420DAF8000020F4700040EA0750CAF8B6
:102D60000000DAF8000020F4702040EA0740CAF8BA
:102D700000000D2F02D00E2F04D007E0306840F481
:102D8000004002E0306840F480403060306840F439
:102D900000503060306820F060503060306820F0C3
:102DA0000F0040F003003060002000F0AFF8012871
:102DB00072D13168B24641F0804131600020424614
:102DC00009E0D8F8083043F48033C8F80830811C93
:102DD00000F1010005D091689046C1F3002100295F
:102DE000EFD1072000F092F8012855D142E00026EB
:102DF0004FF47A7924E04E451ED9DAF8001021F01C
:102E00008041CAF80010DAF8001041F00041CAF819
:102E10000010DAF8001021F00041CAF8001000207C
:102E200000F074F8012837D11F484169491C4161FD
:102E30000520FDF577FE7FE70120FDF573FE761C8A
:102E4000D8F80800C0F300200028D4D0D8F8080033
:102E5000434600F07F02A24200D92246002006E04D
:102E6000196825F8021B090C25F8021B401C90422A
:102E7000F6D3A41A002CBAD10298C00707D0404656
:102E80008168C1F300210029FAD000682880BDE8DC
:102E9000FE4F002000F03AB8BDE8FE8F00A80040C9
:102EA00000E000400A070807402D00202DE9F0410E
:102EB0001249044600200860104980390860104D0E
:102EC000686A104E00F00101494201403062C805B5
:102ED0000DD440F20117A869B84208D024B10120EE
:102EE000641EFDF51FFEF6E70020BDE8F0810648F0
:102EF0000068B0616868F0610120F6E794581C42F0
:102F000000E00040402D002000A800402DE9F041E5
:102F1000104F0546F868C0F30240A84217D0F86881
:102F200020F007002843F86000244FF6FF76F86889
:102F3000C0F30240A84205D00120FDF5F3FD641C5A
:102F4000B442F4D3B44202D10020BDE8F0810120A4
:102F5000FBE7000000E000402DE9FF5F82B00021A8
:102F6000DDE90430020DDDF840B0034318D044F62B
:102F70001050A2F2FF3242431514119801281FD0BD
:102F8000A5EB0B00401C5FEA000A4FF000064E4F15
:102F9000DFF83891B046504615D5CAF1000413E069
:102FA000119801244AA3012801D16FEA0B0102986C
:102FB000119AC0E90031C0E9024206B0BDE8F09FB5
:102FC000CBF10000DFE704460021404A491842EBFC
:102FD0000450CDE9001012E0E00707D032463B462E
:102FE00040464946FFF7D3F98046894632463B467C
:102FF00010461946FFF7CBF906460F466410002C21
:10300000EAD1DDE90401DDE90023BAF1000F06DAB7
:10301000FFF7BDF942464B46FFF7B9F905E0FFF768
:1030200028FA42464B46FFF724FA04460E46002291
:10303000284BFFF739FC03D84FF0FF30014607E07B
:103040000022254B20463146FFF7FAF8FFF7FCFB3C
:10305000102409E0002C0ADB0A220023FFF7BAFA49
:10306000039B30321A55641E50EA0102F2D1641CEF
:10307000039AC4F111031444119A012A03D00122C6
:1030800008430DD10AE0084304D000204FF0110B93
:10309000119072E7A3EB0B056D1E0DE05B4504DD9F
:1030A0004FF0000205F1010504E003DA4FF00002E1
:1030B000A5F10105002AECD002981199C0E902316E
:1030C000C0E9004579E70000000014400000F03F2F
:1030D000300000000000F0430000E03FF0B50C4677
:1030E0002DED088B89B006469FED559B2021684643
:1030F000FEF7F3FFB0EE498AF0EE698A10226946C6
:103100003046FFF70FFE00256F4607EB4500008AAB
:10311000FFF71AF853EC182BFFF792F86D1C41ECEF
:10312000180BEDB2082DF0D39FED470B51EC180BA7
:1031300053EC102BFFF72BF941EC180B9FED44BB20
:103140000D2E02D00E2E30D072E06088FEF7FCFF0C
:1031500053EC1B2BFFF78DF99FED3F0B41EC190B47
:1031600051EC100B81F0004141EC1A0BE088FEF7A6
:10317000EBFF53EC1A2BFFF70AF941EC1A0B2088EE
:10318000FEF7E2FF53EC182BFFF7FEF853EC1A2B77
:10319000FFF76FF99FED321B53EC112BFFF769F925
:1031A00053EC192BFFF74CF840E0A07EFF2801D02C
:1031B000E8B13DE09FED2C0B51EC100B81F000418C
:1031C00041EC1A0BE088FEF7BFFF41EC190B208998
:1031D000FEF7BAFF53EC182BFFF7D6F853EC192B78
:1031E000FFF747F953EC1A2BFFF7D1F81EE0A08840
:1031F000FEF7AAFF41EC190BE088FEF7A5FF81F06E
:10320000004141EC1A0B2089FEF79EFF53EC182B6E
:10321000FFF7BAF853EC1A2BFFF72BF953EC192BE5
:10322000FFF7B5F853EC1B2BFFF723F941EC190B13
:1032300009B0B0EE490AF0EE690ABDEC088BF0BDAA
:103240000000000000000000000000000000C03F7F
:103250000000000000005940000000000000004095
:10326000DE718A8EE4F25FBFE2E1E1E1E1E10E406E
:103270002DE9FF4F95B09B468946064600250FE293
:10328000252877D100242746F84A0121059400E03B
:10329000044316F8013F203B01FA03F01042F7D136
:1032A00030782A2811D06FF02F033078A0F1300247
:1032B000092A16D8059A44F0020402EB820203EBB5
:1032C00042021044761C0590EFE759F8042B059252
:1032D000002A03DA504244F40054059044F00204FA
:1032E000761C30782E2816D116F8010F44F004040D
:1032F0002A280DD06FF02F023078A0F13003092B6F
:1033000009D807EB870302EB4303C718761CF3E7E2
:1033100059F8047B761C30786C280FD006DC4C28DA
:1033200017D068280DD06A2814D104E0742810D072
:103330007A280FD10DE044F400140AE044F480141C
:1033400001E044F440147278824202D104F5801402
:10335000761C761C307866280BD013DC582877D082
:1033600009DC002875D04528F6D04628F4D0472837
:103370001AD19DE118E0632835D0642879D06528FA
:1033800012D195E1702873D008DC6728F1D0692844
:103390006FD06E280DD06F2806D1B5E073282CD0E1
:1033A000752875D0782874D05A46179990476D1CA7
:1033B00075E1C4F30250022809D003280DD0D9F8D2
:1033C000001004280DD00D6009F1040967E1D9F857
:1033D0000010EA17C1E90052F6E7D9F800100D8095
:1033E000F2E70D70F0E719F8041B8DF800100020CB
:1033F0008DF80100EA46012003E059F804AB4FF0D4
:10340000FF3061074FF0000102D40DE008F1010127
:103410008846B9420FDA8045F8DB1AF8081000290F
:10342000F4D108E008F1010188468142FADB1AF87C
:1034300008100029F6D105985B46A0EB0807214645
:103440003846179A00F094FA284400EB080507E084
:103450004DE029E10DE01AF8010B5A461799904703
:10346000B8F10108F7D25B4621463846179A13E1B6
:1034700042E00A220092C4F302524FF0000A022AEC
:1034800008D059F804CB032A4FEAEC710AD00DE0BA
:1034900029E02AE009F1070121F00702F2E802C160
:1034A000914609E00FFA8CFC4FEAEC71042A03D133
:1034B0004FFA8CFC4FEAEC71002907DA0A4600212A
:1034C000DCF1000C61EB02012D2202E0220504D5A3
:1034D0002B228DF80420012203E0E20701D02022F4
:1034E000F7E7904659E00A2102E010220DE0102192
:1034F0004FF0000A00910BE010224FF0000A44F058
:1035000004040827009203E008224FF0000A00920A
:10351000C4F30252022A05D059F804CB0021032A31
:1035200008D009E009F1070121F00702F2E802C121
:10353000914605E01FFA8CFC042A01D10CF0FF0C27
:103540004FF00008220728D5702806D0009B83F092
:10355000100353EA0A0305D00EE040228DF8042040
:10356000012208E05CEA010206D030228DF8042036
:103570008DF8050002229046009B83F0080353EA71
:103580000A030AD15CEA010201D1620705D53022A3
:103590008DF804204FF001087F1E582804D034A075
:1035A00003900EA802900DE036A0F9E7534660465E
:1035B000009AFFF70FF884460398825C0298401E39
:1035C000029002705CEA0100F0D1029806A9081A84
:1035D00000F1200A600702D524F4803400E00127BE
:1035E000574502DDA7EB0A0000E0002000EB0A01CE
:1035F000009005984144401A0590E00306D45B46CC
:103600002146179A059800F0B3F90544002706E013
:1036100001A85A46C05D179990476D1C7F1C47450D
:10362000F6DBE0030CD55B462146179A059800F0BF
:103630009FF9054404E030205A46179990476D1CC5
:103640000099481E00900029F5DC08E002980299D4
:103650005A460078491C0291179990476D1CBAF19F
:103660000001AAF1010AF1DC65E10000092801006E
:1036700030313233343536373839616263646566E8
:1036800000000000303132333435363738394142AA
:10369000434445460000000000F058F90544761CFC
:1036A000307800287FF4ECAD19B02846BDE8F08FE3
:1036B000620700D4062709F1070222F0070CFCE894
:1036C0000223E14603F000485FEA080C02D00FF243
:1036D000702C0DE05FEA045C02D50FF2682C07E065
:1036E0005FEAC47C02D00FF2602C01E0AFF2700CF4
:1036F0004FF0FF3823F00043CDF850C065280CD0C0
:1037000006DC452809D046281DD047283DD13DE09C
:10371000662818D067287ED138E00021112F01DB00
:10372000112000E0781CCDE9000106A90EA8FFF7E2
:1037300013FCDDE90F010E9A03910021009207F1BD
:10374000010A04914DE04FF000400097CDE90110CF
:1037500006A90EA8FFF700FCDDE90F0203920E9BFD
:1037600011990022DDF80CA00093049211B9791C84
:1037700000EB010AB7EB0A0004D4C0F1FF3007F1F7
:10378000010A0490AAEB0700019044E0012F00DA3F
:1037900001270021112F01DD112000E03846CDE97D
:1037A000000106A90EA8FFF7D7FBDDE90F010E9A6D
:1037B0000391002104910092BA4621070CD4039989
:1037C000514500DA8A46BAF1010F05DD009AAAF1E7
:1037D0000101515C302908D0B84202DA10F1040F1F
:1037E00006DA0121CDE9011015E0AAF10101E9E7AE
:1037F000002805DC049901440491AAEB000102E0D1
:10380000411C514500DD8A460499401A401C019034
:103810004FF000400290200704D40198504501DB8E
:10382000CDF8048000208DF84F0002980DF14F076D
:10383000B0F1004F25D02B200E9002984FF00208D7
:1038400000280CDA404202902D200E9007E00A2159
:103850000298FEF7A9FE3031029007F8011DB8F179
:103860000001A8F10108F2DC02980028EFD1791ECE
:103870000E980870307800F0200040F0450007F8FE
:10388000020D12A8C01B00F107081498007800B1BF
:10389000012000EB0A01019801EBE0710598414419
:1038A000401A401E0590E00306D45B462146179A55
:1038B000059800F05DF805441498007818B15A4650
:1038C000179990476D1CE00324D55B462146179A53
:1038D000059800F04DF805441CE00498002807DB2B
:1038E000DDE90301884203DD0098405C179901E09F
:1038F000179930205A469047049805F10105401C5D
:1039000004900198401E019004D12E205A46179928
:1039100090476D1CBAF10001AAF1010ADDDC05E057
:1039200017F8010B5A46179990476D1CB8F1000122
:10393000A8F10108F4DC5B462146179A0598ABE62E
:103940002D0000002B000000200000002DE9F041B8
:10395000044600251E461746880404D405E039466F
:103960002020B0476D1C641EF9D52846BDE8F081C3
:103970002DE9F041044600251E469046C80301D5B6
:10398000302700E02027880404D505E0414638466A
:10399000B0476D1C641EF9D52846BDE8F0810000D3
:1039A00070B504466FF01305552801DB06200FE0C3
:1039B000412C0ADA2D2C01DB042009E014F10A0F56
:1039C00001DB032004E0AC4201DB052000E007201E
:1039D00005F0BEFF0AF0C4F9A8B10F480068C0F3B3
:1039E000805080B904F114010C48142902D240F22D
:1039F000DC5106E0AC4202DA4FF4AF6101E04FF473
:103A0000C8614161C16106480168002903D02046B0
:103A1000BDE87040084770BD14A800408CAF00207E
:103A2000C02E002010B51A4940F21A444FF4B97262
:103A30000B694FF496710C3BA3420FD90424BE28A6
:103A400001DC0C241BE0DC2801DC082417E0FA2848
:103A50000EDD884210DD904211DD0FE0BE2801DC52
:103A60000B240CE0DC2801DC072408E0FA2801DC48
:103A7000062404E0884201DC052400E003242046FB
:103A800005F07AFF2046BDE8104005F057BF000062
:103A90008CAF002010B52BF689FA024601230621CF
:103AA000184614F6E7F901210170BDE8104014F63C
:103AB0002DBA14F62BBA2DE9F041044688460026AB
:103AC00040880BF691FB0546E84310F0FF0F14D039
:103AD0002788A0880BF688FB0246E38829463846EB
:103AE00014F6C8F920B1A0F10C010EB122884A8168
:103AF000E288A8F80020BDE8F081062562884FF42E
:103B00005F670126E9E7000030B597B005460C462F
:103B10001C22414910A8FEF7B9FA1C223E491C316B
:103B200009A8FEF7B3FA20223B49383101A8FEF775
:103B3000ADFA94B13949062009F030FC3849152016
:103B400009F02CFC34496C39A1F12C02052D60D20E
:103B5000DFE805F0060606213900E52017B030BD84
:103B6000207931F810001190607932F8100012902D
:103B7000A0791390206810902748843850F83500B9
:103B800021880904090C04D018B110A902F0DFFF44
:103B900038E0E420E2E7207901EB4000808A0A90D7
:103BA000607902EB4000C0880B90A0790C902068EF
:103BB0000990207810F0FF0F03D009A802F0BCFD97
:103BC00020E0E420CAE72079031F042B01D8E72076
:103BD000C4E7022818D001200290207901EB4000B0
:103BE000008D0390607902EB400080890490A079F9
:103BF0000590206801902088800508D001A9002048
:103C000002F0D4FF0020A9E702200290E5E7E420BB
:103C1000A4E7E620A2E70000E8F72000B51F1000A7
:103C2000B11F1000002806D0002904D0024AD26932
:103C3000002A00D010477047686300200248006ADD
:103C4000002800D0004770476863002010B508487E
:103C5000017800290AD10121017006482AF622FEC6
:103C6000BDE81040002104482AF61EBF10BD000028
:103C7000CC2B0020C11F100099BA20002DE9F04183
:103C800004460D461746002D04D0012D02D0012018
:103C9000BDE8F081E4B1DFB1607801281AD0EFF31C
:103CA00011860220FEF707FF8046FEF721FF401C29
:103CB0000121814008EB0100C0B280F3118800208F
:103CC0006070A570E761F0B280F311880020DFE733
:103CD0000120DDE70620DBE710B50446002C0CD000
:103CE000204600F0B3F9FF2060700021A160E16080
:103CF000216161610020E06110BD012010BDF0B5BF
:103D0000DDE90745059981614FF47A76A2FB061C2F
:103D100003FB06C3002702FB0732C0E902120919A0
:103D20006A41C0E9041200210162F0BD2DE9F041B1
:103D30000446002C13D0EFF311850220FEF7BBFEE2
:103D40000746FEF7D5FE401C012606FA00F038446F
:103D5000C0B280F311881248002121620EE00020D9
:103D6000BDE8F081D4E90432D1E9047CDB1B72EBBD
:103D70000C0202D2016A216203E00846016A0029AE
:103D8000F0D104626670064810380168491C016071
:103D9000016B4160E8B280F311880120E0E7000088
:103DA000306200202DE9F04105460024EFF3118632
:103DB0000220FEF780FE0746FEF79AFE401C012116
:103DC00081407818C0B280F31188134A106BE8B1B3
:103DD00015B102F1100010E00446206A106310686B
:103DE000401E10600CE0A94206D11168491E116006
:103DF000296A01622C4603E00846016A0029F2D1D3
:103E000024B1002020626070106B5060F0B280F32B
:103E100011882046BDE8F081206200202DE9F041A4
:103E2000EFF311870220FEF746FE0446FEF760FE20
:103E3000401C012181406018C0B280F31188114DEF
:103E4000002608E02078012804D1E16909B1A069C1
:103E5000884726702D6A2C6A002CF3D1094D103D3D
:103E600007E0E16909B1A06988472670206AA86364
:103E70002662AC6B002CF4D1F8B280F311880120DB
:103E8000BDE8F081306200202DE9F041EFF31187A9
:103E90000220FEF710FE0446FEF72AFE401C012613
:103EA00006FA00F02044C0B280F311881D4DA5F140
:103EB00010082DE0D4E90430D8E902125B1A60EB57
:103EC0000200D8E91021D21A814124D3267020465D
:103ED000FFF768FFA078012806D01248283000219B
:103EE0002162016861B10FE0D8E90220D4E9021330
:103EF00051185841C4E904102046FFF717FF07E0A6
:103F0000046005E001F1200001680029FAD1046095
:103F10002C6A002CCED1F8B280F311880120BDE8C4
:103F2000F0810000306200202DE9FF5F82460E46DE
:103F300093464FF00008BAF1000F20D04148864266
:103F40001DD8E6B1EFF311870220FEF7B4FD044659
:103F5000FEF7CEFD401C012181406018C0B280F305
:103F60001188504605F028FB10B19AF8010040B1C5
:103F7000F8B280F311880F2004B0BDE8F09F012053
:103F8000FAE706F0C9FF04460D464FF47A7106FBC6
:103F900001F022462B46002105F0F8F9DFF8A89041
:103FA000B0B1D9F8040048B1D0E90410091B60EBA6
:103FB0000500C9E9021007F029F804E00021C9F85A
:103FC0000810C9F80C104FF00108D9E9020106E009
:103FD000D9F80400D0E90421101B61EB0501CDE9FB
:103FE000020132460023CDF800B05046FFF787FEAD
:103FF0005046FFF79BFE09F0DFF84FF0E024D4F8BD
:1040000000014FF4801510F4801F01D0012000E062
:10401000002020B91420FEF70DFDC4F80051B8F1BE
:10402000000F0AD0D9F80400D0E90431D9E902021E
:10403000181A61EB020106F0A5FFF8B280F31188AF
:10404000002099E7008AB907206200202DE9F0419D
:1040500004460025002C39D0EFF311870220FEF72B
:104060002AFD0646FEF744FD401C012181407018E0
:10407000C0B280F311886078012824D1144E706892
:10408000A0420BD106F048FFD4E90432181A62EBC3
:104090000102C6E9020206F0B9FF01252046FFF73A
:1040A00081FE5DB1706848B1D0E90421D6E9020310
:1040B000101A61EB030106F065FF04E01DB970689A
:1040C00008B906F0A3FFF8B280F31188BDE8F081CB
:1040D00020620020002070472DE9F04105460F4680
:1040E000002D06D02AB12C78022C04D3E820BDE89C
:1040F000F081E520FBE7304E05F1580046F824003A
:10410000D2E900310A467030194608F091FD291DA8
:10411000286D0AF097FD0028E9D156F82410281DD3
:10412000486656F82400076056F824001822083024
:1041300005F14001FDF7AAFF204856F8241000EBD6
:10414000C4056868486056F82400001D02F0DCFFD2
:1041500056F82400001D03F079F8184801220321C5
:10416000103807F00DFD56F82410012081F86C007E
:1041700056F82410002081F8000156F8241081F828
:10418000010156F8241081F8020156F8241081F834
:1041900003010B490C2009F001F90A490D2009F02F
:1041A000FDF895F9010002F003FD95F9010002F018
:1041B0000CFD00209BE70000D02B002050F82000D1
:1041C000F1292000012A200070B5022801D3E8203F
:1041D00070BD134C54F820304BB193F86C5035B18E
:1041E00039B132B193F80351012D04D010E0E5202C
:1041F00070BDE42070BD002583F8035154F82030D1
:104200005B680225C3F8885054F820305B681B684F
:1042100054F82000001D03F0DDF80028EAD170BD3D
:10422000D02B00202DE9F04104461A4D55F824000A
:10423000703008F018FD82B2164600277AB155F8A2
:10424000240090F80111012909D0802A0ED300F131
:1042500080017030802208F021FD80260BE055F8A7
:10426000240080F800710020BDE8F08100F1800199
:10427000703008F013FD55F8240080F8047155F8EB
:104280002400324600F18001001D03F044F90028AB
:10429000EAD1E9E7D02B002070B50446022C01D307
:1042A000E82070BD184D55F8240090B190F86C309E
:1042B0007BB181B17AB1002680F8026155F8240003
:1042C000703008F037FD55F8240090F8001121B146
:1042D0000AE0E52070BDE42070BD90F8011119B925
:1042E00090F86C10012901D0E22070BD012180F806
:1042F00000112046FFF796FF20B155F8241081F8F1
:10430000006170BD002070BDD02B00202DE9F84F5A
:10431000294D804692460E4601F10804A8F58041D9
:10432000264A6868B1F5804F01D25168401A84422C
:1043300002D90520BDE8F88F28681369411E9268EC
:10434000C1F30B01411A9A1A01F6FF716B7AC1F39E
:104350000731C91A02EBC101081A001F844225D98E
:10436000174F0024009411231E224FF40049D7F860
:1043700000C049460120E0470021084601F0E2FC68
:1043800040B1009413231E223C6849460120A047F7
:104390000A20CFE7687A04F02BFF0028CAD10094E6
:1043A00012231E223C6849460120A047524631464E
:1043B00040460AF03FFFBDE7FCAC0020F42C002093
:1043C000E0010020024840680089C0B27047000048
:1043D000842F00200848006800280CD090F82E1088
:1043E000012908D190F83000FF2804D20349086859
:1043F00040F0806008607047782F002000000E4079
:1044000010B586B01A4C94F8020100282ED06846E8
:104410002BF69EFC9DE8070003AB07C3154909680E
:104420000844154920F07040486008462BF6B2FE5B
:1044300094F800011149096801EB001000F54050A3
:10444000B0F85003C0F3C20002280FD80C4800781F
:1044500020B106B0BDE810402AF63ABD06B0882269
:10446000BDE8104007A10CA0FFF5EABE06B010BDE4
:1044700064170020100400205017002004020020C0
:10448000050400207363685F70726F675F7061740A
:1044900063682E63000000003000000010B586B095
:1044A000044668462BF654FC9DE80E0003A80EC097
:1044B0000B4A891C21F07041516010462BF6F6FD25
:1044C00007482BF667FE207F002806D1054991F8A2
:1044D0000101054A01EB0010426006B010BD00006A
:1044E0005017002064170020ADA2200010B500F086
:1044F0000BF801F053FB05F0F1F808F08DFDBDE875
:10450000104008F0ADBD000010B50849084801F0A2
:10451000A5FD084947F6714001F0A0FD0448BDE83B
:1045200010400549483801F099BD000035A0200031
:10453000819402009D4C2000D19F2000144810B5AA
:10454000016821F004010160016841F0020101608D
:10455000016841F001010160016821F00201016080
:10456000016841F004010160094902201039086026
:10457000074940F601701C3908600120091D0860D8
:104580000002FCF5CFFA02F63BFC0028FBD010BD80
:10459000E0A400402DE9F05F0C465FEA00091FD05F
:1045A000F4B1EFF311880220FEF793FA1F4909686E
:1045B0000122C1F30221491C8A401044C0B280F399
:1045C00011881B480027C688B0F808B08588D0F845
:1045D00000A000F063F8A04204D21020BDE8F09FD4
:1045E0000120FBE7B34504D83019A84201D3401B92
:1045F00087B2E21B0AEB06004946FDF747FD09EBCF
:104600000400C11B3A465046FDF740FD301980B208
:10461000A84201D3401B80B20549C88008F0FF00C2
:1046200080F3118803F072F80020D7E70CED00E06A
:10463000F4B2002010B528B302681AB3808808B31A
:1046400001B3114B196011490A608880002008816C
:104650001C1DC880206898B1216989B1616979B150
:104660008047606800B1804709482AF60FFC094876
:104670002AF6E2FB08482AF60FFC20460AF024F945
:10468000002010BD012010BDE42E0020F4B2002057
:10469000E58A2000BD622000158B20002DE9F04145
:1046A000104FFD883C89EFF311860220FEF711FAC6
:1046B0000D4909680122C1F30221491C8A401044B6
:1046C000C0B280F31188AC4201D9601B02E0B88807
:1046D000401B2044401E80B2F1B281F31188BDE836
:1046E000F0810000F4B200200CED00E010B54FF4B2
:1046F000B0711648FDF7F1FC144800210170032247
:10470000027107234371012383600173027408243B
:1047100044740224446103764FF4E1340464426437
:104720008164C16401654365094A0A49FFF7D4FC05
:10473000074809490830FFF77DFFBDE810404FF4F6
:10474000805206490020FFF73FBD00009460002022
:10475000D82B0020D98D2000017720009450002014
:1047600010B5044609F00CFB002811D009483C2C78
:10477000417806DD032902D06FF00C0004E00D2023
:1047800002E0322C04DA1C20BDE8104004F0B2BC78
:1047900010BD0000AC2E002000F002B800F024B8DC
:1047A00010B50F4C2069002819D00E4982690A61A2
:1047B000C2694A6102684A6342688A638268CA635E
:1047C000C268C1F834210269C1F838214269C1F8D0
:1047D0003C21026A0A6313F659F80020206110BDDB
:1047E000AC2E002000200F4070B5464D464C286985
:1047F00008BB0021242013F6DDF92861A8B1216946
:1048000081616169C161616B0160A16B4160E16BB4
:104810008160D4F83411C160D4F838110161D4F842
:104820003C114161216B016205E040F21B7237A12E
:104830003BA0FFF505FD606B40F001006063606B1D
:1048400020F4407040F400706063206920F47F40E1
:1048500040F4A0502061606920F47F0040F4A01073
:104860006061606920F07F4040F0A0506061206B83
:1048700020F0FF0040F015002063206B20F47F4003
:1048800040F48070206368782649274A012815D0B3
:10489000022823D0032833D1206920F0FF0040F004
:1048A000180020614800A0635000E0631F48C4F86E
:1048B00034011F48C4F838011E481FE0206920F069
:1048C000FF0040F01C002061A163E2631A48C4F8B5
:1048D00034011A48C4F8380119480FE0206920F063
:1048E000FF0040F01C002061A163E2631548C4F89A
:1048F00034011548C4F838014FF00F30C4F83C01BA
:1049000070BD0000AC2E002000200F4072665F6773
:1049100064785F636169726F5F62302E63000000CC
:1049200030000000010203040506070812141618DF
:104930001A1C1E20222426280A0C0F1014181E26CA
:104940002E323A3F090A0B0C0D0E0F0F411E0329A0
:1049500005D34FF4F37203A107A0FFF571BC07491B
:104960004870704772665F6764785F636169726FF1
:104970005F62302E6300000030000000AC2E00208B
:104980002AF696BA4FF0E0214FF48020C1F80001DA
:104990007047000010B50321084807F015F90821F9
:1049A0000648183007F00AF901210448083807F0D2
:1049B000FFF8BDE81040FFF799BD0000002C002073
:1049C00008B50020009068462EF67CF80348416A3E
:1049D000002901D00098884708BD0000A42C0020C1
:1049E0002EF68AB810B5044688B0434800F0A2F904
:1049F0000020FDF6CFFD4149122008F0CFFC4049D0
:104A0000022008F0CBFC3F482AF64CFA3E4807F05B
:104A10006DFA3E49606C08443D490860204600F04C
:104A2000A3F83C48D0F88403C00607D547F6122007
:104A30002EF680F80120FDF721FB12E036480090A9
:104A4000364801903648406808B1804709E001A91E
:104A5000684608F02DFB0098FDF710FB01982BF637
:104A600059F930482AF606FA2F482AF609FA2F484B
:104A70002EF674F82E482AF6AFF92E482AF6B2F927
:104A80002D482AF6B5F92D482AF648FA2C492D4B1F
:104A9000606A0A781B7809781A44B0FBF2F0C0B259
:104AA00010FB01F1206AFFF76BFFFFF789FF206819
:104AB000009060680190A0680290E068039020690F
:104AC000049060690590A0690690E06907906846C7
:104AD0002EF614F82DF6FCFF1B48D0F84011C0F854
:104AE0004011D0F84411C0F844112BF657F8FFF7E5
:104AF00049FF08B010BD0000ED96200055292000A8
:104B0000E536000091CB200059C0200000C0FF1FF7
:104B10000402002000E000402222111144443333FB
:104B2000A42C002029740000D974000091D1200029
:104B3000794E2000B14E2000E94E2000B5C520007E
:104B400030FA200031FA200000000E4010B5044673
:104B50000120FFF7FBFE00F019F800F061F8204695
:104B6000BDE81040FFF73EBF0649028F0A80428F22
:104B70004A800549828F0A80C28F4A80B0F840007F
:104B800002F68CB9080200200C020020AFF300806E
:104B900010490F48086011490F4808601149104832
:104BA000086012491048086012491148086013490A
:104BB00011480860134912480860144912480860F7
:104BC00014491348086015491348086070470000ED
:104BD000B9A4200084020020C1A02000C00300204E
:104BE0002382200080030020DD8920008403002030
:104BF0009587200088030020898120006C03002015
:104C00005988200070030020CF8120007403002009
:104C1000BD882000780300202D8920007C0300201F
:104C200006490548086007490548086007480649DD
:104C300081600749C1607047B78A2000680300207F
:104C4000E187200064030020C58020000C2F002095
:104C5000CD83200070B504460E48457808F002FD6B
:104C60000B2140B1022D02D00B48217070BD0A48C3
:104C700020380821F9E7022D04D0032D06D006487C
:104C80005030F2E704482C300921EEE702487C302E
:104C90000F21EAE7AC2E0020A0F8200070B5A0F5A7
:104CA0005451AD394FF48272B1FBF2F1CCB21049DC
:104CB00001EBC40505F58875082C05D3531C014686
:104CC0000CA22046FFF5C4FA04EB841043F2AD5168
:104CD00001EB8000A8800CF6E1FE0446044829465A
:104CE000143003F65DFB2046BDE870400CF6E4BED0
:104CF0000C0D00206C6C645F70617463682E63003F
:104D00000A2802D840F6641103E0242804D840F6AB
:104D1000661101EB40007047252804D0262805D0F5
:104D20004FF41B60704740F66210704740F67A10EF
:104D30007047000010B5002198B1EFF310840122F4
:104D400082F310880B4A52F8213063B1491C0529BF
:104D5000F9DB5CB1012080F31088052908DB0B200A
:104D600010BD022010BD42F82100F2E70020F2E75A
:104D7000002010BD9CAE0020194810B50068C0F39B
:104D8000000038B1164808380068C0F3000008B1C8
:104D900008F090FA13480068C0F3000038B11148D9
:104DA00008380068C0F3000008B100F049FC08F0C2
:104DB000F9F9002813D004F05DF800280FD0002185
:104DC0000C2001F07DFF0120FDF6EAFB064881681A
:104DD00021F480718160054800218170C17010BD8F
:104DE00008E4004008E5004000A00040142D002029
:104DF00000B508F0D7F920B104F03CF808B1012063
:104E000000BD002000BD000010B510491E2008F0B4
:104E1000C5FA08F0C7F9A8B101210C2001F050FF34
:104E20000120FDF6B7FB0A49012008700949D1F8B5
:104E3000801211F4403F00D1002008F00DFA1E202E
:104E4000FDF71FFE00F0A2FB10BD0000FD212000B9
:104E5000142D002000A000400449034808600549C3
:104E6000034808607047000075281000A00100206A
:104E70000F291000880100200B4850F8841F21F4EE
:104E80007F0141F408010160016821F07F4141F098
:104E90009E4101600548D0F8181221F0700141F0E0
:104EA0002001C0F81812704700200F4000100F407A
:104EB0000B4850F8841F21F47F0141F40C0101607C
:104EC000016821F07F4141F03C5101600548D0F874
:104ED000181221F0700141F04001C0F8181270471B
:104EE00000200F4000100F400B4850F8841F21F4A1
:104EF0007F0141F408010160016821F07F4141F028
:104F00009E4101600548D0F8181221F0700141F06F
:104F10002001C0F81812704700200F4000100F4009
:104F20002DE9FC4188460446164D4FF6FF76164F94
:104F300021E0A968082201EB0030694605F07AFFFC
:104F4000082802D00B20BDE8FC81BDF80000B0426B
:104F50000ED00C489DF800101430C170BDF802103E
:104F600081809DF8012088F800202178417006E0BA
:104F70002078401C20702078797A8842D9D300208C
:104F8000E1E70000F42C0020FCAC0020124810B532
:104F9000016821F00041016010490A78497842EA2D
:104FA0008103011D0A6863F31F720A60016841F002
:104FB000004101600A48D0F8881241F00101C0F8B0
:104FC000881208491D2008F0E9F94FF0E0214FF060
:104FD0000050C1F8000110BD04A90040402D002080
:104FE00000E0004079292000F8B5EFF31086012099
:104FF00080F3108806208DF800006846FDF7E8FC75
:105000000220FBF595FA3220FBF58CFD184C206848
:1050100020F400302060251F286840F0020028603E
:10502000144F7889FBF57EFD286820F00200286087
:10503000B889FBF577FD9DF80000FBF579FA0C487F
:105040003830016889020CD400682168C0F304403C
:1050500041F400312160216821F4F83141EA003047
:1050600020601EB1012080F31088F8BD0020FAE70F
:1050700008A90040F42D002070B5044600681646CB
:10508000421EC2F30B02821A0025831902F6FF7238
:105090009A4200D80825324605F010FF216872199F
:1050A0001144216070BD000002004FF0010007D0E4
:1050B00031B11268034B9A4202D108220A7070473C
:1050C0000020704700400140F8B506004FF0110085
:1050D0000D468DF800004FF0000414D069463046AC
:1050E000FFF7E2FF01280CD1012D00D01DB9306877
:1050F000D0F8A00300B1012421469DF8000001F082
:10510000DFFD86F82950F8BD10B51548154CB0F8EC
:1051100046104FF6FC70C91C01406180C81D20F08C
:105120000300606043F6F672101A042805D85D2368
:105130000DA24FF48040FFF58BF80E4861680068BF
:10514000014461600020002221F81020401CC0B200
:105150000728F9D3608808498008086010BD00005E
:10516000C40C0020842F00206C6C645F7061746339
:10517000682E630004020020A4010E4000B500F078
:1051800007F802490120886100BD0000B0AE002090
:1051900030B5084C012504F8045B84E80F0006488C
:1051A000241F8068884201D2081A00E0401A60611A
:1051B00030BD000048AF0020282D002010B503F0BE
:1051C000D3FE044618210548FCF787FF034A002157
:1051D00020461170BDE8104000F018B948AF00201B
:1051E000F0B40E460146224F2048BB680578C0E95E
:1051F0000821994201D9CC1A00E05C1AFF68A74245
:105200000AD28769A74201D9C0E90642012D09D017
:10521000022D1FD0032D27D113463246F0BC0020AB
:10522000FFF7ACBF41619942016902D9491C816015
:1052300002E0491EC1608168C268914206D21144F1
:105240004908016101210170016909E00221017031
:10525000816805E0C3699342DED0032101701946DD
:105260003046F0BC00F006B8F0BC7047F0AE00204D
:10527000282D0020054A936A5B1C93628AB2C1B252
:105280000348044B406803F003BE0000F0AE00206A
:10529000282D0020E151200070B50E4C05462C2130
:1052A0002046FCF71AFF0020A06040F2FF10FF220A
:1052B000C4E903024FF0FF30A061A06AE9B2401CCC
:1052C000A062012020700448044B4068BDE8704093
:1052D00003F0DEBDF0AE0020282D0020E1512000BB
:1052E0002DE9F843254C0746904620780D460128C5
:1052F0000BD0022813D008201346E0610A4601B003
:105300003946BDE8F043FFF739BF40F2FF11C4E969
:1053100003712846BDE8F843022200F061B8002678
:1053200000966846676100F02BF870B1012810D034
:10533000022817D003281FD0072043462A463946A3
:10534000E061FFF71BFFBDE8F8832846FFF7A4FFE5
:10535000F9E70F2D04D201223146681CA66006E051
:105360000520EAE735B101220021681EA66000F0A1
:1053700037F8E8E70620E0E70098DEE7D0AE002047
:1053800010B51649144A144C0B698968D2686469CF
:105390008A4201D98C4219D88A4201D28C4211D357
:1053A0008A4201D9521A00E08A1A8C4201D9611A44
:1053B00000E0091B9A4203D3994201D3002010BD9B
:1053C0009A4201D2012010BD994201D2022010BDA3
:1053D00003210160084610BDD0AE0020282D00201A
:1053E000074B30B49C69641C9C6158601A708AB287
:1053F000C1B20448044B406830BC03F049BD000012
:10540000D0AE0020282D0020E152200070B5074CBE
:10541000054620212046FCF760FE00212846A160B9
:10542000BDE870400122FFF7DBBF0000D0AE0020D6
:10543000F8B51D4C00250E460095E169491CE16157
:10544000C4E90162E168C4E903011849896881423D
:1054500001D2401A00E0081A6169814201D9C4E909
:105460000502684600F024F840B101280BD002285C
:105470000FD0032811D00098A06200E0A56220465A
:1054800000F098F8F8BD012084F820003046A169AA
:1054900006E0A1683046491C02E0A1683046491E7A
:1054A00000F04AF8F8BD00001CAF0020282D0020B5
:1054B000F0B51F4A1F4DD368A9688B4201D95C1A09
:1054C00000E0CC1AED68A54210D2576A012F0DD02A
:1054D00092F82040012C09D0154CD6694FF0010CF0
:1054E000A569A468BE4203D3A54213D10020F0BD34
:1054F000012E08D916698E4201D98B42F4D38E420F
:1055000001D28B42F0D88B4208D9B4F5FF7F08D97D
:10551000092109E082F820C00120F0BD1CB1032060
:10552000F0BD0220F0BD0A2101600420F0BD0000A2
:105530001CAF0020282D00208AB2C1B20248034BC4
:10554000406803F0A5BC0000282D00203154200045
:1055500070B50D46044616462C210948FCF7BDFDE2
:10556000074B0020B2B283F82000401E5C625861F5
:105570000448E9B2044B4068BDE8704003F088BCC1
:105580001CAF0020282D00203154200010B503F05E
:1055900067FC00280AD00648007818B1BDE8104022
:1055A00000F02EB8BDE81040FFF708BE10BD0000A7
:1055B00048AF002000B500F007F8024901208861DB
:1055C00000BD0000B0AE00200B4901220A71826AC2
:1055D0008A60C269CA60C2680A6142684A618268B8
:1055E0008A61C26805488068824201D9101A00E0C9
:1055F000801AC8617047000060AF0020282D00208D
:105600002DE9F04103F0B0FC804603F0BFFC0746F3
:105610000A48094C2021466925682046FCF75DFDB3
:105620006D1C0020256020713A4641463046BDE899
:10563000F041FFF78DBF000060AF0020282D002053
:1056400010B50E4C2069401C206103F0B1FCE060F5
:1056500003F08AFC606003F099FC094A0021A06015
:1056600011606161E3692BB102462179E068BDE810
:10567000104018470120A06110BD0000B0AE00200E
:1056800000E5004070B5164890F80014154D2868E4
:105690000122C0F30220401C82408818C0B280F36F
:1056A0001188114C0F4821680C306268A36880E8AB
:1056B0000E00232204F10C010C48FCF7E7FC216BDF
:1056C0004FF0E020C0F80011616BC0F80411A06B2E
:1056D000286007484068C0B280F3118870BD0000A0
:1056E00002E000E00CED00E0F4AF002000E400E098
:1056F000EC2D0020EFF311800D4948604FF0E021C0
:10570000D1F800210B480263D1F8041141630A4922
:1057100009680A4A89B21143816307490C310EC9ED
:10572000016042608360232205490C30FCF7AEBC67
:10573000EC2D0020F4AF00200CED00E00000FA0595
:1057400000E400E07CB50E4D4FF6FF76AC680834FF
:1057500008226946204605F075FBBDF80010B142ED
:105760000CD059B1BDF80200083081B2204600F0DB
:105770004FFC044628698442EAD37CBD20467CBDA8
:10578000F42C00202DE9FE430D4607466A4609F039
:105790004FF8E0B91648009C0CB98468083400261C
:1057A0004FF6FF7980460096082201A9204605F0B1
:1057B00049FBBDF80400484502D12E80009606E062
:1057C000B84207D115B1BDF80600288000940098B2
:1057D000BDE8FE83BDF80600083081B2204600F027
:1057E00017FC0446D8F810008442DDD3E5E700003A
:1057F000F42C002010B50021084A53880BE05468AF
:1058000054F83140844204D1506800EBC100406834
:1058100010BD491C89B29942F1D310BD0C2F002054
:1058200010B50021084B5A681B8809E052F8314036
:10583000844203D102EBC100406810BD491C89B20B
:105840009942F3D310BD0000302F002010B5002185
:10585000084B5A681B8809E052F83140844203D152
:1058600002EBC100406810BD491C89B29942F3D3D4
:1058700010BD0000042F002008B505F033FF07F02D
:105880008DFE01208DF80000A3208DF8010002207C
:105890008DF802000098FCF539FB012005F08DFC25
:1058A00005F0D6FE05F05EFF05F046FF07F038FE76
:1058B000002809D00548016A21F00101016204486D
:1058C000016821F08001016008BD000000A00040D7
:1058D00000A90040064A10B55060118105481061CA
:1058E00010462AF6E3FBBDE8104001482AF652BCF8
:1058F000D0B40020F9582000AFF30080124841785E
:1059000012480329C16A41F08051C162C16A41F065
:105910000051C162C16A0BD041F40071C162C16A19
:1059200041F08061C162C16A41F08071C16270471B
:1059300041F48071C162C16A41F08061C162C16A93
:1059400041F00071F2E70000AC2E002000200F4073
:1059500002494968002900D0084770477C2F002081
:1059600070B5044600BFFDF7CBF805460120FDF7F2
:10597000D6F90948047024B9482208490848FCF7B8
:1059800085FB1DB90020FDF7CAF902E00120FDF7F3
:10599000C6F900BF70BD0000A02C0020A8AA0020FE
:1059A000002000E010B507484068074948600648F5
:1059B0000830402203490831FCF768FB0320024904
:1059C000086010BD60AA0020002000E0002003490C
:1059D0000968002900D00847704700007C2F00208C
:1059E00070B500BFFDF78CF805460120FDF797F96B
:1059F0000B48047834B948220A490B48FCF746FBA7
:105A0000FFF7D0FF0120064908701DB90020FDF7FF
:105A100086F902E00120FDF782F900BF204670BD43
:105A2000A02C0020002000E0A8AA002013B501212E
:105A30006846FEF7F7F801201CBD00002DE9F84F7D
:105A40000446607800F00F0100260A20884302D047
:105A5000052088437DD1DFF83C914F4F99F8000035
:105A6000C00777D01F2094F82020520606D57F204B
:105A700097F8702042F0200287F8702011F0050F8F
:105A800004D0A17E490701D540F4C07040F4C06540
:105A90004FF0000A87F883A0208C000402D5012073
:105AA00087F88300208C400405D597F8830040F0E8
:105AB000020087F88300A08B294609F62DFC0646D4
:105AC000300064D194F820004FF6FF7B10F0380FBF
:105AD0004FF4006813D0042009F6BAFA94F82010A5
:105AE000C1F3C201491E0BEA81020C21FEF593FCB1
:105AF000042009F6ADFA41460A46FEF58CFC94F8FE
:105B00002000400713D0022009F6A2FA94F82010D2
:105B100001F00701491E0BEA81020C21FEF57BFC16
:105B2000022009F695FA41460A46FEF574FC15F482
:105B3000C06F1AD00021002005F001021144C9B243
:105B40006D08401CC0B22028F6D3B7F8520008B147
:105B500001E01CE009E0CDF800A0491E084480B235
:105B60006B4600220121FEF5FBFB99F8000080073F
:105B70000DD594F82000000604D517F8700F40F0FA
:105B800040003870E08B01210BF660FE064630467F
:105B9000BDE8F88FFC0400204819002002490148A4
:105BA000086070473D5A200004050020024640204E
:105BB0001B3AE02A07D8B1F5A47F04D344F290221F
:105BC000914200D8002070472DE9F0410F461E4653
:105BD0000021002400256FF488528018134A04D055
:105BE000012805D0032809D105E01468556805E0AF
:105BF0009468D56802E0146955693E78002210E087
:105C000034F83200B0420BD104EBC200406850B10E
:105C1000FFF706FE0246394630469047014602E04D
:105C2000521CAA42ECD30846BDE8F081440600208D
:105C30002DE9F8430C463DA0006800906A462146D5
:105C4000002009F6F5FF0746012F65D1607800F0C6
:105C50000F084FF00009A18C608CFFF7A7FF08B177
:105C6000402553E0324E86F8709086F86E90FEF52F
:105C7000D1FF30492046096888470546280045D1AC
:105C8000022028F623FD86F86E802B48006808B1B4
:105C90008069804786F8779094F82A0086F8760025
:105CA00096F86E00800820D04120E17E86F87110C1
:105CB0008A0704D421F0020086F871001720E18CD5
:105CC0004FF40062914200D31146884200D9014648
:105CD00089B2A6F87210228D8A4200D211468842FB
:105CE00000D80846A6F8740001E086F871901048C4
:105CF000102204F10A015830FCF7C8F9A07EC00751
:105D000004D06068B0662089A6F86C003DB10B4AEB
:105D100029460020126890473846BDE8F883084AB3
:105D20000021084612689047F6E7000003000000D3
:105D3000481900200405002084050020F4040020F8
:105D4000000500202DE9F04F8DB00822ADF8242089
:105D50000022DFF848828DF820204FF008090192D8
:105D60008DF8081016464FF0010BE8B3082203A97E
:105D7000D8F80C0005F05EF808287CD19DF80C00DE
:105D8000A52809D008F11400C188ADF82410447882
:105D900080788DF8200049E09DF80D00D8F80810B3
:105DA000022201EB00306946083005F043F8BDF8E7
:105DB0000010A1F57F40FF380BD09DF80D00D8F8FA
:105DC000081001EB00304FF4805105F01BF800285B
:105DD0007DD0BDF81210ADF824109DF80D109DF87F
:105DE0000E00491CCCB200E00AE08DF8200002ABA6
:105DF00009AA08A903A809F043FB012868D015E007
:105E0000FFF7A0FC411EC1F30B01401AD8F808109F
:105E1000401AFF2100F6FF7001EB103010F0FF0474
:105E20008DF8204002D08DF808B0012608F068FCFB
:105E3000ADE00025059506954CB1D8F80800042280
:105E400000EB043005A904F0F5FF042813D15348F2
:105E5000A521C8F814501430C8F8185001704470C7
:105E60009DF820108170BDF82410C1809DF8141099
:105E70004746C17000E04EE0BDF816108180D8F8AA
:105E8000080000EB043101EB09000190F86800EB19
:105E9000090107914FF4805104F0B4FFB8B19DF8A7
:105EA00014202AB1012307A901A809F0C1FA90BB67
:105EB000BDF816202AB1002307A901A809F0B8FAF5
:105EC00048BBC4F1000A0198B968411A01E04BE0EF
:105ED00062E001EB0A30C0F58055082DCDF800B026
:105EE0001ADD08230AAA07A901A809F077FA90B9D0
:105EF000BDF82810A1F57F40FF381AD0BDF82A2040
:105F0000083DAA4200DDAAB2002307A901A809F0B2
:105F10008FFA00B907E036E0ABB2214A07A901A821
:105F200009F05CFAF5E7F868079900F580508142BE
:105F3000C9D31A4908221431F86804F0E5FF08288B
:105F400021D1B8684FF4805100EB043004F05AFFBF
:105F500050B176B1B868042200EB043005A904F012
:105F6000D3FF04280FD103E00B200DB0BDE8F08F64
:105F700000260A4802AB09AA08A9143009F080FAE1
:105F8000012809D008B10A20EFE7641CE4B20548F3
:105F9000407AA042BFF44DAF0020E6E7F42C002089
:105FA000D0AB0020FCAC0020017882781144C9B24B
:105FB00001710846704730B500224271448805E0FF
:105FC0008D5C4379521C2B44437192B29442F7D8B2
:105FD000407930BD0948D0F89C10D0F8A020C1F31A
:105FE0001401D0F88000C2F31403C0F3C112581A90
:105FF000034951F8221048437047000000200F4029
:1060000080F9200001480078704700000C2F002024
:1060100010B5441803F0DCFA00B10820204410BD8C
:10602000024600210BE0084850F83130501E8342F0
:1060300004D1054800EBC10040687047491C102995
:10604000F1DB0020F9E70000F0AA0020002101E0C8
:10605000491C4008C207FBD0084670472DE9F041B3
:1060600004460D46002600BFFCF74AFD0746012006
:10607000FCF755FE2F480078102801DB761E4CE017
:1060800048222D492D48FCF701F848222C492A487E
:10609000FBF7FCFF2B482749097840F83140254998
:1060A000097800EBC100456024F0010425F00105EA
:1060B00004F0030090B124F0030040F001021E49F7
:1060C00008311C4B1B7841F8232001881E4A1144DB
:1060D0001E4A184B1B7842F823100EE044F00101D1
:1060E00015480830134A127840F822104DF6FF7018
:1060F0001649104A127841F8220048220E491048E9
:10610000FBF7C4FF48220D490B48FBF7BFFF0948C6
:106110000078401C0749087000BF1FB90020FCF739
:10612000FEFD02E00120FCF7FAFD00BF3046BDE8AD
:10613000F0810000A12C0020002000E0A8AA00208F
:1061400060AA0020F0AA00200000FFDF00B50020B8
:1061500070B5044600BFFCF7D3FC05460120FCF7F0
:10616000DEFD0020144908701448154908601548E0
:1061700015490860482215491548FBF787FF15485F
:10618000124948600320086048221348FBF77EFF4D
:1061900048220F490D48FBF779FF882C01D008F001
:1061A00063F91DB90020FCF7BAFD02E00120FCF7FD
:1061B000B6FD00BF70BD0000A02C0020615920007A
:1061C000802F0020E15920007C2F0020002000E0DB
:1061D000A8AA002000B5002060AA002070B5124CCB
:1061E000082004F1080511F685FA60896880208985
:1061F0002880698871B101F0F5F9606028B169887B
:106200002046BDE8704000F001B92046BDE870406E
:1062100000F094B80022114601F02EFA2046BDE8A5
:10622000704000F001B9000068B4002070B5154D51
:10623000062005F1080411F65DFA28892080A97A64
:10624000A17080B281B101F01FFD0146A0788142AA
:1062500012D3022111F6AEFC686068B1A17828461D
:10626000BDE8704000F0D2B8002201F015FD2846CC
:10627000BDE8704000F0D8B82846BDE8704000F096
:106280005DB8000068B4002070B50B4C072004F125
:10629000080511F62FFAA9782888626801F0FCFC3D
:1062A000606818B111F6F2FA002060602046BDE87F
:1062B000704000F0B9B8000068B4002070B5054621
:1062C00006F0B8FE184A05EB850102EBC104206018
:1062D000FF2084F82400002125750A4601EB4100C7
:1062E00004EB8000C1F1FF038261491C80F8223079
:1062F00011F0FF01F2D02068806880470B4905202B
:1063000011F6DAF90A49062011F6D6F909490720EB
:1063100011F6D2F90849082011F6CEF92046BDE859
:10632000704000F081B8000068B40020C165200012
:106330002D62200089622000DD61200070B50446D6
:1063400001231022002141F2031011F693FD0025D4
:10635000057010F6F5FEA560E560607C20742046AF
:1063600000F046F8BDE87040042029F6F9BB0000B3
:1063700038B5044614A0002500680090042204F1FA
:106380000E016846FBF7B4FE98B10A2204F1080139
:106390000E48FBF7ADFE98B1042029F6F1FB002270
:1063A000A318521C587AD2B21872092AF8D3284678
:1063B00038BD0022114640F6034001F06DFC01E0BB
:1063C000FDF768FB0125F2E701030C0043FA20000A
:1063D00010B5012282740268034608301468034A2B
:1063E000A047BDE81040042029F6CABB4D64200038
:1063F00030B40321817401680346034A0C6801210B
:10640000A44630BC113060474D64200030B40222F5
:106410008274D0E90025034614682846A44630BC9F
:10642000004A60474D64200010B500218174016866
:106430000346054A0C6801211130A047BDE8104011
:10644000042029F68DBB00004D64200038B50446B9
:1064500021B101291FD0A07CE8B975E0A07C78B1FA
:1064600004F10802012823D0022847D0032867D06E
:10647000BDE8384040F2773238A13AA0FDF5E0BEE1
:10648000607C3949E07401280AD0022808D0042829
:1064900006D0102806D02046BDE83840FFF74EBF92
:1064A000095C00E0097C2046BDE83840FFF790BF5A
:1064B000E07C012807D0022807D0102807D0217DD2
:1064C00040F2FE2324E0062029E0082027E0694668
:1064D0001046FDF7F0FA38B1BDF8001041B1606028
:1064E0002046FFF793FF38BD2046FFF727FF38BD52
:1064F000FDF7DFFA2046FFF797FF38BDE07C012863
:106500000CD002280FD0102814D0217D40F25A332D
:1065100001B012A2BDE83040FDF59ABE0720BDE8EB
:10652000384011F66FB9104662684188008801F062
:10653000A3F809E06068FDF7BCFA0020606003E0A2
:106540002046FFF715FF20B12046BDE83840FFF791
:106550006BBF2046BDE83840FFF74ABF6834746C13
:106560002E6300003000000032FA200010B504460F
:1065700029B140F2E91208A109A0FDF561FE94F8E5
:106580002410002001EB410104EB81018861BDE88A
:106590001040052011F636B96834746C2E63000083
:1065A000737461747573203D3D20525749505F45A7
:1065B00049465F5354415455535F4F4B0000000010
:1065C0002DE9F041052011F695F80027DFF88880C5
:1065D0003D4605EB850108EBC10494F82400FF2833
:1065E0002DD000EB400004EB800050F8181F29BBB1
:1065F0004068002600B18047FF21002000EB4002E8
:1066000004EB820252F8183F23B1927AB24201D9C8
:1066100001461646401C10F0FF00EFD084F824100D
:10662000FF290CD001EB410004EB80002268018CB3
:10663000806956682346094A491CB04701276D1CEA
:1066400015F0FF05C5D0002F04D1BDE8F0410220B0
:1066500029F686BABDE8F08168B400206D65200097
:106660002DE9F0410446984615460E4601270220C2
:1066700029F686FA06F8014D032C19D004DC012C0A
:1066800016D0022C04D113E0042C11D0102C0FD002
:1066900040F2C54312A239462046FDF5D9FD3946E0
:1066A0002046BDE8F04140F2DD430DA2FDF5D0BD2E
:1066B0000D4B00219E611D84C3F81C8093F82400BB
:1066C000FF280AD183F824101868691C074A446817
:1066D0003046A446BDE8F0416047BDE8F0810000C7
:1066E0006834746C2E63000068B400206D6520006F
:1066F0002DE9FE430546002403208DF80000002606
:106700000C4F4FF00108E8070BD008FA04F0019095
:1067100007EBC4004068029057F8341009B168468E
:106720008847641CA4B26D08761C082EEBDBBDE81C
:10673000FE8300002030002000B589B0002815D06D
:1067400001680091017901F00301019181680291D2
:10675000C1680391016904914169059181690691BC
:10676000406800090790684602F0C2FF09B000BD0A
:106770002DE9F0411E4DD5F8080210F0FF04D5F8C0
:1067800084006FF00207C0F3400629D0D5F8080254
:10679000A043C5F80802E043C5F80802C5F88470B4
:1067A00014480068C0F3000040B1E00606D5D5F8F3
:1067B000000224F0100420F010000BE0A868C0F3E1
:1067C000000050B1A00608D5D5F8000224F020043E
:1067D00020F02000C5F8000202E02046FFF788FF05
:1067E000002E03D0002C01D1C5F88470BDE8F081E3
:1067F00000A0004024AA00402DE9F047040025D065
:106800003148D0F800A0DFF8C4804546D8F80090A1
:106810005046494600F0F8F86E68F9F5ABFE2C4892
:106820004FF47A710068B0FBF1F54D43217920688F
:1068300003F0EEF82079D4F800C000EB400101EB42
:10684000C0010CEBC1030027414606E00120BDE872
:10685000F0874A68921BAA420FD81A6CC2F34022F2
:10686000002AF6D0012208308240CCF8A02314E0A0
:10687000D8F80400801BA8420FD9206C40F02000FB
:10688000206484F8287003212046FEF71DFC494649
:10689000504600F09BF80320D9E72179206803F0E7
:1068A000A4F80028E4D12179206803F0A6F801219A
:1068B0002046FEF709FC84F828704946504600F04F
:1068C00085F80020C3E70000FCED00E0001000E0C8
:1068D0005C0000202DE9F04104004FF0000612D0CA
:1068E00094F829000027012810D094F829000228E4
:1068F00014D094F82900042810D0206C40F0040033
:106900002064012608E00120BDE8F08184F82870A9
:10691000E16B09B1204688473046F5E7207901252B
:106920002168083005FA00F0C1F8A0032179206839
:1069300003F05BF80028F9D120792168083005FAC6
:1069400000F0C1F8100320792168083005FA00F042
:10695000C1F8180320792168083005FA00F0C1F861
:10696000200320792168083005FA00F0C1F82803D7
:1069700020792168083005FA00F0C1F83003217948
:10698000206805FA01F1C0F838132179206805FA6A
:1069900001F1C0F840132179206805FA01F1C0F82F
:1069A00048132179206805FA01F1C0F850132079C5
:1069B00021688540C1F858532179206803F00AF80E
:1069C00001212046FEF780FBA0E7000010B5EFF3A1
:1069D0001083012282F31088084A1468641E146030
:1069E00012681AB9064A1160064908601BB10120F5
:1069F00080F3108810BD0020FAE70000482F002027
:106A0000001000E0FCED00E010B5EFF31082012370
:106A100083F31088094B1C68641C1C60084B40F011
:106A20008070186041F00100064908601AB1012029
:106A300080F3108810BD0020FAE70000482F0020E6
:106A4000FCED00E0001000E00A4610B50146002011
:106A5000FBF562FA08B1002010BD012010BDFBF566
:106A600061BA10B51446FBF5C9FA08B1002010BD93
:106A7000204610BD2DE9F74F00244FF4807AC0B0B6
:106A800017468B461546524501D9564600E03E460C
:106A90000BEB0401884632466846FBF7F7FA40984C
:106AA0003246204481466946FBF5EEFAB8B94846BD
:106AB00032466946FBF5A2FA88B940463246694635
:106AC000FBF716FB58B9AD1B0DD034445646B54202
:106AD00000D82E46BC4202D2A019B842D8D9002014
:106AE00043B0BDE8F08F3846FAE700002DE9FE43D9
:106AF00080460F463846FFF7A9FA85B20024DFF832
:106B000034900D4E59F8340040450ED105EB041079
:106B100085B28DF80040019706EBC50040680290F1
:106B200056F835200AB168469047641C032CE9DB0F
:106B3000BDE8FE8364F72000B02F002010B5816B04
:106B40008904890C02D08163FFF7D0FF10BD00B526
:106B500089B0002817D0002915D00A6800920A7958
:106B600002F0030201928A680292CA6803920A69DB
:106B700004924A6905928A6906924968090907914F
:106B8000694602F051FF09B000BD000002480068EC
:106B9000012800D000207047285B1C420248006892
:106BA000012800D0002070472C5B1C4203F018B86D
:106BB000002809DB00F01F020121914040098000FC
:106BC00000F1E020C0F880127047002809DB00F0D7
:106BD0001F02012191404009800000F1E020C0F82F
:106BE00000117047012080F3108803490148C1F863
:106BF0008C02FEE70001A1C500E00040112803D28D
:106C0000024A002142F8201070470000B0B2002074
:106C100011280DD2074A074B02F07042C3F3130349
:106C200002EB431202EB800000F1007000210160D2
:106C300070470000DC2E0020112804D2002902D069
:106C4000014A42F8201070476CB20020112803D28C
:106C5000024A002142F82010704700006CB2002068
:106C6000112804D2002902D0014A42F820107047AE
:106C700028B20020112803D2024A002142F8201035
:106C80007047000028B20020112802D2014A42F8C1
:106C900020107047B0B2002011280DD2074A074BD0
:106CA00002F07042C3F3130302EB431202EB8000C5
:106CB00000F100700121016070470000D82E002013
:106CC00011280CD2064A064B02F07042C3F313039C
:106CD00002EB431202EB800000F10070016070478C
:106CE000D42E00202DE9F041EFF311870220FBF7AD
:106CF000E2FE0446FBF7FCFE401C012181406018C7
:106D0000C0B280F311880020FDF74CF80546254EEF
:106D1000D5E90412C6E902122348081A72F11E00CE
:106D200019D306F110000EE0DCE90412D6E90234B2
:106D3000B1EB030872EB040804D3C91A62EB040236
:106D4000CCE90412006AD0F820C0BCF1000FEBD1EE
:106D50000021B160F160A87801280AD1D6E902309B
:106D6000D5E9021259185041C5E904102846FCF72C
:106D7000DDFFF8B280F31188FDF786F8706840B146
:106D8000D0E90421D6E90203101A61EB030104F0F3
:106D9000F9F8E96909B1A8698847BDE8F041FDF74C
:106DA0003DB80000206200200010C32C074910B538
:106DB0006FF00100C1F884004FF0E0214FF4801023
:106DC000C1F88002FFF78EFF10BD000000A0004058
:106DD0000022012803D10748026007480260012908
:106DE00005D10448001D026003488038026000207D
:106DF00070470000285B1C4280581C422DE9F0417E
:106E0000040022D0207D012822D0234E01252575A3
:106E10004FF00008C6F80080204FC7F800802068B7
:106E200002F096FF204600F02FF93D60381D056006
:106E3000EFF3108085F310881949D1F8D82202F4B5
:106E4000A052B2F5A05F05D005E00120BDE8F081B9
:106E50000220FBE73560D1F8D81201F42051B1F5DA
:106E6000205F02D10C4980390D6000B1012080F310
:106E700010880021204605F0DDFF0121204605F0A5
:106E8000FFFF0A20FFF7E2FE0121204605F0A8FFE0
:106E900084F814800020D9E780581C42285B1C42EB
:106EA00000E000402DE9F04F87B00D4604469246C1
:106EB00014216846FBF711F94FF0000994B1BAF1BB
:106EC000000F0FD0207D01280ED001202075607D9D
:106ED000002601280AD04FF001092675484607B060
:106EE000BDE8F08F0120FAE70220F8E700212046F4
:106EF00005F076FF204605F0B5FF0221204605F09B
:106F000099FF60680090A0680190E0680290206995
:106F1000CDE903066946206802F02DFF20B16068C4
:106F2000B0F5C05F06D021E00421204605F082FFC5
:106F30002675D7E7D5B1A0682988002820680162A6
:106F40002168688808622ED02168A88808622168B4
:106F5000E8880862216828890862216868890862CF
:106F60002168A8890862E9892068016220680168AF
:106F700041F00101016020480068DFF88080059041
:106F8000D8F800B05946FFF73FFDD8F80450F9F59E
:106F9000F1FA1B484FF47A711A4F0068B0FBF1F117
:106FA000C820414315E02068A9880162E98820686B
:106FB000DBE7D8F80400401B88420AD904212046A8
:106FC00005F038FF267559460598FFF7FFFC0320AA
:106FD00085E77868C0F300000028EAD05946059894
:106FE000FFF7F4FCB868A061CAF800000121204650
:106FF00005F020FF71E70000FCED00E0001000E06C
:107000005C0000200090014070B5040008D0207D95
:10701000012807D001202075607D002520B110E0F7
:10702000012070BD022070BD14482575056013480D
:107030008038056012480560001D0560204600F09C
:1070400024F8022060752068016821F001010160C8
:107050000121204605F0EEFE204605F003FF002149
:10706000204605F00DFF07490A20FFF7E5FD012145
:10707000204605F0B5FE2575002070BD80581C42E5
:10708000285B1C428D702000704770470168C06902
:1070900048610020704701684969C161002070475C
:1070A00070B504460D46142006F096F803490D60AD
:1070B00003490C43014940390C6070BD40A50040B4
:1070C000030000010148006870470000382F0020CD
:1070D000014800687047000048A500400248006869
:1070E000C0F300007047000038A5004010B5142020
:1070F00006F072F80348016821F0010141F0807147
:10710000016010BD00A50040F8B504004FF011006B
:107110008DF8000004D094F83700002530B901E064
:107120000120F8BD94F8380000285AD0142202211A
:10713000204607F06DFE2068C0F8905041F2883379
:1071400000224021204607F013FF206802F042FE93
:10715000204600F03DF9254A20680121904203D1E4
:1071600023480160234807E0234A904205D1204884
:10717000083001601F48001D0160EFF310800122FC
:1071800082F310881D4ED6F8CC321D4A13409A4324
:1071900002D1174AD83A1160D6F8D43243F6C34226
:1071A00013409A4301D1174A116000B1012080F3C6
:1071B0001088E56300220221204607F029FE012104
:1071C000204607F0ADFE6946204607F015FD012870
:1071D00003D19DF80000FFF739FD0121204607F09B
:1071E000F1FD84F836500020F8BD000000C50040D5
:1071F00080591C42805A1C4200C6004000E00040FA
:107200000530063028581C421CB50446204607F0BD
:1072100007FD00228DF80020E16B0191064951F82D
:10722000203083F8002151F820000168002901D0A6
:10723000684688471CBD0000D02B0020002803D0E2
:1072400010F8371F407808437047000030B587B00A
:1072500004004FF011008DF8140004D094F83700AA
:10726000002518B121E0012007B030BD94F83800A6
:10727000D8B9274884F8365005602548803805601D
:1072800024492068884204D12148D830056022482A
:1072900007E02249884205D11D48E03005601E48BC
:1072A000001D0560204600F094F8142202212046BB
:1072B00007F0AEFD60680090A0680190206903901F
:1072C000E0680290606904906946206802F087FDDA
:1072D000E56310220221204607F09AFD204607F0C0
:1072E000C2FD0021204607F01BFE05A9204607F03D
:1072F00083FC012804D10A499DF81400FFF79CFC87
:107300000121204607F05EFD84F836500020ABE7EF
:10731000A8581C4200C50040805A1C4200C60040CC
:107320005F74200070B5026804469068002100F088
:107330000F00022809D004280CD0062812D00C28EF
:107340003FD1A069012807D007E02046BDE8704082
:1073500007F0ABBD002100E001212046BDE87040F0
:1073600007F0E4BC5069E16B00F01E000143E163EB
:10737000D06FC0F3C00018B10021204607F0D6FC42
:10738000E06B4FF00005800720461BD507F00CFC92
:1073900094F83500012811D1206B68B10B49C16305
:1073A000206BFFF797FA00280BD084F83550206B3C
:1073B000C16BBDE87040084784F835502046FFF7A0
:1073C00023FF70BDFFF720FFE56370BD99EB200040
:1073D0007047704770B515460E46040007D046B199
:1073E0003DB194F83800102808D0022070BD01206B
:1073F00070BDE06B40F48060E063F8E70021204658
:1074000007F0E0FC204607F02EFD666225856585C5
:107410000025E56312220121204607F0F9FC2168CE
:107420000220C1F89C0020684169890703D50168E2
:107430000221C0F8881084F83650EFF31081012043
:1074400080F310882068426842F00502426021B152
:10745000012080F31088002070BD0020F9E701684A
:10746000026CCA600268D36843F08003D360426C48
:107470000A60826C4A600268D36823F08003D3609C
:10748000C26CC1F8C020026D0A610622C1F88820D2
:10749000426DC1F89820826DC1F8A020C06DC1F87E
:1074A0009C000020704700001CB50446204607F0F1
:1074B000B7FB02218DF80010218D628D891AADF87D
:1074C0000410044951F820000168002901D06846E1
:1074D00088471CBDD02B00200168CA680264CA68B6
:1074E00042F08002CA600A6842644A688264CA68DC
:1074F00022F08002CA60D1F8C020C2640A69026525
:10750000D1F898204265D1F8A0208265D1F89C106E
:10751000C1650020704770B515460E46040007D0BF
:1075200046B13DB194F83700102808D0022070BD54
:10753000012070BDE06B40F48060E063F8E700215B
:10754000204607F03FFC204607F08DFCE6612584CD
:1075500065840025E56311222946204607F058FC82
:1075600021680320C1F8A00084F83650EFF31081A1
:10757000012080F310882068426842F08202426055
:1075800021B1012080F31088002070BD0020F9E7B0
:107590007CB50546284607F043FB044601208DF8DC
:1075A0000000288C698C401AADF804000C4D55F889
:1075B000240090F8040118B12046FCF78BFD02E08E
:1075C0002046FCF72FFE55F8240090F80011002902
:1075D00004D10168002901D0684688477CBD0000BD
:1075E000D02B002070B51D4B02460D461B88C2F300
:1075F0000B010020920B5B1E8B4224DB002A22D160
:10760000012404EB012189B2FB22FF291BD0954202
:1076100019D8C8B2012817D04FF4D26210A113A014
:10762000FCF50EFE01231A22002141F2031010F690
:1076300021FC04700FF684FD0221284610F6BAFAE8
:107640000B4981F82E4070BD00F660F90028E9D0A2
:10765000084909680818E5D070BD0000080200203C
:107660006863695F746C2E630000000030000000E6
:1076700090B40020040200202DE9F0411A4F0C467E
:10768000054697F82E101646C0F30B0039B1104688
:1076900010F6FCF8002087F82E00BDE8F0811349B1
:1076A0000988491E814216DB012101EB002081B2CD
:1076B0000823002241F2061010F6DCFB058044800E
:1076C0001CB10B490968711A00E000214160BDE856
:1076D000F04110F61BBC29462046BDE8F04140F2BF
:1076E000DF6304A2FCF5B4BD90B4002008020020C2
:1076F000040200206863695F746C2E630000000060
:107700000A4601460020FCF7C7BD000010B5114C29
:10771000207C00281DD0A4F10C021189D088814260
:1077200001D8401A02E09288511A0844E16880B2F8
:1077300088420ED389B2A06800F00EF8D4E9002088
:107740000021216061602174002A02D0BDE8104050
:10775000104710BD00B300202DE9F35F0D46EFF395
:10776000118A0220FBF7B5F9254909680122C1F306
:107770000221491C8A401044C0B280F31188DFF80E
:1077800084B04FF00008BBF80670BBF80840BBF8A7
:107790000460DBF80090A74205D3381B80B2854215
:1077A0000ED905460CE0301B384480B2854200D922
:1077B00005466019B04203D32819801B1FFA80F8D0
:1077C000A5EB080209EB04010098FAF75FFC0098AA
:1077D00042464119A1EB08004946FAF757FC6019E7
:1077E00080B2B04203D3B84201D9801B80B2ABF85B
:1077F00008000AF0FF0080F311882846BDE8FC9FCE
:107800000CED00E0F4B2002072B6FEE72DE9F0477F
:10781000024680880024A0F5885104396FD1704950
:10782000107B704D91F83030DFF8BC914FF0010AB9
:10783000022846D04F4602F10C0697F826700D2814
:107840004FEAC70C04D00F2841D0152857D15EE06D
:10785000B078C0F3411001280AD04FF00008F67A42
:10786000012E08D091F83200022809D030B108E08A
:107870004FF00108F3E791F83100F5E7042B00D34E
:107880000124B8F1000F02D01CB1022002E0002058
:1078900000E00120012E04D081F8320001207CBBE1
:1078A0006DE081F83100FF2FF8D06B6E0C2606FAE0
:1078B0000CF706EA8000BB4300FA0CF003436B664A
:1078C000ECE7042B01D30124E8E70024E6E7F07994
:1078D000012809D00027768851FA86F090F8330005
:1078E000022805D010B104E00127F4E7042B00D3EF
:1078F000012417B12CB1022004E0002002E06CE06A
:107900000DE0012051FA86F383F83300C6E791F8C1
:107910002F30042B01D3012400E00024C4B199F8D6
:10792000260002264F46FF2806D0696EC30006FADD
:1079300003F0814301436966104610F6DDFA97F8BB
:107940002600FF2849D0696EC0008640B14343E05D
:10795000254890F82600C20001209040FF2F05D056
:107960006A6E22EA000242EA00026A6603F101033B
:1079700081F82F3031D0696E21EA00012CE060B32C
:1079800099F82600FF2809D06B6E4FEAC0060AFA64
:1079900006F223EA020343EA02036B6611F8302F72
:1079A00002F10102D2B20A7017D0696E4FEAC0002C
:1079B0004FF0F0034FEA027203FA00F34FEA12624B
:1079C00021EA030102FA00F241EA02016966696EE6
:1079D0000AFA00F221EA020169662046BDE8F08752
:1079E00090B4002000000E404007002030B4818891
:1079F000A1F58852043A0FD1007B194A02280DD014
:107A00000D280BD00F2809D0152805D192F82F008A
:107A1000F8B1401E82F82F0030BC704792F8300059
:107A2000A0B1401EC1B20F4882F8301090F8260075
:107A3000FF28F1D00C4B5A6EC000F0248440090797
:107A4000090EA24381400A435A66E5E740F27D12DF
:107A500001E04FF4C77230BC04A107A0FCF5F0BBF5
:107A600090B400204007002000000E406863695F6A
:107A7000746C2E6300000000300000002DE9FC4112
:107A800000F10C07C41D05894089ADF804002846A3
:107A90000EF64CFF01001AD0BDF80430BBB18E6861
:107AA00004207EB18878000606D4394601AA08462B
:107AB000009600F64BFF04E0394601AA0846B0479D
:107AC000C0B280B140F23E23134A294609E015B105
:107AD0000120387007E04FF412730F4ABDF804100C
