:020000040020DA
:10200000505C012059202000FB212000011E1000FF
:10201000F9212000F121200085352000000000007A
:10202000000000000000000000000000151E10006D
:10203000F721200000000000FD212000FF212000EA
:10204000DFF810D000F048FC00F066F800480047C8
:10205000E5612100505C01200148804701480047AC
:1020600055352000056221000649074A086850439B
:1020700043F2390210440860400870470149086083
:1020800070470000183000206D4EC64110B5431A4D
:10209000934209D28318881803E010F8011D03F851
:1020A000011D521EF9D210BD40EA01039B0703D067
:1020B00009E008C9121F08C0042AFAD203E011F887
:1020C000013B00F8013B521EF9D210BDD2B201E033
:1020D00000F8012B491EFBD270470022F6E710B52D
:1020E00013460A4604461946FFF7F0FF204610BD86
:1020F000421C10F8011B0029FBD1801A704730B533
:1021000004460020034600E05B1C934203D2E05CDF
:10211000CD5C401BF8D030BD70B5054C054D03E0DB
:10212000206820448047241DAC42F9D170BD0000D6
:10213000A4EB2100A8EB210030B40446962308004C
:10214000214604D0B62330BC002200F0AEBA2046AF
:102150000021F8E70EB540F2334102910021CDE9AC
:1021600000110A460B4600F0DDFA03B000BD0EB5C3
:1021700040F2334202920022CDE90022134600F0E1
:10218000D1FA03B000BD20F00040C20DC0F316002C
:1021900040F400007F2A02DA002001467047002147
:1021A000962A03DCC2F19602D0407047963A00F0BE
:1021B00042BA70B5C1F30A5201F000450024C1F3E0
:1021C000130140F2FF3341F480119A4201DA0020FA
:1021D00070BD40F233439A42A2F2334203DC5242D2
:1021E00000F038FA00E090402C43F1D0404270BD3E
:1021F000FEE707F007BDFEE7FEE7FEE7FEE7FEE7C6
:1022000058585247010000003253000000202000BF
:10221000002020008BEB924700010000000000002E
:1022200000000000000000000000000000000000AE
:10223000000000000000000000000000000000009E
:102240002DE9FE4F804681EA0300C00F0C46009046
:1022500021F0004123F00045B8EB0200A94105D26E
:102260004046214690461C460B46024623F000405D
:10227000104347D0270DC7F30A00C3F30A51029059
:10228000401A019040286BDAC3F3130040F4801B1E
:102290000098924620B10023D2EB030A63EB0B0BAC
:1022A00001985946C0F14002504600F0C4F9064674
:1022B0000D4650465946019A00F0DCF910EB080033
:1022C0006141002487EA115284EAE7731A4340D03F
:1022D000009A62B3019A012A4FEA075215DC001BEB
:1022E00061EB02014FF0004202EA0752CDE90042E1
:1022F000001C41F5801132462B4600F013FA03B062
:10230000BDE8F08F40462146F9E7001B61EB020172
:10231000001C41F5801300185B412018A2F500173E
:1023200047EB030140EAD570B6196D4111E06D0825
:102330004FEA360645EAC0754FEA0752001B61EBCB
:102340000201001C41F5801149084FEA30000019D4
:10235000514132462B4603B0BDE8F04F00F0D3B9EF
:102360000098012240000023D0EB020263EBE073EF
:10237000009821464FEAE074B8EB000061EB0401DD
:10238000E9E783F000435BE781F0004158E72DE97E
:10239000FE4F81EA030404F0004421F00041009460
:1023A0004FF0000B23F0004350EA01045ED052EAE4
:1023B00003045BD0C3F30A54C1F30A552C44A4F2BE
:1023C000F3340194A0FB0254C1F3130141F48011D2
:1023D000C3F3130343F4801301FB024400FB034ED9
:1023E000840A970A44EA815447EA8357A4FB0768A2
:1023F00002958D0A05FB07854FEA932C04FB0C54CC
:102400002705029D4FEA065847EA1637B5EB08053F
:102410006EEB070C870E920E47EA811742EA831291
:10242000A7FB0201B6EB0B0164EB00042B0D43EAA2
:102430000C335E1844EB1C50DA465146E7FB0201B0
:10244000C5F313044FEA0B3343EA14534FEA043243
:10245000019C43EA0603A4F10C040294009CCDE91C
:1024600000B400F05FF903B0BDE8F08F0020014632
:10247000F9E72DE9F04D81EA030404F0004B21F067
:10248000004514464FF0000A23F0004150EA0502CF
:1024900020D054EA01021DD0C5F30A570246C5F305
:1024A0001303C1F31300C1F30A5640F4801543F43B
:1024B0008013A7EB0608101BD64608F2FD3873EB15
:1024C000050002D308F1010801E092185B41B8F160
:1024D000000F03DA00200146BDE8F08D00204FF424
:1024E0008011064684460EE0171B73EB050705D3E3
:1024F000121B63EB050306434CEA010C49084FEA43
:10250000300092185B4150EA0107EDD152EA030016
:1025100012D082EA040083EA0501084305D0101BAB
:10252000AB4106D20122002306E000224FF0004317
:1025300002E06FF0010253101AEB06004CEB085159
:1025400010EB0A0041EB0B01BDE8F04D00F0DBB8E9
:10255000C1F30A5210B5C1F3130140F2FF3341F445
:1025600080119A4201DA002010BD40F233439A42B2
:10257000A2F2334203DC524200F06CF810BD9040EE
:1025800010BD00F0004230F000400AD0C10D01F54E
:102590006071C0F3160042EA0151C20840071143BE
:1025A000704700200146704730B50B4601460020B9
:1025B0002022012409E021FA02F59D4205D303FA05
:1025C00002F5491B04FA02F52844151EA2F1010286
:1025D000F1DC30BD2DE9F05F0546002092469B46B8
:1025E00088460646814640241BE028464146474629
:1025F000224600F02FF853465A46C01A914110D394
:1026000011461846224600F016F82D1A67EB01080D
:102610004F4622460120002100F00DF817EB00097B
:102620004E41201EA4F10104DFDC484631462A4613
:102630004346BDE8F09F202A04DB203A00FA02F16D
:10264000002070479140C2F1200320FA03F31943A0
:1026500090407047202A04DB203A21FA02F0002142
:10266000704721FA02F3D040C2F1200291400843A2
:1026700019467047202A06DBCB17203A41FA02F0B0
:1026800043EAE07306E041FA02F3D040C2F12002CF
:1026900091400843194670470029A8BF7047401C65
:1026A000490008BF20F00100704710B4B0FA80FC68
:1026B00000FA0CF050EA010404BF10BC704749B1A5
:1026C000CCF1200421FA04F411FA0CF118BF012115
:1026D00021430843A3EB0C01CB1D4FEA00614FEAF5
:1026E000102042BF002010BC704700EBC3501044C4
:1026F0000029A4BF10BC7047401C490008BF20F04F
:10270000010010BC704710B5141E73F1000408DA04
:10271000401C41F1000192185B411A4301D120F0A5
:10272000010010BD2DE9F04D92469B4611B1B1FA62
:1027300081F202E0B0FA80F220329046FFF77BFF90
:1027400004460F4640EA0A0041EA0B0153465A4646
:10275000084313D0114653EA010019D0C8F14002D2
:102760005046FFF777FF05460E465046594642460B
:10277000FFF761FF084305D0012004E020463946F9
:10278000BDE8F08D0020054346EAE0762C43374350
:102790000A986305E40AA0EB08000022FD0A44EA57
:1027A00047540A3002D500200146E9E70105101917
:1027B0006941DDE9084500196941BDE8F04DA2E72E
:1027C0002DE9F041054621F000400C46284309D090
:1027D000C4F30A5040F23341884205DD28462146C1
:1027E000BDE8F0812846FBE740F2FE31884210DC6C
:1027F0000CDB4FEA043040EA155050EA053105D0B1
:10280000104804F0004101430020E9E700200146A0
:10281000E6E7A0F233404642C6F140022846214690
:10282000FFF709FF07468846284621463246FFF74C
:1028300011FF43463A46FFF766FF3246BDE8F041D6
:10284000FFF7F9BE0000F03FC1F30A52C1F31301D4
:1028500040F2FF3341F480119A4202DA002001462F
:10286000704740F233439A42A2F2334202DC5242B2
:10287000FFF7F0BEFFF7DFBE30B5041E71F10004B4
:1028800004DB4FF00044404264EB0101141E73F17D
:10289000000405DB1C464FF00043524263EB040387
:1028A0008B4208BF824230BD30B5041E71F1000476
:1028B00004DB4FF00044404264EB0101141E73F14D
:1028C000000405DB1C464FF00043524263EB040357
:1028D000994208BF904230BD064C074D06E0E068C3
:1028E00040F0010394E8070098471034AC42F6D357
:1028F000FFF7AAFB64EB2100A4EB210070B58C1854
:1029000010F8015B15F0070301D110F8013B2A1103
:1029100006D110F8012B03E010F8016B01F8016BF0
:102920005B1EF9D12B0705D40023521E0DD401F8EC
:10293000013BFAE710F8013BCB1A921C03E013F8B5
:10294000015B01F8015B521EF9D5A142D8D30020EA
:1029500070BDF0B5002508222B4650F8227051F8C2
:102960002260BE1943EB030476195C4104F00104B4
:102970001C4301D0012500E0002540F822600446F8
:10298000521EEAD5002150F8212012B9491C09290C
:10299000F9DBC1F109016162F0BDF0B50024082343
:1029A000254650F8236051F82370F61945EB0507CA
:1029B00036196F4107F001042C4301D0012400E0D7
:1029C000002442F823605B1EEBD5002052F8201053
:1029D00011B9401C0928F9DBC0F10901C2E9091548
:1029E000F0BD000010B51446FFF7D7FFA06A20B174
:1029F0002046BDE8104000F01DB80D4B606A596AD2
:102A000088420ED813D3C0F1090108E053F8212001
:102A100054F8210082420AD803D301F101010929A7
:102A2000F4D32046BDE81040014900F005BD10BDBB
:102A300040CF210010B58CB0044601466A460748D5
:102A400000F05AFC694624222046FFF71FFB099834
:102A500060620020A0620CB010BD000040CF2100D9
:102A60002DE9F0410446DFF808C1806A8CB04FF0D0
:102A7000000848B16246606A536A2146984250D8BD
:102A800027D3C0F1090022E04FF000014FF0080009
:102A9000424654F820505CF82030ED1842EB020317
:102AA0006D18534103F00101114301D0012100E0F1
:102AB000002144F82050401EEBD518E052F8203099
:102AC00051F82050AB4204D82BD300F10100092863
:102AD000F4D36A46264800F00FFC694625462422B6
:102AE0002046FFF7D3FA09986862C4F828800022CC
:102AF0001046454654F82010491945EB02035A0880
:102B00004FEA310244F8202021F001028A1A00F134
:102B1000010023460928EDD3002054F8201001BB02
:102B20001CE00023082241465CF8225054F82200A1
:102B3000EE1841EB0107861B71EB07062B4406D20A
:102B4000C01A001C44F822004FF0010303E0C31A2E
:102B500044F822300023521EE6D5C8E7401C09285D
:102B6000DBDBC0F1090058620CB0BDE8F081000069
:102B700040CF210010B5122000F065FD08F0A4FB45
:102B800004490446096A88472046BDE8104008F019
:102B90005DBB0000B82C002010B504F639FB10B165
:102BA00006F080FC10BDBDE810402BF61FBE0000F3
:102BB00010B52BF607FF022818D00D4CD4F8880268
:102BC00020F00100C4F888024FF0E0214FF00050DF
:102BD000C1F8800204F5227407F060F905484168E5
:102BE000491C4160206840F00100206010BD0000D9
:102BF00000E00040542D00202DE9F04FADF5317D6F
:102C0000814600F12C0B58308890859001F12C0002
:102C10008490CDE989012C300E4687908690154628
:102C200024211046FFF759FA002405F12C076C62A5
:102C3000B84624213846AC62FFF74FFA7C62BC628A
:102C40002C3724213846FFF748FA7C6237A8242124
:102C5000BC62FFF742FA40940BA824214194FFF78D
:102C60003CFA149442A824211594FFF736FA4B94A9
:102C700016A824214C94FFF730FA1F9421A8242190
:102C80002094FFF72AFA2A94684624212B94FFF710
:102C900024FA09944DA824210A94FFF71EFA5694A9
:102CA00058A824215794FFF718FA619463A82421A7
:102CB0006294FFF712FA6C942CA824216D94FFF70C
:102CC0000CFA359479A824213694FFF706FA8294F9
:102CD0006EA824218394FFF700FA77944846A1490F
:102CE000789413F049FC9F4C010004F12C0A04F184
:102CF000580409D15146584613F03EFC20B92146EC
:102D0000889813F039FC28B13046964913F034FC0A
:102D100078B339E03046934913F02EFC50B9514650
:102D2000849813F029FC28B92146879813F024FCD5
:102D300000287DD0242231462846FFF7A7F9706A83
:102D40006862B06AA862849D4446242229464046AF
:102D5000FFF79CF9686A6062A86AA062879C2422D7
:102D600021463846FFF792F9606A7862A06AB86235
:102D7000F5E0FFE75146849813F0FEFB20B92146A9
:102D8000879813F0F9FB28B14946304613F0F4FB5D
:102D9000B8B122E04C46242249462846FFF776F98E
:102DA000606A6862A06AA8625D4644462422594669
:102DB0004046FFF76BF9686A6062A86AA062889C67
:102DC000CDE75946849813F0D7FB002830D1306DF9
:102DD000012802D8F06C0028ABD037AA85998998D1
:102DE00000F0CEF90BAA5846869900F0C9F942AA1C
:102DF00085998A9800F0C4F916AA4846869900F089
:102E0000BFF916A942A813F0B7FB00287ED021AA6B
:102E10000BA937A800F09AFA6A4616A942A800F052
:102E200095FADDE9850158AA00F0AAF9A5A800E005
:102E30007BE02421FFF751F90024AE9484A82421DB
:102E4000AF94FFF74AF98D948FA824218E94FFF751
:102E500044F998949AA824219994FFF73EF9694679
:102E6000A39463AA0846A49400F08AF92CAA6946A0
:102E700063A800F085F921A979AA084600F080F935
:102E80006EAA16A963A800F07BF99AAA02216EA87F
:102E900000F058F984AA58A979A800F071F98FAA0E
:102EA0002CA984A800F052FA4DAA9AA98FA800F084
:102EB0004DFA2A464DA9684600F062F984A82421FB
:102EC000FFF70BF98D948FA824218E94FFF705F955
:102ED00098949AA824219994FFF7FFF8A39484AAC0
:102EE0004DA96EA8A49400F031FA8FAA84A921A854
:102EF00000F046F99AAA0BA92CA800F041F9424625
:102F00009AA98FA800F022FA3A4600E008E058A9F2
:102F10002CA800F035F901200DF5317DBDE8F08FCA
:102F20000BA937A813F028FBA8B10E4E2422314676
:102F30002846FFF7ABF8706A6862B06AA862564626
:102F40004546242251464046FFF7A0F8706A686261
:102F5000B06AA86203E72946484600F005F8002059
:102F6000DAE70000BCCF21002DE9F04F0C465B4EA4
:102F7000016D06F12C085836F9B0834600F12C0596
:102F800000F1580A04F12C0904F15807012902D86C
:102F9000296A00297ED0514913F0EEFA50B9414612
:102FA000284613F0E9FA28B93146504613F0E4FAFE
:102FB000002873D037AA51465846FFF713FD42AA9E
:102FC0005146584600F0C2F94DAA42A937A800F070
:102FD000D7F80BAA03214DA800F0B4F86A46514671
:102FE000284600F0CDF837AA6946284600F0C8F810
:102FF00016AA37A9584600F0C3F80BA937AA084605
:1030000000F0BEF842AA082116A800F09BF821AAF9
:1030100042A937A800F09AF937AA694621A800F01A
:10302000AFF82246022137A800F08CF8294637AACB
:10303000084600F0A5F869462CAA084600F0A0F85A
:1030400042AA2CA937A800F09BF84DAA082142A853
:1030500000F078F858AA042116A800F073F863AAC3
:1030600021A958A800F072F96EAA63A90BA800F074
:1030700087F84A464DA96EA800F068F937AA694654
:103080002CA800F07DF83A46082137A800F05AF83D
:10309000002000E002E079B0BDE8F08F0F4D24225F
:1030A00029462046FEF7F2FF686A6062A86AA062BD
:1030B00045464C46242241464846FEF7E7FF686AEB
:1030C0006062A86AA062242231463846FEF7DEFF1D
:1030D000706A7862B06AB862DAE70000BCCF21009B
:1030E0002DE9F043154F0446154EF87D10258BB0A1
:1030F00091468846FF2806D0716EC20005FA02F09C
:10310000814301437166694604F1580003F0DCFD18
:10311000F87DFF2804D0716EC0008540A943716618
:1031200042466946204600F02BF84A46694604F1BB
:103130002C0000F025F80BB0BDE8F083400700201C
:1031400000000E40F0B4002508232F4650F82360FD
:103150002C463D46E6FB014542F823405B1EF5D573
:10316000002152F8213013B9491C0929F9DBC1F1BA
:1031700009035362806A9062F0BC104616F030BDBD
:103180002DE9F74FA0B082460C4668468346482199
:10319000FEF7A3FF4FF00009CDF848900821CDF8C5
:1031A0004C90002208204D4646180BEB860354F83D
:1031B00020805F685AF821C0BE1845EB0502ECFB81
:1031C00008625E60401EEFD5491EEAD569460020C0
:1031D00051F8202012B9401C1228F9DBC0F112006E
:1031E0008864DAF82800A16A884201D0012000E052
:1031F000002000246D46139000E0641C55F8240064
:1032000008B9092CF9D313982D491E9012988B6C8C
:103210002A46984215D818D3C0F112000DE051F893
:10322000203052F82060B34206D0B34201D20120D0
:1032300000E0002028B908E0401C1228EFDB00E085
:10324000641C55F824000028FAD005EB84012422E0
:1032500014A8FEF71BFF14A9002051F8202012B972
:10326000401C0928F9DBC0F10900486204F109009B
:103270001228084615D216F0B3FC14A82022011D0E
:10328000FEF704FF05EB840014A9406A1C9000209F
:10329000641C51F82020002AE5D1401C0928F8DBE5
:1032A000E1E716F09DFC229C14A924222046FEF79B
:1032B000EDFE1D9860621E98A06223B0BDE8F08FFD
:1032C0006CCF210010B54342421E0A60C1E90130B3
:1032D0004FF0000001F1100C4FF0FF34C8608CE893
:1032E00015008862C1E9074301D0092000E00820E9
:1032F000486210BD0DF0B0BEF0B50024082327468B
:1033000051F8236050F8235016EB040C47EB070EDE
:10331000B5EB0C0C77EB0E0C344406D22C1B241CA2
:1033200042F823404FF0010403E02D1B42F82350E4
:1033300000245B1EE4D5002052F8201011B9401C77
:103340000928F9DBC0F109005062F0BD2DE9F04118
:103350000F460346816A0125B86A1446002641B12A
:1033600090B3786A596A884244D849D3C0F10900B9
:103370003EE020B139461846FFF70FFB16E0586AC9
:10338000796A88420ED81BD3C0F1090008E057F8CB
:10339000202053F820108A4212D803D300F10100F4
:1033A0000928F4D322463946184626E02149A66268
:1033B000606A4A6A904234D839D3C0F109002EE0DD
:1033C0002246194638461EE0FFE739461846FFF701
:1033D000E4FA2046A562BDE8F041FFF72BBB53F8A5
:1033E000202057F820108A420AD803D300F10100A8
:1033F0000928F4D3224619463846FFF77DFFD5E762
:10340000224639461846FFF777FFE2E751F82030A9
:1034100054F8202093420AD803D300F10100092870
:10342000F4D32046BDE8F041024900F005B8BDE8FC
:10343000F081000040CF2100F0B5002308221E4695
:1034400051F8225050F82240EF1846EB060CE71BCB
:1034500076EB0C072B4406D2E31A1B1C40F82230F3
:103460004FF0010303E0E41A40F822400023521E0B
:10347000E6D5002150F8212012B9491C0929F9DBB1
:10348000C1F109014162F0BD70B50B460446816A85
:103490000025986A8CB0012641B140B1586A616A32
:1034A000884239D846D3C0F1090033E030B10CB0BE
:1034B0002046BDE870401946FFF74BBA606A596A6A
:1034C000884237D80ED3C0F1090008E053F8202015
:1034D00054F820108A4205D82CD300F101000928A5
:1034E000F4D327E06A4621461846FFF705FF6946F0
:1034F00024222046FEF7CAFD0998C4E909060CB04B
:1035000070BD54F8202053F820108A4212D803D3FB
:1035100000F101000928F4D36A4621461846FFF756
:10352000EBFE694624222046FEF7B0FD0998C4E967
:103530000905E4E70CB02046BDE870401946FFF7E6
:103540007BBF00000249096801F007010170704764
:1035500000A000400248016841F47001016070471A
:1035600088ED00E002480068001D0EF091B80000F0
:10357000D02B002002484068001D0EF089B80000E2
:10358000D02B0020FEE700000FB4054B10B503A9B7
:10359000044A029800F0ECFC10BC5DF814FB00003B
:1035A00029B32000002C00200FB41CB502460020D7
:1035B00007AC00290BD0491ECDE90021054B6A4616
:1035C0002146069800F0D4FC009A002111701CBC22
:1035D0005DF814FB9F4620000FB4084B10B504A9FA
:1035E00002AA039800F0C4FC044602A9002001F0DE
:1035F00061F8204610BC5DF814FB0000B5462000C1
:103600007CB5044600201D46164600290BD0491EF5
:10361000CDE90041044B6A462946304600F0A8FC3B
:10362000009A002111707CBD9F462000002809DB14
:1036300000F01F02012191404009800000F1E020CC
:10364000C0F880127047002809DB00F01F0201213A
:1036500091404009800000F1E020C0F880127047DE
:10366000002809DB00F01F02012191404009800081
:1036700000F1E020C0F880127047002809DB00F05C
:103680001F02012191404009800000F1E020C0F8B4
:1036900000117047002809DB00F01F020121914052
:1036A0004009800000F1E020C0F8001170470028B8
:1036B00004DB00F1E02090F80004704700F00F00F8
:1036C00000F1E02090F8140D7047002804DB00F1B1
:1036D000E02090F80004704700F00F0000F1E020B7
:1036E00090F8140D7047002804DB00F1E02090F8FA
:1036F0000004704700F00F0000F1E02090F8140D76
:103700007047002804DB00F1E02090F800047047C7
:1037100000F00F0000F1E02090F8140D7047002831
:1037200004DB00F1E02090F80004704700F00F0087
:1037300000F1E02090F8140D7047002804DB00F140
:10374000E02090F80004704700F00F0000F1E02046
:1037500090F8140D7047002804DB00F1E02090F889
:103760000004704700F00F0000F1E02090F8140D05
:103770007047002804DB00F1E02090F80004704757
:1037800000F00F0000F1E02090F8140D70470000E9
:1037900002480068C0F30220704700000CED00E012
:1037A00002480068C0F30220704700000CED00E002
:1037B00002480068C0F30220704700000CED00E0F2
:1037C00002480068C0F30220704700000CED00E0E2
:1037D00002480068C0F30220704700000CED00E0D2
:1037E00002480068C0F30220704700000CED00E0C2
:1037F00002480068C0F30220704700000CED00E0B2
:10380000EFF31080704700002DE9F0412DED020B21
:103810009FED3D0B2DED028B9FED3D8BDDE90254BD
:10382000C4F30A50A0F2FF36142E37DA002E18DA4D
:1038300053EC102B9DED020B51EC100BFEF700FD2D
:1038400053EC182BFFF730F857D2002CBCBF4FF0C9
:103850000044002551DB54EA050018BF2E4C1BD153
:103860004BE02E4820FA06F704EA070028431FD051
:1038700053EC102B9DED020B51EC100BFEF7E0FC0E
:1038800053EC182BFFF710F837D2002C03DD4FF460
:103890008010F0400444BC4300252EE0332E07DCAA
:1038A000A6F114004FF0FF3121FA00F73D4206D196
:1038B0009DED020BBDEC028B02B0BDE8F08153EC34
:1038C000102B9DED020B51EC100BFEF75DFD53EC40
:1038D000182BFEF7E9FF10D2002C0DDD142E08BFC7
:1038E000641C09D0C6F13400012101FA00F028441B
:1038F000A84238BF641C0546BD43CDE902549DED86
:10390000020BD7E7000000009C7500883CE4377E7E
:1039100000000000000000000000F03FFFFF0F006B
:1039200010B52DED020B2DED088B84B09DED0C0B29
:1039300051EC100BFEF744FF41EC180B9DED0C0B06
:1039400053EC182B51EC100BFEF71BFD41EC190B3F
:103950000D989FED290B10F0004F53EC102B51ECFC
:10396000190B9FED21AB9FED22BB0ED0FEF784FF1C
:103970000ED953EC1B2B51EC190BFEF795FF1CD203
:1039800014E000BF41EC180B17E0FEF775FF06D2FC
:1039900053EC1A2B51EC180BFEF7F3FCF2E753EC47
:1039A0001B2B51EC190BFEF77FFF06D853EC1A2B9B
:1039B00051EC180BFEF744FCE4E78DED028B9DED16
:1039C0000C0B18EE901A10EE900A8DED000B61F3BF
:1039D0001E0003909DED020B04B0BDEC088B02B0FD
:1039E00010BD000000000000000000000000F03FDB
:1039F000000000000000E03F000000000000E0BF09
:103A000002E008C8121F08C1002AFAD170477047A7
:103A1000002001E001C1121F002AFBD1704780F392
:103A2000108870472DE9F74F07460298DFF86CA120
:103A3000DFF86C814FEA500B5A48019D5C465646B0
:103A4000CAF80000D8F804203F2060F30502C8F847
:103A50000420DAF8000020F4700040EA0750CAF8A9
:103A60000000DAF8000020F4702040EA0740CAF8AD
:103A700000000D2F02D00E2F04D007E0306840F474
:103A8000004002E0306840F480403060306840F42C
:103A900000503060306820F060503060306820F0B6
:103AA0000F0040F003003060002000F0AFF8012864
:103AB00072D13168B24641F0804131600020424607
:103AC00009E0D8F8083043F48033C8F80830811C86
:103AD00000F1010005D091689046C1F30021002952
:103AE000EFD1072000F092F8012855D142E00026DE
:103AF0004FF47A7924E04E451ED9DAF8001021F00F
:103B00008041CAF80010DAF8001041F00041CAF80C
:103B10000010DAF8001021F00041CAF8001000206F
:103B200000F074F8012837D11F484169491C4161F0
:103B30000520FCF5F7FF7FE70120FCF5F3FF761C7D
:103B4000D8F80800C0F300200028D4D0D8F8080026
:103B5000434600F07F02A24200D92246002006E040
:103B6000196825F8021B090C25F8021B401C90421D
:103B7000F6D3A41A002CBAD10298C00707D0404649
:103B80008168C1F300210029FAD000682880BDE8CF
:103B9000FE4F002000F03AB8BDE8FE8F00A80040BC
:103BA00000E000400A070807542D00202DE9F041ED
:103BB0001249044600200860104980390860104D01
:103BC000686A104E00F00101494201403062C805A8
:103BD0000DD440F20117A869B84208D024B10120E1
:103BE000641EFCF59FFFF6E70020BDE8F081064863
:103BF0000068B0616868F0610120F6E794581C42E3
:103C000000E00040542D002000A800402DE9F041C4
:103C1000104F0546F868C0F30240A84217D0F86874
:103C200020F007002843F86000244FF6FF76F8687C
:103C3000C0F30240A84205D00120FCF573FF641CCC
:103C4000B442F4D3B44202D10020BDE8F081012097
:103C5000FBE7000000E000402DE9FF5F82B000219B
:103C6000DDE90430020DDDF840B0034318D044F61E
:103C70001050A2F2FF3242431514119801281FD0B0
:103C8000A5EB0B00401C5FEA000A4FF000064E4F08
:103C9000DFF83891B046504615D5CAF1000413E05C
:103CA000119801244AA3012801D16FEA0B0102985F
:103CB000119AC0E90031C0E9024206B0BDE8F09FA8
:103CC000CBF10000DFE704460021404A491842EBEF
:103CD0000450CDE9001012E0E00707D032463B4621
:103CE00040464946FEF753FB8046894632463B46EE
:103CF00010461946FEF74BFB06460F466410002C93
:103D0000EAD1DDE90401DDE90023BAF1000F06DAAA
:103D1000FEF73DFB42464B46FEF739FB05E0FEF75A
:103D2000A8FB42464B46FEF7A4FB04460E46002283
:103D3000284BFEF7B9FD03D84FF0FF30014607E0EE
:103D40000022254B20463146FEF77AFAFEF77CFD2D
:103D5000102409E0002C0ADB0A220023FEF73AFCBB
:103D6000039B30321A55641E50EA0102F2D1641CE2
:103D7000039AC4F111031444119A012A03D00122B9
:103D800008430DD10AE0084304D000204FF0110B86
:103D9000119072E7A3EB0B056D1E0DE05B4504DD92
:103DA0004FF0000205F1010504E003DA4FF00002D4
:103DB000A5F10105002AECD002981199C0E9023161
:103DC000C0E9004579E70000000014400000F03F22
:103DD000300000000000F0430000E03FF0B50C466A
:103DE0002DED088B89B006469FED559B2021684636
:103DF000FEF773F9B0EE498AF0EE698A102269463F
:103E00003046FFF70FFE00256F4607EB4500008A9E
:103E1000FEF7A0F953EC182BFEF712FA6D1C41ECDB
:103E2000180BEDB2082DF0D39FED470B51EC180B9A
:103E300053EC102BFEF7ABFA41EC180B9FED44BB93
:103E40000D2E02D00E2E30D072E06088FEF782F97F
:103E500053EC1B2BFEF70DFB9FED3F0B41EC190BB9
:103E600051EC100B81F0004141EC1A0BE088FEF799
:103E700071F953EC1A2BFEF78AFA41EC1A0B2088E1
:103E8000FEF768F953EC182BFEF77EFA53EC1A2B69
:103E9000FEF7EFFA9FED321B53EC112BFEF7E9FA18
:103EA00053EC192BFEF7CCF940E0A07EFF2801D09F
:103EB000E8B13DE09FED2C0B51EC100B81F000417F
:103EC00041EC1A0BE088FEF745F941EC190B20890B
:103ED000FEF740F953EC182BFEF756FA53EC192B6A
:103EE000FEF7C7FA53EC1A2BFEF751FA1EE0A08832
:103EF000FEF730F941EC190BE088FEF72BF981F061
:103F0000004141EC1A0B2089FEF724F953EC182BE1
:103F1000FEF73AFA53EC1A2BFEF7ABFA53EC192BD7
:103F2000FEF735FA53EC1B2BFEF7A3FA41EC190B05
:103F300009B0B0EE490AF0EE690ABDEC088BF0BD9D
:103F40000000000000000000000000000000C03F72
:103F50000000000000005940000000000000004088
:103F6000DE718A8EE4F25FBFE2E1E1E1E1E10E4061
:103F70002DE9FF4F95B09B468946064600250FE286
:103F8000252877D100242746F84A0121059400E02E
:103F9000044316F8013F203B01FA03F01042F7D129
:103FA00030782A2811D06FF02F033078A0F130023A
:103FB000092A16D8059A44F0020402EB820203EBA8
:103FC00042021044761C0590EFE759F8042B059245
:103FD000002A03DA504244F40054059044F00204ED
:103FE000761C30782E2816D116F8010F44F0040400
:103FF0002A280DD06FF02F023078A0F13003092B62
:1040000009D807EB870302EB4303C718761CF3E7D5
:1040100059F8047B761C30786C280FD006DC4C28CD
:1040200017D068280DD06A2814D104E0742810D065
:104030007A280FD10DE044F400140AE044F480140F
:1040400001E044F440147278824202D104F58014F5
:10405000761C761C307866280BD013DC582877D075
:1040600009DC002875D04528F6D04628F4D047282A
:104070001AD19DE118E0632835D0642879D06528ED
:1040800012D195E1702873D008DC6728F1D0692837
:104090006FD06E280DD06F2806D1B5E073282CD0D4
:1040A000752875D0782874D05A46179990476D1C9A
:1040B00075E1C4F30250022809D003280DD0D9F8C5
:1040C000001004280DD00D6009F1040967E1D9F84A
:1040D0000010EA17C1E90052F6E7D9F800100D8088
:1040E000F2E70D70F0E719F8041B8DF800100020BE
:1040F0008DF80100EA46012003E059F804AB4FF0C7
:10410000FF3061074FF0000102D40DE008F101011A
:104110008846B9420FDA8045F8DB1AF80810002902
:10412000F4D108E008F1010188468142FADB1AF86F
:1041300008100029F6D105985B46A0EB0807214638
:104140003846179A00F094FA284400EB080507E077
:104150004DE029E10DE01AF8010B5A4617999047F6
:10416000B8F10108F7D25B4621463846179A13E1A9
:1041700042E00A220092C4F302524FF0000A022ADF
:1041800008D059F804CB032A4FEAEC710AD00DE0AD
:1041900029E02AE009F1070121F00702F2E802C153
:1041A000914609E00FFA8CFC4FEAEC71042A03D126
:1041B0004FFA8CFC4FEAEC71002907DA0A4600211D
:1041C000DCF1000C61EB02012D2202E0220504D596
:1041D0002B228DF80420012203E0E20701D02022E7
:1041E000F7E7904659E00A2102E010220DE0102185
:1041F0004FF0000A00910BE010224FF0000A44F04B
:1042000004040827009203E008224FF0000A0092FD
:10421000C4F30252022A05D059F804CB0021032A24
:1042200008D009E009F1070121F00702F2E802C114
:10423000914605E01FFA8CFC042A01D10CF0FF0C1A
:104240004FF00008220728D5702806D0009B83F085
:10425000100353EA0A0305D00EE040228DF8042033
:10426000012208E05CEA010206D030228DF8042029
:104270008DF8050002229046009B83F0080353EA64
:104280000A030AD15CEA010201D1620705D5302296
:104290008DF804204FF001087F1E582804D034A068
:1042A00003900EA802900DE036A0F9E75346604651
:1042B000009AFEF78FF984460398825C0298401EAC
:1042C000029002705CEA0100F0D1029806A9081A77
:1042D00000F1200A600702D524F4803400E00127B1
:1042E000574502DDA7EB0A0000E0002000EB0A01C1
:1042F000009005984144401A0590E00306D45B46BF
:104300002146179A059800F0B3F90544002706E006
:1043100001A85A46C05D179990476D1C7F1C474500
:10432000F6DBE0030CD55B462146179A059800F0B2
:104330009FF9054404E030205A46179990476D1CB8
:104340000099481E00900029F5DC08E002980299C7
:104350005A460078491C0291179990476D1CBAF192
:104360000001AAF1010AF1DC65E100000928010061
:1043700030313233343536373839616263646566DB
:10438000000000003031323334353637383941429D
:10439000434445460000000000F058F90544761CEF
:1043A000307800287FF4ECAD19B02846BDE8F08FD6
:1043B000620700D4062709F1070222F0070CFCE887
:1043C0000223E14603F000485FEA080C02D00FF236
:1043D000702C0DE05FEA045C02D50FF2682C07E058
:1043E0005FEAC47C02D00FF2602C01E0AFF2700CE7
:1043F0004FF0FF3823F00043CDF850C065280CD0B3
:1044000006DC452809D046281DD047283DD13DE08F
:10441000662818D067287ED138E00021112F01DBF3
:10442000112000E0781CCDE9000106A90EA8FFF7D5
:1044300013FCDDE90F010E9A03910021009207F1B0
:10444000010A04914DE04FF000400097CDE90110C2
:1044500006A90EA8FFF700FCDDE90F0203920E9BF0
:1044600011990022DDF80CA00093049211B9791C77
:1044700000EB010AB7EB0A0004D4C0F1FF3007F1EA
:10448000010A0490AAEB0700019044E0012F00DA32
:1044900001270021112F01DD112000E03846CDE970
:1044A000000106A90EA8FFF7D7FBDDE90F010E9A60
:1044B0000391002104910092BA4621070CD403997C
:1044C000514500DA8A46BAF1010F05DD009AAAF1DA
:1044D0000101515C302908D0B84202DA10F1040F12
:1044E00006DA0121CDE9011015E0AAF10101E9E7A1
:1044F000002805DC049901440491AAEB000102E0C4
:10450000411C514500DD8A460499401A401C019027
:104510004FF000400290200704D40198504501DB81
:10452000CDF8048000208DF84F0002980DF14F0760
:10453000B0F1004F25D02B200E9002984FF00208CA
:1045400000280CDA404202902D200E9007E00A214C
:104550000298FEF729F83031029007F8011DB8F1F2
:104560000001A8F10108F2DC02980028EFD1791EC1
:104570000E980870307800F0200040F0450007F8F1
:10458000020D12A8C01B00F107081498007800B1B2
:10459000012000EB0A01019801EBE071059841440C
:1045A000401A401E0590E00306D45B462146179A48
:1045B000059800F05DF805441498007818B15A4643
:1045C000179990476D1CE00324D55B462146179A46
:1045D000059800F04DF805441CE00498002807DB1E
:1045E000DDE90301884203DD0098405C179901E092
:1045F000179930205A469047049805F10105401C50
:1046000004900198401E019004D12E205A4617991B
:1046100090476D1CBAF10001AAF1010ADDDC05E04A
:1046200017F8010B5A46179990476D1CB8F1000115
:10463000A8F10108F4DC5B462146179A0598ABE621
:104640002D0000002B000000200000002DE9F041AB
:10465000044600251E461746880404D405E0394662
:104660002020B0476D1C641EF9D52846BDE8F081B6
:104670002DE9F041044600251E469046C80301D5A9
:10468000302700E02027880404D505E0414638465D
:10469000B0476D1C641EF9D52846BDE8F0814A6814
:1046A000002A06D00A68531C0B6010704868401E30
:1046B000486070470A68531C0B6010707047000018
:1046C00070B504466FF01305552801DB06200FE096
:1046D000412C0ADA2D2C01DB042009E014F10A0F29
:1046E00001DB032004E0AC4201DB052000E00720F1
:1046F0000FF000FD15F0C8FFA8B10F480068C0F327
:10470000805080B904F114010C48142902D240F2FF
:10471000DC5106E0AC4202DA4FF4AF6101E04FF445
:10472000C8614161C16106480168002903D0204683
:10473000BDE87040084770BD14A80040E484002024
:104740002C2F002010B51A4940F21A444FF4B972C8
:104750000B694FF496710C3BA3420FD90424BE2879
:1047600001DC0C241BE0DC2801DC082417E0FA281B
:104770000EDD884210DD904211DD0FE0BE2801DC25
:104780000B240CE0DC2801DC072408E0FA2801DC1B
:10479000062404E0884201DC052400E003242046CE
:1047A0000FF0BCFC2046BDE810400FF099BC0000A3
:1047B000E48400202DE9F0411D469046DDE9062302
:1047C0000F4606460D498020FFF54BF8044680F859
:1047D0003C50202239463D30FDF758FC202231461E
:1047E00004F15D00FDF752FC04F13C024146204615
:1047F000BDE8F0414123FFF5B9B9000001482000B0
:10480000FFF514B92DE9F0471D46DDE9097392461D
:104810008946064600221F49A820DDF82080FFF5C2
:1048200020F8002180F8A510C763044680F85010D6
:10483000012084F85100D8F80010C4F85210B8F8DC
:104840000410A4F8561098F8060084F85800286858
:10485000C4F85900A888A4F85D00A87984F85F001E
:104860001022514604F16000FDF710FC1022494669
:1048700004F17000FDF70AFC07483246064900685B
:10488000C4F880002046BDE8F0472023091DFFF54D
:104890006DB900009D482000A0CE21002DE9F04711
:1048A0008A4604460027FFF5C1F850B394F8A500E6
:1048B0004FF0010904F1500804F1400630B104F151
:1048C000850501280DD0022828D11BE01022514671
:1048D0003046FDF7DBFB002084F8840084F8A590C7
:1048E00009E0102251462846FDF7D0FB84F8849059
:1048F000022084F8A5003523424631462046FFF5C4
:1049000035F90BE01022514604F19500FDF7BEFB8E
:10491000E36B29460020A269984701273846BDE885
:10492000F08700002DE9F05F9B4692460546DDE9E1
:104930000D230AA8894690E8C0011C498020FEF595
:1049400090FF0446102249466D30FDF79FFB102270
:10495000514604F15D00FDF799FB1022594604F120
:104960004D00FDF793FB3088A4F84A00B07884F836
:104970004C003968C4F84310B988A4F84710B879D6
:1049800084F84900D8F80000E063B8F80400A4F8FF
:10499000400098F8060084F8420004F13C022946E1
:1049A0002046BDE8F05F4123FFF5E0B8B1492000A3
:1049B000FFF53CB82DE9F0411F469046DDE906239E
:1049C0000E4605460F498C20FEF54BFF044620227B
:1049D00029466C30FDF75AFB2022314604F14C0089
:1049E000FDF754FB04F13C00102239460546FDF763
:1049F0004DFB2A4641462046BDE8F0415023FFF5D5
:104A0000B5B80000094A2000FFF510B810B586B00F
:104A1000144617F071F8002815D00C482168016081
:104A2000A1888180A179817103F040F90446002CAE
:104A300009D01422064901A8FDF728FBADF808406B
:104A400001A800F02DF906B010BD0000AC2C00202C
:104A5000C4CB210006460F46154672B63846FDF710
:104A600047FB402801D9402002E03846FDF740FBD3
:104A700080463046FDF73CFB402801D9402002E04B
:104A80003046FDF735FB04469C211048FDF725FB19
:104A9000424639460D48FDF7F9FA0C4822463146A0
:104AA0005C30FDF7F3FA09484FF0AA310164456420
:104AB0004FF0BB3181644FF0CC3101654FF0DD31F7
:104AC0008165002000F004F8FEE70000383B00207C
:104AD00030B5ADF20C4D04464FF4806103A8FDF7EC
:104AE000FCFA194D202085F83F0085F89B003CB169
:104AF0002846012C436DC26C09D0022C0CD00FE06B
:104B0000114A12A15C3203A8FEF766FD08E012A16B
:104B100003A8FEF761FD03E017A103A8FEF75CFD03
:104B200003A90CA2686CCDE90121009019A3064AE3
:104B300019A1002000F0BCFD012C01D000F070FD97
:104B40000DF20C4D30BD0000383B00205B45525249
:104B50004F525D20257300005B5741524E494E472E
:104B60005D20506172616D303A25642C5061726134
:104B70006D313A25640000005B504152414D5D208B
:104B8000506172616D303A25642C506172616D31F3
:104B90003A256400000000006170705F6173736506
:104BA00072742E6300000000014815F0C1B80000C7
:104BB000042C002006460F4690461D4672B640461D
:104BC000FDF796FA402801D9402002E04046FDF763
:104BD0008FFA04469C210D48FDF77FFA2246414694
:104BE0000A48FDF753FA09484FF05531016445640E
:104BF0004FF066318164C6644FF0773101654765D7
:104C0000C94381650220FFF763FFFEE7383B0020C0
:104C10002DE9F04106460F4690461D464046FDF7F9
:104C200067FA402801D9402002E04046FDF760FACB
:104C300004469C210D48FDF750FA224641460B4898
:104C4000FDF724FA09484FF0113101644564490029
:104C50008164C6644FF03331016547654FF04431DC
:104C60008165BDE8F0410120FFF732BF383B0020ED
:104C70007047000010B586B002F0D6FF0446002C45
:104C800009D01422054901A8FDF700FAADF8084043
:104C900001A800F005F806B010BD0000ECCB210023
:104CA0003EB504464FF400711A48FDF716FA207815
:104CB00010B1012819D01DE000211748A28830F852
:104CC00031309A4207D100EBC10014A1436811486A
:104CD000FEF782FC0EE02E2902D0491CC9B2EEE795
:104CE00014A10C48FEF778FC04E01DA10948626895
:104CF000FEF772FC074921A22069CDE9012100904D
:104D0000D4E902231EA1002000F0D2FCBDE83E4001
:104D100000F09ABC383900207CC321004572726FC4
:104D20007220636F6465203078253034583A20252E
:104D3000730000004572726F7220636F64652030EB
:104D400078253034583A204E6F20666F756E642097
:104D5000696E666F726D6174696F6E2E000000007F
:104D600028257329206973206E6F74206573746120
:104D7000626C69736865642E000000002573000092
:104D80006170705F6572726F722E63002DE9F04181
:104D9000014600291BD000240F4E0E4A357814E03E
:104DA00002EB04100F780378BB420CD14B684068CB
:104DB000034208D0707808B900F010FC2046BDE826
:104DC000F04100F04BBA641CE4B2AC42E8D3BDE859
:104DD000F08100008C360020D82B00207CB50546E1
:104DE0000E46002D01D0002418E0E5207CBD05EB27
:104DF000041041680091017A8DF80410417A8DF811
:104E0000051000218DF80610C2680078002369465D
:104E100000F036F80028E9D1641CE4B2B442E6D3CD
:104E200000207CBD10B502460846052A24D2DFE8E2
:104E300002F0030303111900104951F83220010454
:104E4000090C05D022B1014610460BF0D9FE0FE047
:104E5000E42010BD10F0FF0F02D00BF0D5FB07E0EF
:104E6000E42010BD810505D0014600200BF08AFF2B
:104E7000002010BDE42010BDE62010BD80C221003E
:104E80002DE9F05F05460C469046994626680027B6
:104E9000042D11D031462846FFF7C4FF214628468D
:104EA00000F068F8002808D1032D08D04FF0100A50
:104EB0002807070E002451E0E620BDE8F09F4FF0E0
:104EC000080AF7E7F00746D03DB1012D05D0022DC5
:104ED00003D0032D27D0E620EFE7244800EBC500E0
:104EE00090F904B0BBF1000F17D0EFF3108101204F
:104EF00080F310881E4AE01942F8308002EBC000AF
:104F0000C0F8049059B1012080F3108858460BF086
:104F1000A5FF58460BF0AFFF1DE0E420CDE70020D1
:104F200080F31088F2E7EFF31081012080F31088FE
:104F30000F4AE019703242F8308002EBC000C0F82E
:104F4000049079B1012080F3108815200BF086FFC2
:104F500015200BF090FF7608641CE4B25445B1D3E1
:104F60000020AAE7002080F31088EEE780C221002D
:104F70009C35002030B597B005460C461C224149AF
:104F800010A8FDF783F81C223E491C3109A8FDF743
:104F90007DF820223B49383101A8FDF777F894B11C
:104FA0003949062014F014FE3849152014F010FE7B
:104FB00034496C39A1F12C02052D60D2DFE805F0EF
:104FC000060606213900E52017B030BD207931F8FA
:104FD00010001190607932F810001290A0791390AF
:104FE000206810902748843850F83500218809043B
:104FF000090C04D018B110A90BF08FFE38E0E420A2
:10500000E2E7207901EB4000808A0A90607902EBA8
:105010004000C0880B90A0790C90206809902078FF
:1050200010F0FF0F03D009A80BF056FB20E0E4209E
:10503000CAE72079031F042B01D8E720C4E7022820
:1050400018D001200290207901EB4000008D0390E0
:10505000607902EB400080890490A0790590206877
:1050600001902088800508D001A900200BF0E6FE01
:105070000020A9E702200290E5E7E420A4E7E6206B
:10508000A2E7000004C32100B51F1000B11F1000EB
:1050900002460020052A11D2DFE802F003030309CB
:1050A0000C00074850F8320089B20BF054BE88B2A9
:1050B0000BF072BB89B200200BF0C2BE704700003B
:1050C00080C22100002803D00249086001207047F7
:1050D00000207047E02B002070B505460024091F12
:1050E000062917D2DFE801F003070C111315284633
:1050F00000F0A4F80EE00124284600F09FF809E033
:105100000224284600F09AF804E0032402E0042474
:1051100000E00524034A214628461268BDE8704095
:1051200010470000E02B00202DE9F0410446204606
:1051300000F0AEF801462E4800230826025D00F17B
:105140000A0700F11405AAB1052A33D0082A2AD18A
:10515000092945D0082926D1295D491CC9B22955FC
:10516000142920D32B5506552046BDE8F0410821CF
:10517000FFF7B2BF052913D0042916D0072914D090
:10518000082910D1295D491CC9B2295514290AD30F
:105190002B5506552046BDE8F0410821FFF79CBF7E
:1051A0003B5505210155BDE8F0812046BDE8F041A1
:1051B000FFF792BF05290CD0395D491CC9B239559A
:1051C0003229F0D303552046BDE8F0410521FFF711
:1051D00083BF03552046BDE8F0410621FFF77CBFA1
:1051E00003552046BDE8F0410921FFF775BF0000D7
:1051F0006C37002070B504460D4600F00FF808B17A
:1052000000F002FA0348044A2946005D5268BDE8EE
:105210007040104780360020D82B0020002006491F
:1052200011F810200AB100207047401CC0B20A28B3
:10523000F6D30120704700008A370020034900227E
:1052400001F8102001EB4000427070478A370020BF
:10525000014A02F8101070478A370020024A0121E3
:1052600002EB4000417070478A37002070B500247F
:10527000064D05EB4400407810B12046FFF754FF7F
:10528000641CE4B20A2CF4D370BD00008A370020FD
:1052900070B500211D4B03F132051A5C002A09D0BC
:1052A000002403F10A06012A0AD0022A12D0032A96
:1052B00024D11FE015F8102002B301221A541DE07A
:1052C00015F810201AB1345402221A5416E01C5456
:1052D000042113E015F810204AB1325C521CD2B2FE
:1052E0003254642A0AD3072103221A5406E0052106
:1052F0001C5403E015F8101011B10821084670BDC8
:105300001C54FFF79BFF0921F8E7000058370020E5
:105310001CB5012831D101290CD002292DD1394CDD
:10532000207800282AD0012837D0022844D003282A
:105330005FD150E011F060FC0446012C0DD100213A
:10534000084611F05FFC30A04921CDE90010354B33
:1053500035A23EA1032000F0ABF9002C0DD10121B4
:10536000002011F04FFC3BA04F21CDE900102D4B48
:105370002DA236A1032000F09BF91CBD0021084698
:1053800011F07CFB3AA05821CDE90010254B26A254
:105390002EA1032000F08CF92BE00121002011F058
:1053A0006DFB39A05D21CDE900101E4B1EA227A187
:1053B000032000F07DF91CE00421002011F05EFBC9
:1053C0003AA06221CDE90010164B17A21FA10320BD
:1053D00000F06EF90DE00221002011F04FFB3DA01E
:1053E0006721CDE900100F4B0FA218A1032000F098
:1053F0005FF92078401CC0B220700428BDD1002085
:1054000020701CBD602C0020416C726561647920A5
:105410007365742053696C656E74204D6F64652EDE
:10542000000000005CCB21002E2E5C5372635C7088
:105430006C6174666F726D5C757365725F706572B6
:105440006970685F73657475702E63004E4F5F54AA
:1054500041470000416C7265616479207365742076
:105460004E6F726D616C204D6F64652E0000000000
:10547000416C726561647920736574206E6F206180
:105480006C657274732E0000416C726561647920E2
:105490007365742052696E67657220537461746518
:1054A000206973206163746976652E00416C7265B2
:1054B0006164792073657420446973706C6179202C
:1054C0005374617465206973206163746976652E15
:1054D00000000000416C726561647920736574207E
:1054E000566962726174696E6720537461746520D5
:1054F0006973206163746976652E00002DE9F041BF
:105500000E4617460A2E02D80FB100231AE00020DB
:10551000BDE8F08103EB430400EB8405114AA97A4E
:10552000D154104910F824200C3101EB03142270DF
:1055300069686160297A2172697A61720A49E16059
:105540005B1CDBB2B342E5D3064831460C30FFF7B3
:1055500045FC0648067047600548FFF7B3FD01208B
:10556000D6E70000803600208D4D2000D82B00208B
:10557000F55120002DE9F0410024124FDFF848805A
:1055800019E0002607EB041528786968FFF780FD0D
:1055900010B9697A012902D0012802D005E001265C
:1055A00003E0687A022800D1012631462046FFF741
:1055B0004FFE641CE4B298F800008442E1D3BDE8D9
:1055C000F08100008C360020D82B002010B5FFF7AA
:1055D000D1FFBDE81040FFF749BE000010B5074AF3
:1055E0000121074800F0A8F900220A21044800F030
:1055F000F9FA04490120487010BD0000CD55200083
:1056000030370020D82B002010B5034800F0C2F935
:1056100002490020487010BD30370020D82B0020F0
:105620000248406A002800D0004770471039002027
:10563000002806D0002904D0024AD269002A00D0EE
:1056400010477047103900200248006A002800D037
:10565000004770471039002070B50D4616460D4CB6
:1056600000280AD00178032911D80121A17601462A
:105670001A222046FCF70AFD05E00020A0761A2138
:105680000448FCF72AFDE5612662002070BD012078
:1056900070BD000010390020044A1044807D08428B
:1056A00001D0012070470020704700001039002011
:1056B0002DE9FE4F0746924699460024A046CDF8B4
:1056C0000480CDF8088059480178B94202D2807E22
:1056D00000287DD10EAD0095EFF311860220FDF775
:1056E000F4FF8346FEF75CF8401C012181400BEB80
:1056F0000100C0B280F3118801213846FFF7CCFFCA
:1057000038B14B484B4950F82720204600F0A4F808
:1057100004461C213846FFF7BFFF00285ED046A292
:105720004449204600F098F8204484B204213846C9
:10573000FFF7B2FFF8B152463E49204600F08CF820
:10574000204484B208213846FFF7A6FF38B13BA2B7
:105750003849204600F080F8204484B20BE0102144
:105760003846FFF799FF30B135A23249204600F0A4
:1057700073F8204484B208213846FFF78DFF90B1BA
:105780004A462C49204600F067F8204484B2102194
:105790003846FFF781FF30B12AA22649204600F0A3
:1057A0005BF8204484B210213846FFF775FF60B1E2
:1057B00026A2052101A80C9BFDF7F6FE01AA1D49B2
:1057C000204600F049F8204484B221A2194900E0A3
:1057D00029E0204600F040F8204484B21548C4F582
:1057E000807120442B460D9AFDF70AFFCDF800800A
:1057F0004FF48071002804DB2044884201DC85B22C
:1058000000E00D46A81C884200D9FE2511A20949D6
:10581000284600F021F8284481B20648FFF708FF27
:10582000F0B280F31188BDE8FE8F0000103900202F
:10583000F02B00201038002028000000200000007D
:105840003A000000204C696E653A0000256C640047
:10585000292000000D0A000030B50546002000296F
:105860000CD0002A0AD006E02B18FF2B06D8CC5407
:10587000521C401C80B21478002CF5D130BD0000C1
:1058800010B5064A06214CF2010011F01BF804F095
:10589000D9F8BDE81040022029F69AB856CB21006D
:1058A00010B50848017800290AD101210170064885
:1058B00028F6F8FFBDE810400021044829F6F4B8A6
:1058C00010BD0000CC2B0020C11F10009D742100D2
:1058D00010B58AB000218DF814100C20ADF81C0012
:1058E000ADF81E00ADF820104FF4C870ADF82200DE
:1058F0000F480268CDF815208288ADF8192080790C
:105900008DF81B00ADF8241005A9002002F024F842
:105910000446002C09D0142206496846FCF7B6FB61
:10592000ADF804406846FFF7BBF90AB010BD0000AF
:10593000AC2C0020D8CB21002DE9F04104460D46C7
:105940001746002D04D0012D02D00120BDE8F081C2
:10595000E4B1DFB1607801281AD0EFF3118602209C
:10596000FDF7A5FE8046FDF713FF401C0121814095
:1059700008EB0100C0B280F3118800206070A570B0
:10598000E761F0B280F311880020DFE70120DDE756
:105990000620DBE710B50446002C0CD0204600F0B2
:1059A000B3F9FF2060700021A160E16021616161B5
:1059B0000020E06110BD012010BDF0B5DDE9074514
:1059C000059981614FF47A76A2FB061C03FB06C39E
:1059D000002702FB0732C0E9021209196A41C0E937
:1059E000041200210162F0BD2DE9F0410446002CB3
:1059F00013D0EFF311850220FDF759FE0746FDF79E
:105A0000C7FE401C012606FA00F03844C0B280F3FD
:105A100011881248002121620EE00020BDE8F081CB
:105A2000D4E90432D1E9047CDB1B72EB0C0202D214
:105A3000016A216203E00846016A0029F0D104628C
:105A40006670064810380168491C0160016B4160AE
:105A5000E8B280F311880120E0E70000B0370020B1
:105A60002DE9F04105460024EFF311860220FDF7F1
:105A70001EFE0746FDF78CFE401C01218140781870
:105A8000C0B280F31188134A106BE8B115B102F16E
:105A9000100010E00446206A10631068401E106079
:105AA0000CE0A94206D11168491E1160296A016201
:105AB0002C4603E00846016A0029F2D124B10020F7
:105AC00020626070106B5060F0B280F31188204645
:105AD000BDE8F081A03700202DE9F041EFF31187F8
:105AE0000220FDF7E4FD0446FDF752FE401C0121B3
:105AF00081406018C0B280F31188114D002608E083
:105B00002078012804D1E16909B1A069884726708D
:105B10002D6A2C6A002CF3D1094D103D07E0E16994
:105B200009B1A06988472670206AA8632662AC6B19
:105B3000002CF4D1F8B280F311880120BDE8F08187
:105B4000B03700202DE9F041EFF311870220FDF777
:105B5000AEFD0446FDF71CFE401C012606FA00F0CF
:105B60002044C0B280F311881D4DA5F110082DE02E
:105B7000D4E90430D8E902125B1A60EB0200D8E9DC
:105B80001021D21A814124D326702046FFF768FFE6
:105B9000A078012806D0124828300021216201682F
:105BA00061B10FE0D8E90220D4E90213511858413D
:105BB000C4E904102046FFF717FF07E0046005E082
:105BC00001F1200001680029FAD104602C6A002C40
:105BD000CED1F8B280F311880120BDE8F081000039
:105BE000B03700202DE9FF5F82460E4693464FF006
:105BF0000008BAF1000F20D0414886421DD8E6B116
:105C0000EFF311870220FDF752FD0446FDF7C0FDBA
:105C1000401C012181406018C0B280F311885046B9
:105C20000CF0CAFD10B19AF8010040B1F8B280F34F
:105C300011880F2004B0BDE8F09F0120FAE710F0B2
:105C400005FA04460D464FF47A7106FB01F0224630
:105C50002B4600210CF09AFCDFF8A890B0B1D9F8DF
:105C6000040048B1D0E90410091B60EB0500C9E944
:105C7000021010F065FA04E00021C9F80810C9F814
:105C80000C104FF00108D9E9020106E0D9F8040030
:105C9000D0E90421101B61EB0501CDE90201324678
:105CA0000023CDF800B05046FFF787FE5046FFF7BF
:105CB0009BFE13F09BFE4FF0E024D4F800014FF45C
:105CC000801510F4801F01D0012000E0002020B9D1
:105CD0001420FDF7ABFCC4F80051B8F1000F0AD056
:105CE000D9F80400D0E90431D9E90202181A61EBAD
:105CF000020110F0E1F9F8B280F31188002099E771
:105D0000008AB907A03700202DE9F041044600259C
:105D1000002C39D0EFF311870220FDF7C8FC0646AE
:105D2000FDF736FD401C012181407018C0B280F3A0
:105D300011886078012824D1144E7068A0420BD1DC
:105D400010F084F9D4E90432181A62EB0102C6E9B2
:105D5000020210F0F5F901252046FFF781FE5DB142
:105D6000706848B1D0E90421D6E90203101A61EB4A
:105D7000030110F0A1F904E01DB9706808B910F032
:105D8000DFF9F8B280F31188BDE8F081A037002078
:105D900070B504461A4D55F82400703012F05FFCBF
:105DA00082B21646A2B155F8240090F801110129DB
:105DB0000ED0012180F80411802A0FD355F8240059
:105DC000802200F18001703012F064FC80260CE02B
:105DD00055F82410002081F8000170BD55F824000A
:105DE00000F18001703012F055FC55F82400324665
:105DF00000F18001001D0BF045FD0028EDD170BDC4
:105E0000D02B0020704700002DE9F8430446534F83
:105E100057F82400061D022C7ED290F86C10002941
:105E20007AD0012978D190F80011012974D190F825
:105E30000111002970D1012180F80111002157F8CA
:105E40002400D0E903231344027D02F00102D21D95
:105E50009D184268D36FC3F38003002BFAD090F8EB
:105E60000421A2B13E4A1368491C90F83B20102A35
:105E700006D08268B3FBF2F26A43B1EBC21FF3D9DA
:105E800057F82400703012F0EAFB85B226E0B0F833
:105E90002480C58C001D0BF08DFA57F8240041F2C8
:105EA000883300EB0801491B8031001D2A460BF0A6
:105EB000A2FCE5E757F8240001227030694612F091
:105EC000E9FB57F824004068C16FC1F34001002985
:105ED000FAD09DF8001001606D1EADB2002DE9D121
:105EE00057F82400703012F0BAFB0028C8D130688F
:105EF00041694906FCD5EFF31085012080F3108835
:105F000057F82400703012F0AAFB78B1EFF310813B
:105F1000012080F3108800E015E03068426842F00C
:105F20008202426089B1012080F3108857F8241062
:105F3000002081F8000157F8241081F8010145B1D3
:105F4000012080F31088BDE8F883002080F31088DA
:105F5000ECE7002080F31088F5E70000D02B00204C
:105F60005C0000202DE9F04105460F46002D06D0CB
:105F70002AB12C78022C04D3E820BDE8F081E5207A
:105F8000FBE7304E05F1580046F82400D2E9003115
:105F90000A467030194612F047FB291D286D15F08E
:105FA00023FB0028E9D156F82410281D486656F82E
:105FB0002400076056F824001822083005F140013B
:105FC000FCF764F8204856F8241000EBC405686814
:105FD000486056F82400001D0BF04CFA56F82400D7
:105FE000001D0BF0E9FA184801220321103811F0C6
:105FF000C9FA56F82410012081F86C0056F82410D4
:10600000002081F8000156F8241081F8010156F8AB
:10601000241081F8020156F8241081F803010B497D
:106020000C2013F0D5FD0A490D2013F0D1FD95F990
:1060300001000AF013FF95F901000AF01CFF00208F
:106040009BE70000D02B00206CC3210065352000A9
:10605000753520002DE9F04104461A4D55F824000D
:10606000703012F0FCFA82B2164600277AB155F869
:10607000240090F80111012909D0802A0ED300F1E3
:1060800080017030802212F005FB80260BE055F86D
:10609000240080F800710020BDE8F08100F180014B
:1060A000703012F0F7FA55F8240080F8047155F8B2
:1060B0002400324600F18001001D0BF049FC00284D
:1060C000EAD1E9E7D02B002070B5022801D3E820FF
:1060D00070BD104D55F8204064B194F86C604EB11D
:1060E00051B14AB15E1C09D044F62066B34205D9CD
:1060F000E42070BDE52070BDE42070BD002684F86A
:10610000026155F82000001D0BF075FB0028F4D14A
:1061100070BD0000D02B00202DE9F84F294D80469E
:1061200092460E4601F10804A8F58041264A6868A7
:10613000B1F5804F01D25168401A844202D905203E
:10614000BDE8F88F28681369411E9268C1F30B01FE
:10615000411A9A1A01F6FF716B7AC1F30731C91A15
:1061600002EBC101081A001F844225D9174F0024F1
:10617000009411231E224FF40049D7F800C049466D
:106180000120E0470021084609F0C4FE40B1009418
:1061900013231E223C6849460120A0470A20CFE76E
:1061A000687A0CF013F90028CAD1009412231E2239
:1061B0003C6849460120A04752463146404615F00A
:1061C000C3FDBDE754820020082D0020E00100201F
:1061D000FEB50C4606460A79002101208DE807002D
:1061E000164D03230D2240212D680020A84760781A
:1061F0000125162811D1012130460AF6AFFD60B104
:10620000407850B10E49207951F8261081F84800A5
:106210000021304600F036FC002560780C2805D1BE
:106220002079072802D1304600F052FC25B12279AE
:10623000012130460BF64AF80020FEBDE0010020A7
:10624000CC19002070B50D46044608F67DFF69881C
:10625000884200D2014620460BF626F9012120464D
:106260000AF640FD012801D0412200E00022012170
:1062700020460BF62BF8002070BD000038B5044610
:10628000134D0020009002230D222D684021A847C5
:10629000012120460AF626FD0C2803D00E2814D032
:1062A00041220CE0012120460AF658FD418900896F
:1062B00081420AD0074850F8240090F84820012174
:1062C00020460BF603F8002038BD0022F7E7000057
:1062D000E0010020CC1900202DE9F0470F4681464F
:1062E00001210AF6FFFC032801D0402242E00121EF
:1062F00048460AF633FD4FF6FF7A05460026D0469B
:1063000024E0012148460AF661FD6B78014605222A
:1063100002EB092240F604409B1D11F6ABFD04463A
:10632000B819B61C80882080B0B23918801C8988C2
:10633000618086B26878207188466A7805F1080124
:10634000601DFBF7A3FE204611F6E0FD7888B04201
:10635000D7D8E98808F1010080B2514500D35146F1
:10636000814206D328B1A880012148460AF664FF7D
:1063700004E00A22012148460AF6A8FF0020BDE8F1
:10638000F0872DE9F0470F46824601210AF6AAFC64
:10639000072801D0402246E0012150460AF6DEFCE3
:1063A00081467878012803D010260025A84622E0EF
:1063B0000226FAE7012150460AF608FD01460522A9
:1063C00002EB0A22331D40F6074011F653FD044646
:1063D0007819AD1CB0F80480ADB2A4F8008079192A
:1063E000A6703246E01C091DFBF750FEA81985B2C5
:1063F000204611F68BFD7888A842DBD8B9F8061044
:1064000008F101004FF6FF7280B2914200D31146AD
:10641000814207D330B1A9F80400012150460AF6A1
:106420000BFF04E00A22012150460AF64FFF00202C
:10643000BDE8F087084A52F82020126A08E09388E5
:106440008B4204D8D3888B4201D3108970471268DD
:10645000002AF4D104F6F8BBCC1900200348024905
:1064600001600E2141607047FCD7210078050020B3
:1064700070B5164A0C460546126849889047014691
:10648000A088801D83B2052000EB052220781B2800
:1064900017D040F60D4011F6EDFC054620781B287C
:1064A00012D012202870A08868806088A880A288F6
:1064B000A11DA81DFBF7EAFD284611F627FD0020C7
:1064C00070BD40F60C40E6E71120EBE7FC2F002002
:1064D00070B50D46064601210AF604FC0C2806D0CC
:1064E0004122012130460AF6F1FE002070BD012153
:1064F00030460AF633FC0446A888E188401A80B288
:10650000608104F10C010144EA8805F10800FBF701
:10651000F6FD28B96089E98808442189884201D9B3
:106520004FF6FF706081012130460AF685FEDCE7F8
:106530002DE9F35F0D4648884978B0FBF1F401215D
:1065400000980AF6CFFB022869D1002C67D0012100
:1065500000980AF603FC804600266878B1461428A5
:1065600001D0022700E010274FF0000A4FF6FF7B12
:1065700030E0012100980AF629FC01460098052226
:1065800002EB0022BB1D40F6044011F673FC0446EA
:10659000A819B61C81882180B1B26818891C82882C
:1065A00062808EB29146A91927713A46601D091D75
:1065B000FBF76CFDF01986B298F8013008F108027B
:1065C0003946601DFEF51FFA08B14FF0010A20465A
:1065D00011F69CFC6888B04204D9BAF1000F01D1D1
:1065E000D945C6D109F1010080B2BAF1000F0ED130
:1065F000B8F80610594500D35946814207D330B147
:10660000A8F80400012100980AF616FE04E0002212
:10661000012100980AF65AFE0020BDE8FC9F4122A5
:10662000F6E700002DE9F34F81B000250C46A8469F
:106630000121009501980AF655FB052201990428CD
:1066400002EB012966D0052805D0062803D00A28C8
:1066500071D04022FEE0012101980AF67FFB074637
:106660006078072801D9102000E0022082464FF010
:10667000050B3DE06019B0F80480387805280AD091
:1066800005EB0B0020447B7807F108025146001D02
:10669000FEF5B9F948B3012101980AF697FB0146C6
:1066A0004A460AF1060340F6064011F6E3FB0646A9
:1066B000A0F80080AD1CA8B22118401C09793171E6
:1066C00080B22118801C8988718085B2611986F892
:1066D00005A05246B01D091DFBF7D8FC05EB0A00CA
:1066E00085B2304611F612FC02E06078284485B28B
:1066F0006088A842BED8F98808F101004FF6FF7201
:1067000080B2914200D31146814279D3002877D0DC
:10671000B8806FE0012101980AF620FB8346A0783B
:106720004FF0000A5646400701D0102731E04FF0E5
:10673000010A02272DE065E0012101980AF646FBD7
:1067400001464A4607F1080340F6054011F692FB60
:1067500006466019AD1C81883180A9B26018891C79
:10676000828889B260187280891C8288B2808DB25A
:10677000BAF1000F14D06119B7713A46F01D091D26
:10678000FBF784FCE81985B2B6F80080304611F6B4
:10679000BDFB6088A842CFD8BAF1000F09D01AE03B
:1067A0003D4A0198A6F10C0152F820000C3001F688
:1067B000F7FD86B1002000904B460A220421019883
:1067C00012F684FB014670884880019800F042F977
:1067D0000020BDE8FE8FBBF8061008F101004FF65F
:1067E000FF7280B2914200D31146814208D330B18A
:1067F000ABF80400012101980AF61EFD2EE0FFE728
:106800000A2227E06078FF282AD001980AF626FAA3
:106810006178801E884223DD012101980AF6D6FAAC
:10682000637801464A4640F609401B1D11F622FBDB
:10683000A1880546018014F8010F611D801E82B2F7
:10684000AA8000206880A81DFBF720FC284611F6CE
:106850005DFB0022012101980AF638FD0098B8E797
:10686000A4F10805012101980AF678FAA18881802F
:106870006178891EC180002101816078A5F10C0139
:10688000801E68800448019A50F822000C3001F6FE
:1068900087FD01200090ADE7CC1900202DE9F05FC5
:1068A0008946834601210AF61DFA0B2801D04122B0
:1068B00045E0012158460AF651FA00258046AA46CD
:1068C0002E4631E0012158460AF680FA08EB860789
:1068D0000146F8880522801D83B202EB0B2240F6A8
:1068E000094011F6C7FAB98804460180B9F80200D8
:1068F000F988401B814200D2084682B2A280002063
:10690000608009EB0501A01D091DFBF7BFFBA088F6
:1069100041198DB2F988884201D04FF0500A2046C3
:1069200011F6F4FA761CF6B298F80100B042C9D814
:10693000B9F80200A84201D04FF0500A5246012196
:1069400058460AF6C3FC0020BDE8F09F2DE9F04749
:106950000C4606464FF0000801210AF6C3F9DFF89D
:10696000F090042807D008282BD0092829D00A281D
:1069700027D0412259E0012130460AF6EFF90746B7
:1069800059F826000C3001F6F3FC00F10C0510223A
:10699000211DE81DFBF77AFB1020A871284611F68F
:1069A000B5FA2888F988401C4FF6FF7280B29142F0
:1069B00000D31146814202D308B1B88041E00A22D7
:1069C00033E0012130460AF6C9F90546A11F00202F
:1069D00021F80E0959F826004F460C3001F6E0FC6C
:1069E000288920B16188814200D20846608057F82A
:1069F000260062884FF00108C068C189114489B23D
:106A0000C181B1F5006F01D911220EE030460AF6BE
:106A100025F96188401E884203DC2889814209D318
:106A200040B1304600F054F80022012130460AF609
:106A30004DFC0AE0EA881144E98010B16188401AEF
:106A40002881012130460AF6F7FB4046BDE8F08771
:106A5000CC19002010B50C4609780246D2290CD07A
:106A600052290AD01E2908D0052000EB022147F246
:106A7000305240F61D4011F619FD2046BDE8104089
:106A800012F648BD38B504460020009005200D469A
:106A900000EB042318220421204612F617FA0146BF
:106AA00045702046BDE83840FFF7D4BF38B50446EE
:106AB00000200090052000EB04231E220421204624
:106AC00012F604FA01462046BDE83840FFF7C2BF7F
:106AD0002DE9F05F374C814654F82900C068002842
:106AE00066D0012148460AF639F9824654F8290051
:106AF000A3464FF00008C468012104F10C06E789A1
:106B000048460AF663F90146B81D83B2052202EB36
:106B1000092240F6094011F6ADF98780BAF8041051
:106B20000180BAF8061005464180307A092833D131
:106B3000727A06F10807A81DB91D921EFBF7A6FA86
:106B40007878811E1FFA81F8216819B16988081ABE
:106B5000801C68802468A6F10C0011F6CDF904F1C0
:106B60000C0619E006F1080705EB08007289391DCB
:106B7000801DFBF78BFA788800EB08011FFA81F87B
:106B8000216811B16988081A68802468A7F1140087
:106B900004F10C0611F6B0F9002CE3D15BF82900E2
:106BA0000C3001F6EDFA2846BDE8F05F11F6AEB9FB
:106BB000BDE8F09FCC19002010B5044601210AF66B
:106BC00091F80C2801D0412200E00022012120464A
:106BD0000AF67CFB002010BD02490148086070479E
:106BE000E96B20003405002070B506460D461020E4
:106BF000288029463046FEF55DFA044624B9294628
:106C00003046FEF563F90446074A298802A0126857
:106C10009047204670BD000064625F73697A65200A
:106C20003D2025640A000000E401002010B586B074
:106C30001A4C94F8020100282ED0684629F688F8EC
:106C40009DE8070003AB07C31549096808441549C7
:106C500020F070404860084629F69CFA94F800013C
:106C60001149096801EB001000F54050B0F85003DD
:106C7000C0F3C20002280FD80C48007820B106B03B
:106C8000BDE8104028F624B906B08822BDE81040BF
:106C900007A10CA0FDF5D4BA06B010BD6417002002
:106CA00010040020501700200402002005040020DA
:106CB0007363685F70726F675F70617463682E637F
:106CC0000000000030000000F0B5AFB000240D4619
:106CD0000646846219A82421FBF7FFF9229403A831
:106CE00024212394FBF7F9F90C940EA824223146B1
:106CF0000D94FBF7CBF9706A1790B06A784E189034
:106D000024A824223146FBF7C1F9706A2D90B06A9D
:106D10002E90012021902290CDE90B40B4E0002379
:106D20000EAA1846264652F82010891946EB03078A
:106D30007B084FEA310342F8203021F00103CB1ADF
:106D400000F101000928EED3002052F8201011B9FB
:106D5000401C0928F9DBC0F1090050622198C007E6
:106D600006D019A8FBF77CFE1698C007D7D044E0E0
:106D7000002319AA1846374652F82010C91947EBC4
:106D8000030673084FEA310342F8203021F0010373
:106D9000CB1A00F101000928EED3002052F8201090
:106DA00011B9401C0928F9DBC0F109005062DBE78A
:106DB000002324AA1846264652F82010891946EBCB
:106DC00003077B084FEA310342F8203021F001032A
:106DD000CB1A00F101000928EED3002052F8201050
:106DE00011B9401C0928F9DBC0F1090050620B9869
:106DF000C0070FD003A8FBF733FE2C98C007D7D0ED
:106E00002D9B17980EA924AA98422FD835D3C0F1EC
:106E1000090029E04FF0000303AA1846374652F84C
:106E20002010C91947EB030673084FEA310342F8F3
:106E3000203021F00103CB1A00F101000928EED324
:106E4000002052F8201011B9401C0928F9DBC0F1CC
:106E500009005062D1E752F8203051F82060B34267
:106E60000BD803D300F101000928F4D311460EA872
:106E7000FCF7E2FA03A919A804E01046FCF7DCFAD3
:106E800019A903A8FCF700FB179800288FD10D98CB
:106E900008B103A815E012490C9B03AA486A98425E
:106EA00013D80DD3C0F1090008E052F8203051F892
:106EB0002040A34204D808D300F101000928F4D3EC
:106EC000104612F08DFE03A900E011462422284648
:106ED000FBF7DCF80C9868620D98A8622FB0F0BD43
:106EE00040CF210010B58CB008A813F07FFDBDF88D
:106EF000221009989DF82120CDE904109DF820303A
:106F00002DA04FF4B471CDE90232CDE90010344B1D
:106F100034A23AA10220FEF7CBFB0AA800F096FCAF
:106F2000044654B114222E49103103A8FBF7AEF8E1
:106F3000ADF8104003A8FDF7B3FE9DF828009DF8BA
:106F40002910CDE906109DF82A209DF82B30CDE9B7
:106F500004329DF82C109DF82D002AA240F26D13EA
:106F6000CDE90032CDE902011D4B1EA223A1022072
:106F7000FEF79EFB2EA04FF4BA71CDE90010184B1E
:106F800018A21EA10220FEF793FB12F0EFFC05F001
:106F90002FFF00F049FE0446002C0AD014221049AD
:106FA000243103A8FBF772F8ADF8104003A8FDF7F1
:106FB00077FE0CB010BD0000476F6F646978204207
:106FC0004C452053444B205625642E25642E2564C1
:106FD0002028636F6D6D69742025782900000000FA
:106FE00010CC21002E2E5C5372635C757365725C4D
:106FF000757365725F6170702E6300004E4F5F5451
:10700000414700004C6F63616C20426F61726420E5
:10701000253032583A253032583A253032583A2500
:107020003032583A253032583A253032582E000046
:1070300050686F6E6520416C657274205374617482
:10704000757320536572766572206578616D706C1A
:107050006520737461727465642E0000FDF580B95B
:107060002DE9FF410DF1280898E8F0008DE8F000C7
:10707000FDF552FB04B0BDE8F0812DE9FF410DF1B3
:10708000280898E8F0008DE8F000FDF557FB04B003
:10709000BDE8F081FDF5CEBDFDF56ABEFEF5A2B9F5
:1070A0002DE9F041DFF864800646017898F8010088
:1070B00008440A2802D90420BDE8F08100242546AE
:1070C000134F05E0385D40B1641C0A2CFADB6D1CDF
:1070D0003078A842F9DC0020EEE7C5EBC500821944
:1070E00004F11000C0F30B0040F400400721521CD3
:1070F0000FF0E8FB00284FF00100DDD1385598F87B
:107100000110491C88F80110641CE0E7C02F002022
:107110009890002038B5144604F046F809490978DB
:1071200088420DD2BE2100EB4000ADF80010423085
:1071300040F40040224669460FF0A6FA002038BD10
:10714000032038BDC02F00202DE9F8430025DFF8CB
:10715000408006462C460827ADF8007018F8040059
:1071600001280ED104F1200006EBC502C0F30B008C
:1071700040F400406946521C0FF086FA08B96D1CB5
:10718000EDB2641C042CE7DB35700020BDE8F88309
:10719000CC2F00202DE9F0470024A8B088460746F0
:1071A000A14644702646DFF8A4A035E08C20ADF857
:1071B000980006EB4600413040F4004003AA26A99F
:1071C0000FF062FA30BB9DF80D00800722D54445D0
:1071D0002DD2786804EB840100EBC105DDF80E00C8
:1071E0002860BDF81200A8809DF81400A8719DF8D1
:1071F0001500E87110220DF1160105F10800FAF7EB
:1072000045FF10220DF1260105F11800FAF73EFFA7
:10721000641CE4B2761CF6B29AF800008642C5D32C
:1072200087F800907C7028B00020BDE8F08701222C
:10723000CDE90029064DCDF808801F231E222D68B8
:107240004FF400410120A847EAE70000C02F0020CA
:10725000E001002038B5144603F0A6FF094909787B
:1072600088420CD28C2100EB4000ADF80010413078
:1072700040F40040224669460FF006FA38BD03206C
:1072800038BD0000C02F00202DE9F043A5B0002438
:10729000894607468C26194D0DF10A0817E004EBC4
:1072A00044004130ADF88C6040F400406A4623A9A8
:1072B0000FF0EAF948B99DF80100800705D51022C2
:1072C00039464046FAF71BFF28B1641CE4B228781F
:1072D0008442E4D3C4B2287884420DD204EB440043
:1072E0004130ADF8006040F400404A4669460FF076
:1072F000CBF925B0BDE8F0830320FAE7C02F0020CA
:107300002DE9F8430025DFF8448006462C46072780
:10731000ADF8007018F8040001280FD1C5EBC500C6
:10732000821904F11000C0F30B0040F400406946DC
:10733000521C0FF0A9F908B96D1CEDB2641C0A2C9F
:10734000E6DB35700020BDE8F8830000989000204F
:107350002DE9FE4307463720B1FBF0F0C4B2144DCF
:10736000C4EBC4004FEA40082C7000260120CDE990
:107370000006DFF840C0029420231E22DCF800C083
:10738000C103E04707EB0800C5E9017005F11001F2
:1073900020440E704E70486001F0F2FA30B10AF0ED
:1073A00047FF0AF095FF0020BDE8FE830220FBE7BF
:1073B000C02F0020E001002010B5144603F0F4FEB9
:1073C0000949097888420CD200EB4000423040F471
:1073D00000402246BE210FF075FA002800D001209F
:1073E00010BD032010BD0000C02F00202DE9F74F75
:1073F00088B08B46044603F0D7FE4F4FDFF83CA120
:107400004FF0000839784FF0010988420ED200EBA6
:107410004000413040F400408C210A9A0FF052FAAB
:1074200004006ED01A23CDF8009035E000250AE064
:107430007968C5EBC50001EB40000BF06FF808B1AF
:10744000EEB205E06D1C38788542F1DBB86806784D
:1074500020680390A088ADF81000A0798DF8120084
:10746000DBF80010CDF81310BBF80410ADF81710BE
:107470009BF806008DF8190006EB460505F1400063
:1074800040F40040834603AA0E210FF01BFA0400CB
:107490000CD01B23CDF80090CDE901841E224FF4BF
:1074A00000410120DAF80050A84740E005F1410012
:1074B00040F400408C210A9A0FF004FA04000FD027
:1074C000CDF80090CDE901841C231E22DAF800508B
:1074D0004FF400410120A84758460FF081F826E0FC
:1074E000304614F0DFFA423545F400400FF078F8EA
:1074F0007968C6EBC60001EB40000E2203A9FAF73B
:10750000C5FD0A984078800711D50B4839781030AE
:10751000FFF740FE08481D2310304FF40041427829
:10752000CDF80090CDE901821E220120BAE70BB010
:107530002046BDE8F08F0000C02F0020E0010020B1
:1075400000F61EBE00F614BF00F62ABF10B500F00C
:107550000BF805F02FF90BF0C1F911F011FABDE8A5
:10756000104011F041BA000010B50849084808F071
:1075700067FF084947F6714008F062FF0448BDE81C
:1075800010400549483808F05BBF0000F959210058
:1075900081940200E19920009559210010B50EF068
:1075A000F1F90EF059F90DF037F90DF0D9FABDE8FF
:1075B00010400DF003B90000144810B5016821F027
:1075C00004010160016841F002010160016841F0BD
:1075D00001010160016821F002010160016841F0D0
:1075E000040101600949022010390860074940F68A
:1075F00001701C3908600120091D08600002F9F5BE
:1076000091FAFFF5FDFB0028FBD010BDE0A400407F
:107610000AF67CB910B5040009D001F0D3F930B9ED
:107620000448016819B120468847012010BD002098
:1076300010BD0000C02C00203EB5044640F20D22D3
:107640002088A0F20D21904248D00FDCB0F5807F59
:1076500024D0A0F500700B3824D0012831D1207A35
:1076600000282FD0BDE83E40FEF732B9F4293ED0C5
:10767000F5295DD0F92924D139A040F25911CDE97D
:107680000010404B40A246A10320FEF711F82079DC
:1076900003B00121BDE8304000F010B9BDE83E4024
:1076A000FFF720BC608800280BD03FA14FF49A72EE
:1076B000CDE900210290334B33A239A10320FDF71D
:1076C000F7FF3EBD40A040F23B11CDE900102D4B2D
:1076D0002DA233A10320FDF7EBFF3EBD618C606A54
:1076E00003B004F10A02BDE83040FDF78FB93AA0BB
:1076F0004FF4A471CDE90010224B23A228A103204E
:10770000FDF7D6FF60880028E7D139A040F24B1181
:10771000CDE900101B4B1CA221A10320FDF7C8FFDF
:10772000207903B004F10801BDE83040FDF7A0BAAC
:1077300060880028D1D1207A30A140F25312CDE9DF
:10774000002102900F4B10A215A10320FDF7B0FFFE
:10775000217A207903B0BDE83040FDF78BBA0000F4
:10776000424C455F474150435F4556545F434F4E3F
:107770004E5F504152414D5F5550444154455F5218
:107780004551000000CC21002E2E5C5372635C75C5
:107790007365725C757365725F6170702E63000053
:1077A0004E4F5F54414700005363616E2073746114
:1077B00072746564206661696C6564283058253090
:1077C0003258292E000000005363616E2054696D09
:1077D000656F75742E000000424C455F4741504371
:1077E0005F4556545F434F4E4E4543544544000059
:1077F000436F6E6E65637465642E00004469736345
:107800006F6E6E6563746564202830782530325859
:10781000292E000010B511F0CFF801F05BF90EF041
:10782000FDFC12F0DBF80CF02BFB11F0B7F802F0C6
:1078300059FA08F067FB00F0D0FC08F01BF9FFF7DD
:10784000ADFEBDE81040012001F028B92DE9F0415E
:1078500004460026EFF311850220FBF760FF074680
:10786000FBF7B6FF0121401C81407818C0B280F3BD
:10787000118803F029FD07466CB10F4890F8DA0033
:1078800010F00100A07108D00B488030416C2160DD
:10789000B0F8480006E0022605E000F07BFB016836
:1078A00021608088A080384603F0D0FCE8B280F3E5
:1078B00011883046BDE8F081FC8500202DE9F843B1
:1078C000894604460025EFF311860220FBF719FFD5
:1078D0000746FBF775FF0121401C81407818C0B2B4
:1078E00080F3118803F0F0FC80460A2C06D2184879
:1078F0004FF6FF7730F83400B84201D103251BE082
:10790000072000EB0421062349224FF4616000F0B8
:10791000CBFF040019D084F8009002206080A7807B
:1079200000200C4F0123009008223F6810211846C8
:10793000B847204600F0FAFF404603F087FCF0B25B
:1079400080F311882846BDE8F8831025F4E700008D
:1079500088850020E00100202DE9FE4F8246414845
:107960000D460078400702D41E20BDE8FE8F002699
:10797000EFF311880220FBF7D2FE0446FBF728FF45
:107980004FF00109401C09FA00F16018C0B280F301
:10799000118803F099FC83462DB1334F97F8A50069
:1079A00018B10F2646E0022644E0D7F8AC0030B903
:1079B0000021382000F054FFC7F8AC00F0B30446B3
:1079C0003821FAF78AFB87F8A7A02878207060781A
:1079D00040F2712140F0010060702889A08168891F
:1079E000E081A8892082E8896082B7F8E400B0FBD2
:1079F000F1F04000801CA082B7F8E400B0FBF1F089
:107A00004000801CE082288A60800F20A0800A202D
:107A1000E080E879002100F00100E871D5F801006C
:107A20002063B5F80500A086E87984F836000620C2
:107A300003F0F0FC88230822102100E010E0CDF8CC
:107A40000090CDE90196094C01202468A0475846D2
:107A500003F0FCFB08F0FF0080F31188304684E758
:107A60001026E7E7F02E0020FC850020E001002032
:107A7000044A52F8200050F8472F0A608088888016
:107A800070470000D8180020024951F8200090F8F3
:107A90004D007047D81800202DE9FE43054600260A
:107AA000EFF311870220FBF73AFE0446FBF790FE46
:107AB0004FF00108401C08FA00F16018C0B280F3D2
:107AC000118803F001FC814625B1A878032803D969
:107AD00001262AE0022628E008234922062140F652
