:020000040020DA
:10200000F0530120F121200089472000011E10001B
:10201000D5452000374020001D4A20000000000068
:10202000000000000000000000000000151E10006D
:1020300085402000000000008B472000DB49200085
:1020400000F002F800F0C4F80AA090E8000C824406
:102050008344AAF10107DA4501D100F0B9F8AFF2E3
:10206000090EBAE80F0013F0010F18BFFB1A43F076
:102070000103184750A2030090A203000A444FF046
:10208000000C10F8013B13F0070408BF10F8014BD7
:102090001D1108BF10F8015B641E05D010F8016B1C
:1020A000641E01F8016BF9D113F0080F1EBF10F880
:1020B000014BAD1C0C1B09D16D1E58BF01F801CBA3
:1020C000FAD505E014F8016B01F8016B6D1EF9D526
:1020D0009142D6D370470000103A24BF78C878C127
:1020E000FAD8520724BF30C830C144BF04680C601E
:1020F000704700000023002400250026103A28BF66
:1021000078C1FBD8520728BF30C148BF0B60704769
:102110006E2900F05084702900F0CF81662935F0D7
:10212000D986652935F0D686672935F0D3866129A9
:1021300035F0D28603681B0A28BF41F08001692967
:1021400000F04081642900F03D81752900F03A815A
:102150006F2900F05085782900F09B81E92900F073
:10216000EB84E42900F0E884F52900F0E584EF2908
:1021700000F04D85F82900F09A810368DB0928BF3B
:1021800041F08001632900F05A84732900F05F84D4
:10219000E32901F02381F32901F028810020704711
:1021A0001FB535F064FE00F06CFA01F04FF9040041
:1021B0000020002135F016F8401C6060002000214E
:1021C00034F0FAFFE06000F079FB1FBD10B510BDE0
:1021D000DFF80CD0FFF7E4FF29F02EFF01F0ECF957
:1021E000F053012003B4FFF7F1FF03BC03F043F801
:1021F0000148804701480047ED49200055C02200B2
:1022000058585247010000003253000000202000BF
:10221000002020008BEB924700010000000000002E
:1022200000000000000000000000000000000000AE
:10223000000000000000000000000000000000009E
:102240000B49D1F800C04A685CF8043B1068184498
:1022500042F8040B8C4528BFA1F1DC0C8A4228BF50
:10226000A1F1DC02C1F800C04A6020F000407047D4
:1022700090D100207CB51D4616460C00009001D080
:102280002044401E074B7B442A4669460190304655
:1022900000F0ABFB05461CB10020694600F0B8FB1E
:1022A00028467CBD910700000FB4044910B503AA6D
:1022B000029800F0D1FB10BC5DF814FBF42A00205A
:1022C0000FB41CB5084B06AA7B44694600900598DC
:1022D00000F08BFB04460020694600F099FB204685
:1022E0001CBC5DF814FB0000450700000FB47CB572
:1022F0000C0009AA009001D02044401E084B7B44EA
:1023000069460190089800F070FB05461CB100205A
:10231000694600F07DFB28467CBC5DF814FB00009C
:102320001907000070B5044685690068C10601D52B
:10233000302600E02026C00707D070BDD4E9012177
:1023400030469047206A401C20626D1EF6D570BD55
:1023500070B5044685690078C00707D170BDD4E91F
:10236000012120209047206A401C20626D1EF6D576
:1023700070BD70B50C460546012A05D02878800648
:1023800000D5EA69002302E0012305E05B1C9342CB
:1023900002D2E05C0028F9D1A869E618C01AA86149
:1023A000286A184428622846FFF7BCFF04E0D5E9F4
:1023B000012114F8010B9047B442F8D32846FFF7E7
:1023C000C7FF70BD2DE9F04106460024106875294D
:1023D000314616A510D000F083FA002802DA4042F8
:1023E00013A507E031688A0701D512A502E0490765
:1023F00004D511A5012401E000F07BFA00210A2296
:1024000006F1240709E0B0FBF2FCB0FBF2F302FB9B
:102410001C00303078541846491C0028F3D123465C
:102420002A463046BDE8F04100F06CBA00000000DA
:102430002D0000002B00000020000000F0B40D462D
:102440000188090502D5214C7C4402E01F4C7C44E4
:102450000E34002100F1240608E002F00F071209F3
:10246000E75D42EA03721B097754491C52EA0307ED
:10247000F3D102780023120704D5702D06D009B1DC
:10248000022311342246F0BC00F03CBA0123103480
:10249000F8E770B504460D462146106800F029FAA9
:1024A000024629462046BDE870400023C6E7D21DFB
:1024B00022F00703D3E90023C0E70368126843F062
:1024C000200303600823C3610023B7E7188D0300CE
:1024D0002DE9F05F894604464FF0000ADFF874B139
:1024E000FB44C0F820A02046E1688847002874D04B
:1024F000252806D0D4E901219047206A401C20629B
:10250000F1E700265F462046E16888472028054617
:1025100007DB312D05D2781910F8200C08B10643DD
:10252000F1E7B00701D526F00406C4F81CA0002787
:10253000C4F818A02A2D09D0284602F095FE38B319
:1025400004EB8708303DC8F8185019E059F8041B0F
:10255000204604EB87029161E1688847012F054618
:1025600018D1E069002820DA26F020061DE0D8F80E
:10257000180000EB800005EB40003038C8F8180068
:102580002046E1688847054602F06EFE0028EED13D
:10259000012F0AD02E2D08D12046E16888477F1CE4
:1025A0000546022F46F02006C4DBA069002803DAA6
:1025B000404246F00106A061F00701D026F0100667
:1025C0006C2D0BD0682D09D04C2D39D06A2D35D00B
:1025D000742D35D07A2D33D016E038E0E1682F46DF
:1025E00020468847B842054609D16C2F26D04FF4C3
:1025F0008060E168064320468847054604E06C2F6A
:102600001AD04FF4807006430DB3A5F1410019288C
:1026100002D8203546F400664A4629462046266000
:102620004E46FFF775FD80B101280BD0F61D26F050
:10263000070000F1080956E74020E4E78020D8E7CA
:102640000020D6E706F104094DE7284652E7206A44
:10265000BDE8F09FA88C03000B4910B5A1F17C02E6
:102660000A4CC2E93712372106E000EB104342F86A
:102670002130074B00FB03400B1EA1F10101F4DCEC
:1026800010BD0120E8E7000030D10020E119D66636
:10269000CD0D010040EA010310B59B070FD1042ABC
:1026A0000DD310C808C9121F9C42F8D020BA19BA1D
:1026B000884201D9012010BD4FF0FF3010BD1AB182
:1026C000D30703D0521C07E0002010BD10F8013BD7
:1026D00011F8014B1B1B07D110F8013B11F8014BFE
:1026E0001B1B01D1921EF1D1184610BD10B5431C21
:1026F00002E010F8011B71B18107FAD14FF00132ED
:1027000002C88C1A8C4314EAC211F9D0C01A0A0606
:1027100003D0C01E10BDC01A10BD0A0401D0801E17
:1027200010BD0902FCD0401E10BD032A40F23080CB
:1027300010F0030C00F0158011F8013BBCF1020F02
:10274000624498BF11F801CB00F8013B38BF11F883
:10275000013BA2F1040298BF00F801CB38BF00F89A
:10276000013B11F0030300F02580083AC0F0088017
:1027700051F8043B083A51F804CBA0E80810F5E7FB
:10278000121D5CBF51F8043B40F8043BAFF30080DE
:10279000D20724BF11F8013B11F801CB48BF11F853
:1027A000012B24BF00F8013B00F801CB48BF00F823
:1027B000012B704710B5203AC0F00B80B1E81850DB
:1027C000203AA0E81850B1E81850A0E81850BFF41B
:1027D000F5AF5FEA027C24BFB1E81850A0E81850BA
:1027E00044BF18C918C0BDE810405FEA827C24BF0E
:1027F00051F8043B40F8043B08BF7047D20728BF9C
:1028000031F8023B48BF11F8012B28BF20F8023BEA
:1028100048BF00F8012B704702F0FF0343EA032290
:1028200042EA024200F002B84FF000020429C0F070
:10283000128010F0030C00F01B80CCF1040CBCF1F2
:10284000020F18BF00F8012BA8BF20F8022BA1EB44
:102850000C0100F00DB85FEAC17C24BF00F8012B29
:1028600000F8012B48BF00F8012B70474FF0000221
:1028700000B5134694469646203922BFA0E80C5076
:10288000A0E80C50B1F12001BFF4F7AF090728BF51
:10289000A0E80C5048BF0CC05DF804EB890028BFCD
:1028A00040F8042B08BF704748BF20F8022B11F0F6
:1028B000804F18BF00F8012B7047000070B5064C20
:1028C0007C44064D7D4403E0206820448047241D5D
:1028D000AC42F9D170BD00006C9B03006C9B0300FF
:1028E00009684A0501D540B27047C905FCD500B258
:1028F000704709684A0501D5C0B27047C905FCD5C3
:1029000080B270472DE9F0470D469946924604463D
:1029100000F124080168880604D5E06921F010015F
:10292000216000E00120A84201DD471B00E00027F4
:10293000A1697A1902EB0900081AA0612078C00683
:1029400002D42046FFF7EEFC002608E0D4E901217E
:102950001AF806009047206A401C761C20624E45FB
:10296000F4DB2078C0060AD52046FFF7DBFC06E042
:10297000D4E9012130209047206A401C2062381E93
:10298000A7F10107F4DC07E0D4E9012118F80500FC
:102990009047206A401C2062281EA5F10105F3DC47
:1029A0002046FFF7D5FC2078000602D50220BDE8BE
:1029B000F0870120FBE711680268006A530501D522
:1029C00008700AE0D30501D5088006E0130603D598
:1029D000C217C1E9000200E0086001207047000052
:1029E00001694A1C02610878704700B58FB0CDE9D3
:1029F00001310021059105497944CDE903101146C3
:102A00006846FFF765FD0FB000BD0000E5FFFFFF62
:102A10000A6802F8010B0A607047D1E900239A4264
:102A200002D2531C0B601070704710B5436913B18C
:102A3000AFF3008001E0FFF79CFC012010BD12788D
:102A400000F124010A7000224A700122EDE71168AA
:102A50004FF0FF32E9E70000074B70B50D467B44AD
:102A6000FFF7C3FF0446284600F0C4FC10B14FF046
:102A7000FF3070BD204670BD938800002DE9FF5FD8
:102A800015468A460446DFF8AC80F8440027D8E9AA
:102A900000103E46CDE9001010E03AF816106A46E4
:102AA00002A800F0ABFC411C07D02178890603D5B1
:102AB000E269391891420DD80744761C20788006C7
:102AC00002D5E069B84205DDAE42E6DB3AF8160011
:102AD0000028E2D1A069C01BA0612046FFF722FCBC
:102AE000D8E90010CDE90010002017E03AF81810DE
:102AF0006A4602A800F082FCB0F1FF3F81460BD08D
:102B000000250DF1080B05E0D4E901211BF80500B3
:102B100090476D1C4D45F7D308F10100B042804647
:102B2000E4DB206A384420622046FFF711FCBDE850
:102B3000FF9F0000128703002DE9F0418046D21D5F
:102B400022F007020025D2E90002F52915A614D0CB
:102B5000011E72F1000106DA0023D0EB030063EBE3
:102B6000020211A608E0D8F800108B0701D50FA6C5
:102B700002E0490701D50EA601251146002408F1FF
:102B8000240704E000F04EF830323A55641C50EA55
:102B90000102F7D12B46324621464046BDE8F041BE
:102BA000FFF7B0BE000000002D0000002B00000069
:102BB0002000000030B4002100F1240408E002F0FD
:102BC0000705D208303542EA4372DB086554491CD8
:102BD00052EA0305F3D10468002310A2250707D5A4
:102BE000A40600D421B1C46901230DA2641EC461EE
:102BF00030BCFFF787BE10B5044621461068FFF7CA
:102C000078FE02462046BDE810400023D2E7D21DE0
:102C100022F00701D1E90023CCE70000000000000A
:102C20003000000030B5B0F10A024FEA900E71F1A9
:102C300000034EEA817EB0EB0E0061EB91014FEA9A
:102C4000101E4EEA017E10EB0E0041EB11114FEA0F
:102C5000102E4EEA016E10EB0E0041EB11214FEAEF
:102C6000104E4EEA014E10EB0E0041EB11414018A0
:102C700041F100014FEAD00040EA41704FEAD10132
:102C800010EB80054FEA810444EA907444EB0104A0
:102C90006D1944EB0404521BA3414FF0000348BFDD
:102CA0000A3200D530BD401C41F1000130BD7047F3
:102CB0002DE9FF4F0C461E464FF0FF378BB0D2E98F
:102CC0000001DDF860800A908A46C1F30A5505B913
:102CD0003D46002108464FF00000BAF1000F00F415
:102CE000400005DA00EB80004FF4400101EA50009B
:102CF0004FEA9059B9F1010F00DDB9460A9850EA40
:102D00004A000ED044F61050A5F2FF3545432F146B
:102D1000B8F1000F1ED07542291E1EDDC9F1000258
:102D20001CE0B8F1010F4FF0000001D0302103E0AA
:102D3000F24305E02154401CB042FBDB3046002248
:102D4000002121540B99C1F80880C1E900200FB07F
:102D5000BDE8F08FBD1B6D1CDEE74A4600DA694214
:102D600006A800F0B7FB06AB93E8070003AB83E8C7
:102D7000070050460A9900F069FC8DE80700A0F5AD
:102D800000501F3800900398002D0ADD42F21F0109
:102D90004A460844002303A90390684600F0D2FE87
:102DA00009E0A0F500504A461F38002303A903900C
:102DB000684600F0DCFE8DE807000004000C03D03C
:102DC0004FF0FF30410800E01046B8F1000F03D08B
:102DD0000022009215461EE0751E05D4FFF722FF63
:102DE000303262556D1EF9D5B3460122084302D038
:102DF00000227F1C04E02078302801D100227F1EB1
:102E0000002A099784D01DE0112D07DAFFF70AFF89
:102E1000303262556D1C50EA0102F5D1084302D0F0
:102E20000098C8B10EE00021681E05E0235C625CDA
:102E300063542254401E491C8142F7DBAB46A81B59
:102E4000401E0990002004F80B000B98099AC0F866
:102E50000880C0E9002B7AE711264FF0000857E7F9
:102E60002DE9F04F88460446D21D22F0070191B0AB
:102E7000D1E90001CDE90A0101F0D1FD02460B982C
:102E8000C00F01D02D2007E02068810701D52B203D
:102E900002E0202101EAC000032A099001D0072A9C
:102EA00005DB03464146204600F0D4FA0BE12078CA
:102EB000800601D5E06900E00620B8F1650F814683
:102EC00006D0B8F1660F18D0B8F1670F70D131E0B5
:102ED0000020B9F1110F009001DB112301E009F18D
:102EE00001030AAA01A90CA8FFF7E2FEDDE90C70B4
:102EF000002609F10105834647E001204B4600907A
:102F00004FF000470AAA01A90CA8FFF7D1FEDDE99E
:102F10000DB00C995D46002610B909F101000D189D
:102F2000B9EB050003D4C0F1FF3609F10105A5EBAB
:102F300009002BE0B9F1010F01DA4FF0010900207F
:102F4000B9F1110F0090484601DD112300E003465E
:102F50000AAA01A90CA8FFF7ABFEDDE90C704D46EB
:102F600000268346207800070AD4AB4500DA5D4688
:102F700001A8012D04DD411911F8011C302907D0E9
:102F80004F4502DA17F1040F04DA012082460FE000
:102F90006D1EEEE7002F02DCED1B3E4403E0781CC3
:102FA000A84200DD7D1CB81B00F1010A4FF000476C
:102FB0002078000703D4AA4501DB4FF0FF3A002137
:102FC000B7F1004F0DF143088DF8431024D00220D3
:102FD0002B23002F01DA7F422D230A21021EA0F1AC
:102FE000010000DC5FB197FBF1FC97FBF1F201FB04
:102FF0001C7C17460CF1300C08F801CDEEE7A8F167
:10300000010003702188090501D5452100E06521F3
:10301000A0F1010800F8011C09980FA9A1EB08070D
:10302000FF1D00B10120411901EBEA70A16938448C
:10303000081A401EA0612078C00602D42046FFF77F
:1030400071F9099828B1D4E901219047206A401C00
:1030500020622078C00622D52046FFF763F91EE0E3
:10306000002E04DBB34502DD01A8805D00E03020C6
:10307000D4E901219047206A401C2062761CAAF105
:1030800001005FEA000A0AD100F0E0F9C0680168B7
:10309000405CD4E901219047206A401C2062281E30
:1030A000A5F10105DCDC07E0D4E9012118F8010BEA
:1030B0009047206A401C2062381EA7F10107F3DC0C
:1030C0002046FFF745F9032011B041E62DE9F04F06
:1030D00004460D46D21D22F0070089B0D0E90097C2
:1030E0004846394601F09BFC0246F80F01D02D23DB
:1030F00007E02068810701D52B2302E0202101EAA7
:10310000C0038DF820300BB1012000E00020032A1D
:10311000824601D0072A04DB2946204600F09AF9AE
:103120003FE12078800601D40D2500E0E569C7F372
:103130000A560D2D49DA00214FEA175B08464FF079
:103140000000002F00F4400007DA00EB80004FF48D
:10315000400100EBD07001EA60008115012901DD1A
:103160004FF0FF3100224FEA850CBCF1180F06D357
:103170001346ACF118004FF08052C24003E04FF408
:10318000801323FA0CF30CF10C0CBCF1200F04D3C8
:10319000ACF1200C09FA0CF001E007FA0CF0002960
:1031A0004FF0004801DD18B90FE00ED140450CD3B7
:1031B00019EB02095F4121B9404502D19F4329EA39
:1031C0000209BBEB175F00D0761C2088000502D5F2
:1031D0007B48784402E07A487844193808AA3023BA
:1031E00002F80A30037C0AF10101002E0AF1020AFA
:1031F00053546A4602DC4FF0300101E04FF03101D8
:103200004FF001088DF8001002D0A6F2FF3603E05F
:1032100059EA470100D06B4E002D02DC21780907E6
:1032200004D54FF002082E218DF80110C44600216C
:103230000BE0C7F303433F01C35C491C6D1E02F85A
:103240000830052908F1010801DA002DF1DC002120
:103250000CE000EB1973491C1B786D1E082902F85D
:1032600008304FEA091908F1010801DA002DF0DCF5
:1032700021688B0602D516E0A8F10108E04505DDBE
:1032800002EB080313F8013C302BF5D0B8F1000F26
:1032900009DD02EB080313F8013C2E2B03D10907CB
:1032A00001D4A8F10108002D05DD3E2102F8081027
:1032B0006D1E08F10108407C002E02F8080008F19C
:1032C000010804DA2D20764202F8080002E02B20E3
:1032D00002F808000A214FF47A70864208F10108CA
:1032E0000BDB96FBF0F3303302F8083096FBF0F37B
:1032F00008F1010800FB136601E0642E0CDB64207A
:1033000096FBF0F3303302F8083096FBF0F308F147
:10331000010800FB136601E00A2E06DB96FBF1F0C4
:10332000303002F8080008F1010896FBF1F001FBCB
:103330001060303002F80800A16908F1010808EBBC
:10334000050202EB0A00081AA0612078C00602D428
:103350002046FEF7E7FF216A08AE01EB0A00206273
:1033600004E0D4E9012116F8010B9047BAF1010AF3
:10337000F7D22078C00602D52046FEF7D3FF6E466E
:1033800009E016F8010B3E280FD0D4E9012190473F
:10339000206A401C2062B8F10108F2D22046FEF7F4
:1033A000D7FF09B00320BDE8F08F206A28442062CF
:1033B00003E0D4E90121302090476D1EEBD3F8E7FC
:1033C000E57F030002FCFFFF10B5436913B1AFF3C3
:1033D000008001E0FFF752FB012010BD128800F1D0
:1033E000240182840022C2840122EDE711684FF09B
:1033F000FF32E9E7007B00F08000704770B51646A9
:103400000C46054600F01AF8036893F801010128FC
:1034100006D0FF2C0FD8185D68B101202C7070BD4C
:10342000D3F807013246214603F207130344284626
:10343000BDE8704018474FF0FF3070BD10B500F088
:1034400005F8001D10BD00BF9D3D030000487047FA
:10345000B8D100202DE9F0411F460446032601683B
:10346000072A01F4006004DB08B116A505E016A5E3
:1034700003E008B115A500E015A521F010002060BB
:10348000A069C01EA0610FB1401EA0612046FEF7DA
:1034900049FF4FB1D4E9012138469047206A401CCA
:1034A0002062C01C206206E0206AFAE7D4E901210C
:1034B00015F8010B9047761EF8D22046FEF748FF1C
:1034C000BDE8F0814E414E006E616E00494E4600EF
:1034D000696E66002DE9F047814616468AB0354888
:1034E00078440DC88DE80D0032487844801C03AC48
:1034F0000DC884E80D0041F69B300844372190FB4D
:10350000F1F290FBF1F5A5F1800501FB12041B3CE3
:1035100002D56442012000E00020DFF898A0804638
:103520000027FA44AAF1BE0A0EE0E0070AD03246AC
:10353000684607EB470101230AEB810100F017FB06
:103540008DE8070064107F1C002CEED1194F7F44DA
:10355000AE3F19E0E80715D007EB04100DF1180A8B
:1035600090E80E008AE80E00C068F04201D1981978
:1035700008903246012306A903A800F0F8FA03AB2D
:1035800083E807006D10641C002DE3D14FF00103A8
:1035900032466946B8F1000F03A802D000F0D2FA13
:1035A00001E000F0E4FAC9E90001C9F808200AB016
:1035B000BDE8F087687D030010B50446AFF30080D6
:1035C0002046BDE81040FEF70DBE00004FF0013C64
:1035D00050F8042B51F8043B9A4221D1A2EB0C0382
:1035E000934313EACC1317D150F8042B51F8043B42
:1035F0009A4215D1A2EB0C03934313EACC130BD1DF
:1036000050F8042B51F8043B9A4209D1A2EB0C0369
:10361000934313EACC13DBD04FF00000704700BF98
:10362000D01A01BAB1FA81F101F0180122FA01F0C1
:10363000CB40C1F12001DBB2C0B2C01A2CFA01F3B9
:10364000D11A914311EAC311E6D170475FEA400CE9
:1036500008BF91F0000F4FEA8C234FEAC12243EAE2
:1036600051514FEA1C5018BF00F5F0404FEA3000AE
:1036700018BF41F000415FEA6C5C00F02980BCF1AA
:10368000FF3F08BF40F080407047130C06BF120494
:103690004FF0100C4FF0000C130E04BF12020CF18F
:1036A000080C130F04BF12010CF1040C930F04BF9C
:1036B00092000CF1020CD30F04BF52000CF1010C6C
:1036C00011464FF00002A0F11F00A0EB0C00704764
:1036D00011F0004F08BF704731F000413FF4D5AF03
:1036E0000B0C06BF09044FF0100C4FF0000C0B0E32
:1036F00004BF09020CF1080C0B0F04BF09010CF107
:10370000040C8B0F04BF89000CF1020CCB0F04BF1B
:1037100049000CF1010CCCF12003A0EB0C0022FAC3
:1037200003F302FA0CF241EA030100F101007047D1
:1037300020F07F4C80EA030023F07F47ACEB0703C7
:1037400003F57C5300F0004003F1FF032DE98049AD
:103750004FEA154B09B44FEA144325EA0B4E24EA0D
:1037600003480FF2042606EB132749083E785FEA68
:10377000320203FB0667C7F5000707FB06F64FEAB0
:1037800054374FEAD64606F1020607FB066CCCF129
:10379000005C4FEA1C472CEA074C07FB06F40CFBC5
:1037A00006F504EB15464FEA961634BF00204FF09D
:1037B00000404FEAD13706FB07FC4FEA1C4C0CFBDC
:1037C0000BF7D21B03FB0CF761EB07010CFB0EF7A9
:1037D000B0EB074072EB17420CFB08F734BFA2EBCB
:1037E0000742B2EB074261EB17414FEA0C444FEA44
:1037F000910706FB07FC4FEA1C4C0CFB0BF7B0EBE8
:10380000C74072EB573203FB0CF734BFA2EBC74241
:10381000B2EBC74261EB57310CFB0EF7B0EBC700C0
:1038200072EB57720CFB08F734BFA2EBC702B2EB86
:10383000C70261EB5771039F4FEA816141EA921120
:1038400004EBCC044FEAD1374FEA826206FB07FC57
:1038500042EA90124FEA80604FEA1C4C0CFB0BF7D7
:10386000D21B03FB0CF761EB07010CFB0EF7B0EB6F
:10387000074072EB17420CFB08F734BFA2EB07427C
:10388000B2EB074261EB17414FEA8C554FEA9107C3
:1038900004EB9C2406FB07FC4FEA1C4C0CFB0BF7CB
:1038A000B0EBC74072EB573203FB0CF734BFA2EB0F
:1038B000C742B2EBC74261EB57310CFB0EF7B0EBDE
:1038C000C70072EB57720CFB08F734BFA2EBC702BC
:1038D000B2EBC70261EB577115EB4C254FEA8161E2
:1038E00041EA92114FEA82624FEAD13742EA9012DE
:1038F00006FB07FC44F100044FEA80604FEA1C4CD1
:103900000CFB0BF7D21B03FB0CF761EB07010CFB65
:103910000EF7B0EB074072EB17420CFB08F734BF11
:10392000A2EB0742B2EB074261EB174115EB1C1506
:103930004FEA813141EA92414FEA823242EA9042B3
:103940004FEA80304FEA0C7644F1000448EA034322
:103950004EEA0B484FF0000EB2EB080C71EB030778
:1039600024BF624639464EEB0E0E4FF0000B001896
:10397000524149414BEB0B0BB2EB080C71EB0307C7
:103980007BF1000B24BF624639464EEB0E0E4FF022
:10399000000B0018524149414BEB0B0BB2EB080CEA
:1039A00071EB03077BF1000B24BF624639464EEBF7
:1039B0000E0E51EA020718BF46F0010616EB0E760E
:1039C00055F1000254F1000103D5BDE88901BDE8BD
:1039D0000088BDE88901BDE80048B619524141EBB5
:1039E0000101A3F10103704780807F7E7D7C7B7A9B
:1039F0007978777676757473727171706F6E6E6D9B
:103A00006C6C6B6A6A696868676666656464636340
:103A100062616160605F5F5E5E5D5D5C5C5B5B5AC6
:103A20005A59595858575756565555555454535333
:103A300052525251515050504F4F4F4E4E4D4D4D8E
:103A40004C4C4C4B4B4B4A4A4A49494948484847D9
:103A50004747474646464545454444444443434317
:103A60004342424242414141002B9C4630D47700C0
:103A70002BD01CB54FEA370703B44FF010004FF0BE
:103A80001001BAF1000F06D0BCF1000FDCBF40F00E
:103A9000080040F008014FF000000FBCBDE81040E6
:103AA0000BF1010BBBF1010F08BF5FEA170722BF43
:103AB00012F1010211F101014FF0004143F1000345
:103AC00000F0004043EA00007047F9D35708D0E700
:103AD00046EA064613F1400F4FEA16461FDD13F182
:103AE000200FDFBF16430A46002120335B42BED0C1
:103AF000C3F1200746EA064602FA07F74FEA1646E0
:103B000046EA0706C3F1200722FA03F201FA07F793
:103B100021FA03F14FF0000342EA0702A7E746EA61
:103B2000020646EA06464FEA164646EA0106BCBFCA
:103B300046EA0646360C4FF000034FF000024FF005
:103B4000000194E72DE9804C9A46934670B491E8C1
:103B5000380007C831EA400C48BF34EA430C03D5AB
:103B6000FFF7E6FDFFF780FFF0BCBDE8008C2DE914
:103B7000804C9A46934670B491E8380007C810F01C
:103B8000804F08BF13F0804F03D100F005F8FFF716
:103B90006BFFF0BCBDE8008C20F07F4780EA03009B
:103BA00023F07F4C07EB0C03A3F57C5300F000409F
:103BB000A3F1FE0392F0000F00F0B38095F0000F28
:103BC00000F077802DE901494FEA11404FEA144691
:103BD00021EA004800FB06FC24EA064708FB06F63B
:103BE00007FB08F800FB07F718EB06484CEB164CF0
:103BF0004FEA124B18EB07484FEA15464CEB1740BB
:103C000022EA0B4E0BFB06FC25EA06470EFB06F6E6
:103C100007FB0EFE0BFB07F71EEB064E4CEB164C9C
:103C20004FF000061EEB074E4CEB174B18EB0B0842
:103C300040F1000018EB0E0B58EB000840F10000BB
:103C40008F1A4FF000013CBFC943661B14BFB5EB90
:103C5000040C00213CBFC943F61B4FEA17444EEA4F
:103C60008E0E27EA04454FEA1C4704FB07622CEA44
:103C7000074C05FB07F70CFB05F604FB0CFC16EBE9
:103C8000074642EB174216EB0C4642EB1C421BEB7D
:103C9000060658EB0202414146EA9E0601D5BDE800
:103CA0000189B619524141EB0101A3F10103BDE8BD
:103CB00001894FEA14454FEA114724EA054621EAF3
:103CC000074C05FB07F406FB07F70CFB06F105FBA9
:103CD0000CFC11EB074144EB17444FEA124711EB80
:103CE0000C4144EB1C4422EA074C05FB07F206FB9F
:103CF00007F70CFB06F605FB0CFC16EB074642EB40
:103D0000174216EB0C4642EB1C456A1854F10001B1
:103D100048BF7047B619524141EB0101A3F10103BD
:103D2000704795F0000F37D04FEA11424FEA144721
:103D300021EA024624EA074C02FB07F106FB07F7DB
:103D40000CFB06F402FB0CFC14EB074441EB17419F
:103D50004FEA154714EB0C4441EB1C4125EA074C94
:103D600002FB07F506FB07F70CFB06F602FB0CFC53
:103D700016EB074645EB174516EB0C4645EB1C4288
:103D8000121951F1000148BF7047B619524141EB79
:103D90000101A3F1010370474FEA14454FEA1147AF
:103DA00024EA054621EA074C05FB07F106FB07F765
:103DB0000CFB06F24FF0000605FB0CFC12EB074271
:103DC00041EB174112EB0C4251EB1C4148BF7047CD
:103DD000921841EB0101A3F101037047F0B50025F2
:103DE00008222B4650F8227051F82260BE1943EB8E
:103DF000030476195C4104F001041C4301D0012541
:103E000000E0002540F822600446521EEAD5002159
:103E100050F8212012B9491C0929F9DBC1F1090127
:103E20006162F0BDF0B500240823254650F82360F8
:103E300051F82370F61945EB050736196F4107F065
:103E400001042C4301D0012400E0002442F8236047
:103E50005B1EEBD5002052F8201011B9401C092838
:103E6000F9DBC0F10901C2E90915F0BD10B514462E
:103E7000FFF7D8FFA06A20B12046BDE8104000F04F
:103E80001DB80D4B606A596A88420ED813D3C0F131
:103E9000090108E053F8212054F8210082420AD891
:103EA00003D301F101010929F4D32046BDE81040F4
:103EB000014900F00DBD10BD5091230010B58CB02C
:103EC000044601466A46074800F062FC694624221F
:103ED0002046FEF76FFC099860620020A0620CB0DB
:103EE00010BD0000509123002DE9F0410446DFF899
:103EF00008C1806A8CB04FF0000848B16246606A21
:103F0000536A2146984250D827D3C0F1090022E0D5
:103F10004FF000014FF00800424654F820505CF882
:103F20002030ED1842EB02036D18534103F00101FC
:103F3000114301D0012100E0002144F82050401E2F
:103F4000EBD518E052F8203051F82050AB4204D89D
:103F50002BD300F101000928F4D36A46264800F06B
:103F600017FC6946254624222046FEF723FC0998C3
:103F70006862C4F8288000221046454654F8201094
:103F8000491945EB02035A084FEA310244F8202050
:103F900021F001028A1A00F1010023460928EDD31D
:103FA000002054F8201001BB1CE0002308224146E9
:103FB0005CF8225054F82200EE1841EB0107861BF2
:103FC00071EB07062B4406D2C01A001C44F82200ED
:103FD0004FF0010303E0C31A44F822300023521EBD
:103FE000E6D5C8E7401C0928DBDBC0F109005862B0
:103FF0000CB0BDE8F08100005091230010B51220F4
:1040000000F032FD07F046F904490446896A884702
:104010002046BDE8104007F0FFB80000802C0020CB
:1040200010B503F6F5F810B105F058FB10BDBDE86A
:1040300010402AF6DBBBFEE705F0A0BD10B52AF65E
:10404000C1FC022818D00D4CD4F8880220F00100E1
:10405000C4F888024FF0E0214FF00050C1F8800210
:1040600004F5227405F0C8FE05484168491C41600A
:10407000206840F00100206010BD000000E000401A
:10408000342D0020FEE700002DE9F04FADF5317D25
:10409000814600F12C0B58308890859001F12C005E
:1040A0008490CDE989012C300E4687908690154684
:1040B00024211046FEF7DAFB002405F12C076C6280
:1040C000B84624213846AC62FEF7D0FB7C62BC6265
:1040D0002C3724213846FEF7C9FB7C6237A82421FF
:1040E000BC62FEF7C3FB40940BA824214194FEF769
:1040F000BDFB149442A824211594FEF7B7FB4B9402
:1041000016A824214C94FEF7B1FB1F9421A824216A
:104110002094FEF7ABFB2A94684624212B94FEF7EB
:10412000A5FB09944DA824210A94FEF79FFB569401
:1041300058A824215794FEF799FB619463A8242181
:104140006294FEF793FB6C942CA824216D94FEF7E7
:104150008DFB359479A824213694FEF787FB829451
:104160006EA824218394FEF781FB77944846A149E9
:1041700078942DF0B7FC9F4C010004F12C0A04F157
:10418000580409D1514658462DF0ACFC20B92146BF
:1041900088982DF0A7FC28B1304696492DF0A2FC56
:1041A00078B339E0304693492DF09CFC50B9514624
:1041B00084982DF097FC28B9214687982DF092FC21
:1041C00000287DD0242231462846FEF7F3FA706A93
:1041D0006862B06AA862849D44462422294640460B
:1041E000FEF7E8FA686A6062A86AA062879C2422E7
:1041F00021463846FEF7DEFA606A7862A06AB86245
:10420000F5E0FFE7514684982DF06CFC20B921467B
:1042100087982DF067FC28B1494630462DF062FCA6
:10422000B8B122E04C46242249462846FEF7C2FA9D
:10423000606A6862A06AA8625D46444624225946C4
:104240004046FEF7B7FA686A6062A86AA062889C76
:10425000CDE7594684982DF045FC002830D1306DCB
:10426000012802D8F06C0028ABD037AA859989982C
:1042700000F0D0F90BAA5846869900F0CBF942AA73
:1042800085998A9800F0C6F916AA4846869900F0E2
:10429000C1F916A942A82DF025FC00287ED021AA3C
:1042A0000BA937A800F09EFA6A4616A942A800F0AA
:1042B00099FADDE9850158AA00F0ACF9A5A800E05B
:1042C0007BE02421FEF7D2FA0024AE9484A82421B6
:1042D000AF94FEF7CBFA8D948FA824218E94FEF72D
:1042E000C5FA98949AA824219994FEF7BFFA6946D2
:1042F000A39463AA0846A49400F08CF92CAA6946FA
:1043000063A800F087F921A979AA084600F082F98C
:104310006EAA16A963A800F07DF99AAA02216EA8D8
:1043200000F059F984AA58A979A800F073F98FAA66
:104330002CA984A800F056FA4DAA9AA98FA800F0DB
:1043400051FA2A464DA9684600F064F984A8242150
:10435000FEF78CFA8D948FA824218E94FEF786FAAE
:1043600098949AA824219994FEF780FAA39484AA99
:104370004DA96EA8A49400F035FA8FAA84A921A8AB
:1043800000F048F99AAA0BA92CA800F043F942467C
:104390009AA98FA800F026FA3A4600E008E058A94A
:1043A0002CA800F037F901200DF5317DBDE8F08F24
:1043B0000BA937A82DF096FBA8B10E4E242231464A
:1043C0002846FEF7F7F9706A6862B06AA862564636
:1043D0004546242251464046FEF7ECF9706A686271
:1043E000B06AA86203E72946484600F005F80020B5
:1043F000DAE70000CC9123002DE9F04F0C465B4E2C
:10440000016D06F12C085836F9B0834600F12C05F1
:1044100000F1580A04F12C0904F15807012902D8C7
:10442000296A00297ED051492DF05CFB50B94146E4
:1044300028462DF057FB28B9314650462DF052FB47
:10444000002873D037AA51465846FFF70FFD42AAFD
:104450005146584600F0C6F94DAA42A937A800F0C7
:10446000D9F80BAA03214DA800F0B5F86A465146C9
:10447000284600F0CFF837AA6946284600F0CAF867
:1044800016AA37A9584600F0C5F80BA937AA08465E
:1044900000F0C0F842AA082116A800F09CF821AA52
:1044A00042A937A800F09EF937AA694621A800F072
:1044B000B1F82246022137A800F08DF8294637AA24
:1044C000084600F0A7F869462CAA084600F0A2F8B2
:1044D00042AA2CA937A800F09DF84DAA082142A8AD
:1044E00000F079F858AA042116A800F074F863AA1D
:1044F00021A958A800F076F96EAA63A90BA800F0CC
:1045000089F84A464DA96EA800F06CF937AA6946A9
:104510002CA800F07FF83A46082137A800F05BF895
:10452000002000E002E079B0BDE8F08F0F4D2422BA
:1045300029462046FEF73EF9686A6062A86AA062D2
:1045400045464C46242241464846FEF733F9686A00
:104550006062A86AA062242231463846FEF72AF932
:10456000706A7862B06AB862DAE70000CC91230022
:104570002DE9F043154F0446154EF87D10258BB0FC
:1045800091468846FF2806D0716EC20005FA02F0F7
:10459000814301437166694604F1580003F00EFA45
:1045A000F87DFF2804D0716EC0008540A943716674
:1045B00042466946204600F02DF84A46694604F115
:1045C0002C0000F027F80BB0BDE8F0834007002076
:1045D00000000E40FEE7F0B4002508232F4650F8F7
:1045E00023602C463D46E6FB014542F823405B1E16
:1045F000F5D5002152F8213013B9491C0929F9DBFE
:10460000C1F109035362806A9062F0BC104630F039
:10461000BBBA00002DE9F74FA0B082460C466846B1
:1046200083464821FEF722F94FF00009CDF8489063
:104630000821CDF84C90002208204D4646180BEB7F
:10464000860354F820805F685AF821C0BE1845EBF5
:104650000502ECFB08625E60401EEFD5491EEAD5FC
:104660006946002051F8202012B9401C1228F9DBBD
:10467000C0F112008864DAF82800A16A884201D0EB
:10468000012000E0002000246D46139000E0641C2F
:1046900055F8240008B9092CF9D313982D491E9018
:1046A00012988B6C2A46984215D818D3C0F1120084
:1046B0000DE051F8203052F82060B34206D0B342EA
:1046C00001D2012000E0002028B908E0401C122897
:1046D000EFDB00E0641C55F824000028FAD005EB5D
:1046E0008401242214A8FEF765F814A9002051F8CB
:1046F000202012B9401C0928F9DBC0F109004862EA
:1047000004F109001228084615D230F03DFA14A829
:104710002022011DFEF74EF805EB840014A9406A23
:104720001C900020641C51F82020002AE5D1401C78
:104730000928F8DBE1E730F027FA229C14A92422AB
:104740002046FEF737F81D9860621E98A06223B0DD
:10475000BDE8F08F7C91230010B54342421E0A60F1
:10476000C1E901304FF0000001F1100C4FF0FF34AF
:10477000C8608CE815008862C1E9074301D00920B0
:1047800000E00820486210BDFEE7FEE70DF04CBADD
:10479000F0B500240823274651F8236050F8235031
:1047A00016EB040C47EB070EB5EB0C0C77EB0E0C7D
:1047B000344406D22C1B241C42F823404FF0010441
:1047C00003E02D1B42F8235000245B1EE4D500209B
:1047D00052F8201011B9401C0928F9DBC0F109007A
:1047E0005062F0BD2DE9F0410F460346816A012574
:1047F000B86A1446002641B190B3786A596A884273
:1048000044D849D3C0F109003EE020B139461846EA
:10481000FFF708FB16E0586A796A88420ED81BD366
:10482000C0F1090008E057F8202053F820108A4210
:1048300012D803D300F101000928F4D322463946E7
:10484000184626E02149A662606A4A6A904234D836
:1048500039D3C0F109002EE02246194638461EE041
:10486000FFE739461846FFF7DDFA2046A562BDE8A6
:10487000F041FFF723BB53F8202057F820108A425D
:104880000AD803D300F101000928F4D322461946BF
:104890003846FFF77DFFD5E7224639461846FFF731
:1048A00077FFE2E751F8203054F8202093420AD8ED
:1048B00003D300F101000928F4D32046BDE8F041FC
:1048C000024900F005B8BDE8F081000050912300D6
:1048D000F0B5002308221E4651F8225050F822401D
:1048E000EF1846EB060CE71B76EB0C072B4406D2C1
:1048F000E31A1B1C40F822304FF0010303E0E41AD6
:1049000040F822400023521EE6D5002150F8212015
:1049100012B9491C0929F9DBC1F109014162F0BD55
:1049200070B50B460446816A0025986A8CB0012652
:1049300041B140B1586A616A884239D846D3C0F162
:10494000090033E030B10CB02046BDE87040194694
:10495000FFF744BA606A596A884237D80ED3C0F16B
:10496000090008E053F8202054F820108A4205D8A6
:104970002CD300F101000928F4D327E06A46214630
:104980001846FFF705FF694624222046FDF712FF6F
:104990000998C4E909060CB070BD54F8202053F8FA
:1049A00020108A4212D803D300F101000928F4D361
:1049B0006A4621461846FFF7EBFE69462422204648
:1049C000FDF7F8FE0998C4E90905E4E70CB02046B4
:1049D000BDE870401946FFF77BBFFEE70249096852
:1049E00001F007010170704700A000400248016813
:1049F00041F470010160704788ED00E002480068F2
:104A0000001D0DF02DBC0000D02A00200248406897
:104A1000001D0DF025BC0000D02A0020FEE703B4E5
:104A200001984100009850EAC12018BF04204A0DA7
:104A300018BF40F0010040F2FF72B2EB515F08BFB7
:104A400040F00200012808BF052002B0704700288E
:104A500009DB00F01F02012191404009800000F1B4
:104A6000E020C0F880127047002809DB00F01F0228
:104A7000012191404009800000F1E020C0F880123F
:104A80007047002809DB00F01F0201219140400916
:104A9000800000F1E020C0F800117047002809DB19
:104AA00000F01F02012191404009800000F1E02048
:104AB000C0F800117047002804DB00F1E02090F8F6
:104AC0000004704700F00F0000F1E02090F8140D92
:104AD0007047002804DB00F1E02090F800047047E4
:104AE00000F00F0000F1E02090F8140D704700284E
:104AF00004DB00F1E02090F80004704700F00F00A4
:104B000000F1E02090F8140D7047002804DB00F15C
:104B1000E02090F80004704700F00F0000F1E02062
:104B200090F8140D7047002804DB00F1E02090F8A5
:104B30000004704700F00F0000F1E02090F8140D21
:104B40007047002804DB00F1E02090F80004704773
:104B500000F00F0000F1E02090F8140D70470028DD
:104B600004DB00F1E02090F80004704700F00F0033
:104B700000F1E02090F8140D7047002804DB00F1EC
:104B8000E02090F80004704700F00F0000F1E020F2
:104B900090F8140D7047002804DB00F1E02090F835
:104BA0000004704700F00F0000F1E02090F8140DB1
:104BB0007047002804DB00F1E02090F80004704703
:104BC00000F00F0000F1E02090F8140D704700286D
:104BD00004DB00F1E02090F80004704700F00F00C3
:104BE00000F1E02090F8140D7047002804DB00F17C
:104BF000E02090F80004704700F00F0000F1E02082
:104C000090F8140D7047000002480068C0F30220BD
:104C1000704700000CED00E002480068C0F302207D
:104C2000704700000CED00E002480068C0F302206D
:104C3000704700000CED00E002480068C0F302205D
:104C4000704700000CED00E002480068C0F302204D
:104C5000704700000CED00E002480068C0F302203D
:104C6000704700000CED00E002480068C0F302202D
:104C7000704700000CED00E002480068C0F302201D
:104C8000704700000CED00E002480068C0F302200D
:104C9000704700000CED00E0EFF31080704700005B
:104CA0002DE9F0412DED020B9FED3D0B2DED028B1B
:104CB0009FED3D8BDDE90254C4F30A50A0F2FF36AC
:104CC000142E37DA002E18DA53EC102B9DED020B60
:104CD00051EC100B32F0A8FA53EC182B32F0A0FE76
:104CE00057D2002CBCBF4FF00044002551DB54EAE2
:104CF000050018BF2E4C1BD14BE02E4820FA06F7BA
:104D000004EA070028431FD053EC102B9DED020B43
:104D100051EC100B32F088FA53EC182B32F080FE75
:104D200037D2002C03DD4FF48010F0400444BC4324
:104D300000252EE0332E07DCA6F114004FF0FF31E2
:104D400021FA00F73D4206D19DED020BBDEC028B2E
:104D500002B0BDE8F08153EC102B9DED020B51EC3D
:104D6000100B32F0EDFE53EC182B32F059FE10D23E
:104D7000002C0DDD142E08BF641C09D0C6F13400D0
:104D8000012101FA00F02844A84238BF641C0546FE
:104D9000BD43CDE902549DED020BD7E700000000B2
:104DA0009C7500883CE4377E000000000000000095
:104DB0000000F03FFFFF0F0010B52DED020B2DEDB1
:104DC000088B84B09DED0C0B51EC100B32F05EFEA5
:104DD00041EC180B9DED0C0B53EC182B51EC100B08
:104DE00032F0BAFE41EC190B0D989FED290B10F033
:104DF000004F53EC102B51EC190B9FED21AB9FEDA5
:104E000022BB0ED032F0D2FC0ED953EC1B2B51EC4E
:104E1000190B32F005FE1CD214E000BF41EC180B58
:104E200017E032F0C3FC06D253EC1A2B51EC180BEE
:104E300032F092FEF2E753EC1B2B51EC190B32F0DF
:104E4000EFFD06D853EC1A2B51EC180B32F0ECF9AD
:104E5000E4E78DED028B9DED0C0B18EE901A10EE31
:104E6000900A8DED000B61F31E0003909DED020B87
:104E700004B0BDEC088B02B010BD000000000000C3
:104E8000000000000000F03F000000000000E03FD4
:104E9000000000000000E0BF80F3108870470000B1
:104EA0002DE9F74F07460298DFF86CA1DFF86C8117
:104EB0004FEA500B5A48019D5C465646CAF800001E
:104EC000D8F804203F2060F30502C8F80420DAF87F
:104ED000000020F4700040EA0750CAF80000DAF839
:104EE000000020F4702040EA0740CAF800000D2FAF
:104EF00002D00E2F04D007E0306840F4004002E0FA
:104F0000306840F480403060306840F400503060D9
:104F1000306820F060503060306820F00F0040F0C2
:104F200003003060002000F0AFF8012872D1316832
:104F3000B24641F0804131600020424609E0D8F895
:104F4000083043F48033C8F80830811C00F10100B8
:104F500005D091689046C1F300210029EFD10720C8
:104F600000F092F8012855D142E000264FF47A79FA
:104F700024E04E451ED9DAF8001021F08041CAF82D
:104F80000010DAF8001041F00041CAF80010DAF819
:104F9000001021F00041CAF80010002000F074F861
:104FA000012837D11F484169491C41610520FBF5A3
:104FB000B9FD7FE70120FBF5B5FD761CD8F80800A8
:104FC000C0F300200028D4D0D8F80800434600F0F1
:104FD0007F02A24200D92246002006E0196825F887
:104FE000021B090C25F8021B401C9042F6D3A41AA0
:104FF000002CBAD10298C00707D040468168C1F39F
:1050000000210029FAD000682880BDE8FE4F00206A
:1050100000F03AB8BDE8FE8F00A8004000E0004074
:105020000A070807342D00202DE9F04112490446F3
:1050300000200860104980390860104D686A104EE1
:1050400000F00101494201403062C8050DD440F230
:105050000117A869B84208D024B10120641EFBF5ED
:1050600061FDF6E70020BDE8F08106480068B06108
:105070006868F0610120F6E794581C4200E00040A7
:10508000342D002000A800402DE9F041104F0546C6
:10509000F868C0F30240A84217D0F86820F0070073
:1050A0002843F86000244FF6FF76F868C0F302400A
:1050B000A84205D00120FBF535FD641CB442F4D3B1
:1050C000B44202D10020BDE8F0810120FBE70000DE
:1050D00000E00040F0B50C462DED088B89B0064687
:1050E0009FED559B20216846FDF7C0FBB0EE498A35
:1050F000F0EE698A102269463046FFF7D1FE00259E
:105100006F4607EB4500008A32F0F7FA53EC182B94
:1051100032F08AF86D1C41EC180BEDB2082DF0D37B
:105120009FED470B51EC180B53EC102B32F07AFB30
:1051300041EC180B9FED44BB0D2E02D00E2E30D04B
:1051400072E0608832F0D9FA53EC1B2B32F020F970
:105150009FED3F0B41EC190B51EC100B32F058F85E
:1051600041EC1A0BE08832F0C8FA53EC1A2B32F0FB
:1051700059FB41EC1A0B208832F0BFFA53EC182B84
:1051800032F0DEFC53EC1A2B32F002F99FED321BA9
:1051900053EC112B32F0FCF853EC192B32F044F89D
:1051A00040E0A07EFF2801D0E8B13DE09FED2C0B50
:1051B00051EC100B32F02CF841EC1A0BE08832F075
:1051C0009CFA41EC190B208932F097FA53EC182B1A
:1051D00032F0B6FC53EC192B32F0DAF853EC1A2B00
:1051E00032F020FB1EE0A08832F087FA41EC190B68
:1051F000E08832F082FA32F00BF841EC1A0B208989
:1052000032F07BFA53EC182B32F09AFC53EC1A2B49
:1052100032F0BEF853EC192B32F004FB53EC1B2B8D
:1052200032F0B6F841EC190B09B0B0EE490AF0EED5
:10523000690ABDEC088BF0BD000000000000000012
:10524000000000000000C03F0000000000005940C6
:105250000000000000000040DE718A8EE4F25FBFB3
:10526000E2E1E1E1E1E10E4030380A2801D201201B
:10527000704700207047704770B504466FF0130503
:10528000552811DA412C0DDA2D2C06DA14F10A0F0B
:1052900001DB032009E0AC4201DB042005E014F14E
:1052A0001E0F01DB052000E0062010F023FA30F08D
:1052B00097F9A8B116480068C0F3805080B904F18E
:1052C00014011448142902D240F2DC5106E0AC4229
:1052D00002DA4FF4AF6101E04FF4C8614161C1618E
:1052E00030F08EF9002811D0FCF60EFF3C2C06DDC4
:1052F000032802D06FF00C0004E00D2002E0322CF5
:1053000004DA1C20BDE870400DF05CBE70BD0000EA
:1053100014A80040E0C4002010B51A4940F21A4415
:105320004FF4B9720B694FF496710C3BA3420FD93D
:105330000424BE2801DC0C241BE0DC2801DC08244A
:1053400017E0FA280EDD884210DD904211DD0FE0F3
:10535000BE2801DC0B240CE0DC2801DC072408E07B
:10536000FA2801DC062404E0884201DC052400E080
:105370000324204610F0D2F92046BDE8104010F07A
:10538000AFB90000E0C400207CB505460E46002001
:1053900000900190E889022801D0052818D105F174
:1053A000100402281CD02088ADF800006088ADF8F9
:1053B000020020792CF09CFA01906888A0F5024147
:1053C0004E3906D0B0686A46294643683046984749
:1053D0007CBDB0686A4629460368304698477CBD64
:1053E0002088ADF80000ADF80200E6E70648016845
:1053F00041F001010160064804490160054941602E
:105400000549816070470000C82E0020A1B9200026
:105410006CC8002001B8200005B320002DE9F05F22
:105420009A46DDE90F53DDE90D7990460C460646B4
:10543000002217495C20DDF82CB0FEF512FA00F1CD
:10544000200181E8E00580F857900A99818680F86C
:1054500058B0002180F85910C1F10D0222444318C0
:1054600012F8012C491C83F839200D29F4DB90F83F
:1054700059100C9A21F00101114321F00C0141F067
:10548000120180F85910BDE8F05F00F003B8000089
:10549000A55520002DE9FC41044690F8590004F17F
:1054A0003707810761D5C2064FF000012DD584F87A
:1054B000461094F8570000B1012041EA801084F8AA
:1054C000460094F858006FF03802801E00EBD07050
:1054D000411012EAC10F05D04110CE232EA2382070
:1054E000FEF5B6FE94F8580094F84610801E00EBC6
:1054F000D07021F03801401041EAC00020F00700D0
:10550000401C84F84600A18E3AE004F147074007AA
:1055100039D594F836004FF0100605014FF0020817
:1055200006D0AD1E2D042D0C4FF0000801D00CE06C
:105530000E2694F85700009140BAADF804000223FB
:1055400001AA3946384600F0F4F894F85700401B99
:10555000B04200DAC6B2CDF80080A06A39464219DE
:105560003346084600F0E5F80DE0C00601D50020FE
:1055700002E094F83600401CC1B2012084F84600D5
:10558000384603F6FFFC616A02B03A462046BDE8A1
:10559000F041FEF527BE00006165735F63636D2E09
:1055A000630000002DE9F84F0D46044690F85910AD
:1055B0004FF0000A8807574604F147063AD51022F3
:1055C00029463046FDF7B1F894F85900C1060DD5CB
:1055D00020F0100084F8590094F85710B1B140F051
:1055E000040084F8590084F836709CE0410794F870
:1055F000361010D5491CC9B284F8361094F85720DB
:105600006FF0010303EB01118A4212DA20F0060069
:1056100040F00800E5E720F0020084F85900A28E6F
:1056200009018A427FD820F0080040F0100084F879
:10563000590078E0C8063BD50022C80715D0A18ED6
:10564000206B461800200BE0C0F110010B19294413
:1056500093F8463011F8011C4B403354401CC0B243
:1056600094F858108142EFD81AE0A18EE06A94F8BD
:1056700058304618002011E0C0F1100101EB050C74
:105680002144375C1CF801CC91F8461087EA0C07DE
:105690008F4201D0012203E0401CC0B28342EBD80C
:1056A000236A13B11046A16998474FF0010A3DE003
:1056B00094F83600A28E000100F110039A4201D244
:1056C000121A00E0102202F0FF0BE26A02EB00095E
:1056D000226B02EB0008C8070DD05B464A463146F4
:1056E0003046009700F025F85B462A46494640467A
:1056F00000F032F80CE05B462A464946404600F08E
:105700002BF831465B4642460846009700F011F8F8
:1057100094F8590040F0020084F8590094F83600DB
:10572000401C84F836002046FFF7B4FE5046BDE822
:10573000F88FF0B5059CC4F10F04E6B2002408E030
:10574000351B12F804C04F5D641C87EA0C074755EF
:1057500064B29C42F4DBF0BD70B5002409E0C4F1F2
:10576000100616440D5D16F8016C75400555641C55
:1057700064B29C42F3DB70BD2DE9F0411D469046BA
:10578000DDE906230F4606460D498020FEF569F83F
:10579000044680F83C50202239463D30FCF7C5FFD6
:1057A0002022314604F15D00FCF7BFFF04F13C020A
:1057B00041462046BDE8F0414123FEF5D7B900003F
:1057C000C5572000FEF532B92DE9F0471D46DDE949
:1057D000097392468946064600221F49A820DDF833
:1057E0002080FEF53EF8002180F8A510C76304462E
:1057F00080F85010012084F85100D8F80010C4F847
:105800005210B8F80410A4F8561098F8060084F85E
:1058100058002868C4F85900A888A4F85D00A87941
:1058200084F85F001022514604F16000FCF77DFF10
:105830001022494604F17000FCF777FF0748324612
:1058400006490068C4F880002046BDE8F0472023E0
:10585000091DFEF58BB9000061582000AE902300B1
:105860002DE9F0478A4604460027FEF5DFF850B3DD
:1058700094F8A5004FF0010904F1500804F1400626
:1058800030B104F1850501280DD0022828D11BE094
:10589000102251463046FCF748FF002084F884006F
:1058A00084F8A59009E0102251462846FCF73DFFF8
:1058B00084F88490022084F8A500352342463146BE
:1058C0002046FEF553F90BE01022514604F19500F5
:1058D000FCF72BFFE36B29460020A26998470127BC
:1058E0003846BDE8F08700002DE9F05F9B46924600
:1058F0000546DDE90D230AA8894690E8C0011C4948
:105900008020FDF5AEFF0446102249466D30FCF7BD
:105910000CFF1022514604F15D00FCF706FF102237
:10592000594604F14D00FCF700FF3088A4F84A0006
:10593000B07884F84C003968C4F84310B988A4F8EA
:105940004710B87984F84900D8F80000E063B8F847
:105950000400A4F8400098F8060084F8420004F11E
:105960003C0229462046BDE8F05F4123FEF5FEB823
:1059700075592000FEF55AB82DE9F0411F469046B2
:10598000DDE906230E4605460F498C20FDF569FF2B
:105990000446202229466C30FCF7C7FE20223146FF
:1059A00004F14C00FCF7C1FE04F13C001022394622
:1059B0000546FCF7BAFE2A4641462046BDE8F041BE
:1059C0005023FEF5D3B80000CD592000FEF52EB8C7
:1059D00001482FF0CDB90000F82A00200EB50029AB
:1059E00010D001291BD002290BD1007B12A1E32288
:1059F000CDE9002102901C4B1CA222A1022000F044
:105A0000DFFC0EBD007B21A1DD22CDE9002102904B
:105A1000154B16A21BA1022000F0D2FC0EBD007B8C
:105A200026A1E022CDE9002102900F4B0FA215A183
:105A3000022000F0C5FC0EBD434C49454E545B2589
:105A4000645D202D2D2041636B6E6F776C656467FC
:105A50006564207472616E736665722063616E6343
:105A6000656C6C65642E0000178923002E2E5C5334
:105A700072635C757365725C757365725F6170707B
:105A80002E6300004E4F5F5441470000434C494590
:105A90004E545B25645D202D2D2041636B6E6F7726
:105AA0006C6564676564207472616E7366657220EC
:105AB000737563636573732E00000000434C4945A2
:105AC0004E545B25645D202D2D2041636B6E6F77F6
:105AD0006C6564676564207472616E7366657220BC
:105AE00074696D656F75742E000000000EB5002995
:105AF00011D001291DD002290CD1007B14A140F244
:105B00000B12CDE9002102901D4B1EA223A1022001
:105B100000F056FC0EBD007B22A140F20512CDE93B
:105B200000210290164B17A21CA1022000F048FC95
:105B30000EBD007B27A14FF48472CDE900210290B5
:105B40000F4B10A215A1022000F03AFC0EBD000080
:105B5000434C49454E545B25645D202D2D20416307
:105B60006B6E6F776C6564676564207472616E73C9
:105B70006665722063616E63656C6C65642E0000FF
:105B8000658923002E2E5C5372635C757365725CAD
:105B9000757365725F6170702E6300004E4F5F54C5
:105BA00041470000434C49454E545B25645D202D20
:105BB0002D2041636B6E6F776C656467656420743C
:105BC00072616E7366657220737563636573732E9D
:105BD00000000000434C49454E545B25645D202D78
:105BE0002D2041636B6E6F776C656467656420740C
:105BF00072616E736665722074696D656F75742E5F
:105C000000000000002804D0032902D34FF4C37021
:105C10007047FF23037042F2107343608260017388
:105C20000AF0E2BC10B588B05468B2F90030C988F7
:105C3000007B002C12D0B2F90220CDE90524CDE979
:105C400003130D49C922CDE9002102900B4B0CA290
:105C500011A1022000F0B4FB08B010BD02AC10A2EC
:105C60000BC4CE2001920090044B05A20AA1022091
:105C700000F0A6FBF0E700003CB72300F488230007
:105C80002E2E5C5372635C757365725C75736572FE
:105C90005F6170702E6300004E4F5F5441470000FB
:105CA000434C49454E545B25645D202D2D204C65A9
:105CB00076656C207365727665723A20307825308F
:105CC00034782C2050726573656E74204C6576654F
:105CD0006C3A20256400000070B586B004460D467D
:105CE000164611A00190CDE902543720009004958A
:105CF0001A4B1BA223A1022000F062FB0CB1022D63
:105D000003D306B04FF4C37070BDFF20207042F281
:105D100010706060A660257306B029462046BDE875
:105D200070400AF0F1BF0000434C49454E545B25DA
:105D3000645D202D2D206F6E6F666620636C696533
:105D40006E743A203078253034782C20656C656D7F
:105D5000656E74206964783A20256400918A230076
:105D60002E2E5C2E2E5C636F6D6D6F6E5C73726396
:105D70005C6170705F6F6E6F66665F636C69656EA5
:105D8000742E63004E4F5F544147000010B588B039
:105D900054681378C988007B002C11D05278CDE963
:105DA0000524CDE903130D49F022CDE9002102902D
:105DB0000B4B0CA211A1022000F002FB08B010BD99
:105DC00002AC10A20BC4F52001920090044B05A276
:105DD0000AA1022000F0F4FAF0E7000060B6230008
:105DE000428923002E2E5C5372635C757365725C6E
:105DF000757365725F6170702E6300004E4F5F5463
:105E000041470000434C49454E545B25645D202DBD
:105E10002D204F6E4F6666207365727665723A204C
:105E20003078253034782C2050726573656E74207C
:105E30004F6E4F66663A20256400000030B597B07B
:105E400005460C461C22414910A8FCF7B3FC1C2255
:105E50003E491C3109A8FCF7ADFC20223B493831F2
:105E600001A8FCF7A7FC94B1394906202EF084FE66
:105E7000384915202EF080FE34496C39A1F12C02EE
:105E8000052D60D2DFE805F0060606213900E52081
:105E900017B030BD207931F810001190607932F8D8
:105EA00010001290A0791390206810902748843831
:105EB00050F8350021880904090C04D018B110A944
:105EC0000BF037FD38E0E420E2E7207901EB4000F9
:105ED000808A0A90607902EB4000C0880B90A0791C
:105EE0000C9020680990207810F0FF0F03D009A8CB
:105EF0000BF0A8F920E0E420CAE72079031F042B67
:105F000001D8E720C4E7022818D0012002902079A8
:105F100001EB4000008D0390607902EB4000808926
:105F20000490A0790590206801902088800508D011
:105F300001A900200BF02CFD0020A9E7022002900F
:105F4000E5E7E420A4E7E620A2E700007C7F230049
:105F5000211E10001D1E100010B588B05468138853
:105F6000C988007B002C12D05288CDE90524CDE9E8
:105F700003130E4940F21912CDE9002102900C4B97
:105F80000CA212A1022000F01BFA08B010BD02AC56
:105F9000104A0BC44FF48F7001920090044B05A27D
:105FA0000AA1022000F00CFAEFE70000C0B62300BF
:105FB000908923002E2E5C5372635C757365725C4E
:105FC000757365725F6170702E6300004E4F5F5491
:105FD0004147000054B52300002804D0022902D311
:105FE0004FF4C3707047FF23037042F21073436095
:105FF000826001730EF0F8BE0EB5002911D00129A0
:106000001DD002290CD1007B14A14FF4AD72CDE953
:10601000002102901D4B1EA223A1022000F0D0F906
:106020000EBD007B22A14FF4AA72CDE9002102909F
:10603000164B17A21CA1022000F0C2F90EBD007B76
:1060400027A140F25712CDE9002102900F4B10A278
:1060500015A1022000F0B4F90EBD0000434C4945E3
:106060004E545B25645D202D2D2041636B6E6F7750
:106070006C6564676564207472616E736665722016
:1060800063616E63656C6C65642E0000438A230057
:106090002E2E5C5372635C757365725C75736572EA
:1060A0005F6170702E6300004E4F5F5441470000E7
:1060B000434C49454E545B25645D202D2D204163A2
:1060C0006B6E6F776C6564676564207472616E7364
:1060D00066657220737563636573732E000000003C
:1060E000434C49454E545B25645D202D2D20416372
:1060F0006B6E6F776C6564676564207472616E7334
:106100006665722074696D656F75742E00000000FD
:1061100000B585B0007B1288C98808A3CDE901309D
:10612000CDE9031240F23D100090144B14A21AA1C5
:10613000022000F045F905B000BD0000434C494580
:106140004E545B25645D202D2D204C696768746E6C
:10615000657373207365727665723A2030782530E6
:1061600034782C204C696768746E657373204465BD
:106170006661756C743A202564000000FD89230077
:106180002E2E5C5372635C757365725C75736572F9
:106190005F6170702E6300004E4F5F5441470000F6
:1061A00000B585B0007B1288C98808A3CDE901300D
:1061B000CDE9031240F235100090134B13A219A140
:1061C000022000F0FDF805B000BD0000434C494539
:1061D0004E545B25645D202D2D204C696768746EDC
:1061E000657373207365727665723A203078253056
:1061F00034782C204C696768746E657373204C6129
:1062000073743A2025640000DA8923002E2E5C5333
:1062100072635C757365725C757365725F617070D3
:106220002E6300004E4F5F544147000010B588B008
:1062300054681388C988007B002C12D05288CDE99D
:106240000524CDE903130E494FF49472CDE90021E2
:1062500002900C4B0CA212A1022000F0B1F808B081
:1062600010BD02AC104A0BC440F22D1001920090F8
:10627000044B05A20AA1022000F0A2F8EFE70000FB
:106280009CB72300B58923002E2E5C5372635C7586
:106290007365725C757365725F6170702E63000068
:1062A0004E4F5F54414700009CB5230010B588B0A5
:1062B000938854881278C988CDE90543CDE9031243
:1062C000007B07494FF4A272CDE900210290054BF3
:1062D00005A20BA1022000F073F808B010BD000069
:1062E000E4B523001F8A23002E2E5C5372635C7575
:1062F0007365725C757365725F6170702E63000008
:106300004E4F5F544147000000B587B003208DF821
:1063100000001D208DF8160001208DF817008DF863
:1063200018008DF81900044A0449684600F01CF86A
:10633000FFF74EFB07B000BD916A2000976A20006E
:10634000002806D0002904D0024AD269002A00D0D1
:1063500010477047F03200200248006A002800D041
:1063600000477047F032002070B50D4616460D4CC0
:1063700000280AD00178032911D80121A17601460D
:106380001A222046FCF7D1F905E00020A0761A2158
:106390000448FCF76BFAE5612662002070BD01201D
:1063A00070BD0000F0320020044A1044807D084295
:1063B00001D001207047002070470000F03200201B
:1063C0002DE9FE4F0746924699460024A046CDF897
:1063D0000480CDF8088059480178B94202D2807E05
:1063E00000287DD10EAD0095EFF311860220FEF757
:1063F00070FB8346FEF710FC401C012181400BEB33
:106400000100C0B280F3118801213846FFF7CCFFAC
:1064100038B14B484B4950F82720204600F0A4F8EB
:1064200004461C213846FFF7BFFF00285ED046A275
:106430004449204600F098F8204484B204213846AC
:10644000FFF7B2FFF8B152463E49204600F08CF803
:10645000204484B208213846FFF7A6FF38B13BA29A
:106460003849204600F080F8204484B20BE0102127
:106470003846FFF799FF30B135A23249204600F087
:1064800073F8204484B208213846FFF78DFF90B19D
:106490004A462C49204600F067F8204484B2102177
:1064A0003846FFF781FF30B12AA22649204600F086
:1064B0005BF8204484B210213846FFF775FF60B1C5
:1064C00026A2052101A80C9BFBF710FF01AA1D497C
:1064D000204600F049F8204484B221A2194900E086
:1064E00029E0204600F040F8204484B21548C4F565
:1064F000807120442B460D9AFBF7BCFECDF800803E
:106500004FF48071002804DB2044884201DC85B20E
:1065100000E00D46A81C884200D9FE2511A20949B9
:10652000284600F021F8284481B20648FFF708FF0A
:10653000F0B280F31188BDE8FE8F0000F032002039
:10654000E42A0020F0310020280000002000000094
:106550003A000000204C696E653A0000256C64002A
:10656000292000000D0A000030B505460020002952
:106570000CD0002A0AD006E02B18FF2B06D8CC54EA
:10658000521C401C80B21478002CF5D130BD0000A4
:1065900070B50024114D124A05EB04102146FFF797
:1065A0009BFB002819D10D480D4A203800EB041040
:1065B00008322146FFF726FB00280ED10748084A7B
:1065C000203000EB041010322146FFF705FD0028B3
:1065D00003D1641CE4B2022CDDD370BD00BF0020E7
:1065E000CC88230010B5074A06214CF201002BF09D
:1065F00035FCFFF789FE2FF0C7FFBDE810400020F3
:1066000028F6E6B99688230010B5084801780029D5
:106610000AD101210170064828F644F9BDE810406E
:106620000021044828F640BA10BD0000CC2A002002
:106630002D1E1000052523002DE9F04104460D46CE
:106640001746002D04D0012D02D00120BDE8F081B5
:10665000E4B1DFB1607801281AD0EFF3118602208F
:10666000FEF729FA8046FEF7CFFA401C012181404F
:1066700008EB0100C0B280F3118800206070A570A3
:10668000E761F0B280F311880020DFE70120DDE749
:106690000620DBE710B50446002C0CD0204600F0A5
:1066A000B3F9FF2060700021A160E16021616161A8
:1066B0000020E06110BD012010BDF0B5DDE9074507
:1066C000059981614FF47A76A2FB061C03FB06C391
:1066D000002702FB0732C0E9021209196A41C0E92A
:1066E000041200210162F0BD2DE9F0410446002CA6
:1066F00013D0EFF311850220FEF7DDF90746FEF710
:1067000083FA401C012606FA00F03844C0B280F338
:1067100011881248002121620EE00020BDE8F081BE
:10672000D4E90432D1E9047CDB1B72EB0C0202D207
:10673000016A216203E00846016A0029F0D104627F
:106740006670064810380168491C0160016B4160A1
:10675000E8B280F311880120E0E7000090310020CA
:106760002DE9F04105460024EFF311860220FEF7E3
:10677000A2F90746FEF748FA401C0121814078182B
:10678000C0B280F31188134A106BE8B115B102F161
:10679000100010E00446206A10631068401E10606C
:1067A0000CE0A94206D11168491E1160296A0162F4
:1067B0002C4603E00846016A0029F2D124B10020EA
:1067C00020626070106B5060F0B280F31188204638
:1067D000BDE8F081803100202DE9F041EFF3118711
:1067E0000220FEF768F90446FEF70EFA401C01216C
:1067F00081406018C0B280F31188114D002608E076
:106800002078012804D1E16909B1A0698847267080
:106810002D6A2C6A002CF3D1094D103D07E0E16987
:1068200009B1A06988472670206AA8632662AC6B0C
:10683000002CF4D1F8B280F311880120BDE8F0817A
:10684000903100202DE9F041EFF311870220FEF78F
:1068500032F90446FEF7D8F9401C012606FA00F08A
:106860002044C0B280F311881D4DA5F110082DE021
:10687000D4E90430D8E902125B1A60EB0200D8E9CF
:106880001021D21A814124D326702046FFF768FFD9
:10689000A078012806D01248283000212162016822
:1068A00061B10FE0D8E90220D4E902135118584130
:1068B000C4E904102046FFF717FF07E0046005E075
:1068C00001F1200001680029FAD104602C6A002C33
:1068D000CED1F8B280F311880120BDE8F08100002C
:1068E000903100202DE9FF5F82460E4693464FF01F
:1068F0000008BAF1000F20D0414886421DD8E6B109
:10690000EFF311870220FEF7D6F80446FEF77CF974
:10691000401C012181406018C0B280F311885046AC
:106920000CF038FE10B19AF8010040B1F8B280F3D3
:1069300011880F2004B0BDE8F09F0120FAE710F0A5
:1069400003FE04460D464FF47A7106FB01F0224621
:106950002B4600210CF008FDDFF8A890B0B1D9F863
:10696000040048B1D0E90410091B60EB0500C9E937
:10697000021010F063FE04E00021C9F80810C9F805
:106980000C104FF00108D9E9020106E0D9F8040023
:10699000D0E90421101B61EB0501CDE9020132466B
:1069A0000023CDF800B05046FFF787FE5046FFF7B2
:1069B0009BFE2DF0F5FF4FF0E024D4F800014FF4DA
:1069C000801510F4801F01D0012000E0002020B9C4
:1069D0001420FEF73CF8C4F80051B8F1000F0AD0BB
:1069E000D9F80400D0E90431D9E90202181A61EBA0
:1069F000020110F0DFFDF8B280F31188002099E762
:106A0000008AB907803100202DE9F04104460025B5
:106A1000002C39D0EFF311870220FEF74CF8064620
:106A2000FEF7F2F8401C012181407018C0B280F3DB
:106A300011886078012824D1144E7068A0420BD1CF
:106A400010F082FDD4E90432181A62EB0102C6E9A3
:106A5000020210F0F3FD01252046FFF781FE5DB133
:106A6000706848B1D0E90421D6E90203101A61EB3D
:106A7000030110F09FFD04E01DB9706808B910F023
:106A8000DDFDF8B280F31188BDE8F081803100208F
:106A9000002000F03FB80A460146002000F0C8B9C7
:106AA00070B504461A4D55F8240070302CF01DFEC8
:106AB00082B21646A2B155F8240090F801110129BE
:106AC0000ED0012180F80411802A0FD355F824003C
:106AD000802200F1800170302CF022FE80260CE034
:106AE00055F82410002081F8000170BD55F82400ED
:106AF00000F1800170302CF013FE55F8240032466E
:106B000000F18001001D0BF0EFFC0028EDD170BDFD
:106B1000D02A00202DE9F8430446534F57F82400AB
:106B2000061D022C7ED290F86C1000297AD0012923
:106B300078D190F80011012974D190F80111002941
:106B400070D1012180F80111002157F82400D0E90B
:106B500003231344027D02F00102D21D9D184268F6
:106B6000D36FC3F38003002BFAD090F80421A2B1B5
:106B70003E4A1368491C90F83B20102A06D08268D0
:106B8000B3FBF2F26A43B1EBC21FF3D957F824000A
:106B900070302CF0AAFD85B226E0B0F82480C58CB8
:106BA000001D0BF0EFF957F8240041F2883300EB99
:106BB0000801491B8031001D2A460BF04AFCE5E71D
:106BC00057F824000122703069462CF0A9FD57F8CF
:106BD00024004068C16FC1F340010029FAD09DF83C
:106BE000001001606D1EADB2002DE9D157F82400F0
:106BF00070302CF07AFD0028C8D130684169490610
:106C0000FCD5EFF31085012080F3108857F824009D
:106C100070302CF06AFD78B1EFF31081012080F321
:106C2000108800E015E03068426842F0820242605D
:106C300089B1012080F3108857F82410002081F8D2
:106C4000000157F8241081F8010145B1012080F3BB
:106C50001088BDE8F883002080F31088ECE700205E
:106C600080F31088F5E70000D02A00205C000020A7
:106C70002DE9F04105460F46002D06D02AB12C78AB
:106C8000022C04D3E820BDE8F081E520FBE7304E7C
:106C900005F1580046F82400D2E900310A46703068
:106CA00019462CF007FD291D286D2FF025FC002822
:106CB000E9D156F82410281D486656F824000760CC
:106CC00056F824001822083005F14001FBF772FD48
:106CD000204856F8241000EBC4056868486056F850
:106CE0002400001D0BF0AEF956F82400001D0BF037
:106CF0004BFA18480122032110382BF03FFC56F8BC
:106D00002410012081F86C0056F82410002081F82E
:106D1000000156F8241081F8010156F8241081F87A
:106D2000020156F8241081F803010B490C202DF0C4
:106D300023FF0A490D202DF01FFF95F901000AF0ED
:106D400029FE95F901000AF032FE00209BE70000C1
:106D5000D02A0020E47F2300FD4920000D4A2000B6
:106D600070B5022801D3E82070BD134C54F82030D0
:106D70004BB193F86C5035B139B132B193F803513E
:106D8000012D04D010E0E52070BDE42070BD002589
:106D900083F8035154F820305B680225C3F888500B
:106DA00054F820305B681B6854F82000001D0BF07D
:106DB000AFFA0028EAD170BDD02A00202DE9F041B9
:106DC00004461A4D55F8240070302CF08EFC82B227
:106DD000164600277AB155F8240090F801110129D0
:106DE00009D0802A0ED300F18001703080222CF06F
:106DF00097FC80260BE055F8240080F800710020F5
:106E0000BDE8F08100F1800170302CF089FC55F86C
:106E1000240080F8047155F82400324600F1800106
:106E2000001D0BF0C7FB0028EAD1E9E7D02A0020BB
:106E300070B50446022C01D3E82070BD184D55F8FA
:106E4000240090B190F86C307BB181B17AB100260A
:106E500080F8026155F8240070302CF0ADFC55F834
:106E6000240090F8001121B10AE0E52070BDE42073
:106E700070BD90F8011119B990F86C10012901D07A
:106E8000E22070BD012180F800112046FFF796FF37
:106E900020B155F8241081F8006170BD002070BD4C
:106EA000D02A00202DE9F84F2A4D804692460E4602
:106EB00001F10804A8F58041274A6868B1F5804FC0
:106EC00001D25168401A844202D90520BDE8F88FEA
:106ED00028681369411E9268C1F30B01411A9A1A7E
:106EE00001F6FF716B7AC1F30731C91A02EBC101D8
:106EF000081A001F844225D9184F0024009411233A
:106F00001E224FF40049D7F800C049460120E0474F
:106F10000021084609F02EFA40B1009413231E22E6
:106F20003C6849460120A0470A20CFE7687A0CF068
:106F300061F90028CAD1009412231E223C684946F8
:106F40000120A047524631464046BDE8F84F2FF099
:106F500099BE000064C20020E42C0020E001002063
:106F6000FEB50C4606460A79002101208DE807008F
:106F7000164D03230D2240212D680020A84760787C
:106F80000125162811D10121304609F6E7FE60B12E
:106F9000407850B10E49207951F8261081F8480008
:106FA0000021304600F036FC002560780C2805D121
:106FB0002079072802D1304600F052FC25B1227911
:106FC000012130460AF682F90020FEBDE0010020D2
:106FD000CC19002070B50D46044608F6B5F869884E
:106FE000884200D2014620460AF65EFA0121204678
:106FF00009F678FE012801D0412200E0002201219B
:1070000020460AF663F9002070BD000038B504463A
:10701000134D0020009002230D222D684021A84727
:107020000121204609F65EFE0C2803D00E2814D05C
:1070300041220CE00121204609F690FE4189008999
:1070400081420AD0074850F8240090F848200121D6
:1070500020460AF63BF9002038BD0022F7E7000081
:10706000E0010020CC1900202DE9F0470F468146B1
:10707000012109F637FE032801D0402242E0012118
:10708000484609F66BFE4FF6FF7A05460026D046C5
:1070900024E00121484609F699FE6B780146052255
:1070A00002EB092240F604409B1D10F6E3FE044665
:1070B000B819B61C80882080B0B23918801C898825
:1070C000618086B26878207188466A7805F1080187
:1070D000601DFBF72AFB204610F618FF7888B042A7
:1070E000D7D8E98808F1010080B2514500D3514654
:1070F000814206D328B1A880012148460AF69CF8AF
:1071000004E00A22012148460AF6E0F80020BDE822
:10711000F0872DE9F0470F468246012109F6E2FD8E
:10712000072801D0402246E00121504609F616FE0C
:1071300081467878012803D010260025A84622E051
:107140000226FAE70121504609F640FE01460522D3
:1071500002EB0A22331D40F6074010F68BFE044670
:107160007819AD1CB0F80480ADB2A4F8008079198C
:10717000A6703246E01C091DFBF7D7FAA81985B2A4
:10718000204610F6C3FE7888A842DBD8B9F806106E
:1071900008F101004FF6FF7280B2914200D3114610
:1071A000814207D330B1A9F80400012150460AF604
:1071B00043F804E00A22012150460AF687F800202D
:1071C000BDE8F087084A52F82020126A08E0938848
:1071D0008B4204D8D3888B4201D310897047126840
:1071E000002AF4D103F630BDCC190020034802492F
:1071F00001600E21416070470C9A23007805002041
:1072000070B5164A0C4605461268498890470146F3
:10721000A088801D83B2052000EB052220781B2862
:1072200017D040F60D4010F625FE054620781B28A5
:1072300012D012202870A08868806088A880A28858
:10724000A11DA81DFBF771FA284610F65FFE00206D
:1072500070BD40F60C40E6E71120EBE7CC2F002094
:1072600070B50D460646012109F63CFD0C2806D0F6
:107270004122012130460AF629F8002070BD012183
:10728000304609F66BFD0446A888E188401A80B2B2
:10729000608104F10C010144EA8805F10800FBF764
:1072A000F9F928B96089E98808442189884201D917
:1072B0004FF6FF7060810121304609F6BDFFDCE723
:1072C0002DE9F35F0D4648884978B0FBF1F40121C0
:1072D000009809F607FD022869D1002C67D001212A
:1072E000009809F63BFD804600266878B1461428D0
:1072F00001D0022700E010274FF0000A4FF6FF7B75
:1073000030E00121009809F661FD01460098052250
:1073100002EB0022BB1D40F6044010F6ABFD044614
:10732000A819B61C81882180B1B26818891C82888E
:1073300062808EB29146A91927713A46601D091DD7
:10734000FBF7F3F9F01986B298F8013008F108025A
:107350003946601DFDF557FB08B14FF0010A204684
:1073600010F6D4FD6888B04204D9BAF1000F01D1FB
:10737000D945C6D109F1010080B2BAF1000F0ED192
:10738000B8F80610594500D35946814207D330B1A9
:10739000A8F804000121009809F64EFF04E000223D
:1073A0000121009809F692FF0020BDE8FC9F4122D0
:1073B000F6E700002DE9F34F81B000250C46A84602
:1073C00001210095019809F68DFC052201990428F8
:1073D00002EB012966D0052805D0062803D00A282B
:1073E00071D04022FEE00121019809F6B7FC074662
:1073F0006078072801D9102000E0022082464FF073
:10740000050B3DE06019B0F80480387805280AD0F3
:1074100005EB0B0020447B7807F108025146001D64
:10742000FDF5F1FA48B30121019809F6CFFC0146B8
:107430004A460AF1060340F6064010F61BFD0646D2
:10744000A0F80080AD1CA8B22118401C0979317148
:1074500080B22118801C8988718085B2611986F8F4
:1074600005A05246B01D091DFBF75FF905EB0A00A8
:1074700085B2304610F64AFD02E06078284485B2B5
:107480006088A842BED8F98808F101004FF6FF7263
:1074900080B2914200D31146814279D3002877D03F
:1074A000B8806FE00121019809F658FC8346A07866
:1074B0004FF0000A5646400701D0102731E04FF048
:1074C000010A02272DE065E00121019809F67EFC02
:1074D00001464A4607F1080340F6054010F6CAFC8B
:1074E00006466019AD1C81883180A9B26018891CDC
:1074F000828889B260187280891C8288B2808DB2BD
:10750000BAF1000F14D06119B7713A46F01D091D88
:10751000FBF70BF9E81985B2B6F80080304610F693
:10752000F5FC6088A842CFD8BAF1000F09D01AE064
:107530003D4A0198A6F10C0152F820000C3000F6EB
:107540002FFF86B1002000904B460A2204210198AB
:1075500011F6BCFC014670884880019800F042F9A1
:107560000020BDE8FE8FBBF8061008F101004FF6C1
:10757000FF7280B2914200D31146814208D330B1EC
:10758000ABF804000121019809F656FE2EE0FFE752
:107590000A2227E06078FF282AD0019809F65EFBCE
:1075A0006178801E884223DD0121019809F60EFCD6
:1075B000637801464A4640F609401B1D10F65AFC06
:1075C000A1880546018014F8010F611D801E82B25A
:1075D000AA8000206880A81DFBF7A7F8284610F6AF
:1075E00095FC00220121019809F670FE0098B8E789
:1075F000A4F108050121019809F6B0FBA18881805A
:107600006178891EC180002101816078A5F10C019B
:10761000801E68800448019A50F822000C3000F661
:10762000BFFE01200090ADE7CC1900202DE9F05FEE
:1076300089468346012109F655FB0B2801D04122DA
:1076400045E00121584609F689FB00258046AA46F7
:107650002E4631E00121584609F6B8FB08EB8607B3
:107660000146F8880522801D83B202EB0B2240F60A
:10767000094010F6FFFBB98804460180B9F8020002
:10768000F988401B814200D2084682B2A2800020C5
:10769000608009EB0501A01D091DFBF746F8A088D5
:1076A00041198DB2F988884201D04FF0500A204626
:1076B00010F62CFC761CF6B298F80100B042C9D83E
:1076C000B9F80200A84201D04FF0500A52460121F9
:1076D000584609F6FBFD0020BDE8F09F2DE9F04774
:1076E0000C4606464FF00008012109F6FBFADFF8C8
:1076F000F090042807D008282BD0092829D00A2880
:1077000027D0412259E00121304609F627FB0746E0
:1077100059F826000C3000F62BFE00F10C05102263
:10772000211DE81DFBF701F81020A871284610F66E
:10773000EDFB2888F988401C4FF6FF7280B2914219
:1077400000D31146814202D308B1B88041E00A2239
:1077500033E00121304609F601FB0546A11F002058
:1077600021F80E0959F826004F460C3000F618FE95
:10777000288920B16188814200D20846608057F88C
:10778000260062884FF00108C068C189114489B29F
:10779000C181B1F5006F01D911220EE0304609F622
:1077A0005DFA6188401E884203DC2889814209D342
:1077B00040B1304600F054F800220121304609F66D
:1077C00085FD0AE0EA881144E98010B16188401A19
:1077D00028810121304609F62FFD4046BDE8F0879B
:1077E000CC19002010B50C4609780246D2290CD0DD
:1077F00052290AD01E2908D0052000EB022147F2A9
:10780000305240F61D4010F651FE2046BDE81040B3
:1078100011F680BE38B504460020009005200D46C4
:1078200000EB042318220421204611F64FFB0146E9
:1078300045702046BDE83840FFF7D4BF38B5044650
:1078400000200090052000EB04231E220421204686
:1078500011F63CFB01462046BDE83840FFF7C2BFA9
:107860002DE9F05F374C814654F82900C0680028A4
:1078700066D00121484609F671FA824654F829007B
:10788000A3464FF00008C468012104F10C06E78903
:10789000484609F69BFA0146B81D83B2052202EB61
:1078A000092240F6094010F6E5FA8780BAF804107C
:1078B0000180BAF8061005464180307A092833D194
:1078C000727A06F10807A81DB91D921EFAF72DFF5E
:1078D0007878811E1FFA81F8216819B16988081A21
:1078E000801C68802468A6F10C0010F605FB04F1EA
:1078F0000C0619E006F1080705EB08007289391D2E
:10790000801DFAF712FF788800EB08011FFA81F852
:10791000216811B16988081A68802468A7F11400E9
:1079200004F10C0610F6E8FA002CE3D15BF829000C
:107930000C3000F625FC2846BDE8F05F10F6E6BAEC
:10794000BDE8F09FCC19002010B50446012109F6CE
:10795000C9F90C2801D0412200E000220121204673
:1079600009F6B4FC002010BD0249014808607047C8
:10797000797920003405002070B506460D461020A8
:10798000288029463046FDF595FB044624B9294652
:107990003046FDF59BFA0446074A298802A0126882
:1079A0009047204670BD000064625F73697A65206D
:1079B0003D2025640A000000E4010020F0B5AFB0CE
:1079C00000240D460646846219A82421FAF74EFFCA
:1079D000229403A824212394FAF748FF0C940EA8BC
:1079E000242231460D94FAF7E5FE706A1790B06ACA
:1079F000784E189024A824223146FAF7DBFE706AEC
:107A00002D90B06A2E90012021902290CDE90B405C
:107A1000B4E000230EAA1846264652F82010891911
:107A200046EB03077B084FEA310342F8203021F090
:107A30000103CB1A00F101000928EED3002052F80F
:107A4000201011B9401C0928F9DBC0F1090050626F
:107A50002198C00706D019A8FCF746FA1698C00767
:107A6000D7D044E0002319AA1846374652F8201010
:107A7000C91947EB030673084FEA310342F8203077
:107A800021F00103CB1A00F101000928EED30020F8
:107A900052F8201011B9401C0928F9DBC0F1090087
:107AA0005062DBE7002324AA1846264652F820102D
:107AB000891946EB03077B084FEA310342F820306F
:107AC00021F00103CB1A00F101000928EED30020B8
:107AD00052F8201011B9401C0928F9DBC0F1090047
