:020000040020DA
:10200000F0530120F121200041472000011E100063
:102010008D45200037402000C54920000000000009
:10202000000000000000000000000000151E10006D
:102030003D4020000000000043472000934920005D
:1020400000F002F800F0C4F80AA090E8000C824406
:102050008344AAF10107DA4501D100F0B9F8AFF2E3
:10206000090EBAE80F0013F0010F18BFFB1A43F076
:102070000103184794F60300D4F603000A444FF016
:10208000000C10F8013B13F0070408BF10F8014BD7
:102090001D1108BF10F8015B641E05D010F8016B1C
:1020A000641E01F8016BF9D113F0080F1EBF10F880
:1020B000014BAD1C0C1B09D16D1E58BF01F801CBA3
:1020C000FAD505E014F8016B01F8016B6D1EF9D526
:1020D0009142D6D370470000103A24BF78C878C127
:1020E000FAD8520724BF30C830C144BF04680C601E
:1020F000704700000023002400250026103A28BF66
:1021000078C1FBD8520728BF30C148BF0B60704769
:102110006E2900F05084702900F0CF8166293AF0D2
:10212000BD8765293AF0BA8767293AF0B7876129F0
:102130003AF0B68703681B0A28BF41F0800169297D
:1021400000F04081642900F03D81752900F03A815A
:102150006F2900F05085782900F09B81E92900F073
:10216000EB84E42900F0E884F52900F0E584EF2908
:1021700000F04D85F82900F09A810368DB0928BF3B
:1021800041F08001632900F05A84732900F05F84D4
:10219000E32901F02381F32901F028810020704711
:1021A0001FB53AF048FF00F06CFA01F04FF9040057
:1021B000002000213AF0FAF8401C60600020002165
:1021C0003AF0DEF8E06000F079FB1FBD10B510BDFD
:1021D000DFF80CD0FFF7E4FF2DF07AFB01F0ECF90B
:1021E000F053012003B4FFF7F1FF03BC02F0F3FF4B
:1021F000014880470148004795492000EDF822003A
:1022000058585247010000003253000000202000BF
:10221000002020008BEB924700010000000000002E
:1022200000000000000000000000000000000000AE
:10223000000000000000000000000000000000009E
:102240000B49D1F800C04A685CF8043B1068184498
:1022500042F8040B8C4528BFA1F1DC0C8A4228BF50
:10226000A1F1DC02C1F800C04A6020F000407047D4
:10227000B0E300207CB51D4616460C00009001D04E
:102280002044401E074B7B442A4669460190304655
:1022900000F0ABFB05461CB10020694600F0B8FB1E
:1022A00028467CBD910700000FB4044910B503AA6D
:1022B000029800F0D1FB10BC5DF814FBF430002054
:1022C0000FB41CB5084B06AA7B44694600900598DC
:1022D00000F08BFB04460020694600F099FB204685
:1022E0001CBC5DF814FB0000450700000FB47CB572
:1022F0000C0009AA009001D02044401E084B7B44EA
:1023000069460190089800F070FB05461CB100205A
:10231000694600F07DFB28467CBC5DF814FB00009C
:102320001907000070B5044685690068C10601D52B
:10233000302600E02026C00707D070BDD4E9012177
:1023400030469047206A401C20626D1EF6D570BD55
:1023500070B5044685690078C00707D170BDD4E91F
:10236000012120209047206A401C20626D1EF6D576
:1023700070BD70B50C460546012A05D02878800648
:1023800000D5EA69002302E0012305E05B1C9342CB
:1023900002D2E05C0028F9D1A869E618C01AA86149
:1023A000286A184428622846FFF7BCFF04E0D5E9F4
:1023B000012114F8010B9047B442F8D32846FFF7E7
:1023C000C7FF70BD2DE9F04106460024106875294D
:1023D000314616A510D000F083FA002802DA4042F8
:1023E00013A507E031688A0701D512A502E0490765
:1023F00004D511A5012401E000F07BFA00210A2296
:1024000006F1240709E0B0FBF2FCB0FBF2F302FB9B
:102410001C00303078541846491C0028F3D123465C
:102420002A463046BDE8F04100F06CBA00000000DA
:102430002D0000002B00000020000000F0B40D462D
:102440000188090502D5214C7C4402E01F4C7C44E4
:102450000E34002100F1240608E002F00F071209F3
:10246000E75D42EA03721B097754491C52EA0307ED
:10247000F3D102780023120704D5702D06D009B1DC
:10248000022311342246F0BC00F03CBA0123103480
:10249000F8E770B504460D462146106800F029FAA9
:1024A000024629462046BDE870400023C6E7D21DFB
:1024B00022F00703D3E90023C0E70368126843F062
:1024C000200303600823C3610023B7E7D0D80300CB
:1024D0002DE9F05F894604464FF0000ADFF874B139
:1024E000FB44C0F820A02046E1688847002874D04B
:1024F000252806D0D4E901219047206A401C20629B
:10250000F1E700265F462046E16888472028054617
:1025100007DB312D05D2781910F8200C08B10643DD
:10252000F1E7B00701D526F00406C4F81CA0002787
:10253000C4F818A02A2D09D0284602F045FE38B369
:1025400004EB8708303DC8F8185019E059F8041B0F
:10255000204604EB87029161E1688847012F054618
:1025600018D1E069002820DA26F020061DE0D8F80E
:10257000180000EB800005EB40003038C8F8180068
:102580002046E1688847054602F01EFE0028EED18D
:10259000012F0AD02E2D08D12046E16888477F1CE4
:1025A0000546022F46F02006C4DBA069002803DAA6
:1025B000404246F00106A061F00701D026F0100667
:1025C0006C2D0BD0682D09D04C2D39D06A2D35D00B
:1025D000742D35D07A2D33D016E038E0E1682F46DF
:1025E00020468847B842054609D16C2F26D04FF4C3
:1025F0008060E168064320468847054604E06C2F6A
:102600001AD04FF4807006430DB3A5F1410019288C
:1026100002D8203546F400664A4629462046266000
:102620004E46FFF775FD80B101280BD0F61D26F050
:10263000070000F1080956E74020E4E78020D8E7CA
:102640000020D6E706F104094DE7284652E7206A44
:10265000BDE8F09F60D803000B4910B5A1F17C02E2
:102660000A4CC2E93712372106E000EB104342F86A
:102670002130074B00FB03400B1EA1F10101F4DCEC
:1026800010BD0120E8E7000050E30020E119D66604
:10269000CD0D010040EA010310B59B070FD1042ABC
:1026A0000DD310C808C9121F9C42F8D020BA19BA1D
:1026B000884201D9012010BD4FF0FF3010BD1AB182
:1026C000D30703D0521C07E0002010BD10F8013BD7
:1026D00011F8014B1B1B07D110F8013B11F8014BFE
:1026E0001B1B01D1921EF1D1184610BD10B5431C21
:1026F00002E010F8011B71B18107FAD14FF00132ED
:1027000002C88C1A8C4314EAC211F9D0C01A0A0606
:1027100003D0C01E10BDC01A10BD0A0401D0801E17
:1027200010BD0902FCD0401E10BD032A40F23080CB
:1027300010F0030C00F0158011F8013BBCF1020F02
:10274000624498BF11F801CB00F8013B38BF11F883
:10275000013BA2F1040298BF00F801CB38BF00F89A
:10276000013B11F0030300F02580083AC0F0088017
:1027700051F8043B083A51F804CBA0E80810F5E7FB
:10278000121D5CBF51F8043B40F8043BAFF30080DE
:10279000D20724BF11F8013B11F801CB48BF11F853
:1027A000012B24BF00F8013B00F801CB48BF00F823
:1027B000012B704710B5203AC0F00B80B1E81850DB
:1027C000203AA0E81850B1E81850A0E81850BFF41B
:1027D000F5AF5FEA027C24BFB1E81850A0E81850BA
:1027E00044BF18C918C0BDE810405FEA827C24BF0E
:1027F00051F8043B40F8043B08BF7047D20728BF9C
:1028000031F8023B48BF11F8012B28BF20F8023BEA
:1028100048BF00F8012B704702F0FF0343EA032290
:1028200042EA024200F002B84FF000020429C0F070
:10283000128010F0030C00F01B80CCF1040CBCF1F2
:10284000020F18BF00F8012BA8BF20F8022BA1EB44
:102850000C0100F00DB85FEAC17C24BF00F8012B29
:1028600000F8012B48BF00F8012B70474FF0000221
:1028700000B5134694469646203922BFA0E80C5076
:10288000A0E80C50B1F12001BFF4F7AF090728BF51
:10289000A0E80C5048BF0CC05DF804EB890028BFCD
:1028A00040F8042B08BF704748BF20F8022B11F0F6
:1028B000804F18BF00F8012B7047000070B5064C20
:1028C0007C44064D7D4403E0206820448047241D5D
:1028D000AC42F9D170BD0000B0EF0300B0EF0300CF
:1028E00009684A0501D540B27047C905FCD500B258
:1028F000704709684A0501D5C0B27047C905FCD5C3
:1029000080B270472DE9F0470D469946924604463D
:1029100000F124080168880604D5E06921F010015F
:10292000216000E00120A84201DD471B00E00027F4
:10293000A1697A1902EB0900081AA0612078C00683
:1029400002D42046FFF7EEFC002608E0D4E901217E
:102950001AF806009047206A401C761C20624E45FB
:10296000F4DB2078C0060AD52046FFF7DBFC06E042
:10297000D4E9012130209047206A401C2062381E93
:10298000A7F10107F4DC07E0D4E9012118F80500FC
:102990009047206A401C2062281EA5F10105F3DC47
:1029A0002046FFF7D5FC2078000602D50220BDE8BE
:1029B000F0870120FBE711680268006A530501D522
:1029C00008700AE0D30501D5088006E0130603D598
:1029D000C217C1E9000200E0086001207047000052
:1029E00001694A1C02610878704700B58FB0CDE9D3
:1029F00001310021059105497944CDE903101146C3
:102A00006846FFF765FD0FB000BD0000E5FFFFFF62
:102A10000A6802F8010B0A607047D1E900239A4264
:102A200002D2531C0B601070704710B5436913B18C
:102A3000AFF3008001E0FFF79CFC012010BD12788D
:102A400000F124010A7000224A700122EDE71168AA
:102A50004FF0FF32E9E70000074B70B50D467B44AD
:102A6000FFF7C3FF0446284600F0C4FC10B14FF046
:102A7000FF3070BD204670BDAB9E00002DE9FF5FAA
:102A800015468A460446DFF8AC80F8440027D8E9AA
:102A900000103E46CDE9001010E03AF816106A46E4
:102AA00002A800F0ABFC411C07D02178890603D5B1
:102AB000E269391891420DD80744761C20788006C7
:102AC00002D5E069B84205DDAE42E6DB3AF8160011
:102AD0000028E2D1A069C01BA0612046FFF722FCBC
:102AE000D8E90010CDE90010002017E03AF81810DE
:102AF0006A4602A800F082FCB0F1FF3F81460BD08D
:102B000000250DF1080B05E0D4E901211BF80500B3
:102B100090476D1C4D45F7D308F10100B042804647
:102B2000E4DB206A384420622046FFF711FCBDE850
:102B3000FF9F0000CAD203002DE9F0418046D21D5C
:102B400022F007020025D2E90002F52915A614D0CB
:102B5000011E72F1000106DA0023D0EB030063EBE3
:102B6000020211A608E0D8F800108B0701D50FA6C5
:102B700002E0490701D50EA601251146002408F1FF
:102B8000240704E000F04EF830323A55641C50EA55
:102B90000102F7D12B46324621464046BDE8F041BE
:102BA000FFF7B0BE000000002D0000002B00000069
:102BB0002000000030B4002100F1240408E002F0FD
:102BC0000705D208303542EA4372DB086554491CD8
:102BD00052EA0305F3D10468002310A2250707D5A4
:102BE000A40600D421B1C46901230DA2641EC461EE
:102BF00030BCFFF787BE10B5044621461068FFF7CA
:102C000078FE02462046BDE810400023D2E7D21DE0
:102C100022F00701D1E90023CCE70000000000000A
:102C20003000000030B5B0F10A024FEA900E71F1A9
:102C300000034EEA817EB0EB0E0061EB91014FEA9A
:102C4000101E4EEA017E10EB0E0041EB11114FEA0F
:102C5000102E4EEA016E10EB0E0041EB11214FEAEF
:102C6000104E4EEA014E10EB0E0041EB11414018A0
:102C700041F100014FEAD00040EA41704FEAD10132
:102C800010EB80054FEA810444EA907444EB0104A0
:102C90006D1944EB0404521BA3414FF0000348BFDD
:102CA0000A3200D530BD401C41F1000130BD7047F3
:102CB0002DE9FF4F0C461E464FF0FF378BB0D2E98F
:102CC0000001DDF860800A908A46C1F30A5505B913
:102CD0003D46002108464FF00000BAF1000F00F415
:102CE000400005DA00EB80004FF4400101EA50009B
:102CF0004FEA9059B9F1010F00DDB9460A9850EA40
:102D00004A000ED044F61050A5F2FF3545432F146B
:102D1000B8F1000F1ED07542291E1EDDC9F1000258
:102D20001CE0B8F1010F4FF0000001D0302103E0AA
:102D3000F24305E02154401CB042FBDB3046002248
:102D4000002121540B99C1F80880C1E900200FB07F
:102D5000BDE8F08FBD1B6D1CDEE74A4600DA694214
:102D600006A800F0B7FB06AB93E8070003AB83E8C7
:102D7000070050460A9900F069FC8DE80700A0F5AD
:102D800000501F3800900398002D0ADD42F21F0109
:102D90004A460844002303A90390684600F0D2FE87
:102DA00009E0A0F500504A461F38002303A903900C
:102DB000684600F0DCFE8DE807000004000C03D03C
:102DC0004FF0FF30410800E01046B8F1000F03D08B
:102DD0000022009215461EE0751E05D4FFF722FF63
:102DE000303262556D1EF9D5B3460122084302D038
:102DF00000227F1C04E02078302801D100227F1EB1
:102E0000002A099784D01DE0112D07DAFFF70AFF89
:102E1000303262556D1C50EA0102F5D1084302D0F0
:102E20000098C8B10EE00021681E05E0235C625CDA
:102E300063542254401E491C8142F7DBAB46A81B59
:102E4000401E0990002004F80B000B98099AC0F866
:102E50000880C0E9002B7AE711264FF0000857E7F9
:102E60002DE9F04F88460446D21D22F0070191B0AB
:102E7000D1E90001CDE90A0101F0A5FD02460B9858
:102E8000C00F01D02D2007E02068810701D52B203D
:102E900002E0202101EAC000032A099001D0072A9C
:102EA00005DB03464146204600F0D4FA0BE12078CA
:102EB000800601D5E06900E00620B8F1650F814683
:102EC00006D0B8F1660F18D0B8F1670F70D131E0B5
:102ED0000020B9F1110F009001DB112301E009F18D
:102EE00001030AAA01A90CA8FFF7E2FEDDE90C70B4
:102EF000002609F10105834647E001204B4600907A
:102F00004FF000470AAA01A90CA8FFF7D1FEDDE99E
:102F10000DB00C995D46002610B909F101000D189D
:102F2000B9EB050003D4C0F1FF3609F10105A5EBAB
:102F300009002BE0B9F1010F01DA4FF0010900207F
:102F4000B9F1110F0090484601DD112300E003465E
:102F50000AAA01A90CA8FFF7ABFEDDE90C704D46EB
:102F600000268346207800070AD4AB4500DA5D4688
:102F700001A8012D04DD411911F8011C302907D0E9
:102F80004F4502DA17F1040F04DA012082460FE000
:102F90006D1EEEE7002F02DCED1B3E4403E0781CC3
:102FA000A84200DD7D1CB81B00F1010A4FF000476C
:102FB0002078000703D4AA4501DB4FF0FF3A002137
:102FC000B7F1004F0DF143088DF8431024D00220D3
:102FD0002B23002F01DA7F422D230A21021EA0F1AC
:102FE000010000DC5FB197FBF1FC97FBF1F201FB04
:102FF0001C7C17460CF1300C08F801CDEEE7A8F167
:10300000010003702188090501D5452100E06521F3
:10301000A0F1010800F8011C09980FA9A1EB08070D
:10302000FF1D00B10120411901EBEA70A16938448C
:10303000081A401EA0612078C00602D42046FFF77F
:1030400071F9099828B1D4E901219047206A401C00
:1030500020622078C00622D52046FFF763F91EE0E3
:10306000002E04DBB34502DD01A8805D00E03020C6
:10307000D4E901219047206A401C2062761CAAF105
:1030800001005FEA000A0AD100F0E0F9C0680168B7
:10309000405CD4E901219047206A401C2062281E30
:1030A000A5F10105DCDC07E0D4E9012118F8010BEA
:1030B0009047206A401C2062381EA7F10107F3DC0C
:1030C0002046FFF745F9032011B041E62DE9F04F06
:1030D00004460D46D21D22F0070089B0D0E90097C2
:1030E0004846394601F06FFC0246F80F01D02D2307
:1030F00007E02068810701D52B2302E0202101EAA7
:10310000C0038DF820300BB1012000E00020032A1D
:10311000824601D0072A04DB2946204600F09AF9AE
:103120003FE12078800601D40D2500E0E569C7F372
:103130000A560D2D49DA00214FEA175B08464FF079
:103140000000002F00F4400007DA00EB80004FF48D
:10315000400100EBD07001EA60008115012901DD1A
:103160004FF0FF3100224FEA850CBCF1180F06D357
:103170001346ACF118004FF08052C24003E04FF408
:10318000801323FA0CF30CF10C0CBCF1200F04D3C8
:10319000ACF1200C09FA0CF001E007FA0CF0002960
:1031A0004FF0004801DD18B90FE00ED140450CD3B7
:1031B00019EB02095F4121B9404502D19F4329EA39
:1031C0000209BBEB175F00D0761C2088000502D5F2
:1031D0007B48784402E07A487844193808AA3023BA
:1031E00002F80A30037C0AF10101002E0AF1020AFA
:1031F00053546A4602DC4FF0300101E04FF03101D8
:103200004FF001088DF8001002D0A6F2FF3603E05F
:1032100059EA470100D06B4E002D02DC21780907E6
:1032200004D54FF002082E218DF80110C44600216C
:103230000BE0C7F303433F01C35C491C6D1E02F85A
:103240000830052908F1010801DA002DF1DC002120
:103250000CE000EB1973491C1B786D1E082902F85D
:1032600008304FEA091908F1010801DA002DF0DCF5
:1032700021688B0602D516E0A8F10108E04505DDBE
:1032800002EB080313F8013C302BF5D0B8F1000F26
:1032900009DD02EB080313F8013C2E2B03D10907CB
:1032A00001D4A8F10108002D05DD3E2102F8081027
:1032B0006D1E08F10108407C002E02F8080008F19C
:1032C000010804DA2D20764202F8080002E02B20E3
:1032D00002F808000A214FF47A70864208F10108CA
:1032E0000BDB96FBF0F3303302F8083096FBF0F37B
:1032F00008F1010800FB136601E0642E0CDB64207A
:1033000096FBF0F3303302F8083096FBF0F308F147
:10331000010800FB136601E00A2E06DB96FBF1F0C4
:10332000303002F8080008F1010896FBF1F001FBCB
:103330001060303002F80800A16908F1010808EBBC
:10334000050202EB0A00081AA0612078C00602D428
:103350002046FEF7E7FF216A08AE01EB0A00206273
:1033600004E0D4E9012116F8010B9047BAF1010AF3
:10337000F7D22078C00602D52046FEF7D3FF6E466E
:1033800009E016F8010B3E280FD0D4E9012190473F
:10339000206A401C2062B8F10108F2D22046FEF7F4
:1033A000D7FF09B00320BDE8F08F206A28442062CF
:1033B00003E0D4E90121302090476D1EEBD3F8E7FC
:1033C0009DCB030002FCFFFF10B5436913B1AFF3BF
:1033D000008001E0FFF752FB012010BD128800F1D0
:1033E000240182840022C2840122EDE711684FF09B
:1033F000FF32E9E7007B00F08000704770B51646A9
:103400000C46054600F01AF8036893F801010128FC
:1034100006D0FF2C0FD8185D68B101202C7070BD4C
:10342000D3F807013246214603F207130344284626
:10343000BDE8704018474FF0FF3070BD10B500F088
:1034400005F8001D10BD00BF658F030000487047E0
:10345000D8E300202DE9F0411F4604460326016809
:10346000072A01F4006004DB08B116A505E016A5E3
:1034700003E008B115A500E015A521F010002060BB
:10348000A069C01EA0610FB1401EA0612046FEF7DA
:1034900049FF4FB1D4E9012138469047206A401CCA
:1034A0002062C01C206206E0206AFAE7D4E901210C
:1034B00015F8010B9047761EF8D22046FEF748FF1C
:1034C000BDE8F0814E414E006E616E00494E4600EF
:1034D000696E66002DE9F047814616468AB0354888
:1034E00078440DC88DE80D0032487844801C03AC48
:1034F0000DC884E80D0041F69B300844372190FB4D
:10350000F1F290FBF1F5A5F1800501FB12041B3CE3
:1035100002D56442012000E00020DFF898A0804638
:103520000027FA44AAF1BE0A0EE0E0070AD03246AC
:10353000684607EB470101230AEB810100F017FB06
:103540008DE8070064107F1C002CEED1194F7F44DA
:10355000AE3F19E0E80715D007EB04100DF1180A8B
:1035600090E80E008AE80E00C068F04201D1981978
:1035700008903246012306A903A800F0F8FA03AB2D
:1035800083E807006D10641C002DE3D14FF00103A8
:1035900032466946B8F1000F03A802D000F0D2FA13
:1035A00001E000F0E4FAC9E90001C9F808200AB016
:1035B000BDE8F08720C9030010B50446AFF30080D2
:1035C0002046BDE81040FEF70DBE00004FF0013C64
:1035D00050F8042B51F8043B9A4221D1A2EB0C0382
:1035E000934313EACC1317D150F8042B51F8043B42
:1035F0009A4215D1A2EB0C03934313EACC130BD1DF
:1036000050F8042B51F8043B9A4209D1A2EB0C0369
:10361000934313EACC13DBD04FF00000704700BF98
:10362000D01A01BAB1FA81F101F0180122FA01F0C1
:10363000CB40C1F12001DBB2C0B2C01A2CFA01F3B9
:10364000D11A914311EAC311E6D170475FEA400CE9
:1036500008BF91F0000F4FEA8C234FEAC12243EAE2
:1036600051514FEA1C5018BF00F5F0404FEA3000AE
:1036700018BF41F000415FEA6C5C00F02980BCF1AA
:10368000FF3F08BF40F080407047130C06BF120494
:103690004FF0100C4FF0000C130E04BF12020CF18F
:1036A000080C130F04BF12010CF1040C930F04BF9C
:1036B00092000CF1020CD30F04BF52000CF1010C6C
:1036C00011464FF00002A0F11F00A0EB0C00704764
:1036D00011F0004F08BF704731F000413FF4D5AF03
:1036E0000B0C06BF09044FF0100C4FF0000C0B0E32
:1036F00004BF09020CF1080C0B0F04BF09010CF107
:10370000040C8B0F04BF89000CF1020CCB0F04BF1B
:1037100049000CF1010CCCF12003A0EB0C0022FAC3
:1037200003F302FA0CF241EA030100F101007047D1
:1037300020F07F4C80EA030023F07F47ACEB0703C7
:1037400003F57C5300F0004003F1FF032DE98049AD
:103750004FEA154B09B44FEA144325EA0B4E24EA0D
:1037600003480FF2042606EB132749083E785FEA68
:10377000320203FB0667C7F5000707FB06F64FEAB0
:1037800054374FEAD64606F1020607FB066CCCF129
:10379000005C4FEA1C472CEA074C07FB06F40CFBC5
:1037A00006F504EB15464FEA961634BF00204FF09D
:1037B00000404FEAD13706FB07FC4FEA1C4C0CFBDC
:1037C0000BF7D21B03FB0CF761EB07010CFB0EF7A9
:1037D000B0EB074072EB17420CFB08F734BFA2EBCB
:1037E0000742B2EB074261EB17414FEA0C444FEA44
:1037F000910706FB07FC4FEA1C4C0CFB0BF7B0EBE8
:10380000C74072EB573203FB0CF734BFA2EBC74241
:10381000B2EBC74261EB57310CFB0EF7B0EBC700C0
:1038200072EB57720CFB08F734BFA2EBC702B2EB86
:10383000C70261EB5771039F4FEA816141EA921120
:1038400004EBCC044FEAD1374FEA826206FB07FC57
:1038500042EA90124FEA80604FEA1C4C0CFB0BF7D7
:10386000D21B03FB0CF761EB07010CFB0EF7B0EB6F
:10387000074072EB17420CFB08F734BFA2EB07427C
:10388000B2EB074261EB17414FEA8C554FEA9107C3
:1038900004EB9C2406FB07FC4FEA1C4C0CFB0BF7CB
:1038A000B0EBC74072EB573203FB0CF734BFA2EB0F
:1038B000C742B2EBC74261EB57310CFB0EF7B0EBDE
:1038C000C70072EB57720CFB08F734BFA2EBC702BC
:1038D000B2EBC70261EB577115EB4C254FEA8161E2
:1038E00041EA92114FEA82624FEAD13742EA9012DE
:1038F00006FB07FC44F100044FEA80604FEA1C4CD1
:103900000CFB0BF7D21B03FB0CF761EB07010CFB65
:103910000EF7B0EB074072EB17420CFB08F734BF11
:10392000A2EB0742B2EB074261EB174115EB1C1506
:103930004FEA813141EA92414FEA823242EA9042B3
:103940004FEA80304FEA0C7644F1000448EA034322
:103950004EEA0B484FF0000EB2EB080C71EB030778
:1039600024BF624639464EEB0E0E4FF0000B001896
:10397000524149414BEB0B0BB2EB080C71EB0307C7
:103980007BF1000B24BF624639464EEB0E0E4FF022
:10399000000B0018524149414BEB0B0BB2EB080CEA
:1039A00071EB03077BF1000B24BF624639464EEBF7
:1039B0000E0E51EA020718BF46F0010616EB0E760E
:1039C00055F1000254F1000103D5BDE88901BDE8BD
:1039D0000088BDE88901BDE80048B619524141EBB5
:1039E0000101A3F10103704780807F7E7D7C7B7A9B
:1039F0007978777676757473727171706F6E6E6D9B
:103A00006C6C6B6A6A696868676666656464636340
:103A100062616160605F5F5E5E5D5D5C5C5B5B5AC6
:103A20005A59595858575756565555555454535333
:103A300052525251515050504F4F4F4E4E4D4D4D8E
:103A40004C4C4C4B4B4B4A4A4A49494948484847D9
:103A50004747474646464545454444444443434317
:103A60004342424242414141002B9C4630D47700C0
:103A70002BD01CB54FEA370703B44FF010004FF0BE
:103A80001001BAF1000F06D0BCF1000FDCBF40F00E
:103A9000080040F008014FF000000FBCBDE81040E6
:103AA0000BF1010BBBF1010F08BF5FEA170722BF43
:103AB00012F1010211F101014FF0004143F1000345
:103AC00000F0004043EA00007047F9D35708D0E700
:103AD00046EA064613F1400F4FEA16461FDD13F182
:103AE000200FDFBF16430A46002120335B42BED0C1
:103AF000C3F1200746EA064602FA07F74FEA1646E0
:103B000046EA0706C3F1200722FA03F201FA07F793
:103B100021FA03F14FF0000342EA0702A7E746EA61
:103B2000020646EA06464FEA164646EA0106BCBFCA
:103B300046EA0646360C4FF000034FF000024FF005
:103B4000000194E72DE9804C9A46934670B491E8C1
:103B5000380007C831EA400C48BF34EA430C03D5AB
:103B6000FFF7E6FDFFF780FFF0BCBDE8008C2DE914
:103B7000804C9A46934670B491E8380007C810F01C
:103B8000804F08BF13F0804F03D100F005F8FFF716
:103B90006BFFF0BCBDE8008C20F07F4780EA03009B
:103BA00023F07F4C07EB0C03A3F57C5300F000409F
:103BB000A3F1FE0392F0000F00F0B38095F0000F28
:103BC00000F077802DE901494FEA11404FEA144691
:103BD00021EA004800FB06FC24EA064708FB06F63B
:103BE00007FB08F800FB07F718EB06484CEB164CF0
:103BF0004FEA124B18EB07484FEA15464CEB1740BB
:103C000022EA0B4E0BFB06FC25EA06470EFB06F6E6
:103C100007FB0EFE0BFB07F71EEB064E4CEB164C9C
:103C20004FF000061EEB074E4CEB174B18EB0B0842
:103C300040F1000018EB0E0B58EB000840F10000BB
:103C40008F1A4FF000013CBFC943661B14BFB5EB90
:103C5000040C00213CBFC943F61B4FEA17444EEA4F
:103C60008E0E27EA04454FEA1C4704FB07622CEA44
:103C7000074C05FB07F70CFB05F604FB0CFC16EBE9
:103C8000074642EB174216EB0C4642EB1C421BEB7D
:103C9000060658EB0202414146EA9E0601D5BDE800
:103CA0000189B619524141EB0101A3F10103BDE8BD
:103CB00001894FEA14454FEA114724EA054621EAF3
:103CC000074C05FB07F406FB07F70CFB06F105FBA9
:103CD0000CFC11EB074144EB17444FEA124711EB80
:103CE0000C4144EB1C4422EA074C05FB07F206FB9F
:103CF00007F70CFB06F605FB0CFC16EB074642EB40
:103D0000174216EB0C4642EB1C456A1854F10001B1
:103D100048BF7047B619524141EB0101A3F10103BD
:103D2000704795F0000F37D04FEA11424FEA144721
:103D300021EA024624EA074C02FB07F106FB07F7DB
:103D40000CFB06F402FB0CFC14EB074441EB17419F
:103D50004FEA154714EB0C4441EB1C4125EA074C94
:103D600002FB07F506FB07F70CFB06F602FB0CFC53
:103D700016EB074645EB174516EB0C4645EB1C4288
:103D8000121951F1000148BF7047B619524141EB79
:103D90000101A3F1010370474FEA14454FEA1147AF
:103DA00024EA054621EA074C05FB07F106FB07F765
:103DB0000CFB06F24FF0000605FB0CFC12EB074271
:103DC00041EB174112EB0C4251EB1C4148BF7047CD
:103DD000921841EB0101A3F101037047F0B50025F2
:103DE00008222B4650F8227051F82260BE1943EB8E
:103DF000030476195C4104F001041C4301D0012541
:103E000000E0002540F822600446521EEAD5002159
:103E100050F8212012B9491C0929F9DBC1F1090127
:103E20006162F0BDF0B500240823254650F82360F8
:103E300051F82370F61945EB050736196F4107F065
:103E400001042C4301D0012400E0002442F8236047
:103E50005B1EEBD5002052F8201011B9401C092838
:103E6000F9DBC0F10901C2E90915F0BD10B514462E
:103E7000FFF7D8FFA06A20B12046BDE8104000F04F
:103E80001DB80D4B606A596A88420ED813D3C0F131
:103E9000090108E053F8212054F8210082420AD891
:103EA00003D301F101010929F4D32046BDE81040F4
:103EB000014900F0E9BC10BDF0E8230010B58CB05A
:103EC000044601466A46074800F03EFC6946242243
:103ED0002046FEF76FFC099860620020A0620CB0DB
:103EE00010BD0000F0E823002DE9F0410446DFF8A2
:103EF00008C1806A8CB04FF0000848B16246606A21
:103F0000536A2146984250D827D3C0F1090022E0D5
:103F10004FF000014FF00800424654F820505CF882
:103F20002030ED1842EB02036D18534103F00101FC
:103F3000114301D0012100E0002144F82050401E2F
:103F4000EBD518E052F8203051F82050AB4204D89D
:103F50002BD300F101000928F4D36A46264800F06B
:103F6000F3FB6946254624222046FEF723FC0998E8
:103F70006862C4F8288000221046454654F8201094
:103F8000491945EB02035A084FEA310244F8202050
:103F900021F001028A1A00F1010023460928EDD31D
:103FA000002054F8201001BB1CE0002308224146E9
:103FB0005CF8225054F82200EE1841EB0107861BF2
:103FC00071EB07062B4406D2C01A001C44F82200ED
:103FD0004FF0010303E0C31A44F822300023521EBD
:103FE000E6D5C8E7401C0928DBDBC0F109005862B0
:103FF0000CB0BDE8F0810000F0E8230010B51220FD
:1040000000F006FD08F052FC04490446896A88471E
:104010002046BDE8104008F00BBC00002033002013
:1040200010B503F6F5F810B106F0E4FE10BDBDE8DA
:1040300010402AF6DBBBFEE707F02CB9FEE70000D4
:104040002DE9F04FADF5317D814600F12C0B583054
:104050008890859001F12C008490CDE989012C3065
:104060000E4687908690154624211046FEF7FEFBEB
:10407000002405F12C076C62B84624213846AC6256
:10408000FEF7F4FB7C62BC622C3724213846FEF735
:10409000EDFB7C6237A82421BC62FEF7E7FB40946D
:1040A0000BA824214194FEF7E1FB149442A824219B
:1040B0001594FEF7DBFB4B9416A824214C94FEF7D5
:1040C000D5FB1F9421A824212094FEF7CFFB2A942E
:1040D000684624212B94FEF7C9FB09944DA824219E
:1040E0000A94FEF7C3FB569458A824215794FEF770
:1040F000BDFB619463A824216294FEF7B7FB6C9426
:104100002CA824216D94FEF7B1FB359479A82421C5
:104110003694FEF7ABFB82946EA824218394FEF7BD
:10412000A5FB77944846A149789431F0BFFC9F4C99
:10413000010004F12C0A04F1580409D151465846F3
:1041400031F0B4FC20B92146889831F0AFFC28B199
:104150003046964931F0AAFC78B339E030469349AD
:1041600031F0A4FC50B95146849831F09FFC28B935
:104170002146879831F09AFC00287DD024223146D0
:104180002846FEF717FB706A6862B06AA862849DD1
:104190004446242229464046FEF70CFB686A6062CA
:1041A000A86AA062879C242221463846FEF702FBBB
:1041B000606A7862A06AB862F5E0FFE751468498C9
:1041C00031F074FC20B92146879831F06FFC28B19A
:1041D0004946304631F06AFCB8B122E04C46242210
:1041E00049462846FEF7E6FA606A6862A06AA86255
:1041F0005D464446242259464046FEF7DBFA686A8B
:104200006062A86AA062889CCDE75946849831F024
:104210004DFC002830D1306D012802D8F06C002808
:10422000ABD037AA8599899800F0D0F90BAA5846E7
:10423000869900F0CBF942AA85998A9800F0C6F9D0
:1042400016AA4846869900F0C1F916A942A831F08D
:104250002DFC00287ED021AA0BA937A800F09EFAD9
:104260006A4616A942A800F099FADDE9850158AA24
:1042700000F0ACF9A5A800E07BE02421FEF7F6FAF7
:104280000024AE9484A82421AF94FEF7EFFA8D9415
:104290008FA824218E94FEF7E9FA98949AA82421F5
:1042A0009994FEF7E3FA6946A39463AA0846A49496
:1042B00000F08CF92CAA694663A800F087F921A9BF
:1042C00079AA084600F082F96EAA16A963A800F040
:1042D0007DF99AAA02216EA800F059F984AA58A97A
:1042E00079A800F073F98FAA2CA984A800F056FAD7
:1042F0004DAA9AA98FA800F051FA2A464DA96846FE
:1043000000F064F984A82421FEF7B0FA8D948FA8F8
:1043100024218E94FEF7AAFA98949AA824219994BD
:10432000FEF7A4FAA39484AA4DA96EA8A49400F061
:1043300035FA8FAA84A921A800F048F99AAA0BA9F6
:104340002CA800F043F942469AA98FA800F026FA5B
:104350003A4600E008E058A92CA800F037F90120FF
:104360000DF5317DBDE8F08F0BA937A831F09EFB2C
:10437000A8B10E4E242231462846FEF71BFA706A79
:104380006862B06AA86256464546242251464046B5
:10439000FEF710FA706A6862B06AA86203E72946FD
:1043A000484600F005F80020DAE700006CE9230039
:1043B0002DE9F04F0C465B4E016D06F12C08583686
:1043C000F9B0834600F12C0500F1580A04F12C09DC
:1043D00004F15807012902D8296A00297ED05149E1
:1043E00031F064FB50B94146284631F05FFB28B9F3
:1043F0003146504631F05AFB002873D037AA514657
:104400005846FFF733FD42AA5146584600F0C6F918
:104410004DAA42A937A800F0D9F80BAA03214DA84C
:1044200000F0B5F86A465146284600F0CFF837AAA2
:104430006946284600F0CAF816AA37A9584600F07F
:10444000C5F80BA937AA084600F0C0F842AA08210F
:1044500016A800F09CF821AA42A937A800F09EF9FE
:1044600037AA694621A800F0B1F82246022137A8F0
:1044700000F08DF8294637AA084600F0A7F86946EB
:104480002CAA084600F0A2F842AA2CA937A800F0EE
:104490009DF84DAA082142A800F079F858AA0421F5
:1044A00016A800F074F863AA21A958A800F076F9BC
:1044B0006EAA63A90BA800F089F84A464DA96EA818
:1044C00000F06CF937AA69462CA800F07FF83A464C
:1044D000082137A800F05BF8002000E002E079B086
:1044E000BDE8F08F0F4D242229462046FEF762F9E1
:1044F000686A6062A86AA06245464C46242241462A
:104500004846FEF757F9686A6062A86AA0622422EA
:1045100031463846FEF74EF9706A7862B06AB86282
:10452000DAE700006CE923002DE9F043154F04465B
:10453000154EF87D10258BB091468846FF2806D091
:10454000716EC20005FA02F081430143716669464B
:1045500004F1580004F0C4FDF87DFF2804D0716E0A
:10456000C0008540A943716642466946204600F076
:104570002DF84A46694604F12C0000F027F80BB0EC
:10458000BDE8F0834007002000000E40FEE7F0B4D5
:10459000002508232F4650F823602C463D46E6FBB5
:1045A000014542F823405B1EF5D5002152F8213029
:1045B00013B9491C0929F9DBC1F109035362806A67
:1045C0009062F0BC104634F0FDBE00002DE9F74FBC
:1045D000A0B082460C46684683464821FEF746F95D
:1045E0004FF00009CDF848900821CDF84C900022FA
:1045F00008204D4646180BEB860354F820805F6870
:104600005AF821C0BE1845EB0502ECFB08625E605B
:10461000401EEFD5491EEAD56946002051F82020FA
:1046200012B9401C1228F9DBC0F112008864DAF8D4
:104630002800A16A884201D0012000E00020002467
:104640006D46139000E0641C55F8240008B9092C4D
:10465000F9D313982D491E9012988B6C2A469842D4
:1046600015D818D3C0F112000DE051F8203052F8DF
:104670002060B34206D0B34201D2012000E0002006
:1046800028B908E0401C1228EFDB00E0641C55F854
:1046900024000028FAD005EB8401242214A8FEF798
:1046A00089F814A9002051F8202012B9401C0928CB
:1046B000F9DBC0F10900486204F10900122808463C
:1046C00015D234F07FFE14A82022011DFEF772F8E7
:1046D00005EB840014A9406A1C900020641C51F86A
:1046E0002020002AE5D1401C0928F8DBE1E734F05E
:1046F00069FE229C14A924222046FEF75BF81D982F
:1047000060621E98A06223B0BDE8F08F1CE9230010
:1047100010B54342421E0A60C1E901304FF000006B
:1047200001F1100C4FF0FF34C8608CE8150088626E
:10473000C1E9074301D0092000E00820486210BD0C
:10474000FEE7FEE70FF06AB9F0B50024082327461C
:1047500051F8236050F8235016EB040C47EB070E7A
:10476000B5EB0C0C77EB0E0C344406D22C1B241C3E
:1047700042F823404FF0010403E02D1B42F8235080
:1047800000245B1EE4D5002052F8201011B9401C13
:104790000928F9DBC0F109005062F0BD2DE9F041B4
:1047A0000F460346816A0125B86A1446002641B1C6
:1047B00090B3786A596A884244D849D3C0F1090055
:1047C0003EE020B139461846FFF72CFB16E0586A48
:1047D000796A88420ED81BD3C0F1090008E057F867
:1047E000202053F820108A4212D803D300F1010090
:1047F0000928F4D322463946184626E02149A66204
:10480000606A4A6A904234D839D3C0F109002EE078
:104810002246194638461EE0FFE739461846FFF79C
:1048200001FB2046A562BDE8F041FFF747BB53F806
:10483000202057F820108A420AD803D300F1010043
:104840000928F4D3224619463846FFF77DFFD5E7FD
:10485000224639461846FFF777FFE2E751F8203045
:1048600054F8202093420AD803D300F1010009280C
:10487000F4D32046BDE8F041024900F005B8BDE898
:10488000F0810000F0E82300F0B5002308221E4666
:1048900051F8225050F82240EF1846EB060CE71B67
:1048A00076EB0C072B4406D2E31A1B1C40F822308F
:1048B0004FF0010303E0E41A40F822400023521EA7
:1048C000E6D5002150F8212012B9491C0929F9DB4D
:1048D000C1F109014162F0BD70B50B460446816A21
:1048E0000025986A8CB0012641B140B1586A616ACE
:1048F000884239D846D3C0F1090033E030B10CB05A
:104900002046BDE870401946FFF768BA606A596AE8
:10491000884237D80ED3C0F1090008E053F82020B0
:1049200054F820108A4205D82CD300F10100092840
:10493000F4D327E06A4621461846FFF705FF69468B
:1049400024222046FDF736FF0998C4E909060CB079
:1049500070BD54F8202053F820108A4212D803D397
:1049600000F101000928F4D36A4621461846FFF7F2
:10497000EBFE694624222046FDF71CFF0998C4E996
:104980000905E4E70CB02046BDE870401946FFF782
:104990007BBFFEE70248016841F470010160704787
:1049A00088ED00E002480068001D0FF053BB0000D6
:1049B000D030002002484068001D0FF04BBB0000C3
:1049C000D0300020FEE703B401984100009850EA7F
:1049D000C12018BF04204A0D18BF40F0010040F26A
:1049E000FF72B2EB515F08BF40F00200012808BF20
:1049F000052002B07047002809DB00F01F020121EA
:104A000091404009800000F1E020C0F8801270471A
:104A1000002809DB00F01F020121914040098000BD
:104A200000F1E020C0F880127047002809DB00F098
:104A30001F02012191404009800000F1E020C0F8F0
:104A400000117047002809DB00F01F02012191408E
:104A50004009800000F1E020C0F8001170470028F4
:104A600004DB00F1E02090F80004704700F00F0034
:104A700000F1E02090F8140D7047002804DB00F1ED
:104A8000E02090F80004704700F00F0000F1E020F3
:104A900090F8140D7047002804DB00F1E02090F836
:104AA0000004704700F00F0000F1E02090F8140DB2
:104AB0007047002804DB00F1E02090F80004704704
:104AC00000F00F0000F1E02090F8140D704700286E
:104AD00004DB00F1E02090F80004704700F00F00C4
:104AE00000F1E02090F8140D7047002804DB00F17D
:104AF000E02090F80004704700F00F0000F1E02083
:104B000090F8140D7047002804DB00F1E02090F8C5
:104B10000004704700F00F0000F1E02090F8140D41
:104B20007047002804DB00F1E02090F80004704793
:104B300000F00F0000F1E02090F8140D70470028FD
:104B400004DB00F1E02090F80004704700F00F0053
:104B500000F1E02090F8140D7047002804DB00F10C
:104B6000E02090F80004704700F00F0000F1E02012
:104B700090F8140D7047002804DB00F1E02090F855
:104B80000004704700F00F0000F1E02090F8140DD1
:104B90007047002804DB00F1E02090F80004704723
:104BA00000F00F0000F1E02090F8140D70470000B5
:104BB00002480068C0F30220704700000CED00E0DE
:104BC00002480068C0F30220704700000CED00E0CE
:104BD00002480068C0F30220704700000CED00E0BE
:104BE00002480068C0F30220704700000CED00E0AE
:104BF00002480068C0F30220704700000CED00E09E
:104C000002480068C0F30220704700000CED00E08D
:104C100002480068C0F30220704700000CED00E07D
:104C200002480068C0F30220704700000CED00E06D
:104C300002480068C0F30220704700000CED00E05D
:104C4000EFF31080704700002DE9F0412DED020BCD
:104C50009FED3D0B2DED028B9FED3D8BDDE9025469
:104C6000C4F30A50A0F2FF36142E37DA002E18DAF9
:104C700053EC102B9DED020B51EC100B37F0B8FBF1
:104C800053EC182B37F0B0FF57D2002CBCBF4FF0BD
:104C90000044002551DB54EA050018BF2E4C1BD1FF
:104CA0004BE02E4820FA06F704EA070028431FD0FD
:104CB00053EC102B9DED020B51EC100B37F098FBD1
:104CC00053EC182B37F090FF37D2002C03DD4FF454
:104CD0008010F0400444BC4300252EE0332E07DC56
:104CE000A6F114004FF0FF3121FA00F73D4206D142
:104CF0009DED020BBDEC028B02B0BDE8F08153ECE0
:104D0000102B9DED020B51EC100B37F0FDFF53EC17
:104D1000182B37F069FF10D2002C0DDD142E08BFC0
:104D2000641C09D0C6F13400012101FA00F02844C6
:104D3000A84238BF641C0546BD43CDE902549DED31
:104D4000020BD7E7000000009C7500883CE4377E2A
:104D500000000000000000000000F03FFFFF0F0017
:104D600010B52DED020B2DED088B84B09DED0C0BD5
:104D700051EC100B37F06EFF41EC180B9DED0C0B56
:104D800053EC182B51EC100B37F0CAFF41EC190B08
:104D90000D989FED290B10F0004F53EC102B51ECA8
:104DA000190B9FED21AB9FED22BB0ED037F0E2FD3A
:104DB0000ED953EC1B2B51EC190B37F015FF1CD2FD
:104DC00014E000BF41EC180B17E037F0D3FD06D21A
:104DD00053EC1A2B51EC180B37F0A2FFF2E753EC0F
:104DE0001B2B51EC190B37F0FFFE06D853EC1A2B96
:104DF00051EC180B37F0FCFAE4E78DED028B9DEDDA
:104E00000C0B18EE901A10EE900A8DED000B61F36A
:104E10001E0003909DED020B04B0BDEC088B02B0A8
:104E200010BD000000000000000000000000F03F86
:104E3000000000000000E03F000000000000E0BFB4
:104E400080F31088704700002DE9F74F074602985D
:104E5000DFF86CA1DFF86C814FEA500B5A48019DD6
:104E60005C465646CAF80000D8F804203F2060F39C
:104E70000502C8F80420DAF8000020F4700040EAC7
:104E80000750CAF80000DAF8000020F4702040EA69
:104E90000740CAF800000D2F02D00E2F04D007E003
:104EA000306840F4004002E0306840F480403060F8
:104EB000306840F400503060306820F0605030605E
:104EC000306820F00F0040F003003060002000F058
:104ED000AFF8012872D13168B24641F080413160AB
:104EE0000020424609E0D8F8083043F48033C8F87F
:104EF0000830811C00F1010005D091689046C1F393
:104F000000210029EFD1072000F092F8012855D1A7
:104F100042E000264FF47A7924E04E451ED9DAF8B3
:104F2000001021F08041CAF80010DAF8001041F0BA
:104F30000041CAF80010DAF8001021F00041CAF868
:104F40000010002000F074F8012837D11F48416993
:104F5000491C41610520FBF5E5FD7FE70120FBF5DC
:104F6000E1FD761CD8F80800C0F300200028D4D05A
:104F7000D8F80800434600F07F02A24200D922463A
:104F8000002006E0196825F8021B090C25F8021B11
:104F9000401C9042F6D3A41A002CBAD10298C00744
:104FA00007D040468168C1F300210029FAD000688B
:104FB0002880BDE8FE4F002000F03AB8BDE8FE8F23
:104FC00000A8004000E000400A070807A4330020C2
:104FD0002DE9F0411249044600200860104980394B
:104FE0000860104D686A104E00F00101494201400E
:104FF0003062C8050DD440F20117A869B84208D044
:1050000024B10120641EFBF58DFDF6E70020BDE80C
:10501000F08106480068B0616868F0610120F6E739
:1050200094581C4200E00040A433002000A8004037
:105030002DE9F041104F0546F868C0F30240A84240
:1050400017D0F86820F007002843F86000244FF6D6
:10505000FF76F868C0F30240A84205D00120FBF5B6
:1050600061FD641CB442F4D3B44202D10020BDE817
:10507000F0810120FBE7000000E00040F0B50D46A4
:105080002DED068B89B006469FED439B2021684697
:10509000FDF7ECFBB0EE498AF0EE698A1022694612
:1050A0003046FFF7D1FE00246F4607EB4400008A2C
:1050B00037F007FC53EC182B37F09AF9641C41ECDD
:1050C000180BE4B2082CF0D351EC180B9FED340B05
:1050D00053EC102B37F08AFC41EC180B0D2E02D04C
:1050E0000E2E32D04FE0688837F0EBFB9FED2E1B81
:1050F00053EC112B37F030FA9FED2D0B41EC190BCF
:1051000051EC100B37F068F941EC1A0BA88837F016
:10511000D8FB53EC1A2B37F069FC41EC1A0B2888AA
:1051200037F0CFFB53EC182B37F0EEFD53EC1A2B76
:1051300037F012FA9FED201B53EC112B37F00CFACD
:1051400053EC192B37F054F91BE09FED1D0B51EC7C
:10515000100B37F041F941EC1A0BA88837F0B1FB7E
:1051600041EC190BE88837F0ACFB53EC182B37F007
:10517000CBFD53EC192B37F0EFF953EC1A2B37F02A
:1051800035FC41EC190B09B0B0EE490AF0EE690AA2
:10519000BDEC068BF0BD0000000000000000000028
:1051A000000000000000C03F000000000000594067
:1051B0000000000000000040DE718A8EE4F25FBF54
:1051C000B76DDBB66DDB0E4030380A2801D2012006
:1051D000704700207047704770B504466FF01305A4
:1051E000552811DA412C0DDA2D2C06DA14F10A0FAC
:1051F00001DB032009E0AC4201DB042005E014F1EF
:105200001E0F01DB052000E0062014F03DF935F00B
:105210003BFBA8B116480068C0F3805080B904F188
:1052200014011448142902D240F21D6106E0AC4278
:1052300002DA40F2FA5101E04FF4C8614161C16104
:1052400035F032FB002811D0FCF65EFF3C2C06DD69
:10525000032802D06FF00C0004E00D2002E0322C95
:1052600004DA1C20BDE8704011F01EB970BD0000CA
:1052700014A80040B0D6002010B51A4940F21A44D4
:105280004FF4B9720B694FF496710C3BA3420FD9DE
:105290000424BE2801DC0C241BE0DC2801DC0824EB
:1052A00017E0FA280EDD884210DD904211DD0FE094
:1052B000BE2801DC0B240CE0DC2801DC072408E01C
:1052C000FA2801DC062404E0884201DC052400E021
:1052D0000324204614F0ECF82046BDE8104014F0FA
:1052E000C9B80000B0D600200648016841F00101AD
:1052F0000160064804490160054941600549816033
:10530000704700003835002079CF2000E8D9002010
:10531000F5CD20001DC920002DE9F05F9A46DDE99A
:105320000F53DDE90D7990460C46064600221749D9
:105330005C20DDF82CB0FEF594FA00F1200181E844
:10534000E00580F857900A99818680F858B00021CE
:1053500080F85910C1F10D022244431812F8012CB3
:10536000491C83F839200D29F4DB90F859100C9A68
:1053700021F00101114321F00C0141F0120180F8EC
:105380005910BDE8F05F00F003B80000A154200000
:105390002DE9FC41044690F8590004F137078107D4
:1053A00061D5C2064FF000012DD584F8461094F85F
:1053B000570000B1012041EA801084F8460094F8BB
:1053C00058006FF03802801E00EBD070411012EAD6
:1053D000C10F05D04110CE232EA23820FEF538FF94
:1053E00094F8580094F84610801E00EBD07021F01D
:1053F0003801401041EAC00020F00700401C84F84A
:105400004600A18E3AE004F14707400739D594F8E9
:1054100036004FF0100605014FF0020806D0AD1E11
:105420002D042D0C4FF0000801D00CE00E2694F84E
:105430005700009140BAADF80400022301AA394692
:10544000384600F0F4F894F85700401BB04200DAF8
:10545000C6B2CDF80080A06A3946421933460846E4
:1054600000F0E5F80DE0C00601D5002002E094F858
:105470003600401CC1B2012084F84600384603F6CD
:1054800081FD616A02B03A462046BDE8F041FEF572
:10549000A9BE00006165735F63636D2E6300000049
:1054A0002DE9F84F0D46044690F859104FF0000AC8
:1054B0008807574604F147063AD510222946304658
:1054C000FDF733F994F85900C1060DD520F010000E
:1054D00084F8590094F85710B1B140F0040084F8F2
:1054E000590084F836709CE0410794F8361010D5C6
:1054F000491CC9B284F8361094F857206FF00103A4
:1055000003EB01118A4212DA20F0060040F0080095
:10551000E5E720F0020084F85900A28E09018A42D2
:105520007FD820F0080040F0100084F8590078E09F
:10553000C8063BD50022C80715D0A18E206B46189F
:1055400000200BE0C0F110010B19294493F84630FC
:1055500011F8011C4B403354401CC0B294F8581051
:105560008142EFD81AE0A18EE06A94F858304618CC
:10557000002011E0C0F1100101EB050C2144375C63
:105580001CF801CC91F8461087EA0C078F4201D035
:10559000012203E0401CC0B28342EBD8236A13B15E
:1055A0001046A16998474FF0010A3DE094F8360093
:1055B000A28E000100F110039A4201D2121A00E0FB
:1055C000102202F0FF0BE26A02EB0009226B02EBF1
:1055D0000008C8070DD05B464A4631463046009762
:1055E00000F025F85B462A464946404600F032F86E
:1055F0000CE05B462A464946404600F02BF831460F
:105600005B4642460846009700F011F894F85900AE
:1056100040F0020084F8590094F83600401C84F8E9
:1056200036002046FFF7B4FE5046BDE8F88FF0B5CF
:10563000059CC4F10F04E6B2002408E0351B12F803
:1056400004C04F5D641C87EA0C07475564B29C4256
:10565000F4DBF0BD70B5002409E0C4F11006164477
:105660000D5D16F8016C75400555641C64B29C42D2
:10567000F3DB70BD2DE9F0411D469046DDE90623C0
:105680000F4606460D498020FEF5EBF8044680F8EB
:105690003C50202239463D30FDF747F82022314664
:1056A00004F15D00FDF741F804F13C02414620465B
:1056B000BDE8F0414123FEF559BA0000C156200073
:1056C000FEF5B4B92DE9F0471D46DDE909739246B0
:1056D0008946064600221F49A820DDF82080FEF5F5
:1056E000C0F8002180F8A510C763044680F8501068
:1056F000012084F85100D8F80010C4F85210B8F80E
:105700000410A4F8561098F8060084F85800286889
:10571000C4F85900A888A4F85D00A87984F85F004F
:105720001022514604F16000FCF7FFFF10224946A9
:1057300004F17000FCF7F9FF07483246064900689B
:10574000C4F880002046BDE8F0472023091DFEF57F
:105750000DBA00005D5720004EE823002DE9F04708
:105760008A4604460027FEF561F950B394F8A50077
:105770004FF0010904F1500804F1400630B104F182
:10578000850501280DD0022828D11BE010225146A2
:105790003046FCF7CAFF002084F8840084F8A59006
:1057A00009E0102251462846FCF7BFFF84F8849098
:1057B000022084F8A5003523424631462046FEF5F6
:1057C000D5F90BE01022514604F19500FCF7ADFF2E
:1057D000E36B29460020A269984701273846BDE8B7
:1057E000F08700002DE9F05F9B4692460546DDE913
:1057F0000D230AA8894690E8C0011C498020FEF5C7
:1058000030F80446102249466D30FCF78EFF102216
:10581000514604F15D00FCF788FF1022594604F15F
:105820004D00FCF782FF3088A4F84A00B07884F875
:105830004C003968C4F84310B988A4F84710B87907
:1058400084F84900D8F80000E063B8F80400A4F830
:10585000400098F8060084F8420004F13C02294612
:105860002046BDE8F05F4123FEF580B97158200065
:10587000FEF5DCB82DE9F0411F469046DDE9062330
:105880000E4605460F498C20FDF5EBFF044620220D
:1058900029466C30FCF749FF2022314604F14C00C8
:1058A000FCF743FF04F13C00102239460546FCF7A3
:1058B0003CFF2A4641462046BDE8F0415023FEF514
:1058C00055B90000C9582000FEF5B0B8014834F0C1
:1058D000A3BB0000F83000201FB5084A32F91020A1
:1058E0000A8007A1C823CDE90031CDE902020F4BA0
:1058F0000FA215A1022001F035F91FBD983200203A
:105900005345525645525B25645D202D2D2055731D
:1059100065722043616C6C6261636B3A20676574E9
:105920002070696E20697320256421006DDF2300DB
:105930002E2E5C5372635C757365725C7573657251
:105940005F6170702E6300004E4F5F54414700004E
:105950002DE9F84304460E46002C01D0032E03D354
:105960004FF4C370BDE8F883FF20103404F8100C26
:10597000002525606560A5604FF0FF38C4F80C80F5
:1059800025742676E5616263A363A587E5872564B0
:1059900065642566A4F86450A4F8665084F86850DD
:1059A00010486061103C314620460CF0B5F80746BF
:1059B000B7B90D4820636463C4F83C8084F8405054
:1059C0000A4B2246314641F202002CF067FF0220CA
:1059D000009004F14C032246054930462EF098FD14
:1059E0003846BFE7F0E2230025832100DD5E20007A
:1059F000716120001FB5084A22F8101007A2C223C7
:105A0000CDE90032CDE902010F4B10A215A1022011
:105A100001F0A8F81FBD00009832002053455256EF
:105A200045525B25645D202D2D2055736572204302
:105A3000616C6C6261636B3A207365742070696E8F
:105A400020697320256421004DDF23002E2E5C5336
:105A500072635C757365725C757365725F6170709B
:105A60002E6300004E4F5F54414700001FB5084AA7
:105A7000135C0B70115C07A2BC23CDE90032CDE9A9
:105A800002010F4B0FA215A1022001F06BF81FBD00
:105A9000943200205345525645525B25645D202DBB
:105AA0002D20557365722043616C6C6261636B3AA3
:105AB000206765742070696E206973202564210059
:105AC0002DDF23002E2E5C5372635C757365725C50
:105AD000757365725F6170702E6300004E4F5F5486
:105AE0004147000038B504460D46002C01D0022D78
:105AF00002D34FF4C37038BDFF2020700020206116
:105B00006061A061411EE16184F8200084F82850A2
:105B1000E0626264A36484F84C0084F84D00206560
:105B20006065A065A4F85C00A4F85E0084F86000DD
:105B30000E4A62620E4A22636463E16384F84000A5
:105B40000C4B224629464FF480502CF0A7FE012032
:105B5000009004F14C032246074928462EF0D8FC59
:105B600029462046BDE838400CF0F4BB08E4230089
:105B70004D60230035772000117A20001FB5074AB9
:105B8000115407A2B623CDE90032CDE902010F4B33
:105B90000FA215A1022000F0E5FF1FBD94320020E6
:105BA0005345525645525B25645D202D2D2055737B
:105BB00065722043616C6C6261636B3A207365743B
:105BC0002070696E20697320256421000DDF230099
:105BD0002E2E5C5372635C757365725C75736572AF
:105BE0005F6170702E6300004E4F5F5441470000AC
:105BF0001CB5044604F14C01A26C94F828009047AF
:105C000094F84C008DF8000094F84D008DF80100D8
:105C100020460DF0F2F80190694620460CF0B4FBE6
:105C20001CBD00000149486070470000003300209F
:105C30001FB5084A135C0B70115C07A2D623CDE98F
:105C40000032CDE90201124B12A218A1022000F08D
:105C500089FF1FBD963200205345525645525B25A1
:105C6000645D202D2D20557365722043616C6C623C
:105C700061636B3A206765742070696E5F6F6E5F59
:105C8000706F7765725F75702069732025642100DD
:105C9000B3DF23002E2E5C5372635C757365725CF8
:105CA000757365725F6170702E6300004E4F5F54B4
:105CB0004147000070B504460D46002C01D0022D6E
:105CC00002D34FF4C37070BDFF2020706570A260D6
:105CD000012020730020E0812074054860600548A1
:105CE000FFF7A0FF29462046BDE870400CF020BC1D
:105CF000D0E42300019E23001FB5094A115409A2D4
:105D0000CF23CDE90032CDE90201154B15A21BA12D
:105D1000022000F027FFBDE81F4030F04FBC00001C
:105D2000963200205345525645525B25645D202D26
:105D30002D20557365722043616C6C6261636B3A10
:105D4000207365742070696E5F6F6E5F706F77652A
:105D5000725F7570202069732025642100000000A7
:105D60008DDF23002E2E5C5372635C757365725C4D
:105D7000757365725F6170702E6300004E4F5F54E3
:105D80004147000030B4002813D0022911D2C36863
:105D90007BB143696BB1FF2404700172026101227F
:105DA0001A70002202838276044A426030BC0CF0F2
:105DB00085BC30BC4FF4C37070470000F8E423008A
:105DC00030B597B005460C461C22414910A8FCF797
:105DD000F1FC1C223E491C3109A8FCF7EBFC2022F7
:105DE0003B49383101A8FCF7E5FC94B1394906205C
:105DF00033F0E0FA3849152033F0DCFA34496C39D5
:105E0000A1F12C02052D60D2DFE805F0060606217F
:105E10003900E52017B030BD207931F8100011901D
:105E2000607932F810001290A079139020681090D9
:105E30002748843850F8350021880904090C04D01B
:105E400018B110A90DF0C7FC38E0E420E2E7207992
:105E500001EB4000808A0A90607902EB4000C08824
:105E60000B90A0790C9020680990207810F0FF0F1B
:105E700003D009A80DF038F920E0E420CAE7207922
:105E8000031F042B01D8E720C4E7022818D0012003
:105E90000290207901EB4000008D0390607902EBC5
:105EA000400080890490A0790590206801902088A6
:105EB000800508D001A900200DF0BCFC0020A9E756
:105EC00002200290E5E7E420A4E7E620A2E7000034
:105ED0003CD12300211E10001D1E10002DE9F041B1
:105EE00086B00446884616461F4600253088CDE910
:105EF00003873B49029105903AA04FF41071CDE918
:105F00000010374B44A24DA1022000F02BFEC4B379
:105F100041F20631A8EB0100884533D008DCA8F532
:105F2000805009381BD0A0F50070F7384BD104E041
:105F3000042837D0052846D134E0022F43D13088D9
:105F4000B4F94C10A0F5004081423CD001B2A4F855
:105F50004C10626C94F828009047012533E0022F22
:105F600031D13088B4F94C10A0F5004081422AD0DC
:105F700001B2A4F84C10626C94F8280090470125F7
:105F800021E028E0022F1ED13088B4F94C10814264
:105F900019D001B2A4F84C10626C94F82800904714
:105FA000012510E0022F0ED13088B4F94C10A0F575
:105FB0000040814207D001B2A4F84C10626C94F802
:105FC00028009047012535B1204600F079F9414677
:105FD000204600F037F806B02846BDE8F081000002
:105FE000F4E323005B25735D203A20737263206D18
:105FF0006F64656C206964203078253034782C20FB
:10600000206C656E677468203D2025642C206461D7
:1060100074612025642000002E2E5C2E2E5C636FA0
:106020006D6D6F6E5C7372635C6170705F6C6576D2
:10603000656C5F7365727665722E63004E4F5F54B8
:10604000414700002DE9F04385B004460D4614F8A1
:10605000280F2F4901EB40062E4AB4F92400B6F967
:1060600000102DA3CDE90132CDE9031040F2192033
:106070001346009033A23CA1022000F073FDB6F954
:106080000000B4F92410283C88423ED04FF49851C7
:10609000022704F14C0841F202098D4206D0009714
:1060A00094F8280043464A462CF0D4FB41F20631CE
:1060B0008D4206D0009794F8280043464A462CF0BB
:1060C000C9FB41F209018D4206D0009794F82800DF
:1060D00043464A462CF0BEFB41F20A318D4206D0BF
:1060E000009794F8280043464A462CF0B3FB41F24F
:1060F0000B318D4206D0009794F8280043464A465B
:106100002CF0A8FBB4F84C00308005B0BDE8F0835B
:10611000FA320020DFE32300205B25735D20656EEB
:106120007465722C207265706561742076616C757F
:10613000652025642C2062696E642076616C75652B
:10614000202564002E2E5C2E2E5C636F6D6D6F6EAD
:106150005C7372635C6170705F6C6576656C5F73B5
:1061600065727665722E63004E4F5F5441470000A2
:10617000F0B587B004460E461746B6F90000CDE9E3
:106180000307204D20A1CDE9011540F2F910009040
:106190002B462AA232A1022000F0E4FC7CB1022F9F
:1061A0001AD031A0CDE9010540F2032100912B4620
:1061B00022A22BA1022000F0D5FC07B0F0BD34A034
:1061C000CDE9010540F2FD1100910E4B1BA224A167
:1061D000022000F0C7FCF0E73088A4F84C00ADF8CE
:1061E0001400B4F84E00ADF81600206D069005A915
:1061F00020460BF06BFD2834E269B4F924102078B6
:106200009047DAE7C5E323005B25735D2053657291
:10621000766572206C6576656C20726563616C6C66
:106220002073746174653A2076616C75652025640D
:106230002C206C656E677468202564002E2E5C2E01
:106240002E5C636F6D6D6F6E5C7372635C617070FA
:106250005F6C6576656C5F7365727665722E630040
:106260004E4F5F5441470000205B25735D206578E9
:106270006974203A20696E76616C69642072656386
:10628000616C6C20706172616D2121210000000041
:10629000205B25735D2065786974203A20556E6B0C
:1062A0006E6F7720736572766572207374617465A2
:1062B00020746F20726563616C6C202121210000C5
:1062C0001CB5044604F14C01A26C94F828009047D8
:1062D000B4F84C00ADF80000B4F84E00ADF8020080
:1062E00020460CF067FD0190694620460BF0EEFC5D
:1062F0001CBD00002DE9FF4F87B0044615461E4621
:10630000002794F8281008986E4ACDE90221CDE9BB
:1063100004066DA040F28521CDE90010134678A255
:1063200083A1022000F01EFC002C7CD0089841F2D2
:106330000733C21A04F160014FF6FE794FF6FF7A77
:1063400098420BD00BDCB0F5805F46D0A0F58050B2
:10635000023809D0A0F5407001383DD184E0052A0B
:10636000FCD0082AF9D17FE0022EF6D1B5F900B0B1
:10637000B4F860000BF5004840451DD01FFA88F0C6
:10638000A4F8600010B1084612F0A2FEB4F8600054
:1063900000FB0090B0FBFAF0A4F86200002201219B
:1063A000204612F0AFFEB4F86000404503D015B1AE
:1063B000A0F5004028800127B4F8600004905E49F1
:1063C000CDE9026B40F2A120019100903D4B4CA21F
:1063D00057A1022000F0C6FB66E0012E64D12D78A3
:1063E00075B9B4F8600058B10020A4F86000A4F8B2
:1063F000620000220121204612F084FE01271DE0E8
:10640000012D1BD1B4F86000C0B9E26D94F82800EA
:106410009047B4F86A0010B3A4F86000B4F86000C4
:1064200000FB009000E048E0B0FBFAF0A4F8620046
:1064300000220121204612F065FE0127B4F8600019
:1064400004903E49CDE902654FF43170019100900E
:106450001C4B2BA236A1022000F084FB24E0B4F8F0
:106460006800A4F86000D9E7022E1DD12E88B4F888
:106470006000B04218D0A4F8606016B1084612F06F
:1064800027FE34F8600F00FB0090B0FBFAF060804C
:1064900034F86009B04201D005B128800022012102
:1064A000204612F02FFE01273FB1204600F0E4FA0B
:1064B00000222046089900F043F80BB03846BDE8AA
:1064C000F08F000078E223005B25735D20656E7419
:1064D00065722C205345525645525B25645D2C2035
:1064E000737263206D6F64656C20253034582064AE
:1064F000617461206C656E6774682025640000001B
:106500002E2E5C2E2E5C636F6D6D6F6E5C737263EE
:106510005C6170705F6C696768745F6C69676874F0
:106520006E6573735F7365727665722E630000002B
:106530004E4F5F54414700009C0A2400500A24003B
:106540002DE9F04387B004460D46174614F8280F8E
:106550002E4901EB4006218F32882D4BCDE90230C8
:10656000CDE904212B484FF41571CDE900102AA282
:1065700035A1022000F0F6FA3088218F283C8842AD
:1065800001D1002F3ED041F20201022704F1600840
:106590004FF498598D4206D0009794F8280043464E
:1065A0004A462CF057F94FF480518D4206D000979F
:1065B00094F8280043464A462CF04CF941F2033146
:1065C0008D4206D0009794F8280043464A462CF0A6
:1065D00041F941F207318D4206D0009794F8280026
:1065E00043464A462CF036F941F20C318D4206D032
:1065F000009794F8280043464A462CF02BF9B4F84B
:106600006000308007B0BDE8F0830000F832002061
:1066100060E22300080A24002E2E5C2E2E5C636F9D
:106620006D6D6F6E5C7372635C6170705F6C6967D7
:1066300068745F6C696768746E6573735F736572A5
:106640007665722E630000004E4F5F544147000094
:10665000F0B585B004460D461746324E32A0CDE95E
:10666000010640F22F210091334632A23DA10220C3
:1066700000F078FA28783DA14FF40C72CDE90021A2
:10668000CDE9020733462BA236A1022000F06AFAB8
:106690007CB1022F1AD042A0CDE9010640F23A2186
:1066A0000091334623A22FA1022000F05BFA05B02F
:1066B000F0BD45A0CDE901064FF40D710091194BD5
:1066C0001CA228A1022000F04DFAF0E760342A88CD
:1066D0006188208848A3CDE90132CDE9030140F269
:1066E0003E2000900F4B13A21EA1022000F03AFAA8
:1066F000298834F8600981420BD1ADF80C00B4F858
:106700006400ADF80E00606F049003A9204612F0FB
:1067100051FB94F82800A26D05B004F16001BDE8BA
:10672000F040104743E223005B25735D20656E74E3
:10673000657220002E2E5C2E2E5C636F6D6D6F6E69
:106740005C7372635C6170705F6C696768745F6CC6
:10675000696768746E6573735F7365727665722EB0
:10676000630000004E4F5F5441470000736572762E
:106770006572206C696768746E65737320726563F7
:10678000616C6C2073746174653A2076616C756518
:106790002025642C206C656E6774682025640000D9
:1067A000205B25735D2065786974203A20696E76D8
:1067B000616C696420726563616C6C2070617261E8
:1067C0006D21212100000000205B25735D2065788C
:1067D0006974203A20556E6B6E6F77207365727600
:1067E000657220737461746520746F2072656361D3
:1067F0006C6C202121210000203078253034782C49
:10680000203078253034782C2030782530347821A9
:1068100021210000F0B5064689B00846114F06EB6D
:10682000C60507EB450412222146FBF77EFF62896D
:10683000E089218A2389CDE90532CDE907106088F6
:1068400037F81510084ACDE90126CDE90310E720F5
:106850000090064B06A20CA1022000F083F909B0BB
:10686000F0BD0000E0CC0020B8082400F4DF2300D5
:106870002E2E5C5372635C757365725C7573657202
:106880005F6170702E6300004E4F5F5441470000FF
:10689000F8B50446002C00D011B14FF4C370F8BD18
:1068A000FF202070002525616561A5616E1EE661EF
:1068B00084F8205084F82850A265E36504F1600351
:1068C0001F460222294628462FF0CAFE543425824C
:1068D000E5816582300CA08225626562A562E56271
:1068E000E582257601216183A0832563A586A563C2
:1068F000A587E58784F84050194844F8300C1948BA
:1069000044F8240C543C6463E66384F84050164811
:106910006064A464266584F85450144B22462946CA
:106920004FF498502BF0BAFF02263B4622461049FE
:10693000284600962DF0ECFD04F1620322460C4936
:10694000284600962DF0E4FD012229462046FFF757
:10695000F7FD29462046BDE8F84012F009BA0000CC
:10696000F0E0230095842100F9862100F5622000E3
:1069700051662000F0B587B006460E4F06EBC605FF
:1069800007EB450412222046FBF7CFFE20896188E1
:1069900037F81520CDE904100748DC21CDE90010B7
:1069A000CDE90262054B06A20BA1022000F0DAF845
:1069B00007B0F0BDE0CC00201C082400D9DF230084
:1069C0002E2E5C5372635C757365725C75736572B1
:1069D0005F6170702E6300004E4F5F5441470000AE
:1069E00000280ED069B9C3685BB143694BB1FF237E
:1069F00003700172026100210183034A426012F0B8
:106A0000E7B94FF4C370704790E2230030B587B008
:106A100005460E4805EBC50200EB42041222204653
:106A2000FBF783FEE089218A6289CDE904100848DA
:106A3000F421CDE90010CDE90252064B06A20CA1CB
:106A4000022000F08FF807B030BD0000E0CC00203D
:106A5000340924000FE023002E2E5C5372635C7512
:106A60007365725C757365725F6170702E63000090
:106A70004E4F5F544147000010B588B0044603A94B
:106A8000E26D94F828009047BDF80C00ADF80400C2
:106A9000B4F86400ADF8060020460BF095FF0290B4
:106AA00001A9204612F086F908B010BD00B587B0E4
:106AB00003208DF800001D208DF8160001208DF8B0
:106AC00017008DF818008DF81900044A044968462B
:106AD00000F01CF8FEF7FAFE07B000BDA58120000B
:106AE000AB812000002806D0002904D0024AD269D8
:106AF000002A00D010477047983900200248006AE9
:106B0000002800D0004770479839002070B50D4626
:106B100016460D4C00280AD00178032911D801210E
:106B2000A17601461A222046FBF7FFFD05E0002072
:106B3000A0761A210448FBF799FEE5612662002041
:106B400070BD012070BD000098390020044A104437
:106B5000807D084201D0012070470020704700006E
:106B6000983900202DE9FE4F0746924699460024A9
:106B7000A046CDF80480CDF8088059480178B94284
:106B800002D2807E00287DD10EAD0095EFF31186F4
:106B90000220FDF772FF8346FEF712F8401C012128
:106BA00081400BEB0100C0B280F31188012138460F
:106BB000FFF7CCFF38B14B484B4950F8272020460F
:106BC00000F0A4F804461C213846FFF7BFFF002858
:106BD0005ED046A24449204600F098F8204484B292
:106BE00004213846FFF7B2FFF8B152463E4920462D
:106BF00000F08CF8204484B208213846FFF7A6FF45
:106C000038B13BA23849204600F080F8204484B2D5
:106C10000BE010213846FFF799FF30B135A2324919
:106C2000204600F073F8204484B208213846FFF76C
:106C30008DFF90B14A462C49204600F067F8204469
:106C400084B210213846FFF781FF30B12AA22649CD
:106C5000204600F05BF8204484B210213846FFF74C
:106C600075FF60B126A2052101A80C9BFBF73EFB36
:106C700001AA1D49204600F049F8204484B221A20F
:106C8000194900E029E0204600F040F8204484B291
:106C90001548C4F5807120442B460D9AFBF7EAFA9B
:106CA000CDF800804FF48071002804DB2044884236
:106CB00001DC85B200E00D46A81C884200D9FE2503
:106CC00011A20949284600F021F8284481B206485B
:106CD000FFF708FFF0B280F31188BDE8FE8F0000D7
:106CE00098390020E4300020983800202800000067
:106CF000200000003A000000204C696E653A000058
:106D0000256C6400292000000D0A000030B50546FE
:106D1000002000290CD0002A0AD006E02B18FF2BF7
:106D200006D8CC54521C401C80B21478002CF5D1EB
:106D300030BD00002DE9F04186B004468846164675
:106D40001D463188207A2DF083F907461F4A308886
:106D5000217A1FA3CDE90132CDE903108920134622
:106D6000009027A231A10220FFF7FCFEB8F8060030
:106D7000A083A169380A08704FF000083FB9A069E4
:106D800032884188914202D1A0F8028008E0A069CF
:106D90004188207A2CF0C6FE10B1A069A0F80280CC
:106DA000A069328866694188207A3B46B047A0696D
:106DB00000782870A06940886880207AAA1D202168
:106DC0002DF054FAA88006B0BDE8F0811FE623003C
:106DD0005B25735D20656E7465722C205345525699
:106DE00045525B25645D202D2D206D73673A20444C
:106DF000656C6574653A2030782530347800000081
:106E00002E2E5C2E2E5C636F6D6D6F6E5C737263E5
:106E10005C6170705F7363656E655F7365747570D8
:106E20005F7365727665722E630000004E4F5F548B
:106E3000414700002DE9F04186B0884615460446DA
:106E40000026294F90F8280028A1CDE90117F1224A
:106E5000009203903B462EA236A10220FFF782FE4D
:106E6000B8F80610A4F86210626C94F8280004F1D7
:106E70004E019047606DB04610B1A4F84E8012E00C
:106E8000B4F84E1094F828002CF04CFE061E0AD0E0
:106E900014F8280F2CF01EFEE0842378226A0146A5
:106EA000283C184690472834E08C68802078AA1D3A
:106EB00020212DF0DBF9A88084F8248085F800805B
:106EC00094F8240004901DA1CDE9027640F20F1041
:106ED00001910090044B0EA216A10220FFF742FE82
:106EE00006B0BDE8F08100009EE523005B25735DE0
:106EF00020656E7465722C205345525645525B25B1
:106F0000645D202D2D206D73673A20474554200085
:106F10002E2E5C2E2E5C636F6D6D6F6E5C737263D4
:106F20005C6170705F7363656E655F7365727665D3
:106F3000722E63004E4F5F54414700005B25735D26
:106F4000207363656E65203078253034782C2020DE
:106F5000256400002DE9F04186B0044688461746B6
:106F60001D46A269207A39889368002B04D0928844
:106F70002DF000FA064603E000222DF0FBF906464C
:106F8000214A3888217A21A3CDE90132CDE90310C5
:106F90005E201346009029A233A10220FFF7E2FDF4
:106FA000B8F80600A083A169300A08704FF0000805
:106FB0000EB3A0694188207A2CF0B4FD38B1207A54
:106FC0002CF088FDA1694880A069A0F80280A06922
:106FD00022694188207A9047A06900782870A069CA
:106FE00040886880207AAA1D20212DF03FF9A880D2
:106FF00006B0BDE8F081A069816811B1A0F80280F7
:10700000E5E739884180E2E7F8E523005B25735D19
:1070100020656E7465722C205345525645525B258F
:10702000645D202D2D206D73673A2053746F726557
:107030003A20307825303478000000002E2E5C2E67
:107040002E5C636F6D6D6F6E5C7372635C617070EC
:107050005F7363656E655F73657475705F7365728A
:107060007665722E630000004E4F5F54414700006A
:1070700000B585B00A4A32F810200A80094A0A4B46
:10708000CDE90132CDE903014FF48470134600903D
:1070900006A20CA10220FFF765FD05B000BD0000AF
:1070A0009E3200204DE023006C0824002E2E5C53FD
:1070B00072635C757365725C757365725F61707025
:1070C0002E6300004E4F5F544147000000B585B06D
:1070D000094A22F81010094A094BCDE90132CDE9DD
:1070E00003014FF480701346009006A20BA102200A
:1070F000FFF738FD05B000BD9E32002030E02300D0
:107100006C0824002E2E5C5372635C757365725C90
:10711000757365725F6170702E6300004E4F5F542F
:107120004147000010B588B0094C24F8101003AC9A
:107130000FC4094940F21712CDE900210548029019
:10714000034606A20BA10220FFF70CFD08B010BDFC
:107150009E3200208FE02300880924002E2E5C53ED
:1071600072635C757365725C757365725F61707074
:107170002E6300004E4F5F544147000000B585B0BC
:10718000094A22F81010094A094BCDE90132CDE92C
:10719000030140F20F101346009006A20BA102203B
:1071A000FFF7E0FC05B000BD9E3200206AE023003E
:1071B0006C0824002E2E5C5372635C757365725CE0
:1071C000757365725F6170702E6300004E4F5F547F
:1071D00041470000F0B585B00F46154604461D4EE8
:1071E00090F828001CA1CDE90116CF22009203904F
:1071F000334622A22AA10220FFF7B4FCF888A4F8A3
:107200006200626C94F8280004F14E019047616DB1
:10721000002009B1A4F84E0004F84C0F2870217822
:1072200021A2CDE90126CDE90301E4200090094B1C
:1072300012A21BA10220FFF795FC60886880A0883D
:107240004C3CA88005B005F108012046BDE8F0409F
:1072500030F0E2BF82E523005B25735D20656E742C
:1072600065722C205345525645525B25645D202D96
:107270002D206D73673A2047455420002E2E5C2E3A
:107280002E5C636F6D6D6F6E5C7372635C617070AA
:107290005F7363656E655F7365727665722E6300FA
:1072A0004E4F5F54414700005B25735D207363655B
:1072B0006E65203078253034782C2020256400003D
:1072C0002DE9F04186B088460C9D16461F460446BF
:1072D000254A318890F8280024A3CDE90132CDE970
:1072E00003014FF48C70134600902CA234A10220AD
:1072F000FFF738FCB8F80600A4F862003088E0B167
:10730000002184F864103088A4F8500097B17868A0
:10731000A0653868606584F84C10A4F84E10A26C23
:1073200094F828009047204630F0C4FE204630F004
:1073300079FE0AE0A1656165F5E7022084F84C005A
:1073400004F15401204630F067FF002D08D014F8F6
:107350004C0F287060886880A088A880A068A8600A
:1073600006B0BDE8F0810000C3E523005B25735D36
:1073700020656E7465722C205345525645525B252C
:10738000645D202D2D206D73673A20526563616C1A
:107390006C3A203078253034580000002E2E5C2EB8
:1073A0002E5C636F6D6D6F6E5C7372635C61707089
:1073B0005F7363656E655F7365727665722E6300D9
:1073C0004E4F5F54414700002DE9FF4100242CF04F
:1073D000B3FD744E04EBC40000EB041006EB800018
:1073E000714B724A2146FEF77DFB05467DB101AF28
:1073F0006FA031C740F24F110091754B75A27BA170
:107400000220FFF7AFFB284604B0BDE8F0816549D4
:10741000C4EB4410C83101EB8000764B764A21461C
:10742000FEF796FA05466DB101AF74A031C74FF46F
:10743000AC710091664B67A26CA10220FFF792FB32
:107440002846E1E7754904EB840001EB8000744AAB
:107450002146FEF72FFC05466DB101AF71A031C783
:1074600040F25F1100915A4B5AA260A10220FFF72F
:1074700079FB2846C8E7204600F094FB6748C4EB38
:10748000C407283000EB87006F4A2146FEF77AFCDC
:10749000054675B16DA040F26711CDE900104C4B67
:1074A0004CA2CDE9024551A10220FFF75BFB284623
:1074B000AAE75A4904EB440000EB0410603101EBE9
:1074C000C0006D4B6D4A2146FFF7E2F9054675B1E4
:1074D0006BA040F26F11CDE900103D4B3DA2CDE90C
:1074E000024542A10220FFF73DFB28468CE72046DB
:1074F00000F018FC49486B4AF83000EB8700214641
:10750000FFF76EFA05466DB101AF67A031C74FF4C2
:10751000BC7100912E4B2FA234A10220FFF722FB59
:10752000284671E7204600F0E9FB04EB8400684937
:1075300000EBC40001EBC000664B674A214600F037
:107540005BFB054665B165A040F28111CDE90010F5
:107550001F4B20A225A10220FFF704FB284653E77A
:1075600000F098FB6648674B00EB4410664A2146E2
:1075700000F0A8FB054665B164A040F28911CDE991
:107580000010134B13A219A10220FFF7EBFA2846B3
:107590003AE700F069FB641CE4B2002C3FF41AAF38
:1075A000284631E7F4CC00206D5A20007D5B200096
:1075B000736572766572206F6E6F666620696E7392
:1075C00074616E63652025642C202578000000001E
:1075D000B5E023002E2E5C5372635C757365725C9C
:1075E000757365725F6170702E6300004E4F5F545B
:1075F00041470000D9582000F55920007365727684
:107600006572206C6576656C20696E7374616E635B
:10761000652025642C2025780000000030CF002054
:10762000315C200073657276657220706F776572C9
:10763000206F6E6F666620696E7374616E6365207D
:1076400025642C2025780000F95C20007365727693
:10765000657220706F776572206F6E6F666620733B
:107660006574757020696E7374616E63652025643E
:107670002C20257800000000156820007569200086
:10768000736572766572206C696768746E65737372
:1076900020696E7374616E63652025642C202578E3
:1076A000000000000D6A2000736572766572206C20
:1076B000696768746E65737320736574757020698B
:1076C0006E7374616E63652025642C20257800003C
:1076D00044D00020CD702000717020005265676991
:1076E00073746572207363656E65206D6F64656C7D
:1076F000207375636365737366756C210000000009
:107700007CD10020257120007D71200052656769C1
:1077100073746572207363656E652073657475702C
:10772000206D6F64656C2073756363657373667534
:107730006C2100002DE9F04385B00446884691464F
:107740001D46002694F82800CDE903084A494BA2BB
:10775000CDE9012140F24B100B46009051A25AA1F5
:107760000220FFF7FFF9002C6DD0A8F580500938F2
:107770002DD0A0F50070F73802D00F2871D14CE061
:10778000022D6ED1B9F8007094F84C100FB10120A1
:1077900000E0002081420AD00FB1012100E0002169
:1077A00084F84C10626C94F82800904701264849F0
:1077B00001AA94F84C00A2C204904FF4AF7000905C
:1077C0002D4B38A240A10220FFF7CCF949E0022D51
:1077D00023D1B9F8007094F84C100FB1012000E0EB
:1077E000002081420AD00FB1012100E0002184F87D
:1077F0004C10626C94F8280090470126354901AA84
:1078000094F84C00A2C2049040F26F1000901A4B02
:1078100024A22DA10220FFF7A5F9012D21D199F86D
:10782000007094F84C00B8420AD00FB1012100E07A
:10783000002184F84C10626C94F8280090470126CF
:1078400094F84C0000E013E001AA23A1A2C2049026
:107850004FF4BF700090084B12A21BA10220FFF74B
:1078600081F92046FEF7C4F94146204600F054F85D
:1078700005B03046BDE8F083BEE423005B25735DB0
:1078800020656E7465722C205345525645525B2517
:10789000645D2C20737263206D6F64656C202530ED
:1078A000345800002E2E5C2E2E5C636F6D6D6F6E53
:1078B0005C7372635C6170705F6F6E6F66665F733E
:1078C00065727665722E63004E4F5F54414700002B
:1078D000980C2400500C24004D6F64656C206C697A
:1078E000676874206C63206F6E6F66662062696ED5
:1078F00064206D657373616765206C656E6774687D
:107900002025642C2076616C75652025642C206F01
:107910006E6F6666202564002DE9F04385B004464D
:107920000E4694F8280022494518224A94F84C0043
:10793000297821A3CDE90132CDE903104FF49670E7
:107940001346009027A230A10220FFF70BF92878F8
:1079500094F84C10884228D04FF49851012704F134
:107960004C084FF480598E4206D0009794F82800B6
:1079700043464A462AF06EFF41F209018E4206D084
:10798000009794F8280043464A462AF063FF41F2E4
:107990000F318E4206D0009794F8280043464A469D
:1079A0002AF058FF94F84C00287005B0BDE8F08329
:1079B00000330020A9E42300205B25735D20656E61
:1079C0007465722C207265706561742076616C75C7
:1079D000652025642C2062696E642076616C756573
:1079E000202564002E2E5C2E2E5C636F6D6D6F6EF5
:1079F0005C7372635C6170705F6F6E6F66665F73FD
:107A000065727665722E63004E4F5F5441470000E9
:107A1000F0B587B004460E461746274D27A0CDE99E
:107A2000010540F20B1100912B4628A230A1022043
:107A3000FFF798F8307830A14FF48672CDE9002135
:107A4000CDE902072B4621A229A10220FFF78AF8DF
:107A50007CB1012F1AD034A0CDE901054FF48B7110
:107A600000912B4619A222A10220FFF77BF807B054
:107A7000F0BD37A0CDE901054FF4887100910E4BA0
:107A800012A21BA10220FFF76DF8F0E7307884F80E
:107A90004C008DF8140094F84D008DF81500206D01
:107AA000069005A920460AF06FFC626C94F84C1011
:107AB00094F828009047DAE78FE42300205B2573D1
:107AC0005D20656E74657220000000002E2E5C2E15
:107AD0002E5C636F6D6D6F6E5C7372635C61707052
