:020000040024D6
:10000000505A012059002400FB012400011E100059
:10001000F9012400F10124002D1524000000000046
:10002000000000000000000000000000151E10008D
:10003000F701240000000000FD012400FF0124005E
:10004000DFF810D000F048FC00F066F800480047E8
:1000500009412500505A01200148804701480047C6
:10006000FD1424002D4125000649074A0868504325
:1000700043F23902104408604008704701490860A3
:1000800070470000A03100206D4EC64110B5431AE4
:10009000934209D28318881803E010F8011D03F871
:1000A000011D521EF9D210BD40EA01039B0703D087
:1000B00009E008C9121F08C0042AFAD203E011F8A7
:1000C000013B00F8013B521EF9D210BDD2B201E053
:1000D00000F8012B491EFBD270470022F6E710B54D
:1000E00013460A4604461946FFF7F0FF204610BDA6
:1000F000421C10F8011B0029FBD1801A704730B553
:1001000004460020034600E05B1C934203D2E05CFF
:10011000CD5C401BF8D030BD70B5054C054D03E0FB
:10012000206820448047241DAC42F9D170BD0000F6
:100130009CBD2500A0BD250030B4044696230800D0
:10014000214604D0B62330BC002200F0AEBA2046CF
:100150000021F8E70EB540F2334102910021CDE9CC
:1001600000110A460B4600F0DDFA03B000BD0EB5E3
:1001700040F2334202920022CDE90022134600F001
:10018000D1FA03B000BD20F00040C20DC0F316004C
:1001900040F400007F2A02DA002001467047002167
:1001A000962A03DCC2F19602D0407047963A00F0DE
:1001B00042BA70B5C1F30A5201F000450024C1F300
:1001C000130140F2FF3341F480119A4201DA00201A
:1001D00070BD40F233439A42A2F2334203DC5242F2
:1001E00000F038FA00E090402C43F1D0404270BD5E
:1001F000FEE707F06BBDFEE7FEE7FEE7FEE7FEE782
:1002000058585247010000003253000000002400FB
:10021000000024008BAB9A470001000000000000A2
:1002200000000000000000000000000000000000CE
:1002300000000000000000000000000000000000BE
:100240002DE9FE4F804681EA0300C00F0C46009066
:1002500021F0004123F00045B8EB0200A94105D28E
:100260004046214690461C460B46024623F000407D
:10027000104347D0270DC7F30A00C3F30A51029079
:10028000401A019040286BDAC3F3130040F4801B3E
:100290000098924620B10023D2EB030A63EB0B0BCC
:1002A00001985946C0F14002504600F0C4F9064694
:1002B0000D4650465946019A00F0DCF910EB080053
:1002C0006141002487EA115284EAE7731A4340D05F
:1002D000009A62B3019A012A4FEA075215DC001B0B
:1002E00061EB02014FF0004202EA0752CDE9004201
:1002F000001C41F5801132462B4600F013FA03B082
:10030000BDE8F08F40462146F9E7001B61EB020192
:10031000001C41F5801300185B412018A2F500175E
:1003200047EB030140EAD570B6196D4111E06D0845
:100330004FEA360645EAC0754FEA0752001B61EBEB
:100340000201001C41F5801149084FEA30000019F4
:10035000514132462B4603B0BDE8F04F00F0D3B90F
:100360000098012240000023D0EB020263EBE0730F
:10037000009821464FEAE074B8EB000061EB0401FD
:10038000E9E783F000435BE781F0004158E72DE99E
:10039000FE4F81EA030404F0004421F00041009480
:1003A0004FF0000B23F0004350EA01045ED052EA04
:1003B00003045BD0C3F30A54C1F30A552C44A4F2DE
:1003C000F3340194A0FB0254C1F3130141F48011F2
:1003D000C3F3130343F4801301FB024400FB034EF9
:1003E000840A970A44EA815447EA8357A4FB0768C2
:1003F00002958D0A05FB07854FEA932C04FB0C54EC
:100400002705029D4FEA065847EA1637B5EB08055F
:100410006EEB070C870E920E47EA811742EA8312B1
:10042000A7FB0201B6EB0B0164EB00042B0D43EAC2
:100430000C335E1844EB1C50DA465146E7FB0201D0
:10044000C5F313044FEA0B3343EA14534FEA043263
:10045000019C43EA0603A4F10C040294009CCDE93C
:1004600000B400F05FF903B0BDE8F08F0020014652
:10047000F9E72DE9F04D81EA030404F0004B21F087
:10048000004514464FF0000A23F0004150EA0502EF
:1004900020D054EA01021DD0C5F30A570246C5F325
:1004A0001303C1F31300C1F30A5640F4801543F45B
:1004B0008013A7EB0608101BD64608F2FD3873EB35
:1004C000050002D308F1010801E092185B41B8F180
:1004D000000F03DA00200146BDE8F08D00204FF444
:1004E0008011064684460EE0171B73EB050705D303
:1004F000121B63EB050306434CEA010C49084FEA63
:10050000300092185B4150EA0107EDD152EA030036
:1005100012D082EA040083EA0501084305D0101BCB
:10052000AB4106D20122002306E000224FF0004337
:1005300002E06FF0010253101AEB06004CEB085179
:1005400010EB0A0041EB0B01BDE8F04D00F0DBB809
:10055000C1F30A5210B5C1F3130140F2FF3341F465
:1005600080119A4201DA002010BD40F233439A42D2
:10057000A2F2334203DC524200F06CF810BD90400E
:1005800010BD00F0004230F000400AD0C10D01F56E
:100590006071C0F3160042EA0151C20840071143DE
:1005A000704700200146704730B50B4601460020D9
:1005B0002022012409E021FA02F59D4205D303FA25
:1005C00002F5491B04FA02F52844151EA2F10102A6
:1005D000F1DC30BD2DE9F05F0546002092469B46D8
:1005E00088460646814640241BE028464146474649
:1005F000224600F02FF853465A46C01A914110D3B4
:1006000011461846224600F016F82D1A67EB01082D
:100610004F4622460120002100F00DF817EB00099B
:100620004E41201EA4F10104DFDC484631462A4633
:100630004346BDE8F09F202A04DB203A00FA02F18D
:10064000002070479140C2F1200320FA03F31943C0
:1006500090407047202A04DB203A21FA02F0002162
:10066000704721FA02F3D040C2F1200291400843C2
:1006700019467047202A06DBCB17203A41FA02F0D0
:1006800043EAE07306E041FA02F3D040C2F12002EF
:1006900091400843194670470029A8BF7047401C85
:1006A000490008BF20F00100704710B4B0FA80FC88
:1006B00000FA0CF050EA010404BF10BC704749B1C5
:1006C000CCF1200421FA04F411FA0CF118BF012135
:1006D00021430843A3EB0C01CB1D4FEA00614FEA15
:1006E000102042BF002010BC704700EBC3501044E4
:1006F0000029A4BF10BC7047401C490008BF20F06F
:10070000010010BC704710B5141E73F1000408DA24
:10071000401C41F1000192185B411A4301D120F0C5
:10072000010010BD2DE9F04D92469B4611B1B1FA82
:1007300081F202E0B0FA80F220329046FFF77BFFB0
:1007400004460F4640EA0A0041EA0B0153465A4666
:10075000084313D0114653EA010019D0C8F14002F2
:100760005046FFF777FF05460E465046594642462B
:10077000FFF761FF084305D0012004E02046394619
:10078000BDE8F08D0020054346EAE0762C43374370
:100790000A986305E40AA0EB08000022FD0A44EA77
:1007A00047540A3002D500200146E9E70105101937
:1007B0006941DDE9084500196941BDE8F04DA2E74E
:1007C0002DE9F041054621F000400C46284309D0B0
:1007D000C4F30A5040F23341884205DD28462146E1
:1007E000BDE8F0812846FBE740F2FE31884210DC8C
:1007F0000CDB4FEA043040EA155050EA053105D0D1
:10080000104804F0004101430020E9E700200146C0
:10081000E6E7A0F233404642C6F1400228462146B0
:10082000FFF709FF07468846284621463246FFF76C
:1008300011FF43463A46FFF766FF3246BDE8F041F6
:10084000FFF7F9BE0000F03FC1F30A52C1F31301F4
:1008500040F2FF3341F480119A4202DA002001464F
:10086000704740F233439A42A2F2334202DC5242D2
:10087000FFF7F0BEFFF7DFBE30B5041E71F10004D4
:1008800004DB4FF00044404264EB0101141E73F19D
:10089000000405DB1C464FF00043524263EB0403A7
:1008A0008B4208BF824230BD30B5041E71F1000496
:1008B00004DB4FF00044404264EB0101141E73F16D
:1008C000000405DB1C464FF00043524263EB040377
:1008D000994208BF904230BD064C074D06E0E068E3
:1008E00040F0010394E8070098471034AC42F6D377
:1008F000FFF7AAFB5CBD25009CBD250070B58C18D8
:1009000010F8015B15F0070301D110F8013B2A1123
:1009100006D110F8012B03E010F8016B01F8016B10
:100920005B1EF9D12B0705D40023521E0DD401F80C
:10093000013BFAE710F8013BCB1A921C03E013F8D5
:10094000015B01F8015B521EF9D5A142D8D300200A
:1009500070BDF0B5002508222B4650F8227051F8E2
:100960002260BE1943EB030476195C4104F00104D4
:100970001C4301D0012500E0002540F82260044618
:10098000521EEAD5002150F8212012B9491C09292C
:10099000F9DBC1F109016162F0BDF0B50024082363
:1009A000254650F8236051F82370F61945EB0507EA
:1009B00036196F4107F001042C4301D0012400E0F7
:1009C000002442F823605B1EEBD5002052F8201073
:1009D00011B9401C0928F9DBC0F10901C2E9091568
:1009E000F0BD000010B51446FFF7D7FFA06A20B194
:1009F0002046BDE8104000F01DB80D4B606A596AF2
:100A000088420ED813D3C0F1090108E053F8212021
:100A100054F8210082420AD803D301F101010929C7
:100A2000F4D32046BDE81040014900F0E1BC10BD00
:100A300020AE250010B58CB0044601466A46074832
:100A400000F036FC694624222046FFF71FFB099878
:100A500060620020A0620CB010BD000020AE250036
:100A60002DE9F0410446DFF808C1806A8CB04FF0F0
:100A7000000848B16246606A536A2146984250D8DD
:100A800027D3C0F1090022E04FF000014FF0080029
:100A9000424654F820505CF82030ED1842EB020337
:100AA0006D18534103F00101114301D0012100E011
:100AB000002144F82050401EEBD518E052F82030B9
:100AC00051F82050AB4204D82BD300F10100092883
:100AD000F4D36A46264800F0EBFB694625462422FB
:100AE0002046FFF7D3FA09986862C4F828800022EC
:100AF0001046454654F82010491945EB02035A08A0
:100B00004FEA310244F8202021F001028A1A00F154
:100B1000010023460928EDD3002054F8201001BB22
:100B20001CE00023082241465CF8225054F82200C1
:100B3000EE1841EB0107861B71EB07062B4406D22A
:100B4000C01A001C44F822004FF0010303E0C31A4E
:100B500044F822300023521EE6D5C8E7401C09287D
:100B6000DBDBC0F1090058620CB0BDE8F081000089
:100B700020AE250010B5122000F039FD08F000FE6F
:100B800004490446896A88472046BDE8104008F0B9
:100B9000B9BD0000402E002010B5C6F539FB10B1DC
:100BA00006F022FD10BDBDE81040EDF51FBE0000AF
:100BB0002DE9F04FADF5317D814600F12C0B583019
:100BC0008890859001F12C008490CDE989012C302A
:100BD0000E4687908690154624211046FFF77DFA31
:100BE000002405F12C076C62B84624213846AC621B
:100BF000FFF773FA7C62BC622C3724213846FFF77A
:100C00006CFA7C6237A82421BC62FFF766FA409434
:100C10000BA824214194FFF760FA149442A82421E0
:100C20001594FFF75AFA4B9416A824214C94FFF719
:100C300054FA1F9421A824212094FFF74EFA2A94F5
:100C4000684624212B94FFF748FA09944DA82421E3
:100C50000A94FFF742FA569458A824215794FFF7B4
:100C60003CFA619463A824216294FFF736FA6C94ED
:100C70002CA824216D94FFF730FA359479A824210B
:100C80003694FFF72AFA82946EA824218394FFF702
:100C900024FA77944846A149789413F001FC9F4CBC
:100CA000010004F12C0A04F1580409D151465846B8
:100CB00013F0F6FB20B92146889813F0F1FB28B118
:100CC0003046964913F0ECFB78B339E0304693494F
:100CD00013F0E6FB50B95146849813F0E1FB28B9B4
:100CE0002146879813F0DCFB00287DD02422314672
:100CF0002846FFF7CBF9706A6862B06AA862849DE3
:100D00004446242229464046FFF7C0F9686A6062DB
:100D1000A86AA062879C242221463846FFF7B6F9CC
:100D2000606A7862A06AB862F5E0FFE7514684988D
:100D300013F0B6FB20B92146879813F0B1FB28B118
:100D40004946304613F0ACFBB8B122E04C462422B1
:100D500049462846FFF79AF9606A6862A06AA86265
:100D60005D464446242259464046FFF78FF9686A9B
:100D70006062A86AA062889CCDE75946849813F007
:100D80008FFB002830D1306D012802D8F06C00288C
:100D9000ABD037AA8599899800F0CEF90BAA5846AE
:100DA000869900F0C9F942AA85998A9800F0C4F999
:100DB00016AA4846869900F0BFF916A942A813F072
:100DC0006FFB00287ED021AA0BA937A800F09AFA61
:100DD0006A4616A942A800F095FADDE9850158AAED
:100DE00000F0AAF9A5A800E07BE02421FFF775F93F
:100DF0000024AE9484A82421AF94FFF76EF98D945B
:100E00008FA824218E94FFF768F998949AA824213A
:100E10009994FFF762F96946A39463AA0846A494DB
:100E200000F08AF92CAA694663A800F085F921A987
:100E300079AA084600F080F96EAA16A963A800F006
:100E40007BF99AAA02216EA800F058F984AA58A941
:100E500079A800F071F98FAA2CA984A800F052FAA1
:100E60004DAA9AA98FA800F04DFA2A464DA96846C6
:100E700000F062F984A82421FFF72FF98D948FA840
:100E800024218E94FFF729F998949AA82421999403
:100E9000FFF723F9A39484AA4DA96EA8A49400F0A7
:100EA00031FA8FAA84A921A800F046F99AAA0BA9C1
:100EB0002CA800F041F942469AA98FA800F022FA26
:100EC0003A4600E008E058A92CA800F035F90120C6
:100ED0000DF5317DBDE8F08F0BA937A813F0E0FACE
:100EE000A8B10E4E242231462846FFF7CFF8706A8B
:100EF0006862B06AA862564645462422514640467A
:100F0000FFF7C4F8706A6862B06AA86203E729460E
:100F1000484600F005F80020DAE700009CAE250006
:100F20002DE9F04F0C465B4E016D06F12C0858364A
:100F3000F9B0834600F12C0500F1580A04F12C09A0
:100F400004F15807012902D8296A00297ED05149A5
:100F500013F0A6FA50B94146284613F0A1FA28B971
:100F60003146504613F09CFA002873D037AA5146F8
:100F70005846FFF737FD42AA5146584600F0C2F9DD
:100F80004DAA42A937A800F0D7F80BAA03214DA813
:100F900000F0B4F86A465146284600F0CDF837AA6A
:100FA0006946284600F0C8F816AA37A9584600F046
:100FB000C3F80BA937AA084600F0BEF842AA0821D8
:100FC00016A800F09BF821AA42A937A800F09AF9C8
:100FD00037AA694621A800F0AFF82246022137A8B7
:100FE00000F08CF8294637AA084600F0A5F86946B3
:100FF0002CAA084600F0A0F842AA2CA937A800F0B5
:101000009BF84DAA082142A800F078F858AA0421BC
:1010100016A800F073F863AA21A958A800F072F985
:101020006EAA63A90BA800F087F84A464DA96EA8DE
:1010300000F068F937AA69462CA800F07DF83A4616
:10104000082137A800F05AF8002000E002E079B04B
:10105000BDE8F08F0F4D242229462046FFF716F8F1
:10106000686A6062A86AA06245464C4624224146EE
:101070004846FFF70BF8686A6062A86AA0622422FB
:1010800031463846FFF702F8706A7862B06AB86293
:10109000DAE700009CAE25002DE9F043154F044629
:1010A000154EF87D10258BB091468846FF2806D056
:1010B000716EC20005FA02F0814301437166694610
:1010C00004F1580003F00EFDF87DFF2804D0716E86
:1010D000C0008540A943716642466946204600F03B
:1010E0002BF84A46694604F12C0000F025F80BB0B5
:1010F000BDE8F0834007002000000E40F0B400255A
:1011000008232F4650F823602C463D46E6FB014558
:1011100042F823405B1EF5D5002152F8213013B967
:10112000491C0929F9DBC1F109035362806A906205
:10113000F0BC104616F0C6BD2DE9F74FA0B08246B0
:101140000C46684683464821FEF7C7FF4FF000096A
:10115000CDF848900821CDF84C90002208204D464B
:1011600046180BEB860354F820805F685AF821C0BC
:10117000BE1845EB0502ECFB08625E60401EEFD531
:10118000491EEAD56946002051F8202012B9401CBA
:101190001228F9DBC0F112008864DAF82800A16A8D
:1011A000884201D0012000E0002000246D46139009
:1011B00000E0641C55F8240008B9092CF9D31398F1
:1011C0002D491E9012988B6C2A46984215D818D338
:1011D000C0F112000DE051F8203052F82060B34207
:1011E00006D0B34201D2012000E0002028B908E077
:1011F000401C1228EFDB00E0641C55F82400002896
:10120000FAD005EB8401242214A8FEF73FFF14A9AD
:10121000002051F8202012B9401C0928F9DBC0F148
:101220000900486204F109001228084615D216F098
:1012300049FD14A82022011DFEF728FF05EB8400BC
:1012400014A9406A1C900020641C51F82020002A38
:10125000E5D1401C0928F8DBE1E716F033FD229CBC
:1012600014A924222046FEF711FF1D9860621E98E3
:10127000A06223B0BDE8F08F4CAE250010B543420C
:10128000421E0A60C1E901304FF0000001F1100C6C
:101290004FF0FF34C8608CE815008862C1E907434D
:1012A00001D0092000E00820486210BD0EF0C6BA47
:1012B000F0B500240823274651F8236050F8235046
:1012C00016EB040C47EB070EB5EB0C0C77EB0E0C92
:1012D000344406D22C1B241C42F823404FF0010456
:1012E00003E02D1B42F8235000245B1EE4D50020B0
:1012F00052F8201011B9401C0928F9DBC0F109008F
:101300005062F0BD2DE9F0410F460346816A012588
:10131000B86A1446002641B190B3786A596A884287
:1013200044D849D3C0F109003EE020B139461846FF
:10133000FFF733FB16E0586A796A88420ED81BD350
:10134000C0F1090008E057F8202053F820108A4225
:1013500012D803D300F101000928F4D322463946FC
:10136000184626E02149A662606A4A6A904234D84B
:1013700039D3C0F109002EE02246194638461EE056
:10138000FFE739461846FFF708FB2046A562BDE88F
:10139000F041FFF74FBB53F8202057F820108A4246
:1013A0000AD803D300F101000928F4D322461946D4
:1013B0003846FFF77DFFD5E7224639461846FFF746
:1013C00077FFE2E751F8203054F8202093420AD802
:1013D00003D300F101000928F4D32046BDE8F04111
:1013E000024900F005B8BDE8F081000020AE2500FC
:1013F000F0B5002308221E4651F8225050F8224032
:10140000EF1846EB060CE71B76EB0C072B4406D2D5
:10141000E31A1B1C40F822304FF0010303E0E41AEA
:1014200040F822400023521EE6D5002150F821202A
:1014300012B9491C0929F9DBC1F109014162F0BD6A
:1014400070B50B460446816A0025986A8CB0012667
:1014500041B140B1586A616A884239D846D3C0F177
:10146000090033E030B10CB02046BDE870401946A9
:10147000FFF76FBA606A596A884237D80ED3C0F155
:10148000090008E053F8202054F820108A4205D8BB
:101490002CD300F101000928F4D327E06A46214645
:1014A0001846FFF705FF694624222046FEF7EEFDA9
:1014B0000998C4E909060CB070BD54F8202053F80F
:1014C00020108A4212D803D300F101000928F4D376
:1014D0006A4621461846FFF7EBFE6946242220465D
:1014E000FEF7D4FD0998C4E90905E4E70CB02046ED
:1014F000BDE870401946FFF77BBF00000248016855
:1015000041F470010160704788ED00E00248006816
:10151000001D0EF0AFBC0000D02C00200248406837
:10152000001D0EF0A7BC0000D02C0020FEE700003C
:101530000FB4054B10B503A9044A029800F0BCFC97
:1015400010BC5DF814FB0000E1972400F42C00208F
:101550000FB41CB50246002007AC00290BD0491E71
:10156000CDE90021054B6A462146069800F0A4FC0F
:10157000009A002111701CBC5DF814FBE7252400C3
:101580000FB4084B10B504A902AA039800F094FC0C
:10159000044602A9002001F031F8204610BC5DF895
:1015A00014FB0000FD2524007CB5044600201D46E8
:1015B000164600290BD0491ECDE90041044B6A466E
:1015C0002946304600F078FC009A002111707CBD5D
:1015D000E7252400002809DB00F01F0201219140CB
:1015E0004009800000F1E020C0F880127047002818
:1015F00009DB00F01F02012191404009800000F149
:10160000E020C0F880127047002809DB00F01F02BC
:10161000012191404009800000F1E020C0F8001154
:101620007047002809DB00F01F02012191404009AA
:10163000800000F1E020C0F800117047002804DBB2
:1016400000F1E02090F80004704700F00F0000F176
:10165000E02090F8140D7047002804DB00F1E02032
:1016600090F80004704700F00F0000F1E02090F8BF
:10167000140D7047002804DB00F1E02090F800040E
:10168000704700F00F0000F1E02090F8140D704753
:10169000002804DB00F1E02090F80004704700F01F
:1016A0000F0000F1E02090F8140D7047002804DBD3
:1016B00000F1E02090F80004704700F00F0000F106
:1016C000E02090F8140D7047002804DB00F1E020C2
:1016D00090F80004704700F00F0000F1E02090F84F
:1016E000140D7047002804DB00F1E02090F800049E
:1016F000704700F00F0000F1E02090F8140D7047E3
:10170000002804DB00F1E02090F80004704700F0AE
:101710000F0000F1E02090F8140D704702480068B7
:10172000C0F30220704700000CED00E002480068A2
:10173000C0F30220704700000CED00E00248006892
:10174000C0F30220704700000CED00E00248006882
:10175000C0F30220704700000CED00E00248006872
:10176000C0F30220704700000CED00E00248006862
:10177000C0F30220704700000CED00E00248006852
:10178000C0F30220704700000CED00E0EFF3108082
:1017900070470000000000002DE9F0412DED020B24
:1017A0009FED3D0B2DED028B9FED3D8BDDE902544E
:1017B000C4F30A50A0F2FF36142E37DA002E18DADE
:1017C00053EC102B9DED020B51EC100BFEF738FD86
:1017D00053EC182BFFF768F857D2002CBCBF4FF022
:1017E0000044002551DB54EA050018BF2E4C1BD1E4
:1017F0004BE02E4820FA06F704EA070028431FD0E2
:1018000053EC102B9DED020B51EC100BFEF718FD65
:1018100053EC182BFFF748F837D2002C03DD4FF4B8
:101820008010F0400444BC4300252EE0332E07DC3A
:10183000A6F114004FF0FF3121FA00F73D4206D126
:101840009DED020BBDEC028B02B0BDE8F08153ECC4
:10185000102B9DED020B51EC100BFEF795FD53EC98
:10186000182BFFF721F810D2002C0DDD142E08BF25
:10187000641C09D0C6F13400012101FA00F02844AB
:10188000A84238BF641C0546BD43CDE902549DED16
:10189000020BD7E7000000009C7500883CE4377E0F
:1018A00000000000000000000000F03FFFFF0F00FC
:1018B00010B52DED020B2DED088B84B09DED0C0BBA
:1018C00051EC100BFEF77CFF41EC180B9DED0C0B5F
:1018D00053EC182B51EC100BFEF753FD41EC190B98
:1018E0000D989FED290B10F0004F53EC102B51EC8D
:1018F000190B9FED21AB9FED22BB0ED0FEF7BCFF75
:101900000ED953EC1B2B51EC190BFEF7CDFF1CD25B
:1019100014E000BF41EC180B17E0FEF7ADFF06D254
:1019200053EC1A2B51EC180BFEF72BFDF2E753EC9E
:101930001B2B51EC190BFEF7B7FF06D853EC1A2BF3
:1019400051EC180BFEF77CFCE4E78DED028B9DED6E
:101950000C0B18EE901A10EE900A8DED000B61F34F
:101960001E0003909DED020B04B0BDEC088B02B08D
:1019700010BD000000000000000000000000F03F6B
:10198000000000000000E03F000000000000E0BF99
:1019900002E008C8121F08C1002AFAD17047704738
:1019A000002001E001C1121F002AFBD1704780F323
:1019B000108870472DE9F74F07460298DFF86CA1B1
:1019C000DFF86C814FEA500B5A48019D5C46564641
:1019D000CAF80000D8F804203F2060F30502C8F8D8
:1019E0000420DAF8000020F4700040EA0750CAF83A
:1019F0000000DAF8000020F4702040EA0740CAF83E
:101A000000000D2F02D00E2F04D007E0306840F404
:101A1000004002E0306840F480403060306840F4BC
:101A200000503060306820F060503060306820F046
:101A30000F0040F003003060002000F0AFF80128F4
:101A400072D13168B24641F0804131600020424697
:101A500009E0D8F8083043F48033C8F80830811C16
:101A600000F1010005D091689046C1F300210029E2
:101A7000EFD1072000F092F8012855D142E000266E
:101A80004FF47A7924E04E451ED9DAF8001021F09F
:101A90008041CAF80010DAF8001041F00041CAF89D
:101AA0000010DAF8001021F00041CAF80010002000
:101AB00000F074F8012837D11F484169491C416181
:101AC0000520BFF52FF87FE70120BFF52BF8761C26
:101AD000D8F80800C0F300200028D4D0D8F80800B7
:101AE000434600F07F02A24200D92246002006E0D1
:101AF000196825F8021B090C25F8021B401C9042AE
:101B0000F6D3A41A002CBAD10298C00707D04046D9
:101B10008168C1F300210029FAD000682880BDE85F
:101B2000FE4F002000F03AB8BDE8FE8F00A800404C
:101B300000E000400A070807C42E00202DE9F0410C
:101B40001249044600200860104980390860104D91
:101B5000686A104E00F00101494201403062C80538
:101B60000DD440F20117A869B84208D024B1012071
:101B7000641EBEF5D7FFF6E70020BDE8F0810648F9
:101B80000068B0616868F0610120F6E794581C4273
:101B900000E00040C42E002000A800402DE9F041E4
:101BA000104F0546F868C0F30240A84217D0F86805
:101BB00020F007002843F86000244FF6FF76F8680D
:101BC000C0F30240A84205D00120BEF5ABFF641C63
:101BD000B442F4D3B44202D10020BDE8F081012028
:101BE000FBE7000000E000402DE9FF5F82B000212C
:101BF000DDE90430020DDDF840B0034318D044F6AF
:101C00001050A2F2FF3242431514119801281FD040
:101C1000A5EB0B00401C5FEA000A4FF000064E4F98
:101C2000DFF83891B046504615D5CAF1000413E0EC
:101C3000119801244AA3012801D16FEA0B010298EF
:101C4000119AC0E90031C0E9024206B0BDE8F09F38
:101C5000CBF10000DFE704460021404A491842EB7F
:101C60000450CDE9001012E0E00707D032463B46B1
:101C700040464946FEF78BFB8046894632463B4646
:101C800010461946FEF783FB06460F466410002CEB
:101C9000EAD1DDE90401DDE90023BAF1000F06DA3B
:101CA000FEF775FB42464B46FEF771FB05E0FEF77B
:101CB000E0FB42464B46FEF7DCFB04460E460022A4
:101CC000284BFEF7F1FD03D84FF0FF30014607E047
:101CD0000022254B20463146FEF7B2FAFEF7B4FD4E
:101CE000102409E0002C0ADB0A220023FEF772FC14
:101CF000039B30321A55641E50EA0102F2D1641C73
:101D0000039AC4F111031444119A012A03D0012249
:101D100008430DD10AE0084304D000204FF0110B16
:101D2000119072E7A3EB0B056D1E0DE05B4504DD22
:101D30004FF0000205F1010504E003DA4FF0000264
:101D4000A5F10105002AECD002981199C0E90231F1
:101D5000C0E9004579E70000000014400000F03FB2
:101D6000300000000000F0430000E03FF0B50D46F9
:101D70002DED068B89B006469FED439B20216846DA
:101D8000FEF7ABF9B0EE498AF0EE698A1022694697
:101D90003046FFF70FFE00246F4607EB4400008A31
:101DA000FEF7D8F953EC182BFEF74AFA641C41EC05
:101DB000180BE4B2082CF0D351EC180B9FED340B48
:101DC00053EC102BFEF7E3FA41EC180B0D2E02D06A
:101DD0000E2E32D04FE06888FEF7BCF99FED2E1B27
:101DE00053EC112BFEF745FB9FED2D0B41EC190B2E
:101DF00051EC100B81F0004141EC1A0BA888FEF762
:101E0000A9F953EC1A2BFEF7C2FA41EC1A0B2888F9
:101E1000FEF7A0F953EC182BFEF7B6FA53EC1A2B89
:101E2000FEF727FB9FED201B53EC112BFEF721FB48
:101E300053EC192BFEF704FA1BE09FED1D0B51EC40
:101E4000100B81F0004141EC1A0BA888FEF782F9D3
:101E500041EC190BE888FEF77DF953EC182BFEF7DF
:101E600093FA53EC192BFEF704FB53EC1A2BFEF7F5
:101E70008EFA41EC190B09B0B0EE490AF0EE690A8E
:101E8000BDEC068BF0BD000000000000000000006B
:101E9000000000000000C03F0000000000005940AA
:101EA0000000000000000040DE718A8EE4F25FBF97
:101EB000B76DDBB66DDB0E402DE9FF4F95B09B464D
:101EC0008946064600250FE2252877D100242746BB
:101ED000F84A0121059400E0044316F8013F203B35
:101EE00001FA03F01042F7D130782A2811D06FF0B0
:101EF0002F033078A0F13002092A16D8059A44F051
:101F0000020402EB820203EB42021044761C0590AD
:101F1000EFE759F8042B0592002A03DA504244F403
:101F20000054059044F00204761C30782E2816D117
:101F300016F8010F44F004042A280DD06FF02F0288
:101F40003078A0F13003092B09D807EB870302EBA7
:101F50004303C718761CF3E759F8047B761C3078E6
:101F60006C280FD006DC4C2817D068280DD06A28C2
:101F700014D104E0742810D07A280FD10DE044F475
:101F800000140AE044F4801401E044F44014727830
:101F9000824202D104F58014761C761C30786628C3
:101FA0000BD013DC582877D009DC002875D04528E1
:101FB000F6D04628F4D047281AD19DE118E06328CE
:101FC00035D0642879D0652812D195E1702873D076
:101FD00008DC6728F1D069286FD06E280DD06F28F3
:101FE00006D1B5E073282CD0752875D0782874D028
:101FF0005A46179990476D1C75E1C4F302500228A8
:1020000009D003280DD0D9F8001004280DD00D6098
:1020100009F1040967E1D9F80010EA17C1E9005293
:10202000F6E7D9F800100D80F2E70D70F0E719F827
:10203000041B8DF8001000208DF80100EA460120F5
:1020400003E059F804AB4FF0FF3061074FF0000197
:1020500002D40DE008F101018846B9420FDA80454B
:10206000F8DB1AF808100029F4D108E008F10101A2
:1020700088468142FADB1AF808100029F6D1059843
:102080005B46A0EB080721463846179A00F094FA01
:10209000284400EB080507E04DE029E10DE01AF8BF
:1020A000010B5A4617999047B8F10108F7D25B46E1
:1020B00021463846179A13E142E00A220092C4F3FF
:1020C00002524FF0000A022A08D059F804CB032A22
:1020D0004FEAEC710AD00DE029E02AE009F107018E
:1020E00021F00702F2E802C1914609E00FFA8CFCE8
:1020F0004FEAEC71042A03D14FFA8CFC4FEAEC71E1
:10210000002907DA0A460021DCF1000C61EB02012C
:102110002D2202E0220504D52B228DF80420012275
:1021200003E0E20701D02022F7E7904659E00A21B8
:1021300002E010220DE010214FF0000A00910BE0A8
:1021400010224FF0000A44F004040827009203E034
:1021500008224FF0000A0092C4F30252022A05D06E
:1021600059F804CB0021032A08D009E009F107013E
:1021700021F00702F2E802C1914605E01FFA8CFC4B
:10218000042A01D10CF0FF0C4FF00008220728D5DB
:10219000702806D0009B83F0100353EA0A0305D091
:1021A0000EE040228DF80420012208E05CEA0102E2
:1021B00006D030228DF804208DF8050002229046CA
:1021C000009B83F0080353EA0A030AD15CEA010288
:1021D00001D1620705D530228DF804204FF00108A7
:1021E0007F1E582804D034A003900EA802900DE062
:1021F00036A0F9E753466046009AFEF7EBF98446AD
:102200000398825C0298401E029002705CEA010012
:10221000F0D1029806A9081A00F1200A600702D539
:1022200024F4803400E00127574502DDA7EB0A00C3
:1022300000E0002000EB0A01009005984144401A9C
:102240000590E00306D45B462146179A059800F0F6
:10225000B3F90544002706E001A85A46C05D179966
:1022600090476D1C7F1C4745F6DBE0030CD55B46B1
:102270002146179A059800F09FF9054404E03020A4
:102280005A46179990476D1C0099481E00900029E6
:10229000F5DC08E0029802995A460078491C029140
:1022A000179990476D1CBAF10001AAF1010AF1DCFF
:1022B00065E100000928010030313233343536370A
:1022C0003839616263646566000000003031323382
:1022D0003435363738394142434445460000000022
:1022E00000F058F90544761C307800287FF4ECADF6
:1022F00019B02846BDE8F08F620700D4062709F11F
:10230000070222F0070CFCE80223E14603F0004834
:102310005FEA080C02D00FF2702C0DE05FEA045C5B
:1023200002D50FF2682C07E05FEAC47C02D00FF2FE
:10233000602C01E0AFF2700C4FF0FF3823F0004347
:10234000CDF850C065280CD006DC452809D04628B9
:102350001DD047283DD13DE0662818D067287ED1A2
:1023600038E00021112F01DB112000E0781CCDE9BD
:10237000000106A90EA8FFF737FCDDE90F010E9A50
:1023800003910021009207F1010A04914DE04FF002
:1023900000400097CDE9011006A90EA8FFF724FC24
:1023A000DDE90F0203920E9B11990022DDF80CA0CB
:1023B0000093049211B9791C00EB010AB7EB0A00F3
:1023C00004D4C0F1FF3007F1010A0490AAEB070022
:1023D000019044E0012F00DA01270021112F01DDD7
:1023E000112000E03846CDE9000106A90EA8FFF74C
:1023F000FBFBDDE90F010E9A03910021049100928D
:10240000BA4621070CD40399514500DA8A46BAF13D
:10241000010F05DD009AAAF10101515C302908D0B5
:10242000B84202DA10F1040F06DA0121CDE90110F9
:1024300015E0AAF10101E9E7002805DC049901444F
:102440000491AAEB000102E0411C514500DD8A46DF
:102450000499401A401C01904FF000400290200760
:1024600004D40198504501DBCDF8048000208DF89C
:102470004F0002980DF14F07B0F1004F25D02B20EF
:102480000E9002984FF0020800280CDA40420290A9
:102490002D200E9007E00A210298FEF785F83031D2
:1024A000029007F8011DB8F10001A8F10108F2DC63
:1024B00002980028EFD1791E0E980870307800F04D
:1024C000200040F0450007F8020D12A8C01B00F1E3
:1024D00007081498007800B1012000EB0A01019868
:1024E00001EBE07105984144401A401E0590E0035D
:1024F00006D45B462146179A059800F05DF805441E
:102500001498007818B15A46179990476D1CE0034B
:1025100024D55B462146179A059800F04DF80544EE
:102520001CE00498002807DBDDE90301884203DD95
:102530000098405C179901E0179930205A4690475F
:10254000049805F10105401C04900198401E01907B
:1025500004D12E205A46179990476D1CBAF10001FC
:10256000AAF1010ADDDC05E017F8010B5A461799BC
:1025700090476D1CB8F10001A8F10108F4DC5B463E
:102580002146179A0598ABE62D0000002B000000AD
:10259000200000002DE9F041044600251E461746A4
:1025A000880404D405E039462020B0476D1C641E21
:1025B000F9D52846BDE8F0812DE9F0410446002513
:1025C0001E469046C80301D5302700E02027880426
:1025D00004D505E041463846B0476D1C641EF9D568
:1025E0002846BDE8F0814A68002A06D00A68531CD4
:1025F0000B6010704868401E486070470A68531CA2
:102600000B6010707047000070B504466FF0130542
:10261000552811DA412C0DDA2D2C06DA14F10A0FA7
:1026200001DB032009E0AC4201DB042005E014F1EA
:102630001E0F01DB052000E0062010F02FFA16F037
:1026400013F8A8B116480068C0F3805080B904F1AF
:1026500014011448142902D240F21D6106E0AC4274
:1026600002DA40F2FA5101E04FF4C8614161C16100
:1026700016F00AF8002811D0BFF622FD3C2C06DD2A
:10268000032802D06FF00C0004E00D2002E0322C91
:1026900004DA1C20BDE870400EF066BA70BD000080
:1026A00014A8004090A3002010B51A4940F21A4423
:1026B0004FF4B9720B694FF496710C3BA3420FD9DA
:1026C0000424BE2801DC0C241BE0DC2801DC0824E7
:1026D00017E0FA280EDD884210DD904211DD0FE090
:1026E000BE2801DC0B240CE0DC2801DC072408E018
:1026F000FA2801DC062404E0884201DC052400E01D
:102700000324204610F0DEF92046BDE8104010F00A
:10271000BBB9000090A300200648016841F0010108
:10272000016006480449016005494160054981602E
:102730007047000060300020419F2400C8A60020A0
:10274000BD9D2400F19724002DE9F0411D469046DF
:10275000DDE906230F4606460D498020C1F581F8C4
:10276000044680F83C50202239463D30FDF78EFC6F
:102770002022314604F15D00FDF788FC04F13C02A3
:1027800041462046BDE8F0414123C1F5EFB90000C4
:1027900095272400C1F54AB92DE9F0471D46DDE92A
:1027A000097392468946064600221F49A820DDF893
:1027B0002080C1F556F8002180F8A510C7630446B3
:1027C00080F85010012084F85100D8F80010C4F8A7
:1027D0005210B8F80410A4F8561098F8060084F8BF
:1027E00058002868C4F85900A888A4F85D00A879A2
:1027F00084F85F001022514604F16000FDF746FCAA
:102800001022494604F17000FDF740FC07483246AB
:1028100006490068C4F880002046BDE8F047202340
:10282000091DC1F5A3B900003128240080AD2500A1
:102830002DE9F0478A4604460027C1F5F7F850B362
:1028400094F8A5004FF0010904F1500804F1400686
:1028500030B104F1850501280DD0022828D11BE0F4
:10286000102251463046FDF711FC002084F8840008
:1028700084F8A59009E0102251462846FDF706FC91
:1028800084F88490022084F8A5003523424631461E
:102890002046C1F56BF90BE01022514604F195007A
:1028A000FDF7F4FBE36B29460020A2699847012756
:1028B0003846BDE8F08700002DE9F05F9B46924660
:1028C0000546DDE90D230AA8894690E8C0011C49A8
:1028D0008020C0F5C6FF0446102249466D30FDF742
:1028E000D5FB1022514604F15D00FDF7CFFB10220D
:1028F000594604F14D00FDF7C9FB3088A4F84A00A1
:10290000B07884F84C003968C4F84310B988A4F84A
:102910004710B87984F84900D8F80000E063B8F8A7
:102920000400A4F8400098F8060084F8420004F17E
:102930003C0229462046BDE8F05F4123C1F516B9A7
:1029400045292400C1F572B82DE9F0411F46904693
:10295000DDE906230E4605460F498C20C0F581FFB0
:102960000446202229466C30FDF790FB2022314698
:1029700004F14C00FDF78AFB04F13C0010223946BB
:102980000546FDF783FB2A4641462046BDE8F04157
:102990005023C1F5EBB800009D292400C1F546B8CD
:1029A00006460F46154672B63846FDF7A1FB40288D
:1029B00001D9402002E03846FDF79AFB80463046B8
:1029C000FDF796FB402801D9402002E03046FDF794
:1029D0008FFB04469C211048FDF77FFB4246394699
:1029E0000D48FDF753FB0C48224631465C30FDF79D
:1029F0004DFB09484FF0AA31016445644FF0BB31EB
:102A000081644FF0CC3101654FF0DD3181650020EC
:102A100000F004F8FEE700009C39002030B5ADF26C
:102A20000C4D04464FF4806103A8FDF756FB184D8A
:102A3000202085F83F0085F89B003CB12846012CFA
:102A4000436DC26C09D0022C0CD00FE0104A11A1CA
:102A50005C3203A8FEF794FD08E011A103A8FEF77D
:102A60008FFD03E016A103A8FEF78AFD03A90BA2C0
:102A7000686CCDE90121009018A3054A18A1002037
:102A800000F030FD00F0FAFC0DF20C4D30BD0000FE
:102A90009C3900205B4552524F525D202573000047
:102AA0005B5741524E494E475D20506172616D3017
:102AB0003A25642C506172616D313A256400000042
:102AC0005B504152414D5D20506172616D303A253D
:102AD000642C506172616D313A2564000000000081
:102AE0006170705F6173736572742E630000000023
:102AF000014815F089B90000F82C002006460F4661
:102B000090461D4672B64046FDF7F2FA402801D9BC
:102B1000402002E04046FDF7EBFA04469C210D48B8
:102B2000FDF7DBFA224641460A48FDF7AFFA0948AD
:102B30004FF05531016445644FF066318164C664DD
:102B40004FF0773101654765C94381650220FFF782
:102B500065FFFEE79C3900202DE9F04106460F464F
:102B600090461D464046FDF7C3FA402801D9402053
:102B700002E04046FDF7BCFA04469C210D48FDF7F3
:102B8000ACFA224641460B48FDF780FA09484FF05F
:102B900011310164456449008164C6644FF03331EA
:102BA000016547654FF044318165BDE8F041012082
:102BB000FFF734BF9C39002010B588B0817AC27A03
:102BC000037B447BCDE90443CDE90621817BC07BB7
:102BD00006A2BC23CDE90032CDE90201114B12A2BD
:102BE00017A1022000F07EFC08B010BD436F6E6E8E
:102BF0006563746564207769746820746865207003
:102C000065657220253032583A253032583A2530E1
:102C100032583A253032583A253032583A25303237
:102C2000582E000008AB25002E2E5C5372635C7595
:102C30007365725C757365725F6170702E630000FE
:102C40004E4F5F544147000010B586B004460FA2B6
:102C5000B423CDE900320291124B13A218A1022035
:102C600000F040FC1849204602F01EFE0446002CED
:102C70000AD014220B491C3101A8FDF707FAADF860
:102C8000084001A800F022F806B010BD4469736343
:102C90006F6E6E6563746564202830782530325815
:102CA000292E0000D8AA25002E2E5C5372635C7575
:102CB0007365725C757365725F6170702E6300007E
:102CC0004E4F5F5441470000202E00203EB5044681
:102CD0004FF400711A48FDF700FA207810B101286E
:102CE00019D01DE000211748A28830F831309A42EF
:102CF00007D100EBC10014A143681148FEF740FC66
:102D00000EE02E2902D0491CC9B2EEE714A10C48EE
:102D1000FEF736FC04E01DA109486268FEF730FCAE
:102D2000074921A22069CDE901210090D4E90223BD
:102D30001EA1002000F0D6FBBDE83E4000F09EBB87
:102D4000383A002090A125004572726F7220636F9F
:102D50006465203078253034583A2025730000000F
:102D60004572726F7220636F64652030782530344D
:102D7000583A204E6F20666F756E6420696E666FDC
:102D8000726D6174696F6E2E000000002825732932
:102D9000206973206E6F742065737461626C69734F
:102DA0006865642E00000000257300006170705F8C
:102DB0006572726F722E63002DE9F04101460029A1
:102DC0001BD000240F4E0E4A357814E002EB04109D
:102DD0000F780378BB420CD14B684068034208D09F
:102DE000707808B900F01CFB2046BDE8F04100F007
:102DF0004BBA641CE4B2AC42E8D3BDE8F0810000F9
:102E0000443C0020042D00207CB505460E46002DD4
:102E100001D0002418E0E5207CBD05EB04104168DA
:102E20000091017A8DF80410417A8DF80510002187
:102E30008DF80610C26800780023694600F036F865
:102E40000028E9D1641CE4B2B442E6D300207CBD82
:102E500010B502460846052A24D2DFE802F0030333
:102E600003111900104951F832200104090C05D052
:102E700022B1014610460CF069FA0FE0E42010BDC3
:102E800010F0FF0F02D00BF08FFE07E0E42010BD22
:102E9000810505D0014600200CF01AFB002010BD72
:102EA000E42010BDE62010BD94A025002DE9F05FC0
:102EB00005460C469046994626680027042D11D0F9
:102EC00031462846FFF7C4FF2146284600F068F83F
:102ED000002808D1032D08D04FF0100A2807070E4C
:102EE000002451E0E620BDE8F09F4FF0080AF7E724
:102EF000F00746D03DB1012D05D0022D03D0032DA2
:102F000027D0E620EFE7244800EBC50090F904B095
:102F1000BBF1000F17D0EFF31081012080F3108870
:102F20001E4AE01942F8308002EBC000C0F804905D
:102F300059B1012080F3108858460CF035FB5846F3
:102F40000CF03FFB1DE0E420CDE7002080F310886B
:102F5000F2E7EFF31081012080F310880F4AE019A7
:102F6000703242F8308002EBC000C0F8049079B1B2
:102F7000012080F3108815200CF016FB15200CF0B2
:102F800020FB7608641CE4B25445B1D30020AAE7C4
:102F9000002080F31088EEE794A02500243700205D
:102FA00030B597B005460C461C22414910A8FDF7E4
:102FB0006DF81C223E491C3109A8FDF767F8202254
:102FC0003B49383101A8FDF761F894B13949062031
:102FD00014F070FE3849152014F06CFE34496C3939
:102FE000A1F12C02052D60D2DFE805F006060621CE
:102FF0003900E52017B030BD207931F8100011906C
:10300000607932F810001290A07913902068109027
:103010002748843850F8350021880904090C04D069
:1030200018B110A90CF01FFA38E0E420E2E720798B
:1030300001EB4000808A0A90607902EB4000C08872
:103040000B90A0790C9020680990207810F0FF0F69
:1030500003D009A80BF010FE20E0E420CAE7207995
:10306000031F042B01D8E720C4E7022818D0012051
:103070000290207901EB4000008D0390607902EB13
:10308000400080890490A0790590206801902088F4
:10309000800508D001A900200CF076FA0020A9E7ED
:1030A00002200290E5E7E420A4E7E620A2E7000082
:1030B00018A12500B51F1000B11F10000246002006
:1030C000052A11D2DFE802F0030303090C000748C8
:1030D00050F8320089B20CF0E4B988B20BF02CBE83
:1030E00089B200200CF052BA7047000094A025006D
:1030F000002803D002490860012070470020704773
:103100000C2D002070B505460024091F062917D292
:10311000DFE801F003070C111315284600F0A4F8AE
:103120000EE00124284600F09FF809E0022428461A
:1031300000F09AF804E0032402E0042400E00524EF
:10314000034A214628461268BDE870401047000037
:103150000C2D00202DE9F0410446204600F0AEF889
:1031600001462E4800230826025D00F10A0700F1FF
:103170001405AAB1052A33D0082A2AD1092945D035
:10318000082926D1295D491CC9B22955142920D303
:103190002B5506552046BDE8F0410821FFF7B2BF88
:1031A000052913D0042916D0072914D0082910D1D5
:1031B000295D491CC9B2295514290AD32B55065536
:1031C0002046BDE8F0410821FFF79CBF3B55052193
:1031D0000155BDE8F0812046BDE8F041FFF792BF00
:1031E00005290CD0395D491CC9B239553229F0D3B3
:1031F00003552046BDE8F0410521FFF783BF035585
:103200002046BDE8F0410621FFF77CBF035520466C
:10321000BDE8F0410921FFF775BF0000243D002003
:1032200070B504460D4600F00FF808B100F00EF935
:103230000348044A2946005D5268BDE870401047C3
:10324000383C0020042D00200020064911F81020F1
:103250000AB100207047401CC0B20A28F6D30120F2
:1032600070470000423D00200349002201F8102071
:1032700001EB400042707047423D0020014A02F8D5
:1032800010107047423D0020024A012102EB40002D
:1032900041707047423D002070B50024064D05EB9B
:1032A0004400407810B12046FFF754FF641CE4B29C
:1032B0000A2CF4D370BD0000423D002070B50021FF
:1032C0001D4B03F132051A5C002A09D0002403F1DA
:1032D0000A06012A0AD0022A12D0032A24D11FE0AA
:1032E00015F8102002B301221A541DE015F8102021
:1032F0001AB1345402221A5416E01C54042113E06B
:1033000015F810204AB1325C521CD2B23254642AF1
:103310000AD3072103221A5406E005211C5403E0B6
:1033200015F8101011B10821084670BD1C54FFF7A4
:103330009BFF0921F8E70000103D002070470000C6
:103340002DE9F0410E4617460A2E02D80FB1002390
:103350001AE00020BDE8F08103EB430400EB840594
:10336000114AA97AD154104910F824200C3101EBEC
:103370000314227069686160297A2172697A617226
:103380000A49E1605B1CDBB2B342E5D30648314633
:103390000C30FFF739FD0648067047600548FFF717
:1033A000A7FE0120D6E70000383C0020B92D2400FC
:1033B000042D0020213224002DE9F0410024124F79
:1033C000DFF8488019E0002607EB041528786968C3
:1033D000FFF774FE10B9697A012902D0012802D0E2
:1033E00005E0012603E0687A022800D10126314673
:1033F0002046FFF743FF641CE4B298F800008442C3
:10340000E1D3BDE8F0810000443C0020042D002001
:1034100010B5FFF7D1FFBDE81040FFF73DBF00003A
:1034200010B5074A0121074800F078F900220A2167
:10343000044800F0C9FA04490120487010BD00009A
:1034400011342400E83C0020042D002010B503486E
:1034500000F092F902490020487010BDE83C0020BD
:10346000042D0020002806D0002904D0024AD26989
:10347000002A00D010477047783900200248006ABF
:10348000002800D0004770477839002070B50D46FD
:1034900016460D4C00280AD00178032911D80121C5
:1034A000A17601461A222046FCF7F0FD05E0002037
:1034B000A0761A210448FCF710FEE5612662002080
:1034C00070BD012070BD000078390020044A10440E
:1034D000807D084201D00120704700207047000025
:1034E000783900202DE9FE4F074692469946002480
:1034F000A046CDF80480CDF8088059480178B9423B
:1035000002D2807E00287DD10EAD0095EFF31186AA
:103510000220FEF7A1F88346FEF708F9401C0121BE
:1035200081400BEB0100C0B280F3118801213846C5
:10353000FFF7CCFF38B14B484B4950F827202046C5
:1035400000F0A4F804461C213846FFF7BFFF00280E
:103550005ED046A24449204600F098F8204484B248
:1035600004213846FFF7B2FFF8B152463E492046E3
:1035700000F08CF8204484B208213846FFF7A6FFFB
:1035800038B13BA23849204600F080F8204484B28C
:103590000BE010213846FFF799FF30B135A23249D0
:1035A000204600F073F8204484B208213846FFF723
:1035B0008DFF90B14A462C49204600F067F8204420
:1035C00084B210213846FFF781FF30B12AA2264984
:1035D000204600F05BF8204484B210213846FFF703
:1035E00075FF60B126A2052101A80C9BFDF7B0FF75
:1035F00001AA1D49204600F049F8204484B221A2C6
:10360000194900E029E0204600F040F8204484B247
:103610001548C4F5807120442B460D9AFDF7C4FF70
:10362000CDF800804FF48071002804DB20448842EC
:1036300001DC85B200E00D46A81C884200D9FE25B9
:1036400011A20949284600F021F8284481B2064811
:10365000FFF708FFF0B280F31188BDE8FE8F00008D
:1036600078390020E42C0020783800202800000061
:10367000200000003A000000204C696E653A00000E
:10368000256C6400292000000D0A000030B50546B5
:10369000002000290CD0002A0AD006E02B18FF2BAE
:1036A00006D8CC54521C401C80B21478002CF5D1A2
:1036B00030BD000010B50A4A06214CF2010011F09D
:1036C000ABF804F08FFD04F039FA0020EBF580F937
:1036D000BDE81040034A4FF41011034804F056BCF3
:1036E000E6A92500C82D0020F995250010B5084849
:1036F000017800290AD1012101700648EBF5D2F8C2
:10370000BDE8104000210448EBF5CEB910BD000023
:10371000CC2C0020C11F1000095625002DE9F041D6
:1037200004460D461746002D04D0012D02D001207D
:10373000BDE8F081E4B1DFB1607801281AD0EFF381
:1037400011860220FDF77AFF8046FDF7E7FF401C57
:103750000121814008EB0100C0B280F311880020F4
:103760006070A570E761F0B280F311880020DFE798
:103770000120DDE70620DBE710B50446002C0CD065
:10378000204600F0B3F9FF2060700021A160E160E5
:10379000216161610020E06110BD012010BDF0B524
:1037A000DDE90745059981614FF47A76A2FB061C95
:1037B00003FB06C3002702FB0732C0E90212091906
:1037C0006A41C0E9041200210162F0BD2DE9F04117
:1037D0000446002C13D0EFF311850220FDF72EFFD5
:1037E0000746FDF79BFF401C012606FA00F038440F
:1037F000C0B280F311881248002121620EE000203F
:10380000BDE8F081D4E90432D1E9047CDB1B72EB22
:103810000C0202D2016A216203E00846016A002913
:10382000F0D104626670064810380168491C0160D6
:10383000016B4160E8B280F311880120E0E70000ED
:10384000183800202DE9F04105460024EFF31186D9
:103850000220FDF7F3FE0746FDF760FF401C012143
:1038600081407818C0B280F31188134A106BE8B118
:1038700015B102F1100010E00446206A10631068D0
:10388000401E10600CE0A94206D11168491E11606B
:10389000296A01622C4603E00846016A0029F2D138
:1038A00024B1002020626070106B5060F0B280F391
:1038B00011882046BDE8F081083800202DE9F0414C
:1038C000EFF311870220FDF7B9FE0446FDF726FF4E
:1038D000401C012181406018C0B280F31188114D55
:1038E000002608E02078012804D1E16909B1A06927
:1038F000884726702D6A2C6A002CF3D1094D103DA3
:1039000007E0E16909B1A06988472670206AA863C9
:103910002662AC6B002CF4D1F8B280F31188012040
:10392000BDE8F081183800202DE9F041EFF3118750
:103930000220FDF783FE0446FDF7F0FE401C012641
:1039400006FA00F02044C0B280F311881D4DA5F1A5
:1039500010082DE0D4E90430D8E902125B1A60EBBC
:103960000200D8E91021D21A814124D326702046C2
:10397000FFF768FFA078012806D012482830002100
:103980002162016861B10FE0D8E90220D4E9021395
:1039900051185841C4E904102046FFF717FF07E00B
:1039A000046005E001F1200001680029FAD10460FB
:1039B0002C6A002CCED1F8B280F311880120BDE82A
:1039C000F0810000183800202DE9FF5F82460E4686
:1039D00093464FF00008BAF1000F20D041488642CC
:1039E0001DD8E6B1EFF311870220FDF727FE04464C
:1039F000FDF794FE401C012181406018C0B280F3A5
:103A0000118850460DF098FB10B19AF8010040B1B2
:103A1000F8B280F311880F2004B0BDE8F09F0120B8
:103A2000FAE710F0A9FA04460D464FF47A7106FB46
:103A300001F022462B4600210DF068FADFF8A8902D
:103A4000B0B1D9F8040048B1D0E90410091B60EB0B
:103A50000500C9E9021010F009FB04E00021C9F8D3
:103A60000810C9F80C104FF00108D9E9020106E06E
:103A7000D9F80400D0E90421101B61EB0501CDE960
:103A8000020132460023CDF800B05046FFF787FE12
:103A90005046FFF79BFE14F025F84FF0E024D4F8D1
:103AA00000014FF4801510F4801F01D0012000E0C8
:103AB000002020B91420FDF78DFDC4F80051B8F1A5
:103AC000000F0AD0D9F80400D0E90431D9E9020284
:103AD000181A61EB020110F085FAF8B280F3118830
:103AE000002099E7008AB907083800202DE9F04145
:103AF00004460025002C39D0EFF311870220FDF792
:103B00009DFD0646FDF70AFE401C0121814070180C
:103B1000C0B280F311886078012824D1144E7068F7
:103B2000A0420BD110F028FAD4E90432181A62EB43
:103B30000102C6E9020210F099FA01252046FFF7BA
:103B400081FE5DB1706848B1D0E90421D6E9020375
:103B5000101A61EB030110F045FA04E01DB970681A
:103B600008B910F083FAF8B280F31188BDE8F0814B
:103B70000838002070B504461A4D55F824007030FE
:103B800012F050FE82B21646A2B155F8240090F809
:103B9000011101290ED0012180F80411802A0FD3D0
:103BA00055F82400802200F18001703012F055FE9B
:103BB00080260CE055F82410002081F8000170BD2B
:103BC00055F8240000F18001703012F046FE55F8DF
:103BD0002400324600F18001001D0CF08FFA00280D
:103BE000EDD170BDD02C0020704700002DE9F843C6
:103BF0000446574E56F82400071D022C7ED290F83A
:103C00006C1000297AD0012978D190F8001101298F
:103C100074D190F80111002970D1012180F80111AF
:103C2000002556F82400D0E903120A44017D01F072
:103C30000101C91D02EB01084168CA6FC2F380028D
:103C4000002AFAD090F80411E1B1DFF808916D1C58
:103C500056F82400001D0CF099F810280BD056F8E7
:103C60002400D9F800108068B1FBF0F000FB08F0E8
:103C7000B5EBC01FEBD956F82400703012F0D2FD1E
:103C800085B226E0B0F82480C58C001D0BF084FFBF
:103C900056F8240041F2883300EB0801491B8031BB
:103CA000001D2A460CF0DFF9E5E756F82400012252
:103CB0007030694612F0D1FD56F824004068C16F9B
:103CC000C1F340010029FAD09DF8001001606D1E7B
:103CD000ADB2002DE9D156F82400703012F0A2FDEB
:103CE0000028C8D1386841694906FCD5EFF3108532
:103CF000012080F3108856F8240000E01EE07030A8
:103D000012F090FD68B1EFF31081012080F310886C
:103D10003868426842F08202426089B1012080F333
:103D2000108856F82410002081F8000156F824105D
:103D300081F8010145B1012080F31088BDE8F883C6
:103D4000002080F31088ECE7002080F31088F5E76E
:103D5000D02C00205C0000202DE9F04105460F46E4
:103D6000002D06D02AB12C78022C04D3E820BDE81F
:103D7000F081E520FBE7304E05F1580046F82400BD
:103D8000D2E900310A467030194612F030FD291D83
:103D9000286D15F04BFB0028E9D156F82410281D9A
:103DA000486656F82400076056F8240018220830A8
:103DB00005F14001FCF76AF9204856F8241000EBA1
:103DC000C4056868486056F82400001D0BF044FFE5
:103DD00056F82400001D0BF0E1FF184801220321D2
:103DE000103811F04DFC56F82410012081F86C00B9
:103DF00056F82410002081F8000156F8241081F8AC
:103E0000010156F8241081F8020156F8241081F8B7
:103E100003010B490C2013F04DFF0A490D2013F04C
:103E200049FF95F901000BF0BFFB95F901000BF07C
:103E3000C8FB00209BE70000D02C002080A12500BB
:103E40000D1524001D15240070B5022801D3E820AB
:103E500070BD134C54F820304BB193F86C5035B111
:103E600039B132B193F80351012D04D010E0E520AF
:103E700070BDE42070BD002583F8035154F8203054
:103E80005B680225C3F8885054F820305B681B68D3
:103E900054F82000001D0CF045F80028EAD170BD50
:103EA000D02C00202DE9F04104461A4D55F824008D
:103EB000703012F0B7FC82B2164600277AB155F87E
:103EC000240090F80111012909D0802A0ED300F1B5
:103ED00080017030802212F0C0FC80260BE055F883
:103EE000240080F800710020BDE8F08100F180011D
:103EF000703012F0B2FC55F8240080F8047155F8C7
:103F00002400324600F18001001D0CF05DF900280C
:103F1000EAD1E9E7D02C002070B50446022C01D389
:103F2000E82070BD184D55F8240090B190F86C3021
:103F30007BB181B17AB1002680F8026155F8240086
:103F4000703012F0F4FC55F8240090F8001121B103
:103F50000AE0E52070BDE42070BD90F8011119B9A8
:103F600090F86C10012901D0E22070BD012180F889
:103F700000112046FFF796FF20B155F8241081F874
:103F8000006170BD002070BDD02C002070B50228EB
:103F900001D3E82070BD0C4D55F820407CB194F859
:103FA0006C6066B169B162B1002684F8026155F8AF
:103FB0002000001D0CF057F80028EBD170BDE52063
:103FC00070BDE42070BD0000D02C00202DE9F84F1A
:103FD0002A4D804692460E4601F10804A8F580411C
:103FE000274A6868B1F5804F01D25168401A84426F
:103FF00002D90520BDE8F88F28681369411E926830
:10400000C1F30B01411A9A1A01F6FF716B7AC1F3E1
:104010000731C91A02EBC101081A001F844225D9D1
:10402000184F0024009411231E224FF40049D7F8A2
:1040300000C049460120E047002108460AF00EFA78
:1040400040B1009413231E223C6849460120A0473A
:104050000A20CFE7687A0CF09FFE0028CAD10094AE
:1040600012231E223C6849460120A0475246314691
:104070004046BDE8F84F15F069BD0000E4A10020FE
:10408000A42E0020E0010020FEB50C4606460A7969
:10409000002101208DE80700164D03230D22402149
:1040A0002D680020A84760780125162811D101212C
:1040B0003046CCF553FE60B1407850B10E492079BE
:1040C00051F8261081F848000021304600F036FCF7
:1040D000002560780C2805D12079072802D13046C8
:1040E00000F052FC25B1227901213046CDF5EEF8E1
:1040F0000020FEBDE0010020CC19002070B50D4667
:104100000446CBF521F86988884200D20146204652
:10411000CDF5CAF901212046CCF5E4FD012801D0F6
:10412000412200E0002201212046CDF5CFF80020F9
:1041300070BD000038B50446134D002000900223E6
:104140000D222D684021A84701212046CCF5CAFD4B
:104150000C2803D00E2814D041220CE00121204667
:10416000CCF5FCFD4189008981420AD0074850F80E
:10417000240090F8482001212046CDF5A7F8002022
:1041800038BD0022F7E70000E0010020CC19002034
:104190002DE9F0470F4681460121CCF5A3FD032808
:1041A00001D0402242E001214846CCF5D7FD4FF630
:1041B000FF7A05460026D04624E001214846CCF58A
:1041C00005FE6B780146052202EB092240F6044009
:1041D0009B1DD3F54FFE0446B819B61C808820807D
:1041E000B0B23918801C8988618086B268782071E5
:1041F00088466A7805F10801601DFBF747FF2046F5
:10420000D3F584FE7888B042D7D8E98808F1010058
:1042100080B2514500D35146814206D328B1A880CF
:1042200001214846CDF508F804E00A22012148465C
:10423000CDF54CF80020BDE8F0872DE9F0470F469A
:1042400082460121CCF54EFD072801D0402246E0F0
:1042500001215046CCF582FD81467878012803D0B3
:1042600010260025A84622E00226FAE70121504642
:10427000CCF5ACFD0146052202EB0A22331D40F6C7
:104280000740D3F5F7FD04467819AD1CB0F804805B
:10429000ADB2A4F800807919A6703246E01C091D61
:1042A000FBF7F4FEA81985B22046D3F52FFE7888D7
:1042B000A842DBD8B9F8061008F101004FF6FF72EA
:1042C00080B2914200D31146814207D330B1A9F8A0
:1042D000040001215046CCF5AFFF04E00A22012181
:1042E0005046CCF5F3FF0020BDE8F087084A52F8AD
:1042F0002020126A08E093888B4204D8D3888B422E
:1043000001D3108970471268002AF4D1C6F59CBC0D
:10431000CC1900200348024901600E21416070471A
:10432000DCB625007805002070B5164A0C46054617
:104330001268498890470146A088801D83B20520F5
:1043400000EB052220781B2817D040F60D40D3F54E
:1043500091FD054620781B2812D012202870A088D5
:1043600068806088A880A288A11DA81DFBF78EFE2A
:104370002846D3F5CBFD002070BD40F60C40E6E7A3
:104380001120EBE78831002070B50D46064601216B
:10439000CCF5A8FC0C2806D0412201213046CCF5F2
:1043A00095FF002070BD01213046CCF5D7FC0446B6
:1043B000A888E188401A80B2608104F10C010144B0
:1043C000EA8805F10800FBF79AFE28B96089E988B8
:1043D00008442189884201D94FF6FF70608101218C
:1043E0003046CCF529FFDCE72DE9F35F0D46488820
:1043F0004978B0FBF1F401210098CCF573FC022858
:1044000069D1002C67D001210098CCF5A7FC80462B
:1044100000266878B146142801D0022700E0102752
:104420004FF0000A4FF6FF7B30E001210098CCF5F9
:10443000CDFC01460098052202EB0022BB1D40F690
:104440000440D3F517FD0446A819B61C81882180C5
:10445000B1B26818891C828862808EB29146A9190F
:1044600027713A46601D091DFBF710FEF01986B250
:1044700098F8013008F108023946601DC0F5C3FA0A
:1044800008B14FF0010A2046D3F540FD6888B042DC
:1044900004D9BAF1000F01D1D945C6D109F1010003
:1044A00080B2BAF1000F0ED1B8F80610594500D30A
:1044B0005946814207D330B1A8F804000121009881
:1044C000CCF5BAFE04E0002201210098CCF5FEFEF6
:1044D0000020BDE8FC9F4122F6E700002DE9F34FE4
:1044E00081B000250C46A846012100950198CCF525
:1044F000F9FB05220199042802EB012966D0052861
:1045000005D0062803D00A2871D04022FEE0012100
:104510000198CCF523FC07466078072801D91020C4
:1045200000E0022082464FF0050B3DE06019B0F834
:104530000480387805280AD005EB0B0020447B78EE
:1045400007F108025146001DC0F55DFA48B301218C
:104550000198CCF53BFC01464A460AF1060340F6B9
:104560000640D3F587FC0646A0F80080AD1CA8B233
:104570002118401C0979317180B22118801C89886A
:10458000718085B2611986F805A05246B01D091DDB
:10459000FBF77CFD05EB0A0085B23046D3F5B6FC8F
:1045A00002E06078284485B26088A842BED8F988C5
:1045B00008F101004FF6FF7280B2914200D311461C
:1045C000814279D3002877D0B8806FE0012101982B
:1045D000CCF5C4FB8346A0784FF0000A564640074E
:1045E00001D0102731E04FF0010A02272DE065E0ED
:1045F00001210198CCF5EAFB01464A4607F1080380
:1046000040F60540D3F536FC06466019AD1C81889E
:104610003180A9B26018891C828889B260187280C2
:10462000891C8288B2808DB2BAF1000F14D0611952
:10463000B7713A46F01D091DFBF728FDE81985B250
:10464000B6F800803046D3F561FC6088A842CFD828
:10465000BAF1000F09D01AE03D4A0198A6F10C0109
:1046600052F820000C30C3F59BFE86B1002000906C
:104670004B460A2204210198D4F528FC0146708893
:104680004880019800F042F90020BDE8FE8FBBF899
:10469000061008F101004FF6FF7280B2914200D37C
:1046A0001146814208D330B1ABF8040001210198D2
:1046B000CCF5C2FD2EE0FFE70A2227E06078FF2854
:1046C0002AD00198CCF5CAFA6178801E884223DD91
:1046D00001210198CCF57AFB637801464A4640F601
:1046E00009401B1DD3F5C6FBA1880546018014F8BF
:1046F000010F611D801E82B2AA8000206880A81D63
:10470000FBF7C4FC2846D3F501FC002201210198E7
:10471000CCF5DCFD0098B8E7A4F10805012101986B
:10472000CCF51CFBA18881806178891EC1800021A5
:1047300001816078A5F10C01801E68800448019A0F
:1047400050F822000C30C3F52BFE01200090ADE79D
:10475000CC1900202DE9F05F894683460121CCF574
:10476000C1FA0B2801D0412245E001215846CCF581
:10477000F5FA00258046AA462E4631E0012158462A
:10478000CCF524FB08EB86070146F8880522801D3E
:1047900083B202EB0B2240F60940D3F56BFBB988DC
:1047A00004460180B9F80200F988401B814200D21A
:1047B000084682B2A2800020608009EB0501A01D9E
:1047C000091DFBF763FCA08841198DB2F988884266
:1047D00001D04FF0500A2046D3F598FB761CF6B274
:1047E00098F80100B042C9D8B9F80200A84201D037
:1047F0004FF0500A524601215846CCF567FD002083
:10480000BDE8F09F2DE9F0470C4606464FF0000842
:104810000121CCF567FADFF8F090042807D00828CA
:104820002BD0092829D00A2827D0412259E001217C
:104830003046CCF593FA074659F826000C30C3F5FC
:1048400097FD00F10C051022211DE81DFBF71EFC51
:104850001020A8712846D3F559FB2888F988401CF8
:104860004FF6FF7280B2914200D31146814202D3CB
:1048700008B1B88041E00A2233E001213046CCF58E
:104880006DFA0546A11F002021F80E0959F82600EF
:104890004F460C30C3F584FD288920B161888142E0
:1048A00000D20846608057F8260062884FF0010861
:1048B000C068C189114489B2C181B1F5006F01D9C5
:1048C00011220EE03046CCF5C9F96188401E8842BD
:1048D00003DC2889814209D340B1304600F054F806
:1048E000002201213046CCF5F1FC0AE0EA881144AF
:1048F000E98010B16188401A288101213046CCF549
:104900009BFC4046BDE8F087CC19002010B50C4652
:1049100009780246D2290CD052290AD01E2908D083
:10492000052000EB022147F2305240F61D40D3F53E
:10493000BDFD2046BDE81040D4F5ECBD38B50446B9
:104940000020009005200D4600EB042318220421CE
:104950002046D4F5BBFA014645702046BDE83840F4
:10496000FFF7D4BF38B5044600200090052000EBC7
:1049700004231E2204212046D4F5A8FA014620462D
:10498000BDE83840FFF7C2BF2DE9F05F374C8146E4
:1049900054F82900C068002866D001214846CCF5AB
:1049A000DDF9824654F82900A3464FF00008C46898
:1049B000012104F10C06E7894846CCF507FA0146C7
:1049C000B81D83B2052202EB092240F60940D3F557
:1049D00051FA8780BAF804100180BAF8061005462B
:1049E0004180307A092833D1727A06F10807A81D70
:1049F000B91D921EFBF74AFB7878811E1FFA81F8D9
:104A0000216819B16988081A801C68802468A6F199
:104A10000C00D3F571FA04F10C0619E006F1080751
:104A200005EB08007289391D801DFBF72FFB788884
:104A300000EB08011FFA81F8216811B16988081A92
:104A400068802468A7F1140004F10C06D3F554FA29
:104A5000002CE3D15BF829000C30C3F591FB28460C
:104A6000BDE8F05FD3F552BABDE8F09FCC19002045
:104A700010B504460121CCF535F90C2801D04122AE
:104A800000E0002201212046CCF520FC002010BDD2
:104A90000249014808607047A14A240034050020FB
:104AA00070B506460D461020288029463046C0F5D0
:104AB00001FB044624B929463046C0F507FA0446EE
:104AC000074A298802A012689047204670BD00005E
:104AD00064625F73697A65203D2025640A000000E6
:104AE000E4010020F0B5AFB000240D460646846214
:104AF00019A82421FBF7F1FA229403A82421239476
:104B0000FBF7EBFA0C940EA8242231460D94FBF728
:104B1000BDFA706A1790B06A784E189024A82422C3
:104B20003146FBF7B3FA706A2D90B06A2E900120DF
:104B300021902290CDE90B40B4E000230EAA184644
:104B4000264652F82010891946EB03077B084FEAE6
:104B5000310342F8203021F00103CB1A00F10100AB
:104B60000928EED3002052F8201011B9401C092862
:104B7000F9DBC0F1090050622198C00706D019A8DE
:104B8000FBF76EFF1698C007D7D044E0002319AAA0
:104B90001846374652F82010C91947EB0306730828
:104BA0004FEA310342F8203021F00103CB1A00F123
:104BB00001000928EED3002052F8201011B9401C42
:104BC0000928F9DBC0F109005062DBE7002324AAC1
:104BD0001846264652F82010891946EB03077B0831
:104BE0004FEA310342F8203021F00103CB1A00F1E3
:104BF00001000928EED3002052F8201011B9401C02
:104C00000928F9DBC0F1090050620B98C0070FD0EA
:104C100003A8FBF725FF2C98C007D7D02D9B17982A
:104C20000EA924AA98422FD835D3C0F1090029E053
:104C30004FF0000303AA1846374652F82010C9194E
:104C400047EB030673084FEA310342F8203021F0A6
:104C50000103CB1A00F101000928EED3002052F81D
:104C6000201011B9401C0928F9DBC0F1090050627D
:104C7000D1E752F8203051F82060B3420BD803D36B
:104C800000F101000928F4D311460EA8FCF7B0FB8F
:104C900003A919A804E01046FCF7AAFB19A903A868
:104CA000FCF7CEFB179800288FD10D9808B103A808
:104CB00015E012490C9B03AA486A984213D80DD3F9
:104CC000C0F1090008E052F8203051F82040A3421A
:104CD00004D808D300F101000928F4D3104612F0DB
:104CE000F1FF03A900E0114624222846FBF7CEF984
:104CF0000C9868620D98A8622FB0F0BD20AE250018
:104D000010B58CB008A813F041FEBDF82210099828
:104D10009DF82120CDE904109DF820302DA0FA2126
:104D2000CDE90232CDE90010344B35A23AA1022080
:104D3000FEF7D8FB0AA800F00BFC044654B114227D
:104D40002E490E3103A8FBF7A1F9ADF8104003A8D6
:104D5000FDF7BCFF9DF828009DF82910CDE906104D
:104D60009DF82A209DF82B30CDE904329DF82C10B7
:104D70009DF82D002AA2FF23CDE90032CDE90201E2
:104D80001E4B1FA224A10220FEF7ACFB2FA04FF464
:104D90008371CDE90010194B19A21FA10220FEF763
:104DA000A1FB12F07DFE06F0A9FB3049002000F0C7
:104DB0007BFD0446002C0AD014221049223103A89E
:104DC000FBF764F9ADF8104003A8FDF77FFF0CB0C6
:104DD00010BD0000476F6F64697820424C45205336
:104DE000444B205625642E25642E25642028636FAD
:104DF0006D6D697420257829000000002EAB250018
:104E00002E2E5C5372635C757365725C757365728C
:104E10005F6170702E6300004E4F5F544147000089
:104E20004C6F63616C20426F617264202530325890
:104E30003A253032583A253032583A253032583AED
:104E4000253032583A253032582E000054656D70A6
:104E50006C61746520444655206578616D706C65A1
:104E600020737461727465642E000000202E00208F
:104E7000BFF576BA2DE9FF410DF1280898E8F0005A
:104E80008DE8F000BFF548FC04B0BDE8F0812DE9E5
:104E9000FF410DF1280898E8F0008DE8F000BFF51B
:104EA0004DFC04B0BDE8F081BFF5C4BEBFF560BFE6
:104EB000C0F598BA2DE9F041DFF864800646017824
:104EC00098F8010008440A2802D90420BDE8F081BE
:104ED00000242546134F05E0385D40B1641C0A2CC0
:104EE000FADB6D1C3078A842F9DC0020EEE7C5EB58
:104EF000C500821904F11000C0F30B0040F400401B
:104F00000721521C0FF088FC00284FF00100DDD172
:104F1000385598F80110491C88F80110641CE0E726
:104F20004C31002088AE002038B50C4604F0BAFBA6
:104F30000949097888420DD2BE2100EB4000ADF846
:104F40000010423040F40040224669460FF030FB2A
:104F5000002038BD032038BD4C3100202DE9F84336
:104F60000025DFF8408006462C460827ADF8007083
:104F700018F8040001280ED104F1200006EBC50248
:104F8000C0F30B0040F400406946521C0FF010FBC8
:104F900008B96D1CEDB2641C042CE7DB35700020F1
:104FA000BDE8F883583100202DE9F0470026A8B06D
:104FB00088460746B14646703546DFF8A4A036E07D
:104FC0008C20ADF8980005EB4500413040F40040DE
:104FD00003AA26A90FF0ECFA38BB9DF80D00800754
:104FE00023D5797841452DD2786806EB860100EB10
:104FF000C104DDF80E002060BDF81200A0809DF80D
:105000001400A0719DF81500E07110220DF1160139
:1050100004F10800FBF73AF810220DF1260104F123
:105020001800FBF733F8761CF6B26D1CEDB29AF857
:1050300000008542C4D387F800907E7028B000201D
:10504000BDE8F0870122CDE90029064CCDF80880A3
:105050001F231E2224684FF400410120A047EAE7E5
:105060004C310020E001002038B50C4604F01AFB5A
:105070000949097888420CD28C2100EB4000ADF838
:105080000010413040F40040224669460FF090FA8B
:1050900038BD032038BD00004C3100202DE9F0431D
:1050A000A5B00024894607468C26194D0DF10A0843
:1050B00017E004EB44004130ADF88C6040F4004050
:1050C0006A4623A90FF074FA48B99DF801008007D9
:1050D00005D5102239464046FBF711F828B1641C6B
:1050E000E4B228788442E4D3C4B2287884420DD252
:1050F00004EB44004130ADF8006040F400404A4603
:1051000069460FF055FA25B0BDE8F0830320FAE7B1
:105110004C3100202DE9F8430025DFF84480064695
:105120002C460727ADF8007018F8040001280FD1AD
:10513000C5EBC500821904F11000C0F30B0040F468
:1051400000406946521C0FF033FA08B96D1CEDB2ED
:10515000641C0A2CE6DB35700020BDE8F8830000F3
:1051600088AE00202DE9FE4307463020B1FBF0F069
:10517000C4B2134D002601202C70CDE90006DFF8E3
:1051800044C0029420231E22DCF800C0C4EBC408F3
:10519000C103E04707EB0800C5E9017005F1100104
:1051A00020440E704E70486001F0B2FC30B10BF03C
:1051B00027FD0BF073FD0020BDE8FE830220FBE716
:1051C0004C310020E0010020F0B50025B1B02C46A4
:1051D000144E20E07168C4EBC40008440BF084FE58
:1051E000C0B9BE20ADF8C00004EB44004230C0F3AB
:1051F0000B0040F400476A4630A938460FF0D8F952
:1052000001208DF807006A46BE2138460FF004FBE6
:1052100000B10125641C30788442DBDB31B02846C4
:10522000F0BD00004C31002010B50C4604F03AFAF5
:105230000949097888420CD200EB4000423040F422
:1052400000402246BE210FF0E7FA002800D00120DE
:1052500010BD032010BD00004C3100202DE9F34F9C
:1052600083B0039804F01EFA454FDFF818A14FF001
:10527000000839784FF0010988420ED200EB400057
:10528000413040F400408C21049A0FF0C5FA04002C
:105290005BD01A23CDF8009020E0002409E0796863
:1052A000C4EBC40008440BF01FFE08B1E6B205E0F1
:1052B000641C38788442F2DBB8680678072106EB74
:1052C000460505F1400040F400408346039A0FF084
:1052D000A3FA04000CD01B23CDF80090CDE9018483
:1052E0001E224FF400410120DAF80050A84742E0A6
:1052F00005F1410040F400408C21049A0FF08CFA33
:1053000004000FD0CDF80090CDE901841C231E22AB
:10531000DAF800504FF400410120A84758460FF03A
:10532000F3F828E0304614F0D9FA423545F400404D
:105330000FF0EAF87968C6EBC600014403980268EA
:105340000A6082888A808079887104984078800712
:1053500011D50B4839781030FFF726FE08481D2379
:1053600010301E224078CDF80090CDE901804FF436
:1053700000410120B8E705B02046BDE8F08F0000ED
:105380004C310020E0010020C2F5FABEC2F5F0BFAA
:10539000C3F506B810B500F00BF805F09BFD0BF057
:1053A0005DFF11F02BFCBDE8104011F043BC000084
:1053B00010B50549054809F013FBBDE81040044944
:1053C00047F6714009F00CBB013E250081940200B4
:1053D000D97A240010B50EF00BFD0EF08DFCBDE85F
:1053E00010400DF025BECCF591BA000010B50400B8
:1053F00009D001F0AFFB30B90448016819B120466B
:105400008847012010BD002010BD0000482E00205C
:105410000EB5018840F20133A1F2013299423AD02F
:1054200016DCB1F5807F23D0A1F50071073923D0B8
:1054300001290CD1007A002809D120A0DB21CDE977
:105440000010244B24A22AA10320FEF74BF80EBD26
:10545000012A25D0052A2AD0A2F50072FF3AF6D1FA
:1054600041880029F3D1C088BDE80E4002F031BD6B
:10547000BDE80E40FFF744BC40880028E7D01EA1DD
:10548000D422CDE900210290124B13A218A10320CF
:10549000FEF728F80EBDBDE80E400830FDF78CBBC6
:1054A000017A007903B05DF804EBFDF7CDBB00791C
:1054B00003B001215DF804EB00F0CABA41647665DF
:1054C00072746973696E672074696D656F75742E87
:1054D000000000001EAB25002E2E5C5372635C752D
:1054E0007365725C757365725F6170702E63000026
:1054F0004E4F5F5441470000416476657274696E97
:10550000672073746172746564206661696C656498
:1055100028305825303258292E00000010B5FDF7EC
:10552000FBF80EF00FFE12F0D5FA0DF073F911F042
:1055300073FB02F035FC08F089FF00F0E2FE08F092
:1055400057FDFFF747FFBDE81040012001F052BBB7
:105550002DE9F04104460026EFF311850220FCF707
:10556000A5F80746FCF7FAF80121401C814078189D
:10557000C0B280F3118804F003F907465CB10E490C
:1055800091F8860010F00100A07106D0086F20602D
:10559000B1F8740006E0022605E000F08FFD016816
:1055A00021608088A080384604F0ACF8E8B280F32F
:1055B00011883046BDE8F08198A400202DE9F84F0D
:1055C00082463A481D46934600780F46C00716D0DB
:1055D0000026EFF311890220FCF768F80446FCF777
:1055E000BDF80121401C81406018C0B280F31188D1
:1055F00004F0C6F80090BBF1000F03D005E01E20B8
:10560000BDE8F88F0DB1022611E0BAF1020F01D307
:1056100015260CE02649CAEBCA004FF0000801EB42
:1056200080046FB1012F1AD0022F27D016260098C0
:1056300004F068F809F0FF0080F311883046DFE7D6
:10564000206918B101F0D2F9C4F810800021A81C1B
:1056500001F0CEF9206138B3058020691EE0606951
:1056600018B101F0C3F9C4F814800021A81C01F09E
:10567000BFF96061C0B1058060690FE0A06918B131
:1056800001F0B4F9C4F81880002DD0D00021A81C76
:1056900001F0AEF9A06138B10580A0692A465946EB
:1056A000801CFAF7F3FCC2E71026C0E76030002048
:1056B00098A400202DE9FF5F8046784814468B4669
:1056C0000078C0072CD04FF0010A0026CDF800A0CA
:1056D000734DCDE901683C2308222F681021504604
:1056E000B847EFF311890220FBF7E0FF0746FCF70C
:1056F00035F8401C0AFA00F17818C0B280F311881E
:1057000004F03EF803907CB1B8F1020F15D3009677
:105710003E23082210212C680120A0471524B3E065
:105720001E2004B0BDE8F09F00963D230822102102
:105730002C680120A0470224A6E02078032802D08C
:105740006189202906D3A189B1F5804F02D86289E9
:105750008A4208D900963F23082210212C68012094
:10576000A0471F2490E0617803290CD900962C688B
:105770004FF040034FF008024FF010014FF00100CE
:10578000A047202480E009D1012802D041230096BF
:105790001DE0A07858B34223009618E0012901D0FB
:1057A000022904D1A17811B14D2300960FE00328FE
:1057B00001D004281BD10196062201A9E01C029603
:1057C000FAF79DFC50B1607888B144230096082216
:1057D00010212C680120A047212455E00096432386
:1057E000082210212C680120A04722244CE02D48DB
:1057F000C8EBC80100EB8107F86828B90021282010
:1058000001F0F6F8F86058B105462821FAF765FC72
:1058100087F80BB02E70A0786871A07B18B901E0F2
:10582000102431E00720287685F819A060892861C6
:10583000A0896861D4F80300C5F80600B4F8070031
:105840006881607A2873207C2871207805280AD224
:10585000DFE800F00503071214006E8003E0032068
:1058600000E002206880688840F01000688060785E
:10587000022805D8687006E00D20F3E70520F1E75F
:10588000032800D16E700024039803F03BFF09F059
:10589000FF0080F31188204643E7000060300020BD
:1058A000E001002098A400202DE9F04F80466548D3
:1058B00085B00F460078C00721D0EFF31189022090
:1058C000FBF7F4FE0446FBF749FF4FF0010A401CCA
:1058D0000AFA00F16018C0B280F3118803F050FF9B
:1058E0000025594E8346B8F1020F0CD30095592379
:1058F0000822102134680120A04715248CE01E20C6
:1059000005B0BDE8F08FAFB15048C8EBC80100EB5F
:105910008104E06870B1607AA8B101F065FE607A38
:1059200088B100955B230822102134680120A0472C
:105930000F2471E000955A230822102134680120B9
:10594000A047022468E02069C8B9E068017821B165
:10595000012908D05E2300950AE0807840070ED424
:105960005C23009504E08078800713D45D230095C4
:105970000822102134680120A04723244CE0E0686D
:105980008178890702D50178012903D0007802289F
:105990000BD00CE0606950B900955F2308221021FC
:1059A00034680120A047252436E0A06950B1E068A2
:1059B000817809070FD5398809B180290BD961236E
:1059C000009513E00095602308221021346801201F
:1059D000A047242420E0407802280ED1388818B14E
:1059E00044F25061884208D96223009508221021B0
:1059F00034680120A04726240EE0E06928B9002180
:105A0000042000F0F5FFE061C8B13968016041464B
:105A1000002003F093FF0024022004948DE8210568
:105A200063230822102135680120A847584603F057
:105A300069FE09F0FF0080F31188204660E710241A
:105A4000EAE7000060300020E001002098A4002078
:105A50002DE9F843894604460025EFF3118602201C
:105A6000FBF716FE0746FBF771FE0121401C814043
:105A70007818C0B280F3118803F082FE80460A2CA9
:105A800006D218484FF6FF7730F83400B84201D1FB
:105A900003251BE0072000EB0421062349224FF4D5
:105AA000616000F0C9FF040019D084F80090022062
:105AB0006080A78000200C4F0123009008223F68DF
:105AC00010211846B847204600F0F8FF404603F082
:105AD00019FEF0B280F311882846BDE8F88310253E
