:020000040020DA
:10200000505A012059202000FB212000011E100001
:10201000F9212000F121200085352000000000007A
:10202000000000000000000000000000151E10006D
:10203000F721200000000000FD212000FF212000EA
:10204000DFF810D000F048FC00F066F800480047C8
:10205000C17A2100505A01200148804701480047B9
:1020600055352000E57A21000649074A08685043A3
:1020700043F2390210440860400870470149086083
:10208000704700003C2D00206D4EC64110B5431A2C
:10209000934209D28318881803E010F8011D03F851
:1020A000011D521EF9D210BD40EA01039B0703D067
:1020B00009E008C9121F08C0042AFAD203E011F887
:1020C000013B00F8013B521EF9D210BDD2B201E033
:1020D00000F8012B491EFBD270470022F6E710B52D
:1020E00013460A4604461946FFF7F0FF204610BD86
:1020F000421C10F8011B0029FBD1801A704730B533
:1021000004460020034600E05B1C934203D2E05CDF
:10211000CD5C401BF8D030BD70B5054C054D03E0DB
:10212000206820448047241DAC42F9D170BD0000D6
:10213000640622006806220030B404469623080094
:10214000214604D0B62330BC002200F0AEBA2046AF
:102150000021F8E70EB540F2334102910021CDE9AC
:1021600000110A460B4600F0DDFA03B000BD0EB5C3
:1021700040F2334202920022CDE90022134600F0E1
:10218000D1FA03B000BD20F00040C20DC0F316002C
:1021900040F400007F2A02DA002001467047002147
:1021A000962A03DCC2F19602D0407047963A00F0BE
:1021B00042BA70B5C1F30A5201F000450024C1F3E0
:1021C000130140F2FF3341F480119A4201DA0020FA
:1021D00070BD40F233439A42A2F2334203DC5242D2
:1021E00000F038FA00E090402C43F1D0404270BD3E
:1021F000FEE708F0DBBBFEE7FEE7FEE7FEE7FEE7F3
:1022000058585247010000003253000000202000BF
:10221000002020008BEB924700010000000000002E
:1022200000000000000000000000000000000000AE
:10223000000000000000000000000000000000009E
:102240002DE9FE4F804681EA0300C00F0C46009046
:1022500021F0004123F00045B8EB0200A94105D26E
:102260004046214690461C460B46024623F000405D
:10227000104347D0270DC7F30A00C3F30A51029059
:10228000401A019040286BDAC3F3130040F4801B1E
:102290000098924620B10023D2EB030A63EB0B0BAC
:1022A00001985946C0F14002504600F0C4F9064674
:1022B0000D4650465946019A00F0DCF910EB080033
:1022C0006141002487EA115284EAE7731A4340D03F
:1022D000009A62B3019A012A4FEA075215DC001BEB
:1022E00061EB02014FF0004202EA0752CDE90042E1
:1022F000001C41F5801132462B4600F013FA03B062
:10230000BDE8F08F40462146F9E7001B61EB020172
:10231000001C41F5801300185B412018A2F500173E
:1023200047EB030140EAD570B6196D4111E06D0825
:102330004FEA360645EAC0754FEA0752001B61EBCB
:102340000201001C41F5801149084FEA30000019D4
:10235000514132462B4603B0BDE8F04F00F0D3B9EF
:102360000098012240000023D0EB020263EBE073EF
:10237000009821464FEAE074B8EB000061EB0401DD
:10238000E9E783F000435BE781F0004158E72DE97E
:10239000FE4F81EA030404F0004421F00041009460
:1023A0004FF0000B23F0004350EA01045ED052EAE4
:1023B00003045BD0C3F30A54C1F30A552C44A4F2BE
:1023C000F3340194A0FB0254C1F3130141F48011D2
:1023D000C3F3130343F4801301FB024400FB034ED9
:1023E000840A970A44EA815447EA8357A4FB0768A2
:1023F00002958D0A05FB07854FEA932C04FB0C54CC
:102400002705029D4FEA065847EA1637B5EB08053F
:102410006EEB070C870E920E47EA811742EA831291
:10242000A7FB0201B6EB0B0164EB00042B0D43EAA2
:102430000C335E1844EB1C50DA465146E7FB0201B0
:10244000C5F313044FEA0B3343EA14534FEA043243
:10245000019C43EA0603A4F10C040294009CCDE91C
:1024600000B400F05FF903B0BDE8F08F0020014632
:10247000F9E72DE9F04D81EA030404F0004B21F067
:10248000004514464FF0000A23F0004150EA0502CF
:1024900020D054EA01021DD0C5F30A570246C5F305
:1024A0001303C1F31300C1F30A5640F4801543F43B
:1024B0008013A7EB0608101BD64608F2FD3873EB15
:1024C000050002D308F1010801E092185B41B8F160
:1024D000000F03DA00200146BDE8F08D00204FF424
:1024E0008011064684460EE0171B73EB050705D3E3
:1024F000121B63EB050306434CEA010C49084FEA43
:10250000300092185B4150EA0107EDD152EA030016
:1025100012D082EA040083EA0501084305D0101BAB
:10252000AB4106D20122002306E000224FF0004317
:1025300002E06FF0010253101AEB06004CEB085159
:1025400010EB0A0041EB0B01BDE8F04D00F0DBB8E9
:10255000C1F30A5210B5C1F3130140F2FF3341F445
:1025600080119A4201DA002010BD40F233439A42B2
:10257000A2F2334203DC524200F06CF810BD9040EE
:1025800010BD00F0004230F000400AD0C10D01F54E
:102590006071C0F3160042EA0151C20840071143BE
:1025A000704700200146704730B50B4601460020B9
:1025B0002022012409E021FA02F59D4205D303FA05
:1025C00002F5491B04FA02F52844151EA2F1010286
:1025D000F1DC30BD2DE9F05F0546002092469B46B8
:1025E00088460646814640241BE028464146474629
:1025F000224600F02FF853465A46C01A914110D394
:1026000011461846224600F016F82D1A67EB01080D
:102610004F4622460120002100F00DF817EB00097B
:102620004E41201EA4F10104DFDC484631462A4613
:102630004346BDE8F09F202A04DB203A00FA02F16D
:10264000002070479140C2F1200320FA03F31943A0
:1026500090407047202A04DB203A21FA02F0002142
:10266000704721FA02F3D040C2F1200291400843A2
:1026700019467047202A06DBCB17203A41FA02F0B0
:1026800043EAE07306E041FA02F3D040C2F12002CF
:1026900091400843194670470029A8BF7047401C65
:1026A000490008BF20F00100704710B4B0FA80FC68
:1026B00000FA0CF050EA010404BF10BC704749B1A5
:1026C000CCF1200421FA04F411FA0CF118BF012115
:1026D00021430843A3EB0C01CB1D4FEA00614FEAF5
:1026E000102042BF002010BC704700EBC3501044C4
:1026F0000029A4BF10BC7047401C490008BF20F04F
:10270000010010BC704710B5141E73F1000408DA04
:10271000401C41F1000192185B411A4301D120F0A5
:10272000010010BD2DE9F04D92469B4611B1B1FA62
:1027300081F202E0B0FA80F220329046FFF77BFF90
:1027400004460F4640EA0A0041EA0B0153465A4646
:10275000084313D0114653EA010019D0C8F14002D2
:102760005046FFF777FF05460E465046594642460B
:10277000FFF761FF084305D0012004E020463946F9
:10278000BDE8F08D0020054346EAE0762C43374350
:102790000A986305E40AA0EB08000022FD0A44EA57
:1027A00047540A3002D500200146E9E70105101917
:1027B0006941DDE9084500196941BDE8F04DA2E72E
:1027C0002DE9F041054621F000400C46284309D090
:1027D000C4F30A5040F23341884205DD28462146C1
:1027E000BDE8F0812846FBE740F2FE31884210DC6C
:1027F0000CDB4FEA043040EA155050EA053105D0B1
:10280000104804F0004101430020E9E700200146A0
:10281000E6E7A0F233404642C6F140022846214690
:10282000FFF709FF07468846284621463246FFF74C
:1028300011FF43463A46FFF766FF3246BDE8F041D6
:10284000FFF7F9BE0000F03FC1F30A52C1F31301D4
:1028500040F2FF3341F480119A4202DA002001462F
:10286000704740F233439A42A2F2334202DC5242B2
:10287000FFF7F0BEFFF7DFBE30B5041E71F10004B4
:1028800004DB4FF00044404264EB0101141E73F17D
:10289000000405DB1C464FF00043524263EB040387
:1028A0008B4208BF824230BD30B5041E71F1000476
:1028B00004DB4FF00044404264EB0101141E73F14D
:1028C000000405DB1C464FF00043524263EB040357
:1028D000994208BF904230BD064C074D06E0E068C3
:1028E00040F0010394E8070098471034AC42F6D357
:1028F000FFF7AAFB240622006406220070B58C189C
:1029000010F8015B15F0070301D110F8013B2A1103
:1029100006D110F8012B03E010F8016B01F8016BF0
:102920005B1EF9D12B0705D40023521E0DD401F8EC
:10293000013BFAE710F8013BCB1A921C03E013F8B5
:10294000015B01F8015B521EF9D5A142D8D30020EA
:1029500070BDF0B5002508222B4650F8227051F8C2
:102960002260BE1943EB030476195C4104F00104B4
:102970001C4301D0012500E0002540F822600446F8
:10298000521EEAD5002150F8212012B9491C09290C
:10299000F9DBC1F109016162F0BDF0B50024082343
:1029A000254650F8236051F82370F61945EB0507CA
:1029B00036196F4107F001042C4301D0012400E0D7
:1029C000002442F823605B1EEBD5002052F8201053
:1029D00011B9401C0928F9DBC0F10901C2E9091548
:1029E000F0BD000010B51446FFF7D7FFA06A20B174
:1029F0002046BDE8104000F01DB80D4B606A596AD2
:102A000088420ED813D3C0F1090108E053F8212001
:102A100054F8210082420AD803D301F101010929A7
:102A2000F4D32046BDE81040014900F005BD10BDBB
:102A3000D8E9210010B58CB0044601466A46074823
:102A400000F05AFC694624222046FFF71FFB099834
:102A500060620020A0620CB010BD0000D8E9210027
:102A60002DE9F0410446DFF808C1806A8CB04FF0D0
:102A7000000848B16246606A536A2146984250D8BD
:102A800027D3C0F1090022E04FF000014FF0080009
:102A9000424654F820505CF82030ED1842EB020317
:102AA0006D18534103F00101114301D0012100E0F1
:102AB000002144F82050401EEBD518E052F8203099
:102AC00051F82050AB4204D82BD300F10100092863
:102AD000F4D36A46264800F00FFC694625462422B6
:102AE0002046FFF7D3FA09986862C4F828800022CC
:102AF0001046454654F82010491945EB02035A0880
:102B00004FEA310244F8202021F001028A1A00F134
:102B1000010023460928EDD3002054F8201001BB02
:102B20001CE00023082241465CF8225054F82200A1
:102B3000EE1841EB0107861B71EB07062B4406D20A
:102B4000C01A001C44F822004FF0010303E0C31A2E
:102B500044F822300023521EE6D5C8E7401C09285D
:102B6000DBDBC0F1090058620CB0BDE8F081000069
:102B7000D8E9210010B5122000F065FD09F096FBA0
:102B800004490446896A88472046BDE8104009F098
:102B90004FBB0000E029002010B504F639FB10B14E
:102BA00007F0B8FA10BDBDE810402BF61FBE0000BC
:102BB00010B52BF607FF022818D00D4CD4F8880268
:102BC00020F00100C4F888024FF0E0214FF00050DF
:102BD000C1F8800204F5227408F026F8054841681F
:102BE000491C4160206840F00100206010BD0000D9
:102BF00000E00040942A00202DE9F04FADF5317D32
:102C0000814600F12C0B58308890859001F12C0002
:102C10008490CDE989012C300E4687908690154628
:102C200024211046FFF759FA002405F12C076C62A5
:102C3000B84624213846AC62FFF74FFA7C62BC628A
:102C40002C3724213846FFF748FA7C6237A8242124
:102C5000BC62FFF742FA40940BA824214194FFF78D
:102C60003CFA149442A824211594FFF736FA4B94A9
:102C700016A824214C94FFF730FA1F9421A8242190
:102C80002094FFF72AFA2A94684624212B94FFF710
:102C900024FA09944DA824210A94FFF71EFA5694A9
:102CA00058A824215794FFF718FA619463A82421A7
:102CB0006294FFF712FA6C942CA824216D94FFF70C
:102CC0000CFA359479A824213694FFF706FA8294F9
:102CD0006EA824218394FFF700FA77944846A1490F
:102CE000789415F0B9F89F4C010004F12C0A04F116
:102CF000580409D15146584615F0AEF820B921467E
:102D0000889815F0A9F828B13046964915F0A4F82E
:102D100078B339E03046934915F09EF850B95146E2
:102D2000849815F099F828B92146879815F094F8F9
:102D300000287DD0242231462846FFF7A7F9706A83
:102D40006862B06AA862849D4446242229464046AF
:102D5000FFF79CF9686A6062A86AA062879C2422D7
:102D600021463846FFF792F9606A7862A06AB86235
:102D7000F5E0FFE75146849815F06EF820B921463A
:102D8000879815F069F828B14946304615F064F87F
:102D9000B8B122E04C46242249462846FFF776F98E
:102DA000606A6862A06AA8625D4644462422594669
:102DB0004046FFF76BF9686A6062A86AA062889C67
:102DC000CDE75946849815F047F8002830D1306D8A
:102DD000012802D8F06C0028ABD037AA85998998D1
:102DE00000F0CEF90BAA5846869900F0C9F942AA1C
:102DF00085998A9800F0C4F916AA4846869900F089
:102E0000BFF916A942A815F027F800287ED021AAFC
:102E10000BA937A800F09AFA6A4616A942A800F052
:102E200095FADDE9850158AA00F0AAF9A5A800E005
:102E30007BE02421FFF751F90024AE9484A82421DB
:102E4000AF94FFF74AF98D948FA824218E94FFF751
:102E500044F998949AA824219994FFF73EF9694679
:102E6000A39463AA0846A49400F08AF92CAA6946A0
:102E700063A800F085F921A979AA084600F080F935
:102E80006EAA16A963A800F07BF99AAA02216EA87F
:102E900000F058F984AA58A979A800F071F98FAA0E
:102EA0002CA984A800F052FA4DAA9AA98FA800F084
:102EB0004DFA2A464DA9684600F062F984A82421FB
:102EC000FFF70BF98D948FA824218E94FFF705F955
:102ED00098949AA824219994FFF7FFF8A39484AAC0
:102EE0004DA96EA8A49400F031FA8FAA84A921A854
:102EF00000F046F99AAA0BA92CA800F041F9424625
:102F00009AA98FA800F022FA3A4600E008E058A9F2
:102F10002CA800F035F901200DF5317DBDE8F08FCA
:102F20000BA937A814F098FFA8B10E4E2422314601
:102F30002846FFF7ABF8706A6862B06AA862564626
:102F40004546242251464046FFF7A0F8706A686261
:102F5000B06AA86203E72946484600F005F8002059
:102F6000DAE7000054EA21002DE9F04F0C465B4EF1
:102F7000016D06F12C085836F9B0834600F12C0596
:102F800000F1580A04F12C0904F15807012902D86C
:102F9000296A00297ED0514914F05EFF50B941469C
:102FA000284614F059FF28B93146504614F054FF12
:102FB000002873D037AA51465846FFF713FD42AA9E
:102FC0005146584600F0C2F94DAA42A937A800F070
:102FD000D7F80BAA03214DA800F0B4F86A46514671
:102FE000284600F0CDF837AA6946284600F0C8F810
:102FF00016AA37A9584600F0C3F80BA937AA084605
:1030000000F0BEF842AA082116A800F09BF821AAF9
:1030100042A937A800F09AF937AA694621A800F01A
:10302000AFF82246022137A800F08CF8294637AACB
:10303000084600F0A5F869462CAA084600F0A0F85A
:1030400042AA2CA937A800F09BF84DAA082142A853
:1030500000F078F858AA042116A800F073F863AAC3
:1030600021A958A800F072F96EAA63A90BA800F074
:1030700087F84A464DA96EA800F068F937AA694654
:103080002CA800F07DF83A46082137A800F05AF83D
:10309000002000E002E079B0BDE8F08F0F4D24225F
:1030A00029462046FEF7F2FF686A6062A86AA062BD
:1030B00045464C46242241464846FEF7E7FF686AEB
:1030C0006062A86AA062242231463846FEF7DEFF1D
:1030D000706A7862B06AB862DAE7000054EA2100E8
:1030E0002DE9F043154F0446154EF87D10258BB0A1
:1030F00091468846FF2806D0716EC20005FA02F09C
:10310000814301437166694604F1580004F04EF9A9
:10311000F87DFF2804D0716EC0008540A943716618
:1031200042466946204600F02BF84A46694604F1BB
:103130002C0000F025F80BB0BDE8F083400700201C
:1031400000000E40F0B4002508232F4650F82360FD
:103150002C463D46E6FB014542F823405B1EF5D573
:10316000002152F8213013B9491C0929F9DBC1F1BA
:1031700009035362806A9062F0BC104617F05ABF90
:103180002DE9F74FA0B082460C4668468346482199
:10319000FEF7A3FF4FF00009CDF848900821CDF8C5
:1031A0004C90002208204D4646180BEB860354F83D
:1031B00020805F685AF821C0BE1845EB0502ECFB81
:1031C00008625E60401EEFD5491EEAD569460020C0
:1031D00051F8202012B9401C1228F9DBC0F112006E
:1031E0008864DAF82800A16A884201D0012000E052
:1031F000002000246D46139000E0641C55F8240064
:1032000008B9092CF9D313982D491E9012988B6C8C
:103210002A46984215D818D3C0F112000DE051F893
:10322000203052F82060B34206D0B34201D20120D0
:1032300000E0002028B908E0401C1228EFDB00E085
:10324000641C55F824000028FAD005EB84012422E0
:1032500014A8FEF71BFF14A9002051F8202012B972
:10326000401C0928F9DBC0F10900486204F109009B
:103270001228084615D217F0DDFE14A82022011DE1
:10328000FEF704FF05EB840014A9406A1C9000209F
:10329000641C51F82020002AE5D1401C0928F8DBE5
:1032A000E1E717F0C7FE229C14A924222046FEF76E
:1032B000EDFE1D9860621E98A06223B0BDE8F08FFD
:1032C00004EA210010B54342421E0A60C1E9013000
:1032D0004FF0000001F1100C4FF0FF34C8608CE893
:1032E00015008862C1E9074301D0092000E00820E9
:1032F000486210BD0FF02AB8F0B500240823274615
:1033000051F8236050F8235016EB040C47EB070EDE
:10331000B5EB0C0C77EB0E0C344406D22C1B241CA2
:1033200042F823404FF0010403E02D1B42F82350E4
:1033300000245B1EE4D5002052F8201011B9401C77
:103340000928F9DBC0F109005062F0BD2DE9F04118
:103350000F460346816A0125B86A1446002641B12A
:1033600090B3786A596A884244D849D3C0F10900B9
:103370003EE020B139461846FFF70FFB16E0586AC9
:10338000796A88420ED81BD3C0F1090008E057F8CB
:10339000202053F820108A4212D803D300F10100F4
:1033A0000928F4D322463946184626E02149A66268
:1033B000606A4A6A904234D839D3C0F109002EE0DD
:1033C0002246194638461EE0FFE739461846FFF701
:1033D000E4FA2046A562BDE8F041FFF72BBB53F8A5
:1033E000202057F820108A420AD803D300F10100A8
:1033F0000928F4D3224619463846FFF77DFFD5E762
:10340000224639461846FFF777FFE2E751F82030A9
:1034100054F8202093420AD803D300F10100092870
:10342000F4D32046BDE8F041024900F005B8BDE8FC
:10343000F0810000D8E92100F0B5002308221E46E3
:1034400051F8225050F82240EF1846EB060CE71BCB
:1034500076EB0C072B4406D2E31A1B1C40F82230F3
:103460004FF0010303E0E41A40F822400023521E0B
:10347000E6D5002150F8212012B9491C0929F9DBB1
:10348000C1F109014162F0BD70B50B460446816A85
:103490000025986A8CB0012641B140B1586A616A32
:1034A000884239D846D3C0F1090033E030B10CB0BE
:1034B0002046BDE870401946FFF74BBA606A596A6A
:1034C000884237D80ED3C0F1090008E053F8202015
:1034D00054F820108A4205D82CD300F101000928A5
:1034E000F4D327E06A4621461846FFF705FF6946F0
:1034F00024222046FEF7CAFD0998C4E909060CB04B
:1035000070BD54F8202053F820108A4212D803D3FB
:1035100000F101000928F4D36A4621461846FFF756
:10352000EBFE694624222046FEF7B0FD0998C4E967
:103530000905E4E70CB02046BDE870401946FFF7E6
:103540007BBF00000249096801F007010170704764
:1035500000A000400248016841F47001016070471A
:1035600088ED00E002480068001D0FF00BBA000073
:10357000D028002002484068001D0FF003BA000068
:10358000D0280020FEE700000FB4054B10B503A9BA
:10359000044A029800F0ECFC10BC5DF814FB00003B
:1035A0000DC32000F42800200FB41CB502460020F3
:1035B00007AC00290BD0491ECDE90021054B6A4616
:1035C0002146069800F0D4FC009A002111701CBC22
:1035D0005DF814FB9F4620000FB4084B10B504A9FA
:1035E00002AA039800F0C4FC044602A9002001F0DE
:1035F00061F8204610BC5DF814FB0000B5462000C1
:103600007CB5044600201D46164600290BD0491EF5
:10361000CDE90041044B6A462946304600F0A8FC3B
:10362000009A002111707CBD9F462000002809DB14
:1036300000F01F02012191404009800000F1E020CC
:10364000C0F880127047002809DB00F01F0201213A
:1036500091404009800000F1E020C0F880127047DE
:10366000002809DB00F01F02012191404009800081
:1036700000F1E020C0F800117047002809DB00F0DD
:103680001F02012191404009800000F1E020C0F8B4
:1036900000117047002804DB00F1E02090F80004DE
:1036A000704700F00F0000F1E02090F8140D704713
:1036B000002804DB00F1E02090F80004704700F0DF
:1036C0000F0000F1E02090F8140D7047002804DB93
:1036D00000F1E02090F80004704700F00F0000F1C6
:1036E000E02090F8140D7047002804DB00F1E02082
:1036F00090F80004704700F00F0000F1E02090F80F
:10370000140D7047002804DB00F1E02090F800045D
:10371000704700F00F0000F1E02090F8140D7047A2
:10372000002804DB00F1E02090F80004704700F06E
:103730000F0000F1E02090F8140D7047002804DB22
:1037400000F1E02090F80004704700F00F0000F155
:10375000E02090F8140D7047002804DB00F1E02011
:1037600090F80004704700F00F0000F1E02090F89E
:10377000140D7047002804DB00F1E02090F80004ED
:10378000704700F00F0000F1E02090F8140D704732
:1037900002480068C0F30220704700000CED00E012
:1037A00002480068C0F30220704700000CED00E002
:1037B00002480068C0F30220704700000CED00E0F2
:1037C00002480068C0F30220704700000CED00E0E2
:1037D00002480068C0F30220704700000CED00E0D2
:1037E00002480068C0F30220704700000CED00E0C2
:1037F00002480068C0F30220704700000CED00E0B2
:10380000EFF31080704700002DE9F0412DED020B21
:103810009FED3D0B2DED028B9FED3D8BDDE90254BD
:10382000C4F30A50A0F2FF36142E37DA002E18DA4D
:1038300053EC102B9DED020B51EC100BFEF700FD2D
:1038400053EC182BFFF730F857D2002CBCBF4FF0C9
:103850000044002551DB54EA050018BF2E4C1BD153
:103860004BE02E4820FA06F704EA070028431FD051
:1038700053EC102B9DED020B51EC100BFEF7E0FC0E
:1038800053EC182BFFF710F837D2002C03DD4FF460
:103890008010F0400444BC4300252EE0332E07DCAA
:1038A000A6F114004FF0FF3121FA00F73D4206D196
:1038B0009DED020BBDEC028B02B0BDE8F08153EC34
:1038C000102B9DED020B51EC100BFEF75DFD53EC40
:1038D000182BFEF7E9FF10D2002C0DDD142E08BFC7
:1038E000641C09D0C6F13400012101FA00F028441B
:1038F000A84238BF641C0546BD43CDE902549DED86
:10390000020BD7E7000000009C7500883CE4377E7E
:1039100000000000000000000000F03FFFFF0F006B
:1039200010B52DED020B2DED088B84B09DED0C0B29
:1039300051EC100BFEF744FF41EC180B9DED0C0B06
:1039400053EC182B51EC100BFEF71BFD41EC190B3F
:103950000D989FED290B10F0004F53EC102B51ECFC
:10396000190B9FED21AB9FED22BB0ED0FEF784FF1C
:103970000ED953EC1B2B51EC190BFEF795FF1CD203
:1039800014E000BF41EC180B17E0FEF775FF06D2FC
:1039900053EC1A2B51EC180BFEF7F3FCF2E753EC47
:1039A0001B2B51EC190BFEF77FFF06D853EC1A2B9B
:1039B00051EC180BFEF744FCE4E78DED028B9DED16
:1039C0000C0B18EE901A10EE900A8DED000B61F3BF
:1039D0001E0003909DED020B04B0BDEC088B02B0FD
:1039E00010BD000000000000000000000000F03FDB
:1039F000000000000000E03F000000000000E0BF09
:103A000002E008C8121F08C1002AFAD170477047A7
:103A1000002001E001C1121F002AFBD1704780F392
:103A2000108870472DE9F74F07460298DFF86CA120
:103A3000DFF86C814FEA500B5A48019D5C465646B0
:103A4000CAF80000D8F804203F2060F30502C8F847
:103A50000420DAF8000020F4700040EA0750CAF8A9
:103A60000000DAF8000020F4702040EA0740CAF8AD
:103A700000000D2F02D00E2F04D007E0306840F474
:103A8000004002E0306840F480403060306840F42C
:103A900000503060306820F060503060306820F0B6
:103AA0000F0040F003003060002000F0AFF8012864
:103AB00072D13168B24641F0804131600020424607
:103AC00009E0D8F8083043F48033C8F80830811C86
:103AD00000F1010005D091689046C1F30021002952
:103AE000EFD1072000F092F8012855D142E00026DE
:103AF0004FF47A7924E04E451ED9DAF8001021F00F
:103B00008041CAF80010DAF8001041F00041CAF80C
:103B10000010DAF8001021F00041CAF8001000206F
:103B200000F074F8012837D11F484169491C4161F0
:103B30000520FCF5F7FF7FE70120FCF5F3FF761C7D
:103B4000D8F80800C0F300200028D4D0D8F8080026
:103B5000434600F07F02A24200D92246002006E040
:103B6000196825F8021B090C25F8021B401C90421D
:103B7000F6D3A41A002CBAD10298C00707D0404649
:103B80008168C1F300210029FAD000682880BDE8CF
:103B9000FE4F002000F03AB8BDE8FE8F00A80040BC
:103BA00000E000400A070807942A00202DE9F041B0
:103BB0001249044600200860104980390860104D01
:103BC000686A104E00F00101494201403062C805A8
:103BD0000DD440F20117A869B84208D024B10120E1
:103BE000641EFCF59FFFF6E70020BDE8F081064863
:103BF0000068B0616868F0610120F6E794581C42E3
:103C000000E00040942A002000A800402DE9F04187
:103C1000104F0546F868C0F30240A84217D0F86874
:103C200020F007002843F86000244FF6FF76F8687C
:103C3000C0F30240A84205D00120FCF573FF641CCC
:103C4000B442F4D3B44202D10020BDE8F081012097
:103C5000FBE7000000E000402DE9FF5F82B000219B
:103C6000DDE90430020DDDF840B0034318D044F61E
:103C70001050A2F2FF3242431514119801281FD0B0
:103C8000A5EB0B00401C5FEA000A4FF000064E4F08
:103C9000DFF83891B046504615D5CAF1000413E05C
:103CA000119801244AA3012801D16FEA0B0102985F
:103CB000119AC0E90031C0E9024206B0BDE8F09FA8
:103CC000CBF10000DFE704460021404A491842EBEF
:103CD0000450CDE9001012E0E00707D032463B4621
:103CE00040464946FEF753FB8046894632463B46EE
:103CF00010461946FEF74BFB06460F466410002C93
:103D0000EAD1DDE90401DDE90023BAF1000F06DAAA
:103D1000FEF73DFB42464B46FEF739FB05E0FEF75A
:103D2000A8FB42464B46FEF7A4FB04460E46002283
:103D3000284BFEF7B9FD03D84FF0FF30014607E0EE
:103D40000022254B20463146FEF77AFAFEF77CFD2D
:103D5000102409E0002C0ADB0A220023FEF73AFCBB
:103D6000039B30321A55641E50EA0102F2D1641CE2
:103D7000039AC4F111031444119A012A03D00122B9
:103D800008430DD10AE0084304D000204FF0110B86
:103D9000119072E7A3EB0B056D1E0DE05B4504DD92
:103DA0004FF0000205F1010504E003DA4FF00002D4
:103DB000A5F10105002AECD002981199C0E9023161
:103DC000C0E9004579E70000000014400000F03F22
:103DD000300000000000F0430000E03FF0B50C466A
:103DE0002DED088B89B006469FED559B2021684636
:103DF000FEF773F9B0EE498AF0EE698A102269463F
:103E00003046FFF70FFE00256F4607EB4500008A9E
:103E1000FEF7A0F953EC182BFEF712FA6D1C41ECDB
:103E2000180BEDB2082DF0D39FED470B51EC180B9A
:103E300053EC102BFEF7ABFA41EC180B9FED44BB93
:103E40000D2E02D00E2E30D072E06088FEF782F97F
:103E500053EC1B2BFEF70DFB9FED3F0B41EC190BB9
:103E600051EC100B81F0004141EC1A0BE088FEF799
:103E700071F953EC1A2BFEF78AFA41EC1A0B2088E1
:103E8000FEF768F953EC182BFEF77EFA53EC1A2B69
:103E9000FEF7EFFA9FED321B53EC112BFEF7E9FA18
:103EA00053EC192BFEF7CCF940E0A07EFF2801D09F
:103EB000E8B13DE09FED2C0B51EC100B81F000417F
:103EC00041EC1A0BE088FEF745F941EC190B20890B
:103ED000FEF740F953EC182BFEF756FA53EC192B6A
:103EE000FEF7C7FA53EC1A2BFEF751FA1EE0A08832
:103EF000FEF730F941EC190BE088FEF72BF981F061
:103F0000004141EC1A0B2089FEF724F953EC182BE1
:103F1000FEF73AFA53EC1A2BFEF7ABFA53EC192BD7
:103F2000FEF735FA53EC1B2BFEF7A3FA41EC190B05
:103F300009B0B0EE490AF0EE690ABDEC088BF0BD9D
:103F40000000000000000000000000000000C03F72
:103F50000000000000005940000000000000004088
:103F6000DE718A8EE4F25FBFE2E1E1E1E1E10E4061
:103F70002DE9FF4F95B09B468946064600250FE286
:103F8000252877D100242746F84A0121059400E02E
:103F9000044316F8013F203B01FA03F01042F7D129
:103FA00030782A2811D06FF02F033078A0F130023A
:103FB000092A16D8059A44F0020402EB820203EBA8
:103FC00042021044761C0590EFE759F8042B059245
:103FD000002A03DA504244F40054059044F00204ED
:103FE000761C30782E2816D116F8010F44F0040400
:103FF0002A280DD06FF02F023078A0F13003092B62
:1040000009D807EB870302EB4303C718761CF3E7D5
:1040100059F8047B761C30786C280FD006DC4C28CD
:1040200017D068280DD06A2814D104E0742810D065
:104030007A280FD10DE044F400140AE044F480140F
:1040400001E044F440147278824202D104F58014F5
:10405000761C761C307866280BD013DC582877D075
:1040600009DC002875D04528F6D04628F4D047282A
:104070001AD19DE118E0632835D0642879D06528ED
:1040800012D195E1702873D008DC6728F1D0692837
:104090006FD06E280DD06F2806D1B5E073282CD0D4
:1040A000752875D0782874D05A46179990476D1C9A
:1040B00075E1C4F30250022809D003280DD0D9F8C5
:1040C000001004280DD00D6009F1040967E1D9F84A
:1040D0000010EA17C1E90052F6E7D9F800100D8088
:1040E000F2E70D70F0E719F8041B8DF800100020BE
:1040F0008DF80100EA46012003E059F804AB4FF0C7
:10410000FF3061074FF0000102D40DE008F101011A
:104110008846B9420FDA8045F8DB1AF80810002902
:10412000F4D108E008F1010188468142FADB1AF86F
:1041300008100029F6D105985B46A0EB0807214638
:104140003846179A00F094FA284400EB080507E077
:104150004DE029E10DE01AF8010B5A4617999047F6
:10416000B8F10108F7D25B4621463846179A13E1A9
:1041700042E00A220092C4F302524FF0000A022ADF
:1041800008D059F804CB032A4FEAEC710AD00DE0AD
:1041900029E02AE009F1070121F00702F2E802C153
:1041A000914609E00FFA8CFC4FEAEC71042A03D126
:1041B0004FFA8CFC4FEAEC71002907DA0A4600211D
:1041C000DCF1000C61EB02012D2202E0220504D596
:1041D0002B228DF80420012203E0E20701D02022E7
:1041E000F7E7904659E00A2102E010220DE0102185
:1041F0004FF0000A00910BE010224FF0000A44F04B
:1042000004040827009203E008224FF0000A0092FD
:10421000C4F30252022A05D059F804CB0021032A24
:1042200008D009E009F1070121F00702F2E802C114
:10423000914605E01FFA8CFC042A01D10CF0FF0C1A
:104240004FF00008220728D5702806D0009B83F085
:10425000100353EA0A0305D00EE040228DF8042033
:10426000012208E05CEA010206D030228DF8042029
:104270008DF8050002229046009B83F0080353EA64
:104280000A030AD15CEA010201D1620705D5302296
:104290008DF804204FF001087F1E582804D034A068
:1042A00003900EA802900DE036A0F9E75346604651
:1042B000009AFEF78FF984460398825C0298401EAC
:1042C000029002705CEA0100F0D1029806A9081A77
:1042D00000F1200A600702D524F4803400E00127B1
:1042E000574502DDA7EB0A0000E0002000EB0A01C1
:1042F000009005984144401A0590E00306D45B46BF
:104300002146179A059800F0B3F90544002706E006
:1043100001A85A46C05D179990476D1C7F1C474500
:10432000F6DBE0030CD55B462146179A059800F0B2
:104330009FF9054404E030205A46179990476D1CB8
:104340000099481E00900029F5DC08E002980299C7
:104350005A460078491C0291179990476D1CBAF192
:104360000001AAF1010AF1DC65E100000928010061
:1043700030313233343536373839616263646566DB
:10438000000000003031323334353637383941429D
:10439000434445460000000000F058F90544761CEF
:1043A000307800287FF4ECAD19B02846BDE8F08FD6
:1043B000620700D4062709F1070222F0070CFCE887
:1043C0000223E14603F000485FEA080C02D00FF236
:1043D000702C0DE05FEA045C02D50FF2682C07E058
:1043E0005FEAC47C02D00FF2602C01E0AFF2700CE7
:1043F0004FF0FF3823F00043CDF850C065280CD0B3
:1044000006DC452809D046281DD047283DD13DE08F
:10441000662818D067287ED138E00021112F01DBF3
:10442000112000E0781CCDE9000106A90EA8FFF7D5
:1044300013FCDDE90F010E9A03910021009207F1B0
:10444000010A04914DE04FF000400097CDE90110C2
:1044500006A90EA8FFF700FCDDE90F0203920E9BF0
:1044600011990022DDF80CA00093049211B9791C77
:1044700000EB010AB7EB0A0004D4C0F1FF3007F1EA
:10448000010A0490AAEB0700019044E0012F00DA32
:1044900001270021112F01DD112000E03846CDE970
:1044A000000106A90EA8FFF7D7FBDDE90F010E9A60
:1044B0000391002104910092BA4621070CD403997C
:1044C000514500DA8A46BAF1010F05DD009AAAF1DA
:1044D0000101515C302908D0B84202DA10F1040F12
:1044E00006DA0121CDE9011015E0AAF10101E9E7A1
:1044F000002805DC049901440491AAEB000102E0C4
:10450000411C514500DD8A460499401A401C019027
:104510004FF000400290200704D40198504501DB81
:10452000CDF8048000208DF84F0002980DF14F0760
:10453000B0F1004F25D02B200E9002984FF00208CA
:1045400000280CDA404202902D200E9007E00A214C
:104550000298FEF729F83031029007F8011DB8F1F2
:104560000001A8F10108F2DC02980028EFD1791EC1
:104570000E980870307800F0200040F0450007F8F1
:10458000020D12A8C01B00F107081498007800B1B2
:10459000012000EB0A01019801EBE071059841440C
:1045A000401A401E0590E00306D45B462146179A48
:1045B000059800F05DF805441498007818B15A4643
:1045C000179990476D1CE00324D55B462146179A46
:1045D000059800F04DF805441CE00498002807DB1E
:1045E000DDE90301884203DD0098405C179901E092
:1045F000179930205A469047049805F10105401C50
:1046000004900198401E019004D12E205A4617991B
:1046100090476D1CBAF10001AAF1010ADDDC05E04A
:1046200017F8010B5A46179990476D1CB8F1000115
:10463000A8F10108F4DC5B462146179A0598ABE621
:104640002D0000002B000000200000002DE9F041AB
:10465000044600251E461746880404D405E0394662
:104660002020B0476D1C641EF9D52846BDE8F081B6
:104670002DE9F041044600251E469046C80301D5A9
:10468000302700E02027880404D505E0414638465D
:10469000B0476D1C641EF9D52846BDE8F0814A6814
:1046A000002A06D00A68531C0B6010704868401E30
:1046B000486070470A68531C0B6010707047000018
:1046C00070B504466FF01305552811DA412C0DDA48
:1046D0002D2C06DA14F10A0F01DB032009E0AC42AD
:1046E00001DB042005E014F11E0F01DB052000E0D2
:1046F000062011F0C5FB17F06BF9A8B11648006849
:10470000C0F3805080B904F114011448142902D276
:1047100040F2DC5106E0AC4202DA4FF4AF6101E056
:104720004FF4C8614161C16117F062F9002811D0EE
:10473000FDF6C6FC3C2C06DD032802D06FF00C0011
:1047400004E00D2002E0322C04DA1C20BDE87040A9
:104750000FF0E4BB70BD000014A80040807E002074
:1047600010B51A4940F21A444FF4B9720B694FF46C
:1047700096710C3BA3420FD90424BE2801DC0C2403
:104780001BE0DC2801DC082417E0FA280EDD884253
:1047900010DD904211DD0FE0BE2801DC0B240CE09F
:1047A000DC2801DC072408E0FA2801DC062404E008
:1047B000884201DC052400E00324204611F074FB4C
:1047C0002046BDE8104011F051BB0000807E002063
:1047D0000648016841F00101016006480449016092
:1047E000054941600549816070470000302C002078
:1047F000C5CA20000C82002025C920001DC320004E
:1048000010B59AB0002828D003F0A8FE04464CB199
:104810001422394903A8FDF739FCADF8104003A86C
:1048200000F0CAFB04F084F9044654B11422324962
:10483000143103A8FDF72AFCADF8104003A800F0DE
:10484000BBFB2EA04FF49871CDE900102A4B34A287
:10485000103B39A1032000F0FFFF39490020887088
:10486000384907228A73087408A804F08FF90446AF
:1048700054B114222049283103A8FDF707FCADF8F4
:10488000104003A800F098FB2D4A9DF82000083244
:1048900000282CD0401EC0EBC00008A90844A2F19B
:1048A0000A0150F8013FC1F80A308388CB81807932
:1048B0000874107851789378D478CDE90443CDE921
:1048C00006101079517920A24FF4A273CDE900327D
:1048D000CDE90210084B12A2103B17A1032000F0F3
:1048E000BBFF1748083012F0B7FF1AB010BDFF2009
:1048F000907107F06FF8F8E720E02100426F6E64D6
:10490000696E6720616E642057686974656C6973AD
:10491000742061726520636C6561726564000000DB
:104920002E2E5C5372635C757365725C7573657271
:104930005F6170702E6300004E4F5F54414700006E
:10494000B2290020A07800207768697465206C691E
:10495000737465206465762D253032583A253032DF
:10496000583A253032583A253032583A25303258A4
:104970003A253032580000002DE9F0411D4690469E
:10498000DDE906230F4606460D498020FEF569FF46
:10499000044680F83C50202239463D30FDF776FB36
:1049A0002022314604F15D00FDF770FB04F13C026A
:1049B00041462046BDE8F0414123FFF5D7B800004D
:1049C000C5492000FFF532B82DE9F0471D46DDE965
:1049D000097392468946064600221F49A820DDF841
:1049E0002080FEF53EFF002180F8A510C763044635
:1049F00080F85010012084F85100D8F80010C4F855
:104A00005210B8F80410A4F8561098F8060084F86C
:104A100058002868C4F85900A888A4F85D00A8794F
:104A200084F85F001022514604F16000FDF72EFB70
:104A30001022494604F17000FDF728FB0748324672
:104A400006490068C4F880002046BDE8F0472023EE
:104A5000091DFFF58BB80000614A200038E92100EC
:104A60002DE9F0478A4604460027FEF5DFFF50B3E4
:104A700094F8A5004FF0010904F1500804F1400634
:104A800030B104F1850501280DD0022828D11BE0A2
:104A9000102251463046FDF7F9FA002084F88400D0
:104AA00084F8A59009E0102251462846FDF7EEFA59
:104AB00084F88490022084F8A500352342463146CC
:104AC0002046FFF553F80BE01022514604F1950003
:104AD000FDF7DCFAE36B29460020A269984701271D
:104AE0003846BDE8F08700002DE9F05F9B4692460E
:104AF0000546DDE90D230AA8894690E8C0011C4956
:104B00008020FEF5AEFE0446102249466D30FDF7CA
:104B1000BDFA1022514604F15D00FDF7B7FA1022EC
:104B2000594604F14D00FDF7B1FA3088A4F84A0067
:104B3000B07884F84C003968C4F84310B988A4F8F8
:104B40004710B87984F84900D8F80000E063B8F855
:104B50000400A4F8400098F8060084F8420004F12C
:104B60003C0229462046BDE8F05F4123FEF5FEBF2A
:104B7000754B2000FEF55ABF2DE9F0411F469046C7
:104B8000DDE906230E4605460F498C20FEF569FE39
:104B90000446202229466C30FDF778FA202231465F
:104BA00004F14C00FDF772FA04F13C001022394682
:104BB0000546FDF76BFA2A4641462046BDE8F0411E
:104BC0005023FEF5D3BF0000CD4B2000FEF52EBFD5
:104BD0001CB5002810D10D48007801280DD00228FE
:104BE0000FD00BA040F22921CDE900100E4B0FA2EF
:104BF00014A1032000F030FE1CBDBDE81C400EF0E7
:104C0000D9BFBDE81C4013F0BDBB0000B029002097
:104C10004164766572746973696E672074696D6545
:104C20006F75742E00000000F2E121002E2E5C53FF
:104C300072635C757365725C757365725F617070C9
:104C40002E6300004E4F5F544147000006460F465A
:104C5000154672B63846FDF74BFA402801D9402078
:104C600002E03846FDF744FA80463046FDF740FA48
:104C7000402801D9402002E03046FDF739FA0446C9
:104C80009C211048FDF729FA424639460D48FDF7A8
:104C9000FDF90C48224631465C30FDF7F7F909482A
:104CA0004FF0AA31016445644FF0BB3181644FF08D
:104CB000CC3101654FF0DD318165002000F004F852
:104CC000FEE700004037002030B5ADF20C4D044641
:104CD0004FF4806103A8FDF700FA194D202085F8F4
:104CE0003F0085F89B003CB12846012C436DC26C07
:104CF00009D0022C0CD00FE0114A12A15C3203A89B
:104D0000FEF76AFC08E012A103A8FEF765FC03E0C9
:104D100017A103A8FEF760FC03A90CA2686CCDE9FB
:104D20000121009019A3064A19A1002000F094FD6A
:104D3000012C01D000F048FD0DF20C4D30BD0000FB
:104D4000403700205B4552524F525D2025730000D2
:104D50005B5741524E494E475D20506172616D3044
:104D60003A25642C506172616D313A25640000006F
:104D70005B504152414D5D20506172616D303A256A
:104D8000642C506172616D313A25640000000000AE
:104D90006170705F6173736572742E630000000050
:104DA000014816F0EFB90000F828002006460F462B
:104DB00090461D4672B64046FDF79AF9402801D943
:104DC000402002E04046FDF793F904469C210D483F
:104DD000FDF783F9224641460A48FDF757F909488D
:104DE0004FF05531016445644FF066318164C6640B
:104DF0004FF0773101654765C94381650220FFF7B0
:104E000063FFFEE7403700202DE9F04106460F46DC
:104E100090461D464046FDF76BF9402801D94020D9
:104E200002E04046FDF764F904469C210D48FDF779
:104E300054F9224641460B48FDF728F909484FF03E
:104E400011310164456449008164C6644FF0333117
:104E5000016547654FF044318165BDE8F0410120AF
:104E6000FFF732BF4037002010B588B0817AC27A90
:104E7000037B447BCDE90443CDE90621817BC07BE4
:104E800007A240F21123CDE90032CDE90201124B15
:104E900012A218A1022000F0DFFC08B010BD000033
:104EA000436F6E6E656374656420776974682074FF
:104EB0006865207065657220253032583A25303299
:104EC000583A253032583A253032583A253032583F
:104ED0003A253032582E0000DCE121002E2E5C53A2
:104EE00072635C757365725C757365725F61707017
:104EF0002E6300004E4F5F544147000010B598B03C
:104F00001CA140F2FF12CDE9002102901F4B20A20C
:104F100025A1022000F0A0FC25490020087006A869
:104F200003F034FE044654B1142218491C3101A880
:104F3000FDF7ACF8ADF8084001A800F03DF89DF889
:104F4000180098B1401EC0EBC00006A908441949DA
:104F500050F8012FC1F80A208288CA81807908742C
:104F600001F10A0012F078FC18B010BD06F032FD15
:104F7000FAE70000446973636F6E6E65637465647D
:104F80002028307825303258292E0000ACE121004D
:104F90002E2E5C5372635C757365725C75736572FB
:104FA0005F6170702E6300004E4F5F5441470000F8
:104FB00063290020B02900203EB504464FF400715B
:104FC0001A48FDF78AF8207810B1012819D01DE0A1
:104FD00000211748A28830F831309A4207D100EBFF
:104FE000C10014A143681148FEF7F6FA0EE02E291D
:104FF00002D0491CC9B2EEE714A10C48FEF7ECFA46
:1050000004E01DA109486268FEF7E6FA074921A2FB
:105010002069CDE901210090D4E902231EA10020DE
:1050200000F01AFCBDE83E4000F0E2BB4035002035
:10503000D0D521004572726F7220636F6465203095
:1050400078253034583A2025730000004572726F7D
:105050007220636F6465203078253034583A204ED2
:105060006F20666F756E6420696E666F726D617415
:10507000696F6E2E000000002825732920697320B7
:105080006E6F742065737461626C69736865642EF9
:1050900000000000257300006170705F6572726F20
:1050A000722E63002DE9F041014600291BD0002437
:1050B0000F4E0E4A357814E002EB04100F78037897
:1050C000BB420CD14B684068034208D0707808B9E5
:1050D00000F058FB2046BDE8F04100F04BBA641CDC
:1050E000E4B2AC42E8D3BDE8F0810000EC37002028
:1050F000042900207CB505460E46002D01D0002471
:1051000018E0E5207CBD05EB041041680091017AB0
:105110008DF80410417A8DF8051000218DF80610E5
:10512000C26800780023694600F036F80028E9D10B
:10513000641CE4B2B442E6D300207CBD10B5024644
:105140000846052A24D2DFE802F003030311190000
:10515000104951F832200104090C05D022B1014652
:1051600010460CF079FE0FE0E42010BD10F0FF0FA8
:1051700002D00CF0B7FA07E0E42010BD810505D09D
:10518000014600200CF02CFF002010BDE42010BDD3
:10519000E62010BDD4D421002DE9F05F05460C4671
:1051A0009046994626680027042D11D0314628469E
:1051B000FFF7C4FF2146284600F068F8002808D110
:1051C000032D08D04FF0100A2807070E002451E0E5
:1051D000E620BDE8F09F4FF0080AF7E7F00746D059
:1051E0003DB1012D05D0022D03D0032D27D0E6209F
:1051F000EFE7244800EBC50090F904B0BBF1000FC5
:1052000017D0EFF31081012080F310881E4AE019B7
:1052100042F8308002EBC000C0F8049059B1012080
:1052200080F3108858460CF047FF58460CF051FFA9
:105230001DE0E420CDE7002080F31088F2E7EFF3D3
:105240001081012080F310880F4AE019703242F873
:10525000308002EBC000C0F8049079B1012080F3E7
:10526000108815200CF028FF15200CF032FF76086E
:10527000641CE4B25445B1D30020AAE7002080F3B7
:105280001088EEE7D4D42100C032002030B597B0AA
:1052900005460C461C22414910A8FCF7F7FE1C22CB
:1052A0003E491C3109A8FCF7F1FE20223B49383168
:1052B00001A8FCF7EBFE94B13949062015F0B2FEC7
:1052C0003849152015F0AEFE34496C39A1F12C0295
:1052D000052D60D2DFE805F0060606213900E5203D
:1052E00017B030BD207931F810001190607932F894
:1052F00010001290A07913902068109027488438ED
:1053000050F8350021880904090C04D018B110A9FF
:105310000CF031FE38E0E420E2E7207901EB4000B8
:10532000808A0A90607902EB4000C0880B90A079D7
:105330000C9020680990207810F0FF0F03D009A886
:105340000CF038FA20E0E420CAE72079031F042B90
:1053500001D8E720C4E7022818D001200290207964
:1053600001EB4000008D0390607902EB40008089E2
:105370000490A0790590206801902088800508D0CD
:1053800001A900200CF088FE0020A9E7022002906D
:10539000E5E7E420A4E7E620A2E7000058D52100D5
:1053A000B51F1000B11F100002460020052A11D2BF
:1053B000DFE802F0030303090C00074850F832004D
:1053C00089B20CF0F6BD88B20CF054BA89B2002054
:1053D0000CF064BE70470000D4D42100002803D034
:1053E0000249086001207047002070470C29002006
:1053F00070B505460024091F062917D2DFE801F021
:1054000003070C111315284600F0A4F80EE0012440
:10541000284600F09FF809E00224284600F09AF898
:1054200004E0032402E0042400E00524034A2146AA
:1054300028461268BDE87040104700000C29002083
:105440002DE9F0410446204600F0AEF801462E4812
:1054500000230826025D00F10A0700F11405AAB135
:10546000052A33D0082A2AD1092945D0082926D16E
:10547000295D491CC9B22955142920D32B5506553D
:105480002046BDE8F0410821FFF7B2BF052913D03F
:10549000042916D0072914D0082910D1295D491CE8
:1054A000C9B2295514290AD32B5506552046BDE803
:1054B000F0410821FFF79CBF3B5505210155BDE890
:1054C000F0812046BDE8F041FFF792BF05290CD0DE
:1054D000395D491CC9B239553229F0D303552046EC
:1054E000BDE8F0410521FFF783BF03552046BDE825
:1054F000F0410621FFF77CBF03552046BDE8F0418F
:105500000921FFF775BF0000CC38002070B50446B4
:105510000D4600F00FF808B100F04AF90348044ABC
:105520002946005D5268BDE870401047E037002012
:10553000042900200020064911F810200AB100209B
:105540007047401CC0B20A28F6D301207047000003
:10555000EA3800200349002201F8102001EB400046
:1055600042707047EA380020014A02F81010704774
:10557000EA380020024A012102EB400041707047E6
:10558000EA38002070B50024064D05EB4400407851
:1055900010B12046FFF754FF641CE4B20A2CF4D388
:1055A00070BD0000EA38002070B500211D4B03F1EA
:1055B00032051A5C002A09D0002403F10A06012AE8
:1055C0000AD0022A12D0032A24D11FE015F8102095
:1055D00002B301221A541DE015F810201AB13454F8
:1055E00002221A5416E01C54042113E015F810206E
:1055F0004AB1325C521CD2B23254642A0AD3072117
:1056000003221A5406E005211C5403E015F810107B
:1056100011B10821084670BD1C54FFF79BFF0921FA
:10562000F8E70000B838002038B5012200240094C3
:1056300000280ED0012824D00022002A08D0694674
:10564000002017F093FB00946946002017F08EFBB2
:1056500038BD012909D002290DD00329EDD19DF8CB
:10566000000040F008000090E7E79DF8000040F0DF
:1056700002000090E1E79DF8000040F0200000905B
:10568000DBE7012907D00229D7D19DF8000040F0BF
:1056900010000090D1E79DF8000040F0010000905C
:1056A000CBE700002DE9F0410E4617460A2E02D83E
:1056B0000FB100231AE00020BDE8F08103EB4304A2
:1056C00000EB8405114AA97AD154104910F824201E
:1056D0000C3101EB0314227069686160297A217230
:1056E000697A61720A49E1605B1CDBB2B342E5D3BF
:1056F000064831460C30FFF7FDFC0648067047604F
:105700000548FFF76BFE0120D6E70000E0370020D8
:10571000A5502000042900200D5520002DE9F0415E
:105720000024124FDFF8488019E0002607EB04152B
:1057300028786968FFF738FE10B9697A012902D024
:10574000012802D005E0012603E0687A022800D192
:10575000012631462046FFF707FF641CE4B298F8A3
:1057600000008442E1D3BDE8F0810000EC37002066
:105770000429002010B5FFF7D1FFBDE81040FFF766
:1057800001BF000010B5074A0121074800F0CEF91B
:1057900000220A21044800F01FFB04490120487040
:1057A00010BD00007557200090380020042900200B
:1057B00010B5034800F0E8F902490020487010BD18
:1057C00090380020042900200248406A002800D0B8
:1057D0000047704718350020002806D0002904D063
:1057E000024AD269002A00D01047704718350020BD
:1057F0000248006A002800D0004770471835002092
:1058000070B50D4616460D4C00280AD001780329C4
:1058100011D80121A17601461A222046FCF736FC58
:1058200005E00020A0761A210448FCF756FCE5614B
:105830002662002070BD012070BD000018350020D8
:10584000044A1044807D084201D0012070470020A6
:1058500070470000183500202DE9FE4F074692469C
:1058600099460024A046CDF80480CDF80880594818
:105870000178B94202D2807E00287DD10EAD00951C
:10588000EFF311860220FDF713FF8346FDF788FF33
:10589000401C012181400BEB0100C0B280F3118854
:1058A00001213846FFF7CCFF38B14B484B4950F83F
:1058B0002720204600F0A4F804461C213846FFF7B4
:1058C000BFFF00285ED046A24449204600F098F869
:1058D000204484B204213846FFF7B2FFF8B15246A3
:1058E0003E49204600F08CF8204484B20821384616
:1058F000FFF7A6FF38B13BA23849204600F080F8F8
:10590000204484B20BE010213846FFF799FF30B1F4
:1059100035A23249204600F073F8204484B20821B1
:105920003846FFF78DFF90B14A462C49204600F0DB
:1059300067F8204484B210213846FFF781FF30B168
:105940002AA22649204600F05BF8204484B21021A8
:105950003846FFF775FF60B126A2052101A80C9B10
:10596000FDF722FE01AA1D49204600F049F8204417
:1059700084B221A2194900E029E0204600F040F855
:10598000204484B21548C4F5807120442B460D9AFA
:10599000FDF736FECDF800804FF48071002804DB5F
:1059A0002044884201DC85B200E00D46A81C8842F4
:1059B00000D9FE2511A20949284600F021F8284403
:1059C00081B20648FFF708FFF0B280F31188BDE806
:1059D000FE8F000018350020E42800201834002035
:1059E00028000000200000003A000000204C696EF2
:1059F000653A0000256C6400292000000D0A0000B3
:105A000030B50546002000290CD0002A0AD006E057
:105A10002B18FF2B06D8CC54521C401C80B2147893
:105A2000002CF5D130BD7047014901200870704746
:105A30006329002010B5094A06214CF2010012F03A
:105A4000C7FB04F0F5FE0A220549002000F0DAFC4D
:105A5000BDE81040012028F6BBBF000034DF210064
:105A6000083B002010B50848017800290AD101211F
:105A70000170064828F616FFBDE8104000210448D2
:105A800029F612B810BD0000CC280020C11F10005C
:105A9000298A210030B58BB005460C46002C17D062
:105AA000242102A8FCF719FB2178012291B10129D8
:105AB0000ED10D4805700D4802700DA04FF4F9711C
:105AC000CDE90010104B11A216A10220FFF7C4FE71
:105AD0000BB030BD00218DF808108DF8092002A907
:105AE000284604F069FBF3E76129002062290020C1
:105AF000506C6561736520696E7075742070617398
:105B000073776F726400000090E121002E2E5C53C9
:105B100072635C757365725C757365725F617070DA
:105B20002E6300004E4F5F54414700002DE9F041C5
:105B300004460D461746002D04D0012D02D0012049
:105B4000BDE8F081E4B1DFB1607801281AD0EFF34D
:105B500011860220FDF79EFD8046FDF719FE401CD0
:105B60000121814008EB0100C0B280F311880020C0
:105B70006070A570E761F0B280F311880020DFE764
:105B80000120DDE70620DBE710B50446002C0CD031
:105B9000204600F0B3F9FF2060700021A160E160B1
:105BA000216161610020E06110BD012010BDF0B5F0
:105BB000DDE90745059981614FF47A76A2FB061C61
:105BC00003FB06C3002702FB0732C0E902120919D2
:105BD0006A41C0E9041200210162F0BD2DE9F041E3
:105BE0000446002C13D0EFF311850220FDF752FD7F
:105BF0000746FDF7CDFD401C012606FA00F03844AB
:105C0000C0B280F311881248002121620EE000200A
:105C1000BDE8F081D4E90432D1E9047CDB1B72EBEE
:105C20000C0202D2016A216203E00846016A0029DF
:105C3000F0D104626670064810380168491C0160A2
:105C4000016B4160E8B280F311880120E0E70000B9
:105C5000B83300202DE9F04105460024EFF311860A
:105C60000220FDF717FD0746FDF792FD401C0121BC
:105C700081407818C0B280F31188134A106BE8B1E4
:105C800015B102F1100010E00446206A106310689C
:105C9000401E10600CE0A94206D11168491E116037
:105CA000296A01622C4603E00846016A0029F2D104
:105CB00024B1002020626070106B5060F0B280F35D
:105CC00011882046BDE8F081A83300202DE9F0417D
:105CD000EFF311870220FDF7DDFC0446FDF758FDC8
:105CE000401C012181406018C0B280F31188114D21
:105CF000002608E02078012804D1E16909B1A069F3
:105D0000884726702D6A2C6A002CF3D1094D103D6E
:105D100007E0E16909B1A06988472670206AA86395
:105D20002662AC6B002CF4D1F8B280F3118801200C
:105D3000BDE8F081B83300202DE9F041EFF3118781
:105D40000220FDF7A7FC0446FDF722FD401C0126BA
:105D500006FA00F02044C0B280F311881D4DA5F171
:105D600010082DE0D4E90430D8E902125B1A60EB88
:105D70000200D8E91021D21A814124D3267020468E
:105D8000FFF768FFA078012806D0124828300021CC
:105D90002162016861B10FE0D8E90220D4E9021361
:105DA00051185841C4E904102046FFF717FF07E0D7
:105DB000046005E001F1200001680029FAD10460C7
:105DC0002C6A002CCED1F8B280F311880120BDE8F6
:105DD000F0810000B83300202DE9FF5F82460E46B7
:105DE00093464FF00008BAF1000F20D04148864298
:105DF0001DD8E6B1EFF311870220FDF74BFC0446F6
:105E0000FDF7C6FC401C012181406018C0B280F340
:105E1000118850460EF08CFB10B19AF8010040B189
:105E2000F8B280F311880F2004B0BDE8F09F012084
:105E3000FAE711F07DFD04460D464FF47A7106FB3A
:105E400001F022462B4600210EF05CFADFF8A89004
:105E5000B0B1D9F8040048B1D0E90410091B60EBD7
:105E60000500C9E9021011F0DDFD04E00021C9F8C8
:105E70000810C9F80C104FF00108D9E9020106E03A
:105E8000D9F80400D0E90421101B61EB0501CDE92C
:105E9000020132460023CDF800B05046FFF787FEDE
:105EA0005046FFF79BFE14F0D1FF4FF0E024D4F8EA
:105EB00000014FF4801510F4801F01D0012000E094
:105EC000002020B91420FDF7B1FBC4F80051B8F14F
:105ED000000F0AD0D9F80400D0E90431D9E9020250
:105EE000181A61EB020111F059FDF8B280F3118824
:105EF000002099E7008AB907A83300202DE9F04176
:105F000004460025002C39D0EFF311870220FDF75D
:105F1000C1FB0646FDF73CFC401C01218140701886
:105F2000C0B280F311886078012824D1144E7068C3
:105F3000A0420BD111F0FCFCD4E90432181A62EB38
:105F40000102C6E9020211F06DFD01252046FFF7AE
:105F500081FE5DB1706848B1D0E90421D6E9020341
:105F6000101A61EB030111F019FD04E01DB970680E
:105F700008B911F057FDF8B280F31188BDE8F0813F
:105F8000A833002070B504461A4D55F8240070302F
:105F900013F021FE82B21646A2B155F8240090F803
:105FA000011101290ED0012180F80411802A0FD39C
:105FB00055F82400802200F18001703013F026FE95
:105FC00080260CE055F82410002081F8000170BDF7
:105FD00055F8240000F18001703013F017FE55F8D9
:105FE0002400324600F18001001D0CF00FFE002855
:105FF000EDD170BDD0280020F0B58DB00021007823
:10600000022878D1584F0025584E7878002851D072
:10601000307840F63542303810FB02F001EB40108A
:10602000717840F27122303911FB02F100EB01115D
:10603000B078303800EB4002C2EBC01001EBC00179
:10604000F078303800EBC00202EB001001EB800169
:106050003079303800EB800001EB40007179303846
:106060000C1843A0CDE901049D210091464B47A2A5
:106070004FA10220FFF7F0FB242104A8FCF72DF824
:1060800001208DF810008DF8110010210DF1120083
:10609000FCF723F88DF81240200A8DF81300200C2D
:1060A0008DF81400200E8DF8150004A9387804F03E
:1060B00083F87D70B878E8B3029503953178A1F143
:1060C0003000092809D8302903D013398DF80A1077
:1060D00039E027208DF80A0035E0A1F141001828A9
:1060E0000AD83D398DF80A109DF8080040F00200EA
:1060F0008DF8080027E035E0A1F16100192803D8E8
:106100005D398DF80A101EE00D2914D000201E4ABA
:10611000443A135C994212D11B492239095C8DF82B
:106120000A1015280FD29DF8080040F002008DF8E3
:10613000080008E011E028208DF80A0003E0401C68
:10614000C0B22228E5D302A9002016F001FE029574
:10615000039502A9002016F0FBFD0A220349002046
:1061600000F050F90DB0F0BD61290020083B00207F
:106170005265636569766564205061737320636F4F
:1061800064653A202564000088DF21002E2E5C53D0
:1061900072635C706C6174666F726D5C757365724E
:1061A0005F7065726970685F73657475702E6300E7
:1061B0004E4F5F54414700002DE9F8430446534FCA
:1061C00057F82400061D022C7ED290F86C1000298E
:1061D0007AD0012978D190F80011012974D190F872
:1061E0000111002970D1012180F80111002157F817
:1061F0002400D0E903231344027D02F00102D21DE2
:106200009D184268D36FC3F38003002BFAD090F837
:106210000421A2B13E4A1368491C90F83B20102A81
:1062200006D08268B3FBF2F26A43B1EBC21FF3D926
:1062300057F82400703013F0CEFC85B226E0B0F899
:106240002480C58C001D0CF02FFA57F8240041F271
:10625000883300EB0801491B8031001D2A460CF0F1
:106260008AFCE5E757F8240001227030694613F0F4
:10627000CDFC57F824004068C16FC1F340010029EC
:10628000FAD09DF8001001606D1EADB2002DE9D16D
:1062900057F82400703013F09EFC0028C8D13068F5
:1062A00041694906FCD5EFF31085012080F3108881
:1062B00057F82400703013F08EFC78B1EFF31081A2
:1062C000012080F3108800E015E03068426842F059
:1062D0008202426089B1012080F3108857F82410AF
:1062E000002081F8000157F8241081F8010145B120
:1062F000012080F31088BDE8F883002080F3108827
:10630000ECE7002080F31088F5E70000D02800209B
:106310005C0000202DE9F04105460F46002D06D017
:106320002AB12C78022C04D3E820BDE8F081E520C6
:10633000FBE7304E05F1580046F82400D2E9003161
:106340000A467030194613F02BFC291D286D16F0F3
:1063500077FA0028E9D156F82410281D486656F827
:106360002400076056F824001822083005F1400187
:10637000FBF78CFE204856F8241000EBC405686833
:10638000486056F82400001D0CF0EEF956F8240081
:10639000001D0CF08BFA184801220321103812F06E
:1063A0007FFB56F82410012081F86C0056F8241069
:1063B000002081F8000156F8241081F8010156F8F8
:1063C000241081F8020156F8241081F803010B49CA
:1063D0000C2014F027FE0A490D2014F023FE95F935
:1063E00001000BF069FE95F901000BF072FE002030
:1063F0009BE70000D0280020C0D521006535200093
:106400007535200070B5022801D3E82070BD134C0B
:1064100054F820304BB193F86C5035B139B132B1EA
:1064200093F80351012D04D010E0E52070BDE42065
:1064300070BD002583F8035154F820305B680225B5
:10644000C3F8885054F820305B681B6854F820006B
:10645000001D0CF0EFFA0028EAD170BDD028002012
:106460002DE9F04104461A4D55F82400703013F020
:10647000B2FB82B2164600277AB155F8240090F894
:106480000111012909D0802A0ED300F1800170305A
:10649000802213F0BBFB80260BE055F8240080F827
:1064A00000710020BDE8F08100F18001703013F030
:1064B000ADFB55F8240080F8047155F824003246ED
:1064C00000F18001001D0CF007FC0028EAD1E9E78B
:1064D000D028002070B5022801D3E82070BD104DEF
:1064E00055F8204064B194F86C604EB151B14AB196
:1064F0005E1C09D044F62066B34205D9E42070BD85
:10650000E52070BDE42070BD002684F8026155F8D6
:106510002000001D0CF02FFB0028F4D170BD0000FE
:10652000D02800202DE9F84F2A4D804692460E468D
:1065300001F10804A8F58041274A6868B1F5804F49
:1065400001D25168401A844202D90520BDE8F88F73
:1065500028681369411E9268C1F30B01411A9A1A07
:1065600001F6FF716B7AC1F30731C91A02EBC10161
:10657000081A001F844225D9184F002400941123C3
:106580001E224FF40049D7F800C049460120E047D9
:10659000002108460AF03AFD40B1009413231E2260
:1065A0003C6849460120A0470A20CFE7687A0DF0F1
:1065B000EFFD0028CAD1009412231E223C684946F0
:1065C0000120A047524631464046BDE8F84F16F03C
:1065D000D9BC0000047C0020442A0020E0010020F7
:1065E000FEB50C4606460A79002101208DE8070019
:1065F000164D03230D2240212D680020A847607806
:106600000125162811D1012130460AF6A7FB60B1F9
:10661000407850B10E49207951F8261081F8480091
:106620000021304600F036FC002560780C2805D1AA
:106630002079072802D1304600F052FC25B122799A
:10664000012130460AF642FE0020FEBDE001002096
:10665000CC19002070B50D46044608F675FD698812
:10666000884200D2014620460AF61EFF012120463C
:106670000AF638FB012801D0412200E00022012166
:1066800020460AF623FE002070BD000038B50446FF
:10669000134D0020009002230D222D684021A847B1
:1066A000012120460AF61EFB0C2803D00E2814D028
:1066B00041220CE0012120460AF650FB4189008965
:1066C00081420AD0074850F8240090F84820012160
:1066D00020460AF6FBFD002038BD0022F7E7000047
:1066E000E0010020CC1900202DE9F0470F4681463B
:1066F00001210AF6F7FA032801D0402242E00121E5
:1067000048460AF62BFB4FF6FF7A05460026D04690
:1067100024E0012148460AF659FB6B780146052220
:1067200002EB092240F604409B1D11F6A3FB044630
:10673000B819B61C80882080B0B23918801C8988AE
:10674000618086B26878207188466A7805F1080110
:10675000601DFBF79BFC204611F6D8FB7888B04201
:10676000D7D8E98808F1010080B2514500D35146DD
:10677000814206D328B1A880012148460AF65CFD73
:1067800004E00A22012148460AF6A0FD0020BDE8E7
:10679000F0872DE9F0470F46824601210AF6A2FA5A
:1067A000072801D0402246E0012150460AF6D6FAD9
:1067B00081467878012803D010260025A84622E0DB
:1067C0000226FAE7012150460AF600FB014605229F
:1067D00002EB0A22331D40F6074011F64BFB04463C
:1067E0007819AD1CB0F80480ADB2A4F80080791916
:1067F000A6703246E01C091DFBF748FCA81985B2BB
:10680000204611F683FB7888A842DBD8B9F8061039
:1068100008F101004FF6FF7280B2914200D3114699
:10682000814207D330B1A9F80400012150460AF68D
:1068300003FD04E00A22012150460AF647FD00202C
:10684000BDE8F087084A52F82020126A08E09388D1
:106850008B4204D8D3888B4201D3108970471268C9
:10686000002AF4D104F6F0B9CC19002003480249FB
:1068700001600E214160704794F2210078050020EC
:1068800070B5164A0C46054612684988904701467D
:10689000A088801D83B2052000EB052220781B28EC
:1068A00017D040F60D4011F6E5FA054620781B2872
:1068B00012D012202870A08868806088A880A288E2
:1068C000A11DA81DFBF7E2FB284611F61FFB0020C7
:1068D00070BD40F60C40E6E71120EBE7282D0020C4
:1068E00070B50D46064601210AF6FCF90C2806D0C3
:1068F0004122012130460AF6E9FC002070BD012149
:1069000030460AF62BFA0446A888E188401A80B27D
:10691000608104F10C010144EA8805F10800FBF7ED
:10692000EEFB28B96089E98808442189884201D9A9
:106930004FF6FF706081012130460AF67DFCDCE7EE
:106940002DE9F35F0D4648884978B0FBF1F4012149
:1069500000980AF6C7F9022869D1002C67D00121F6
:1069600000980AF6FBF9804600266878B14614289C
:1069700001D0022700E010274FF0000A4FF6FF7BFE
:1069800030E0012100980AF621FA0146009805221C
:1069900002EB0022BB1D40F6044011F66BFA0446E0
:1069A000A819B61C81882180B1B26818891C828818
:1069B00062808EB29146A91927713A46601D091D61
:1069C000FBF764FBF01986B298F8013008F1080271
:1069D0003946601DFEF517F808B14FF0010A204650
:1069E00011F694FA6888B04204D9BAF1000F01D1C7
:1069F000D945C6D109F1010080B2BAF1000F0ED11C
:106A0000B8F80610594500D35946814207D330B132
:106A1000A8F80400012100980AF60EFC04E0002208
:106A2000012100980AF652FC0020BDE8FC9F41229B
:106A3000F6E700002DE9F34F81B000250C46A8468B
:106A40000121009501980AF64DF9052201990428C3
:106A500002EB012966D0052805D0062803D00A28B4
:106A600071D04022FEE0012101980AF677F907462D
:106A70006078072801D9102000E0022082464FF0FC
:106A8000050B3DE06019B0F80480387805280AD07D
:106A900005EB0B0020447B7807F108025146001DEE
:106AA000FDF5B1FF48B3012101980AF68FF90146BF
:106AB0004A460AF1060340F6064011F6DBF906469F
:106AC000A0F80080AD1CA8B22118401C09793171D2
:106AD00080B22118801C8988718085B2611986F87E
:106AE00005A05246B01D091DFBF7D0FA05EB0A00C0
:106AF00085B2304611F60AFA02E06078284485B281
:106B00006088A842BED8F98808F101004FF6FF72EC
:106B100080B2914200D31146814279D3002877D0C8
:106B2000B8806FE0012101980AF618F98346A07831
:106B30004FF0000A5646400701D0102731E04FF0D1
:106B4000010A02272DE065E0012101980AF63EF9CD
:106B500001464A4607F1080340F6054011F68AF956
:106B600006466019AD1C81883180A9B26018891C65
:106B7000828889B260187280891C8288B2808DB246
:106B8000BAF1000F14D06119B7713A46F01D091D12
:106B9000FBF77CFAE81985B2B6F80080304611F6AA
:106BA000B5F96088A842CFD8BAF1000F09D01AE031
:106BB0003D4A0198A6F10C0152F820000C3001F674
:106BC000EFFB86B1002000904B460A220421019879
:106BD00012F67CF9014670884880019800F042F96D
:106BE0000020BDE8FE8FBBF8061008F101004FF64B
:106BF000FF7280B2914200D31146814208D330B176
:106C0000ABF80400012101980AF616FB2EE0FFE71D
:106C10000A2227E06078FF282AD001980AF61EF899
:106C20006178801E884223DD012101980AF6CEF8A2
:106C3000637801464A4640F609401B1D11F61AF9D1
:106C4000A1880546018014F8010F611D801E82B2E3
:106C5000AA8000206880A81DFBF718FA284611F6C4
:106C600055F90022012101980AF630FB0098B8E797
:106C7000A4F10805012101980AF670F8A188818025
:106C80006178891EC180002101816078A5F10C0125
:106C9000801E68800448019A50F822000C3001F6EA
:106CA0007FFB01200090ADE7CC1900202DE9F05FBB
:106CB0008946834601210AF615F80B2801D04122A6
:106CC00045E0012158460AF649F800258046AA46C3
:106CD0002E4631E0012158460AF678F808EB86077F
:106CE0000146F8880522801D83B202EB0B2240F694
:106CF000094011F6BFF8B98804460180B9F80200CE
:106D0000F988401B814200D2084682B2A28000204E
:106D1000608009EB0501A01D091DFBF7B7F9A088EC
:106D200041198DB2F988884201D04FF0500A2046AF
:106D300011F6ECF8761CF6B298F80100B042C9D80A
:106D4000B9F80200A84201D04FF0500A5246012182
:106D500058460AF6BBFA0020BDE8F09F2DE9F0473F
:106D60000C4606464FF00008012109F6BBFFDFF88C
:106D7000F090042807D008282BD0092829D00A2809
:106D800027D0412259E00121304609F6E7FF0746A6
:106D900059F826000C3001F6EBFA00F10C05102230
:106DA000211DE81DFBF772F91020A871284611F685
:106DB000ADF82888F988401C4FF6FF7280B29142E6
:106DC00000D31146814202D308B1B88041E00A22C3
:106DD00033E00121304609F6C1FF0546A11F00201E
:106DE00021F80E0959F826004F460C3001F6D8FA62
:106DF000288920B16188814200D20846608057F816
:106E0000260062884FF00108C068C189114489B228
:106E1000C181B1F5006F01D911220EE0304609F6AB
:106E20001DFF6188401E884203DC2889814209D306
:106E300040B1304600F054F80022012130460AF6F5
:106E400045FA0AE0EA881144E98010B16188401AE5
:106E50002881012130460AF6EFF94046BDE8F08767
:106E6000CC19002010B50C4609780246D2290CD066
:106E700052290AD01E2908D0052000EB022147F232
:106E8000305240F61D4011F611FB2046BDE810407F
:106E900012F640BB38B504460020009005200D4690
:106EA00000EB042318220421204612F60FF80146B5
:106EB00045702046BDE83840FFF7D4BF38B50446DA
:106EC00000200090052000EB04231E220421204610
:106ED00011F6FCFF01462046BDE83840FFF7C2BF6F
:106EE0002DE9F05F374C814654F82900C06800282E
:106EF00066D00121484609F631FF824654F8290040
:106F0000A3464FF00008C468012104F10C06E7898C
:106F1000484609F65BFF0146B81D83B2052202EB25
:106F2000092240F6094010F6A5FF8780BAF8041040
:106F30000180BAF8061005464180307A092833D11D
:106F4000727A06F10807A81DB91D921EFBF79EF87C
:106F50007878811E1FFA81F8216819B16988081AAA
:106F6000801C68802468A6F10C0010F6C5FF04F1AF
:106F70000C0619E006F1080705EB08007289391DB7
:106F8000801DFBF783F8788800EB08011FFA81F871
:106F9000216811B16988081A68802468A7F1140073
:106FA00004F10C0610F6A8FF002CE3D15BF82900D1
:106FB0000C3001F6E5F82846BDE8F05F10F6A6BFF4
:106FC000BDE8F09FCC19002010B50446012109F658
:106FD00089FE0C2801D0412200E000220121204638
:106FE0000AF674F9002010BD024901480860704794
:106FF000F96F20003405002070B506460D461020BC
:10700000288029463046FEF555F8044624B929461D
:107010003046FDF55BFF0446074A298802A0126846
:107020009047204670BD000064625F73697A6520F6
:107030003D2025640A000000E40100203EB505461D
:107040001A20124B1B7899421FD8C1EBC10101EBEA
:1070500041030F4901EB8304627104EB4501498947
:10706000012912D100208DF80000221D2189022063
:1070700011F008FCADF802000120ADF80400641D19
:1070800002946946284601F007FF3EBD60290020B2
:10709000403A0020002816D0028800F10801B2F51D
:1070A000806F0AD0A2F58062013A09D0032A0AD182
:1070B000428A018A007900F007B8007900F078B8B8
:1070C000007900F019B970472DE9F84F0746894655
:1070D00016464FF0000A0024304611F027FC002825
:1070E0002FD0214DDFF8848011E0C4EBC40000EB09
:1070F000400005EB8000031D01890522484611F080
:10710000DCFB8246BAF1000F05D1641CE4B298F8AA
:1071100000008442E9D3BAF1030F14D000208DF8A7
:1071200000009DF8000000280BD0C4EBC40000EB69
:10713000400055F82010002903D08DF801706846F2
:107140008847BDE8F88FC4EBC40000EB400005EBB6
:10715000800000EB47004681012E03D002208DF80D
:107160000000DEE70120FAE7403A00206029002015
:1071700010B588B00F208DF81C0064208DF81D001C
:1071800000200690012106A800F074F80446002CA7
:1071900009D01422054901A8FAF778FFADF8084094
:1071A00001A8FDF709FF08B010BD0000F8E22100BA
:1071B0002DE9F04385B081460E78ADF800600027D8
:1071C0008DF804700024294DDFF8A4800EE0C4EB94
:1071D000C40000EB400005EB8002131D118905225D
:1071E000304611F06AFB28B9641CE4B298F800102C
:1071F0008C42ECD3012102280ED0032817D004289A
:1072000023D0ADF802708DF804106946484601F0AD
:1072100021FF05B0BDE8F083ADF80210C4EBC40057
:1072200000EB400005EB8000401D0290EDE70220DE
:10723000ADF80200C4EBC40000EB400005EB800099
:1072400000EB49000A300290DFE70720ADF80200AA
:10725000C4EBC40000EB400005EB80011E3103A825
:1072600011F06EFB03A80290CFE70000403A002027
:107270006029002070B506460D460020002E03D080
:10728000012D03D9012070BD022070BD002426E02D
:10729000C4EBC40000EB4001134806EBC40200EB52
:1072A000810006CAC0E900120021018100F1080234
:1072B00082620E4AC262021D0263052280F83420F7
:1072C00080F8521080F853100849891C81632830D7
:1072D000074901F091FE0028D7D1641CE4B2AC420A
:1072E000D6D304490D7070BD403A00206EDE2100F7
:1072F00095702000602900202DE9FC4706460F46C6
:10730000B7F8008000200024ADF8008000218DF83F
:107310000210244DDFF890900EE0C4EBC40000EBA7
:10732000400005EB8000031D01890522404611F055
:10733000C4FA28B9641CE4B299F800108C42ECD36A
:1073400003281AD001208DF802009DF802000128C0
:107350000DD09DF8040050B1C4EBC40000EB400018
:1073600055F8201019B18DF8056001A888476946C5
:10737000304602F04DF8BDE8FC87B8680EF036FCE8
:10738000C4EBC40101EB410105EB810101EB4601B6
:107390004881012803D002208DF80400D5E70120A0
:1073A000FAE70000403A002060290020F0B5AFB0B5
:1073B00000240D460646846219A82421FAF78DFEA2
:1073C000229403A824212394FAF787FE0C940EA894
:1073D000242231460D94FAF759FE706A1790B06A6C
:1073E000784E189024A824223146FAF74FFE706A8E
:1073F0002D90B06A2E90012021902290CDE90B4073
:10740000B4E000230EAA1846264652F82010891927
:1074100046EB03077B084FEA310342F8203021F0A6
:107420000103CB1A00F101000928EED3002052F825
:10743000201011B9401C0928F9DBC0F10900506285
:107440002198C00706D019A8FBF70AFB1698C007B9
:10745000D7D044E0002319AA1846374652F8201026
:10746000C91947EB030673084FEA310342F820308D
:1074700021F00103CB1A00F101000928EED300200E
:1074800052F8201011B9401C0928F9DBC0F109009D
:107490005062DBE7002324AA1846264652F8201043
:1074A000891946EB03077B084FEA310342F8203085
:1074B00021F00103CB1A00F101000928EED30020CE
:1074C00052F8201011B9401C0928F9DBC0F109005D
:1074D00050620B98C0070FD003A8FBF7C1FA2C9895
:1074E000C007D7D02D9B17980EA924AA98422FD851
:1074F00035D3C0F1090029E04FF0000303AA184674
:10750000374652F82010C91947EB030673084FEAB3
:10751000310342F8203021F00103CB1A00F10100C1
:107520000928EED3002052F8201011B9401C092878
:10753000F9DBC0F109005062D1E752F8203051F870
:107540002060B3420BD803D300F101000928F4D323
:1075500011460EA8FBF770FF03A919A804E0104616
:10756000FBF76AFF19A903A8FBF78EFF17980028FD
:107570008FD10D9808B103A815E012490C9B03AAFE
:10758000486A984213D80DD3C0F1090008E052F8B8
:10759000203051F82040A34204D808D300F1010064
:1075A0000928F4D3104613F045FD03A900E0114665
:1075B00024222846FAF76AFD0C9868620D98A862A2
:1075C0002FB0F0BDD8E9210010B58CB008A814F098
:1075D000B1FBBDF8221009989DF82120CDE90410D7
:1075E0009DF820303AA04FF42571CDE90232CDE963
:1075F0000010414B41A247A10220FEF72DF90AA835
:1076000000F02AFD044654B114223B490E3103A870
:10761000FAF73CFDADF8104003A8FDF7CDFC9DF84E
:1076200028009DF82910CDE906109DF82A209DF824
:107630002B30CDE904329DF82C109DF82D0037A297
:1076400040F29923CDE90032CDE902012A4B2BA269
:1076500030A10220FEF700F93BA04FF42871CDE9DC
:107660000010254B25A22BA10220FEF7F5F80CF007
:10767000A5FC3D4A01213D48FEF758FA044654B1A5
:1076800014221D49223103A8FAF700FDADF810407D
:1076900003A8FDF791FC00224FF4FA613348FEF78E
:1076A0009BFB044654B114221349363103A8FAF760
:1076B000EDFCADF8104003A8FDF77EFC13F0A8FB2D
:1076C00006F028FD00F006FBFDF79AF80CB010BD9F
:1076D000476F6F64697820424C452053444B2056D5
:1076E00025642E25642E25642028636F6D6D6974D2
:1076F00020257829000000001AE221002E2E5C537C
:1077000072635C757365725C757365725F617070CE
:107710002E6300004E4F5F54414700004C6F636181
:107720006C20426F61726420253032583A25303225
:10773000583A253032583A253032583A25303258A6
:107740003A253032582E0000484944204B65796272
:107750006F617264206578616D706C65207374610F
:10776000727465642E000000D93F2100B8780020B3
:10777000FCF5F6BD2DE9FF410DF1280898E8F00071
:107780008DE8F000FCF5C8FF04B0BDE8F0812DE9FC
:10779000FF410DF1280898E8F0008DE8F000FCF5B5
:1077A000CDFF04B0BDE8F081FDF544BAFDF5E0BAC7
:1077B000FDF518BE2DE9F041DFF86480064601783A
:1077C00098F8010008440A2802D90420BDE8F08195
:1077D00000242546134F05E0385D40B1641C0A2C97
:1077E000FADB6D1C3078A842F9DC0020EEE7C5EB2F
:1077F000C500821904F11000C0F30B0040F40040F2
:107800000721521C10F0E4FC00284FF00100DDD1EC
:10781000385598F80110491C88F80110641CE0E7FD
:10782000EC2C00203089002070B50024174E20E099
:107830007168C4EBC40008440CF052FDC0B904EBFD
:10784000440505F14100C0F30B0040F4004010F086
:1078500037FB05F14200C0F30B0040F4004010F08C
:107860002FFB4035C5F30B0040F4004010F028FB1F
:10787000641C30788442DBD3C0B2C0EBC001FF226D
:107880007068FAF723FC002070BD0000EC2C00208B
:107890002DE9F04100240D4D0D4E2746285D0128AD
:1078A0000FD104F11000C0F30B0040F4004010F0C1
:1078B00007FB10B10120BDE8F0812F557078401E04
:1078C0007070641C0A2CE9DB0020F4E7308900208A
:1078D000EC2C002038B50C4604F07AFC09490978F4
:1078E00088420DD2BE2100EB4000ADF800104230BE
:1078F00040F400402246694610F036FB002038BDB7
:10790000032038BDEC2C00202DE9F8430025DFF8DA
:10791000408006462C460827ADF8007018F8040091
:1079200001280ED104F1200006EBC502C0F30B00C4
:1079300040F400406946521C10F016FB08B96D1C5B
:10794000EDB2641C042CE7DB35700020BDE8F88341
:10795000F82C00202DE9F0470026A8B088460746FD
:10796000B14646703546DFF8A4A036E08C20ADF86D
:10797000980005EB4500413040F4004003AA26A9D9
:1079800010F0F2FA38BB9DF80D00800723D5797806
:1079900041452DD2786806EB860100EBC104DDF885
:1079A0000E002060BDF81200A0809DF81400A071A8
:1079B0009DF81500E07110220DF1160104F1080088
:1079C000FAF764FB10220DF1260104F11800FAF712
:1079D0005DFB761CF6B26D1CEDB29AF80000854294
:1079E000C4D387F800907E7028B00020BDE8F087EF
:1079F0000122CDE90029064CCDF808801F231E2264
:107A000024684FF400410120A047EAE7EC2C002055
:107A1000E001002038B50C4604F0DAFB094909788A
:107A200088420CD28C2100EB4000ADF800104130B0
:107A300040F400402246694610F096FA38BD032013
:107A400038BD0000EC2C00202DE9F043A5B0002447
:107A5000894607468C26194D0DF10A0817E004EBFC
:107A600044004130ADF88C6040F400406A4623A9E0
:107A700010F07AFA48B99DF80100800705D5102268
:107A800039464046FAF73BFB28B1641CE4B228783B
:107A90008442E4D3C4B2287884420DD204EB44007B
:107AA0004130ADF8006040F400404A46694610F0AD
:107AB0005BFA25B0BDE8F0830320FAE7EC2C002048
:107AC0002DE9F8430025DFF8448006462C460727B9
:107AD000ADF8007018F8040001280FD1C5EBC500FF
