:020000040020DA
:10200000E857012059202000FB212000011E10006C
:10201000F9212000F1212000BD3520000000000042
:10202000000000000000000000000000151E10006D
:10203000F721200000000000FD212000FF212000EA
:10204000DFF810D000F064FC00F066F800480047AC
:10205000BD8C2100E8570120014880470148004716
:102060008D352000DD8C21000649074A0868504361
:1020700043F2390210440860400870470149086083
:1020800070470000543000206D4EC64110B5431A11
:10209000934209D28318881803E010F8011D03F851
:1020A000011D521EF9D210BD40EA01039B0703D067
:1020B00009E008C9121F08C0042AFAD203E011F887
:1020C000013B00F8013B521EF9D210BDD2B201E033
:1020D00000F8012B491EFBD270470022F6E710B52D
:1020E00013460A4604461946FFF7F0FF204610BD86
:1020F000421C10F8011B0029FBD1801A704730B533
:1021000004460020034600E05B1C934203D2E05CDF
:10211000CD5C401BF8D030BD70B5054C054D03E0DB
:10212000206820448047241DAC42F9D170BD0000D6
:10213000902122009421220030B404469623080006
:10214000214604D0B62330BC002200F0CABA204693
:102150000021F8E70EB540F2334102910021CDE9AC
:1021600000110A460B4600F0F9FA03B000BD0EB5A7
:1021700040F2334202920022CDE90022134600F0E1
:10218000EDFA03B000BD20F00040C20DC0F3160010
:1021900040F400007F2A02DA002001467047002147
:1021A000962A03DCC2F19602D0407047963A00F0BE
:1021B0005EBA70B5C1F30A5201F000450024C1F3C4
:1021C000130140F2FF3341F480119A4201DA0020FA
:1021D00070BD40F233439A42A2F2334203DC5242D2
:1021E00000F054FA00E090402C43F1D0404270BD22
:1021F000FEE708F041BBFEE7FEE7FEE7FEE7FEE78D
:1022000058585247010000003253000000202000BF
:10221000002020008BEB924700010000000000002E
:1022200000000000000000000000000000000000AE
:10223000000000000000000000000000000000009E
:102240002DE9FE4F804681EA0300C00F0C46009046
:1022500021F0004123F00045B8EB0200A94105D26E
:102260004046214690461C460B46024623F000405D
:10227000104347D0270DC7F30A00C3F30A51029059
:10228000401A019040286BDAC3F3130040F4801B1E
:102290000098924620B10023D2EB030A63EB0B0BAC
:1022A00001985946C0F14002504600F0E0F9064658
:1022B0000D4650465946019A00F0F8F910EB080017
:1022C0006141002487EA115284EAE7731A4340D03F
:1022D000009A62B3019A012A4FEA075215DC001BEB
:1022E00061EB02014FF0004202EA0752CDE90042E1
:1022F000001C41F5801132462B4600F02FFA03B046
:10230000BDE8F08F40462146F9E7001B61EB020172
:10231000001C41F5801300185B412018A2F500173E
:1023200047EB030140EAD570B6196D4111E06D0825
:102330004FEA360645EAC0754FEA0752001B61EBCB
:102340000201001C41F5801149084FEA30000019D4
:10235000514132462B4603B0BDE8F04F00F0EFB9D3
:102360000098012240000023D0EB020263EBE073EF
:10237000009821464FEAE074B8EB000061EB0401DD
:10238000E9E783F000435BE781F0004158E72DE97E
:10239000FE4F81EA030404F0004421F00041009460
:1023A0004FF0000B23F0004350EA01045ED052EAE4
:1023B00003045BD0C3F30A54C1F30A552C44A4F2BE
:1023C000F3340194A0FB0254C1F3130141F48011D2
:1023D000C3F3130343F4801301FB024400FB034ED9
:1023E000840A970A44EA815447EA8357A4FB0768A2
:1023F00002958D0A05FB07854FEA932C04FB0C54CC
:102400002705029D4FEA065847EA1637B5EB08053F
:102410006EEB070C870E920E47EA811742EA831291
:10242000A7FB0201B6EB0B0164EB00042B0D43EAA2
:102430000C335E1844EB1C50DA465146E7FB0201B0
:10244000C5F313044FEA0B3343EA14534FEA043243
:10245000019C43EA0603A4F10C040294009CCDE91C
:1024600000B400F07BF903B0BDE8F08F0020014616
:10247000F9E72DE9F04D81EA030404F0004B21F067
:10248000004514464FF0000A23F0004150EA0502CF
:1024900020D054EA01021DD0C5F30A570246C5F305
:1024A0001303C1F31300C1F30A5640F4801543F43B
:1024B0008013A7EB0608101BD64608F2FD3873EB15
:1024C000050002D308F1010801E092185B41B8F160
:1024D000000F03DA00200146BDE8F08D00204FF424
:1024E0008011064684460EE0171B73EB050705D3E3
:1024F000121B63EB050306434CEA010C49084FEA43
:10250000300092185B4150EA0107EDD152EA030016
:1025100012D082EA040083EA0501084305D0101BAB
:10252000AB4106D20122002306E000224FF0004317
:1025300002E06FF0010253101AEB06004CEB085159
:1025400010EB0A0041EB0B01BDE8F04D00F0F7B8CD
:10255000C1F30A5210B5C1F3130140F2FF3341F445
:1025600080119A4201DA002010BD40F233439A42B2
:10257000A2F2334203DC524200F088F810BD9040D2
:1025800010BD00F0004230F000400AD0C10D01F54E
:102590006071C0F3160042EA0151C20840071143BE
:1025A000704700200146704701F0004330B421F02D
:1025B000004150EA010206D00A0DA2F56072C1F393
:1025C0001301002A02DC30BC00207047440F44EAAB
:1025D000C104C100E01830BC00EBC25000F078B874
:1025E00030B50B46014600202022012409E021FAE3
:1025F00002F59D4205D303FA02F5491B04FA02F5E0
:102600002844151EA2F10102F1DC30BD2DE9F05F76
:102610000546002092469B46884606468146402451
:102620001BE0284641464746224600F02FF8534615
:102630005A46C01A914110D311461846224600F05E
:1026400016F82D1A67EB01084F462246012000219B
:1026500000F00DF817EB00094E41201EA4F1010413
:10266000DFDC484631462A464346BDE8F09F202A33
:1026700004DB203A00FA02F1002070479140C2F1D9
:10268000200320FA03F3194390407047202A04DB0B
:10269000203A21FA02F00021704721FA02F3D040DB
:1026A000C2F120029140084319467047202A06DBF8
:1026B000CB17203A41FA02F043EAE07306E041FA10
:1026C00002F3D040C2F120029140084319467047FE
:1026D0000029A8BF7047401C490008BF20F0010036
:1026E000704710B4B0FA80FC00FA0CF050EA010414
:1026F00004BF10BC704749B1CCF1200421FA04F4A6
:1027000011FA0CF118BF012121430843A3EB0C017E
:10271000CB1D4FEA00614FEA102042BF002010BCE1
:10272000704700EBC35010440029A4BF10BC704791
:10273000401C490008BF20F0010010BC704710B5D4
:10274000141E73F1000408DA401C41F100019218D4
:102750005B411A4301D120F0010010BD2DE9F04D7D
:1027600092469B4611B1B1FA81F202E0B0FA80F2D2
:1027700020329046FFF77BFF04460F4640EA0A00EE
:1027800041EA0B0153465A46084313D0114653EA17
:10279000010019D0C8F140025046FFF777FF054607
:1027A0000E46504659464246FFF761FF084305D0A2
:1027B000012004E020463946BDE8F08D00200543A5
:1027C00046EAE0762C4337430A986305E40AA0EB17
:1027D00008000022FD0A44EA47540A3002D50020CE
:1027E0000146E9E7010510196941DDE908450019CD
:1027F0006941BDE8F04DA2E72DE9F041054621F021
:1028000000400C46284309D0C4F30A5040F233413B
:10281000884205DD28462146BDE8F0812846FBE7D1
:1028200040F2FE31884210DC0CDB4FEA043040EA13
:10283000155050EA053105D0104804F0004101431D
:102840000020E9E700200146E6E7A0F233404642D7
:10285000C6F1400228462146FFF709FF0746884691
:10286000284621463246FFF711FF43463A46FFF716
:1028700066FF3246BDE8F041FFF7F9BE0000F03FC9
:10288000C1F30A52C1F3130140F2FF3341F4801146
:102890009A4202DA00200146704740F233439A42DE
:1028A000A2F2334202DC5242FFF7F0BEFFF7DFBE76
:1028B00030B5041E71F1000404DB4FF000444042C7
:1028C00064EB0101141E73F1000405DB1C464FF09C
:1028D0000043524263EB04038B4208BF824230BD87
:1028E00030B5041E71F1000404DB4FF00044404297
:1028F00064EB0101141E73F1000405DB1C464FF06C
:102900000043524263EB0403994208BF904230BD3A
:10291000064C074D06E0E06840F0010394E807002C
:1029200098471034AC42F6D3FFF78EFB50212200BB
:102930009021220070B58C1810F8015B15F0070388
:1029400001D110F8013B2A1106D110F8012B03E048
:1029500010F8016B01F8016B5B1EF9D12B0705D450
:102960000023521E0DD401F8013BFAE710F8013B99
:10297000CB1A921C03E013F8015B01F8015B521EB5
:10298000F9D5A142D8D3002070BDF0B500250822AA
:102990002B4650F8227051F82260BE1943EB030415
:1029A00076195C4104F001041C4301D0012500E0CC
:1029B000002540F822600446521EEAD5002150F856
:1029C000212012B9491C0929F9DBC1F10901616211
:1029D000F0BDF0B500240823254650F8236051F8D7
:1029E0002370F61945EB050736196F4107F001040E
:1029F0002C4301D0012400E0002442F823605B1E38
:102A0000EBD5002052F8201011B9401C0928F9DB41
:102A1000C0F10901C2E90915F0BD000010B5144666
:102A2000FFF7D7FFA06A20B12046BDE8104000F0B4
:102A30001DB80D4B606A596A88420ED813D3C0F195
:102A4000090108E053F8212054F8210082420AD8F5
:102A500003D301F101010929F4D32046BDE8104058
:102A6000014900F005BD10BD0805220010B58CB06D
:102A7000044601466A46074800F05AFC694624228B
:102A80002046FFF703FB099860620020A0620CB0AB
:102A900010BD0000080522002DE9F0410446DFF8D2
:102AA00008C1806A8CB04FF0000848B16246606A85
:102AB000536A2146984250D827D3C0F1090022E03A
:102AC0004FF000014FF00800424654F820505CF8E7
:102AD0002030ED1842EB02036D18534103F0010161
:102AE000114301D0012100E0002144F82050401E94
:102AF000EBD518E052F8203051F82050AB4204D802
:102B00002BD300F101000928F4D36A46264800F0CF
:102B10000FFC6946254624222046FFF7B7FA09989C
:102B20006862C4F8288000221046454654F82010F8
:102B3000491945EB02035A084FEA310244F82020B4
:102B400021F001028A1A00F1010023460928EDD381
:102B5000002054F8201001BB1CE00023082241464D
:102B60005CF8225054F82200EE1841EB0107861B56
:102B700071EB07062B4406D2C01A001C44F8220051
:102B80004FF0010303E0C31A44F822300023521E21
:102B9000E6D5C8E7401C0928DBDBC0F10900586214
:102BA0000CB0BDE8F08100000805220010B512202D
:102BB00000F065FD09F0D6F904490446096A884722
:102BC0002046BDE8104009F08FB90000F42C002029
:102BD00010B504F61DFB10B107F096FA10BDBDE864
:102BE00010402BF603BE000010B52BF6EBFE0228BA
:102BF00018D00D4CD4F8880220F00100C4F88802E7
:102C00004FF0E0214FF00050C1F8800204F522742B
:102C100007F092FF05484168491C4160206840F078
:102C20000100206010BD000000E00040902D002059
:102C30002DE9F04FADF5317D814600F12C0B583078
:102C40008890859001F12C008490CDE989012C3089
:102C50000E4687908690154624211046FFF73DFAD0
:102C6000002405F12C076C62B84624213846AC627A
:102C7000FFF733FA7C62BC622C3724213846FFF719
:102C80002CFA7C6237A82421BC62FFF726FA409414
:102C90000BA824214194FFF720FA149442A8242180
:102CA0001594FFF71AFA4B9416A824214C94FFF7B9
:102CB00014FA1F9421A824212094FFF70EFA2A94D5
:102CC000684624212B94FFF708FA09944DA8242183
:102CD0000A94FFF702FA569458A824215794FFF754
:102CE000FCF9619463A824216294FFF7F6F96C94CF
:102CF0002CA824216D94FFF7F0F9359479A82421AC
:102D00003694FFF7EAF982946EA824218394FFF7A2
:102D1000E4F977944846A149789416F099F99F4CC4
:102D2000010004F12C0A04F1580409D15146584617
:102D300016F08EF920B92146889816F089F928B145
:102D40003046964916F084F978B339E03046934915
:102D500016F07EF950B95146849816F079F928B9E1
:102D60002146879816F074F900287DD02422314638
:102D70002846FFF78BF9706A6862B06AA862849D82
:102D80004446242229464046FFF780F9686A60627B
:102D9000A86AA062879C242221463846FFF776F96C
:102DA000606A7862A06AB862F5E0FFE751468498ED
:102DB00016F04EF920B92146879816F049F928B146
:102DC0004946304616F044F9B8B122E04C46242278
:102DD00049462846FFF75AF9606A6862A06AA86205
:102DE0005D464446242259464046FFF74FF9686A3B
:102DF0006062A86AA062889CCDE75946849816F064
:102E000027F9002830D1306D012802D8F06C002855
:102E1000ABD037AA8599899800F0CEF90BAA58460D
:102E2000869900F0C9F942AA85998A9800F0C4F9F8
:102E300016AA4846869900F0BFF916A942A816F0CE
:102E400007F900287ED021AA0BA937A800F09AFA2A
:102E50006A4616A942A800F095FADDE9850158AA4C
:102E600000F0AAF9A5A800E07BE02421FFF735F9DE
:102E70000024AE9484A82421AF94FFF72EF98D94FA
:102E80008FA824218E94FFF728F998949AA82421DA
:102E90009994FFF722F96946A39463AA0846A4947B
:102EA00000F08AF92CAA694663A800F085F921A9E7
:102EB00079AA084600F080F96EAA16A963A800F066
:102EC0007BF99AAA02216EA800F058F984AA58A9A1
:102ED00079A800F071F98FAA2CA984A800F052FA01
:102EE0004DAA9AA98FA800F04DFA2A464DA9684626
:102EF00000F062F984A82421FFF7EFF88D948FA8E1
:102F000024218E94FFF7E9F898949AA824219994A3
:102F1000FFF7E3F8A39484AA4DA96EA8A49400F047
:102F200031FA8FAA84A921A800F046F99AAA0BA920
:102F30002CA800F041F942469AA98FA800F022FA85
:102F40003A4600E008E058A92CA800F035F9012025
:102F50000DF5317DBDE8F08F0BA937A816F078F894
:102F6000A8B10E4E242231462846FFF78FF8706A2A
:102F70006862B06AA86256464546242251464046D9
:102F8000FFF784F8706A6862B06AA86203E72946AE
:102F9000484600F005F80020DAE70000840522002A
:102FA0002DE9F04F0C465B4E016D06F12C085836AA
:102FB000F9B0834600F12C0500F1580A04F12C0900
:102FC00004F15807012902D8296A00297ED0514905
:102FD00016F03EF850B94146284616F039F828B99F
:102FE0003146504616F034F8002873D037AA5146BF
:102FF0005846FFF713FD42AA5146584600F0C2F961
:103000004DAA42A937A800F0D7F80BAA03214DA872
:1030100000F0B4F86A465146284600F0CDF837AAC9
:103020006946284600F0C8F816AA37A9584600F0A5
:10303000C3F80BA937AA084600F0BEF842AA082137
:1030400016A800F09BF821AA42A937A800F09AF927
:1030500037AA694621A800F0AFF82246022137A816
:1030600000F08CF8294637AA084600F0A5F8694612
:103070002CAA084600F0A0F842AA2CA937A800F014
:103080009BF84DAA082142A800F078F858AA04211C
:1030900016A800F073F863AA21A958A800F072F9E5
:1030A0006EAA63A90BA800F087F84A464DA96EA83E
:1030B00000F068F937AA69462CA800F07DF83A4676
:1030C000082137A800F05AF8002000E002E079B0AB
:1030D000BDE8F08F0F4D242229462046FEF7D6FF8B
:1030E000686A6062A86AA06245464C46242241464E
:1030F0004846FEF7CBFF686A6062A86AA062242295
:1031000031463846FEF7C2FF706A7862B06AB8622C
:10311000DAE70000840522002DE9F043154F04464C
:10312000154EF87D10258BB091468846FF2806D0B5
:10313000716EC20005FA02F081430143716669466F
:1031400004F1580003F032FFF87DFF2804D0716EBF
:10315000C0008540A943716642466946204600F09A
:103160002BF84A46694604F12C0000F025F80BB014
:10317000BDE8F0834007002000000E40F0B40025B9
:1031800008232F4650F823602C463D46E6FB0145B8
:1031900042F823405B1EF5D5002152F8213013B9C7
:1031A000491C0929F9DBC1F109035362806A906265
:1031B000F0BC104619F076BE2DE9F74FA0B082465C
:1031C0000C46684683464821FEF787FF4FF000090A
:1031D000CDF848900821CDF84C90002208204D46AB
:1031E00046180BEB860354F820805F685AF821C01C
:1031F000BE1845EB0502ECFB08625E60401EEFD591
:10320000491EEAD56946002051F8202012B9401C19
:103210001228F9DBC0F112008864DAF82800A16AEC
:10322000884201D0012000E0002000246D46139068
:1032300000E0641C55F8240008B9092CF9D3139850
:103240002D491E9012988B6C2A46984215D818D397
:10325000C0F112000DE051F8203052F82060B34266
:1032600006D0B34201D2012000E0002028B908E0D6
:10327000401C1228EFDB00E0641C55F824000028F5
:10328000FAD005EB8401242214A8FEF7FFFE14A94E
:10329000002051F8202012B9401C0928F9DBC0F1A8
:1032A0000900486204F109001228084615D219F0F5
:1032B000F9FD14A82022011DFEF7E8FE05EB8400AD
:1032C00014A9406A1C900020641C51F82020002A98
:1032D000E5D1401C0928F8DBE1E719F0E3FD229C69
:1032E00014A924222046FEF7D1FE1D9860621E9884
:1032F000A06223B0BDE8F08F3405220010B5434230
:10330000421E0A60C1E901304FF0000001F1100CCB
:103310004FF0FF34C8608CE815008862C1E90743AC
:1033200001D0092000E00820486210BD0FF0CAB9A2
:10333000F0B500240823274651F8236050F82350A5
:1033400016EB040C47EB070EB5EB0C0C77EB0E0CF1
:10335000344406D22C1B241C42F823404FF00104B5
:1033600003E02D1B42F8235000245B1EE4D500200F
:1033700052F8201011B9401C0928F9DBC0F10900EE
:103380005062F0BD2DE9F0410F460346816A0125E8
:10339000B86A1446002641B190B3786A596A8842E7
:1033A00044D849D3C0F109003EE020B1394618465F
:1033B000FFF70FFB16E0586A796A88420ED81BD3D4
:1033C000C0F1090008E057F8202053F820108A4285
:1033D00012D803D300F101000928F4D3224639465C
:1033E000184626E02149A662606A4A6A904234D8AB
:1033F00039D3C0F109002EE02246194638461EE0B6
:10340000FFE739461846FFF7E4FA2046A562BDE813
:10341000F041FFF72BBB53F8202057F820108A42C9
:103420000AD803D300F101000928F4D32246194633
:103430003846FFF77DFFD5E7224639461846FFF7A5
:1034400077FFE2E751F8203054F8202093420AD861
:1034500003D300F101000928F4D32046BDE8F04170
:10346000024900F005B8BDE8F0810000080522001F
:10347000F0B5002308221E4651F8225050F8224091
:10348000EF1846EB060CE71B76EB0C072B4406D235
:10349000E31A1B1C40F822304FF0010303E0E41A4A
:1034A00040F822400023521EE6D5002150F821208A
:1034B00012B9491C0929F9DBC1F109014162F0BDCA
:1034C00070B50B460446816A0025986A8CB00126C7
:1034D00041B140B1586A616A884239D846D3C0F1D7
:1034E000090033E030B10CB02046BDE87040194609
:1034F000FFF74BBA606A596A884237D80ED3C0F1D9
:10350000090008E053F8202054F820108A4205D81A
:103510002CD300F101000928F4D327E06A462146A4
:103520001846FFF705FF694624222046FEF7AEFD48
:103530000998C4E909060CB070BD54F8202053F86E
:1035400020108A4212D803D300F101000928F4D3D5
:103550006A4621461846FFF7EBFE694624222046BC
:10356000FEF794FD0998C4E90905E4E70CB020468C
:10357000BDE870401946FFF77BBF000002490968AB
:1035800001F007010170704700A000400248016887
:1035900041F470010160704788ED00E00248006866
:1035A000001D0FF0ABBB0000D02B0020024840688C
:1035B000001D0FF0A3BB0000D02B0020FEE7000091
:1035C0000FB4054B10B503A9044A029800F0ECFCB7
:1035D00010BC5DF814FB0000C5BF2000002C0020CB
:1035E0000FB41CB50246002007AC00290BD0491EC1
:1035F000CDE90021054B6A462146069800F0D4FC2F
:10360000009A002111701CBC5DF814FBD746200005
:103610000FB4084B10B504A902AA039800F0C4FC2B
:10362000044602A9002001F061F8204610BC5DF8B4
:1036300014FB0000ED4620007CB5044600201D462A
:10364000164600290BD0491ECDE90041044B6A46BD
:103650002946304600F0A8FC009A002111707CBD7C
:10366000D7462000002809DB00F01F02012191400D
:103670004009800000F1E020C0F880127047002867
:1036800009DB00F01F02012191404009800000F198
:10369000E020C0F880127047002809DB00F01F020C
:1036A000012191404009800000F1E020C0F8801223
:1036B0007047002809DB00F01F02012191404009FA
:1036C000800000F1E020C0F800117047002809DBFD
:1036D00000F01F02012191404009800000F1E0202C
:1036E000C0F800117047002804DB00F1E02090F8DA
:1036F0000004704700F00F0000F1E02090F8140D76
:103700007047002804DB00F1E02090F800047047C7
:1037100000F00F0000F1E02090F8140D7047002831
:1037200004DB00F1E02090F80004704700F00F0087
:1037300000F1E02090F8140D7047002804DB00F140
:10374000E02090F80004704700F00F0000F1E02046
:1037500090F8140D7047002804DB00F1E02090F889
:103760000004704700F00F0000F1E02090F8140D05
:103770007047002804DB00F1E02090F80004704757
:1037800000F00F0000F1E02090F8140D70470028C1
:1037900004DB00F1E02090F80004704700F00F0017
:1037A00000F1E02090F8140D7047002804DB00F1D0
:1037B000E02090F80004704700F00F0000F1E020D6
:1037C00090F8140D7047000002480068C0F3022012
:1037D000704700000CED00E002480068C0F30220D2
:1037E000704700000CED00E002480068C0F30220C2
:1037F000704700000CED00E002480068C0F30220B2
:10380000704700000CED00E002480068C0F30220A1
:10381000704700000CED00E002480068C0F3022091
:10382000704700000CED00E002480068C0F3022081
:10383000704700000CED00E0EFF3108070470000CF
:103840002DE9F0412DED020B9FED3D0B2DED028B8F
:103850009FED3D8BDDE90254C4F30A50A0F2FF3620
:10386000142E37DA002E18DA53EC102B9DED020BD4
:1038700051EC100BFEF7E4FC53EC182BFFF730F87B
:1038800057D2002CBCBF4FF00044002551DB54EA56
:10389000050018BF2E4C1BD14BE02E4820FA06F72E
:1038A00004EA070028431FD053EC102B9DED020BB8
:1038B00051EC100BFEF7C4FC53EC182BFFF710F87B
:1038C00037D2002C03DD4FF48010F0400444BC4399
:1038D00000252EE0332E07DCA6F114004FF0FF3157
:1038E00021FA00F73D4206D19DED020BBDEC028BA3
:1038F00002B0BDE8F08153EC102B9DED020B51ECB2
:10390000100BFEF741FD53EC182BFEF7E9FF10D228
:10391000002C0DDD142E08BF641C09D0C6F1340044
:10392000012101FA00F02844A84238BF641C054672
:10393000BD43CDE902549DED020BD7E70000000026
:103940009C7500883CE4377E000000000000000009
:103950000000F03FFFFF0F0010B52DED020B2DED25
:10396000088B84B09DED0C0B51EC100BFEF744FF5F
:1039700041EC180B9DED0C0B53EC182B51EC100B7C
:10398000FEF7FFFC41EC190B0D989FED290B10F091
:10399000004F53EC102B51EC190B9FED21AB9FED19
:1039A00022BB0ED0FEF784FF0ED953EC1B2B51EC3B
:1039B000190BFEF795FF1CD214E000BF41EC180B69
:1039C00017E0FEF775FF06D253EC1A2B51EC180BDB
:1039D000FEF7D7FCF2E753EC1B2B51EC190BFEF76B
:1039E0007FFF06D853EC1A2B51EC180BFEF728FC7E
:1039F000E4E78DED028B9DED0C0B18EE901A10EEA6
:103A0000900A8DED000B61F31E0003909DED020BFB
:103A100004B0BDEC088B02B010BD00000000000037
:103A2000000000000000F03F000000000000E03F48
:103A3000000000000000E0BF02E008C8121F08C13B
:103A4000002AFAD170477047002001E001C1121F1F
:103A5000002AFBD1704780F3108870472DE9F74F9B
:103A600007460298DFF86CA1DFF86C814FEA500B33
:103A70005A48019D5C465646CAF80000D8F8042012
:103A80003F2060F30502C8F80420DAF8000020F4B3
:103A9000700040EA0750CAF80000DAF8000020F48D
:103AA000702040EA0740CAF800000D2F02D00E2F08
:103AB00004D007E0306840F4004002E0306840F491
:103AC00080403060306840F400503060306820F052
:103AD00060503060306820F00F0040F0030030602C
:103AE000002000F0AFF8012872D13168B24641F0F1
:103AF000804131600020424609E0D8F8083043F4A4
:103B00008033C8F80830811C00F1010005D09168AD
:103B10009046C1F300210029EFD1072000F092F870
:103B2000012855D142E000264FF47A7924E04E4531
:103B30001ED9DAF8001021F08041CAF80010DAF836
:103B4000001041F00041CAF80010DAF8001021F02E
:103B50000041CAF80010002000F074F8012837D1A5
:103B60001F484169491C41610520FCF5DBFF7FE7E7
:103B70000120FCF5D7FF761CD8F80800C0F3002020
:103B80000028D4D0D8F80800434600F07F02A242B3
:103B900000D92246002006E0196825F8021B090C0E
:103BA00025F8021B401C9042F6D3A41A002CBAD16F
:103BB0000298C00707D040468168C1F30021002960
:103BC000FAD000682880BDE8FE4F002000F03AB827
:103BD000BDE8FE8F00A8004000E000400A0708078B
:103BE000902D00202DE9F041124904460020086084
:103BF000104980390860104D686A104E00F00101CC
:103C0000494201403062C8050DD440F20117A8694D
:103C1000B84208D024B10120641EFCF583FFF6E70A
:103C20000020BDE8F08106480068B0616868F06176
:103C30000120F6E794581C4200E00040902D00203F
:103C400000A800402DE9F041104F0546F868C0F388
:103C50000240A84217D0F86820F007002843F86017
:103C600000244FF6FF76F868C0F30240A84205D062
:103C70000120FCF557FF641CB442F4D3B44202D1D6
:103C80000020BDE8F0810120FBE7000000E00040DB
:103C90002DE9FF5F82B00021DDE90430020DDDF87F
:103CA00040B0034318D044F61050A2F2FF32424312
:103CB0001514119801281FD0A5EB0B00401C5FEADA
:103CC000000A4FF000064E4FDFF83891B0465046DC
:103CD00015D5CAF1000413E0119801244AA3012864
:103CE00001D16FEA0B010298119AC0E90031C0E9D5
:103CF000024206B0BDE8F09FCBF10000DFE70446CA
:103D00000021404A491842EB0450CDE9001012E06E
:103D1000E00707D032463B4640464946FEF737FBB0
:103D20008046894632463B4610461946FEF72FFB31
:103D300006460F466410002CEAD1DDE90401DDE9F6
:103D40000023BAF1000F06DAFEF721FB42464B468C
:103D5000FEF71DFB05E0FEF78CFB42464B46FEF7E7
:103D600088FB04460E460022284BFEF7B9FD03D817
:103D70004FF0FF30014607E00022254B2046314638
:103D8000FEF75EFAFEF77CFD102409E0002C0ADB4A
:103D90000A220023FEF73AFC039B30321A55641EB8
:103DA00050EA0102F2D1641C039AC4F111031444D5
:103DB000119A012A03D0012208430DD10AE00843D9
:103DC00004D000204FF0110B119072E7A3EB0B050C
:103DD0006D1E0DE05B4504DD4FF0000205F10105AD
:103DE00004E003DA4FF00002A5F10105002AECD04F
:103DF00002981199C0E90231C0E9004579E7000055
:103E0000000014400000F03F300000000000F043CC
:103E10000000E03FF0B50C462DED088B89B006465A
:103E20009FED559B20216846FEF757F9B0EE498A71
:103E3000F0EE698A102269463046FFF70FFE002532
:103E40006F4607EB4500008AFEF784F953EC182B08
:103E5000FEF7F6F96D1C41EC180BEDB2082DF0D30E
:103E60009FED470B51EC180B53EC102BFEF78FFA1C
:103E700041EC180B9FED44BB0D2E02D00E2E30D01E
:103E800072E06088FEF766F953EC1B2BFEF7F1FA3F
:103E90009FED3F0B41EC190B51EC100B81F00041F1
:103EA00041EC1A0BE088FEF755F953EC1A2BFEF79C
:103EB0006EFA41EC1A0B2088FEF74CF953EC182BE4
:103EC000FEF762FA53EC1A2BFEF7D3FA9FED321B82
:103ED00053EC112BFEF7CDFA53EC192BFEF7B0F98A
:103EE00040E0A07EFF2801D0E8B13DE09FED2C0B23
:103EF00051EC100B81F0004141EC1A0BE088FEF709
:103F000029F941EC190B2089FEF724F953EC182B01
:103F1000FEF73AFA53EC192BFEF7ABFA53EC1A2BD7
:103F2000FEF735FA1EE0A088FEF714F941EC190BF4
:103F3000E088FEF70FF981F0004141EC1A0B20896F
:103F4000FEF708F953EC182BFEF71EFA53EC1A2B68
:103F5000FEF78FFA53EC192BFEF719FA53EC1B2BD3
:103F6000FEF787FA41EC190B09B0B0EE490AF0EE02
:103F7000690ABDEC088BF0BD0000000000000000E5
:103F8000000000000000C03F000000000000594099
:103F90000000000000000040DE718A8EE4F25FBF86
:103FA000E2E1E1E1E1E10E402DE9FF4F95B09B46F2
:103FB0008946064600250FE2252877D100242746AA
:103FC000F84A0121059400E0044316F8013F203B24
:103FD00001FA03F01042F7D130782A2811D06FF09F
:103FE0002F033078A0F13002092A16D8059A44F040
:103FF000020402EB820203EB42021044761C05909D
:10400000EFE759F8042B0592002A03DA504244F4F2
:104010000054059044F00204761C30782E2816D106
:1040200016F8010F44F004042A280DD06FF02F0277
:104030003078A0F13003092B09D807EB870302EB96
:104040004303C718761CF3E759F8047B761C3078D5
:104050006C280FD006DC4C2817D068280DD06A28B1
:1040600014D104E0742810D07A280FD10DE044F464
:1040700000140AE044F4801401E044F4401472781F
:10408000824202D104F58014761C761C30786628B2
:104090000BD013DC582877D009DC002875D04528D0
:1040A000F6D04628F4D047281AD19DE118E06328BD
:1040B00035D0642879D0652812D195E1702873D065
:1040C00008DC6728F1D069286FD06E280DD06F28E2
:1040D00006D1B5E073282CD0752875D0782874D017
:1040E0005A46179990476D1C75E1C4F30250022897
:1040F00009D003280DD0D9F8001004280DD00D6088
:1041000009F1040967E1D9F80010EA17C1E9005282
:10411000F6E7D9F800100D80F2E70D70F0E719F816
:10412000041B8DF8001000208DF80100EA460120E4
:1041300003E059F804AB4FF0FF3061074FF0000186
:1041400002D40DE008F101018846B9420FDA80453A
:10415000F8DB1AF808100029F4D108E008F1010191
:1041600088468142FADB1AF808100029F6D1059832
:104170005B46A0EB080721463846179A00F094FAF0
:10418000284400EB080507E04DE029E10DE01AF8AE
:10419000010B5A4617999047B8F10108F7D25B46D0
:1041A00021463846179A13E142E00A220092C4F3EE
:1041B00002524FF0000A022A08D059F804CB032A11
:1041C0004FEAEC710AD00DE029E02AE009F107017D
:1041D00021F00702F2E802C1914609E00FFA8CFCD7
:1041E0004FEAEC71042A03D14FFA8CFC4FEAEC71D0
:1041F000002907DA0A460021DCF1000C61EB02011C
:104200002D2202E0220504D52B228DF80420012264
:1042100003E0E20701D02022F7E7904659E00A21A7
:1042200002E010220DE010214FF0000A00910BE097
:1042300010224FF0000A44F004040827009203E023
:1042400008224FF0000A0092C4F30252022A05D05D
:1042500059F804CB0021032A08D009E009F107012D
:1042600021F00702F2E802C1914605E01FFA8CFC3A
:10427000042A01D10CF0FF0C4FF00008220728D5CA
:10428000702806D0009B83F0100353EA0A0305D080
:104290000EE040228DF80420012208E05CEA0102D1
:1042A00006D030228DF804208DF8050002229046B9
:1042B000009B83F0080353EA0A030AD15CEA010277
:1042C00001D1620705D530228DF804204FF0010896
:1042D0007F1E582804D034A003900EA802900DE051
:1042E00036A0F9E753466046009AFEF78FF98446F8
:1042F0000398825C0298401E029002705CEA010002
:10430000F0D1029806A9081A00F1200A600702D528
:1043100024F4803400E00127574502DDA7EB0A00B2
:1043200000E0002000EB0A01009005984144401A8B
:104330000590E00306D45B462146179A059800F0E5
:10434000B3F90544002706E001A85A46C05D179955
:1043500090476D1C7F1C4745F6DBE0030CD55B46A0
:104360002146179A059800F09FF9054404E0302093
:104370005A46179990476D1C0099481E00900029D5
:10438000F5DC08E0029802995A460078491C02912F
:10439000179990476D1CBAF10001AAF1010AF1DCEE
:1043A00065E10000092801003031323334353637F9
:1043B0003839616263646566000000003031323371
:1043C0003435363738394142434445460000000011
:1043D00000F058F90544761C307800287FF4ECADE5
:1043E00019B02846BDE8F08F620700D4062709F10E
:1043F000070222F0070CFCE80223E14603F0004824
:104400005FEA080C02D00FF2702C0DE05FEA045C4A
:1044100002D50FF2682C07E05FEAC47C02D00FF2ED
:10442000602C01E0AFF2700C4FF0FF3823F0004336
:10443000CDF850C065280CD006DC452809D04628A8
:104440001DD047283DD13DE0662818D067287ED191
:1044500038E00021112F01DB112000E0781CCDE9AC
:10446000000106A90EA8FFF713FCDDE90F010E9A63
:1044700003910021009207F1010A04914DE04FF0F1
:1044800000400097CDE9011006A90EA8FFF700FC37
:10449000DDE90F0203920E9B11990022DDF80CA0BA
:1044A0000093049211B9791C00EB010AB7EB0A00E2
:1044B00004D4C0F1FF3007F1010A0490AAEB070011
:1044C000019044E0012F00DA01270021112F01DDC6
:1044D000112000E03846CDE9000106A90EA8FFF73B
:1044E000D7FBDDE90F010E9A0391002104910092A0
:1044F000BA4621070CD40399514500DA8A46BAF12D
:10450000010F05DD009AAAF10101515C302908D0A4
:10451000B84202DA10F1040F06DA0121CDE90110E8
:1045200015E0AAF10101E9E7002805DC049901443E
:104530000491AAEB000102E0411C514500DD8A46CE
:104540000499401A401C01904FF00040029020074F
:1045500004D40198504501DBCDF8048000208DF88B
:104560004F0002980DF14F07B0F1004F25D02B20DE
:104570000E9002984FF0020800280CDA4042029098
:104580002D200E9007E00A210298FEF729F830311D
:10459000029007F8011DB8F10001A8F10108F2DC52
:1045A00002980028EFD1791E0E980870307800F03C
:1045B000200040F0450007F8020D12A8C01B00F1D2
:1045C00007081498007800B1012000EB0A01019857
:1045D00001EBE07105984144401A401E0590E0034C
:1045E00006D45B462146179A059800F05DF805440D
:1045F0001498007818B15A46179990476D1CE0033B
:1046000024D55B462146179A059800F04DF80544DD
:104610001CE00498002807DBDDE90301884203DD84
:104620000098405C179901E0179930205A4690474E
:10463000049805F10105401C04900198401E01906A
:1046400004D12E205A46179990476D1CBAF10001EB
:10465000AAF1010ADDDC05E017F8010B5A461799AB
:1046600090476D1CB8F10001A8F10108F4DC5B462D
:104670002146179A0598ABE62D0000002B0000009C
:10468000200000002DE9F041044600251E46174693
:10469000880404D405E039462020B0476D1C641E10
:1046A000F9D52846BDE8F0812DE9F0410446002502
:1046B0001E469046C80301D5302700E02027880415
:1046C00004D505E041463846B0476D1C641EF9D557
:1046D0002846BDE8F0814A68002A06D00A68531CC3
:1046E0000B6010704868401E486070470A68531C91
:1046F0000B6010707047000070B504466FF0130532
:10470000552801DB06200FE0412C0ADA2D2C01DBB5
:10471000042009E014F10A0F01DB032004E0AC429D
:1047200001DB052000E0072012F0B4F919F00EF9C2
:10473000A8B10F480068C0F3805080B904F114019B
:104740000C48142902D240F2DC5106E0AC4202DAF5
:104750004FF4AF6101E04FF4C8614161C1610648A7
:104760000168002903D02046BDE87040084770BDAD
:1047700014A80040148A0020682F002010B51A49A0
:1047800040F21A444FF4B9720B694FF496710C3B26
:10479000A3420FD90424BE2801DC0C241BE0DC2832
:1047A00001DC082417E0FA280EDD884210DD904273
:1047B00011DD0FE0BE2801DC0B240CE0DC2801DC5D
:1047C000072408E0FA2801DC062404E0884201DC22
:1047D000052400E00324204612F070F92046BDE8CD
:1047E000104012F04DB90000148A002006480168FC
:1047F00041F001010160064804490160054941603A
:1048000005498160704700002C2F0020B9C72000A7
:10481000B08D002019C62000D5BF200030B585B06E
:104820002448302181812021418100250570072104
:10483000817301214170857002460021084603F012
:104840008FFA04464CB114221B496846FDF71EFC42
:10485000ADF80440684600F08BFC174A002118238D
:10486000443A084603F000FA044654B114221249AF
:1048700014316846FDF70AFCADF80440684600F0C4
:1048800077FC0D4A17232C3A0121002003F0ECF9A4
:10489000044654B11422084928316846FDF7F6FB56
:1048A000ADF80440684600F063FC0448058085705C
:1048B00005B030BD2084002044FF2100DE2C002004
:1048C0002DE9F0411D469046DDE906230F460646D8
:1048D0000D498020FEF5C5FF044680F83C5020229B
:1048E00039463D30FDF7D2FB2022314604F15D0010
:1048F000FDF7CCFB04F13C0241462046BDE8F04107
:104900004123FFF533B900000D492000FFF58EB8B3
:104910002DE9F0471D46DDE90973924689460646B2
:1049200000221F49A820DDF82080FEF59AFF002113
:1049300080F8A510C763044680F85010012084F861
:104940005100D8F80010C4F85210B8F80410A4F8B8
:10495000561098F8060084F858002868C4F85900E2
:10496000A888A4F85D00A87984F85F001022514659
:1049700004F16000FDF78AFB1022494604F1700043
:10498000FDF784FB0748324606490068C4F88000FA
:104990002046BDE8F0472023091DFFF5E7B80000D9
:1049A000A9492000680422002DE9F0478A46044600
:1049B0000027FFF53BF850B394F8A5004FF001092C
:1049C00004F1500804F1400630B104F185050128D6
:1049D0000DD0022828D11BE0102251463046FDF7A9
:1049E00055FB002084F8840084F8A59009E010228B
:1049F00051462846FDF74AFB84F88490022084F84B
:104A0000A5003523424631462046FFF5AFF80BE0BE
:104A10001022514604F19500FDF738FBE36B29465F
:104A20000020A269984701273846BDE8F0870000BA
:104A30002DE9F05F9B4692460546DDE90D230AA865
:104A4000894690E8C0011C498020FEF50AFF044613
:104A5000102249466D30FDF719FB1022514604F132
:104A60005D00FDF713FB1022594604F14D00FDF7E0
:104A70000DFB3088A4F84A00B07884F84C003968FF
:104A8000C4F84310B988A4F84710B87984F84900ED
:104A9000D8F80000E063B8F80400A4F8400098F8E3
:104AA000060084F8420004F13C0229462046BDE895
:104AB000F05F4123FFF55AB8BD4A2000FEF5B6BFAE
:104AC0002DE9F0411F469046DDE906230E460546D6
:104AD0000F498C20FEF5C5FE0446202229466C3085
:104AE000FDF7D4FA2022314604F14C00FDF7CEFA4E
:104AF00004F13C00102239460546FDF7C7FA2A4664
:104B000041462046BDE8F0415023FFF52FB8000094
:104B1000154B2000FEF58ABF2DE9F04186B007460F
:104B200088461546304C0226207801282CD141F6C3
:104B30000D024146384619F0D1FC002824D02868DF
:104B4000C4F80A00A888E081A879207403F092FDD7
:104B500005464DB11422254901A8FDF797FAADF895
:104B6000085001A800F004FB21A040F23721CDE954
:104B700000101E4B29A2183B2EA1032000F00CFFB1
:104B8000267006B0BDE8F08160780128F9D141F6C1
:104B900014024146384619F0A1FC0028F1D02868DB
:104BA000C4F81100A888A4F81500A879E07503F0EE
:104BB00061FD054655B114220C49143101A8FDF7D9
:104BC00065FAADF8085001A800F0D2FA1BA04FF426
:104BD0001171CDE90010054B10A2183B15A103205F
:104BE00000F0DAFE6670CCE7D82C0020200122000D
:104BF00053746F70207363616E6E696E6720666FA9
:104C00007220436F6E6E656374696E6720485253FD
:104C10002070726F6365647572652E002E2E5C5372
:104C200072635C757365725C757365725F617070D9
:104C30002E6300004E4F5F544147000053746F7065
:104C4000207363616E6E696E6720666F7220436FBA
:104C50006E6E656374696E672052534353207072A1
:104C60006F6365647572652E0000000006460F468E
:104C7000154672B63846FDF73BFA402801D9402068
:104C800002E03846FDF734FA80463046FDF730FA48
:104C9000402801D9402002E03046FDF729FA0446B9
:104CA0009C211048FDF719FA424639460D48FDF798
:104CB000EDF90C48224631465C30FDF7E7F909482A
:104CC0004FF0AA31016445644FF0BB3181644FF06D
:104CD000CC3101654FF0DD318165002000F004F832
:104CE000FEE70000783B002030B5ADF20C4D0446E5
:104CF0004FF4806103A8FDF7F0F9194D202085F8E5
:104D00003F0085F89B003CB12846012C436DC26CE6
:104D100009D0022C0CD00FE0114A12A15C3203A87A
:104D2000FEF776FC08E012A103A8FEF771FC03E091
:104D300017A103A8FEF76CFC03A90CA2686CCDE9CF
:104D40000121009019A3064A19A1002000F024FEB9
:104D5000012C01D000F0D8FD0DF20C4D30BD00004B
:104D6000783B00205B4552524F525D202573000076
:104D70005B5741524E494E475D20506172616D3024
:104D80003A25642C506172616D313A25640000004F
:104D90005B504152414D5D20506172616D303A254A
:104DA000642C506172616D313A256400000000008E
:104DB0006170705F6173736572742E630000000030
:104DC000014818F017B90000042C002006460F46D1
:104DD00090461D4672B64046FDF78AF9402801D933
:104DE000402002E04046FDF783F904469C210D482F
:104DF000FDF773F9224641460A48FDF747F909488D
:104E00004FF05531016445644FF066318164C664EA
:104E10004FF0773101654765C94381650220FFF78F
:104E200063FFFEE7783B00202DE9F04106460F4680
:104E300090461D464046FDF75BF9402801D94020C9
:104E400002E04046FDF754F904469C210D48FDF769
:104E500044F9224641460B48FDF718F909484FF03E
:104E600011310164456449008164C6644FF03331F7
:104E7000016547654FF044318165BDE8F04101208F
:104E8000FFF732BF783B0020FEB504460E462E4D9C
:104E9000307C002846D12878032702281FD12BA078
:104EA000CDE9010440F26F2100912F4B2FA235A1D3
:104EB000032000F071FDEC702F7020460FF048FACF
:104EC0000121002005F05AFA30A040F27721CDE907
:104ED0000010254B25A22BA1032000F05DFD687872
:104EE00002281FD131A0CDE901044FF41F710091B8
:104EF0001D4B1EA223A1032000F04EFD2C716F70EC
:104F0000204616F0FBF80121084605F037FA2EA0DE
:104F10004FF42171CDE90010134B14A219A1032005
:104F200000F03AFD307C01280CD12FA0CDE901041E
:104F300040F28A2100910C4B0CA212A1032000F038
:104F40002BFDAC70FEBD0000D82C0020436F6E6EB0
:104F5000656374656420746F204852532C20494463
:104F6000583A25642E000000480122002E2E5C5382
:104F700072635C757365725C757365725F61707086
:104F80002E6300004E4F5F5441470000537461721E
:104F90007420646973636F76657279204852532078
:104FA000736572766963652E00000000436F6E6E54
:104FB000656374656420746F20525343532C2049F9
:104FC00044583A25642E0000537461727420646959
:104FD00073636F7665727920525343532073657201
:104FE000766963652E000000436F6E6E65637465BD
:104FF0006420746F20436F6C6C6563746F722C2037
:105000004944583A25642E00FEB5314C0026FF2550
:10501000E278904216D12FA040F29B22CDE90020E9
:105020000291344B34A23AA1032000F0B5FCE570A4
:1050300026700021084605F0A1F9BDE8FE400920D0
:105040000FF038B82279904216D133A040F2A52251
:10505000CDE900200291274B27A22DA1032000F0CB
:105060009BFC257166700021012005F087F9BDE8E1
:10507000FE400A200FF01EB8A278904226D12EA042
:1050800040F2AF22CDE9002002911A4B1AA220A1D2
:10509000032000F081FCA5702079FF2801D003F0E7
:1050A000C7F8E078FF2801D003F0C2F808490020D3
:1050B000891D02F04FFF29A040F2BF21CDE9001069
:1050C0000C4B0DA212A1032000F066FCFEBD0000F7
:1050D000D82C0020446973636F6E6E6563746564D9
:1050E0002066726F6D204852532830782530325830
:1050F000290000005E0122002E2E5C5372635C7555
:105100007365725C757365725F6170702E63000009
:105110004E4F5F5441470000446973636F6E6E6584
:10512000637465642066726F6D2052534353283058
:105130007825303258290000446973636F6E6E65BC
:10514000637465642066726F6D20436F6C6C656379
:10515000746F722830782530325829005374617288
:1051600074206164766572746973696E672E0000DD
:105170003EB504464FF400711A48FCF7AEFF2078A4
:1051800010B1012819D01DE000211748A28830F87D
:1051900031309A4207D100EBC10014A14368114895
:1051A000FEF736FA0EE02E2902D0491CC9B2EEE70E
:1051B00014A10C48FEF72CFA04E01DA1094862680E
:1051C000FEF726FA074921A22069CDE901210090C6
:1051D000D4E902231EA1002000F0DEFBBDE83E4022
:1051E00000F0A6BB7839002038F621004572726FB6
:1051F0007220636F6465203078253034583A20255A
:10520000730000004572726F7220636F6465203016
:1052100078253034583A204E6F20666F756E6420C2
:10522000696E666F726D6174696F6E2E00000000AA
:1052300028257329206973206E6F7420657374614B
:10524000626C69736865642E0000000025730000BD
:105250006170705F6572726F722E63002DE9F041AC
:10526000014600291BD000240F4E0E4A357814E069
:1052700002EB04100F780378BB420CD14B684068F6
:10528000034208D0707808B900F01CFB2046BDE846
:10529000F04100F04BBA641CE4B2AC42E8D3BDE884
:1052A000F0810000CC360020D82B00207CB50546CC
:1052B0000E46002D01D0002418E0E5207CBD05EB52
:1052C000041041680091017A8DF80410417A8DF83C
:1052D000051000218DF80610C26800780023694689
:1052E00000F036F80028E9D1641CE4B2B442E6D3F9
:1052F00000207CBD10B502460846052A24D2DFE80E
:1053000002F0030303111900104951F8322001047F
:10531000090C05D022B1014610460CF0A7FF0FE0A2
:10532000E42010BD10F0FF0F02D00CF0A3FC07E04A
:10533000E42010BD810505D0014600200DF058F88D
:10534000002010BDE42010BDE62010BD3CF521007A
:105350002DE9F05F05460C469046994626680027E1
:10536000042D11D031462846FFF7C4FF21462846B8
:1053700000F068F8002808D1032D08D04FF0100A7B
:105380002807070E002451E0E620BDE8F09F4FF00B
:10539000080AF7E7F00746D03DB1012D05D0022DF0
:1053A00003D0032D27D0E620EFE7244800EBC5000B
:1053B00090F904B0BBF1000F17D0EFF3108101207A
:1053C00080F310881E4AE01942F8308002EBC000DA
:1053D000C0F8049059B1012080F3108858460DF0B0
:1053E00073F858460DF07DF81DE0E420CDE700206D
:1053F00080F31088F2E7EFF31081012080F310882A
:105400000F4AE019703242F8308002EBC000C0F859
:10541000049079B1012080F3108815200DF054F824
:1054200015200DF05EF87608641CE4B25445B1D343
:105430000020AAE7002080F31088EEE73CF5210069
:10544000D835002030B597B005460C461C2241499E
:1054500010A8FCF71BFE1C223E491C3109A8FCF7D2
:1054600015FE20223B49383101A8FCF70FFE94B10C
:105470003949062017F00EFD3849152017F00AFDAE
:1054800034496C39A1F12C02052D60D2DFE805F01A
:10549000060606213900E52017B030BD207931F825
:1054A00010001190607932F810001290A0791390DA
:1054B000206810902748843850F835002188090466
:1054C000090C04D018B110A90CF05DFF38E0E420FD
:1054D000E2E7207901EB4000808A0A90607902EBD4
:1054E0004000C0880B90A0790C902068099020782B
:1054F00010F0FF0F03D009A80CF024FC20E0E420FA
:10550000CAE72079031F042B01D8E720C4E702284B
:1055100018D001200290207901EB4000008D03900B
:10552000607902EB400080890490A07905902068A2
:1055300001902088800508D001A900200CF0B4FF5C
:105540000020A9E702200290E5E7E420A4E7E62096
:10555000A2E70000C0F52100B51F1000B11F100028
:1055600002460020052A11D2DFE802F003030309F6
:105570000C00074850F8320089B20CF022BF88B204
:105580000CF040BC89B200200CF090BF70470000C6
:105590003CF52100002803D0024908600120704733
:1055A00000207047E02B002070B505460024091F3D
:1055B000062917D2DFE801F003070C11131528465E
:1055C00000F0A4F80EE00124284600F09FF809E05E
:1055D0000224284600F09AF804E0032402E00424A0
:1055E00000E00524034A214628461268BDE87040C1
:1055F00010470000E02B00202DE9F0410446204632
:1056000000F0AEF801462E4800230826025D00F1A6
:105610000A0700F11405AAB1052A33D0082A2AD1B5
:10562000092945D0082926D1295D491CC9B2295527
:10563000142920D32B5506552046BDE8F0410821FA
:10564000FFF7B2BF052913D0042916D0072914D0BB
:10565000082910D1295D491CC9B2295514290AD33A
:105660002B5506552046BDE8F0410821FFF79CBFA9
:105670003B5505210155BDE8F0812046BDE8F041CC
:10568000FFF792BF05290CD0395D491CC9B23955C5
:105690003229F0D303552046BDE8F0410521FFF73C
:1056A00083BF03552046BDE8F0410621FFF77CBFCC
:1056B00003552046BDE8F0410921FFF775BF000002
:1056C000AC37002070B504460D4600F00FF808B165
:1056D00000F00EF90348044A2946005D5268BDE80F
:1056E00070401047C0360020D82B0020002006490B
:1056F00011F810200AB100207047401CC0B20A28DF
:10570000F6D3012070470000CA3700200349002269
:1057100001F8102001EB400042707047CA370020AA
:10572000014A02F810107047CA370020024A0121CE
:1057300002EB400041707047CA37002070B500246A
:10574000064D05EB4400407810B12046FFF754FFAA
:10575000641CE4B20A2CF4D370BD0000CA370020E8
:1057600070B500211D4B03F132051A5C002A09D0E7
:10577000002403F10A06012A0AD0022A12D0032AC1
:1057800024D11FE015F8102002B301221A541DE0A5
:1057900015F810201AB1345402221A5416E01C5481
:1057A000042113E015F810204AB1325C521CD2B229
:1057B0003254642A0AD3072103221A5406E0052131
:1057C0001C5403E015F8101011B10821084670BDF3
:1057D0001C54FFF79BFF0921F8E7000098370020D1
:1057E000704700002DE9F0410E4617460A2E02D8F8
:1057F0000FB100231AE00020BDE8F08103EB430461
:1058000000EB8405114AA97AD154104910F82420DC
:105810000C3101EB0314227069686160297A2172EE
:10582000697A61720A49E1605B1CDBB2B342E5D37D
:10583000064831460C30FFF739FD064806704760D0
:105840000548FFF7A7FE0120D6E70000C03600207C
:105850005D522000D82B0020C55620002DE9F041D4
:105860000024124FDFF8488019E0002607EB0415EA
:1058700028786968FFF774FE10B9697A012902D0A7
:10588000012802D005E0012603E0687A022800D151
:10589000012631462046FFF743FF641CE4B298F826
:1058A00000008442E1D3BDE8F0810000CC36002046
:1058B000D82B002010B5FFF7D1FFBDE81040FFF74F
:1058C0003DBF000010B5074A0121074800F0A6F9C6
:1058D00000220A21044800F0F7FA04490120487028
:1058E00010BD0000B558200070370020D82B0020D4
:1058F00010B5034800F0C0F902490020487010BDFF
:1059000070370020D82B00200248406A002800D0C1
:105910000047704750390020002806D0002904D0E5
:10592000024AD269002A00D010477047503900203F
:105930000248006A002800D0004770475039002014
:1059400070B50D4616460D4C00280AD00178032983
:1059500011D80121A17601461A222046FCF796FBB8
:1059600005E00020A0761A210448FCF7B6FBE561AB
:105970002662002070BD012070BD0000503900205B
:10598000044A1044807D084201D001207047002065
:1059900070470000503900202DE9FE4F074692461F
:1059A00099460024A046CDF80480CDF808805948D7
:1059B0000178B94202D2807E00287DD10EAD0095DB
:1059C000EFF311860220FDF79CFE8346FDF704FFEE
:1059D000401C012181400BEB0100C0B280F3118813
:1059E00001213846FFF7CCFF38B14B484B4950F8FE
:1059F0002720204600F0A4F804461C213846FFF773
:105A0000BFFF00285ED046A24449204600F098F827
:105A1000204484B204213846FFF7B2FFF8B1524661
:105A20003E49204600F08CF8204484B208213846D4
:105A3000FFF7A6FF38B13BA23849204600F080F8B6
:105A4000204484B20BE010213846FFF799FF30B1B3
:105A500035A23249204600F073F8204484B2082170
:105A60003846FFF78DFF90B14A462C49204600F09A
:105A700067F8204484B210213846FFF781FF30B127
:105A80002AA22649204600F05BF8204484B2102167
:105A90003846FFF775FF60B126A2052101A80C9BCF
:105AA000FDF79EFD01AA1D49204600F049F820445B
:105AB00084B221A2194900E029E0204600F040F814
:105AC000204484B21548C4F5807120442B460D9AB9
:105AD000FDF7B2FDCDF800804FF48071002804DBA3
:105AE0002044884201DC85B200E00D46A81C8842B3
:105AF00000D9FE2511A20949284600F021F82844C2
:105B000081B20648FFF708FFF0B280F31188BDE8C4
:105B1000FE8F000050390020F02B0020503800206C
:105B200028000000200000003A000000204C696EB0
:105B3000653A0000256C6400292000000D0A000071
:105B400030B50546002000290CD0002A0AD006E016
:105B50002B18FF2B06D8CC54521C401C80B2147852
:105B6000002CF5D130BD000010B5064A06214CF2DC
:105B7000010013F013FC04F09FFDBDE8104000206D
:105B800028F626BFF8FE210010B508480178002944
:105B90000AD101210170064828F684FEBDE81040B4
:105BA0000021044828F680BF10BD0000CC2B002047
:105BB000C11F1000899A210070B5164C164E20782E
:105BC000A6F11C0502280FD104F10A00807986F89D
:105BD0003000D4F80A00C5F84600E089A5F84A006C
:105BE0003146002002F064FB6078022810D1094899
:105BF0001130807986F8300054F8110F45F8460FBF
:105C0000A088A880BDE870400349002002F050BB86
:105C100070BD0000D82C00203C8400202DE9F0410C
:105C200004460D461746002D04D0012D02D0012058
:105C3000BDE8F081E4B1DFB1607801281AD0EFF35C
:105C400011860220FDF74FFD8046FDF7BDFD401C8B
:105C50000121814008EB0100C0B280F311880020CF
:105C60006070A570E761F0B280F311880020DFE773
:105C70000120DDE70620DBE710B50446002C0CD040
:105C8000204600F0B3F9FF2060700021A160E160C0
:105C9000216161610020E06110BD012010BDF0B5FF
:105CA000DDE90745059981614FF47A76A2FB061C70
:105CB00003FB06C3002702FB0732C0E902120919E1
:105CC0006A41C0E9041200210162F0BD2DE9F041F2
:105CD0000446002C13D0EFF311850220FDF703FDDD
:105CE0000746FDF771FD401C012606FA00F0384416
:105CF000C0B280F311881248002121620EE000201A
:105D0000BDE8F081D4E90432D1E9047CDB1B72EBFD
:105D10000C0202D2016A216203E00846016A0029EE
:105D2000F0D104626670064810380168491C0160B1
:105D3000016B4160E8B280F311880120E0E70000C8
:105D4000F03700202DE9F04105460024EFF31186DD
:105D50000220FDF7C8FC0746FDF736FD401C012177
:105D600081407818C0B280F31188134A106BE8B1F3
:105D700015B102F1100010E00446206A10631068AB
:105D8000401E10600CE0A94206D11168491E116046
:105D9000296A01622C4603E00846016A0029F2D113
:105DA00024B1002020626070106B5060F0B280F36C
:105DB00011882046BDE8F081E03700202DE9F04150
:105DC000EFF311870220FDF78EFC0446FDF7FCFC83
:105DD000401C012181406018C0B280F31188114D30
:105DE000002608E02078012804D1E16909B1A06902
:105DF000884726702D6A2C6A002CF3D1094D103D7E
:105E000007E0E16909B1A06988472670206AA863A4
:105E10002662AC6B002CF4D1F8B280F3118801201B
:105E2000BDE8F081F03700202DE9F041EFF3118754
:105E30000220FDF758FC0446FDF7C6FC401C012675
:105E400006FA00F02044C0B280F311881D4DA5F180
:105E500010082DE0D4E90430D8E902125B1A60EB97
:105E60000200D8E91021D21A814124D3267020469D
:105E7000FFF768FFA078012806D0124828300021DB
:105E80002162016861B10FE0D8E90220D4E9021370
:105E900051185841C4E904102046FFF717FF07E0E6
:105EA000046005E001F1200001680029FAD10460D6
:105EB0002C6A002CCED1F8B280F311880120BDE805
:105EC000F0810000F03700202DE9FF5F82460E468A
:105ED00093464FF00008BAF1000F20D041488642A7
:105EE0001DD8E6B1EFF311870220FDF7FCFB044655
:105EF000FDF76AFC401C012181406018C0B280F3AC
:105F0000118850460FF028F910B19AF8010040B1FD
:105F1000F8B280F311880F2004B0BDE8F09F012093
:105F2000FAE712F0FFFD04460D464FF47A7106FBC6
:105F300001F022462B4600210EF0F8FFDFF8A89072
:105F4000B0B1D9F8040048B1D0E90410091B60EBE6
:105F50000500C9E9021012F05FFE04E00021C9F853
:105F60000810C9F80C104FF00108D9E9020106E049
:105F7000D9F80400D0E90421101B61EB0501CDE93B
:105F8000020132460023CDF800B05046FFF787FEED
:105F90005046FFF79BFE16F08BFE4FF0E024D4F83E
:105FA00000014FF4801510F4801F01D0012000E0A3
:105FB000002020B91420FDF755FBC4F80051B8F1BA
:105FC000000F0AD0D9F80400D0E90431D9E902025F
:105FD000181A61EB020112F0DBFDF8B280F31188B0
:105FE000002099E7008AB907E03700202DE9F04149
:105FF00004460025002C39D0EFF311870220FDF76D
:1060000072FB0646FDF7E0FB401C01218140701841
:10601000C0B280F311886078012824D1144E7068D2
:10602000A0420BD112F07EFDD4E90432181A62EBC3
:106030000102C6E9020212F0EFFD01252046FFF73A
:1060400081FE5DB1706848B1D0E90421D6E9020350
:10605000101A61EB030112F09BFD04E01DB970689A
:1060600008B912F0D9FDF8B280F31188BDE8F081CB
:10607000E037002070B504461A4D55F82400703002
:1060800014F0E3FD82B21646A2B155F8240090F850
:10609000011101290ED0012180F80411802A0FD3AB
:1060A00055F82400802200F18001703014F0E8FDE2
:1060B00080260CE055F82410002081F8000170BD06
:1060C00055F8240000F18001703014F0D9FD55F826
:1060D0002400324600F18001001D0CF009FF002869
:1060E000EDD170BDD02B0020704700002DE9F843A2
:1060F0000446534F57F82400061D022C7ED290F818
:106100006C1000297AD0012978D190F8001101296A
:1061100074D190F80111002970D1012180F801118A
:10612000002157F82400D0E903231344027D02F034
:106130000102D21D9D184268D36FC3F38003002B68
:10614000FAD090F80421A2B13E4A1368491C90F895
:106150003B20102A06D08268B3FBF2F26A43B1EB0F
:10616000C21FF3D957F82400703014F06EFD85B2C9
:1061700026E0B0F82480C58C001D0CF051FC57F8C7
:10618000240041F2883300EB0801491B8031001DD7
:106190002A460CF066FEE5E757F82400012270302D
:1061A000694614F06DFD57F824004068C16FC1F3D3
:1061B00040010029FAD09DF8001001606D1EADB2BB
:1061C000002DE9D157F82400703014F03EFD00286E
:1061D000C8D1306841694906FCD5EFF3108501202C
:1061E00080F3108857F82400703014F02EFD78B139
:1061F000EFF31081012080F3108800E015E0306893
:10620000426842F08202426089B1012080F3108826
:1062100057F82410002081F8000157F8241081F865
:10622000010145B1012080F31088BDE8F88300200A
:1062300080F31088ECE7002080F31088F5E7000079
:10624000D02B00205C0000202DE9F04105460F46D0
:10625000002D06D02AB12C78022C04D3E820BDE80A
:10626000F081E520FBE7304E05F1580046F82400A8
:10627000D2E900310A467030194614F0CBFC291DD2
:10628000286D18F03FFB0028E9D156F82410281D8E
:10629000486656F82400076056F824001822083093
:1062A00005F14001FBF7F2FE204856F8241000EB00
:1062B000C4056868486056F82400001D0CF010FC06
:1062C00056F82400001D0CF0ADFC184801220321F3
:1062D000103813F04DFC56F82410012081F86C00A2
:1062E00056F82410002081F8000156F8241081F897
:1062F000010156F8241081F8020156F8241081F8A3
:1063000003010B490C2016F0C5FD0A490D2016F0BB
:10631000C1FD95F901000CF0D7F895F901000CF0DA
:10632000E0F800209BE70000D02B002028F6210099
:106330009D352000AD3520002DE9F04104461A4D71
:1063400055F82400703014F080FC82B21646002705
:106350007AB155F8240090F80111012909D0802A5A
:106360000ED300F180017030802214F089FC802669
:106370000BE055F8240080F800710020BDE8F081A2
:1063800000F18001703014F07BFC55F8240080F897
:10639000047155F82400324600F18001001D0CF014
:1063A0000DFE0028EAD1E9E7D02B002070B50228C5
:1063B00001D3E82070BD104D55F8204064B194F829
:1063C0006C604EB151B14AB15E1C09D044F62066F2
:1063D000B34205D9E42070BDE52070BDE42070BD56
:1063E000002684F8026155F82000001D0CF039FDEC
:1063F0000028F4D170BD0000D02B00202DE9F84F0B
:10640000294D804692460E4601F10804A8F58041C8
:10641000264A6868B1F5804F01D25168401A84421B
:1064200002D90520BDE8F88F28681369411E9268DB
:10643000C1F30B01411A9A1A01F6FF716B7AC1F38D
:106440000731C91A02EBC101081A001F844225D97D
:10645000174F0024009411231E224FF40049D7F84F
:1064600000C049460120E047002108460BF088F8AB
:1064700040B1009413231E223C6849460120A047E6
:106480000A20CFE7687A0EF071FC0028CAD1009488
:1064900012231E223C6849460120A047524631463D
:1064A000404618F0AFFDBDE784870020442D002052
:1064B000E0010020FEB50C4606460A7900210120C5
:1064C0008DE80700164D03230D2240212D68002082
:1064D000A84760780125162811D1012130460AF617
:1064E0003DFC60B1407850B10E49207951F826103A
:1064F00081F848000021304600F036FC0025607825
:106500000C2805D12079072802D1304600F052FC32
:1065100025B12279012130460AF6D8FE0020FEBDC1
:10652000E0010020CC19002070B50D46044608F6A5
:106530000BFE6988884200D2014620460AF6B4FF65
:10654000012120460AF6CEFB012801D0412200E0BD
:106550000022012120460AF6B9FE002070BD00008D
:1065600038B50446134D0020009002230D222D68FB
:106570004021A847012120460AF6B4FB0C2803D08D
:106580000E2814D041220CE0012120460AF6E6FB39
:106590004189008981420AD0074850F8240090F8C8
:1065A0004820012120460AF691FE002038BD002235
:1065B000F7E70000E0010020CC1900202DE9F047AA
:1065C0000F46814601210AF68DFB032801D04022A7
:1065D00042E0012148460AF6C1FB4FF6FF7A054624
:1065E0000026D04624E0012148460AF6EFFB6B78EE
:1065F0000146052202EB092240F604409B1D11F6DC
:1066000039FC0446B819B61C80882080B0B239180D
:10661000801C8988618086B26878207188466A7893
:1066200005F10801601DFBF731FD204611F66EFCF7
:106630007888B042D7D8E98808F1010080B2514586
:1066400000D35146814206D328B1A8800121484693
:106650000AF6F2FD04E00A22012148460AF636FE57
:106660000020BDE8F0872DE9F0470F468246012162
:106670000AF638FB072801D0402246E001215046A7
:106680000AF66CFB81467878012803D01026002595
:10669000A84622E00226FAE7012150460AF696FBB8
:1066A0000146052202EB0A22331D40F6074011F68F
:1066B000E1FB04467819AD1CB0F80480ADB2A4F833
:1066C00000807919A6703246E01C091DFBF7DEFC3C
:1066D000A81985B2204611F619FC7888A842DBD8A3
:1066E000B9F8061008F101004FF6FF7280B291422E
:1066F00000D31146814207D330B1A9F8040001212B
:1067000050460AF699FD04E00A22012150460AF695
:10671000DDFD0020BDE8F087084A52F82020126A0B
:1067200008E093888B4204D8D3888B4201D3108928
:1067300070471268002AF4D104F686BACC190020FA
:106740000348024901600E2141607047C40D2200D8
:106750007805002070B5164A0C460546126849882F
:1067600090470146A088801D83B2052000EB0522DA
:1067700020781B2817D040F60D4011F67BFB05460C
:1067800020781B2812D012202870A088688060888A
:10679000A880A288A11DA81DFBF778FC284611F649
:1067A000B5FB002070BD40F60C40E6E71120EBE79A
:1067B0003830002070B50D46064601210AF692FADF
:1067C0000C2806D04122012130460AF67FFD002028
:1067D00070BD012130460AF6C1FA0446A888E18856
:1067E000401A80B2608104F10C010144EA8805F18D
:1067F0000800FBF784FC28B96089E98808442189EE
:10680000884201D94FF6FF706081012130460AF6B7
:1068100013FDDCE72DE9F35F0D4648884978B0FBAE
:10682000F1F4012100980AF65DFA022869D1002CE2
:1068300067D0012100980AF691FA80460026687810
:10684000B146142801D0022700E010274FF0000ABB
:106850004FF6FF7B30E0012100980AF6B7FA0146B7
:106860000098052202EB0022BB1D40F6044011F601
:1068700001FB0446A819B61C81882180B1B26818B2
:10688000891C828862808EB29146A91927713A4686
:10689000601D091DFBF7FAFBF01986B298F801306C
:1068A00008F108023946601DFEF5ADF808B14FF059
:1068B000010A204611F62AFB6888B04204D9BAF1D1
:1068C000000F01D1D945C6D109F1010080B2BAF15A
:1068D000000F0ED1B8F80610594500D35946814231
:1068E00007D330B1A8F80400012100980AF6A4FCEF
:1068F00004E00022012100980AF6E8FC0020BDE82F
:10690000FC9F4122F6E700002DE9F34F81B00025FE
:106910000C46A8460121009501980AF6E3F90522E4
:106920000199042802EB012966D0052805D0062824
:1069300003D00A2871D04022FEE0012101980AF616
:106940000DFA07466078072801D9102000E00220E0
:1069500082464FF0050B3DE06019B0F804803878AE
:1069600005280AD005EB0B0020447B7807F10802CC
:106970005146001DFEF547F848B3012101980AF67B
:1069800025FA01464A460AF1060340F6064011F68A
:1069900071FA0646A0F80080AD1CA8B22118401C70
:1069A0000979317180B22118801C8988718085B283
:1069B000611986F805A05246B01D091DFBF766FB5C
:1069C00005EB0A0085B2304611F6A0FA02E06078C5
:1069D000284485B26088A842BED8F98808F1010031
:1069E0004FF6FF7280B2914200D31146814279D3B3
:1069F000002877D0B8806FE0012101980AF6AEF93F
:106A00008346A0784FF0000A5646400701D0102771
:106A100031E04FF0010A02272DE065E001210198E5
:106A20000AF6D4F901464A4607F1080340F6054044
:106A300011F620FA06466019AD1C81883180A9B292
:106A40006018891C828889B260187280891C8288CB
:106A5000B2808DB2BAF1000F14D06119B7713A4605
:106A6000F01D091DFBF712FBE81985B2B6F800808E
:106A7000304611F64BFA6088A842CFD8BAF1000F21
:106A800009D01AE03D4A0198A6F10C0152F8200005
:106A90000C3001F685FC86B1002000904B460A229E
:106AA0000421019812F612FA014670884880019874
:106AB00000F042F90020BDE8FE8FBBF8061008F197
:106AC00001004FF6FF7280B2914200D3114681421D
:106AD00008D330B1ABF80400012101980AF6ACFBF1
:106AE0002EE0FFE70A2227E06078FF282AD00198ED
:106AF0000AF6B4F86178801E884223DD01210198EE
:106B00000AF664F9637801464A4640F609401B1DBF
:106B100011F6B0F9A1880546018014F8010F611D36
:106B2000801E82B2AA8000206880A81DFBF7AEFA02
:106B3000284611F6EBF90022012101980AF6C6FB5E
:106B40000098B8E7A4F10805012101980AF606F9B2
:106B5000A18881806178891EC180002101816078CF
:106B6000A5F10C01801E68800448019A50F82200AB
:106B70000C3001F615FC01200090ADE7CC19002087
:106B80002DE9F05F8946834601210AF6ABF80B2810
:106B900001D0412245E0012158460AF6DFF80025E0
:106BA0008046AA462E4631E0012158460AF60EF9E3
:106BB00008EB86070146F8880522801D83B202EBA8
:106BC0000B2240F6094011F655F9B98804460180B8
:106BD000B9F80200F988401B814200D2084682B20F
:106BE000A2800020608009EB0501A01D091DFBF7B4
:106BF0004DFAA08841198DB2F988884201D04FF032
:106C0000500A204611F682F9761CF6B298F8010077
:106C1000B042C9D8B9F80200A84201D04FF0500ADA
:106C20005246012158460AF651FB0020BDE8F09F6C
:106C30002DE9F0470C4606464FF0000801210AF600
:106C400051F8DFF8F090042807D008282BD0092845
:106C500029D00A2827D0412259E0012130460AF6DE
:106C60007DF8074659F826000C3001F681FB00F14B
:106C70000C051022211DE81DFBF708FA1020A87151
:106C8000284611F643F92888F988401C4FF6FF7210
:106C900080B2914200D31146814202D308B1B8803C
:106CA00041E00A2233E0012130460AF657F8054652
:106CB000A11F002021F80E0959F826004F460C307C
:106CC00001F66EFB288920B16188814200D2084616
:106CD000608057F8260062884FF00108C068C189BB
:106CE000114489B2C181B1F5006F01D911220EE0C2
:106CF000304609F6B3FF6188401E884203DC2889CC
:106D0000814209D340B1304600F054F800220121FD
:106D100030460AF6DBFA0AE0EA881144E98010B14D
:106D20006188401A2881012130460AF685FA4046DA
:106D3000BDE8F087CC19002010B50C460978024652
:106D4000D2290CD052290AD01E2908D0052000EBE8
:106D5000022147F2305240F61D4011F6A7FB2046B3
:106D6000BDE8104012F6D6BB38B5044600200090AE
:106D700005200D4600EB042318220421204612F6BC
:106D8000A5F8014645702046BDE83840FFF7D4BF5E
:106D900038B5044600200090052000EB04231E2295
:106DA0000421204612F692F801462046BDE83840FC
:106DB000FFF7C2BF2DE9F05F374C814654F8290038
:106DC000C068002866D00121484609F6C7FF824600
:106DD00054F82900A3464FF00008C468012104F1CB
:106DE0000C06E789484609F6F1FF0146B81D83B253
:106DF000052202EB092240F6094011F63BF8878094
:106E0000BAF804100180BAF8061005464180307ABD
:106E1000092833D1727A06F10807A81DB91D921E00
:106E2000FBF734F97878811E1FFA81F8216819B1CF
:106E30006988081A801C68802468A6F10C0011F685
:106E40005BF804F10C0619E006F1080705EB0800F1
:106E50007289391D801DFBF719F9788800EB08014C
:106E60001FFA81F8216811B16988081A68802468BE
:106E7000A7F1140004F10C0611F63EF8002CE3D142
:106E80005BF829000C3001F67BF92846BDE8F05F7D
:106E900011F63CB8BDE8F09FCC19002010B50446AF
:106EA000012109F61FFF0C2801D0412200E0002239
:106EB000012120460AF60AFA002010BD02490148C5
:106EC00008607047CD6E20003405002070B506467E
:106ED0000D461020288029463046FEF5EBF8044682
:106EE00024B929463046FDF5F1FF0446074A2988B2
:106EF00002A012689047204670BD000064625F7374
:106F0000697A65203D2025640A000000E401002024
:106F100010B586B01A4C94F8020100282ED06846AD
:106F200028F616FF9DE8070003AB07C3154909685B
:106F30000844154920F070404860084629F62AF9AF
:106F400094F800011149096801EB001000F5405068
:106F5000B0F85003C0F3C20002280FD80C480078E4
:106F600020B106B0BDE8104027F6B2BF06B08822B7
:106F7000BDE8104007A10CA0FDF562B906B010BD38
:106F80006417002010040020501700200402002085
:106F9000050400207363685F70726F675F706174CF
:106FA00063682E630000000030000000F0B5AFB051
:106FB00000240D460646846219A82421FBF78DF8AB
:106FC000229403A824212394FBF787F80C940EA89D
:106FD000242231460D94FBF759F8706A1790B06A75
:106FE000784E189024A824223146FBF74FF8706A97
:106FF0002D90B06A2E90012021902290CDE90B4077
:10700000B4E000230EAA1846264652F8201089192B
:1070100046EB03077B084FEA310342F8203021F0AA
:107020000103CB1A00F101000928EED3002052F829
:10703000201011B9401C0928F9DBC0F10900506289
:107040002198C00706D019A8FBF726FD1698C0079F
:10705000D7D044E0002319AA1846374652F820102A
:10706000C91947EB030673084FEA310342F8203091
:1070700021F00103CB1A00F101000928EED3002012
:1070800052F8201011B9401C0928F9DBC0F10900A1
:107090005062DBE7002324AA1846264652F8201047
:1070A000891946EB03077B084FEA310342F8203089
:1070B00021F00103CB1A00F101000928EED30020D2
:1070C00052F8201011B9401C0928F9DBC0F1090061
:1070D00050620B98C0070FD003A8FBF7DDFC2C987B
:1070E000C007D7D02D9B17980EA924AA98422FD855
:1070F00035D3C0F1090029E04FF0000303AA184678
:10710000374652F82010C91947EB030673084FEAB7
:10711000310342F8203021F00103CB1A00F10100C5
:107120000928EED3002052F8201011B9401C09287C
:10713000F9DBC0F109005062D1E752F8203051F874
:107140002060B3420BD803D300F101000928F4D327
:1071500011460EA8FCF78CF903A919A804E0104603
:10716000FCF786F919A903A8FCF7AAF917980028D3
:107170008FD10D9808B103A815E012490C9B03AA02
:10718000486A984213D80DD3C0F1090008E052F8BC
:10719000203051F82040A34204D808D300F1010068
:1071A0000928F4D3104615F07DFE03A900E011462E
:1071B00024222846FAF76AFF0C9868620D98A862A4
:1071C0002FB0F0BD0805220008F02EBF10B58CB01E
:1071D00008A816F06DFDBDF8221009989DF8212031
:1071E000CDE904109DF8203032A040F20641CDE9EF
:1071F0000232CDE90010394B39A23FA10220FEF73F
:10720000CBFB0AA800F0F8FC044654B11422334921
:10721000103103A8FAF73AFFADF8104003A8FDF7C4
:10722000A7FF9DF828009DF82910CDE906109DF8CC
:107230002A209DF82B30CDE904329DF82C109DF8C2
:107240002D002FA240F20B43CDE90032CDE902011F
:10725000224B23A228A10220FEF79EFB33A040F27E
:107260001241CDE900101D4B1DA223A10220FEF703
:1072700093FB15F0AFFC15F083FC06F0C9FEFDF79B
:10728000CDFA14F093FC03F0DFFB3049002000F04E
:1072900061FE0446002C0AD014221049243103A8B0
:1072A000FAF7F4FEADF8104003A8FDF761FF0CB04B
:1072B00010BD0000476F6F64697820424C45205331
:1072C000444B205625642E25642E25642028636FA8
:1072D0006D6D69742025782900000000D801220016
:1072E0002E2E5C5372635C757365725C7573657288
:1072F0005F6170702E6300004E4F5F544147000085
:107300004C6F63616C20426F61726420253032588B
:107310003A253032583A253032583A253032583AE8
:10732000253032583A253032582E0000485253202A
:10733000525343532052656C6179206578616D70BA
:107340006C6520737461727465642E00DE2C0020FD
:10735000FDF506B82DE9FF410DF1280898E8F00089
:107360008DE8F000FDF5D8F904B0BDE8F0812DE915
:10737000FF410DF1280898E8F0008DE8F000FDF5D8
:10738000DDF904B0BDE8F081FDF554BCFDF5F0BCBD
:10739000FEF528B82DE9F041DFF864800646017853
:1073A00098F8010008440A2802D90420BDE8F081B9
:1073B00000242546134F05E0385D40B1641C0A2CBB
:1073C000FADB6D1C3078A842F9DC0020EEE7C5EB53
:1073D000C500821904F11000C0F30B0040F4004016
:1073E0000721521C11F0DAFF00284FF00100DDD117
:1073F000385598F80110491C88F80110641CE0E722
:10740000FC2F0020C895002038B5144604F01AFD62
:107410000949097888420DD2BE2100EB4000ADF841
:107420000010423040F400402246694611F098FEB8
:10743000002038BD032038BDFC2F00202DE9F84383
:107440000025DFF8408006462C460827ADF800707E
:1074500018F8040001280ED104F1200006EBC50243
:10746000C0F30B0040F400406946521C11F078FE56
:1074700008B96D1CEDB2641C042CE7DB35700020EC
:10748000BDE8F883083000202DE9F0470024A8B0BB
:1074900088460746A14644702646DFF8A4A035E09A
:1074A0008C20ADF8980006EB4600413040F40040D7
:1074B00003AA26A911F054FE30BB9DF80D008007E9
:1074C00022D544452DD2786804EB840100EBC10538
:1074D000DDF80E002860BDF81200A8809DF81400A9
:1074E000A8719DF81500E87110220DF1160105F143
:1074F0000800FAF7CBFD10220DF1260105F1180066
:10750000FAF7C4FD641CE4B2761CF6B29AF80000E7
:107510008642C5D387F800907C7028B00020BDE873
:10752000F0870122CDE90029064DCDF808801F2300
:107530001E222D684FF400410120A847EAE7000011
:10754000FC2F0020E001002038B5144604F07AFC3E
:107550000949097888420CD28C2100EB4000ADF833
:107560000010413040F400402246694611F0F8FD19
:1075700038BD032038BD0000FC2F00202DE9F0436A
:10758000A5B00024894607468C26194D0DF10A083E
:1075900017E004EB44004130ADF88C6040F400404B
:1075A0006A4623A911F0DCFD48B99DF80100800767
:1075B00005D5102239464046FAF7A1FD28B1641CD2
:1075C000E4B228788442E4D3C4B2287884420DD24D
:1075D00004EB44004130ADF8006040F400404A46FE
:1075E000694611F0BDFD25B0BDE8F0830320FAE740
:1075F000FC2F00202DE9F8430025DFF844800646E3
:107600002C460727ADF8007018F8040001280FD1A8
:10761000C5EBC500821904F11000C0F30B0040F463
:1076200000406946521C11F09BFD08B96D1CEDB27B
:10763000641C0A2CE6DB35700020BDE8F8830000EE
:10764000C89500202DE9FE4307463720B1FBF0F036
:10765000C4B2144DC4EBC4004FEA40082C7000269D
:107660000120CDE90006DFF840C0029420231E224D
:10767000DCF800C0C103E04707EB0800C5E9017072
:1076800005F1100120440E704E70486001F0AAFF11
:1076900030B10DF09DFA0DF0EBFA0020BDE8FE834D
:1076A0000220FBE7FC2F0020E001002010B514466B
:1076B00004F0C8FB0949097888420CD200EB40006D
:1076C000423040F400402246BE2111F067FE0028FF
:1076D00000D0012010BD032010BD0000FC2F0020B1
:1076E0002DE9F74F88B08B46044604F0ABFB4F4FB3
:1076F000DFF83CA14FF0000839784FF001098842CB
:107700000ED200EB4000413040F400408C210A9A38
:1077100011F044FE04006ED01A23CDF8009035E03D
:1077200000250AE07968C5EBC50001EB40000DF0CB
:10773000C5FB08B1EEB205E06D1C38788542F1DB7F
:10774000B868067820680390A088ADF81000A0798A
:107750008DF81200DBF80010CDF81310BBF8041000
:10776000ADF817109BF806008DF8190006EB4605DA
:1077700005F1400040F40040834603AA0E2111F0B9
:107780000DFE04000CD01B23CDF80090CDE9018440
:107790001E224FF400410120DAF80050A84740E0D3
:1077A00005F1410040F400408C210A9A11F0F6FDE9
:1077B00004000FD0CDF80090CDE901841C231E22D7
:1077C000DAF800504FF400410120A847584611F064
:1077D00073FC26E0304617F0F3FA423545F40040DA
:1077E00011F06AFC7968C6EBC60001EB40000E227E
:1077F00003A9FAF74BFC0A984078800711D50B488B
:1078000039781030FFF740FE08481D2310304FF440
:1078100000414278CDF80090CDE901821E2201207E
:10782000BAE70BB02046BDE8F08F0000FC2F002027
:10783000E001002000F6A4BC00F69ABD00F6B0BD41
:1078400010B500F00BF806F0C5F80DF017FD14F0B8
:1078500079F9BDE8104014F0D1B9000010B508491D
:1078600008480AF023F9084947F671400AF01EF962
:107870000448BDE81040054948380AF017B900002F
:10788000D18421008194020055A620006D8421003E
:1078900010B510F0E3FD10F04BFD0FF08DFC0FF074
:1078A0002FFEBDE810400FF059BC0000144810B581
:1078B000016821F004010160016841F002010160EA
:1078C000016841F001010160016821F002010160DD
:1078D000016841F004010160094902201039086083
:1078E000074940F601701C3908600120091D086035
:1078F0000002F9F517F9FFF583FA0028FBD010BD57
:10790000E0A400400AF602B810B5040009D001F066
:107910008BFE30B90448016819B120468847012020
:1079200010BD002010BD0000FC2C0020FEB5044658
:107930006C4E2088002531787278B0F5037F5ED0D8
:1079400012DCB0F5807F20D0A0F50070073820D081
:1079500001282ED004282BD16088002828D00129A6
:1079600036D0012A39D03CE0A0F500700D387BD02C
:10797000F4287DD0F5287CD0F92819D1207903B0DE
:107980000121BDE8F04000F0B9BBBDE8FE40FFF7C3
:107990001DBC608800280BD053A140F29532CDE980
:1079A00000210290594B5AA25FA10320FDF7F4FF7A
:1079B000FEBD207A0028FBD15DA04FF46771CDE9B0
:1079C0000010524B52A258A10320FDF7E5FFFEBD67
:1079D000357001200CF06EFB03E0757002200CF096
:1079E00069FB608858A140F2AE32CDE900210290D7
:1079F000464B47A24CA10320FDF7CEFFFEBD608899
:107A000078B1022907D0022AF8D17570BDE8FE408E
:107A100002200CF04FBB3570BDE8FE4001200CF099
:107A200049BB207A18B1BDE8FE40FEF7C5B84EA0AC
:107A30004FF47171CDE90010344B35A23AA1032007
:107A4000FDF7AAFF3078012808D070780128D5D139
:107A50007570BDE8FE4002200CF02CBB3570BDE80F
:107A6000FE4001200CF026BB618C04F10A0201E00B
:107A700006E01FE0606A03B0BDE8F040FDF74CB8D7
:107A8000608878B1022907D0022AB7D17570BDE8A5
:107A9000FE4002200CF00EBB3570BDE8FE40012018
:107AA0000CF008BB207903B004F10801BDE8F040F8
:107AB000FDF7EAB960880028A0D1207A38A14FF4F8
:107AC0007D72CDE900210290104B11A216A1032076
:107AD000FDF762FF217A207903B0BDE8F040FDF7A1
