:020000040020DA
:102000002059012059202000FB212000011E100032
:10201000F9212000F12120002D35200000000000D2
:10202000000000000000000000000000151E10006D
:10203000F721200000000000FD212000FF212000EA
:10204000DFF810D000F048FC00F066F800480047C8
:10205000357E210020590120014880470148004772
:10206000FD3420005D7E21000649074A0868504380
:1020700043F2390210440860400870470149086083
:1020800070470000683300206D4EC64110B5431AFA
:10209000934209D28318881803E010F8011D03F851
:1020A000011D521EF9D210BD40EA01039B0703D067
:1020B00009E008C9121F08C0042AFAD203E011F887
:1020C000013B00F8013B521EF9D210BDD2B201E033
:1020D00000F8012B491EFBD270470022F6E710B52D
:1020E00013460A4604461946FFF7F0FF204610BD86
:1020F000421C10F8011B0029FBD1801A704730B533
:1021000004460020034600E05B1C934203D2E05CDF
:10211000CD5C401BF8D030BD70B5054C054D03E0DB
:10212000206820448047241DAC42F9D170BD0000D6
:1021300050F9210054F9210030B4044696230800D8
:10214000214604D0B62330BC002200F0AEBA2046AF
:102150000021F8E70EB540F2334102910021CDE9AC
:1021600000110A460B4600F0DDFA03B000BD0EB5C3
:1021700040F2334202920022CDE90022134600F0E1
:10218000D1FA03B000BD20F00040C20DC0F316002C
:1021900040F400007F2A02DA002001467047002147
:1021A000962A03DCC2F19602D0407047963A00F0BE
:1021B00042BA70B5C1F30A5201F000450024C1F3E0
:1021C000130140F2FF3341F480119A4201DA0020FA
:1021D00070BD40F233439A42A2F2334203DC5242D2
:1021E00000F038FA00E090402C43F1D0404270BD3E
:1021F000FEE708F0F5BAFEE7FEE7FEE7FEE7FEE7DA
:1022000058585247010000003253000000202000BF
:10221000002020008BEB924700010000000000002E
:1022200000000000000000000000000000000000AE
:10223000000000000000000000000000000000009E
:102240002DE9FE4F804681EA0300C00F0C46009046
:1022500021F0004123F00045B8EB0200A94105D26E
:102260004046214690461C460B46024623F000405D
:10227000104347D0270DC7F30A00C3F30A51029059
:10228000401A019040286BDAC3F3130040F4801B1E
:102290000098924620B10023D2EB030A63EB0B0BAC
:1022A00001985946C0F14002504600F0C4F9064674
:1022B0000D4650465946019A00F0DCF910EB080033
:1022C0006141002487EA115284EAE7731A4340D03F
:1022D000009A62B3019A012A4FEA075215DC001BEB
:1022E00061EB02014FF0004202EA0752CDE90042E1
:1022F000001C41F5801132462B4600F013FA03B062
:10230000BDE8F08F40462146F9E7001B61EB020172
:10231000001C41F5801300185B412018A2F500173E
:1023200047EB030140EAD570B6196D4111E06D0825
:102330004FEA360645EAC0754FEA0752001B61EBCB
:102340000201001C41F5801149084FEA30000019D4
:10235000514132462B4603B0BDE8F04F00F0D3B9EF
:102360000098012240000023D0EB020263EBE073EF
:10237000009821464FEAE074B8EB000061EB0401DD
:10238000E9E783F000435BE781F0004158E72DE97E
:10239000FE4F81EA030404F0004421F00041009460
:1023A0004FF0000B23F0004350EA01045ED052EAE4
:1023B00003045BD0C3F30A54C1F30A552C44A4F2BE
:1023C000F3340194A0FB0254C1F3130141F48011D2
:1023D000C3F3130343F4801301FB024400FB034ED9
:1023E000840A970A44EA815447EA8357A4FB0768A2
:1023F00002958D0A05FB07854FEA932C04FB0C54CC
:102400002705029D4FEA065847EA1637B5EB08053F
:102410006EEB070C870E920E47EA811742EA831291
:10242000A7FB0201B6EB0B0164EB00042B0D43EAA2
:102430000C335E1844EB1C50DA465146E7FB0201B0
:10244000C5F313044FEA0B3343EA14534FEA043243
:10245000019C43EA0603A4F10C040294009CCDE91C
:1024600000B400F05FF903B0BDE8F08F0020014632
:10247000F9E72DE9F04D81EA030404F0004B21F067
:10248000004514464FF0000A23F0004150EA0502CF
:1024900020D054EA01021DD0C5F30A570246C5F305
:1024A0001303C1F31300C1F30A5640F4801543F43B
:1024B0008013A7EB0608101BD64608F2FD3873EB15
:1024C000050002D308F1010801E092185B41B8F160
:1024D000000F03DA00200146BDE8F08D00204FF424
:1024E0008011064684460EE0171B73EB050705D3E3
:1024F000121B63EB050306434CEA010C49084FEA43
:10250000300092185B4150EA0107EDD152EA030016
:1025100012D082EA040083EA0501084305D0101BAB
:10252000AB4106D20122002306E000224FF0004317
:1025300002E06FF0010253101AEB06004CEB085159
:1025400010EB0A0041EB0B01BDE8F04D00F0DBB8E9
:10255000C1F30A5210B5C1F3130140F2FF3341F445
:1025600080119A4201DA002010BD40F233439A42B2
:10257000A2F2334203DC524200F06CF810BD9040EE
:1025800010BD00F0004230F000400AD0C10D01F54E
:102590006071C0F3160042EA0151C20840071143BE
:1025A000704700200146704730B50B4601460020B9
:1025B0002022012409E021FA02F59D4205D303FA05
:1025C00002F5491B04FA02F52844151EA2F1010286
:1025D000F1DC30BD2DE9F05F0546002092469B46B8
:1025E00088460646814640241BE028464146474629
:1025F000224600F02FF853465A46C01A914110D394
:1026000011461846224600F016F82D1A67EB01080D
:102610004F4622460120002100F00DF817EB00097B
:102620004E41201EA4F10104DFDC484631462A4613
:102630004346BDE8F09F202A04DB203A00FA02F16D
:10264000002070479140C2F1200320FA03F31943A0
:1026500090407047202A04DB203A21FA02F0002142
:10266000704721FA02F3D040C2F1200291400843A2
:1026700019467047202A06DBCB17203A41FA02F0B0
:1026800043EAE07306E041FA02F3D040C2F12002CF
:1026900091400843194670470029A8BF7047401C65
:1026A000490008BF20F00100704710B4B0FA80FC68
:1026B00000FA0CF050EA010404BF10BC704749B1A5
:1026C000CCF1200421FA04F411FA0CF118BF012115
:1026D00021430843A3EB0C01CB1D4FEA00614FEAF5
:1026E000102042BF002010BC704700EBC3501044C4
:1026F0000029A4BF10BC7047401C490008BF20F04F
:10270000010010BC704710B5141E73F1000408DA04
:10271000401C41F1000192185B411A4301D120F0A5
:10272000010010BD2DE9F04D92469B4611B1B1FA62
:1027300081F202E0B0FA80F220329046FFF77BFF90
:1027400004460F4640EA0A0041EA0B0153465A4646
:10275000084313D0114653EA010019D0C8F14002D2
:102760005046FFF777FF05460E465046594642460B
:10277000FFF761FF084305D0012004E020463946F9
:10278000BDE8F08D0020054346EAE0762C43374350
:102790000A986305E40AA0EB08000022FD0A44EA57
:1027A00047540A3002D500200146E9E70105101917
:1027B0006941DDE9084500196941BDE8F04DA2E72E
:1027C0002DE9F041054621F000400C46284309D090
:1027D000C4F30A5040F23341884205DD28462146C1
:1027E000BDE8F0812846FBE740F2FE31884210DC6C
:1027F0000CDB4FEA043040EA155050EA053105D0B1
:10280000104804F0004101430020E9E700200146A0
:10281000E6E7A0F233404642C6F140022846214690
:10282000FFF709FF07468846284621463246FFF74C
:1028300011FF43463A46FFF766FF3246BDE8F041D6
:10284000FFF7F9BE0000F03FC1F30A52C1F31301D4
:1028500040F2FF3341F480119A4202DA002001462F
:10286000704740F233439A42A2F2334202DC5242B2
:10287000FFF7F0BEFFF7DFBE30B5041E71F10004B4
:1028800004DB4FF00044404264EB0101141E73F17D
:10289000000405DB1C464FF00043524263EB040387
:1028A0008B4208BF824230BD30B5041E71F1000476
:1028B00004DB4FF00044404264EB0101141E73F14D
:1028C000000405DB1C464FF00043524263EB040357
:1028D000994208BF904230BD064C074D06E0E068C3
:1028E00040F0010394E8070098471034AC42F6D357
:1028F000FFF7AAFB10F9210050F9210070B58C18E0
:1029000010F8015B15F0070301D110F8013B2A1103
:1029100006D110F8012B03E010F8016B01F8016BF0
:102920005B1EF9D12B0705D40023521E0DD401F8EC
:10293000013BFAE710F8013BCB1A921C03E013F8B5
:10294000015B01F8015B521EF9D5A142D8D30020EA
:1029500070BDF0B5002508222B4650F8227051F8C2
:102960002260BE1943EB030476195C4104F00104B4
:102970001C4301D0012500E0002540F822600446F8
:10298000521EEAD5002150F8212012B9491C09290C
:10299000F9DBC1F109016162F0BDF0B50024082343
:1029A000254650F8236051F82370F61945EB0507CA
:1029B00036196F4107F001042C4301D0012400E0D7
:1029C000002442F823605B1EEBD5002052F8201053
:1029D00011B9401C0928F9DBC0F10901C2E9091548
:1029E000F0BD000010B51446FFF7D7FFA06A20B174
:1029F0002046BDE8104000F01DB80D4B606A596AD2
:102A000088420ED813D3C0F1090108E053F8212001
:102A100054F8210082420AD803D301F101010929A7
:102A2000F4D32046BDE81040014900F0E1BC10BDE0
:102A300064EE210010B58CB0044601466A46074892
:102A400000F036FC694624222046FFF71FFB099858
:102A500060620020A0620CB010BD000064EE210096
:102A60002DE9F0410446DFF808C1806A8CB04FF0D0
:102A7000000848B16246606A536A2146984250D8BD
:102A800027D3C0F1090022E04FF000014FF0080009
:102A9000424654F820505CF82030ED1842EB020317
:102AA0006D18534103F00101114301D0012100E0F1
:102AB000002144F82050401EEBD518E052F8203099
:102AC00051F82050AB4204D82BD300F10100092863
:102AD000F4D36A46264800F0EBFB694625462422DB
:102AE0002046FFF7D3FA09986862C4F828800022CC
:102AF0001046454654F82010491945EB02035A0880
:102B00004FEA310244F8202021F001028A1A00F134
:102B1000010023460928EDD3002054F8201001BB02
:102B20001CE00023082241465CF8225054F82200A1
:102B3000EE1841EB0107861B71EB07062B4406D20A
:102B4000C01A001C44F822004FF0010303E0C31A2E
:102B500044F822300023521EE6D5C8E7401C09285D
:102B6000DBDBC0F1090058620CB0BDE8F081000069
:102B700064EE210010B5122000F04BFD09F078F949
:102B800004490446896A88472046BDE8104009F098
:102B900031B900000030002010B504F639FB10B147
:102BA00007F032FB10BDBDE810402BF61FBE000041
:102BB0002DE9F04FADF5317D814600F12C0B5830F9
:102BC0008890859001F12C008490CDE989012C300A
:102BD0000E4687908690154624211046FFF77DFA11
:102BE000002405F12C076C62B84624213846AC62FB
:102BF000FFF773FA7C62BC622C3724213846FFF75A
:102C00006CFA7C6237A82421BC62FFF766FA409414
:102C10000BA824214194FFF760FA149442A82421C0
:102C20001594FFF75AFA4B9416A824214C94FFF7F9
:102C300054FA1F9421A824212094FFF74EFA2A94D5
:102C4000684624212B94FFF748FA09944DA82421C3
:102C50000A94FFF742FA569458A824215794FFF794
:102C60003CFA619463A824216294FFF736FA6C94CD
:102C70002CA824216D94FFF730FA359479A82421EB
:102C80003694FFF72AFA82946EA824218394FFF7E2
:102C900024FA77944846A149789415F099FA9F4C04
:102CA000010004F12C0A04F1580409D15146584698
:102CB00015F08EFA20B92146889815F089FA28B1C6
:102CC0003046964915F084FA78B339E03046934996
:102CD00015F07EFA50B95146849815F079FA28B962
:102CE0002146879815F074FA00287DD024223146B9
:102CF0002846FFF7CBF9706A6862B06AA862849DC3
:102D00004446242229464046FFF7C0F9686A6062BB
:102D1000A86AA062879C242221463846FFF7B6F9AC
:102D2000606A7862A06AB862F5E0FFE7514684986D
:102D300015F04EFA20B92146879815F049FA28B1C6
:102D40004946304615F044FAB8B122E04C462422F8
:102D500049462846FFF79AF9606A6862A06AA86245
:102D60005D464446242259464046FFF78FF9686A7B
:102D70006062A86AA062889CCDE75946849815F0E5
:102D800027FA002830D1306D012802D8F06C0028D5
:102D9000ABD037AA8599899800F0CEF90BAA58468E
:102DA000869900F0C9F942AA85998A9800F0C4F979
:102DB00016AA4846869900F0BFF916A942A815F050
:102DC00007FA00287ED021AA0BA937A800F09AFAAA
:102DD0006A4616A942A800F095FADDE9850158AACD
:102DE00000F0AAF9A5A800E07BE02421FFF775F91F
:102DF0000024AE9484A82421AF94FFF76EF98D943B
:102E00008FA824218E94FFF768F998949AA824211A
:102E10009994FFF762F96946A39463AA0846A494BB
:102E200000F08AF92CAA694663A800F085F921A967
:102E300079AA084600F080F96EAA16A963A800F0E6
:102E40007BF99AAA02216EA800F058F984AA58A921
:102E500079A800F071F98FAA2CA984A800F052FA81
:102E60004DAA9AA98FA800F04DFA2A464DA96846A6
:102E700000F062F984A82421FFF72FF98D948FA820
:102E800024218E94FFF729F998949AA824219994E3
:102E9000FFF723F9A39484AA4DA96EA8A49400F087
:102EA00031FA8FAA84A921A800F046F99AAA0BA9A1
:102EB0002CA800F041F942469AA98FA800F022FA06
:102EC0003A4600E008E058A92CA800F035F90120A6
:102ED0000DF5317DBDE8F08F0BA937A815F078F915
:102EE000A8B10E4E242231462846FFF7CFF8706A6B
:102EF0006862B06AA862564645462422514640465A
:102F0000FFF7C4F8706A6862B06AA86203E72946EE
:102F1000484600F005F80020DAE70000E0EE210066
:102F20002DE9F04F0C465B4E016D06F12C0858362A
:102F3000F9B0834600F12C0500F1580A04F12C0980
:102F400004F15807012902D8296A00297ED0514985
:102F500015F03EF950B94146284615F039F928B91F
:102F60003146504615F034F9002873D037AA51463F
:102F70005846FFF737FD42AA5146584600F0C2F9BD
:102F80004DAA42A937A800F0D7F80BAA03214DA8F3
:102F900000F0B4F86A465146284600F0CDF837AA4A
:102FA0006946284600F0C8F816AA37A9584600F026
:102FB000C3F80BA937AA084600F0BEF842AA0821B8
:102FC00016A800F09BF821AA42A937A800F09AF9A8
:102FD00037AA694621A800F0AFF82246022137A897
:102FE00000F08CF8294637AA084600F0A5F8694693
:102FF0002CAA084600F0A0F842AA2CA937A800F095
:103000009BF84DAA082142A800F078F858AA04219C
:1030100016A800F073F863AA21A958A800F072F965
:103020006EAA63A90BA800F087F84A464DA96EA8BE
:1030300000F068F937AA69462CA800F07DF83A46F6
:10304000082137A800F05AF8002000E002E079B02B
:10305000BDE8F08F0F4D242229462046FFF716F8D1
:10306000686A6062A86AA06245464C4624224146CE
:103070004846FFF70BF8686A6062A86AA0622422DB
:1030800031463846FFF702F8706A7862B06AB86273
:10309000DAE70000E0EE21002DE9F043154F044689
:1030A000154EF87D10258BB091468846FF2806D036
:1030B000716EC20005FA02F08143014371666946F0
:1030C00004F1580003F0EAFEF87DFF2804D0716E89
:1030D000C0008540A943716642466946204600F01B
:1030E0002BF84A46694604F12C0000F025F80BB095
:1030F000BDE8F0834007002000000E40F0B400253A
:1031000008232F4650F823602C463D46E6FB014538
:1031100042F823405B1EF5D5002152F8213013B947
:10312000491C0929F9DBC1F109035362806A9062E5
:10313000F0BC104618F02EB92DE9F74FA0B082462A
:103140000C46684683464821FEF7C7FF4FF000094A
:10315000CDF848900821CDF84C90002208204D462B
:1031600046180BEB860354F820805F685AF821C09C
:10317000BE1845EB0502ECFB08625E60401EEFD511
:10318000491EEAD56946002051F8202012B9401C9A
:103190001228F9DBC0F112008864DAF82800A16A6D
:1031A000884201D0012000E0002000246D461390E9
:1031B00000E0641C55F8240008B9092CF9D31398D1
:1031C0002D491E9012988B6C2A46984215D818D318
:1031D000C0F112000DE051F8203052F82060B342E7
:1031E00006D0B34201D2012000E0002028B908E057
:1031F000401C1228EFDB00E0641C55F82400002876
:10320000FAD005EB8401242214A8FEF73FFF14A98D
:10321000002051F8202012B9401C0928F9DBC0F128
:103220000900486204F109001228084615D218F076
:10323000B1F814A82022011DFEF728FF05EB840039
:1032400014A9406A1C900020641C51F82020002A18
:10325000E5D1401C0928F8DBE1E718F09BF8229C37
:1032600014A924222046FEF711FF1D9860621E98C3
:10327000A06223B0BDE8F08F90EE210010B543426C
:10328000421E0A60C1E901304FF0000001F1100C4C
:103290004FF0FF34C8608CE815008862C1E907432D
:1032A00001D0092000E00820486210BD0FF0D6BD13
:1032B000F0B500240823274651F8236050F8235026
:1032C00016EB040C47EB070EB5EB0C0C77EB0E0C72
:1032D000344406D22C1B241C42F823404FF0010436
:1032E00003E02D1B42F8235000245B1EE4D5002090
:1032F00052F8201011B9401C0928F9DBC0F109006F
:103300005062F0BD2DE9F0410F460346816A012568
:10331000B86A1446002641B190B3786A596A884267
:1033200044D849D3C0F109003EE020B139461846DF
:10333000FFF733FB16E0586A796A88420ED81BD330
:10334000C0F1090008E057F8202053F820108A4205
:1033500012D803D300F101000928F4D322463946DC
:10336000184626E02149A662606A4A6A904234D82B
:1033700039D3C0F109002EE02246194638461EE036
:10338000FFE739461846FFF708FB2046A562BDE86F
:10339000F041FFF74FBB53F8202057F820108A4226
:1033A0000AD803D300F101000928F4D322461946B4
:1033B0003846FFF77DFFD5E7224639461846FFF726
:1033C00077FFE2E751F8203054F8202093420AD8E2
:1033D00003D300F101000928F4D32046BDE8F041F1
:1033E000024900F005B8BDE8F081000064EE21005C
:1033F000F0B5002308221E4651F8225050F8224012
:10340000EF1846EB060CE71B76EB0C072B4406D2B5
:10341000E31A1B1C40F822304FF0010303E0E41ACA
:1034200040F822400023521EE6D5002150F821200A
:1034300012B9491C0929F9DBC1F109014162F0BD4A
:1034400070B50B460446816A0025986A8CB0012647
:1034500041B140B1586A616A884239D846D3C0F157
:10346000090033E030B10CB02046BDE87040194689
:10347000FFF76FBA606A596A884237D80ED3C0F135
:10348000090008E053F8202054F820108A4205D89B
:103490002CD300F101000928F4D327E06A46214625
:1034A0001846FFF705FF694624222046FEF7EEFD89
:1034B0000998C4E909060CB070BD54F8202053F8EF
:1034C00020108A4212D803D300F101000928F4D356
:1034D0006A4621461846FFF7EBFE6946242220463D
:1034E000FEF7D4FD0998C4E90905E4E70CB02046CD
:1034F000BDE870401946FFF77BBF00000248016835
:1035000041F470010160704788ED00E002480068F6
:10351000001D0FF0BFBF0000D02C00200248406803
:10352000001D0FF0B7BF0000D02C0020FEE7000008
:103530000FB4054B10B503A9044A029800F0E0FC53
:1035400010BC5DF814FB0000D1BE2000002D00204F
:103550000FB41CB50246002007AC00290BD0491E51
:10356000CDE90021054B6A462146069800F0C8FCCB
:10357000009A002111701CBC5DF814FB2F4620003E
:103580000FB4084B10B504A902AA039800F0B8FCC8
:10359000044602A9002001F055F8204610BC5DF851
:1035A00014FB0000454620007CB5044600201D4663
:1035B000164600290BD0491ECDE90041044B6A464E
:1035C0002946304600F09CFC009A002111707CBD19
:1035D0002F46200037B514460846064B6A4621465A
:1035E00000F08EFC04466946002001F02BF82046CE
:1035F0003EBD000045462000002809DB00F01F0208
:10360000012191404009800000F1E020C0F88012C3
:103610007047002809DB00F01F020121914040099A
:10362000800000F1E020C0F880127047002809DB1C
:1036300000F01F02012191404009800000F1E020CC
:10364000C0F800117047002809DB00F01F020121BB
:1036500091404009800000F1E020C0F8001170475F
:1036600000280FDB4109890001F1E021D1F80011A8
:1036700000F01F0201209040014201D0012070475C
:103680000020704700207047002804DB00F1E02094
:1036900090F80004704700F00F0000F1E02090F86F
:1036A000140D7047002804DB00F1E02090F80004BE
:1036B000704700F00F0000F1E02090F8140D704703
:1036C000002804DB00F1E02090F80004704700F0CF
:1036D0000F0000F1E02090F8140D7047002804DB83
:1036E00000F1E02090F80004704700F00F0000F1B6
:1036F000E02090F8140D7047002804DB00F1E02072
:1037000090F80004704700F00F0000F1E02090F8FE
:10371000140D7047002804DB00F1E02090F800044D
:10372000704700F00F0000F1E02090F8140D704792
:10373000002804DB00F1E02090F80004704700F05E
:103740000F0000F1E02090F8140D7047002804DB12
:1037500000F1E02090F80004704700F00F0000F145
:10376000E02090F8140D704702480068C0F3022072
:10377000704700000CED00E002480068C0F3022032
:10378000704700000CED00E002480068C0F3022022
:10379000704700000CED00E002480068C0F3022012
:1037A000704700000CED00E002480068C0F3022002
:1037B000704700000CED00E002480068C0F30220F2
:1037C000704700000CED00E002480068C0F30220E2
:1037D000704700000CED00E0EFF310807047000030
:1037E0002DE9F0412DED020B9FED3D0B2DED028BF0
:1037F0009FED3D8BDDE90254C4F30A50A0F2FF3681
:10380000142E37DA002E18DA53EC102B9DED020B34
:1038100051EC100BFEF714FD53EC182BFFF744F896
:1038200057D2002CBCBF4FF00044002551DB54EAB6
:10383000050018BF2E4C1BD14BE02E4820FA06F78E
:1038400004EA070028431FD053EC102B9DED020B18
:1038500051EC100BFEF7F4FC53EC182BFFF724F897
:1038600037D2002C03DD4FF48010F0400444BC43F9
:1038700000252EE0332E07DCA6F114004FF0FF31B7
:1038800021FA00F73D4206D19DED020BBDEC028B03
:1038900002B0BDE8F08153EC102B9DED020B51EC12
:1038A000100BFEF771FD53EC182BFEF7FDFF10D245
:1038B000002C0DDD142E08BF641C09D0C6F13400A5
:1038C000012101FA00F02844A84238BF641C0546D3
:1038D000BD43CDE902549DED020BD7E70000000087
:1038E0009C7500883CE4377E00000000000000006A
:1038F0000000F03FFFFF0F0010B52DED020B2DED86
:10390000088B84B09DED0C0B51EC100BFEF758FFAB
:1039100041EC180B9DED0C0B53EC182B51EC100BDC
:10392000FEF72FFD41EC190B0D989FED290B10F0C0
:10393000004F53EC102B51EC190B9FED21AB9FED79
:1039400022BB0ED0FEF798FF0ED953EC1B2B51EC87
:10395000190BFEF7A9FF1CD214E000BF41EC180BB5
:1039600017E0FEF789FF06D253EC1A2B51EC180B27
:10397000FEF707FDF2E753EC1B2B51EC190BFEF79A
:1039800093FF06D853EC1A2B51EC180BFEF758FC9A
:10399000E4E78DED028B9DED0C0B18EE901A10EE06
:1039A000900A8DED000B61F31E0003909DED020B5C
:1039B00004B0BDEC088B02B010BD00000000000098
:1039C000000000000000F03F000000000000E03FA9
:1039D000000000000000E0BF02E008C8121F08C19C
:1039E000002AFAD170477047002001E001C1121F80
:1039F000002AFBD1704780F3108870472DE9F74FFC
:103A000007460298DFF86CA1DFF86C814FEA500B93
:103A10005A48019D5C465646CAF80000D8F8042072
:103A20003F2060F30502C8F80420DAF8000020F413
:103A3000700040EA0750CAF80000DAF8000020F4ED
:103A4000702040EA0740CAF800000D2F02D00E2F68
:103A500004D007E0306840F4004002E0306840F4F1
:103A600080403060306840F400503060306820F0B2
:103A700060503060306820F00F0040F0030030608C
:103A8000002000F0AFF8012872D13168B24641F051
:103A9000804131600020424609E0D8F8083043F404
:103AA0008033C8F80830811C00F1010005D091680E
:103AB0009046C1F300210029EFD1072000F092F8D1
:103AC000012855D142E000264FF47A7924E04E4592
:103AD0001ED9DAF8001021F08041CAF80010DAF897
:103AE000001041F00041CAF80010DAF8001021F08F
:103AF0000041CAF80010002000F074F8012837D106
:103B00001F484169491C41610520FDF50BF87FE71D
:103B10000120FDF507F8761CD8F80800C0F3002056
:103B20000028D4D0D8F80800434600F07F02A24213
:103B300000D92246002006E0196825F8021B090C6E
:103B400025F8021B401C9042F6D3A41A002CBAD1CF
:103B50000298C00707D040468168C1F300210029C0
:103B6000FAD000682880BDE8FE4F002000F03AB887
:103B7000BDE8FE8F00A8004000E000400A070807EB
:103B8000843000202DE9F0411249044600200860ED
:103B9000104980390860104D686A104E00F001012C
:103BA000494201403062C8050DD440F20117A869AE
:103BB000B84208D024B10120641EFCF5B3FFF6E73B
:103BC0000020BDE8F08106480068B0616868F061D7
:103BD0000120F6E794581C4200E0004084300020A9
:103BE00000A800402DE9F041104F0546F868C0F3E9
:103BF0000240A84217D0F86820F007002843F86078
:103C000000244FF6FF76F868C0F30240A84205D0C2
:103C10000120FCF587FF641CB442F4D3B44202D106
:103C20000020BDE8F0810120FBE7000000E000403B
:103C30002DE9FF5F82B00021DDE90430020DDDF8DF
:103C400040B0034318D044F61050A2F2FF32424372
:103C50001514119801281FD0A5EB0B00401C5FEA3A
:103C6000000A4FF000064E4FDFF83891B04650463C
:103C700015D5CAF1000413E0119801244AA30128C4
:103C800001D16FEA0B010298119AC0E90031C0E935
:103C9000024206B0BDE8F09FCBF10000DFE704462A
:103CA0000021404A491842EB0450CDE9001012E0CF
:103CB000E00707D032463B4640464946FEF767FBE1
:103CC0008046894632463B4610461946FEF75FFB62
:103CD00006460F466410002CEAD1DDE90401DDE957
:103CE0000023BAF1000F06DAFEF751FB42464B46BD
:103CF000FEF74DFB05E0FEF7BCFB42464B46FEF7E8
:103D0000B8FB04460E460022284BFEF7CDFD03D833
:103D10004FF0FF30014607E00022254B2046314698
:103D2000FEF78EFAFEF790FD102409E0002C0ADB66
:103D30000A220023FEF74EFC039B30321A55641E04
:103D400050EA0102F2D1641C039AC4F11103144435
:103D5000119A012A03D0012208430DD10AE0084339
:103D600004D000204FF0110B119072E7A3EB0B056C
:103D70006D1E0DE05B4504DD4FF0000205F101050D
:103D800004E003DA4FF00002A5F10105002AECD0AF
:103D900002981199C0E90231C0E9004579E70000B5
:103DA000000014400000F03F300000000000F0432D
:103DB0000000E03FF0B50D462DED068B89B00646BC
:103DC0009FED439B20216846FEF787F9B0EE498AB4
:103DD000F0EE698A102269463046FFF70FFE002494
:103DE0006F4607EB4400008AFEF7B4F953EC182B3A
:103DF000FEF726FA641C41EC180BE4B2082CF0D351
:103E000051EC180B9FED340B53EC102BFEF7BFFA5F
:103E100041EC180B0D2E02D00E2E32D04FE06888E8
:103E2000FEF798F99FED2E1B53EC112BFEF721FBAB
:103E30009FED2D0B41EC190B51EC100B81F0004163
:103E400041EC1A0BA888FEF785F953EC1A2BFEF704
:103E50009EFA41EC1A0B2888FEF77CF953EC182BDC
:103E6000FEF792FA53EC1A2BFEF703FB9FED201B93
:103E700053EC112BFEF7FDFA53EC192BFEF7E0F98A
:103E80001BE09FED1D0B51EC100B81F0004141EC4C
:103E90001A0BA888FEF75EF941EC190BE888FEF7CB
:103EA00059F953EC182BFEF76FFA53EC192BFEF768
:103EB000E0FA53EC1A2BFEF76AFA41EC190B09B041
:103EC000B0EE490AF0EE690ABDEC068BF0BD0000C9
:103ED0000000000000000000000000000000C03FE3
:103EE00000000000000059400000000000000040F9
:103EF000DE718A8EE4F25FBFB76DDBB66DDB0E401C
:103F00002DE9FF4F95B09B468946064600250FE2F6
:103F1000252877D100242746F84A0121059400E09E
:103F2000044316F8013F203B01FA03F01042F7D199
:103F300030782A2811D06FF02F033078A0F13002AA
:103F4000092A16D8059A44F0020402EB820203EB18
:103F500042021044761C0590EFE759F8042B0592B5
:103F6000002A03DA504244F40054059044F002045D
:103F7000761C30782E2816D116F8010F44F0040470
:103F80002A280DD06FF02F023078A0F13003092BD2
:103F900009D807EB870302EB4303C718761CF3E746
:103FA00059F8047B761C30786C280FD006DC4C283E
:103FB00017D068280DD06A2814D104E0742810D0D6
:103FC0007A280FD10DE044F400140AE044F4801480
:103FD00001E044F440147278824202D104F5801466
:103FE000761C761C307866280BD013DC582877D0E6
:103FF00009DC002875D04528F6D04628F4D047289B
:104000001AD19DE118E0632835D0642879D065285D
:1040100012D195E1702873D008DC6728F1D06928A7
:104020006FD06E280DD06F2806D1B5E073282CD044
:10403000752875D0782874D05A46179990476D1C0A
:1040400075E1C4F30250022809D003280DD0D9F835
:10405000001004280DD00D6009F1040967E1D9F8BA
:104060000010EA17C1E90052F6E7D9F800100D80F8
:10407000F2E70D70F0E719F8041B8DF8001000202E
:104080008DF80100EA46012003E059F804AB4FF037
:10409000FF3061074FF0000102D40DE008F101018B
:1040A0008846B9420FDA8045F8DB1AF80810002973
:1040B000F4D108E008F1010188468142FADB1AF8E0
:1040C00008100029F6D105985B46A0EB08072146A9
:1040D0003846179A00F094FA284400EB080507E0E8
:1040E0004DE029E10DE01AF8010B5A461799904767
:1040F000B8F10108F7D25B4621463846179A13E11A
:1041000042E00A220092C4F302524FF0000A022A4F
:1041100008D059F804CB032A4FEAEC710AD00DE01D
:1041200029E02AE009F1070121F00702F2E802C1C3
:10413000914609E00FFA8CFC4FEAEC71042A03D196
:104140004FFA8CFC4FEAEC71002907DA0A4600218D
:10415000DCF1000C61EB02012D2202E0220504D506
:104160002B228DF80420012203E0E20701D0202257
:10417000F7E7904659E00A2102E010220DE01021F5
:104180004FF0000A00910BE010224FF0000A44F0BB
:1041900004040827009203E008224FF0000A00926E
:1041A000C4F30252022A05D059F804CB0021032A95
:1041B00008D009E009F1070121F00702F2E802C185
:1041C000914605E01FFA8CFC042A01D10CF0FF0C8B
:1041D0004FF00008220728D5702806D0009B83F0F6
:1041E000100353EA0A0305D00EE040228DF80420A4
:1041F000012208E05CEA010206D030228DF804209A
:104200008DF8050002229046009B83F0080353EAD4
:104210000A030AD15CEA010201D1620705D5302206
:104220008DF804204FF001087F1E582804D034A0D8
:1042300003900EA802900DE036A0F9E753466046C1
:10424000009AFEF7C7F984460398825C0298401EE4
:10425000029002705CEA0100F0D1029806A9081AE7
:1042600000F1200A600702D524F4803400E0012721
:10427000574502DDA7EB0A0000E0002000EB0A0131
:10428000009005984144401A0590E00306D45B462F
:104290002146179A059800F0B3F90544002706E077
:1042A00001A85A46C05D179990476D1C7F1C474571
:1042B000F6DBE0030CD55B462146179A059800F023
:1042C0009FF9054404E030205A46179990476D1C29
:1042D0000099481E00900029F5DC08E00298029938
:1042E0005A460078491C0291179990476D1CBAF103
:1042F0000001AAF1010AF1DC65E1000009280100D2
:10430000303132333435363738396162636465664B
:10431000000000003031323334353637383941420D
:10432000434445460000000000F058F90544761C5F
:10433000307800287FF4ECAD19B02846BDE8F08F46
:10434000620700D4062709F1070222F0070CFCE8F7
:104350000223E14603F000485FEA080C02D00FF2A6
:10436000702C0DE05FEA045C02D50FF2682C07E0C8
:104370005FEAC47C02D00FF2602C01E0AFF2700C57
:104380004FF0FF3823F00043CDF850C065280CD023
:1043900006DC452809D046281DD047283DD13DE000
:1043A000662818D067287ED138E00021112F01DB64
:1043B000112000E0781CCDE9000106A90EA8FFF746
:1043C00037FCDDE90F010E9A03910021009207F1FD
:1043D000010A04914DE04FF000400097CDE9011033
:1043E00006A90EA8FFF724FCDDE90F0203920E9B3D
:1043F00011990022DDF80CA00093049211B9791CE8
:1044000000EB010AB7EB0A0004D4C0F1FF3007F15A
:10441000010A0490AAEB0700019044E0012F00DAA2
:1044200001270021112F01DD112000E03846CDE9E0
:10443000000106A90EA8FFF7FBFBDDE90F010E9AAC
:104440000391002104910092BA4621070CD40399EC
:10445000514500DA8A46BAF1010F05DD009AAAF14A
:104460000101515C302908D0B84202DA10F1040F82
:1044700006DA0121CDE9011015E0AAF10101E9E711
:10448000002805DC049901440491AAEB000102E034
:10449000411C514500DD8A460499401A401C019098
:1044A0004FF000400290200704D40198504501DBF2
:1044B000CDF8048000208DF84F0002980DF14F07D1
:1044C000B0F1004F25D02B200E9002984FF002083B
:1044D00000280CDA404202902D200E9007E00A21BD
:1044E0000298FEF761F83031029007F8011DB8F12B
:1044F0000001A8F10108F2DC02980028EFD1791E32
:104500000E980870307800F0200040F0450007F861
:10451000020D12A8C01B00F107081498007800B122
:10452000012000EB0A01019801EBE071059841447C
:10453000401A401E0590E00306D45B462146179AB8
:10454000059800F05DF805441498007818B15A46B3
:10455000179990476D1CE00324D55B462146179AB6
:10456000059800F04DF805441CE00498002807DB8E
:10457000DDE90301884203DD0098405C179901E002
:10458000179930205A469047049805F10105401CC0
:1045900004900198401E019004D12E205A4617998C
:1045A00090476D1CBAF10001AAF1010ADDDC05E0BB
:1045B00017F8010B5A46179990476D1CB8F1000186
:1045C000A8F10108F4DC5B462146179A0598ABE692
:1045D0002D0000002B000000200000002DE9F0411C
:1045E000044600251E461746880404D405E03946D3
:1045F0002020B0476D1C641EF9D52846BDE8F08127
:104600002DE9F041044600251E469046C80301D519
:10461000302700E02027880404D505E041463846CD
:10462000B0476D1C641EF9D52846BDE8F0814A6884
:10463000002A06D00A68531C0B6010704868401EA0
:10464000486070470A68531C0B6010707047000088
:1046500070B504466FF01305552811DA412C0DDAB8
:104660002D2C06DA14F10A0F01DB032009E0AC421D
:1046700001DB042005E014F11E0F01DB052000E042
:10468000062011F05FFD17F04DFBA8B11648006839
:10469000C0F3805080B904F114011448142902D2E7
:1046A00040F21D6106E0AC4202DA40F2FA5101E04C
:1046B0004FF4C8614161C16117F044FB002811D07B
:1046C000FDF638FD3C2C06DD032802D06FF00C000F
:1046D00004E00D2002E0322C04DA1C20BDE870401A
:1046E0000FF0A0BD70BD000014A80040F0D3002062
:1046F00010B51A4940F21A444FF4B9720B694FF4DD
:1047000096710C3BA3420FD90424BE2801DC0C2473
:104710001BE0DC2801DC082417E0FA280EDD8842C3
:1047200010DD904211DD0FE0BE2801DC0B240CE00F
:10473000DC2801DC072408E0FA2801DC062404E078
:10474000884201DC052400E00324204611F00EFD20
:104750002046BDE8104011F0EBBC0000F0D3002073
:104760000648016841F00101016006480449016002
:1047700005494160054981607047000020320020F2
:104780006DC6200028D70020E9C42000E1BE20002B
:104790002DE9F0411D469046DDE906230F46064609
:1047A0000D498020FFF55DF8044680F83C5020223A
:1047B00039463D30FDF76AFC2022314604F15D00A8
:1047C000FDF764FC04F13C0241462046BDE8F0419F
:1047D0004123FFF5CBB90000DD472000FFF526B9E6
:1047E0002DE9F0471D46DDE90973924689460646E4
:1047F00000221F49A820DDF82080FFF532F80021B3
:1048000080F8A510C763044680F85010012084F892
:104810005100D8F80010C4F85210B8F80410A4F8E9
:10482000561098F8060084F858002868C4F8590013
:10483000A888A4F85D00A87984F85F00102251468A
:1048400004F16000FDF722FC1022494604F17000DB
:10485000FDF71CFC0748324606490068C4F8800092
:104860002046BDE8F0472023091DFFF57FB9000071
:1048700079482000C4ED21002DE9F0478A4604461E
:104880000027FFF5D3F850B394F8A5004FF00109C5
:1048900004F1500804F1400630B104F18505012807
:1048A0000DD0022828D11BE0102251463046FDF7DA
:1048B000EDFB002084F8840084F8A59009E0102224
:1048C00051462846FDF7E2FB84F88490022084F8E4
:1048D000A5003523424631462046FFF547F90BE057
:1048E0001022514604F19500FDF7D0FBE36B2946F9
:1048F0000020A269984701273846BDE8F0870000EC
:104900002DE9F05F9B4692460546DDE90D230AA896
:10491000894690E8C0011C498020FEF5A2FF0446AC
:10492000102249466D30FDF7B1FB1022514604F1CB
:104930005D00FDF7ABFB1022594604F14D00FDF779
:10494000A5FB3088A4F84A00B07884F84C00396898
:10495000C4F84310B988A4F84710B87984F849001E
:10496000D8F80000E063B8F80400A4F8400098F814
:10497000060084F8420004F13C0229462046BDE8C6
:10498000F05F4123FFF5F2B88D492000FFF54EB8E6
:104990002DE9F0411F469046DDE906230E46054607
:1049A0000F498C20FEF55DFF0446202229466C301D
:1049B000FDF76CFB2022314604F14C00FDF766FB4D
:1049C00004F13C00102239460546FDF75FFB2A46FC
:1049D00041462046BDE8F0415023FFF5C7B800002E
:1049E000E5492000FFF522B806460F46154672B687
:1049F0003846FDF77DFB402801D9402002E03846CB
:104A0000FDF776FB80463046FDF772FB402801D962
:104A1000402002E03046FDF76BFB04469C21104825
:104A2000FDF75BFB424639460D48FDF72FFB0C486E
:104A3000224631465C30FDF729FB09484FF0AA3188
:104A4000016445644FF0BB3181644FF0CC310165A6
:104A50004FF0DD318165002000F004F8FEE7000032
:104A60006439002030B5ADF20C4D04464FF480613E
:104A700003A8FDF732FB184D202085F83F0085F88C
:104A80009B003CB12846012C436DC26C09D0022C1E
:104A90000CD00FE0104A11A15C3203A8FEF770FDA4
:104AA00008E011A103A8FEF76BFD03E016A103A81F
:104AB000FEF766FD03A90BA2686CCDE90121009009
:104AC00018A3054A18A1002000F092FA00F05CFA41
:104AD0000DF20C4D30BD0000643900205B45525290
:104AE0004F525D20257300005B5741524E494E479F
:104AF0005D20506172616D303A25642C50617261A5
:104B00006D313A25640000005B504152414D5D20FB
:104B1000506172616D303A25642C506172616D3163
:104B20003A256400000000006170705F6173736576
:104B300072742E6300000000014816F0CDBC000026
:104B4000E42C002006460F4690461D4672B64046AD
:104B5000FDF7CEFA402801D9402002E04046FDF79B
:104B6000C7FA04469C210D48FDF7B7FA2246414694
:104B70000A48FDF78BFA09484FF055310164456446
:104B80004FF066318164C6644FF077310165476547
:104B9000C94381650220FFF765FFFEE76439002005
:104BA0002DE9F04106460F4690461D464046FDF76A
:104BB0009FFA402801D9402002E04046FDF798FACC
:104BC00004469C210D48FDF788FA224641460B48D1
:104BD000FDF75CFA09484FF0113101644564490062
:104BE0008164C6644FF03331016547654FF044314D
:104BF0008165BDE8F0410120FFF734BF6439002032
:104C000070B5052801D3E82070BD194D00EB4000B8
:104C100005EB40142078C8B1EFF31086012080F333
:104C20001088201D0DF030FB00202070FF20207226
:104C3000002000EB400105EB41110978012902D069
:104C4000401C0528F5D3052802D007E0E92070BDF7
:104C5000002014F079F803200DF0B1FF26B10120F7
:104C600080F31088002070BD002080F31088F9E7E1
:104C70008C330020052801D30020704700EB400151
:104C8000044800EB4110017809B1001D7047002075
:104C9000704700008C3300202DE9F0470546894617
:104CA00000244FF0FF3846464FF0010A002D10D087
:104CB0003C49032016F066FB287960B101280AD030
:104CC000022808D0032806D0042804D04046BDE8B6
:104CD000F087E520FBE7EFF31082012181F31088D4
:104CE000314F04EB440107EB41110B783BB14B68AA
:104CF000D5F800C0634510D10B7A83420DD104EB87
:104D0000440007EB401090F82D00022803D026B293
:104D10000120087004E0052402E0641C052CE0D3A7
:104D20005AB3012080F31088052C34D200220321CD
:104D30001E4813F0F1FF04EB440107EB411428680F
:104D400060602879207204F10C00202205F108012E
:104D5000FDF79CF9164860631648E0631648A063A7
:104D600000202064C4F85C901449606888420ED129
:104D70000320FEF775FC20B109E0002080F31088C5
:104D8000D2E703200DF00EFF03200DF029FF201DB8
:104D90000DF0CAFA8246BAF1000F00D046463046FE
:104DA00095E70000B11F10008C33002048E321007C
:104DB000A1AB200031AA2000E9A920000040014059
:104DC00010B502460846052A24D2DFE802F00303A4
:104DD00003111900104951F832200104090C05D0C3
:104DE00022B1014610460DF0C3FD0FE0E42010BDD6
:104DF00010F0FF0F02D00DF095F807E0E42010BD91
:104E0000810505D0014600200DF06EFE002010BD8A
:104E1000E42010BDE62010BD64E3210030B597B05A
:104E200005460C461C22414910A8FDF72FF91C220B
:104E30003E491C3109A8FDF729F920223B493831A8
:104E400001A8FDF723F994B13949062016F09AFA22
:104E50003849152016F096FA34496C39A1F12C0224
:104E6000052D60D2DFE805F0060606213900E520B1
:104E700017B030BD207931F810001190607932F808
:104E800010001290A0791390206810902748843861
:104E900050F8350021880904090C04D018B110A974
:104EA0000DF0F3FD38E0E420E2E7207901EB40006B
:104EB000808A0A90607902EB4000C0880B90A0794C
:104EC0000C9020680990207810F0FF0F03D009A8FB
:104ED0000DF090F820E0E420CAE72079031F042BAE
:104EE00001D8E720C4E7022818D0012002902079D9
:104EF00001EB4000008D0390607902EB4000808957
:104F00000490A0790590206801902088800508D041
:104F100001A900200DF044FE0020A9E70220029024
:104F2000E5E7E420A4E7E620A2E70000E8E32100AB
:104F3000292010002520100000B587B003208DF82F
:104F400000001D208DF8160001208DF817008DF847
:104F500018008DF81900044A0449684600F01CF84E
:104F6000FFF7EAFD07B000BD9D7C21004BD9210071
:104F7000002806D0002904D0024AD269002A00D0B5
:104F800010477047003B00200248006A002800D00C
:104F900000477047003B002070B50D4616460D4C8B
:104FA00000280AD00178032911D80121A1760146F1
:104FB0001A222046FDF76AF805E00020A0761A21A3
:104FC0000448FDF78AF8E5612662002070BD0120E3
:104FD00070BD0000003B0020044A1044807D084260
:104FE00001D001207047002070470000003B0020E6
:104FF0002DE9FE4F0746924699460024A046CDF87B
:105000000480CDF8088059480178B94202D2807EE8
:1050100000287DD10EAD0095EFF311860220FEF73A
:1050200041FB8346FEF7A8FB401C012181400BEBAE
:105030000100C0B280F3118801213846FFF7CCFF90
:1050400038B14B484B4950F82720204600F0A4F8CF
:1050500004461C213846FFF7BFFF00285ED046A259
:105060004449204600F098F8204484B20421384690
:10507000FFF7B2FFF8B152463E49204600F08CF8E7
:10508000204484B208213846FFF7A6FF38B13BA27E
:105090003849204600F080F8204484B20BE010210B
:1050A0003846FFF799FF30B135A23249204600F06B
:1050B00073F8204484B208213846FFF78DFF90B181
:1050C0004A462C49204600F067F8204484B210215B
:1050D0003846FFF781FF30B12AA22649204600F06A
:1050E0005BF8204484B210213846FFF775FF60B1A9
:1050F00026A2052101A80C9BFEF72AFA01AA1D4948
:10510000204600F049F8204484B221A2194900E069
:1051100029E0204600F040F8204484B21548C4F548
:10512000807120442B460D9AFEF73EFACDF80080A0
:105130004FF48071002804DB2044884201DC85B2F2
:1051400000E00D46A81C884200D9FE2511A209499D
:10515000284600F021F8284481B20648FFF708FFEE
:10516000F0B280F31188BDE8FE8F0000003B002004
:10517000F02C0020003A0020280000002000000051
:105180003A000000204C696E653A0000256C64000E
:10519000292000000D0A000030B505460020002936
:1051A0000CD0002A0AD006E02B18FF2B06D8CC54CE
:1051B000521C401C80B21478002CF5D130BD000088
:1051C00010B5084A06214CF2010013F0BDF9FFF7B3
:1051D000B3FE4FF4E13018F00FFABDE810400020A4
:1051E00029F6F6BB70EB210010B5084801780029BC
:1051F0000AD101210170064829F654FBBDE8104090
:105200000021044829F650BC10BD0000CC2C002021
:1052100035201000A18C21002DE9F04104460D46F7
:105220001746002D04D0012D02D00120BDE8F081E9
:10523000E4B1DFB1607801281AD0EFF311860220C3
:10524000FEF722FA8046FEF78FFA401C01218140CA
:1052500008EB0100C0B280F3118800206070A570D7
:10526000E761F0B280F311880020DFE70120DDE77D
:105270000620DBE710B50446002C0CD0204600F0D9
:10528000B3F9FF2060700021A160E16021616161DC
:105290000020E06110BD012010BDF0B5DDE907453B
:1052A000059981614FF47A76A2FB061C03FB06C3C5
:1052B000002702FB0732C0E9021209196A41C0E95E
:1052C000041200210162F0BD2DE9F0410446002CDA
:1052D00013D0EFF311850220FEF7D6F90746FEF74B
:1052E00043FA401C012606FA00F03844C0B280F3AD
:1052F00011881248002121620EE00020BDE8F081F3
:10530000D4E90432D1E9047CDB1B72EB0C0202D23B
:10531000016A216203E00846016A0029F0D10462B3
:105320006670064810380168491C0160016B4160D5
:10533000E8B280F311880120E0E700008836002001
:105340002DE9F04105460024EFF311860220FEF717
:105350009BF90746FEF708FA401C012181407818A6
:10536000C0B280F31188134A106BE8B115B102F195
:10537000100010E00446206A10631068401E1060A0
:105380000CE0A94206D11168491E1160296A016228
:105390002C4603E00846016A0029F2D124B100201E
:1053A00020626070106B5060F0B280F3118820466C
:1053B000BDE8F081783600202DE9F041EFF3118748
:1053C0000220FEF761F90446FEF7CEF9401C0121E8
:1053D00081406018C0B280F31188114D002608E0AA
:1053E0002078012804D1E16909B1A06988472670B5
:1053F0002D6A2C6A002CF3D1094D103D07E0E169BC
:1054000009B1A06988472670206AA8632662AC6B40
:10541000002CF4D1F8B280F311880120BDE8F081AE
:10542000883600202DE9F041EFF311870220FEF7C6
:105430002BF90446FEF798F9401C012606FA00F005
:105440002044C0B280F311881D4DA5F110082DE055
:10545000D4E90430D8E902125B1A60EB0200D8E903
:105460001021D21A814124D326702046FFF768FF0D
:10547000A078012806D01248283000212162016856
:1054800061B10FE0D8E90220D4E902135118584164
:10549000C4E904102046FFF717FF07E0046005E0A9
:1054A00001F1200001680029FAD104602C6A002C67
:1054B000CED1F8B280F311880120BDE8F081000060
:1054C000883600202DE9FF5F82460E4693464FF056
:1054D0000008BAF1000F20D0414886421DD8E6B13D
:1054E000EFF311870220FEF7CFF80446FEF73CF9F0
:1054F000401C012181406018C0B280F311885046E1
:105500000FF078F910B19AF8010040B1F8B280F3C9
:1055100011880F2004B0BDE8F09F0120FAE712F0D7
:10552000C1FB04460D464FF47A7106FB01F022469A
:105530002B4600210FF048F8DFF8A890B0B1D9F859
:10554000040048B1D0E90410091B60EB0500C9E96B
:10555000021012F021FC04E00021C9F80810C9F87B
:105560000C104FF00108D9E9020106E0D9F8040057
:10557000D0E90421101B61EB0501CDE9020132469F
:105580000023CDF800B05046FFF787FE5046FFF7E6
:105590009BFE15F00FFE4FF0E024D4F800014FF40D
:1055A000801510F4801F01D0012000E0002020B9F8
:1055B0001420FEF721F8C4F80051B8F1000F0AD00A
:1055C000D9F80400D0E90431D9E90202181A61EBD4
:1055D000020112F09DFBF8B280F31188002099E7D8
:1055E000008AB907783600202DE9F04104460025ED
:1055F000002C39D0EFF311870220FEF745F806465C
:10560000FEF7B2F8401C012181407018C0B280F34F
:1056100011886078012824D1144E7068A0420BD103
:1056200012F040FBD4E90432181A62EB0102C6E919
:10563000020212F0B1FB01252046FFF781FE5DB1A9
:10564000706848B1D0E90421D6E90203101A61EB71
:10565000030112F05DFB04E01DB9706808B912F097
:105660009BFBF8B280F31188BDE8F081783600200A
:1056700010B50446114822784FF0FF3150F822202F
:10568000A2F86810227850F82200A0F86A10606B27
:10569000002801D1A16B71B120B1204600F05EF865
:1056A000002807D1A06B20B1204600F009F800289F
:1056B00000D1002010BDE42010BD0000D02C00203F
:1056C00030B58BB00446282101A8FCF706FDA06B7D
:1056D000019094F83D008DF808001D480199814221
:1056E00005D121781B4A02EB011149680391039906
:1056F000F1B10199814201D10B2004904FF40010C7
:105700000590C01206900020079008900990402054
:105710000A90002101A8FFF7BFFA21780E4D55F835
:105720002110A1F86A00002804DAE4200BB030BD93
:10573000E720FBE7FFF79EFA217855F82110486330
:10574000217855F82110091DC1620020EEE7000004
:105750000040014060E42100D02C002030B58BB027
:105760000446282101A8FCF7B8FC606B019094F86E
:105770003C008DF808001D480199814202D14FF08C
:105780000B00039005D12078194901EB0010006847
:1057900004900498D0B14FF4801005904FF00000B1
:1057A00006904FF480710791089009900A90014685
:1057B00001A8FFF771FA21780E4D55F82110A1F8D4
:1057C0006800002804DAE4200BB030BDE720FBE7D6
:1057D000FFF750FA217855F821100863217855F821
:1057E0002110091DC1620020EEE7000000400140C9
:1057F00060E42100D02C00202DE9F0410446022C69
:1058000002D3E820BDE8F0813A4D55F82400C0B13C
:1058100090F86C10A9B1406E41680078FFF7D0FA9B
:105820000028EFD155F82400406E0169007BFFF796
:10583000C7FA0028E6D155F824008169222902D050
:1058400012E0E520DEE7406E816A90F82400FFF761
:10585000B7FA0028D6D155F82400406EC169007E01
:10586000FFF7AEFA0028CDD1234800EBC40090F931
:1058700001000DF0A4F955F82400002780F86C70A1
:1058800055F8240080F8007155F8240080F8017163
:1058900055F8240080F8027155F8240080F803714F
:1058A000EFF31086012080F31088002055F82010B7
:1058B00011B191F86C1029B9401C0228F6D30120CF
:1058C00013F042FA6EB1012080F3108855F82400DD
:1058D000001D0DF0D1FC55F8240090F86D0020B1AA
:1058E00005E0002080F31088F0E745F824700020E0
:1058F00088E70000D02C002050E4210070B5044659
:10590000022C01D3E82070BD0C4D55F8240018B1CD
:1059100090F86D10012901D0E92070BDB0F9680040
:10592000FFF76EF955F82400B0F96A00FFF768F93F
:1059300055F82410002081F86D0070BDD02C002097
:1059400070B500280CD00478124E56F8241049B1D6
:1059500091F86C2032B191F86D1029B1EA2070BD38
:10596000E52070BDE92070BDEFF31085012181F3C2
:105970001088FFF77DFE20B956F82420012182F817
:105980006D101DB1012181F3108870BD002181F3DC
:10599000108870BDD02C002070B5022801D3E820FB
:1059A00070BD134C54F820304BB193F86D5035B1A5
:1059B00039B132B193F80351012D04D010E0E92040
:1059C00070BDE42070BD002583F8035154F82030E9
:1059D0005B680225C3F8885054F820305B681B6868
:1059E00054F82000001D0DF0ADFD0028EAD170BD77
:1059F000D02C002070B504461A4D55F824007030A4
:105A000014F05DFA82B21646A2B155F8240090F85F
:105A1000011101290ED0012180F80411802A0FD331
:105A200055F82400802200F18001703014F062FAF1
:105A300080260CE055F82410002081F8000170BD8C
:105A400055F8240000F18001703014F053FA55F835
:105A50002400324600F18001001D0DF0ADFE00284B
:105A6000EDD170BDD02C002070B50446022C01D3BE
:105A7000E82070BD184D55F8240090B190F86D30B5
:105A80007BB181B17AB1002680F8026155F824001B
:105A9000703014F099FA55F8240090F8001121B1F3
:105AA0000AE0E92070BDE42070BD90F8011119B939
:105AB00090F86C10012901D0E22070BD012180F81E
:105AC00000112046FFF796FF20B155F8241081F809
:105AD000006170BD002070BDD02C002010B50446C0
:105AE0002078022805D001281AD1BDE8104018F00E
:105AF00015B803220BA10C48FCF701FB50B1A1889B
:105B0000094817F0DFFEF422BDE8104006490020E6
:105B1000FFF742BFA2880449012000F0D7FBF2E75B
:105B200010BD000041543A00F45C00202DE9F84318
:105B30000446574E56F82400071D022C7ED290F8DA
:105B40006C1000297AD0012978D190F80011012930
:105B500074D190F80111002970D1012180F8011150
:105B6000002556F82400D0E903120A44017D01F013
:105B70000101C91D02EB01084168CA6FC2F380022E
:105B8000002AFAD090F80411E1B1DFF808916D1CF9
:105B900056F82400001D0DF009FC10280BD056F813
:105BA0002400D9F800108068B1FBF0F000FB08F089
:105BB000B5EBC01FEBD956F82400703014F07FF914
:105BC00085B226E0B0F82480C58C001D0DF0F4FAF3
:105BD00056F8240041F2883300EB0801491B80315C
:105BE000001D2A460DF09DFDE5E756F82400012230
:105BF0007030694614F07EF956F824004068C16F91
:105C0000C1F340010029FAD09DF8001001606D1E1B
:105C1000ADB2002DE9D156F82400703014F04FF9E0
:105C20000028C8D1386841694906FCD5EFF31085D2
:105C3000012080F3108856F8240000E01EE0703048
:105C400014F03DF968B1EFF31081012080F3108862
:105C50003868426842F08202426089B1012080F3D4
:105C6000108856F82410002081F8000156F82410FE
:105C700081F8010145B1012080F31088BDE8F88367
:105C8000002080F31088ECE7002080F31088F5E70F
:105C9000D02C00205C0000202DE9F04105460F4685
:105CA000002D06D02AB12C78022C04D3E820BDE8C0
:105CB000F081E520FBE7304E05F1580046F824005E
:105CC000D2E900310A467030194614F0D3F8291D84
:105CD000286D17F049FC0028E9D156F82410281D3A
:105CE000486656F82400076056F824001822083049
:105CF00005F14001FCF7CAF9204856F8241000EBE2
:105D0000C4056868486056F82400001D0DF0B4FA18
:105D100056F82400001D0DF051FB18480122032104
:105D2000103812F0F9FF56F82410012081F86C00A9
:105D300056F82410002081F8000156F8241081F84C
:105D4000010156F8241081F8020156F8241081F858
:105D500003010B490C2015F015FB0A490D2015F025
:105D600011FB95F901000CF01DFF95F901000CF0F5
:105D700037FF00209BE70000D02C002050E42100DA
:105D80000D3520001D3520002DE9F04104461A4D47
:105D900055F82400703014F092F882B216460027AD
:105DA0007AB155F8240090F80111012909D0802A10
:105DB0000ED300F180017030802214F09BF8802611
:105DC0000BE055F8240080F800710020BDE8F08158
:105DD00000F18001703014F08DF855F8240080F83F
:105DE000047155F82400324600F18001001D0DF0C9
:105DF00049FD0028EAD1E9E7D02C00202DE9F84F31
:105E00002A4D804692460E4601F10804A8F58041CD
:105E1000274A6868B1F5804F01D25168401A844220
:105E200002D90520BDE8F88F28681369411E9268E1
:105E3000C1F30B01411A9A1A01F6FF716B7AC1F393
:105E40000731C91A02EBC101081A001F844225D983
:105E5000184F0024009411231E224FF40049D7F854
:105E600000C049460120E047002108460BF014F924
:105E700040B1009413231E223C6849460120A047EC
:105E80000A20CFE7687A0EF0E5FA0028CAD100941C
:105E900012231E223C6849460120A0475246314643
:105EA0004046BDE8F84F17F0B5BF000044D20020CF
:105EB00064300020E001002070B50026067100214A
:105EC000032585702A46B0F844309B1E0AE003D1B2
:105ED000511BC170067170BD046CA45C3D2C09D0CF
:105EE000521C92B29342F2DA417100F1210500F1A5
:105EF000050219E0A2EB050101F10101C17002F1F7
:105F0000010291B2F0E7036C5B5C3A2B12D02C2BB0
:105F100010D08C4206D103799C5C0C1B5C55037934
:105F20005B1C0371491C89B2B0F84440A41E8C422A
:105F3000E9DA70BD03799C5C0C1B5C5503795B1C32
:105F4000DBB203714C1C9C54ECE7002805D00128FF
:105F500005D0402803D00920704700207047062054
:105F6000704770B5002904D0002313606FF02F062E
:105F700011E0002070BDC45CA4F130050A2D01D3EE
:105F8000002070BD156805EB850506EB45052C4422
:105F900014605B1CDBB28B42EDD3012070BD0000AE
:105FA00070B5044600202178002935D00A293BD25B
:105FB000DFE801F03A050A0F14191E23282D35A138
:105FC000394800F0F1F92FE038A1374800F0ECF93A
:105FD0002AE03DA1344800F0E7F925E042A132482B
:105FE00000F0E2F920E04AA12F4800F0DDF91BE0C3
:105FF0004DA12D4800F0D8F916E052A12A4800F032
:10600000D3F911E053A1284800F0CEF90CE059A1D2
:10601000254800F0C9F907E0B4F80221611C2248C4
:10602000FCF734F894F802011F490D220A54014488
:106030000A224A70554DEB6883B16978012902D074
:10604000022906D00AE0801CC2B2174901209847F5
:1060500004E0801CC2B21449022098470120287431
:106060002078082815D1494869681430407800EB39
:106070008002102000EB82000C58002C09D0204632
:10608000FCF736F882B268782146BDE8704000F02F
:106090001DB970BD4552523A20496E76616C6964F3
:1060A00020696E7075742E00643800204552523A93
:1060B00020556E737570706F727465642041542042
:1060C000434D442E000000004552523A204E6F20AE
:1060D000616C6C6F77656420706172736520737496
:1060E0006174652E000000004552523A20436F6DE6
:1060F0006D616E64207265717565737420697320BB
:106100006E6F7420616C6C6F7765642E0000000008
:106110004552523A204E6F20415420434D4420684E
:10612000616E646C65722E004552523A20496E765B
:10613000616C696420706172616D65746572732E43
:10614000000000004552523A2048616C206572728E
:106150006F722E004552523A20415420434D442044
:10616000657865637574652074696D656F75742EE7
:10617000000000004552523A204F74686572206555
:1061800072726F7220636F64652E00000837002002
:1061900000B5C1B04FF482716846FBF79EFF074817
:1061A000017C012907D00121017408208DF800002D
:1061B0006846FFF7F5FE41B000BD0000083700203B
:1061C000002807D0012807D0022805D0032803D0D3
:1061D0000020704700207047072070472DE9F041EC
:1061E0000546002028700024124E08274FF00408AE
:1061F00013E004EB8401706807EB8102835CEA78AA
:10620000934208D108EB8101AB784158286C1844BF
:10621000FBF775FF30B1641CE4B23078A042E8D8D7
:10622000BDE8F081706804EB840110F8210028704B
:106230006C70F5E70837002010B5044614210E48AD
:10624000FBF74BFF0C4848211430FBF746FF0A4888
:106250002179017021684160A1688160E168C160B5
:1062600001210174417000F15C01143001640021CE
:10627000A0F8441010BD00000837002070B5044697
:106280000E461546032210A12046FBF738FF08B141
:10629000002070BD012209E0A05C0A2804D1A018EA
:1062A00010F8010C0D2805D0521CD2B2B242F3D323
:1062B000002070BD521CA5F844202146286CFBF735
:1062C000E5FE012070BD000041543A002DE9F04781
:1062D000C2B00646894692464FF4827101A8FBF788
:1062E000FCFE0024294D6E70A5F1480001260078BF
:1062F000132801D12E740124287C0327012807D0FC
:106300008DF8047001A8FFF74BFE42B0BDE8F0879E
:106310004FF0020885F810801C4A51461432484656
:10632000FFF7ACFF70B119481430FFF7C5FD1748EF
:106330001430FFF753FF154E1436B4B130781428DB
:1063400006D012E08DF8046001A8FFF729FEDCE713
:1063500000208DF804000EA10DF1050000F024F8D6
:10636000ADF8060101A8FFF71BFE307840B12F748D
:10637000064948221431A1F15C00FBF787FEC4E70F
:106380008DF8048001A8FFF70BFEBEE70837002058
:1063900073746172742063616E63656C20636F6EE9
:1063A0006E6563742E2E2E000FB410B5C0B0044677
:1063B00044AA68464399FDF70DF96846FBF798FE35
:1063C000024669462046FBF761FE6846FBF790FEF1
:1063D00040B0C0B210BC5DF814FB000070B5C2B094
:1063E000164C207C032827D10420207404F11406C5
:1063F0000C257078616800EB800005EB8000085880
:1064000078B1A06800B180477078616800EB8000C7
:1064100005EB8000095842B00848BDE870401430D0
:1064200008474FF4827101A8FBF757FE05208DF84D
:10643000040001A8FFF7B4FD42B070BD083700208A
:10644000FEB50C4606460A79002101208DE80700BA
:10645000164D03230D2240212D680020A8476078A7
:106460000125162811D1012130460AF677FC60B1CA
:10647000407850B10E49207951F8261081F8480033
:106480000021304600F036FC002560780C2805D14C
:106490002079072802D1304600F052FC25B122793C
:1064A000012130460AF612FF0020FEBDE001002067
:1064B000CC19002070B50D46044608F645FE6988E3
:1064C000884200D2014620460AF6EEFF012120460E
:1064D0000AF608FC012801D0412200E00022012137
:1064E00020460AF6F3FE002070BD000038B50446D1
:1064F000134D0020009002230D222D684021A84753
:10650000012120460AF6EEFB0C2803D00E2814D0F9
:1065100041220CE0012120460AF620FC4189008935
:1065200081420AD0074850F8240090F84820012101
:1065300020460AF6CBFE002038BD0022F7E7000017
:10654000E0010020CC1900202DE9F0470F468146DC
:1065500001210AF6C7FB032801D0402242E00121B5
:1065600048460AF6FBFB4FF6FF7A05460026D04662
:1065700024E0012148460AF629FC6B7801460522F1
:1065800002EB092240F604409B1D11F673FC044601
:10659000B819B61C80882080B0B23918801C898850
:1065A000618086B26878207188466A7805F10801B2
:1065B000601DFBF76BFD204611F6A8FC7888B04201
:1065C000D7D8E98808F1010080B2514500D351467F
:1065D000814206D328B1A880012148460AF62CFE44
:1065E00004E00A22012148460AF670FE0020BDE8B8
:1065F000F0872DE9F0470F46824601210AF672FB2B
:10660000072801D0402246E0012150460AF6A6FBA9
:1066100081467878012803D010260025A84622E07C
:106620000226FAE7012150460AF6D0FB0146052270
:1066300002EB0A22331D40F6074011F61BFC04460C
:106640007819AD1CB0F80480ADB2A4F800807919B7
:10665000A6703246E01C091DFBF718FDA81985B28B
:10666000204611F653FC7888A842DBD8B9F806100A
:1066700008F101004FF6FF7280B2914200D311463B
:10668000814207D330B1A9F80400012150460AF62F
:10669000D3FD04E00A22012150460AF617FE00202D
:1066A000BDE8F087084A52F82020126A08E0938873
:1066B0008B4204D8D3888B4201D31089704712686B
:1066C000002AF4D104F6C0BACC19002003480249CC
:1066D00001600E214160704720F7210078050020FD
:1066E00070B5164A0C46054612684988904701461F
:1066F000A088801D83B2052000EB052220781B288E
:1067000017D040F60D4011F6B5FB054620781B2842
:1067100012D012202870A08868806088A880A28883
:10672000A11DA81DFBF7B2FC284611F6EFFB0020C7
:1067300070BD40F60C40E6E71120EBE75033002037
:1067400070B50D46064601210AF6CCFA0C2806D093
:106750004122012130460AF6B9FD002070BD012119
:1067600030460AF6FBFA0446A888E188401A80B24F
:10677000608104F10C010144EA8805F10800FBF78F
:10678000BEFC28B96089E98808442189884201D97A
:106790004FF6FF706081012130460AF64DFDDCE7BF
:1067A0002DE9F35F0D4648884978B0FBF1F40121EB
:1067B00000980AF697FA022869D1002C67D00121C7
:1067C00000980AF6CBFA804600266878B14614286D
:1067D00001D0022700E010274FF0000A4FF6FF7BA0
:1067E00030E0012100980AF6F1FA014600980522EE
:1067F00002EB0022BB1D40F6044011F63BFB0446B1
:10680000A819B61C81882180B1B26818891C8288B9
:1068100062808EB29146A91927713A46601D091D02
:10682000FBF734FCF01986B298F8013008F1080241
:106830003946601DFEF5E7F808B14FF0010A204621
:1068400011F664FB6888B04204D9BAF1000F01D197
:10685000D945C6D109F1010080B2BAF1000F0ED1BD
:10686000B8F80610594500D35946814207D330B1D4
:10687000A8F80400012100980AF6DEFC04E00022DA
:10688000012100980AF622FD0020BDE8FC9F41226C
:10689000F6E700002DE9F34F81B000250C46A8462D
:1068A0000121009501980AF61DFA05220199042894
:1068B00002EB012966D0052805D0062803D00A2856
:1068C00071D04022FEE0012101980AF647FA0746FE
:1068D0006078072801D9102000E0022082464FF09E
:1068E000050B3DE06019B0F80480387805280AD01F
:1068F00005EB0B0020447B7807F108025146001D90
:10690000FEF581F848B3012101980AF65FFA0146C5
:106910004A460AF1060340F6064011F6ABFA06466F
:10692000A0F80080AD1CA8B22118401C0979317173
:1069300080B22118801C8988718085B2611986F81F
:1069400005A05246B01D091DFBF7A0FB05EB0A0090
:1069500085B2304611F6DAFA02E06078284485B252
:106960006088A842BED8F98808F101004FF6FF728E
:1069700080B2914200D31146814279D3002877D06A
:10698000B8806FE0012101980AF6E8F98346A07803
:106990004FF0000A5646400701D0102731E04FF073
:1069A000010A02272DE065E0012101980AF60EFA9E
:1069B00001464A4607F1080340F6054011F65AFA27
:1069C00006466019AD1C81883180A9B26018891C07
:1069D000828889B260187280891C8288B2808DB2E8
:1069E000BAF1000F14D06119B7713A46F01D091DB4
:1069F000FBF74CFBE81985B2B6F80080304611F67B
:106A000085FA6088A842CFD8BAF1000F09D01AE001
:106A10003D4A0198A6F10C0152F820000C3001F615
:106A2000BFFC86B1002000904B460A220421019849
:106A300012F64CFA014670884880019800F042F93D
:106A40000020BDE8FE8FBBF8061008F101004FF6EC
:106A5000FF7280B2914200D31146814208D330B117
:106A6000ABF80400012101980AF6E6FB2EE0FFE7EF
:106A70000A2227E06078FF282AD001980AF6EEF86B
:106A80006178801E884223DD012101980AF69EF973
:106A9000637801464A4640F609401B1D11F6EAF9A3
:106AA000A1880546018014F8010F611D801E82B285
:106AB000AA8000206880A81DFBF7E8FA284611F696
:106AC00025FA0022012101980AF600FC0098B8E797
:106AD000A4F10805012101980AF640F9A1888180F6
:106AE0006178891EC180002101816078A5F10C01C7
:106AF000801E68800448019A50F822000C3001F68C
:106B00004FFC01200090ADE7CC1900202DE9F05F8B
:106B10008946834601210AF6E5F80B2801D0412277
:106B200045E0012158460AF619F900258046AA4693
:106B30002E4631E0012158460AF648F908EB86074F
:106B40000146F8880522801D83B202EB0B2240F635
:106B5000094011F68FF9B98804460180B9F802009E
:106B6000F988401B814200D2084682B2A2800020F0
:106B7000608009EB0501A01D091DFBF787FAA088BD
:106B800041198DB2F988884201D04FF0500A204651
:106B900011F6BCF9761CF6B298F80100B042C9D8DB
:106BA000B9F80200A84201D04FF0500A5246012124
:106BB00058460AF68BFB0020BDE8F09F2DE9F04710
:106BC0000C4606464FF0000801210AF68BF8DFF864
:106BD000F090042807D008282BD0092829D00A28AB
:106BE00027D0412259E0012130460AF6B7F807467E
:106BF00059F826000C3001F6BBFB00F10C05102201
:106C0000211DE81DFBF742FA1020A871284611F655
:106C10007DF92888F988401C4FF6FF7280B29142B6
:106C200000D31146814202D308B1B88041E00A2264
:106C300033E0012130460AF691F80546A11F0020F5
:106C400021F80E0959F826004F460C3001F6A8FB32
:106C5000288920B16188814200D20846608057F8B7
:106C6000260062884FF00108C068C189114489B2CA
:106C7000C181B1F5006F01D911220EE0304609F64D
:106C8000EDFF6188401E884203DC2889814209D3D8
:106C900040B1304600F054F80022012130460AF697
:106CA00015FB0AE0EA881144E98010B16188401AB6
:106CB0002881012130460AF6BFFA4046BDE8F08738
:106CC000CC19002010B50C4609780246D2290CD008
:106CD00052290AD01E2908D0052000EB022147F2D4
:106CE000305240F61D4011F6E1FB2046BDE8104051
:106CF00012F610BC38B504460020009005200D4661
:106D000000EB042318220421204612F6DFF8014686
:106D100045702046BDE83840FFF7D4BF38B504467B
:106D200000200090052000EB04231E2204212046B1
:106D300012F6CCF801462046BDE83840FFF7C2BF46
:106D40002DE9F05F374C814654F82900C0680028CF
:106D500066D0012148460AF601F8824654F8290017
:106D6000A3464FF00008C468012104F10C06E7892E
:106D700048460AF62BF80146B81D83B2052202EBFD
:106D8000092240F6094011F675F88780BAF8041018
:106D90000180BAF8061005464180307A092833D1BF
:106DA000727A06F10807A81DB91D921EFBF76EF94D
:106DB0007878811E1FFA81F8216819B16988081A4C
:106DC000801C68802468A6F10C0011F695F804F187
:106DD0000C0619E006F1080705EB08007289391D59
:106DE000801DFBF753F9788800EB08011FFA81F842
:106DF000216811B16988081A68802468A7F1140015
:106E000004F10C0611F678F8002CE3D15BF82900A8
:106E10000C3001F6B5F92846BDE8F05F11F676B8FA
:106E2000BDE8F09FCC19002010B50446012109F6F9
:106E300059FF0C2801D0412200E000220121204608
:106E40000AF644FA002010BD024901480860704764
:106E5000596E20003405002070B506460D461020FE
:106E6000288029463046FEF525F9044624B92946EE
:106E70003046FEF52BF80446074A298802A012681E
:106E80009047204670BD000064625F73697A652098
:106E90003D2025640A000000E4010020F0B5AFB0F9
:106EA00000240D460646846219A82421FBF715F933
:106EB000229403A824212394FBF70FF90C940EA825
:106EC000242231460D94FBF7E1F8706A1790B06AFE
:106ED000784E189024A824223146FBF7D7F8706A20
:106EE0002D90B06A2E90012021902290CDE90B4088
:106EF000B4E000230EAA1846264652F8201089193D
:106F000046EB03077B084FEA310342F8203021F0BB
:106F10000103CB1A00F101000928EED3002052F83A
:106F2000201011B9401C0928F9DBC0F1090050629A
:106F30002198C00706D019A8FBF792FD1698C00744
:106F4000D7D044E0002319AA1846374652F820103B
:106F5000C91947EB030673084FEA310342F82030A2
:106F600021F00103CB1A00F101000928EED3002023
:106F700052F8201011B9401C0928F9DBC0F10900B2
:106F80005062DBE7002324AA1846264652F8201058
:106F9000891946EB03077B084FEA310342F820309A
:106FA00021F00103CB1A00F101000928EED30020E3
:106FB00052F8201011B9401C0928F9DBC0F1090072
:106FC00050620B98C0070FD003A8FBF749FD2C981F
:106FD000C007D7D02D9B17980EA924AA98422FD866
:106FE00035D3C0F1090029E04FF0000303AA184689
:106FF000374652F82010C91947EB030673084FEAC9
:10700000310342F8203021F00103CB1A00F10100D6
:107010000928EED3002052F8201011B9401C09288D
:10702000F9DBC0F109005062D1E752F8203051F885
:107030002060B3420BD803D300F101000928F4D338
:1070400011460EA8FCF7D4F903A919A804E01046CC
:10705000FCF7CEF919A903A8FCF7F2F91798002854
:107060008FD10D9808B103A815E012490C9B03AA13
:10707000486A984213D80DD3C0F1090008E052F8CD
:10708000203051F82040A34204D808D300F1010079
:107090000928F4D3104614F07DF903A900E0114645
:1070A00024222846FAF7F2FF0C9868620D98A8622D
:1070B0002FB0F0BD64EE210000B58DB009A814F02A
:1070C000C3FF9DF825209DF824300A98BDF82610AE
:1070D000CDE9041025A040F2BB11CDE90232CDE983
:1070E00000102C4B2CA232A10220FDF781FF0BA82F
:1070F00000F0B4FC9DF82E209DF82F309DF82C1048
:107100009DF82D00CDE90601CDE904329DF830004F
:107110009DF8311028A240F2BF13CDE90032CDE92D
:1071200002101C4B1CA222A10220FDF761FF2DA022
:107130004FF4E371CDE90010164B17A21CA10220F9
:10714000FDF756FF06F052FE15F0F8FA15F070FB49
:1071500014F00AF82B480AF087FC0A2016F006F80B
:107160002949002000F026FE0DB000BD476F6F6476
:10717000697820424C452053444B205625642E25E7
:10718000642E25642028636F6D6D6974202578292D
:1071900000000000A9EB21002E2E5C5372635C7589
:1071A0007365725C757365725F6170702E63000049
:1071B0004E4F5F54414700004C6F63616C20426F3B
:1071C00061726420253032583A253032583A2530E1
:1071D00032583A253032583A253032583A25303232
:1071E000582E0000476F6F6469782055415254282B
:1071F000415429206578616D706C652073746172EB
:10720000742E0000991A2100EE2D0020FDF5A8B87B
:107210002DE9FF410DF1280898E8F0008DE8F00015
:10722000FDF57AFA04B0BDE8F0812DE9FF410DF1DA
:10723000280898E8F0008DE8F000FDF57FFA04B02A
:10724000BDE8F081FDF5F6BCFDF592BDFEF5CAB8CE
:107250002DE9F041DFF864800646017898F80100D6
:1072600008440A2802D90420BDE8F08100242546FC
:10727000134F05E0385D40B1641C0A2CFADB6D1C2D
:107280003078A842F9DC0020EEE7C5EBC500821992
:1072900004F11000C0F30B0040F400400721521C21
:1072A00011F052F900284FF00100DDD1385598F85F
:1072B0000110491C88F80110641CE0E71433002019
:1072C000E8DE002038B50C4604F064FD0949097871
:1072D00088420DD2BE2100EB4000ADF800104230D4
:1072E00040F400402246694610F0FAFF002038BD05
:1072F000032038BD143300202DE9F8430025DFF8C2
:10730000408006462C460827ADF8007018F80400A7
:1073100001280ED104F1200006EBC502C0F30B00DA
:1073200040F400406946521C10F0DAFF08B96D1CA9
:10733000EDB2641C042CE7DB35700020BDE8F88357
:10734000203300202DE9F0470026A8B088460746E4
:10735000B14646703546DFF8A4A036E08C20ADF883
:10736000980005EB4500413040F4004003AA26A9EF
:1073700010F0B6FF38BB9DF80D00800723D5797853
:1073800041452DD2786806EB860100EBC104DDF89B
:107390000E002060BDF81200A0809DF81400A071BE
:1073A0009DF81500E07110220DF1160104F108009E
:1073B000FAF76CFE10220DF1260104F11800FAF71D
:1073C00065FE761CF6B26D1CEDB29AF8000085429F
:1073D000C4D387F800907E7028B00020BDE8F08705
:1073E0000122CDE90029064CCDF808801F231E227A
:1073F00024684FF400410120A047EAE7143300203D
:10740000E001002038B50C4604F0C4FC09490978B5
:1074100088420CD28C2100EB4000ADF800104130C6
:1074200040F400402246694610F05AFF38BD032060
:1074300038BD0000143300202DE9F043A5B000242E
:10744000894607468C26194D0DF10A0817E004EB12
:1074500044004130ADF88C6040F400406A4623A9F6
:1074600010F03EFF48B99DF80100800705D51022B5
:1074700039464046FAF743FE28B1641CE4B2287846
:107480008442E4D3C4B2287884420DD204EB440091
:107490004130ADF8006040F400404A46694610F0C3
:1074A0001FFF25B0BDE8F0830320FAE71433002066
:1074B0002DE9F8430025DFF8448006462C460727CF
:1074C000ADF8007018F8040001280FD1C5EBC50015
:1074D000821904F11000C0F30B0040F4004069462B
:1074E000521C10F0FDFE08B96D1CEDB2641C0A2C94
:1074F000E6DB35700020BDE8F8830000E8DE002000
:107500002DE9FE4307463020B1FBF0F0C4B2134D25
:10751000002601202C70CDE90006DFF844C002945B
:1075200020231E22DCF800C0C4EBC408C103E047DE
:1075300007EB0800C5E9017005F1100120440E7049
:107540004E70486002F0F2F830B10CF0B7FE0CF06B
:1075500003FF0020BDE8FE830220FBE71433002078
:10756000E001002010B50C4604F014FC094909782C
:1075700088420CD200EB4000423040F400402246EA
:10758000BE2110F0E1FF002800D0012010BD032033
:1075900010BD0000143300202DE9F34F83B0039891
:1075A00004F0F8FB454FDFF818A14FF000083978D8
:1075B0004FF0010988420ED200EB4000413040F408
:1075C00000408C21049A10F0BFFF04005BD01A2306
:1075D000CDF8009020E0002409E07968C4EBC400F5
:1075E00008440CF0DFFF08B1E6B205E0641C38780F
:1075F0008442F2DBB8680678072106EB460505F100
:10760000400040F400408346039A10F09DFF0400C0
:107610000CD01B23CDF80090CDE901841E224FF43D
:1076200000410120DAF80050A84742E005F141008E
:1076300040F400408C21049A10F086FF04000FD023
:10764000CDF80090CDE901841C231E22DAF8005009
:107650004FF400410120A847584610F0EDFD28E006
:10766000304616F089FA423545F4004010F0E4FD4A
:107670007968C6EBC6000144039802680A608288F4
:107680008A808079887104984078800711D50B48EA
:1076900039781030FFF756FE08481D2310301E229F
:1076A0004078CDF80090CDE901804FF400410120F1
:1076B000B8E705B02046BDE8F08F00001433002085
:1076C000E001002000F65CBD00F652BE00F668BE88
:1076D00010B500F00BF806F075F80DF01DF912F07A
:1076E000DBFDBDE8104012F00BBE000010B50549EF
:1076F000054809F059FFBDE81040044947F67140BC
:1077000009F052BFA97621008194020049A7200008
:1077100010B50FF0C1FF0FF043FFBDE810400FF0B0
:10772000DBB80AF6F3B8000010B5040009D002F087
:107730001FF830B90448016819B120468847012074
:1077400010BD002010BD00000830002070B5CAB088
:1077500004464FF4827109A8FAF7BFFC208840F272
:107760000D228C4DA0F20D21904274D025DCB0F595
:10777000027F4CD011DCB0F5807F41D0A0F50070C5
:10778000073808D16088C8B3FEF7DFFB8DF8240006
:1077900009A8FEF705FC4AB070BDA0F500700B38D3
:1077A00046D00128F7D1608848B3FEF7CEFB8DF8AC
:1077B000240009A8FEF7F4FBEDE709AEF62970D026
:1077C0000BDCF4294ED0F529E5D16088002869D07A
:1077D000FEF7BBFB8DF82400B4E0F9297ED0A1F5BB
:1077E0004071F339D7D16088002878D0FEF7ADFB1F
:1077F0008DF8240009A8FEF7D3FBCCE703E026E0D0
:10780000FFF75AFCC7E7022015F040FBC0E760888D
:1078100038B1FEF79AFB8DF8240009A8FEF7C0FBEB
:10782000B9E768780028F8D1012015F02FFBF4E7BC
:10783000608838B1FEF789FB8DF8240009A8FEF7AF
:10784000AFFBA8E7032015F021FBF7E703E00120D9
:1078500015F01CFBADE7618C04F10A02606A15F0BB
:107860007FF998E7608820B1FEF76FFB8DF8240060
:1078700026E0207E15F0F6FA052015F007FB012022
:107880006870207E10B9207909F0ECFFA07CE17CC3
:10789000227D637DCDE90432CDE90610A07DE17D36
:1078A00001E053E03EE03CA24FF4B773CDE9003273
:1078B000CDE90210464B47A24CA10220FDF798FBF0
:1078C00009A8FEF76DFBEFF31084012080F3108808
:1078D000484900204A681060474A01E04AE04EE00B
:1078E000536818608860C8609060D060012114F00F
:1078F0004BFF0021012014F047FF0021022014F06B
:1079000043FF0121032014F03FFF0121042014F064
:107910003BFF1CB1012080F310883CE7002080F37E
:10792000108838E7012015F0B1FA207A33A14FF41E
:10793000C772CDE900210290254B26A22BA102207F
:10794000FDF756FB09A8FEF72BFB24E7608838B14A
:10795000FEF7FBFA8DF8240009A8FEF721FB1AE7D1
:107960002CA1701CFEF720FDADF82601012015F0BA
:107970008DFAF1E72079012100F03EFB0BE7E0886A
:1079800016F024F9E28824A1701CFEF70DFDADF875
:1079900026012FE7EC2D0020436F6E6E6563746542
:1079A000642077697468207468652070656572204A
:1079B000253032583A253032583A253032583A2557
:1079C0003032583A253032583A253032582E00009D
:1079D00099EB21002E2E5C5372635C757365725CAB
:1079E000757365725F6170702E6300004E4F5F5457
:1079F0004147000000CF002010CF0020446973638E
:107A00006F6E6E6563746564202830782530325857
:107A1000290000004F4B00004D54553A25640000EA
:107A200010B5FCF79DFE12F053FC01F00DFF10F0B5
:107A300021FA13F0B7FB0EF041FA12F03BFC02F012
:107A400039FF09F021FB01F09FFA09F0C9F8FFF7AF
:107A50005FFEBDE81040012001F0DABE2DE9F041E3
:107A600004460026EFF311850220FBF745FE07468A
:107A7000FBF79AFE0121401C81407818C0B280F3C8
:107A8000118804F0F5F907465CB10E4991F88600BB
:107A900010F00100A07106D0086F2060B1F87400EA
:107AA00006E0022605E000F0BDFF01682160808845
:107AB000A080384604F09EF9E8B280F31188304681
:107AC000BDE8F081F8D400202DE9F84F82463A480D
:107AD0001D46934600780F46C00716D00026EFF3E8
