:020000040020DA
:10200000E85701205921200045292000011E100019
:1020100043292000FB21200091292000000000001E
:10202000000000000000000000000000151E10006D
:102030004129200000000000472920004D292000F0
:1020400000F002F800F077F80AA090E8000C824453
:102050008344AAF10107DA4501D100F06CF8AFF230
:10206000090EBAE80F0013F0010F18BFFB1A43F076
:102070000103184760970000A09700000A444FF042
:10208000000C10F8013B13F0070408BF10F8014BD7
:102090001D1108BF10F8015B641E05D010F8016B1C
:1020A000641E01F8016BF9D113F0080F1EBF10F880
:1020B000014BAD1C0C1B09D16D1E58BF01F801CBA3
:1020C000FAD505E014F8016B01F8016B6D1EF9D526
:1020D0009142D6D370470000103A24BF78C878C127
:1020E000FAD8520724BF30C830C144BF04680C601E
:1020F000704700000023002400250026103A28BF66
:1021000078C1FBD8520728BF30C148BF0B60704769
:10211000642900F0BF80782900F02381732900F042
:10212000B283002070471FB509F0AFF900F010FB33
:102130001FBD10B510BDDFF810D0FFF7F4FF05F09C
:1021400019FB00F0BBFB0000E857012003B4FFF7C8
:10215000F0FF03BC00F0E7FE01488047014800475C
:1021600061292000A17920000FB4044910B503AA09
:10217000029800F08DFB10BC5DF814FBE02A0020F3
:102180000FB41CB5084B06AA7B446946009005981D
:1021900000F04FFB04460020694600F05DFB20463E
:1021A0001CBC5DF814FB0000CD06000070B50446B1
:1021B00085690068C10601D5302600E02026C007E9
:1021C00007D070BDD4E9012130469047206A401CF9
:1021D00020626D1EF6D570BD70B504468569007825
:1021E000C00707D170BDD4E9012120209047206AA3
:1021F000401C20626D1EF6D570BDFEE702F048B8A7
:1022000058585247010000003253000000202000BF
:10221000002020008BEB924700010000000000002E
:1022200000000000000000000000000000000000AE
:10223000000000000000000000000000000000009E
:1022400070B50C460546012A05D02878800600D5D1
:10225000EA69002302E0012305E05B1C934202D2FD
:10226000E05C0028F9D1A869E618C01AA861286ABC
:10227000184428622846FFF799FF04E0D5E90121B8
:1022800014F8010B9047B442F8D32846FFF7A4FF97
:1022900070BD00002DE9F041064600241068752944
:1022A000314616A510D0AFF30080002802DA404274
:1022B00013A507E031688A0701D512A502E0490796
:1022C00004D511A5012401E0AFF3008000210A220A
:1022D00006F1240709E0B0FBF2FCB0FBF2F302FBCD
:1022E0001C00303078541846491C0028F3D123468E
:1022F0002A463046BDE8F04100F03CBA000000003C
:102300002D0000002B00000020000000F0B40D465E
:102310000188090502D5214C7C4402E01F4C7C4415
:102320000E34002100F1240608E002F00F07120924
:10233000E75D42EA03721B097754491C52EA03071E
:10234000F3D102780023120704D5702D06D009B10D
:10235000022311342246F0BC00F00CBA01231034E1
:10236000F8E770B504460D4621461068AFF30080CB
:10237000024629462046BDE870400023C6E7D21D2C
:1023800022F00703D3E90023C0E70368126843F093
:10239000200303600823C3610023B7E71C940000F7
:1023A0002DE9F05F894604464FF0000ADFF874B16A
:1023B000FB44C0F820A02046E1688847002874D07C
:1023C000252806D0D4E901219047206A401C2062CC
:1023D000F1E700265F462046E16888472028054649
:1023E00007DB312D05D2781910F8200C08B106430F
:1023F000F1E7B00701D526F00406C4F81CA00027B9
:10240000C4F818A02A2D09D0284600F085FD38B35D
:1024100004EB8708303DC8F8185019E059F8041B40
:10242000204604EB87029161E1688847012F054649
:1024300018D1E069002820DA26F020061DE0D8F83F
:10244000180000EB800005EB40003038C8F8180099
:102450002046E1688847054600F05EFD0028EED181
:10246000012F0AD02E2D08D12046E16888477F1C15
:102470000546022F46F02006C4DBA069002803DAD7
:10248000404246F00106A061F00701D026F0100698
:102490006C2D0BD0682D09D04C2D39D06A2D35D03C
:1024A000742D35D07A2D33D016E038E0E1682F4610
:1024B00020468847B842054609D16C2F26D04FF4F4
:1024C0008060E168064320468847054604E06C2F9B
:1024D0001AD04FF4807006430DB3A5F141001928BE
:1024E00002D8203546F400664A4629462046266032
:1024F0004E46FFF70DFE80B101280BD0F61D26F0E9
:10250000070000F1080956E74020E4E78020D8E7FB
:102510000020D6E706F104094DE7284652E7206A75
:10252000BDE8F09FAC93000040EA010310B59B07A3
:102530000FD1042A0DD310C808C9121F9C42F8D02D
:1025400020BA19BA884201D9012010BD4FF0FF30DE
:1025500010BD1AB1D30703D0521C07E0002010BDF4
:1025600010F8013B11F8014B1B1B07D110F8013B80
:1025700011F8014B1B1B01D1921EF1D1184610BD61
:1025800010B5431C02E010F8011B71B18107FAD1AC
:102590004FF0013202C88C1A8C4314EAC211F9D0F0
:1025A000C01A0A0603D0C01E10BDC01A10BD0A040E
:1025B00001D0801E10BD0902FCD0401E10BD032AB0
:1025C00040F2308010F0030C00F0158011F8013B50
:1025D000BCF1020F624498BF11F801CB00F8013B37
:1025E00038BF11F8013BA2F1040298BF00F801CBFB
:1025F00038BF00F8013B11F0030300F02580083AD2
:10260000C0F0088051F8043B083A51F804CBA0E828
:102610000810F5E7121D5CBF51F8043B40F8043B7D
:10262000AFF30080D20724BF11F8013B11F801CBB2
:1026300048BF11F8012B24BF00F8013B00F801CB83
:1026400048BF00F8012B704710B5203AC0F00B804E
:10265000B1E81850203AA0E81850B1E81850A0E8A6
:102660001850BFF4F5AF5FEA027C24BFB1E8185000
:10267000A0E8185044BF18C918C0BDE810405FEA70
:10268000827C24BF51F8043B40F8043B08BF7047EC
:10269000D20728BF31F8023B48BF11F8012B28BFF1
:1026A00020F8023B48BF00F8012B704702F0FF03FF
:1026B00043EA032242EA024200F002B84FF000026D
:1026C0000429C0F0128010F0030C00F01B80CCF144
:1026D000040CBCF1020F18BF00F8012BA8BF20F8B2
:1026E000022BA1EB0C0100F00DB85FEAC17C24BF06
:1026F00000F8012B00F8012B48BF00F8012B7047B0
:102700004FF0000200B5134694469646203922BF8A
:10271000A0E80C50A0E80C50B1F12001BFF4F7AFD5
:10272000090728BFA0E80C5048BF0CC05DF804EBB7
:10273000890028BF40F8042B08BF704748BF20F825
:10274000022B11F0804F18BF00F8012B70470000DA
:1027500070B5064C7C44064D7D4403E0206820445F
:102760008047241DAC42F9D170BD0000BC90000030
:10277000BC9000002DE9F0470D469946924604466C
:1027800000F124080168880604D5E06921F01001F1
:10279000216000E00120A84201DD471B00E0002786
:1027A000A1697A1902EB0900081AA0612078C00615
:1027B00002D42046FFF7FAFC002608E0D4E9012104
:1027C0001AF806009047206A401C761C20624E458D
:1027D000F4DB2078C0060AD52046FFF7E7FC06E0C8
:1027E000D4E9012130209047206A401C2062381E25
:1027F000A7F10107F4DC07E0D4E9012118F805008E
:102800009047206A401C2062281EA5F10105F3DCD8
:102810002046FFF7E1FC2078000602D50220BDE843
:10282000F0870120FBE7000001694A1C026108787B
:10283000704700B58FB0CDE9013100210591054900
:102840007944CDE9031011466846FFF7A9FD0FB0A2
:1028500000BD0000E5FFFFFF0A6802F8010B0A60F7
:10286000704710B5436913B1AFF3008001E0FFF783
:10287000E7FC012010BD127800F124010A7000224B
:102880004A700122EDE711684FF0FF32E9E70000DE
:10289000074B70B50D467B44FFF7CBFF0446284637
:1028A00000F008F810B14FF0FF3070BD204670BD49
:1028B000BB250000007B00F08000704710B5044687
:1028C000AFF300802046BDE81040FFF73FBC00009A
:1028D00002480068001D02F08FBE0000D82A0020C8
:1028E00010B504F695FC10B101F02AFC10BDBDE84E
:1028F00010402BF67BBF000010B52CF663F80228C1
:1029000018D00D4CD4F8880220F00100C4F88802D9
:102910004FF0E0214FF00050C1F8800204F522741E
:1029200001F09AFD05484168491C4160206840F06B
:102930000100206010BD000000E00040A02B00203E
:10294000FEE7FEE7FEE7FEE703F008BBFEE7000058
:102950000249096801F007010170704700A00040BA
:102960000248016841F470010160704788ED00E0A1
:1029700002480068001D03F0A5BC0000D02A00201A
:1029800002484068001D03F09DBC0000D02A0020D2
:10299000FEE7002809DB00F01F02012191404009F9
:1029A000800000F1E020C0F880127047002809DBA9
:1029B00000F01F02012191404009800000F1E02059
:1029C000C0F880127047002809DB00F01F020121C7
:1029D00091404009800000F1E020C0F800117047EC
:1029E000002809DB00F01F0201219140400980000E
:1029F00000F1E020C0F800117047002804DB00F16E
:102A0000E02090F80004704700F00F0000F1E02093
:102A100090F8140D7047000002480068C0F30220CF
:102A2000704700000CED00E0EFF3108070470000ED
:102A30002DE9F0412DED020B9FED3D0B2DED028BAD
:102A40009FED3D8BDDE90254C4F30A50A0F2FF363E
:102A5000142E37DA002E18DA53EC102B9DED020BF2
:102A600051EC100B07F048FF53EC182B08F040FB1B
:102A700057D2002CBCBF4FF00044002551DB54EA74
:102A8000050018BF2E4C1BD14BE02E4820FA06F74C
:102A900004EA070028431FD053EC102B9DED020BD6
:102AA00051EC100B07F028FF53EC182B08F020FB1B
:102AB00037D2002C03DD4FF48010F0400444BC43B7
:102AC00000252EE0332E07DCA6F114004FF0FF3175
:102AD00021FA00F73D4206D19DED020BBDEC028BC1
:102AE00002B0BDE8F08153EC102B9DED020B51ECD0
:102AF000100B08F033FB53EC182B08F0F9FA10D246
:102B0000002C0DDD142E08BF641C09D0C6F1340062
:102B1000012101FA00F02844A84238BF641C054690
:102B2000BD43CDE902549DED020BD7E70000000044
:102B30009C7500883CE4377E000000000000000027
:102B40000000F03FFFFF0F0080F310887047000087
:102B50002DE9F74F07460298DFF86CA1DFF86C818A
:102B60004FEA500B5A48019D5C465646CAF8000091
:102B7000D8F804203F2060F30502C8F80420DAF8F2
:102B8000000020F4700040EA0750CAF80000DAF8AC
:102B9000000020F4702040EA0740CAF800000D2F22
:102BA00002D00E2F04D007E0306840F4004002E06D
:102BB000306840F480403060306840F4005030604D
:102BC000306820F060503060306820F00F0040F036
:102BD00003003060002000F0AFF8012872D13168A6
:102BE000B24641F0804131600020424609E0D8F809
:102BF000083043F48033C8F80830811C00F101002C
:102C000005D091689046C1F300210029EFD107203B
:102C100000F092F8012855D142E000264FF47A796D
:102C200024E04E451ED9DAF8001021F08041CAF8A0
:102C30000010DAF8001041F00041CAF80010DAF88C
:102C4000001021F00041CAF80010002000F074F8D4
:102C5000012837D11F484169491C41610520FDF514
:102C600061FF7FE70120FDF55DFF761CD8F80800C5
:102C7000C0F300200028D4D0D8F80800434600F064
:102C80007F02A24200D92246002006E0196825F8FA
:102C9000021B090C25F8021B401C9042F6D3A41A13
:102CA000002CBAD10298C00707D040468168C1F312
:102CB00000210029FAD000682880BDE8FE4F0020DE
:102CC00000F03AB8BDE8FE8F00A8004000E00040E8
:102CD0000A070807A02B00202DE9F04112490446FD
:102CE00000200860104980390860104D686A104E55
:102CF00000F00101494201403062C8050DD440F2A4
:102D00000117A869B84208D024B10120641EFDF55E
:102D100009FFF6E70020BDE8F08106480068B061D1
:102D20006868F0610120F6E794581C4200E000401A
:102D3000A02B002000A800402DE9F041104F0546CF
:102D4000F868C0F30240A84217D0F86820F00700E6
:102D50002843F86000244FF6FF76F868C0F302407D
:102D6000A84205D00120FDF5DDFE641CB442F4D379
:102D7000B44202D10020BDE8F0810120FBE7000051
:102D800000E00040F0B50C462DED088B89B00646FA
:102D90009FED559B20216846FFF7B2FCB0EE498AB3
:102DA000F0EE698A102269463046FFF7D1FE002511
:102DB0006F4607EB4500008A08F007F853EC182B24
:102DC00007F09AFD6D1C41EC180BEDB2082DF0D305
:102DD0009FED470B51EC180B53EC102B08F08AF8C1
:102DE00041EC180B9FED44BB0D2E02D00E2E30D0BF
:102DF00072E0608807F0E9FF53EC1B2B07F030FE10
:102E00009FED3F0B41EC190B51EC100B07F067FDE8
:102E100041EC1A0BE08807F0D8FF53EC1A2B08F0AE
:102E200069F841EC1A0B208807F0CFFF53EC182B00
:102E300008F094F953EC1A2B07F012FE9FED321BA9
:102E400053EC112B07F00CFE53EC192B07F054FD3B
:102E500040E0A07EFF2801D0E8B13DE09FED2C0BC3
:102E600051EC100B07F03BFD41EC1A0BE08807F02A
:102E7000ACFF41EC190B208907F0A7FF53EC182B8E
:102E800008F06CF953EC192B07F0EAFD53EC1A2B00
:102E900008F030F81EE0A08807F097FF41EC190B0E
:102EA000E08807F092FF07F01AFD41EC1A0B208929
:102EB00007F08BFF53EC182B08F050F953EC1A2B4A
:102EC00007F0CEFD53EC192B08F014F853EC1B2B34
:102ED00007F0C6FD41EC190B09B0B0EE490AF0EE5F
:102EE000690ABDEC088BF0BD000000000000000086
:102EF000000000000000C03F00000000000059403A
:102F00000000000000000040DE718A8EE4F25FBF26
:102F1000E2E1E1E1E1E10E4030380A2801D201208E
:102F2000704700207047704770B504466FF0130576
:102F3000552801DB06200FE0412C0ADA2D2C01DB9D
:102F4000042009E014F10A0F01DB032004E0AC4285
:102F500001DB052000E0072003F0F8FF06F0CCF8C5
:102F6000A8B10F480068C0F3805080B904F1140183
:102F70000C48142902D240F2DC5106E0AC4202DADD
:102F80004FF4AF6101E04FF4C8614161C16106488F
:102F90000168002903D02046BDE87040084770BD95
:102FA00014A80040684000203C2D002010B51A49AC
:102FB00040F21A444FF4B9720B694FF496710C3B0E
:102FC000A3420FD90424BE2801DC0C241BE0DC281A
:102FD00001DC082417E0FA280EDD884210DD90425B
:102FE00011DD0FE0BE2801DC0B240CE0DC2801DC45
:102FF000072408E0FA2801DC062404E0884201DC0A
:10300000052400E00324204603F0B4FF2046BDE879
:10301000104003F091BF00006840002006480749B7
:103020000A68C2F3400212B1401EF9D102E008B1B1
:10303000002070470320704720A1070038A70040F8
:1030400070B50E484FF4FA610160491041600C49B7
:1030500000F046F800244FF496752846FDF55CFD17
:1030600000F070F8214607A0FFF77EF8641C0A2CD8
:10307000F3D3BDE8704008A0FFF776B81C3B0020F2
:10308000C53020000D0A20256474682066656564DB
:1030900020646F672E0D0A000D0A53797374656DF5
:1030A0002077696C6C2072657365742E0D0A0000C0
:1030B000034800680068002800D0004770470000FF
:1030C000D82A002001A0FFF74FB800006170705FA0
:1030D000616F6E5F7764745F6576740D0A0000003F
:1030E00070B50D46002823D0124C00F10802226072
:1030F00003C8C2E90101101D02F062F9002816D1CF
:1031000020680D490161001D02F094F900280ED1DC
:1031100020680560012101750849162005F02EFB85
:1031200007494FF48000C1F8FC01C867002070BD5A
:10313000E52070BDD82A0020002B0020D1282000D7
:1031400084E000E010B507480068002807D0017D42
:1031500029B1001D02F06AFA0028FFD110BDE92054
:1031600010BD0000D82A0020014805F055BB000022
:10317000E42A00202DE9F041014600291BD000245B
:103180000F4E0E4A357814E002EB04100F780378E6
:10319000BB420CD14B684068034208D0707808B934
:1031A00000F01CFB2046BDE8F04100F04BBA641C67
:1031B000E4B2AC42E8D3BDE8F08100005435002011
:1031C000F02A00207CB505460E46002D01D00024D3
:1031D00018E0E5207CBD05EB041041680091017A00
:1031E0008DF80410417A8DF8051000218DF8061035
:1031F000C26800780023694600F036F80028E9D15B
:10320000641CE4B2B442E6D300207CBD10B5024693
:103210000846052A24D2DFE802F00303031119004F
:10322000104951F832200104090C05D022B10146A1
:10323000104602F077FC0FE0E42010BD10F0FF0F05
:1032400002D001F0E7FF07E0E42010BD810505D0C2
:103250000146002002F018FD002010BDE42010BD42
:10326000E62010BD7CB520002DE9F05F05460C4638
:103270009046994626680027042D11D031462846ED
:10328000FFF7C4FF2146284600F068F8002808D15F
:10329000032D08D04FF0100A2807070E002451E034
:1032A000E620BDE8F09F4FF0080AF7E7F00746D0A8
:1032B0003DB1012D05D0022D03D0032D27D0E620EE
:1032C000EFE7244800EBC50090F904B0BBF1000F14
:1032D00017D0EFF31081012080F310881E4AE01907
:1032E00042F8308002EBC000C0F8049059B10120D0
:1032F00080F31088584602F033FD584602F03DFD39
:103300001DE0E420CDE7002080F31088F2E7EFF322
:103310001081012080F310880F4AE019703242F8C2
:10332000308002EBC000C0F8049079B1012080F336
:103330001088152002F014FD152002F01EFD7608FD
:10334000641CE4B25445B1D30020AAE7002080F306
:103350001088EEE77CB520002833002030B597B008
:1033600005460C461C22414910A8FFF76DF91C22A6
:103370003E491C3109A8FFF767F920223B49383143
:1033800001A8FFF761F994B13949062005F0F6F973
:103390003849152005F0F2F934496C39A1F12C02B5
:1033A000052D60D2DFE805F0060606213900E5208C
:1033B00017B030BD207931F810001190607932F8E3
:1033C00010001290A079139020681090274884383C
:1033D00050F8350021880904090C04D018B110A94F
:1033E00002F02DFC38E0E420E2E7207901EB400018
:1033F000808A0A90607902EB4000C0880B90A07927
:103400000C9020680990207810F0FF0F03D009A8D5
:1034100001F068FF20E0E420CAE72079031F042BB5
:1034200001D8E720C4E7022818D0012002902079B3
:1034300001EB4000008D0390607902EB4000808931
:103440000490A0790590206801902088800508D01C
:1034500001A9002002F074FC0020A9E702200290DC
:10346000E5E7E420A4E7E620A2E7000000B620009C
:10347000791E1000751E100002460020052A11D288
:10348000DFE802F0030303090C00074850F832009C
:1034900089B202F0F2BB88B201F084BF89B2002089
:1034A00002F050BC704700007CB52000002803D01B
:1034B000024908600120704700207047F82A002068
:1034C00070B505460024091F062917D2DFE801F070
:1034D00003070C111315284600F0A4F80EE0012490
:1034E000284600F09FF809E00224284600F09AF8E8
:1034F00004E0032402E0042400E00524034A2146FA
:1035000028461268BDE8704010470000F82A0020E5
:103510002DE9F0410446204600F0AEF801462E4861
:1035200000230826025D00F10A0700F11405AAB184
:10353000052A33D0082A2AD1092945D0082926D1BD
:10354000295D491CC9B22955142920D32B5506558C
:103550002046BDE8F0410821FFF7B2BF052913D08E
:10356000042916D0072914D0082910D1295D491C37
:10357000C9B2295514290AD32B5506552046BDE852
:10358000F0410821FFF79CBF3B5505210155BDE8DF
:10359000F0812046BDE8F041FFF792BF05290CD02D
:1035A000395D491CC9B239553229F0D3035520463B
:1035B000BDE8F0410521FFF783BF03552046BDE874
:1035C000F0410621FFF77CBF03552046BDE8F041DE
:1035D0000921FFF775BF00003436002070B504469E
:1035E0000D4600F00FF808B100F00EF90348044A48
:1035F0002946005D5268BDE87040104748350020FC
:10360000F02A00200020064911F810200AB10020FD
:103610007047401CC0B20A28F6D301207047000052
:10362000523600200349002201F8102001EB40002F
:103630004270704752360020014A02F8101070475D
:1036400052360020024A012102EB400041707047CF
:103650005236002070B50024064D05EB440040783A
:1036600010B12046FFF754FF641CE4B20A2CF4D3D7
:1036700070BD00005236002070B500211D4B03F1D3
:1036800032051A5C002A09D0002403F10A06012A37
:103690000AD0022A12D0032A24D11FE015F81020E4
:1036A00002B301221A541DE015F810201AB1345447
:1036B00002221A5416E01C54042113E015F81020BD
:1036C0004AB1325C521CD2B23254642A0AD3072166
:1036D00003221A5406E005211C5403E015F81010CB
:1036E00011B10821084670BD1C54FFF79BFF09214A
:1036F000F8E7000020360020704700002DE9F04177
:103700000E4617460A2E02D80FB100231AE00020F9
:10371000BDE8F08103EB430400EB8405114AA97A6C
:10372000D154104910F824200C3101EB03142270FD
:1037300069686160297A2172697A61720A49E16077
:103740005B1CDBB2B342E5D3064831460C30FFF7D1
:1037500039FD0648067047600548FFF7A7FE0120BF
:10376000D6E700004835002075312000F02A0020FF
:10377000DD3520002DE9F0410024124FDFF84880AC
:1037800019E0002607EB041528786968FFF774FE36
:1037900010B9697A012902D0012802D005E001267A
:1037A00003E0687A022800D1012631462046FFF75F
:1037B00043FF641CE4B298F800008442E1D3BDE802
:1037C000F081000054350020F02A002010B5FFF7EA
:1037D000D1FFBDE81040FFF73DBF000010B5074A1C
:1037E0000121074800F060F800220A21044800F097
:1037F000B1F904490120487010BD0000CD37200008
:10380000F8350020F02A002010B5034800F07AF8BF
:1038100002490020487010BDF8350020F02A002031
:10382000002806D0002904D0024AD269002A00D01C
:10383000104770472035002070B50D4616460D4CD8
:1038400000280AD00178032911D80121A176014668
:103850001A222046FEF7B3FE05E00020A0761A21CA
:103860000448FEF74DFFE5612662002070BD01208F
:1038700070BD00002035002010B5084801780029EF
:103880000AD10121017006482BF60CF8BDE8104062
:10389000002104482BF608B910BD0000CC2A0020F6
:1038A0001D1E1000998220002DE9F04104460D46AE
:1038B0001746002D04D0012D02D00120BDE8F08173
:1038C000E4B1DFB1607801281AD0EFF3118602204D
:1038D000FFF793F88046FFF79FF8401C01218140D5
:1038E00008EB0100C0B280F3118800206070A57061
:1038F000E761F0B280F311880020DFE70120DDE707
:103900000620DBE710B50446002C0CD0204600F062
:10391000B3F9FF2060700021A160E1602161616165
:103920000020E06110BD012010BDF0B5DDE90745C4
:10393000059981614FF47A76A2FB061C03FB06C34E
:10394000002702FB0732C0E9021209196A41C0E9E7
:10395000041200210162F0BD2DE9F0410446002C63
:1039600013D0EFF311850220FFF747F80746FFF762
:1039700053F8401C012606FA00F03844C0B280F328
:1039800011881248002121620EE00020BDE8F0817C
:10399000D4E90432D1E9047CDB1B72EB0C0202D2C5
:1039A000016A216203E00846016A0029F0D104623D
:1039B0006670064810380168491C0160016B41605F
:1039C000E8B280F311880120E0E70000E83300202E
:1039D0002DE9F04105460024EFF311860220FFF7A0
:1039E0000CF80746FFF718F8401C012181407818B1
:1039F000C0B280F31188134A106BE8B115B102F11F
:103A0000100010E00446206A10631068401E106029
:103A10000CE0A94206D11168491E1160296A0162B1
:103A20002C4603E00846016A0029F2D124B10020A7
:103A300020626070106B5060F0B280F311882046F5
:103A4000BDE8F081D83300202DE9F041EFF3118774
:103A50000220FEF7D2FF0446FEF7DEFF401C0121E4
:103A600081406018C0B280F31188114D002608E033
:103A70002078012804D1E16909B1A069884726703E
:103A80002D6A2C6A002CF3D1094D103D07E0E16945
:103A900009B1A06988472670206AA8632662AC6BCA
:103AA000002CF4D1F8B280F311880120BDE8F08138
:103AB000E83300202DE9F041EFF311870220FEF7F3
:103AC0009CFF0446FEF7A8FF401C012606FA00F002
:103AD0002044C0B280F311881D4DA5F110082DE0DF
:103AE000D4E90430D8E902125B1A60EB0200D8E98D
:103AF0001021D21A814124D326702046FFF768FF97
:103B0000A078012806D012482830002121620168DF
:103B100061B10FE0D8E90220D4E9021351185841ED
:103B2000C4E904102046FFF717FF07E0046005E032
:103B300001F1200001680029FAD104602C6A002CF0
:103B4000CED1F8B280F311880120BDE8F0810000E9
:103B5000E83300202DE9FF5F82460E4693464FF082
:103B60000008BAF1000F20D0414886421DD8E6B1C6
:103B7000EFF311870220FEF740FF0446FEF74CFFEB
:103B8000401C012181406018C0B280F3118850466A
:103B900003F092F810B19AF8010040B1F8B280F346
:103BA00011880F2004B0BDE8F09F0120FAE703F070
:103BB00015FD04460D464FF47A7106FB01F02246CE
:103BC0002B46002102F062FFDFF8A890B0B1D9F8CF
:103BD000040048B1D0E90410091B60EB0500C9E9F5
:103BE000021003F075FD04E00021C9F80810C9F8BF
:103BF0000C104FF00108D9E9020106E0D9F80400E1
:103C0000D0E90421101B61EB0501CDE90201324628
:103C10000023CDF800B05046FFF787FE5046FFF76F
:103C20009BFE04F0B9FC4FF0E024D4F800014FF4FF
:103C3000801510F4801F01D0012000E0002020B981
:103C40001420FEF7A6FEC4F80051B8F1000F0AD008
:103C5000D9F80400D0E90431D9E90202181A61EB5D
:103C6000020103F0F1FCF8B280F31188002099E71B
:103C7000008AB907D83300202DE9F0410446002519
:103C8000002C39D0EFF311870220FEF7B6FE06466E
:103C9000FEF7C2FE401C012181407018C0B280F3C3
:103CA00011886078012824D1144E7068A0420BD18D
:103CB00003F094FCD4E90432181A62EB0102C6E95D
:103CC000020203F005FD01252046FFF781FE5DB1EC
:103CD000706848B1D0E90421D6E90203101A61EBFB
:103CE000030103F0B1FC04E01DB9706808B903F0EA
:103CF000EFFCF8B280F31188BDE8F081D8330020E2
:103D000070B504461A4D55F82400703004F0A9FB34
:103D100082B21646A2B155F8240090F8011101298B
:103D20000ED0012180F80411802A0FD355F8240009
:103D3000802200F18001703004F0AEFB80260CE0A0
:103D400055F82410002081F8000170BD55F82400BA
:103D500000F18001703004F09FFB55F824003246DA
:103D600000F18001001D02F0A7FB0028EDD170BD1D
:103D7000D02A0020704700002DE9F8430446534F35
:103D800057F82400061D022C7ED290F86C100029F2
:103D90007AD0012978D190F80011012974D190F8D6
:103DA0000111002970D1012180F80111002157F87B
:103DB0002400D0E903231344027D02F00102D21D46
:103DC0009D184268D36FC3F38003002BFAD090F89C
:103DD0000421A2B13E4A1368491C90F83B20102AE6
:103DE00006D08268B3FBF2F26A43B1EBC21FF3D98B
:103DF00057F82400703004F034FB85B226E0B0F8A8
:103E00002480C58C001D02F0EFF857F8240041F221
:103E1000883300EB0801491B8031001D2A4602F05F
:103E200004FBE5E757F8240001227030694604F0EE
:103E300033FB57F824004068C16FC1F340010029EB
:103E4000FAD09DF8001001606D1EADB2002DE9D1D1
:103E500057F82400703004F004FB0028C8D1306803
:103E600041694906FCD5EFF31085012080F31088E5
:103E700057F82400703004F0F4FA78B1EFF31081B1
:103E8000012080F3108800E015E03068426842F0BD
:103E90008202426089B1012080F3108857F8241013
:103EA000002081F8000157F8241081F8010145B184
:103EB000012080F31088BDE8F883002080F310888B
:103EC000ECE7002080F31088F5E70000D02A0020FE
:103ED0005C0000202DE9F04105460F46002D06D07C
:103EE0002AB12C78022C04D3E820BDE8F081E5202B
:103EF000FBE7304E05F1580046F82400D2E90031C6
:103F00000A467030194604F091FA291D286D05F013
:103F100003FF0028E9D156F82410281D486656F8FA
:103F20002400076056F824001822083005F14001EB
:103F3000FEF78AFB204856F8241000EBC405686899
:103F4000486056F82400001D02F0AEF856F8240030
:103F5000001D02F04BF9184801220321103804F02B
:103F6000EBF956F82410012081F86C0056F8241063
:103F7000002081F8000156F8241081F8010156F85C
:103F8000241081F8020156F8241081F803010B492E
:103F90000C2004F0F3FB0A490D2004F0EFFB95F927
:103FA000010001F0DDFE95F9010001F0E6FE0020C0
:103FB0009BE70000D02A002068B62000712920006D
:103FC000812920002DE9F04104461A4D55F82400BE
:103FD000703004F046FA82B2164600277AB155F8DE
:103FE000240090F80111012909D0802A0ED300F194
:103FF00080017030802204F04FFA80260BE055F8E3
:10400000240080F800710020BDE8F08100F18001FB
:10401000703004F041FA55F8240080F8047155F826
:104020002400324600F18001001D02F0ABFA0028A6
:10403000EAD1E9E7D02A002070B5022801D3E820B0
:1040400070BD104D55F8204064B194F86C604EB1CD
:1040500051B14AB15E1C09D044F62066B34205D97D
:10406000E42070BDE52070BDE42070BD002684F81A
:10407000026155F82000001D02F0D7F90028F4D1A4
:1040800070BD0000D02A00202DE9F84F294D804650
:1040900092460E4601F10804A8F58041264A686858
:1040A000B1F5804F01D25168401A844202D90520EF
:1040B000BDE8F88F28681369411E9268C1F30B01AF
:1040C000411A9A1A01F6FF716B7AC1F30731C91AC6
:1040D00002EBC101081A001F844225D9174F0024A2
:1040E000009411231E224FF40049D7F800C049461E
:1040F0000120E0470021084600F0B4FE40B10094E2
:1041000013231E223C6849460120A0470A20CFE71E
:10411000687A02F0EDFB0028CAD1009412231E2217
:104120003C6849460120A04752463146404606F0C9
:1041300049F9BDE7D83D0020542B0020E0010020C4
:104140002EF6DABC10B500F047F800F005F8BDE82F
:10415000104000F025B8000000B587B003228DF8AC
:1041600004202020029005218DF80C1001208DF8EC
:104170000D0000238DF80E308DF81020802205925E
:104180008DF818108DF819008DF81A00034A0221D5
:1041900001A8FFF7B3FA07B000BD0000F936200010
:1041A0007CB50820009002248DF804408DF805406D
:1041B00000258DF8065069460320FFF7CFF8102040
:1041C00000908DF804408DF805408DF80650694642
:1041D0000320FFF7C3F87CBD00B587B000F01EF8E0
:1041E00003208DF800001D208DF8160001208DF8A9
:1041F00017008DF818008DF81900044A0449684624
:10420000FFF71AFBFEF7B0FF07B000BD1542200014
:10421000814220000020FFF7AFBD00007CB51448AC
:1042200000904FF4806001901248002101704FF41B
:10423000E1320264032242648164C16401650123A6
:1042400043650274022444610825457403760271B3
:10425000836007234371017307494163816380F8D9
:104260003C4080F83D206A460449FFF733FE7CBDA0
:10427000942D00209431002000400140753D200025
:104280000A4601464FF47A730020FFF7D5BE0000BE
:10429000194810B50068C0F3000038B11648083856
:1042A0000068C0F3000008B104F0F4F91348006896
:1042B000C0F3000038B1114808380068C0F30000AE
:1042C00008B100F003FC04F05DF9002813D002F0FF
:1042D000F5F900280FD000210C2001F0C9FD0120C4
:1042E000FEF616F90648816821F480718160054860
:1042F00000218170C17010BD08E4004008E5004055
:1043000000A00040742B002000B504F03BF920B160
:1043100002F0D4F908B1012000BD002000BD00006A
:1043200010B510491E2004F029FA04F02BF9A8B1A9
:1043300001210C2001F09CFD0120FEF6E3F80A4962
:10434000012008700949D1F8801211F4403F00D1D2
:10435000002004F071F91E20FEF735FB00F05CFB35
:1043600010BD0000FD212000742B002000A00040A3
:104370000449034808600549034808607047000085
:10438000E5271000A00100207F28100088010020F0
:104390002DE9FC4188460446164D4FF6FF76164F30
:1043A00021E0A968082201EB0030694603F0A4F877
:1043B000082802D00B20BDE8FC81BDF80000B04207
:1043C0000ED00C489DF800101430C170BDF80210DA
:1043D00081809DF8012088F800202178417006E056
:1043E0002078401C20702078797A8842D9D3002028
:1043F000E1E70000542B0020D83D0020124810B502
:10440000016821F00041016010490A78497842EAC8
:104410008103011D0A6863F31F720A60016841F09D
:10442000004101600A48D0F8881241F00101C0F84B
:10443000881208491D2004F0A1F94FF0E0214FF047
:104440000050C1F8000110BD04A90040A02B0020BD
:1044500000E00040F9282000F8B5EFF310860120B5
:1044600080F3108806208DF800006846FEF770FA89
:104470000220FCF55DF83220FCF554FB184C206856
:1044800020F400302060251F286840F002002860DA
:10449000144F7889FCF546FB286820F0020028605C
:1044A000B889FCF53FFB9DF80000FCF541F80C488D
:1044B0003830016889020CD400682168C0F30440D8
:1044C00041F400312160216821F4F83141EA0030E3
:1044D00020601EB1012080F31088F8BD0020FAE7AB
:1044E00008A90040542C002070B504460068164608
:1044F000421EC2F30B02821A0025831902F6FF72D4
:104500009A4200D80825324603F03AF82168721919
:104510001144216070BD000002004FF0010007D07F
:1045200031B11268034B9A4202D108220A707047D7
:104530000020704700400140F8B5044611200D46A8
:104540008DF8000069462046FFF7E6FF012824D1D8
:104550009DF8001088401249096808421DD0C5B96D
:10456000EFF31086012080F310880E4920680025A3
:10457000884200D10C4D002455F8240008B101F008
:1045800092F9641CE4B2052CF6D33EB1012080F30D
:1045900010889DF8000001F013FCF8BD0020F6E73C
:1045A000142D0020004001400C410020F8B5060009
:1045B0004FF011000D468DF800004FF0000414D0AC
:1045C00069463046FFF7A8FF01280CD1012D00D025
:1045D0001DB93068D0F8A00300B1012421469DF830
:1045E000000001F045FC86F82950F8BD08B51121FE
:1045F0008DF800106946FFF78FFF012803D19DF861
:10460000000001F021FC08BD00B500F007F80249E8
:104610000120886100BD00008C3F002030B5084CAF
:10462000012504F8045B84E80F000648241F806815
:10463000884201D2081A00E0401A606130BD0000D3
:1046400024400020882B002010B502F0B1F8044669
:1046500018210548FEF754F8034A0021204611703E
:10466000BDE8104000F018B924400020F0B40E4618
:104670000146224F2048BB680578C0E908219942CD
:1046800001D9CC1A00E05C1AFF68A7420AD28769F8
:10469000A74201D9C0E90642012D09D0022D1FD041
:1046A000032D27D113463246F0BC0020FFF7ACBFE4
:1046B00041619942016902D9491C816002E0491EA9
:1046C000C1608168C268914206D211444908016103
:1046D00001210170016909E002210170816805E092
:1046E000C3699342DED00321017019463046F0BC05
:1046F00000F006B8F0BC7047CC3F0020882B0020AB
:10470000054A936A5B1C93628AB2C1B20348044BA8
:10471000406801F0E1BF0000CC3F0020882B002062
:104720006D46200070B50E4C05462C212046FDF745
:10473000E7FF0020A06040F2FF10FF22C4E903025F
:104740004FF0FF30A061A06AE9B2401CA0620120D6
:1047500020700448044B4068BDE8704001F0BCBFC5
:10476000CC3F0020882B00206D4620002DE9F84327
:10477000254C0746904620780D4601280BD002288C
:1047800013D008201346E0610A4601B03946BDE85F
:10479000F043FFF739BF40F2FF11C4E90371284627
:1047A000BDE8F843022200F061B800260096684692
:1047B000676100F02BF870B1012810D0022817D0E3
:1047C00003281FD0072043462A463946E061FFF7F9
:1047D0001BFFBDE8F8832846FFF7A4FFF9E70F2D7C
:1047E00004D201223146681CA66006E00520EAE7F3
:1047F00035B101220021681EA66000F037F8E8E715
:104800000620E0E70098DEE7AC3F002010B516492F
:10481000144A144C0B698968D26864698A4201D9C8
:104820008C4219D88A4201D28C4211D38A4201D9D2
:10483000521A00E08A1A8C4201D9611A00E0091B61
:104840009A4203D3994201D3002010BD9A4201D26B
:10485000012010BD994201D2022010BD0321016048
:10486000084610BDAC3F0020882B0020074B30B419
:104870009C69641C9C6158601A708AB2C1B2044879
:10488000044B406830BC01F027BF0000AC3F002063
:10489000882B00206D47200070B5074C054620216D
:1048A0002046FDF72DFF00212846A160BDE870409D
:1048B0000122FFF7DBBF0000AC3F0020F8B51D4C24
:1048C00000250E460095E169491CE161C4E90162D9
:1048D000E168C4E9030118498968814201D2401A9C
:1048E00000E0081A6169814201D9C4E905026846FD
:1048F00000F024F840B101280BD002280FD0032883
:1049000011D00098A06200E0A562204600F098F85F
:10491000F8BD012084F820003046A16906E0A168B6
:104920003046491C02E0A1683046491E00F04AF8B2
:10493000F8BD0000F83F0020882B0020F0B51F4A8A
:104940001F4DD368A9688B4201D95C1A00E0CC1ACC
:10495000ED68A54210D2576A012F0DD092F8204081
:10496000012C09D0154CD6694FF0010CA569A4683B
:10497000BE4203D3A54213D10020F0BD012E08D9B9
:1049800016698E4201D98B42F4D38E4201D28B42FA
:10499000F0D88B4208D9B4F5FF7F08D9092109E086
:1049A00082F820C00120F0BD1CB10320F0BD022020
:1049B000F0BD0A2101600420F0BD0000F83F002096
:1049C000882B00208AB2C1B20248034B406801F034
:1049D00083BE0000882B0020BD48200070B50D4626
:1049E000044616462C210948FDF78AFE074B002095
:1049F000B2B283F82000401E5C6258610448E9B2FC
:104A0000044B4068BDE8704001F066BEF83F0020EE
:104A1000882B0020BD48200010B501F045FE00287D
:104A20000AD00648007818B1BDE8104000F02EB852
:104A3000BDE81040FFF708BE10BD00002440002074
:104A400000B500F007F802490120886100BD0000B0
:104A50008C3F00200B4901220A71826A8A60C26978
:104A6000CA60C2680A6142684A6182688A61C26833
:104A700005488068824201D9101A00E0801AC86196
:104A8000704700003C400020882B00202DE9F041B9
:104A900001F08EFE804601F09DFE07460A48094C53
:104AA0002021466925682046FDF72AFE6D1C00205E
:104AB000256020713A4641463046BDE8F041FFF797
:104AC0008DBF00003C400020882B002010B50E4C0C
:104AD0002069401C206101F08FFEE06001F068FE5B
:104AE000606001F077FE094A0021A06011606161F9
:104AF000E3692BB102462179E068BDE81040184710
:104B00000120A06110BD00008C3F002000E50040A6
:104B100070B5164890F80014154D28680122C0F3AE
:104B20000220401C82408818C0B280F31188114CCA
:104B30000F4821680C306268A36880E80E002322C9
:104B400004F10C010C48FDF77FFD216B4FF0E020D4
:104B5000C0F80011616BC0F80411A06B2860074811
:104B60004068C0B280F3118870BD000002E000E030
:104B70000CED00E0D040002000E400E04C2C0020D0
:104B8000EFF311800D4948604FF0E021D1F800218A
:104B90000B480263D1F8041141630A4909680A4AC3
:104BA00089B21143816307490C310EC9016042602B
:104BB0008360232205490C30FDF746BD4C2C0020B4
:104BC000D04000200CED00E00000FA0500E400E019
:104BD0002DE9F04106460F461C4C4FF6FF75238C1D
:104BE000102B0AD3208821466084CD835B1E0B8462
:104BF0001E22891C2046FDF7E2FC608C32463946B5
:104C000003F0FEF810B10C20BDE8F081208C1028D4
:104C100004D3401C2084608CE08308E0618C24F87D
:104C20001010208C401C2084608C401C608400F09C
:104C30000FF80028E8D0218C491E89B22184628CAB
:104C4000521E628424F81150DEE70000683A00200A
:104C500010B5054A24214FF4204003F0D1F808B1E3
:104C60000C2010BD002010BD683A00207CB50E4D10
:104C70004FF6FF76AC68083408226946204602F0F9
:104C800043FCBDF80010B1420CD059B1BDF8020090
:104C9000083081B2204600F02DFA0446286984428B
:104CA000EAD37CBD20467CBD542B00202DE9FE4379
:104CB0000D4607466A4604F03FFFE0B91648009CDF
:104CC0000CB98468083400264FF6FF7980460096B8
:104CD000082201A9204602F017FCBDF8040048454F
:104CE00002D12E80009606E0B84207D115B1BDF87A
:104CF0000600288000940098BDE8FE83BDF80600F9
:104D0000083081B2204600F0F5F90446D8F81000CA
:104D10008442DDD3E5E70000542B002008B503F002
:104D200017F903F03BFE01208DF80000A3208DF859
:104D3000010002208DF802000098FDF5E7F801203F
:104D400002F0A7FE03F0C6F803F042F903F02AF9D7
:104D500003F0E6FD002809D00548016A21F00101B1
:104D600001620448016821F08001016008BD000073
:104D700000A0004000A9004002494968002900D075
:104D8000084770476C2D002070B5044600BFFDF742
:104D90004BFE05460120FDF7D7FE0948047024B9F3
:104DA000482208490848FDF74FFC1DB90020FDF7CF
:104DB000CBFE02E00120FDF7C7FE00BF70BD000082
:104DC000FC2A0020843B0020002000E010B50748AA
:104DD00040680749486006480830402203490831C6
:104DE000FDF732FC03200249086010BD3C3B002067
:104DF000002000E0002003490968002900D008478E
:104E0000704700006C2D002070B500BFFDF70CFE50
:104E100005460120FDF798FE0B48047834B9482276
:104E20000A490B48FDF710FCFFF7D0FF01200649A7
:104E300008701DB90020FDF787FE02E00120FDF794
:104E400083FE00BF204670BDFC2A0020002000E049
:104E5000843B002013B501216846FEF7E1FC0120E8
:104E60001CBD00002DE9F04F8DB00822ADF82420C4
:104E70000022DFF848828DF820204FF008090192C7
:104E80008DF8081016464FF0010BE8B3082203A96D
:104E9000D8F80C0002F030FB08287CD19DF80C00FB
:104EA000A52809D008F11400C188ADF82410447871
:104EB00080788DF8200049E09DF80D00D8F80810A2
:104EC000022201EB00306946083002F015FBBDF804
:104ED0000010A1F57F40FF380BD09DF80D00D8F8E9
:104EE000081001EB00304FF4805102F0EDFA002879
:104EF0007DD0BDF81210ADF824109DF80D109DF86E
:104F00000E00491CCCB200E00AE08DF8200002AB94
:104F100009AA08A903A805F07BFB012868D015E0C1
:104F2000FFF7A4FE411EC1F30B01401AD8F8081088
:104F3000401AFF2100F6FF7001EB103010F0FF0463
:104F40008DF8204002D08DF808B0012604F05CFDF9
:104F5000ADE00025059506954CB1D8F8080004226F
:104F600000EB043005A902F0C7FA042813D1534816
:104F7000A521C8F814501430C8F8185001704470B6
:104F80009DF820108170BDF82410C1809DF8141088
:104F90004746C17000E04EE0BDF816108180D8F899
:104FA000080000EB043101EB09000190F86800EB08
:104FB000090107914FF4805102F086FAB8B19DF8CB
:104FC00014202AB1012307A901A805F0F9FA90BB22
:104FD000BDF816202AB1002307A901A805F0F0FAB0
:104FE00048BBC4F1000A0198B968411A01E04BE0DE
:104FF00062E001EB0A30C0F58055082DCDF800B015
:105000001ADD08230AAA07A901A805F0AFFA90B98A
:10501000BDF82810A1F57F40FF381AD0BDF82A202E
:10502000083DAA4200DDAAB2002307A901A805F0A5
:10503000C7FA00B907E036E0ABB2214A07A901A8D8
:1050400005F094FAF5E7F868079900F58050814279
:10505000C9D31A4908221431F86802F0B7FA0828AF
:1050600021D1B8684FF4805100EB043002F02CFAE3
:1050700050B176B1B868042200EB043005A902F003
:10508000A5FA04280FD103E00B200DB0BDE8F08F86
:1050900000260A4802AB09AA08A9143005F0B8FA9C
:1050A000012809D008B10A20EFE7641CE4B20548E2
:1050B000407AA042BFF44DAF0020E6E7542B002019
:1050C000AC3C0020D83D0020017882781144C9B260
:1050D00001710846704730B500224271448805E0EE
:1050E0008D5C4379521C2B44437192B29442F7D8A1
:1050F000407930BD10B5441801F0EAFD00B1082038
:10510000204410BD024600210BE0084850F8313021
:10511000501E834204D1054800EBC100406870472F
:10512000491C1029F1DB0020F9E70000CC3B0020EE
:10513000002101E0491C4008C207FBD00846704727
:1051400070B5044600BFFDF76FFC05460120FDF772
:10515000FBFC0020144908701448154908601548E4
:1051600015490860482215491548FDF76DFA15489C
:10517000124948600320086048221348FDF764FA8A
:1051800048220F490D48FDF75FFA882C01D004F042
:105190000BFB1DB90020FDF7D7FC02E00120FDF755
:1051A000D3FC00BF70BD0000FC2A0020894D200008
:1051B000702D0020094E20006C2D0020002000E002
:1051C000843B0020804300203C3B00202DE9FE432F
:1051D0000546002403208DF8000000260C4F4FF0F8
:1051E0000108E8070BD008FA04F0019007EBC400AF
:1051F0004068029057F8341009B168468847641C2B
:10520000A4B26D08761C082EEBDBBDE8FE8300001F
:105210009833002070B5304D2B684FF6FF7101EACE
:10522000002293432B600106090A2B1FC4B21E689B
:105230008E430E431E602968A14329602749D1F897
:1052400000428443C1F80042D1F808428443C1F8C7
:1052500008421C68C1B20A4394430C431C602A1DD7
:10526000116821EA002141EA002111600124111D89
:105270000B6883430B600B6823EA002343EA002397
:105280000B601368C1B28B43136021E090FAA0F168
:10529000B1FA81F204FA02F1421E10400E4A0023D4
:1052A0001032156825EA0145156091FAA1F1B1FAAD
:1052B00081F18A088907C90E9500094A2A44D2F863
:1052C0001459FF268E40B5438B401D43C2F8145934
:1052D0000028DBD170BD000018AA004000A00040EB
:1052E00000E0004000B589B0002815D001680091A9
:1052F000017901F00301019181680291C168039174
:10530000016904914169059181690691406800092C
:105310000790684601F0EAFC09B000BD2DE9F041B4
:105320001E4DD5F8080210F0FF04D5F884006FF088
:105330000207C0F3400629D0D5F80802A043C5F8FB
:105340000802E043C5F80802C5F8847014480068F4
:10535000C0F3000040B1E00606D5D5F8000224F005
:10536000100420F010000BE0A868C0F3000050B15A
:10537000A00608D5D5F8000224F0200420F0200073
:10538000C5F8000202E02046FFF720FF002E03D000
:10539000002C01D1C5F88470BDE8F08100A0004068
:1053A00024AA004004490006000A0968884301D085
:1053B000002070470120704718AA0040FDF778BE12
:1053C0002DE9F04105000CD0184F174838603E1FFA
:1053D00030684FF080703060FDF720FE040003D08D
:1053E0000BE00120BDE8F081306800F0010040F0E2
:1053F00080703060FDF712FE04464FF0E0214FF45C
:1054000080000026C1F88001BFF34F8FBFF36F8F7C
:105410001620FDF7CBFA06496FF02000C1F8840092
:105420003E602E722046DDE7A2B4982B04A7004010
:1054300000A000402DE9F04704002DED048B4FF44F
:105440007A752DD0D4E90007874229D29FED629B5F
:10545000E06828B30668A846B6FBF5F105FB1160C5
:1054600005F0B3FC53EC192B05F0FAFA41EC180BDC
:10547000B6FBF8F005F0A9FC53EC182B05F03CFA4C
:1054800041EC180B384605F0A0FC53EC182B05F046
:1054900031FD9FED531B53EC112B05F029FE04D277
:1054A0000120BDEC048BBDE8F087DFF840914FF0A0
:1054B000000A84F808A04C49C9F80010A9F10406B4
:1054C00030684FF080703060FDF7A8FD00287FD174
:1054D000E0680768B7FBF8F108FB117005F075FC90
:1054E00053EC192B05F0BCFA41EC180BB7FBF8F0A4
:1054F00005F06BFC53EC182B05F0FEF941EC180B92
:10550000206805F062FC53EC182B05F0F3FC05F065
:10551000C1FF36493C31086001F036FDFDF77EFDE4
:10552000002855D132496FF02000C1F88400676827
:10553000EFB3E0680468B4FBF8F108FB114005F034
:1055400044FC53EC192B05F08BFA41EC180BB4FB1F
:10555000F8F005F03AFC53EC182B05F0CDF941ECCE
:10556000180B384605F031FC53EC182B05F0C2FC43
:1055700005F090FF1D4980B240310860306800F0AE
:10558000050000F1807008303060FDF747FD78B904
:105590003068184900F0050008433060FDF73EFD13
:1055A00030B91620FDF702FA4FF4800001E004E064
:1055B0000EE04FF0E021C1F800016D1EFDD2306811
:1055C0000C4900F00500C91E08433060FDF726FDB8
:1055D000C9F800A065E700000000000000408F400F
:1055E00000000000E0FFEF40A2B4982B04A70040A9
:1055F00000A000400400000110B5FFF7DFFE0A49DB
:105600006FF02000C1F8840000204FF4967100BFB5
:1056100000BF00BF00BF00BF00BF00BF00BF401CF5
:105620008842F4D310BD000000A000402DE9F041F5
:10563000044624482DED028B0068C0F30000E0B35F
:105640002068D0B3E068C0B31E4E1F48343E3060BF
:10565000E0684FF47A770568B5FBF7F007FB105068
:1056600005F0B3FB9FED191B53EC112B05F0F8F976
:1056700041EC180BB5FBF7F005F0A7FB53EC182B2A
:1056800005F03AF941EC180B206805F09EFB53EC4D
:10569000182B05F02FFC05F06BFB0A490831086058
:1056A00001F072FCFDF7BAFC00210328316007D03D
:1056B0000020BDEC028BBDE8F081FFE70120F8E798
:1056C0000320F6E738A70040A2B4982B00000000A2
:1056D00000408F402DE9F047040025D03148D0F834
:1056E00000A0DFF8C4804546D8F8009050464946EF
:1056F00000F0A6F96E68FAF53DFF2C484FF47A7178
:105700000068B0FBF1F54D432179206801F0F0FC11
:105710002079D4F800C000EB400101EBC0010CEB94
:10572000C1030027414606E00120BDE8F0874A6832
:10573000921BAA420FD81A6CC2F34022002AF6D05C
:10574000012208308240CCF8A02314E0D8F80400ED
:10575000801BA8420FD9206C40F02000206484F800
:10576000287003212046FEF721FF4946504600F0ED
:1057700049F90320D9E72179206801F09AFC002833
:10578000E4D12179206801F09CFC01212046FEF73C
:105790000DFF84F828704946504600F033F9002088
:1057A000C3E70000FCED00E0001000E05C0000201A
:1057B0002DE9F04104004FF0000612D094F82900C2
:1057C0000027012810D094F82900022814D094F85A
:1057D0002900042810D0206C40F004002064012629
:1057E00008E00120BDE8F08184F82870E16B09B180
:1057F000204688473046F5E72079012521680830A2
:1058000005FA00F0C1F8A0032179206801F051FCED
:105810000028F9D120792168083005FA00F0C1F894
:10582000100320792168083005FA00F0C1F8180348
:1058300020792168083005FA00F0C1F820032079AA
:105840002168083005FA00F0C1F8280320792168A2
:10585000083005FA00F0C1F830032179206805FA14
:1058600001F1C0F838132179206805FA01F1C0F878
:1058700040132179206805FA01F1C0F84813217915
:10588000206805FA01F1C0F850132079216885409D
:10589000C1F858532179206801F0CDFB0121204641
:1058A000FEF784FEA0E710B588B30268416CC2F829
:1058B00098130179036801EB410404EBC10118243A
:1058C00004EBC101826C5A500179036801EB410479
:1058D00004EBC1011C2404EBC101C26C5A500179D4
:1058E000036801EB410404EBC101402404EBC10156
:1058F000026D5A500268416D007900EB400303EBE2
:10590000C000442303EBC0001150002010BDFFE78E
:105910000120FBE770B5054600F008F8040003D14C
:105920002979286801F092FB204670BD2DE9F843E3
:105930001F469046894604004FF0000612D09FB1E2
:1059400094F82800012814D0012584F8285094F8F0
:10595000290001280FD00226002084F828003046B4
:10596000BDE8F8830120FBE7206C40F008002064CC
:10597000F8E70220F4E700212046FEF7DDFD20468F
:10598000FEF734FE02212046FEF710FE2179206842
:1059900001F051FB2179206801F042FB2179206858
:1059A00001F033FB20690090217943464A46206884
:1059B00001F01AFB21793A46206801F08DFB21792C
:1059C000206805FA01F1C0F838132179206801F048
:1059D00066FB2079216805FA00F0C1F840032179BF
:1059E000206801F048FB207921688540C1F85853B0
:1059F0002179206801F049FB2179206801F030FB12
:105A0000ADE7000010B5EFF31083012282F3108898
:105A1000084A1468641E146012681AB9064A1160B4
:105A2000064908601BB1012080F3108810BD0020DA
:105A3000FAE70000502D0020001000E0FCED00E02F
:105A400010B5EFF31082012383F31088094B1C6813
:105A5000641C1C60084B40F08070186041F001002D
:105A6000064908601AB1012080F3108810BD00209B
:105A7000FAE70000502D0020FCED00E0001000E0EF
:105A80000A4610B501460020FCF546FA08B1002090
:105A900010BD012010BDFCF545BA10B51446FCF54B
:105AA000ADFA08B1002010BD204610BD2DE9F74F1A
:105AB00000244FF4807AC0B017468B4615465245F5
:105AC00001D9564600E03E460BEB040188463246BB
:105AD0006846FCF774FD409832462044814669468A
:105AE000FCF5D2FAB8B9484632466946FCF586FA62
:105AF00088B9404632466946FCF716FD58B9AD1BD9
:105B00000DD034445646B54200D82E46BC4202D28F
:105B1000A019B842D8D9002043B0BDE8F08F38466C
:105B2000FAE70000F0B5002851D042688A4342608D
:105B3000274E8AB28BB235680024954315433560F1
:105B40004361046141628163331D1A688A430A43D9
:105B50001A601A1D13688B4313601D4A10321368B4
:105B60008B430B4313600124121D13688B43136096
:105B7000121D13688B430B431360154D8AB20C350D
:105B80002B6893432B6020E091FAA1F2B2FA82F3E2
:105B900004FA03F24B1E19400E4B002592FAA2F2B2
:105BA000B2FA82F2984203D193089207D20E00E033
:105BB00004239E00084B3344D3F80069FF27974025
:105BC000BE4395402E43C3F800690029DCD1F0BDE7
:105BD0002CE900400000014000E000402DE9FE43B8
:105BE00080460F463846FFF7A3FA85B20024DFF857
:105BF00034900D4E59F8340040450ED105EB041099
:105C000085B28DF80040019706EBC5004068029010
:105C100056F835200AB168469047641C032CE9DB2E
:105C2000BDE8FE837CB520002833002010B5816BD1
:105C30008904890C02D08163FFF7D0FF10BD00B545
:105C400089B0002817D0002915D00A6800920A7977
:105C500002F0030201928A680292CA6803920A69FA
:105C600004924A6905928A6906924968090907916E
:105C7000694601F049FA09B000BD0068814301D0CE
:105C8000002070470120704770B52B4C294A6FF0F7
:105C90004040236800EA015002EA81228343034323
:105CA0002360231F1D6895431D60234B08331D6827
:105CB00005431D602568C1F3090002439543054370
:105CC00025601A1F146824EA812444EA81241460A0
:105CD0001D6801248D431D601D6825EA812545EA64
:105CE00081251D6013688343136020E091FAA1F0C1
:105CF000B0FA80F204FA02F04A1E11400E4A002364
:105D00000C3215688543156090FAA0F0B0FA80F067
:105D100082088007C00E9500084A2A44D2F81C5910
:105D2000FF268640B54383401D43C2F81C59002915
:105D3000DCD170BDFFFF0F0004AA004000E000406E
:105D400001F0BEBA6FF0404000EA01500349096813
:105D5000884301D0002070470120704700AA00400E
:105D6000002809DB00F01F0201219140400980005A
:105D700000F1E020C0F880127047002809DB00F035
:105D80001F02012191404009800000F1E020C0F88D
:105D900000117047012080F3108803490148C1F8C1
:105DA0008C02FEE70001A1C500E00040112803D2EB
:105DB000024A002142F8201070470000A84100204C
:105DC00011280DD2074A074B02F07042C3F31303A8
:105DD00002EB431202EB800000F100700021016031
:105DE00070470000142D0020112804D2002902D091
:105DF000014A42F82010704764410020112803D264
:105E0000024A002142F8201070470000644100203F
:105E1000112804D2002902D0014A42F8201070470C
:105E200020410020112803D2024A002142F820100C
:105E30007047000020410020112802D2014A42F898
:105E400020107047A841002011280DD2074A074BA7
:105E500002F07042C3F3130302EB431202EB800023
:105E600000F100700121016070470000102D00203A
:105E700011280CD2064A064B02F07042C3F31303FA
:105E800002EB431202EB800000F1007001607047EA
:105E90000C2D00202DE9F041EFF311870220FCF7D3
:105EA000ACFD0446FCF7B8FD401C012181406018A0
:105EB000C0B280F311880020FDF78AFD0546254E0B
:105EC000D5E90412C6E902122348081A72F11E002D
:105ED00019D306F110000EE0DCE90412D6E9023411
:105EE000B1EB030872EB040804D3C91A62EB040295
:105EF000CCE90412006AD0F820C0BCF1000FEBD14D
:105F00000021B160F160A87801280AD1D6E90230F9
:105F1000D5E9021259185041C5E904102846FDF789
:105F20001BFDF8B280F31188FDF7C4FD706840B125
:105F3000D0E90421D6E90203101A61EB030101F054
:105F400083FBE96909B1A8698847BDE8F041FDF71D
:105F50007BBD0000D83300200010C32C074910B5CA
:105F60006FF00100C1F884004FF0E0214FF4801081
:105F7000C1F88002FFF78EFF10BD000000A00040B6
:105F800070B504460D46142002F016FB03490D605F
:105F900003490C43014940390C6070BD40A50040E5
:105FA000030000010148006870470000002B00203A
:105FB000014800687047000048A50040024800689A
:105FC000C0F300007047000038A5004010B5142051
:105FD00002F0F2FA0348016821F0010141F08071FA
:105FE000016010BD00A5004070B5040027D000215D
:105FF00003F052FF204603F0A0FFEFF310810120D1
:1060000080F310882068426822F082024260C1B1A9
:10601000012080F3108894F834000025012812D064
:10602000658421680420C1F88800102200212046E0
:1060300003F058FF204600F021F8002070BD012039
:1060400070BD0020E5E7E06A48B10B49C163E06A32
:10605000FFF7AEFB60B1E06AC16B884708E065847A
:1060600010220021204603F03DFF204600F006F8F4
:1060700084F83450E1E70000599C20001CB503F07F
:1060800039FE03218DF800100649002251F8203016
:1060900083F8002151F820000168002901D06846EA
:1060A00088471CBDD02A0020F8B504004FF011002D
:1060B0008DF8000004D094F83700002530B901E0D5
:1060C0000120F8BD94F8380000285AD0142202218B
:1060D000204603F007FF2068C0F8905041F2883353
:1060E00000224021204604F00BF8206801F0AAF9B4
:1060F000204600F03DF9254A20680121904203D155
:1061000023480160234807E0234A904205D12048F4
:10611000083001601F48001D0160EFF3108001226C
:1061200082F310881D4ED6F8CC321D4A13409A4394
:1061300002D1174AD83A1160D6F8D43243F6C34296
:1061400013409A4301D1174A116000B1012080F336
:106150001088E56300220221204603F0C3FE0121DE
:10616000204603F047FF6946204603F0AFFD0128B3
:1061700003D19DF80000FFF741FE0121204603F006
:106180008BFE84F836500020F8BD000000C50040AA
:1061900080591C42805A1C4200C6004000E000406A
:1061A0000530063028581C421CB50446204603F032
:1061B000A1FD00228DF80020E16B0191064951F804
:1061C000203083F8002151F820000168002901D017
:1061D000684688471CBD0000D02A0020002803D054
:1061E00010F8371F407808437047000030B587B07B
:1061F00004004FF011008DF8140004D094F837001B
:10620000002518B121E0012007B030BD94F8380016
:10621000D8B9274884F8365005602548803805608D
:1062200024492068884204D12148D830056022489A
:1062300007E02249884205D11D48E03005601E482C
:10624000001D0560204600F094F81422022120462B
:1062500003F048FE60680090A068019020690390F8
:10626000E0680290606904906946206801F0EFF8E8
:10627000E56310220221204603F034FE204603F09D
:106280005CFE0021204603F0B5FE05A9204603F080
:106290001DFD012804D10A499DF81400FFF7A4FD53
:1062A0000121204603F0F8FD84F836500020ABE7CA
:1062B000A8581C4200C50040805A1C4200C600403D
:1062C0007563200070B5026804469068002100F0F4
:1062D0000F00022809D004280CD0062812D00C2860
:1062E0003FD1A069012807D007E02046BDE87040F3
:1062F00003F045BE002100E001212046BDE87040CA
:1063000003F07EBD5069E16B00F01E000143E163C4
:10631000D06FC0F3C00018B10021204603F070FD1B
:10632000E06B4FF00005800720461BD503F0A5FC6D
:1063300094F83500012811D1206B68B10B49C16375
:10634000206BFFF735FA00280BD084F83550206B0E
:10635000C16BBDE87040084784F835502046FFF710
:1063600023FF70BDFFF720FFE56370BDD19B2000C8
:10637000704770470168026CCA600268D36843F0D6
:106380008003D360426C0A60826C4A600268D36802
:1063900023F08003D360C26CC1F8C020026D0A6193
:1063A0000622C1F88820426DC1F89820826DC1F89C
:1063B000A020C06DC1F89C00002070471CB50446A9
:1063C000204603F097FC02218DF80010218D628D8C
:1063D000891AADF80410044951F820000168002919
:1063E00001D0684688471CBDD02A00200168CA68D1
:1063F0000264CA6842F08002CA600A6842644A685D
:106400008264CA6822F08002CA60D1F8C020C264E7
:106410000A690265D1F898204265D1F8A02082650A
:10642000D1F89C10C165002070472DE9F0419846D5
:1064300015460E46040008D04EB145B194F8370019
:10644000102809D00220BDE8F0810120FBE7E06BB5
:1064500040F48060E063F8E70021204603F01CFD73
:10646000204603F06AFD0027E763112239462046E3
:1064700003F038FD2584434600220221204603F024
:10648000E1FD70B920686D1E2D0416F8011B2D0C5E
:106490000160F0D1434600224021204603F030FE47
:1064A00008B10320CFE710220021204603F01AFD97
:1064B00084F836700020C6E770B515460E46040015
:1064C0000AD05EB155B1E06A40B194F837001028A7
:1064D00009D00225284670BD012070BDE06B40F454
:1064E0008060E063F8E70021204603F0D5FC2046F9
:1064F00003F023FD0021E06AFEF71EF8E06AFEF7D4
:1065000075F821680120C1F8A000E06A01680079EF
:1065100000EB400202EBC00001EBC000816921F4F6
:10652000605141F400618161E66125846584002643
:10653000E66311223146204603F0D4FC012084F8A2
:106540003400E16A0D482B460863E16A0C48886311
:10655000E06AC66384F836602268E169E06AFFF7A2
:10656000D9F90500B6D0E06B40F48070E0631022EA
:106570000021204603F0B6FCACE70000279C200079
:10658000E19B200070B515460E46040007D046B1C9
:106590003DB194F83700102808D0022070BD0120CA
:1065A00070BDE06B40F48060E063F8E700212046B6
:1065B00003F072FC204603F0C0FCE661258465848C
:1065C0000025E56311222946204603F08BFC216853
:1065D0000320C1F8A00084F83650EFF310810120A9
:1065E00080F310882068426842F08202426021B144
:1065F000012080F31088002070BD0020F9E7000022
:106600007CB50546284603F075FB044601208DF84D
:106610000000288C698C401AADF804000C4D55F828
:10662000240090F8040118B12046FDF769FB02E050
:106630002046FDF7C7FC55F8240090F8001100290A
:1066400004D10168002901D0684688477CBD00005C
:10665000D02A00202DE9F04F87B00468456886688D
:10666000C768D0F81080D0F81490D0F818A0D0F8EF
:106670001CB04FF480610A48FCF742F88DE8C00F67
:106680002B46224607490648FBF77AFD0448FBF7EC
:1066900077FF07B081B2BDE8F04F0148FEF798BA26
:1066A0006836002074B720000348406908B1002014
:1066B00070470120704700008C3F002000B5FFF7B5
:1066C000F3FF20B10348806908B1012000BD00201C
:1066D00000BD00008C3F00202DE9F0411E4614460D
:1066E0000D460746FFF7E0FF002854D001210C209B
:1066F000FFF7BEFB0120FBF605FFDFF8A0800120BD
:10670000C8F80070C8F814000020C8E90606244E36
:10671000C8E90154306820F001003060284600F0DC
:106720004FF82049E0B20A6822F47F0242EA0040B2
:106730000860091DC4F300200A6822F0400242EA02
:1067400080100860164C164F174D14340C37A8688B
:1067500040F48070A860022000F09EFDD8F8000090
:1067600000F0A4FD206840F001002060206840F0A7
:1067700002002060306840F001003060386830F07E
:106780007F40E4D009491E2001F0F8FFBDE8F04148
:106790001E20FCF718B9BDE8F08100008C3F0020F6
:1067A00000E5004050A8004000A00040FD2120006E
:1067B0000248006800F00F007047000054A8004035
:1067C00003490A6822F00F0202430A607047000082
:1067D00054A80040074800684FF6FF71C0F38010CE
:1067E00001EA00210348001F0068C0F30740084386
:1067F0007047000054A800402DE9F04115482DEDE8
:10680000028B0068002420F07F421248083800689C
:1068100047F61223C0F30B00451CA2FB030704FB41
:10682000037102FB041104F0BAFD08EE100A2846B9
:10683000214604F0B4FD00EE100A0749C8EE000A34
:10684000BCEEE00A10EE100AC860BDEC028BBDE899
:10685000F08100000CE50040742B0020054A064939
:10686000002052F8203041F83030401C2828F8D35E
:106870007047000098B62000F0410020F0B5184F96
:106880000603044685B0012506F58051B86800F07E
:106890001BFE58B113480822016803914068049018
:1068A00003A9B86800F092FE082802D00B2005B0BA
:1068B000F0BD0D4908200B23086060424C7206EBC6
:1068C000C0000C38486005210095CDE90110074C47
:1068D0001E224FF4004124680120A0470020E6E773
:1068E000542B002078B62000D83D0020E001002085
:1068F0002DE9F04F4F4F87B04F4EBD684FF0000B62
:106900008DF814B0707208213160C0EB40206FF038
:106910000B0101EBC00805A8083500F0E7F820B12D
:106920009DF814100120FEF79DFA08F10800706030
:106930000020DFF808A14FF001090090042203A90C
:10694000284600F0E1FDBDF80C10A1F57F40FF38AE
:106950003CD0082203A9284600F0D6FDBDF80E4021
:10696000BDF80C00083420B303A803F043FC70B159
:106970007068001B706016D5CDF800B00E231E2283
:10698000DAF800404FF400410120A0474DE0CDF877
:1069900000B00C231E22DAF800404FF40041012021
:1069A000A047052042E04FF00009294603A803F064
:1069B00039F8A1B22846FEF79DFB0546B868281AAB
:1069C000306038698542B9D3009830B1B9F1000F11
:1069D00005D04046C6F804800BE0072026E070682A
:1069E000082802DD0838706003E030725846C6F8A7
:1069F00004B0012140454FF0050200910CD8CDE9CB
:106A000001200F231E22C903DAF800400120A0470D
:106A1000002007B0BDE8F08FCDE9012010231E2231
:106A2000D902DAF800400120A0470820387002207F
:106A3000EFE70000542B0020D83D0020E0010020AB
:106A40002DE9F0410C4680464FF48077161917E087
:106A50003D4639460C48FBF753FEAC4200D825466C
:106A60002A460949404600F04FFD311B2A46064898
:106A7000FBF75AFD10B10020BDE8F081601B84B225
:106A8000002CE5D10120F7E7AC3C00202DE9F047D0
:106A900005460E4617469846EFF311840220FBF791
:106AA000ACFF8146FBF7B8FF401C0121814009EB98
:106AB0000100C0B280F311880B48406848B1E81B60
:106AC00076EB08060AD2E0B280F311880120BDE817
:106AD000F087E0B280F311880120F8E7E0B280F39C
:106AE00011880020F3E70000D83300202DE9F04F93
:106AF0006F4D85B00746AC6808220834264602A9C7
:106B0000E86800F0F9FC08287DD19DF808004FF6F0
:106B1000FF7BA52825D0DFF89CA105F11409A84624
:106B200008226946204600F0EFFC082838D08CE0A7
:106B300008226946204600F0E7FC082814D1BDF879
:106B40000000B04210D0BDF80200083081B22046EB
:106B5000FEF7D0FA0446E868844205D387F800803F
:106B600019E04FF001085E469DF80A10AA68BDF8CA
:106B70000E0002EB01310844A042D9D89DF80A105A
:106B8000BDF80E0002EB01310844A042E6D302D169
:106B90004FF0000038704FF0010005B0BDE8F08FF5
:106BA000BDF8001059452FD0BDF802002646083028
:106BB00081B23046FEF79EFAD8F80C10044688429F
:106BC00043D3711EC1F30B01D8F80800711A081ADB
:106BD00000F6FF70C0F307358DF81050394604A851
:106BE000FDF7D6FB88BB387878B399F8030049469F
:106BF000C0F108003044421EC2F30B02821A101A80
:106C0000C0F101004FE025E0601EC0F30B00211A27
:106C1000D8F80800081A00F6FF70C0F307358DF8A1
:106C200010509AF80900A84214D0D8F80C209442C9
:106C300006D2401EA84203D101F6FF71914209D04D
:106C4000394604A8FDF7A4FB30B1D8F80C00844203
:106C5000FFF466AF0020A0E79AF809009DF8101035
:106C60008842F7D03878B0B199F8030038B1C0F154
:106C7000080081B23046FEF73DFA04460BE0B9F851
:106C8000040040B1241A601EC0F30B00201AC01D7E
:106C9000A04200D9083C601EC0F30B00201A001B64
:106CA000C0F1010049466D1EC88089F8025072E7A4
:106CB000542B0020D83D0020002805D0C16919B10F
:106CC000807818B1012801D000207047012070475A
:106CD0000A18411EC1F30B01401A00F6FF708242F0
:106CE00001D301207047002070470000F0B5784DB7
:106CF000016820E091FAA1F2B2FA82F301229A40EF
:106D00004B1E1940C3682C681BB344EA02442C6034
:106D100092FAA2F2B2FA82F294089207D20EA60078
:106D20006C4C3444D4F81469FF279740BE43934019
:106D30001E43C4F814690029DCD1654B02690C3B81
:106D4000002A01681A6807D022EA012242EA0121DA
:106D500004E024EA0244DAE722EA01211960027D14
:106D60000168C2F3001402F00105594A083A002CE8
:106D7000146824EA010400D00C431460146825B19F
:106D800024EA012444EA012101E024EA01211160FE
:106D9000017882691C688C43012A00D000210C43D1
:106DA0001C600278416813061B0A01292FD00329B1
:106DB0002DD0002402292CD003292AD00021444DB3
:106DC000143D2E689E4326432E602B1D1C68944361
:106DD0000C431C6001684FF6FF73826803EA0124CC
:106DE000C9B2012A17D0002602B10A462F682143F2
:106DF0008F43324317432F6037490268D1F800426E
:106E00009443C1F800424268012A06D05EE01C4665
:106E1000D0E71146D3E72646E6E7C269062A47D2FD
:106E2000DFE802F0461303262E3D0268D1F8005237
:106E300003EA0223D4B212069D43C1F80052D1F8EE
:106E400004521C4325EA12250EE00268D1F80052D4
:106E500003EA0223D4B212069D43C1F80052D1F8CE
:106E6000045243EA12239D432543C1F804521FE014
:106E70000268D1F8004203EA0223D2B29C4306E042
:106E80000268D1F8004203EA0223D2B21C43C1F8DF
:106E90000042D1F804329343C1F8043208E002788A
:106EA000D1F80442D3B243EA02431C43C1F804427E
:106EB0000268D1F808329343C1F80832C2692AB196
:106EC0000068D1F800220243C1F800220120F0BD81
:106ED00028AA004000E0004000A0004003490A68E2
:106EE00022F4780242EAC0400860704708A80040D7
:106EF00003490A6822F4800242EA80500860704721
:106F000014A8004003490A6822F4401242EA0050E3
:106F10000860704714A8004006490A6822F47852B5
:106F200042EA40200860081F016841F48071016056
:106F300070470000C4A8004003490A6822F4706248
:106F400042EA00200860704794A8004003490A689C
:106F500022F4E05242EA80200860704704A8004012
:106F600003490A6822F4706242EA00200860704710
:106F700054A8004003490A6822F00F0202430A6045
:106F80007047000094A800400448016801F0050122
:106F900001F18071891C01607047000000A700406A
:106FA0000248006800F007007047000048A4004055
:106FB00003498A6922F0010202438A617047000096
:106FC00000A0004003490A6822F0300202430A6030
:106FD0007047000000A0004002480068C0F30B109A
:106FE000704700000CE8004030B501EB410505EBAF
:106FF000C101039C40F8312000EBC100836081692E
:1070000021F440112143816130BD01EB410202EBCB
:10701000C10100EBC100016C21F400310164704733
:1070200001EB410202EBC10100EBC100016C21F454
:1070300080310164704701EB410202EBC10100EBBA
:10704000C100816921F001018161704701F10803EC
:10705000012202FA03F38A409918C0F8A01370477E
:1070600001EB410202EBC10100EBC100816941F07B
:1070700001018161704701F10803012202FA03F363
:107080008A409918C0F81813704701F108030122CB
:1070900002FA03F38A409918C0F83013704701F1DF
:1070A0000803012202FA03F38A409918C0F810136A
:1070B0007047D0F8A00301228A40104000D0012080
:1070C000704701EB410202EBC10100EBC100016C12
:1070D00021F480710164704701EB410303EBC101AE
:1070E00000EBC100C1696FF30B011143C16170472F
:1070F00001EB410202EBC10100EBC100016C41F464
:107100008071016470470000F0B50A6820E092FACF
:10711000A2F3B3FA83F40123A340541E2240504C3F
:1071200093FAA3F3CD68B3FA83F3A04203D19C088A
:107130009B07DB0E00E00424A6004A4C3444D4F83C
:107140000069FF279F40BE439D402E43C4F800695D
:10715000002ADCD10B884A689CB29BB2012A56D027
:10716000032A54D00025022A53D0032A51D00022EA
:107170003D4F3E68A6432E433E60436102613A4C58
:107180000B691034002B0A68236823EA020300D03D
:10719000134323600B7D344DC3F300141435002CCE
:1071A0000A682C6803F0010324EA020400D01443A7
:1071B0002C602D4C1834002B236823EA020300D0E6
:1071C00013432360284D0A880C358B692C6892B2D2
:1071D0009443012B00D0002214432C60224E8B6874
:1071E000361D0A6835689543ABB1144625433560B2
:1071F0001D4D08352C689443012B00D00022144308
:107200002C600A6842624A68012A06D026E02546B8
:10721000A9E71A46ACE70024E8E70A688263CA696E
:10722000062A17D2DFE802F01606030B0E120A68D0
:10723000426301E00A680263826242640AE00A680B
:10724000026301E00A684263C26203E00A684263C3
:1072500082620264CA690AB1096801620120F0BD54
:107260000000014000E000402CE90040094B10B54F
:107270001C688C4362B1084604431C60054B1B1D0F
:1072800018688843012A00D000210843186010BD07
:107290000020F1E730E9004003490A6822F0FF02CC
:1072A00002430A607047000020E5004003490A6875
:1072B0006FF30B0202430A607047000004E50040D0
:1072C000F0B54F4D08681FE090FAA0F2B2FA82F3D1
:1072D00001229A40431E18400B692C6813B31443D3
:1072E0002C6092FAA2F2B2FA82F294089207D20EBD
:1072F000A600444C3444D4F81C69FF279740BE4391
:1073000093401E43C4F81C690028DDD13C4B4A69F8
:10731000083B002A08681A6806D022EA802242EA5E
:10732000802003E09443DBE722EA802018600A7E95
:107330000868C2F3001502F00104314A121F002D43
:10734000156825EA000500D005431560002C146877
:1073500004D024EA802444EA802001E024EA80204A
:1073600010600888CC691D68C0F309008543012CB2
:1073700000D0002005431D600B7A088803F003034A
:10738000012B6FF04044136804EA005030D083436F
:107390001360D1E900201C4D04EA025305EA822261
:1073A000012827D0032825D00026022824D003282E
:1073B00022D00020124C0C3C27689F4337432760A3
:1073C000261F33689343034333600868C96805EA9E
:1073D0008022C0F30900012910D0002301B1014629
:1073E00025681043854319430D4325600120F0BDF6
:1073F0000343CDE71E46D8E71046DBE71346EDE72B
:1074000010AA004000E00040FFFF0F0002480068A3
:10741000C0F300407047000090A4004003490A6890
:1074200022F0060242EA40000860704724A40040AF
:107430000348016821F0010141F08071016070474B
:1074400000A500400121C0F888100846704770B5BB
:1074500004460D464A68D5E90210E3680026084351
:1074600023F03F0310430343E360F9F51FF82A6854
:10747000E368B0FBF2F1090943F08003E360CBB2AB
:107480002360C1F307216160E16821F08001E160C0
:10749000B0FBF2F000F00F00C4F8C00028692169C9
:1074A00021F02201014321610420C4F88800022058
:1074B000C4F888000120C4F89800C4F8A000002097
:1074C000C4F89C00304670BD024A126902B11047F0
:1074D000FEF7D6BAAC3D002070B5054605480C460F
:1074E00042690AB12846904721462846BDE87040C7
:1074F000FEF7D1BAAC3D0020024B1B6803B1184720
:10750000FEF7CBBAAC3D00202DE9F0418846411E84
:10751000C1F30B01451A05F6FF718318994212D287
:107520002C1A04F6FF74161B22464146FFF7E4FFAF
:10753000074641F2070008EB040128443246FFF7F2
:10754000DBFF384402E04146FFF7D6FF80B2BDE8DA
:10755000F08170B5044600681646421EC2F30B0265
:10756000821A0025831902F6FF729A4200D8082574
:10757000324600F005F8216872191144216070BD8F
:107580002DE9F0418846411EC1F30B01451A05F66D
:10759000FF718318994212D22C1A04F6FF74161B3D
:1075A0002246414600F012F8074641F2070008EB78
:1075B00004012844324600F009F8384402E041460C
:1075C00000F004F880B2BDE8F0810000024B5B6877
:1075D00003B11847FEF76ABAAC3D002070B5FEF75C
:1075E000E7FC0446601C24D0FEF7DCFC00EE100A29
:1075F0009FED131AF8EE400A00EE104AB8EE400A6A
:1076000020EE011A81EE200A10EE100A03F07EFF30
:107610000C4A536883B1D3E90463D2E90254721B64
:1076200063EB0403141A73EB010401D210461946EC
:1076300070BD0020014670BD0020014670BD0000F5
:1076400000247449D833002070B505462DED028B17
:107650000E460024FEF7A6FC03F0B7FB41EC180B26
:107660002846314603F0C4FB53EC182B03F042FCD0
:107670009FED131B53EC112B03F0F2F99FED121B3E
:1076800053EC112B03F038F903F072FB0146042090
:10769000FEF776FC4FF47A7506E00120F9F542FA20
:1076A0002046641CA84207D2FEF788FC0028F4D0CC
:1076B000FEF77EFC401CF0D0BDEC028B70BD0000DC
:1076C0000000000080842E41000000000000E03F28
:1076D00070B50024FEF77AFC4FF47A7506E00120BD
:1076E000F9F520FA2046641CA84203D2FEF766FC96
:1076F0000028F4D170BD000070B519480068184921
:10770000C0F30B0008310968401C00EE100ADFEDE1
:10771000150A21F07F41B8EE400A134D60EE200AB1
:1077200000EE101A1149B8EE401A80EE810AF6EE0A
:10773000000A85ED020A30EE200ABCEEC00A10EE07
:10774000100A08602BF6F6F9094E002456F82400BA
:1077500010B195ED020A8047641C052CF6DB70BD64
:1077600004E400400024F44B742B0020002B002084
:10777000783F0020FCF7E6FC10A0FAF7F5FC10A01B
:10778000FAF7F2FC1DA0FAF7EFFC2BA0FAF7ECFCDD
:1077900038A0FAF7E9FC46A0FAF7E6FC53A0FAF79E
:1077A000E3FC61A0FAF7E0FC6EA0FAF7DDFC04A0B0
:1077B000FAF7DAFCFBF744FCFEE700000D0A0000D4
:1077C0002A2A2A2A2A2A2A2A2A2A2A2A2A2A2A2A19
:1077D0002A2A2A2A2A2A2A2A2A2A2A2A2A2A2A2A09
:1077E0002A2A2A2A2A2A2A2A2A2A2A2A2A2A2A2AF9
:1077F0002A2A2A2A2A2A2A0D0A0000002A202020C2
:1078000020202020202020202020202020414F4EFA
:107810005F5744545F5245534554206578616D70FD
:107820006C652E20202020202020202020202020B9
:1078300020202A0D0A0000002A20202020202020BD
:107840002020202020202020202020202020202038
:107850002020202020202020202020202020202028
:1078600020202020202020202020202020202A0D21
:107870000A0000002A20546869732073616D706CDF
:10788000652077696C6C2073686F77207468652059
:10789000414F4E5F5744542072657365742073796D
:1078A0007374656D2E20202020202A0D0A00000010
:1078B0002A2057652077696C6C20667265656420A4
:1078C000646F672031302074696D6573206576655B
:1078D0007279203330306D732E202020202020201C
:1078E0002020202020202A0D0A0000002A20746871
:1078F0006572652077696C6C20626520616E206915
:107900006E74657272757074696F6E20696620742A
:10791000686520414F4E5F574454206973206E6F55
:1079200074202A0D0A0000002A20726566726573B1
:107930006865642077697468696E2031732E746895
:10794000652073797374656D2077696C6C2072653E
:1079500073657420696620746865202020202A0DD4
:107960000A0000002A20414F4E5F5744542069739B
:10797000206E6F7420726566726573686564207727
:10798000697468696E2032732E2020202020202008
:10799000202020202020202020202A0D0A00000066
:1079A00010B526F6A7FF10B102F0D7FCFEE7BDE840
:1079B0001040FAF745BB00002DE9FF4104460020C6
:1079C00000900190029003902148224920F07F40CE
:1079D00021F07F41B0F5001F02D9B0F1907F04D3B0
:1079E00000F084F82168084320601B4F1B480025E5
:1079F000C61B10E007EB051110226846FAF7DFFD01
:107A00000198029920F07F40014400F06FF821684E
:107A100008436D1C2060B5EB161FEBD310481149CD
:107A200020F07F4021F07F4100F060F8216808439A
:107A300020600D480D4920F07F4021F07F418842B1
:107A400004D000F053F8216808432060BDE8FF81AE
:107A50000020200018B82000D4B7200014B820005F
:107A6000E8370120E8570120E8370120E8370120F6
:107A700008B5684600F076FF48B99DF80000302848
:107A800006D0402804D0502802D0602800D06020C2
:107A900008BD38B540F603410091012808D040F6F2
:107AA000FF74204600F054F8204600F009F838BD75
:107AB0006846FFF781FF009800F04AF80098F4E765
:107AC00008B50090684601F031FE00980649C0F301
:107AD0000B0008600449012010310860FFF796FC94
