:020000040020DA
:102000002059012059202000FB212000011E100032
:10201000F9212000F121200085352000000000007A
:10202000000000000000000000000000151E10006D
:10203000F721200000000000FD212000FF212000EA
:10204000DFF810D000F048FC00F066F800480047C8
:102050002D6B21002059012001488047014800478D
:1020600055352000516B21000649074A0868504346
:1020700043F2390210440860400870470149086083
:10208000704700002C3000206D4EC64110B5431A39
:10209000934209D28318881803E010F8011D03F851
:1020A000011D521EF9D210BD40EA01039B0703D067
:1020B00009E008C9121F08C0042AFAD203E011F887
:1020C000013B00F8013B521EF9D210BDD2B201E033
:1020D00000F8012B491EFBD270470022F6E710B52D
:1020E00013460A4604461946FFF7F0FF204610BD86
:1020F000421C10F8011B0029FBD1801A704730B533
:1021000004460020034600E05B1C934203D2E05CDF
:10211000CD5C401BF8D030BD70B5054C054D03E0DB
:10212000206820448047241DAC42F9D170BD0000D6
:10213000A4F32100A8F3210030B40446962308003C
:10214000214604D0B62330BC002200F0AEBA2046AF
:102150000021F8E70EB540F2334102910021CDE9AC
:1021600000110A460B4600F0DDFA03B000BD0EB5C3
:1021700040F2334202920022CDE90022134600F0E1
:10218000D1FA03B000BD20F00040C20DC0F316002C
:1021900040F400007F2A02DA002001467047002147
:1021A000962A03DCC2F19602D0407047963A00F0BE
:1021B00042BA70B5C1F30A5201F000450024C1F3E0
:1021C000130140F2FF3341F480119A4201DA0020FA
:1021D00070BD40F233439A42A2F2334203DC5242D2
:1021E00000F038FA00E090402C43F1D0404270BD3E
:1021F000FEE707F027BCFEE7FEE7FEE7FEE7FEE7A7
:1022000058585247010000003253000000202000BF
:10221000002020008BEB924700010000000000002E
:1022200000000000000000000000000000000000AE
:10223000000000000000000000000000000000009E
:102240002DE9FE4F804681EA0300C00F0C46009046
:1022500021F0004123F00045B8EB0200A94105D26E
:102260004046214690461C460B46024623F000405D
:10227000104347D0270DC7F30A00C3F30A51029059
:10228000401A019040286BDAC3F3130040F4801B1E
:102290000098924620B10023D2EB030A63EB0B0BAC
:1022A00001985946C0F14002504600F0C4F9064674
:1022B0000D4650465946019A00F0DCF910EB080033
:1022C0006141002487EA115284EAE7731A4340D03F
:1022D000009A62B3019A012A4FEA075215DC001BEB
:1022E00061EB02014FF0004202EA0752CDE90042E1
:1022F000001C41F5801132462B4600F013FA03B062
:10230000BDE8F08F40462146F9E7001B61EB020172
:10231000001C41F5801300185B412018A2F500173E
:1023200047EB030140EAD570B6196D4111E06D0825
:102330004FEA360645EAC0754FEA0752001B61EBCB
:102340000201001C41F5801149084FEA30000019D4
:10235000514132462B4603B0BDE8F04F00F0D3B9EF
:102360000098012240000023D0EB020263EBE073EF
:10237000009821464FEAE074B8EB000061EB0401DD
:10238000E9E783F000435BE781F0004158E72DE97E
:10239000FE4F81EA030404F0004421F00041009460
:1023A0004FF0000B23F0004350EA01045ED052EAE4
:1023B00003045BD0C3F30A54C1F30A552C44A4F2BE
:1023C000F3340194A0FB0254C1F3130141F48011D2
:1023D000C3F3130343F4801301FB024400FB034ED9
:1023E000840A970A44EA815447EA8357A4FB0768A2
:1023F00002958D0A05FB07854FEA932C04FB0C54CC
:102400002705029D4FEA065847EA1637B5EB08053F
:102410006EEB070C870E920E47EA811742EA831291
:10242000A7FB0201B6EB0B0164EB00042B0D43EAA2
:102430000C335E1844EB1C50DA465146E7FB0201B0
:10244000C5F313044FEA0B3343EA14534FEA043243
:10245000019C43EA0603A4F10C040294009CCDE91C
:1024600000B400F05FF903B0BDE8F08F0020014632
:10247000F9E72DE9F04D81EA030404F0004B21F067
:10248000004514464FF0000A23F0004150EA0502CF
:1024900020D054EA01021DD0C5F30A570246C5F305
:1024A0001303C1F31300C1F30A5640F4801543F43B
:1024B0008013A7EB0608101BD64608F2FD3873EB15
:1024C000050002D308F1010801E092185B41B8F160
:1024D000000F03DA00200146BDE8F08D00204FF424
:1024E0008011064684460EE0171B73EB050705D3E3
:1024F000121B63EB050306434CEA010C49084FEA43
:10250000300092185B4150EA0107EDD152EA030016
:1025100012D082EA040083EA0501084305D0101BAB
:10252000AB4106D20122002306E000224FF0004317
:1025300002E06FF0010253101AEB06004CEB085159
:1025400010EB0A0041EB0B01BDE8F04D00F0DBB8E9
:10255000C1F30A5210B5C1F3130140F2FF3341F445
:1025600080119A4201DA002010BD40F233439A42B2
:10257000A2F2334203DC524200F06CF810BD9040EE
:1025800010BD00F0004230F000400AD0C10D01F54E
:102590006071C0F3160042EA0151C20840071143BE
:1025A000704700200146704730B50B4601460020B9
:1025B0002022012409E021FA02F59D4205D303FA05
:1025C00002F5491B04FA02F52844151EA2F1010286
:1025D000F1DC30BD2DE9F05F0546002092469B46B8
:1025E00088460646814640241BE028464146474629
:1025F000224600F02FF853465A46C01A914110D394
:1026000011461846224600F016F82D1A67EB01080D
:102610004F4622460120002100F00DF817EB00097B
:102620004E41201EA4F10104DFDC484631462A4613
:102630004346BDE8F09F202A04DB203A00FA02F16D
:10264000002070479140C2F1200320FA03F31943A0
:1026500090407047202A04DB203A21FA02F0002142
:10266000704721FA02F3D040C2F1200291400843A2
:1026700019467047202A06DBCB17203A41FA02F0B0
:1026800043EAE07306E041FA02F3D040C2F12002CF
:1026900091400843194670470029A8BF7047401C65
:1026A000490008BF20F00100704710B4B0FA80FC68
:1026B00000FA0CF050EA010404BF10BC704749B1A5
:1026C000CCF1200421FA04F411FA0CF118BF012115
:1026D00021430843A3EB0C01CB1D4FEA00614FEAF5
:1026E000102042BF002010BC704700EBC3501044C4
:1026F0000029A4BF10BC7047401C490008BF20F04F
:10270000010010BC704710B5141E73F1000408DA04
:10271000401C41F1000192185B411A4301D120F0A5
:10272000010010BD2DE9F04D92469B4611B1B1FA62
:1027300081F202E0B0FA80F220329046FFF77BFF90
:1027400004460F4640EA0A0041EA0B0153465A4646
:10275000084313D0114653EA010019D0C8F14002D2
:102760005046FFF777FF05460E465046594642460B
:10277000FFF761FF084305D0012004E020463946F9
:10278000BDE8F08D0020054346EAE0762C43374350
:102790000A986305E40AA0EB08000022FD0A44EA57
:1027A00047540A3002D500200146E9E70105101917
:1027B0006941DDE9084500196941BDE8F04DA2E72E
:1027C0002DE9F041054621F000400C46284309D090
:1027D000C4F30A5040F23341884205DD28462146C1
:1027E000BDE8F0812846FBE740F2FE31884210DC6C
:1027F0000CDB4FEA043040EA155050EA053105D0B1
:10280000104804F0004101430020E9E700200146A0
:10281000E6E7A0F233404642C6F140022846214690
:10282000FFF709FF07468846284621463246FFF74C
:1028300011FF43463A46FFF766FF3246BDE8F041D6
:10284000FFF7F9BE0000F03FC1F30A52C1F31301D4
:1028500040F2FF3341F480119A4202DA002001462F
:10286000704740F233439A42A2F2334202DC5242B2
:10287000FFF7F0BEFFF7DFBE30B5041E71F10004B4
:1028800004DB4FF00044404264EB0101141E73F17D
:10289000000405DB1C464FF00043524263EB040387
:1028A0008B4208BF824230BD30B5041E71F1000476
:1028B00004DB4FF00044404264EB0101141E73F14D
:1028C000000405DB1C464FF00043524263EB040357
:1028D000994208BF904230BD064C074D06E0E068C3
:1028E00040F0010394E8070098471034AC42F6D357
:1028F000FFF7AAFB64F32100A4F3210070B58C1844
:1029000010F8015B15F0070301D110F8013B2A1103
:1029100006D110F8012B03E010F8016B01F8016BF0
:102920005B1EF9D12B0705D40023521E0DD401F8EC
:10293000013BFAE710F8013BCB1A921C03E013F8B5
:10294000015B01F8015B521EF9D5A142D8D30020EA
:1029500070BDF0B5002508222B4650F8227051F8C2
:102960002260BE1943EB030476195C4104F00104B4
:102970001C4301D0012500E0002540F822600446F8
:10298000521EEAD5002150F8212012B9491C09290C
:10299000F9DBC1F109016162F0BDF0B50024082343
:1029A000254650F8236051F82370F61945EB0507CA
:1029B00036196F4107F001042C4301D0012400E0D7
:1029C000002442F823605B1EEBD5002052F8201053
:1029D00011B9401C0928F9DBC0F10901C2E9091548
:1029E000F0BD000010B51446FFF7D7FFA06A20B174
:1029F0002046BDE8104000F01DB80D4B606A596AD2
:102A000088420ED813D3C0F1090108E053F8212001
:102A100054F8210082420AD803D301F101010929A7
:102A2000F4D32046BDE81040014900F005BD10BDBB
:102A30009CD7210010B58CB0044601466A46074871
:102A400000F05AFC694624222046FFF71FFB099834
:102A500060620020A0620CB010BD00009CD7210075
:102A60002DE9F0410446DFF808C1806A8CB04FF0D0
:102A7000000848B16246606A536A2146984250D8BD
:102A800027D3C0F1090022E04FF000014FF0080009
:102A9000424654F820505CF82030ED1842EB020317
:102AA0006D18534103F00101114301D0012100E0F1
:102AB000002144F82050401EEBD518E052F8203099
:102AC00051F82050AB4204D82BD300F10100092863
:102AD000F4D36A46264800F00FFC694625462422B6
:102AE0002046FFF7D3FA09986862C4F828800022CC
:102AF0001046454654F82010491945EB02035A0880
:102B00004FEA310244F8202021F001028A1A00F134
:102B1000010023460928EDD3002054F8201001BB02
:102B20001CE00023082241465CF8225054F82200A1
:102B3000EE1841EB0107861B71EB07062B4406D20A
:102B4000C01A001C44F822004FF0010303E0C31A2E
:102B500044F822300023521EE6D5C8E7401C09285D
:102B6000DBDBC0F1090058620CB0BDE8F081000069
:102B70009CD7210010B5122000F065FD08F08CFBF9
:102B800004490446096A88472046BDE8104008F019
:102B900045BB0000C42C002010B504F639FB10B171
:102BA00006F028FC10BDBDE810402BF61FBE00004B
:102BB00010B52BF607FF022818D00D4CD4F8880268
:102BC00020F00100C4F888024FF0E0214FF00050DF
:102BD000C1F8800204F5227407F080F805484168C6
:102BE000491C4160206840F00100206010BD0000D9
:102BF00000E00040602D00202DE9F04FADF5317D63
:102C0000814600F12C0B58308890859001F12C0002
:102C10008490CDE989012C300E4687908690154628
:102C200024211046FFF759FA002405F12C076C62A5
:102C3000B84624213846AC62FFF74FFA7C62BC628A
:102C40002C3724213846FFF748FA7C6237A8242124
:102C5000BC62FFF742FA40940BA824214194FFF78D
:102C60003CFA149442A824211594FFF736FA4B94A9
:102C700016A824214C94FFF730FA1F9421A8242190
:102C80002094FFF72AFA2A94684624212B94FFF710
:102C900024FA09944DA824210A94FFF71EFA5694A9
:102CA00058A824215794FFF718FA619463A82421A7
:102CB0006294FFF712FA6C942CA824216D94FFF70C
:102CC0000CFA359479A824213694FFF706FA8294F9
:102CD0006EA824218394FFF700FA77944846A1490F
:102CE000789414F0EFF89F4C010004F12C0A04F1E1
:102CF000580409D15146584614F0E4F820B9214649
:102D0000889814F0DFF828B13046964914F0DAF8C4
:102D100078B339E03046934914F0D4F850B95146AD
:102D2000849814F0CFF828B92146879814F0CAF88F
:102D300000287DD0242231462846FFF7A7F9706A83
:102D40006862B06AA862849D4446242229464046AF
:102D5000FFF79CF9686A6062A86AA062879C2422D7
:102D600021463846FFF792F9606A7862A06AB86235
:102D7000F5E0FFE75146849814F0A4F820B9214605
:102D8000879814F09FF828B14946304614F09AF815
:102D9000B8B122E04C46242249462846FFF776F98E
:102DA000606A6862A06AA8625D4644462422594669
:102DB0004046FFF76BF9686A6062A86AA062889C67
:102DC000CDE75946849814F07DF8002830D1306D55
:102DD000012802D8F06C0028ABD037AA85998998D1
:102DE00000F0CEF90BAA5846869900F0C9F942AA1C
:102DF00085998A9800F0C4F916AA4846869900F089
:102E0000BFF916A942A814F05DF800287ED021AAC7
:102E10000BA937A800F09AFA6A4616A942A800F052
:102E200095FADDE9850158AA00F0AAF9A5A800E005
:102E30007BE02421FFF751F90024AE9484A82421DB
:102E4000AF94FFF74AF98D948FA824218E94FFF751
:102E500044F998949AA824219994FFF73EF9694679
:102E6000A39463AA0846A49400F08AF92CAA6946A0
:102E700063A800F085F921A979AA084600F080F935
:102E80006EAA16A963A800F07BF99AAA02216EA87F
:102E900000F058F984AA58A979A800F071F98FAA0E
:102EA0002CA984A800F052FA4DAA9AA98FA800F084
:102EB0004DFA2A464DA9684600F062F984A82421FB
:102EC000FFF70BF98D948FA824218E94FFF705F955
:102ED00098949AA824219994FFF7FFF8A39484AAC0
:102EE0004DA96EA8A49400F031FA8FAA84A921A854
:102EF00000F046F99AAA0BA92CA800F041F9424625
:102F00009AA98FA800F022FA3A4600E008E058A9F2
:102F10002CA800F035F901200DF5317DBDE8F08FCA
:102F20000BA937A813F0CEFFA8B10E4E24223146CC
:102F30002846FFF7ABF8706A6862B06AA862564626
:102F40004546242251464046FFF7A0F8706A686261
:102F5000B06AA86203E72946484600F005F8002059
:102F6000DAE7000018D821002DE9F04F0C465B4E3F
:102F7000016D06F12C085836F9B0834600F12C0596
:102F800000F1580A04F12C0904F15807012902D86C
:102F9000296A00297ED0514913F094FF50B9414667
:102FA000284613F08FFF28B93146504613F08AFFA8
:102FB000002873D037AA51465846FFF713FD42AA9E
:102FC0005146584600F0C2F94DAA42A937A800F070
:102FD000D7F80BAA03214DA800F0B4F86A46514671
:102FE000284600F0CDF837AA6946284600F0C8F810
:102FF00016AA37A9584600F0C3F80BA937AA084605
:1030000000F0BEF842AA082116A800F09BF821AAF9
:1030100042A937A800F09AF937AA694621A800F01A
:10302000AFF82246022137A800F08CF8294637AACB
:10303000084600F0A5F869462CAA084600F0A0F85A
:1030400042AA2CA937A800F09BF84DAA082142A853
:1030500000F078F858AA042116A800F073F863AAC3
:1030600021A958A800F072F96EAA63A90BA800F074
:1030700087F84A464DA96EA800F068F937AA694654
:103080002CA800F07DF83A46082137A800F05AF83D
:10309000002000E002E079B0BDE8F08F0F4D24225F
:1030A00029462046FEF7F2FF686A6062A86AA062BD
:1030B00045464C46242241464846FEF7E7FF686AEB
:1030C0006062A86AA062242231463846FEF7DEFF1D
:1030D000706A7862B06AB862DAE7000018D8210036
:1030E0002DE9F043154F0446154EF87D10258BB0A1
:1030F00091468846FF2806D0716EC20005FA02F09C
:10310000814301437166694604F1580003F05AFC9B
:10311000F87DFF2804D0716EC0008540A943716618
:1031200042466946204600F02BF84A46694604F1BB
:103130002C0000F025F80BB0BDE8F083400700201C
:1031400000000E40F0B4002508232F4650F82360FD
:103150002C463D46E6FB014542F823405B1EF5D573
:10316000002152F8213013B9491C0929F9DBC1F1BA
:1031700009035362806A9062F0BC104616F0AEBF3D
:103180002DE9F74FA0B082460C4668468346482199
:10319000FEF7A3FF4FF00009CDF848900821CDF8C5
:1031A0004C90002208204D4646180BEB860354F83D
:1031B00020805F685AF821C0BE1845EB0502ECFB81
:1031C00008625E60401EEFD5491EEAD569460020C0
:1031D00051F8202012B9401C1228F9DBC0F112006E
:1031E0008864DAF82800A16A884201D0012000E052
:1031F000002000246D46139000E0641C55F8240064
:1032000008B9092CF9D313982D491E9012988B6C8C
:103210002A46984215D818D3C0F112000DE051F893
:10322000203052F82060B34206D0B34201D20120D0
:1032300000E0002028B908E0401C1228EFDB00E085
:10324000641C55F824000028FAD005EB84012422E0
:1032500014A8FEF71BFF14A9002051F8202012B972
:10326000401C0928F9DBC0F10900486204F109009B
:103270001228084615D216F031FF14A82022011D8D
:10328000FEF704FF05EB840014A9406A1C9000209F
:10329000641C51F82020002AE5D1401C0928F8DBE5
:1032A000E1E716F01BFF229C14A924222046FEF71A
:1032B000EDFE1D9860621E98A06223B0BDE8F08FFD
:1032C000C8D7210010B54342421E0A60C1E901304F
:1032D0004FF0000001F1100C4FF0FF34C8608CE893
:1032E00015008862C1E9074301D0092000E00820E9
:1032F000486210BD0EF04ABAF0B5002408232746F4
:1033000051F8236050F8235016EB040C47EB070EDE
:10331000B5EB0C0C77EB0E0C344406D22C1B241CA2
:1033200042F823404FF0010403E02D1B42F82350E4
:1033300000245B1EE4D5002052F8201011B9401C77
:103340000928F9DBC0F109005062F0BD2DE9F04118
:103350000F460346816A0125B86A1446002641B12A
:1033600090B3786A596A884244D849D3C0F10900B9
:103370003EE020B139461846FFF70FFB16E0586AC9
:10338000796A88420ED81BD3C0F1090008E057F8CB
:10339000202053F820108A4212D803D300F10100F4
:1033A0000928F4D322463946184626E02149A66268
:1033B000606A4A6A904234D839D3C0F109002EE0DD
:1033C0002246194638461EE0FFE739461846FFF701
:1033D000E4FA2046A562BDE8F041FFF72BBB53F8A5
:1033E000202057F820108A420AD803D300F10100A8
:1033F0000928F4D3224619463846FFF77DFFD5E762
:10340000224639461846FFF777FFE2E751F82030A9
:1034100054F8202093420AD803D300F10100092870
:10342000F4D32046BDE8F041024900F005B8BDE8FC
:10343000F08100009CD72100F0B5002308221E4631
:1034400051F8225050F82240EF1846EB060CE71BCB
:1034500076EB0C072B4406D2E31A1B1C40F82230F3
:103460004FF0010303E0E41A40F822400023521E0B
:10347000E6D5002150F8212012B9491C0929F9DBB1
:10348000C1F109014162F0BD70B50B460446816A85
:103490000025986A8CB0012641B140B1586A616A32
:1034A000884239D846D3C0F1090033E030B10CB0BE
:1034B0002046BDE870401946FFF74BBA606A596A6A
:1034C000884237D80ED3C0F1090008E053F8202015
:1034D00054F820108A4205D82CD300F101000928A5
:1034E000F4D327E06A4621461846FFF705FF6946F0
:1034F00024222046FEF7CAFD0998C4E909060CB04B
:1035000070BD54F8202053F820108A4212D803D3FB
:1035100000F101000928F4D36A4621461846FFF756
:10352000EBFE694624222046FEF7B0FD0998C4E967
:103530000905E4E70CB02046BDE870401946FFF7E6
:103540007BBF00000249096801F007010170704764
:1035500000A000400248016841F47001016070471A
:1035600088ED00E002480068001D0EF02BBC000052
:10357000D02B002002484068001D0EF023BC000044
:10358000D02B0020FEE700000FB4054B10B503A9B7
:10359000044A029800F000FD10BC5DF814FB000026
:1035A000F9B22000002C00200FB41CB50246002008
:1035B00007AC00290BD0491ECDE90021054B6A4616
:1035C0002146069800F0E8FC009A002111701CBC0E
:1035D0005DF814FBC74620000FB4084B10B504A9D2
:1035E00002AA039800F0D8FC044602A9002001F0CA
:1035F00075F8204610BC5DF814FB0000DD46200085
:103600007CB5044600201D46164600290BD0491EF5
:10361000CDE90041044B6A462946304600F0BCFC27
:10362000009A002111707CBDC7462000002809DBEC
:1036300000F01F02012191404009800000F1E020CC
:10364000C0F880127047002809DB00F01F0201213A
:1036500091404009800000F1E020C0F880127047DE
:10366000002809DB00F01F02012191404009800081
:1036700000F1E020C0F880127047002809DB00F05C
:103680001F02012191404009800000F1E020C0F8B4
:1036900000117047002809DB00F01F020121914052
:1036A0004009800000F1E020C0F8001170470028B8
:1036B0000FDB4109890001F1E021D1F8001100F090
:1036C0001F0201209040014201D0012070470020DC
:1036D000704700207047002804DB00F1E02090F8DC
:1036E0000004704700F00F0000F1E02090F8140D86
:1036F0007047002804DB00F1E02090F800047047D8
:1037000000F00F0000F1E02090F8140D7047002841
:1037100004DB00F1E02090F80004704700F00F0097
:1037200000F1E02090F8140D7047002804DB00F150
:10373000E02090F80004704700F00F0000F1E02056
:1037400090F8140D7047002804DB00F1E02090F899
:103750000004704700F00F0000F1E02090F8140D15
:103760007047002804DB00F1E02090F80004704767
:1037700000F00F0000F1E02090F8140D70470028D1
:1037800004DB00F1E02090F80004704700F00F0027
:1037900000F1E02090F8140D7047002804DB00F1E0
:1037A000E02090F80004704700F00F0000F1E020E6
:1037B00090F8140D7047000002480068C0F3022022
:1037C000704700000CED00E002480068C0F30220E2
:1037D000704700000CED00E002480068C0F30220D2
:1037E000704700000CED00E002480068C0F30220C2
:1037F000704700000CED00E002480068C0F30220B2
:10380000704700000CED00E002480068C0F30220A1
:10381000704700000CED00E002480068C0F3022091
:10382000704700000CED00E0EFF3108070470000DF
:103830002DE9F0412DED020B9FED3D0B2DED028B9F
:103840009FED3D8BDDE90254C4F30A50A0F2FF3630
:10385000142E37DA002E18DA53EC102B9DED020BE4
:1038600051EC100BFEF7ECFC53EC182BFFF71CF897
:1038700057D2002CBCBF4FF00044002551DB54EA66
:10388000050018BF2E4C1BD14BE02E4820FA06F73E
:1038900004EA070028431FD053EC102B9DED020BC8
:1038A00051EC100BFEF7CCFC53EC182BFEF7FCFF91
:1038B00037D2002C03DD4FF48010F0400444BC43A9
:1038C00000252EE0332E07DCA6F114004FF0FF3167
:1038D00021FA00F73D4206D19DED020BBDEC028BB3
:1038E00002B0BDE8F08153EC102B9DED020B51ECC2
:1038F000100BFEF749FD53EC182BFEF7D5FF10D245
:10390000002C0DDD142E08BF641C09D0C6F1340054
:10391000012101FA00F02844A84238BF641C054682
:10392000BD43CDE902549DED020BD7E70000000036
:103930009C7500883CE4377E000000000000000019
:103940000000F03FFFFF0F0010B52DED020B2DED35
:10395000088B84B09DED0C0B51EC100BFEF730FF83
:1039600041EC180B9DED0C0B53EC182B51EC100B8C
:10397000FEF707FD41EC190B0D989FED290B10F098
:10398000004F53EC102B51EC190B9FED21AB9FED29
:1039900022BB0ED0FEF770FF0ED953EC1B2B51EC5F
:1039A000190BFEF781FF1CD214E000BF41EC180B8D
:1039B00017E0FEF761FF06D253EC1A2B51EC180BFF
:1039C000FEF7DFFCF2E753EC1B2B51EC190BFEF773
:1039D0006BFF06D853EC1A2B51EC180BFEF730FC9A
:1039E000E4E78DED028B9DED0C0B18EE901A10EEB6
:1039F000900A8DED000B61F31E0003909DED020B0C
:103A000004B0BDEC088B02B010BD00000000000047
:103A1000000000000000F03F000000000000E03F58
:103A2000000000000000E0BF02E008C8121F08C14B
:103A3000002AFAD170477047002001E001C1121F2F
:103A4000002AFBD1704780F3108870472DE9F74FAB
:103A500007460298DFF86CA1DFF86C814FEA500B43
:103A60005A48019D5C465646CAF80000D8F8042022
:103A70003F2060F30502C8F80420DAF8000020F4C3
:103A8000700040EA0750CAF80000DAF8000020F49D
:103A9000702040EA0740CAF800000D2F02D00E2F18
:103AA00004D007E0306840F4004002E0306840F4A1
:103AB00080403060306840F400503060306820F062
:103AC00060503060306820F00F0040F0030030603C
:103AD000002000F0AFF8012872D13168B24641F001
:103AE000804131600020424609E0D8F8083043F4B4
:103AF0008033C8F80830811C00F1010005D09168BE
:103B00009046C1F300210029EFD1072000F092F880
:103B1000012855D142E000264FF47A7924E04E4541
:103B20001ED9DAF8001021F08041CAF80010DAF846
:103B3000001041F00041CAF80010DAF8001021F03E
:103B40000041CAF80010002000F074F8012837D1B5
:103B50001F484169491C41610520FCF5E3FF7FE7EF
:103B60000120FCF5DFFF761CD8F80800C0F3002028
:103B70000028D4D0D8F80800434600F07F02A242C3
:103B800000D92246002006E0196825F8021B090C1E
:103B900025F8021B401C9042F6D3A41A002CBAD17F
:103BA0000298C00707D040468168C1F30021002970
:103BB000FAD000682880BDE8FE4F002000F03AB837
:103BC000BDE8FE8F00A8004000E000400A0708079B
:103BD000602D00202DE9F0411249044600200860C4
:103BE000104980390860104D686A104E00F00101DC
:103BF000494201403062C8050DD440F20117A8695E
:103C0000B84208D024B10120641EFCF58BFFF6E712
:103C10000020BDE8F08106480068B0616868F06186
:103C20000120F6E794581C4200E00040602D00207F
:103C300000A800402DE9F041104F0546F868C0F398
:103C40000240A84217D0F86820F007002843F86027
:103C500000244FF6FF76F868C0F30240A84205D072
:103C60000120FCF55FFF641CB442F4D3B44202D1DE
:103C70000020BDE8F0810120FBE7000000E00040EB
:103C80002DE9FF5F82B00021DDE90430020DDDF88F
:103C900040B0034318D044F61050A2F2FF32424322
:103CA0001514119801281FD0A5EB0B00401C5FEAEA
:103CB000000A4FF000064E4FDFF83891B0465046EC
:103CC00015D5CAF1000413E0119801244AA3012874
:103CD00001D16FEA0B010298119AC0E90031C0E9E5
:103CE000024206B0BDE8F09FCBF10000DFE70446DA
:103CF0000021404A491842EB0450CDE9001012E07F
:103D0000E00707D032463B4640464946FEF73FFBB8
:103D10008046894632463B4610461946FEF737FB39
:103D200006460F466410002CEAD1DDE90401DDE906
:103D30000023BAF1000F06DAFEF729FB42464B4694
:103D4000FEF725FB05E0FEF794FB42464B46FEF7E7
:103D500090FB04460E460022284BFEF7A5FD03D833
:103D60004FF0FF30014607E00022254B2046314648
:103D7000FEF766FAFEF768FD102409E0002C0ADB66
:103D80000A220023FEF726FC039B30321A55641EDC
:103D900050EA0102F2D1641C039AC4F111031444E5
:103DA000119A012A03D0012208430DD10AE00843E9
:103DB00004D000204FF0110B119072E7A3EB0B051C
:103DC0006D1E0DE05B4504DD4FF0000205F10105BD
:103DD00004E003DA4FF00002A5F10105002AECD05F
:103DE00002981199C0E90231C0E9004579E7000065
:103DF000000014400000F03F300000000000F043DD
:103E00000000E03FF0B50C462DED088B89B006466A
:103E10009FED559B20216846FEF75FF9B0EE498A79
:103E2000F0EE698A102269463046FFF70FFE002542
:103E30006F4607EB4500008AFEF78CF953EC182B10
:103E4000FEF7FEF96D1C41EC180BEDB2082DF0D316
:103E50009FED470B51EC180B53EC102BFEF797FA24
:103E600041EC180B9FED44BB0D2E02D00E2E30D02E
:103E700072E06088FEF76EF953EC1B2BFEF7F9FA3F
:103E80009FED3F0B41EC190B51EC100B81F0004101
:103E900041EC1A0BE088FEF75DF953EC1A2BFEF7A4
:103EA00076FA41EC1A0B2088FEF754F953EC182BE4
:103EB000FEF76AFA53EC1A2BFEF7DBFA9FED321B82
:103EC00053EC112BFEF7D5FA53EC192BFEF7B8F98A
:103ED00040E0A07EFF2801D0E8B13DE09FED2C0B33
:103EE00051EC100B81F0004141EC1A0BE088FEF719
:103EF00031F941EC190B2089FEF72CF953EC182B02
:103F0000FEF742FA53EC192BFEF7B3FA53EC1A2BD7
:103F1000FEF73DFA1EE0A088FEF71CF941EC190BF4
:103F2000E088FEF717F981F0004141EC1A0B208977
:103F3000FEF710F953EC182BFEF726FA53EC1A2B68
:103F4000FEF797FA53EC192BFEF721FA53EC1B2BD3
:103F5000FEF78FFA41EC190B09B0B0EE490AF0EE0A
:103F6000690ABDEC088BF0BD0000000000000000F5
:103F7000000000000000C03F0000000000005940A9
:103F80000000000000000040DE718A8EE4F25FBF96
:103F9000E2E1E1E1E1E10E402DE9FF4F95B09B4602
:103FA0008946064600250FE2252877D100242746BA
:103FB000F84A0121059400E0044316F8013F203B34
:103FC00001FA03F01042F7D130782A2811D06FF0AF
:103FD0002F033078A0F13002092A16D8059A44F050
:103FE000020402EB820203EB42021044761C0590AD
:103FF000EFE759F8042B0592002A03DA504244F403
:104000000054059044F00204761C30782E2816D116
:1040100016F8010F44F004042A280DD06FF02F0287
:104020003078A0F13003092B09D807EB870302EBA6
:104030004303C718761CF3E759F8047B761C3078E5
:104040006C280FD006DC4C2817D068280DD06A28C1
:1040500014D104E0742810D07A280FD10DE044F474
:1040600000140AE044F4801401E044F4401472782F
:10407000824202D104F58014761C761C30786628C2
:104080000BD013DC582877D009DC002875D04528E0
:10409000F6D04628F4D047281AD19DE118E06328CD
:1040A00035D0642879D0652812D195E1702873D075
:1040B00008DC6728F1D069286FD06E280DD06F28F2
:1040C00006D1B5E073282CD0752875D0782874D027
:1040D0005A46179990476D1C75E1C4F302500228A7
:1040E00009D003280DD0D9F8001004280DD00D6098
:1040F00009F1040967E1D9F80010EA17C1E9005293
:10410000F6E7D9F800100D80F2E70D70F0E719F826
:10411000041B8DF8001000208DF80100EA460120F4
:1041200003E059F804AB4FF0FF3061074FF0000196
:1041300002D40DE008F101018846B9420FDA80454A
:10414000F8DB1AF808100029F4D108E008F10101A1
:1041500088468142FADB1AF808100029F6D1059842
:104160005B46A0EB080721463846179A00F094FA00
:10417000284400EB080507E04DE029E10DE01AF8BE
:10418000010B5A4617999047B8F10108F7D25B46E0
:1041900021463846179A13E142E00A220092C4F3FE
:1041A00002524FF0000A022A08D059F804CB032A21
:1041B0004FEAEC710AD00DE029E02AE009F107018D
:1041C00021F00702F2E802C1914609E00FFA8CFCE7
:1041D0004FEAEC71042A03D14FFA8CFC4FEAEC71E0
:1041E000002907DA0A460021DCF1000C61EB02012C
:1041F0002D2202E0220504D52B228DF80420012275
:1042000003E0E20701D02022F7E7904659E00A21B7
:1042100002E010220DE010214FF0000A00910BE0A7
:1042200010224FF0000A44F004040827009203E033
:1042300008224FF0000A0092C4F30252022A05D06D
:1042400059F804CB0021032A08D009E009F107013D
:1042500021F00702F2E802C1914605E01FFA8CFC4A
:10426000042A01D10CF0FF0C4FF00008220728D5DA
:10427000702806D0009B83F0100353EA0A0305D090
:104280000EE040228DF80420012208E05CEA0102E1
:1042900006D030228DF804208DF8050002229046C9
:1042A000009B83F0080353EA0A030AD15CEA010287
:1042B00001D1620705D530228DF804204FF00108A6
:1042C0007F1E582804D034A003900EA802900DE061
:1042D00036A0F9E753466046009AFEF77BF984461C
:1042E0000398825C0298401E029002705CEA010012
:1042F000F0D1029806A9081A00F1200A600702D539
:1043000024F4803400E00127574502DDA7EB0A00C2
:1043100000E0002000EB0A01009005984144401A9B
:104320000590E00306D45B462146179A059800F0F5
:10433000B3F90544002706E001A85A46C05D179965
:1043400090476D1C7F1C4745F6DBE0030CD55B46B0
:104350002146179A059800F09FF9054404E03020A3
:104360005A46179990476D1C0099481E00900029E5
:10437000F5DC08E0029802995A460078491C02913F
:10438000179990476D1CBAF10001AAF1010AF1DCFE
:1043900065E1000009280100303132333435363709
:1043A0003839616263646566000000003031323381
:1043B0003435363738394142434445460000000021
:1043C00000F058F90544761C307800287FF4ECADF5
:1043D00019B02846BDE8F08F620700D4062709F11E
:1043E000070222F0070CFCE80223E14603F0004834
:1043F0005FEA080C02D00FF2702C0DE05FEA045C5B
:1044000002D50FF2682C07E05FEAC47C02D00FF2FD
:10441000602C01E0AFF2700C4FF0FF3823F0004346
:10442000CDF850C065280CD006DC452809D04628B8
:104430001DD047283DD13DE0662818D067287ED1A1
:1044400038E00021112F01DB112000E0781CCDE9BC
:10445000000106A90EA8FFF713FCDDE90F010E9A73
:1044600003910021009207F1010A04914DE04FF001
:1044700000400097CDE9011006A90EA8FFF700FC47
:10448000DDE90F0203920E9B11990022DDF80CA0CA
:104490000093049211B9791C00EB010AB7EB0A00F2
:1044A00004D4C0F1FF3007F1010A0490AAEB070021
:1044B000019044E0012F00DA01270021112F01DDD6
:1044C000112000E03846CDE9000106A90EA8FFF74B
:1044D000D7FBDDE90F010E9A0391002104910092B0
:1044E000BA4621070CD40399514500DA8A46BAF13D
:1044F000010F05DD009AAAF10101515C302908D0B5
:10450000B84202DA10F1040F06DA0121CDE90110F8
:1045100015E0AAF10101E9E7002805DC049901444E
:104520000491AAEB000102E0411C514500DD8A46DE
:104530000499401A401C01904FF00040029020075F
:1045400004D40198504501DBCDF8048000208DF89B
:104550004F0002980DF14F07B0F1004F25D02B20EE
:104560000E9002984FF0020800280CDA40420290A8
:104570002D200E9007E00A210298FEF715F8303141
:10458000029007F8011DB8F10001A8F10108F2DC62
:1045900002980028EFD1791E0E980870307800F04C
:1045A000200040F0450007F8020D12A8C01B00F1E2
:1045B00007081498007800B1012000EB0A01019867
:1045C00001EBE07105984144401A401E0590E0035C
:1045D00006D45B462146179A059800F05DF805441D
:1045E0001498007818B15A46179990476D1CE0034B
:1045F00024D55B462146179A059800F04DF80544EE
:104600001CE00498002807DBDDE90301884203DD94
:104610000098405C179901E0179930205A4690475E
:10462000049805F10105401C04900198401E01907A
:1046300004D12E205A46179990476D1CBAF10001FB
:10464000AAF1010ADDDC05E017F8010B5A461799BB
:1046500090476D1CB8F10001A8F10108F4DC5B463D
:104660002146179A0598ABE62D0000002B000000AC
:10467000200000002DE9F041044600251E461746A3
:10468000880404D405E039462020B0476D1C641E20
:10469000F9D52846BDE8F0812DE9F0410446002512
:1046A0001E469046C80301D5302700E02027880425
:1046B00004D505E041463846B0476D1C641EF9D567
:1046C0002846BDE8F0814A68002A06D00A68531CD3
:1046D0000B6010704868401E486070470A68531CA1
:1046E0000B6010707047000070B504466FF0130542
:1046F000552801DB06200FE0412C0ADA2D2C01DBC6
:10470000042009E014F10A0F01DB032004E0AC42AD
:1047100001DB052000E0072010F09EFA16F032FAC7
:10472000A8B10F480068C0F3805080B904F11401AB
:104730000C48142902D240F2DC5106E0AC4202DA05
:104740004FF4AF6101E04FF4C8614161C1610648B7
:104750000168002903D02046BDE87040084770BDBD
:1047600014A8004040C70020382F002010B51A4977
:1047700040F21A444FF4B9720B694FF496710C3B36
:10478000A3420FD90424BE2801DC0C241BE0DC2842
:1047900001DC082417E0FA280EDD884210DD904283
:1047A00011DD0FE0BE2801DC0B240CE0DC2801DC6D
:1047B000072408E0FA2801DC062404E0884201DC32
:1047C000052400E00324204610F05AFA2046BDE8F4
:1047D000104010F037BA000040C7002006480168BA
:1047E00041F001010160064804490160054941604A
:1047F0000549816070470000FC2E0020B1BA2000FE
:10480000DCCA002011B9200009B320002DE9F041D5
:104810001D469046DDE906230F4606460D498020D9
:10482000FFF51FF8044680F83C50202239463D3001
:10483000FDF72CFC2022314604F15D00FDF726FC3B
:1048400004F13C0241462046BDE8F0414123FFF51A
:104850008DB9000059482000FFF5E8B82DE9F04770
:104860001D46DDE9097392468946064600221F4926
:10487000A820DDF82080FEF5F4FF002180F8A510C7
:10488000C763044680F85010012084F85100D8F81E
:104890000010C4F85210B8F80410A4F8561098F894
:1048A000060084F858002868C4F85900A888A4F8BD
:1048B0005D00A87984F85F001022514604F1600081
:1048C000FDF7E4FB1022494604F17000FDF7DEFB22
:1048D0000748324606490068C4F880002046BDE813
:1048E000F0472023091DFFF541B90000F5482000DD
:1048F000FCD621002DE9F0478A4604460027FFF543
:1049000095F850B394F8A5004FF0010904F1500850
:1049100004F1400630B104F1850501280DD00228CC
:1049200028D11BE0102251463046FDF7AFFB002096
:1049300084F8840084F8A59009E0102251462846A6
:10494000FDF7A4FB84F88490022084F8A5003523A9
:10495000424631462046FFF509F90BE01022514648
:1049600004F19500FDF792FBE36B29460020A26954
:10497000984701273846BDE8F08700002DE9F05F31
:104980009B4692460546DDE90D230AA8894690E834
:10499000C0011C498020FEF564FF044610224946F0
:1049A0006D30FDF773FB1022514604F15D00FDF7F9
:1049B0006DFB1022594604F14D00FDF767FB30886E
:1049C000A4F84A00B07884F84C003968C4F8431061
:1049D000B988A4F84710B87984F84900D8F80000DD
:1049E000E063B8F80400A4F8400098F8060084F8E2
:1049F000420004F13C0229462046BDE8F05F412315
:104A0000FFF5B4B8094A2000FFF510B82DE9F041D0
:104A10001F469046DDE906230E4605460F498C20C9
:104A2000FEF51FFF0446202229466C30FDF72EFBC1
:104A30002022314604F14C00FDF728FB04F13C0034
:104A4000102239460546FDF721FB2A4641462046FD
:104A5000BDE8F0415023FFF589B80000614A20000D
:104A6000FEF5E4BF06460F46154672B63846FDF71A
:104A70003FFB402801D9402002E03846FDF738FBD3
:104A800080463046FDF734FB402801D9402002E043
:104A90003046FDF72DFB04469C211048FDF71DFB19
:104AA000424639460D48FDF7F1FA0C482246314698
:104AB0005C30FDF7EBFA09484FF0AA310164456418
:104AC0004FF0BB3181644FF0CC3101654FF0DD31E7
:104AD0008165002000F004F8FEE700008833002024
:104AE00030B5ADF20C4D04464FF4806103A8FDF7DC
:104AF000F4FA194D202085F83F0085F89B003CB161
:104B00002846012C436DC26C09D0022C0CD00FE05A
:104B1000114A12A15C3203A8FEF75EFD08E012A163
:104B200003A8FEF759FD03E017A103A8FEF754FD03
:104B300003A90CA2686CCDE90121009019A3064AD3
:104B400019A1002000F036FB012C01D000F0EAFA98
:104B50000DF20C4D30BD0000883300205B455252F1
:104B60004F525D20257300005B5741524E494E471E
:104B70005D20506172616D303A25642C5061726124
:104B80006D313A25640000005B504152414D5D207B
:104B9000506172616D303A25642C506172616D31E3
:104BA0003A256400000000006170705F61737365F6
:104BB00072742E6300000000014815F037BB00003E
:104BC000E42B002000B587B003208DF800001D20E5
:104BD0008DF8160001208DF817008DF818008DF85B
:104BE0001900044A0449684600F0B8FAFFF7E4FFE8
:104BF00007B000BD8D69210077C0210006460F4631
:104C000090461D4672B64046FDF772FA402801D91B
:104C1000402002E04046FDF76BFA04469C210D4817
:104C2000FDF75BFA224641460A48FDF72FFA09488C
:104C30004FF05531016445644FF066318164C664BC
:104C40004FF0773101654765C94381650220FFF761
:104C500047FFFEE7883300202DE9F04106460F4666
:104C600090461D464046FDF743FA402801D94020B2
:104C700002E04046FDF73CFA04469C210D48FDF752
:104C80002CFA224641460B48FDF700FA09484FF03E
:104C900011310164456449008164C6644FF03331C9
:104CA000016547654FF044318165BDE8F041012061
:104CB000FFF716BF8833002010B588B0817AC27A1A
:104CC000037B447BCDE90443CDE90621817BC07B96
:104CD00006A2DD23CDE90032CDE90201114B12A27B
:104CE00017A1022000F066FA08B010BD436F6E6E87
:104CF00065637465642077697468207468652070E2
:104D000065657220253032583A253032583A2530C0
:104D100032583A253032583A253032583A25303216
:104D2000582E00007CD421002E2E5C5372635C75DB
:104D30007365725C757365725F6170702E630000DD
:104D40004E4F5F544147000010B586B010A0D422EA
:104D5000CDE900200291144B14A21AA1022000F008
:104D600029FA16F027FD1949002002F019FD044622
:104D7000002C0AD014220C491C3101A8FDF786F939
:104D8000ADF8084001A800F0C9F806B010BD000059
:104D9000446973636F6E6E65637465642028307850
:104DA00025303258292E00004CD421002E2E5C5381
:104DB00072635C757365725C757365725F61707048
:104DC0002E6300004E4F5F5441470000B42C00207A
:104DD000052801D30020704700EB4001044800EB98
:104DE0004110017809B1001D704700207047000094
:104DF000503000202DE9F0470546894600244FF049
:104E0000FF3846464FF0010A002D10D03C490320E0
:104E100015F05CF9287960B101280AD0022808D081
:104E2000032806D0042804D04046BDE8F087E520DA
:104E3000FBE7EFF31082012181F31088314F04EB7F
:104E4000440107EB41110B783BB14B68D5F800C02A
:104E5000634510D10B7A83420DD104EB440007EB7C
:104E6000401090F82D00022803D026B201200870CF
:104E700004E0052402E0641C052CE0D35AB30120B1
:104E800080F31088052C34D2002203211E4812F032
:104E9000A9FD04EB440107EB411428686060287900
:104EA000207204F10C00202205F10801FDF7EEF854
:104EB000164860631648E0631648A063002020642B
:104EC000C4F85C901449606888420ED10320FEF754
:104ED000EEFB20B109E0002080F31088D2E7032028
:104EE0000CF056FB03200CF060FB201D0CF088F842
:104EF0008246BAF1000F00D04646304695E70000E2
:104F0000B11F1000503000200CCA2100859F2000E6
:104F1000159E2000CD9D2000004001403EB5044676
:104F20004FF400711A48FDF7D8F8207810B1012825
:104F300019D01DE000211748A28830F831309A427C
:104F400007D100EBC10014A143681148FEF744FBF0
:104F50000EE02E2902D0491CC9B2EEE714A10C487C
:104F6000FEF73AFB04E01DA109486268FEF734FB36
:104F7000074921A22069CDE901210090D4E902234B
:104F80001EA1002000F016F9BDE83E4000F0DEB89A
:104F90002434002044CB21004572726F7220636F6D
:104FA0006465203078253034583A2025730000009D
:104FB0004572726F7220636F6465203078253034DB
:104FC000583A204E6F20666F756E6420696E666F6A
:104FD000726D6174696F6E2E0000000028257329C0
:104FE000206973206E6F742065737461626C6973DD
:104FF0006865642E00000000257300006170705F1A
:105000006572726F722E630030B597B005460C461C
:105010001C22414910A8FDF739F81C223E491C31D9
:1050200009A8FDF733F820223B49383101A8FDF7E4
:105030002DF894B13949062015F048F83849152063
:1050400015F044F834496C39A1F12C02052D60D2D9
:10505000DFE805F0060606213900E52017B030BD6F
:10506000207931F810001190607932F81000129018
:10507000A0791390206810902748843850F83500A4
:1050800021880904090C04D018B110A90CF04FFABA
:1050900038E0E420E2E7207901EB4000808A0A90C2
:1050A000607902EB4000C0880B90A0790C902068DA
:1050B0000990207810F0FF0F03D009A80BF050FEE4
:1050C00020E0E420CAE72079031F042B01D8E72061
:1050D000C4E7022818D001200290207901EB40009B
:1050E000008D0390607902EB400080890490A079E4
:1050F0000590206801902088800508D001A9002033
:105100000CF044FA0020A9E702200290E5E7E42031
:10511000A4E7E620A2E70000ACCA21002920100085
:10512000252010000248406A002800D00047704740
:1051300024370020002806D0002904D0024AD26972
:10514000002A00D010477047243700200248006A28
:10515000002800D0004770472437002070B50D4666
:1051600016460D4C00280AD00178032911D80121D8
:10517000A17601461A222046FCF788FF05E00020B0
:10518000A0761A210448FCF7A8FFE56126620020FA
:1051900070BD012070BD000024370020044A104477
:1051A000807D084201D00120704700207047000038
:1051B000243700202DE9FE4F0746924699460024E9
:1051C000A046CDF80480CDF8088059480178B9424E
:1051D00002D2807E00287DD10EAD0095EFF31186BE
:1051E0000220FEF786FA8346FEF7EEFA401C012104
:1051F00081400BEB0100C0B280F3118801213846D9
:10520000FFF7CCFF38B14B484B4950F827202046D8
:1052100000F0A4F804461C213846FFF7BFFF002821
:105220005ED046A24449204600F098F8204484B25B
:1052300004213846FFF7B2FFF8B152463E492046F6
:1052400000F08CF8204484B208213846FFF7A6FF0E
:1052500038B13BA23849204600F080F8204484B29F
:105260000BE010213846FFF799FF30B135A23249E3
:10527000204600F073F8204484B208213846FFF736
:105280008DFF90B14A462C49204600F067F8204433
:1052900084B210213846FFF781FF30B12AA2264997
:1052A000204600F05BF8204484B210213846FFF716
:1052B00075FF60B126A2052101A80C9BFEF774F9C9
:1052C00001AA1D49204600F049F8204484B221A2D9
:1052D000194900E029E0204600F040F8204484B25B
:1052E0001548C4F5807120442B460D9AFEF788F9C5
:1052F000CDF800804FF48071002804DB2044884200
:1053000001DC85B200E00D46A81C884200D9FE25CC
:1053100011A20949284600F021F8284481B2064824
:10532000FFF708FFF0B280F31188BDE8FE8F0000A0
:1053300024370020F02B0020243600202800000015
:10534000200000003A000000204C696E653A000021
:10535000256C6400292000000D0A000030B50546C8
:10536000002000290CD0002A0AD006E02B18FF2BC1
:1053700006D8CC54521C401C80B21478002CF5D1B5
:1053800030BD000010B5074A06214CF2010011F0B3
:105390003FFF16F001FDFFF715FCBDE810400020AF
:1053A00029F616BBA4D3210010B5084801780029BE
:1053B0000AD101210170064829F674FABDE81040AF
:1053C0000021044829F670BB10BD0000CC2B002042
:1053D00035201000FD7821002DE9F04104460D46EE
:1053E0001746002D04D0012D02D00120BDE8F08128
:1053F000E4B1DFB1607801281AD0EFF31186022002
:10540000FEF769F98046FEF7D7F9401C012181407B
:1054100008EB0100C0B280F3118800206070A57015
:10542000E761F0B280F311880020DFE70120DDE7BB
:105430000620DBE710B50446002C0CD0204600F017
:10544000B3F9FF2060700021A160E160216161611A
:105450000020E06110BD012010BDF0B5DDE9074579
:10546000059981614FF47A76A2FB061C03FB06C303
:10547000002702FB0732C0E9021209196A41C0E99C
:10548000041200210162F0BD2DE9F0410446002C18
:1054900013D0EFF311850220FEF71DF90746FEF742
:1054A0008BF9401C012606FA00F03844C0B280F3A4
:1054B00011881248002121620EE00020BDE8F08131
:1054C000D4E90432D1E9047CDB1B72EB0C0202D27A
:1054D000016A216203E00846016A0029F0D10462F2
:1054E0006670064810380168491C0160016B416014
:1054F000E8B280F311880120E0E70000503300207B
:105500002DE9F04105460024EFF311860220FEF755
:10551000E2F80746FEF750F9401C01218140781857
:10552000C0B280F31188134A106BE8B115B102F1D3
:10553000100010E00446206A10631068401E1060DE
:105540000CE0A94206D11168491E1160296A016266
:105550002C4603E00846016A0029F2D124B100205C
:1055600020626070106B5060F0B280F311882046AA
:10557000BDE8F081403300202DE9F041EFF31187C1
:105580000220FEF7A8F80446FEF716F9401C012198
:1055900081406018C0B280F31188114D002608E0E8
:1055A0002078012804D1E16909B1A06988472670F3
:1055B0002D6A2C6A002CF3D1094D103D07E0E169FA
:1055C00009B1A06988472670206AA8632662AC6B7F
:1055D000002CF4D1F8B280F311880120BDE8F081ED
:1055E000503300202DE9F041EFF311870220FEF740
:1055F00072F80446FEF7E0F8401C012606FA00F0B7
:105600002044C0B280F311881D4DA5F110082DE093
:10561000D4E90430D8E902125B1A60EB0200D8E941
:105620001021D21A814124D326702046FFF768FF4B
:10563000A078012806D01248283000212162016894
:1056400061B10FE0D8E90220D4E9021351185841A2
:10565000C4E904102046FFF717FF07E0046005E0E7
:1056600001F1200001680029FAD104602C6A002CA5
:10567000CED1F8B280F311880120BDE8F08100009E
:10568000503300202DE9FF5F82460E4693464FF0CF
:105690000008BAF1000F20D0414886421DD8E6B17B
:1056A000EFF311870220FEF716F80446FEF784F8A0
:1056B000401C012181406018C0B280F3118850461F
:1056C0000DF02CFE10B19AF8010040B1F8B280F351
:1056D00011880F2004B0BDE8F09F0120FAE711F017
:1056E00059F904460D464FF47A7106FB01F0224643
:1056F0002B4600210DF0FCFCDFF8A890B0B1D9F8E2
:10570000040048B1D0E90410091B60EB0500C9E9A9
:10571000021011F0B9F904E00021C9F80810C9F825
:105720000C104FF00108D9E9020106E0D9F8040095
:10573000D0E90421101B61EB0501CDE902013246DD
:105740000023CDF800B05046FFF787FE5046FFF724
:105750009BFE14F0C9FB4FF0E024D4F800014FF495
:10576000801510F4801F01D0012000E0002020B936
:105770001420FDF75BFFC4F80051B8F1000F0AD008
:10578000D9F80400D0E90431D9E90202181A61EB12
:10579000020111F035F9F8B280F31188002099E781
:1057A000008AB907403300202DE9F0410446002566
:1057B000002C39D0EFF311870220FDF78CFF06464D
:1057C000FDF7FAFF401C012181407018C0B280F340
:1057D00011886078012824D1144E7068A0420BD142
:1057E00011F0D8F8D4E90432181A62EB0102C6E9C4
:1057F000020211F049F901252046FFF781FE5DB153
:10580000706848B1D0E90421D6E90203101A61EBAF
:10581000030111F0F5F804E01DB9706808B911F042
:1058200033F9F8B280F31188BDE8F08140330020ED
:1058300010B50446114822784FF0FF3150F822206D
:10584000A2F86810227850F82200A0F86A10606B65
:10585000002801D1A16B71B120B1204600F05EF8A3
:10586000002807D1A06B20B1204600F009F80028DD
:1058700000D1002010BDE42010BD0000D02B00207E
:1058800030B58BB00446282101A8FCF726FCA06B9C
:10589000019094F83D008DF808001D48019981425F
:1058A00005D121781B4A02EB011149680391039944
:1058B000F1B10199814201D10B2004904FF4001005
:1058C0000590C01206900020079008900990402093
:1058D0000A90002101A8FFF78DFA21780E4D55F8A6
:1058E0002110A1F86A00002804DAE4200BB030BDD2
:1058F000E720FBE7FFF76CFA217855F821104863A1
:10590000217855F82110091DC1620020EEE7000042
:105910000040014024CB2100D02B002030B58BB0BB
:105920000446282101A8FCF7D8FB606B019094F88D
:105930003C008DF808001D480199814202D14FF0CA
:105940000B00039005D12078194901EB0010006885
:1059500004900498D0B14FF4801005904FF00000EF
:1059600006904FF480710791089009900A900146C3
:1059700001A8FFF73FFA21780E4D55F82110A1F844
:105980006800002804DAE4200BB030BDE720FBE714
:10599000FFF71EFA217855F821100863217855F891
:1059A0002110091DC1620020EEE700000040014007
:1059B00024CB2100D02B002070B500280CD0047817
:1059C000124E56F8241049B191F86C2032B191F87A
:1059D0006D1029B1EA2070BDE52070BDE92070BDD1
:1059E000EFF31085012181F31088FFF721FF20B923
:1059F00056F82420012182F86D101DB1012181F398
:105A0000108870BD002181F3108870BDD02B00205C
:105A100070B5022801D3E82070BD134C54F8203033
:105A20004BB193F86D5035B139B132B193F80351A0
:105A3000012D04D010E0E92070BDE42070BD0025E8
:105A400083F8035154F820305B680225C3F888506E
:105A500054F820305B681B6854F82000001D0CF0DF
:105A600009FA0028EAD170BDD02B002070B5044699
:105A70001A4D55F82400703013F02BF882B21646F8
:105A8000A2B155F8240090F8011101290ED001218E
:105A900080F80411802A0FD355F82400802200F1E9
:105AA0008001703013F030F880260CE055F8241097
:105AB000002081F8000170BD55F8240000F180013C
:105AC000703013F021F855F82400324600F18001BF
:105AD000001D0CF005FB0028EDD170BDD02B00207F
:105AE00070B50446022C01D3E82070BD184D55F85E
:105AF000240090B190F86D307BB181B17AB100266D
:105B000080F8026155F82400703013F067F855F8FA
:105B1000240090F8001121B10AE0E92070BDE420D2
:105B200070BD90F8011119B990F86C10012901D0DD
:105B3000E22070BD012180F800112046FFF796FF9A
:105B400020B155F8241081F8006170BD002070BDAF
:105B5000D02B00202DE9F8430446534F57F824007A
:105B6000061D022C7ED290F86C1000297AD00129F3
:105B700078D190F80011012974D190F80111002911
:105B800070D1012180F80111002157F82400D0E9DB
:105B900003231344027D02F00102D21D9D184268C6
:105BA000D36FC3F38003002BFAD090F80421A2B185
:105BB0003E4A1368491C90F83B20102A06D08268A0
:105BC000B3FBF2F26A43B1EBC21FF3D957F82400DA
:105BD000703012F07EFF85B226E0B0F82480C58CCC
:105BE000001D0BF081FF57F8240041F2883300EBD1
:105BF0000801491B8031001D2A460CF02AFAE5E70E
:105C000057F8240001227030694612F07DFF57F8E2
:105C100024004068C16FC1F340010029FAD09DF80B
:105C2000001001606D1EADB2002DE9D157F82400BF
:105C3000703012F04EFF0028C8D130684169490623
:105C4000FCD5EFF31085012080F3108857F824006D
:105C5000703012F03EFF78B1EFF31081012080F335
:105C6000108800E015E03068426842F0820242602D
:105C700089B1012080F3108857F82410002081F8A2
:105C8000000157F8241081F8010145B1012080F38B
:105C90001088BDE8F883002080F31088ECE700202E
:105CA00080F31088F5E70000D02B00205C00002076
:105CB0002DE9F04105460F46002D06D02AB12C787B
:105CC000022C04D3E820BDE8F081E520FBE7304E4C
:105CD00005F1580046F82400D2E900310A46703038
:105CE000194612F0D1FE291D286D16F00DF8002876
:105CF000E9D156F82410281D486656F8240007609C
:105D000056F824001822083005F14001FCF7BEF9CE
:105D1000204856F8241000EBC4056868486056F81F
:105D20002400001D0BF040FF56F82400001D0BF06E
:105D3000DDFF184801220321103811F053FE56F8F8
:105D40002410012081F86C0056F82410002081F8FE
:105D5000000156F8241081F8010156F8241081F84A
:105D6000020156F8241081F803010B490C2014F0AD
:105D7000ADF90A490D2014F0A9F995F901000BF0CD
:105D800007FC95F901000BF010FC00209BE70000D8
:105D9000D02B002014CB2100653520007535200064
:105DA0002DE9F04104461A4D55F82400703012F0E8
:105DB00090FE82B2164600277AB155F8240090F87A
:105DC0000111012909D0802A0ED300F18001703021
:105DD000802212F099FE80260BE055F8240080F80E
:105DE00000710020BDE8F08100F18001703012F0F8
:105DF0008BFE55F8240080F8047155F824003246D3
:105E000000F18001001D0CF0D1F90028EAD1E9E78A
:105E1000D02B00202DE9F84F294D804692460E46A2
:105E200001F10804A8F58041264A6868B1F5804F61
:105E300001D25168401A844202D90520BDE8F88F8A
:105E400028681369411E9268C1F30B01411A9A1A1E
:105E500001F6FF716B7AC1F30731C91A02EBC10178
:105E6000081A001F844225D9174F002400941123DB
:105E70001E224FF40049D7F800C049460120E047F0
:105E8000002108460AF036FA40B1009413231E227E
:105E90003C6849460120A0470A20CFE7687A0DF008
:105EA00047F80028CAD1009412231E223C684946B4
:105EB0000120A04752463146404616F015FBBDE78B
:105EC000B0C40020142D0020E0010020FEB50C46D7
:105ED00006460A79002101208DE80700164D0323AC
:105EE0000D2240212D680020A84760780125162842
:105EF00011D1012130460AF631FF60B1407850B12E
:105F00000E49207951F8261081F8480000213046CA
:105F100000F036FC002560780C2805D12079072890
:105F200002D1304600F052FC25B1227901213046E1
:105F30000BF6CCF90020FEBDE0010020CC190020BA
:105F400070B50D46044609F6FFF86988884200D20C
:105F5000014620460BF6A8FA012120460AF6C2FEA9
:105F6000012801D0412200E00022012120460BF649
:105F7000ADF9002070BD000038B50446134D002077
:105F8000009002230D222D684021A84701212046C0
:105F90000AF6A8FE0C2803D00E2814D041220CE0EB
:105FA000012120460AF6DAFE4189008981420AD0A1
:105FB000074850F8240090F84820012120460BF6AD
:105FC00085F9002038BD0022F7E70000E00100203D
:105FD000CC1900202DE9F0470F46814601210AF631
:105FE00081FE032801D0402242E0012148460AF602
:105FF000B5FE4FF6FF7A05460026D04624E0012183
:1060000048460AF6E3FE6B780146052202EB0922B8
:1060100040F604409B1D11F62DFF0446B819B61C2E
:1060200080882080B0B23918801C8988618086B24F
:106030006878207188466A7805F10801601DFCF7D0
:1060400025F8204611F662FF7888B042D7D8E98853
:1060500008F1010080B2514500D35146814206D378
:1060600028B1A880012148460BF6E6F804E00A2290
:10607000012148460BF62AF90020BDE8F0872DE9FA
:10608000F0470F46824601210AF62CFE072801D070
:10609000402246E0012150460AF660FE81467878AB
:1060A000012803D010260025A84622E00226FAE7A0
:1060B000012150460AF68AFE0146052202EB0A2219
:1060C000331D40F6074011F6D5FE04467819AD1C85
:1060D000B0F80480ADB2A4F800807919A6703246F9
:1060E000E01C091DFBF7D2FFA81985B2204611F666
:1060F0000DFF7888A842DBD8B9F8061008F1010036
:106100004FF6FF7280B2914200D31146814207D30D
:1061100030B1A9F80400012150460BF68DF804E0D7
:106120000A22012150460BF6D1F80020BDE8F08785
:10613000084A52F82020126A08E093888B4204D85B
:10614000D3888B4201D3108970471268002AF4D19A
:1061500004F67ABDCC1900200348024901600E21E3
:106160004160704758E021007805002070B5164A5C
:106170000C4605461268498890470146A088801D54
:1061800083B2052000EB052220781B2817D040F6AB
:106190000D4011F66FFE054620781B2812D0122004
:1061A0002870A08868806088A880A288A11DA81D8A
:1061B000FBF76CFF284611F6A9FE002070BD40F6E3
:1061C0000C40E6E71120EBE71030002070B50D46DB
:1061D000064601210AF686FD0C2806D0412201213F
:1061E00030460BF673F8002070BD012130460AF6E8
:1061F000B5FD0446A888E188401A80B2608104F1A8
:106200000C010144EA8805F10800FBF778FF28B982
:106210006089E98808442189884201D94FF6FF70D6
:106220006081012130460BF607F8DCE72DE9F35FCA
:106230000D4648884978B0FBF1F4012100980AF630
:1062400051FD022869D1002C67D0012100980AF67F
:1062500085FD804600266878B146142801D00227C3
:1062600000E010274FF0000A4FF6FF7B30E00121DD
:1062700000980AF6ABFD01460098052202EB0022C9
:10628000BB1D40F6044011F6F5FD0446A819B61CE6
:1062900081882180B1B26818891C828862808EB2A0
:1062A0009146A91927713A46601D091DFBF7EEFEBC
:1062B000F01986B298F8013008F108023946601DDD
:1062C000FEF5A1FB08B14FF0010A204611F61EFEB3
:1062D0006888B04204D9BAF1000F01D1D945C6D1BE
:1062E00009F1010080B2BAF1000F0ED1B8F8061022
:1062F000594500D35946814207D330B1A8F804006C
:10630000012100980AF698FF04E00022012100987C
:106310000AF6DCFF0020BDE8FC9F4122F6E7000002
:106320002DE9F34F81B000250C46A84601210095C8
:1063300001980AF6D7FC05220199042802EB0129ED
:1063400066D0052805D0062803D00A2871D040223F
:10635000FEE0012101980AF601FD07466078072852
:1063600001D9102000E0022082464FF0050B3DE0ED
:106370006019B0F80480387805280AD005EB0B00C6
:1063800020447B7807F108025146001DFEF53BFBD7
:1063900048B3012101980AF619FD01464A460AF15F
:1063A000060340F6064011F665FD0646A0F800809B
:1063B000AD1CA8B22118401C0979317180B2211896
:1063C000801C8988718085B2611986F805A05246C3
:1063D000B01D091DFBF75AFE05EB0A0085B23046D9
:1063E00011F694FD02E06078284485B26088A842E6
:1063F000BED8F98808F101004FF6FF7280B29142D1
:1064000000D31146814279D3002877D0B8806FE05D
:10641000012101980AF6A2FC8346A0784FF0000AF9
:106420005646400701D0102731E04FF0010A0227FD
:106430002DE065E0012101980AF6C8FC01464A46B4
:1064400007F1080340F6054011F614FD06466019F1
:10645000AD1C81883180A9B26018891C828889B2FC
:1064600060187280891C8288B2808DB2BAF1000FE8
:1064700014D06119B7713A46F01D091DFBF706FEED
:10648000E81985B2B6F80080304611F63FFD608805
:10649000A842CFD8BAF1000F09D01AE03D4A0198BE
:1064A000A6F10C0152F820000C3001F679FF86B1FC
:1064B000002000904B460A220421019812F606FDA6
:1064C000014670884880019800F042F90020BDE83C
:1064D000FE8FBBF8061008F101004FF6FF7280B284
:1064E000914200D31146814208D330B1ABF8040089
:1064F000012101980AF6A0FE2EE0FFE70A2227E01C
:106500006078FF282AD001980AF6A8FB6178801EDF
:10651000884223DD012101980AF658FC6378014680
:106520004A4640F609401B1D11F6A4FCA188054609
:10653000018014F8010F611D801E82B2AA80002024
:106540006880A81DFBF7A2FD284611F6DFFC00229B
:10655000012101980AF6BAFE0098B8E7A4F10805EF
:10656000012101980AF6FAFBA18881806178891ED1
:10657000C180002101816078A5F10C01801E688036
:106580000448019A50F822000C3001F609FF01205E
:106590000090ADE7CC1900202DE9F05F89468346D5
:1065A00001210AF69FFB0B2801D0412245E0012181
:1065B00058460AF6D3FB00258046AA462E4631E00F
:1065C000012158460AF602FC08EB86070146F888C6
:1065D0000522801D83B202EB0B2240F6094011F622
:1065E00049FCB98804460180B9F80200F988401BCB
:1065F000814200D2084682B2A2800020608009EB6E
:106600000501A01D091DFBF741FDA08841198DB2B0
:10661000F988884201D04FF0500A204611F676FCE6
:10662000761CF6B298F80100B042C9D8B9F8020059
:10663000A84201D04FF0500A5246012158460AF6AE
:1066400045FE0020BDE8F09F2DE9F0470C460646C8
:106650004FF0000801210AF645FBDFF8F09004280E
:1066600007D008282BD0092829D00A2827D0412272
:1066700059E0012130460AF671FB074659F8260019
:106680000C3001F675FE00F10C051022211DE81DED
:10669000FBF7FCFC1020A871284611F637FC28886F
:1066A000F988401C4FF6FF7280B2914200D3114628
:1066B000814202D308B1B88041E00A2233E00121CF
:1066C00030460AF64BFB0546A11F002021F80E09B3
:1066D00059F826004F460C3001F662FE288920B199
:1066E0006188814200D20846608057F8260062889F
:1066F0004FF00108C068C189114489B2C181B1F568
:10670000006F01D911220EE030460AF6A7FA61881F
:10671000401E884203DC2889814209D340B13046BB
:1067200000F054F80022012130460AF6CFFD0AE0BD
:10673000EA881144E98010B16188401A288101215A
:1067400030460AF679FD4046BDE8F087CC190020B6
:1067500010B50C4609780246D2290CD052290AD02D
:106760001E2908D0052000EB022147F2305240F6E6
:106770001D4011F69BFE2046BDE8104012F6CABE31
:1067800038B504460020009005200D4600EB042398
:1067900018220421204612F699FB01464570204636
:1067A000BDE83840FFF7D4BF38B50446002000905C
:1067B000052000EB04231E220421204612F686FB4E
:1067C00001462046BDE83840FFF7C2BF2DE9F05F23
:1067D000374C814654F82900C068002866D0012152
:1067E00048460AF6BBFA824654F82900A3464FF001
:1067F0000008C468012104F10C06E78948460AF63E
:10680000E5FA0146B81D83B2052202EB092240F6E3
:10681000094011F62FFB8780BAF804100180BAF8FE
:10682000061005464180307A092833D1727A06F184
:106830000807A81DB91D921EFBF728FC7878811E59
:106840001FFA81F8216819B16988081A801C6880CC
:106850002468A6F10C0011F64FFB04F10C0619E0B8
:1068600006F1080705EB08007289391D801DFBF74A
:106870000DFC788800EB08011FFA81F8216811B13E
:106880006988081A68802468A7F1140004F10C06CE
:1068900011F632FB002CE3D15BF829000C3001F635
:1068A0006FFC2846BDE8F05F11F630BBBDE8F09FF5
:1068B000CC19002010B5044601210AF613FA0C2861
:1068C00001D0412200E00022012120460AF6FEFC10
:1068D000002010BD0249014808607047E5682000AB
:1068E0003405002070B506460D4610202880294644
:1068F0003046FEF5DFFB044624B929463046FEF556
:10690000E5FA0446074A298802A012689047204603
:1069100070BD000064625F73697A65203D20256464
:106920000A000000E401002010B586B01A4C94F86B
:10693000020100282ED0684629F60AFA9DE80700D1
:1069400003AB07C3154909680844154920F0704096
:106950004860084629F61EFC94F8000111490968B0
:1069600001EB001000F54050B0F85003C0F3C20036
:1069700002280FD80C48007820B106B0BDE81040BE
:1069800028F6A6BA06B08822BDE8104007A10CA0E0
:10699000FDF556BC06B010BD6417002010040020A1
:1069A0005017002004020020050400207363685F74
:1069B00070726F675F70617463682E63000000001F
:1069C00030000000F0B5AFB000240D4606468462EA
:1069D00019A82421FBF781FB229403A824212394E6
:1069E000FBF77BFB0C940EA8242231460D94FBF799
:1069F0004DFB706A1790B06A784E189024A8242234
:106A00003146FBF743FB706A2D90B06A2E9001204F
:106A100021902290CDE90B40B4E000230EAA184645
:106A2000264652F82010891946EB03077B084FEAE7
:106A3000310342F8203021F00103CB1A00F10100AC
:106A40000928EED3002052F8201011B9401C092863
:106A5000F9DBC0F1090050622198C00706D019A8DF
:106A6000FBF7FEFF1698C007D7D044E0002319AA11
:106A70001846374652F82010C91947EB0306730829
:106A80004FEA310342F8203021F00103CB1A00F124
:106A900001000928EED3002052F8201011B9401C43
:106AA0000928F9DBC0F109005062DBE7002324AAC2
:106AB0001846264652F82010891946EB03077B0832
:106AC0004FEA310342F8203021F00103CB1A00F1E4
:106AD00001000928EED3002052F8201011B9401C03
:106AE0000928F9DBC0F1090050620B98C0070FD0EC
:106AF00003A8FBF7B5FF2C98C007D7D02D9B17989C
:106B00000EA924AA98422FD835D3C0F1090029E054
:106B10004FF0000303AA1846374652F82010C9194F
:106B200047EB030673084FEA310342F8203021F0A7
:106B30000103CB1A00F101000928EED3002052F81E
:106B4000201011B9401C0928F9DBC0F1090050627E
:106B5000D1E752F8203051F82060B3420BD803D36C
:106B600000F101000928F4D311460EA8FCF764FCDB
:106B700003A919A804E01046FCF75EFC19A903A8B4
:106B8000FCF782FC179800288FD10D9808B103A854
:106B900015E012490C9B03AA486A984213D80DD3FA
:106BA000C0F1090008E052F8203051F82040A3421B
:106BB00004D808D300F101000928F4D3104613F0DB
:106BC0008DFA03A900E0114624222846FBF75EFA5D
:106BD0000C9868620D98A8622FB0F0BD9CD7210078
:106BE00008F002B910B58CB008A814F07DF9BDF812
:106BF000221009989DF82120CDE904109DF820303D
:106C000030A04FF48971CDE90232CDE90010374B45
:106C100037A23DA10220FEF7CDFA0AA800F012FC2F
:106C2000044654B1142231490E3103A8FBF72EFA61
:106C3000ADF8104003A8FEF771F99DF828009DF803
:106C40002910CDE906109DF82A209DF82B30CDE9BA
:106C500004329DF82C109DF82D002DA240F2171340
:106C6000CDE90032CDE90201204B21A226A102206C
:106C7000FEF7A0FA31A04FF48F71CDE900101B4B45
:106C80001BA221A10220FEF795FA14F093FD14F047
:106C9000F7FD13F0F3F806F055FA3049002000F044
:106CA0007FFD0446002C0AD014221049223103A88B
:106CB000FBF7ECF9ADF8104003A8FEF72FF90CB084
:106CC00010BD0000476F6F64697820424C45205327
:106CD000444B205625642E25642E25642028636F9E
:106CE0006D6D69742025782900000000A2D4210070
:106CF0002E2E5C5372635C757365725C757365727E
:106D00005F6170702E6300004E4F5F54414700007A
:106D10004C6F63616C20426F617264202530325881
:106D20003A253032583A253032583A253032583ADE
:106D3000253032583A253032582E0000476F6F64A4
:106D400069782055415254206578616D706C6520DA
:106D5000737461727465642E00000000B42C00200E
:106D6000FDF5FEBA2DE9FF410DF1280898E8F00085
:106D70008DE8F000FDF5D0FC04B0BDE8F0812DE910
:106D8000FF410DF1280898E8F0008DE8F000FDF5CE
:106D9000D5FC04B0BDE8F081FDF54CBFFDF5E8BFC2
:106DA000FEF520BB2DE9F041DFF86480064601784E
:106DB00098F8010008440A2802D90420BDE8F081AF
:106DC00000242546134F05E0385D40B1641C0A2CB1
:106DD000FADB6D1C3078A842F9DC0020EEE7C5EB49
:106DE000C500821904F11000C0F30B0040F400400C
:106DF0000721521C10F00CFA00284FF00100DDD1E1
:106E0000385598F80110491C88F80110641CE0E717
:106E1000D42F0020F0D2002038B5144604F0ACF98D
:106E20000949097888420DD2BE2100EB4000ADF837
:106E30000010423040F400402246694610F0CAF883
:106E4000002038BD032038BDD42F00202DE9F843A1
:106E50000025DFF8408006462C460827ADF8007074
:106E600018F8040001280ED104F1200006EBC50239
:106E7000C0F30B0040F400406946521C10F0AAF821
:106E800008B96D1CEDB2641C042CE7DB35700020E2
:106E9000BDE8F883E02F00202DE9F0470024A8B0DA
:106EA00088460746A14644702646DFF8A4A035E090
:106EB0008C20ADF8980006EB4600413040F40040CD
:106EC00003AA26A910F086F830BB9DF80D008007B4
:106ED00022D544452DD2786804EB840100EBC1052E
:106EE000DDF80E002860BDF81200A8809DF814009F
:106EF000A8719DF81500E87110220DF1160105F139
:106F00000800FBF7C3F810220DF1260105F1180067
:106F1000FBF7BCF8641CE4B2761CF6B29AF80000E9
:106F20008642C5D387F800907C7028B00020BDE869
:106F3000F0870122CDE90029064DCDF808801F23F6
:106F40001E222D684FF400410120A847EAE7000007
:106F5000D42F0020E001002038B5144604F00CF9CD
:106F60000949097888420CD28C2100EB4000ADF829
:106F70000010413040F400402246694610F02AF8E3
:106F800038BD032038BD0000D42F00202DE9F04388
:106F9000A5B00024894607468C26194D0DF10A0834
:106FA00017E004EB44004130ADF88C6040F4004041
:106FB0006A4623A910F00EF848B99DF80100800731
:106FC00005D5102239464046FBF799F828B1641CD4
:106FD000E4B228788442E4D3C4B2287884420DD243
:106FE00004EB44004130ADF8006040F400404A46F4
:106FF00069460FF0EFFF25B0BDE8F0830320FAE704
:10700000D42F00202DE9F8430025DFF84480064600
:107010002C460727ADF8007018F8040001280FD19E
:10702000C5EBC500821904F11000C0F30B0040F459
:1070300000406946521C0FF0CDFF08B96D1CEDB23F
:10704000641C0A2CE6DB35700020BDE8F8830000E4
:10705000F0D200202DE9FE4307463720B1FBF0F0C7
:10706000C4B2144DC4EBC4004FEA40082C70002693
:107070000120CDE90006DFF840C0029420231E2243
:10708000DCF800C0C103E04707EB0800C5E9017068
:1070900005F1100120440E704E70486001F01EFC96
:1070A00030B10BF077FE0BF0C5FE0020BDE8FE838B
:1070B0000220FBE7D42F0020E001002010B5144689
:1070C00004F05AF80949097888420CD200EB4000D4
:1070D000423040F400402246BE2110F099F80028CA
:1070E00000D0012010BD032010BD0000D42F0020CF
:1070F0002DE9F74F88B08B46044604F03DF84F4F1A
:10710000DFF83CA14FF0000839784FF001098842C0
:107110000ED200EB4000413040F400408C210A9A2E
:1071200010F076F804006ED01A23CDF8009035E008
:1071300000250AE07968C5EBC50001EB40000BF0C3
:107140009FFF08B1EEB205E06D1C38788542F1DB97
:10715000B868067820680390A088ADF81000A07980
:107160008DF81200DBF80010CDF81310BBF80410F6
:10717000ADF817109BF806008DF8190006EB4605D0
:1071800005F1400040F40040834603AA0E2110F0B0
:107190003FF804000CD01B23CDF80090CDE901840A
:1071A0001E224FF400410120DAF80050A84740E0C9
:1071B00005F1410040F400408C210A9A10F028F8B3
:1071C00004000FD0CDF80090CDE901841C231E22CD
:1071D000DAF800504FF400410120A84758460FF05C
:1071E000A5FE26E0304615F057F8423545F400403C
:1071F0000FF09CFE7968C6EBC60001EB40000E2242
:1072000003A9FAF743FF0A984078800711D50B4885
:1072100039781030FFF740FE08481D2310304FF436
:1072200000414278CDF80090CDE901821E22012074
:10723000BAE70BB02046BDE8F08F0000D42F002045
:10724000E001002000F69CBF01F692B801F6A8B854
:1072500010B500F00BF805F057FC0CF0F1F811F048
:107260002FFEBDE8104011F047BE000010B50849E0
:10727000084809F0D5FA084947F6714009F0D0FAF4
:107280000448BDE810400549483809F0C9BA000073
:10729000B56721008194020069992000516721009F
:1072A00010B50FF04DFA0FF0B5F90EF0F7F80EF03B
:1072B00099FABDE810400EF0C3B80000144810B5AC
:1072C000016821F004010160016841F002010160E0
:1072D000016841F001010160016821F002010160D3
:1072E000016841F004010160094902201039086079
:1072F000074940F601701C3908600120091D08602B
:107300000002F9F50FFCFFF57BFD0028FBD010BD56
:10731000E0A400400AF6FABA10B5040009D001F062
:10732000FFFA30B90448016819B1204688470120A6
:1073300010BD002010BD0000CC2C00200EB501882F
:1073400040F20233A1F2023299422CD00DDCB1F5A9
:10735000807F15D0A1F50071073915D0FA2921D108
:10736000BDE80E400830FDF7A7BC042A22D0A2F5E4
:107370000072FE3A16D1C088BDE80E4014F0B6BFC8
:10738000BDE80E40FFF72EBC408800280AD00DA1B2
:10739000F522CDE900210290134B14A219A103207C
:1073A000FDF708FF0EBD017A007903B05DF804EB2C
:1073B000FDF7CABC007903B001215DF804EB00F0D1
:1073C000C3BA0000416476657274696E6720737495
:1073D0006172746564206661696C65642830582543
:1073E000303258292E00000092D421002E2E5C53FA
:1073F00072635C757365725C757365725F617070E2
:107400002E6300004E4F5F544147000010B5FDF75A
:10741000E5F9FFF7E5FB0FF0A7FB12F05DFD0DF0BE
:10742000E1FA11F05BFD02F07DFB08F05BFF00F07C
:1074300082FE08F00FFDFFF733FFBDE8104001208A
:1074400001F0DABA2DE9F04104460026EFF3118588
:107450000220FCF778F90746FCF7CEF90121401C21
:1074600081407818C0B280F3118803F015FF0746F9
:107470006CB10F4890F8DA0010F00100A07108D04C
:107480000B488030416C2160B0F8480006E00226CD
:1074900005E000F02DFD016821608088A08038465D
:1074A00003F0BCFEE8B280F311883046BDE8F081FD
:1074B00058C800202DE9F84F82463A481D469346A9
:1074C00000780F46C00716D00026EFF3118902207E
:1074D000FCF739F90446FCF78FF90121401C814083
:1074E0006018C0B280F3118803F0D6FE0090BBF1A3
:1074F000000F03D005E01E20BDE8F88F0DB1022675
:1075000011E0BAF1050F01D315260CE02649CAEBAC
:10751000CA004FF0000801EB80046FB1012F1AD0B0
:10752000022F27D01626009803F078FE09F0FF00FE
:1075300080F311883046DFE7206918B101F03CF98B
:10754000C4F810800021A81C01F038F9206138B37C
:10755000058020691EE0606918B101F02DF9C4F8BA
:1075600014800021A81C01F029F96061C0B10580D8
:1075700060690FE0A06918B101F01EF9C4F8188025
:10758000002DD0D00021A81C01F018F9A06138B15D
:107590000580A0692A465946801CFAF777FDC2E7A4
:1075A0001026C0E7FC2E002058C800202DE9FF5F00
:1075B0008046784814468B460078C0072CD04FF0A0
:1075C000010A0026CDF800A0734DCDE901683C23E7
:1075D00008222F6810215046B847EFF31189022086
:1075E000FCF7B1F80746FCF707F9401C0AFA00F16E
:1075F0007818C0B280F3118803F04EFE03907CB17E
:10760000B8F1050F15D300963E23082210212C68EF
:107610000120A0471524B3E01E2004B0BDE8F09F70
:1076200000963D23082210212C680120A047022447
:10763000A6E02078032802D06189202906D3A189F9
:10764000B1F5804F02D862898A4208D900963F235B
:10765000082210212C680120A0471F2490E06178A7
:1076600003290CD900962C684FF040034FF0080214
:107670004FF010014FF00100A047202480E009D115
:10768000012802D0412300961DE0A07858B3422380
:10769000009618E0012901D0022904D1A17811B186
:1076A0004D2300960FE0032801D004281BD101963A
:1076B000062201A9E01C0296FAF721FD50B160787C
:1076C00088B144230096082210212C680120A0478D
:1076D000212455E000964323082210212C68012024
:1076E000A04722244CE02D48C8EBC80100EB8107DD
:1076F000F86828B90021282001F060F8F86058B136
:1077000005462821FAF7E9FC87F80BB02E70A0781F
:107710006871A07B18B901E0102431E007202876B9
:1077200085F819A060892861A0896861D4F80300F0
:10773000C5F80600B4F807006881607A2873207CD9
:107740002871207805280AD2DFE800F00503071227
:1077500014006E8003E0032000E002206880688847
:1077600040F0100068806078022805D8687006E054
:107770000D20F3E70520F1E7032800D16E70002407
:10778000039803F04BFD09F0FF0080F311882046B9
:1077900043E70000FC2E0020E001002058C8002034
:1077A0002DE9F04F8046654885B00F460078C00748
:1077B00021D0EFF311890220FBF7C5FF0446FCF747
:1077C0001BF84FF0010A401C0AFA00F16018C0B221
:1077D00080F3118803F060FD0025594E8346B8F10F
:1077E000050F0CD30095592308221021346801207D
:1077F000A04715248CE01E2005B0BDE8F08FAFB186
:107800005048C8EBC80100EB8104E06870B1607AB1
:10781000A8B101F0EFFD607A88B100955B230822E2
:10782000102134680120A0470F2471E000955A23ED
:107830000822102134680120A047022468E0206952
:10784000C8B9E068017821B1012908D05E2300950C
:107850000AE0807840070ED45C23009504E080782D
:10786000800713D45D23009508221021346801207D
:10787000A04723244CE0E0688178890702D501788D
:10788000012903D0007802280BD00CE0606950B9C0
:1078900000955F230822102134680120A047252489
:1078A00036E0A06950B1E068817809070FD53988C2
:1078B00009B180290BD96123009513E0009560235D
:1078C0000822102134680120A047242420E04078B9
:1078D00002280ED1388818B144F25061884208D984
:1078E000622300950822102134680120A047262435
:1078F0000EE0E06928B90021042000F05FFFE0619C
:10790000C8B1396801604146002003F0A3FD00249E
:10791000022004948DE82105632308221021356894
:107920000120A847584603F079FC09F0FF0080F3D6
:107930001188204660E71024EAE70000FC2E0020B2
:10794000E001002058C800202DE9F843894604468C
:107950000025EFF311860220FBF7E7FE0746FBF751
:1079600043FF0121401C81407818C0B280F3118888
:1079700003F092FC80460A2C06D218484FF6FF7797
:1079800030F83400B84201D103251BE0072000EB9A
:107990000421062349224FF4616000F033FF040004
:1079A00019D084F8009002206080A78000200C4F3E
:1079B0000123009008223F6810211846B84720464E
:1079C00000F062FF404603F029FCF0B280F311881A
:1079D0002846BDE8F8831025F4E70000E4C700203E
:1079E000E00100202DE9F0410C4606464FF000086A
:1079F000EFF311850220FBF7A6FE0746FBF7FCFE1E
:107A00000121401C81407818C0B280F3118803F036
:107A100043FCA6F11B01E02910D8B4F5A47F0DD3D7
:107A200044F290218C4209D80949A1F8E260A1F8FA
:107A3000E4404A8842F001024A8001E04FF0010828
:107A400003F0ECFBE8B280F311884046BDE8F0811A
:107A500058C800202DE9F047904689460546002485
:107A6000EFF311860220FBF76EFE0746FBF7C4FE1C
:107A70000121401C81407818C0B280F3118803F0C6
:107A80000BFC194F8246B9F1000F14D0042D14D805
:107A90004046B8F1F80F10D80246494607F5817004
:107AA000FAF7F4FA08F0FF0187F801114A460220BC
:107AB00000F01AFF03E0042D01D901240AE0B7F811
:107AC000E00020F007002843A7F8E000788840F0A5
:107AD00001007880504603F0A1FBF0B280F31188DA
