:020000040020DA
:10200000E8570120ED212000D33D2000011E1000E3
:10201000D13D2000FD2120001D3E200000000000D9
:10202000000000000000000000000000151E10006D
:10203000FF21200000000000D53D2000DB3D2000F6
:1020400000F002F800F0C2F80AA090E8000C824408
:102050008344AAF10107DA4501D100F0B7F8AFF2E5
:10206000090EBAE80F0013F0010F18BFFB1A43F076
:1020700001031847ACB40000ECB400000A444FF070
:10208000000C10F8013B13F0070408BF10F8014BD7
:102090001D1108BF10F8015B641E05D010F8016B1C
:1020A000641E01F8016BF9D113F0080F1EBF10F880
:1020B000014BAD1C0C1B09D16D1E58BF01F801CBA3
:1020C000FAD505E014F8016B01F8016B6D1EF9D526
:1020D0009142D6D370470000103A24BF78C878C127
:1020E000FAD8520724BF30C830C144BF04680C601E
:1020F000704700000023002400250026103A28BF66
:1021000078C1FBD8520728BF30C148BF0B60704769
:102110006E2900F01884702900F0B58166290BF053
:102120007F8065290BF07C8067290BF0798061291D
:102130000BF0788003681B0A28BF41F080016929F1
:1021400000F02681642900F02381752900F02081A8
:102150006F2900F01885782900F08181E92900F0C5
:10216000B384E42900F0B084F52900F0AD84EF29B0
:1021700000F01585F82900F080810368DB0928BF8D
:1021800041F08001632900F02284732900F0278444
:10219000E32901F0EB80F32901F0F0800020704783
:1021A0001FB50BF00AF801F019F904000020002116
:1021B0000AF018FA401C6060002000210AF0FCF9C7
:1021C000E06000F043FB1FBD10B510BDDFF80CD080
:1021D000FFF7E6FF07F082F901F0B6F9E8570120B2
:1021E00003B4FFF7F1FF03BC02F019F9014880477F
:1021F00001480047ED3D200065962000FEE7FEE720
:1022000058585247010000003253000000202000BF
:10221000002020008BEB924700010000000000002E
:1022200000000000000000000000000000000000AE
:10223000000000000000000000000000000000009E
:102240007CB51D4616460C00009001D02044401E6F
:10225000074B7B442A4669460190304600F08DFBCF
:1022600005461CB10020694600F09AFB28467CBD5B
:10227000550700000FB4044910B503AA029800F0F6
:10228000B3FB10BC5DF814FBE82B00200FB41CB5A9
:10229000084B06AA7B4469460090059800F06DFB48
:1022A00004460020694600F07BFB20461CBC5DF81C
:1022B00014FB0000090700000FB47CB50C0009AA4C
:1022C000009001D02044401E084B7B446946019099
:1022D000089800F052FB05461CB10020694600F04A
:1022E0005FFB28467CBC5DF814FB0000DD060000A7
:1022F00070B5044685690068C10601D5302600E046
:102300002026C00707D070BDD4E901213046904790
:10231000206A401C20626D1EF6D570BD70B5044663
:1023200085690078C00707D170BDD4E9012120205C
:102330009047206A401C20626D1EF6D570BD70B5B6
:102340000C460546012A05D02878800600D5EA69A2
:10235000002302E0012305E05B1C934202D2E05C13
:102360000028F9D1A869E618C01AA861286A18449B
:1023700028622846FFF7BCFF04E0D5E9012114F8E4
:10238000010B9047B442F8D32846FFF7C7FF70BD52
:102390002DE9F0410646002410687529314616A53E
:1023A00010D000F065FA002802DA404213A507E0D9
:1023B00031688A0701D512A502E0490704D511A5A5
:1023C000012401E000F05DFA00210A2206F1240751
:1023D00009E0B0FBF2FCB0FBF2F302FB1C00303072
:1023E00078541846491C0028F3D123462A46304623
:1023F000BDE8F04100F04EBA000000002D000000E2
:102400002B00000020000000F0B40D4601880905F3
:1024100002D5214C7C4402E01F4C7C440E34002148
:1024200000F1240608E002F00F071209E75D42EA16
:1024300003721B097754491C52EA0307F3D102784F
:102440000023120704D5702D06D009B102231134E0
:102450002246F0BC00F01EBA01231034F8E770B534
:1024600004460D462146106800F00BFA0246294644
:102470002046BDE870400023C6E7D21D22F00703C6
:10248000D3E90023C0E70368126843F02003036028
:102490000823C3610023B7E7E8AF00002DE9F05F30
:1024A000894604464FF0000ADFF874B1FB44C0F8D7
:1024B00020A02046E1688847002874D0252806D04F
:1024C000D4E901219047206A401C2062F1E70026F0
:1024D0005F462046E16888472028054607DB312D06
:1024E00005D2781910F8200C08B10643F1E7B007BF
:1024F00001D526F00406C4F81CA00027C4F818A0D3
:102500002A2D09D0284601F083FF38B304EB870851
:10251000303DC8F8185019E059F8041B204604EB68
:1025200087029161E1688847012F054618D1E0696B
:10253000002820DA26F020061DE0D8F8180000EB6D
:10254000800005EB40003038C8F818002046E168EC
:102550008847054601F05CFF0028EED1012F0AD024
:102560002E2D08D12046E16888477F1C0546022FA2
:1025700046F02006C4DBA069002803DA404246F09A
:102580000106A061F00701D026F010066C2D0BD0DB
:10259000682D09D04C2D39D06A2D35D0742D35D009
:1025A0007A2D33D016E038E0E1682F462046884780
:1025B000B842054609D16C2F26D04FF48060E168FF
:1025C000064320468847054604E06C2F1AD04FF496
:1025D000807006430DB3A5F14100192802D82035BB
:1025E00046F400664A462946204626604E46FFF7D6
:1025F0008FFD80B101280BD0F61D26F0070000F1F9
:10260000080956E74020E4E78020D8E70020D6E715
:1026100006F104094DE7284652E7206ABDE8F09F1D
:1026200078AF000040EA010310B59B070FD1042AE0
:102630000DD310C808C9121F9C42F8D020BA19BA8D
:10264000884201D9012010BD4FF0FF3010BD1AB1F2
:10265000D30703D0521C07E0002010BD10F8013B47
:1026600011F8014B1B1B07D110F8013B11F8014B6E
:102670001B1B01D1921EF1D1184610BD10B5431C91
:1026800002E010F8011B71B18107FAD14FF001325D
:1026900002C88C1A8C4314EAC211F9D0C01A0A0677
:1026A00003D0C01E10BDC01A10BD0A0401D0801E88
:1026B00010BD0902FCD0401E10BD032A40F230803C
:1026C00010F0030C00F0158011F8013BBCF1020F73
:1026D000624498BF11F801CB00F8013B38BF11F8F4
:1026E000013BA2F1040298BF00F801CB38BF00F80B
:1026F000013B11F0030300F02580083AC0F0088088
:1027000051F8043B083A51F804CBA0E80810F5E76B
:10271000121D5CBF51F8043B40F8043BAFF300804E
:10272000D20724BF11F8013B11F801CB48BF11F8C3
:10273000012B24BF00F8013B00F801CB48BF00F893
:10274000012B704710B5203AC0F00B80B1E818504B
:10275000203AA0E81850B1E81850A0E81850BFF48B
:10276000F5AF5FEA027C24BFB1E81850A0E818502A
:1027700044BF18C918C0BDE810405FEA827C24BF7E
:1027800051F8043B40F8043B08BF7047D20728BF0C
:1027900031F8023B48BF11F8012B28BF20F8023B5B
:1027A00048BF00F8012B704702F0FF0343EA032201
:1027B00042EA024200F002B84FF000020429C0F0E1
:1027C000128010F0030C00F01B80CCF1040CBCF163
:1027D000020F18BF00F8012BA8BF20F8022BA1EBB5
:1027E0000C0100F00DB85FEAC17C24BF00F8012B9A
:1027F00000F8012B48BF00F8012B70474FF0000292
:1028000000B5134694469646203922BFA0E80C50E6
:10281000A0E80C50B1F12001BFF4F7AF090728BFC1
:10282000A0E80C5048BF0CC05DF804EB890028BF3D
:1028300040F8042B08BF704748BF20F8022B11F066
:10284000804F18BF00F8012B7047000070B5064C90
:102850007C44064D7D4403E0206820448047241DCD
:10286000AC42F9D170BD000038AE000038AE0000B7
:1028700009684A0501D540B27047C905FCD500B2C8
:10288000704709684A0501D5C0B27047C905FCD533
:1028900080B270472DE9F0470D46994692460446AE
:1028A00000F124080168880604D5E06921F01001D0
:1028B000216000E00120A84201DD471B00E0002765
:1028C000A1697A1902EB0900081AA0612078C006F4
:1028D00002D42046FFF70CFD002608E0D4E90121D0
:1028E0001AF806009047206A401C761C20624E456C
:1028F000F4DB2078C0060AD52046FFF7F9FC06E095
:10290000D4E9012130209047206A401C2062381E03
:10291000A7F10107F4DC07E0D4E9012118F805006C
:102920009047206A401C2062281EA5F10105F3DCB7
:102930002046FFF7F3FC2078000602D50220BDE810
:10294000F0870120FBE711680268006A530501D592
:1029500008700AE0D30501D5088006E0130603D508
:10296000C217C1E9000200E00860012070470000C2
:1029700001694A1C02610878704700B58FB0CDE943
:1029800001310021059105497944CDE90310114633
:102990006846FFF783FD0FB000BD0000E5FFFFFFB5
:1029A0000A6802F8010B0A607047D1E900239A42D5
:1029B00002D2531C0B601070704710B5436913B1FD
:1029C000AFF3008001E0FFF7BAFC012010BD1278E0
:1029D00000F124010A7000224A700122EDE711681B
:1029E0004FF0FF32E9E70000074B70B50D467B441E
:1029F000FFF7C3FF0446284600F0C4FC10B14FF0B7
:102A0000FF3070BD204670BD534000002DE9FF5FD0
:102A100015468A460446DFF8AC80F8440027D8E91A
:102A200000103E46CDE9001010E03AF816106A4654
:102A300002A800F0ABFC411C07D02178890603D521
:102A4000E269391891420DD80744761C2078800637
:102A500002D5E069B84205DDAE42E6DB3AF8160081
:102A60000028E2D1A069C01BA0612046FFF740FC0E
:102A7000D8E90010CDE90010002017E03AF818104E
:102A80006A4602A800F082FCB0F1FF3F81460BD0FD
:102A900000250DF1080B05E0D4E901211BF8050024
:102AA00090476D1C4D45F7D308F10100B0428046B8
:102AB000E4DB206A384420622046FFF72FFCBDE8A3
:102AC000FF9F00001EAA00002DE9F0418046D21DA4
:102AD00022F007020025D2E90002F52915A614D03C
:102AE000011E72F1000106DA0023D0EB030063EB54
:102AF000020211A608E0D8F800108B0701D50FA636
:102B000002E0490701D50EA601251146002408F16F
:102B1000240704E000F04EF830323A55641C50EAC5
:102B20000102F7D12B46324621464046BDE8F0412E
:102B3000FFF7B0BE000000002D0000002B000000D9
:102B40002000000030B4002100F1240408E002F06D
:102B50000705D208303542EA4372DB086554491C48
:102B600052EA0305F3D10468002310A2250707D514
:102B7000A40600D421B1C46901230DA2641EC4615E
:102B800030BCFFF787BE10B5044621461068FFF73A
:102B900078FE02462046BDE810400023D2E7D21D51
:102BA00022F00701D1E90023CCE70000000000007B
:102BB0003000000030B5B0F10A024FEA900E71F11A
:102BC00000034EEA817EB0EB0E0061EB91014FEA0B
:102BD000101E4EEA017E10EB0E0041EB11114FEA80
:102BE000102E4EEA016E10EB0E0041EB11214FEA60
:102BF000104E4EEA014E10EB0E0041EB1141401811
:102C000041F100014FEAD00040EA41704FEAD101A2
:102C100010EB80054FEA810444EA907444EB010410
:102C20006D1944EB0404521BA3414FF0000348BF4D
:102C30000A3200D530BD401C41F1000130BD704763
:102C40002DE9FF4F0C461E464FF0FF378BB0D2E9FF
:102C50000001DDF860800A908A46C1F30A5505B983
:102C60003D46002108464FF00000BAF1000F00F485
:102C7000400005DA00EB80004FF4400101EA50000B
:102C80004FEA9059B9F1010F00DDB9460A9850EAB0
:102C90004A000ED044F61050A5F2FF3545432F14DC
:102CA000B8F1000F1ED07542291E1EDDC9F10002C9
:102CB0001CE0B8F1010F4FF0000001D0302103E01B
:102CC000F24305E02154401CB042FBDB30460022B9
:102CD000002121540B99C1F80880C1E900200FB0F0
:102CE000BDE8F08FBD1B6D1CDEE74A4600DA694285
:102CF00006A800F0B7FB06AB93E8070003AB83E838
:102D0000070050460A9900F069FC8DE80700A0F51D
:102D100000501F3800900398002D0ADD42F21F0179
:102D20004A460844002303A90390684600F0D2FEF7
:102D300009E0A0F500504A461F38002303A903907C
:102D4000684600F0DCFE8DE807000004000C03D0AC
:102D50004FF0FF30410800E01046B8F1000F03D0FB
:102D60000022009215461EE0751E05D4FFF722FFD3
:102D7000303262556D1EF9D5B3460122084302D0A8
:102D800000227F1C04E02078302801D100227F1E21
:102D9000002A099784D01DE0112D07DAFFF70AFFFA
:102DA000303262556D1C50EA0102F5D1084302D061
:102DB0000098C8B10EE00021681E05E0235C625C4B
:102DC00063542254401E491C8142F7DBAB46A81BCA
:102DD000401E0990002004F80B000B98099AC0F8D7
:102DE0000880C0E9002B7AE711264FF0000857E76A
:102DF0002DE9F04F88460446D21D22F0070191B01C
:102E0000D1E90001CDE90A0101F009F802460B9869
:102E1000C00F01D02D2007E02068810701D52B20AD
:102E200002E0202101EAC000032A099001D0072A0C
:102E300005DB03464146204600F0D4FA0BE120783A
:102E4000800601D5E06900E00620B8F1650F8146F3
:102E500006D0B8F1660F18D0B8F1670F70D131E025
:102E60000020B9F1110F009001DB112301E009F1FD
:102E700001030AAA01A90CA8FFF7E2FEDDE90C7024
:102E8000002609F10105834647E001204B460090EA
:102E90004FF000470AAA01A90CA8FFF7D1FEDDE90F
:102EA0000DB00C995D46002610B909F101000D180E
:102EB000B9EB050003D4C0F1FF3609F10105A5EB1C
:102EC00009002BE0B9F1010F01DA4FF001090020F0
:102ED000B9F1110F0090484601DD112300E00346CF
:102EE0000AAA01A90CA8FFF7ABFEDDE90C704D465C
:102EF00000268346207800070AD4AB4500DA5D46F9
:102F000001A8012D04DD411911F8011C302907D059
:102F10004F4502DA17F1040F04DA012082460FE070
:102F20006D1EEEE7002F02DCED1B3E4403E0781C33
:102F3000A84200DD7D1CB81B00F1010A4FF00047DC
:102F40002078000703D4AA4501DB4FF0FF3A0021A7
:102F5000B7F1004F0DF143088DF8431024D0022043
:102F60002B23002F01DA7F422D230A21021EA0F11C
:102F7000010000DC5FB197FBF1FC97FBF1F201FB74
:102F80001C7C17460CF1300C08F801CDEEE7A8F1D7
:102F9000010003702188090501D5452100E0652164
:102FA000A0F1010800F8011C09980FA9A1EB08077E
:102FB000FF1D00B10120411901EBEA70A1693844FD
:102FC000081A401EA0612078C00602D42046FFF7F0
:102FD0008FF9099828B1D4E901219047206A401C53
:102FE00020622078C00622D52046FFF781F91EE036
:102FF000002E04DBB34502DD01A8805D00E0302037
:10300000D4E901219047206A401C2062761CAAF175
:1030100001005FEA000A0AD100F0E0F9C068016827
:10302000405CD4E901219047206A401C2062281EA0
:10303000A5F10105DCDC07E0D4E9012118F8010B5A
:103040009047206A401C2062381EA7F10107F3DC7C
:103050002046FFF763F9032011B041E62DE9F04F58
:1030600004460D46D21D22F0070089B0D0E9009732
:103070004846394600F0D3FE0246F80F01D02D2312
:1030800007E02068810701D52B2302E0202101EA17
:10309000C0038DF820300BB1012000E00020032A8E
:1030A000824601D0072A04DB2946204600F09AF91F
:1030B0003FE12078800601D40D2500E0E569C7F3E3
:1030C0000A560D2D49DA00214FEA175B08464FF0EA
:1030D0000000002F00F4400007DA00EB80004FF4FE
:1030E000400100EBD07001EA60008115012901DD8B
:1030F0004FF0FF3100224FEA850CBCF1180F06D3C8
:103100001346ACF118004FF08052C24003E04FF478
:10311000801323FA0CF30CF10C0CBCF1200F04D338
:10312000ACF1200C09FA0CF001E007FA0CF00029D0
:103130004FF0004801DD18B90FE00ED140450CD327
:1031400019EB02095F4121B9404502D19F4329EAA9
:103150000209BBEB175F00D0761C2088000502D562
:103160007B48784402E07A487844193808AA30232A
:1031700002F80A30037C0AF10101002E0AF1020A6A
:1031800053546A4602DC4FF0300101E04FF0310148
:103190004FF001088DF8001002D0A6F2FF3603E0D0
:1031A00059EA470100D06B4E002D02DC2178090757
:1031B00004D54FF002082E218DF80110C4460021DD
:1031C0000BE0C7F303433F01C35C491C6D1E02F8CB
:1031D0000830052908F1010801DA002DF1DC002191
:1031E0000CE000EB1973491C1B786D1E082902F8CE
:1031F00008304FEA091908F1010801DA002DF0DC66
:1032000021688B0602D516E0A8F10108E04505DD2E
:1032100002EB080313F8013C302BF5D0B8F1000F96
:1032200009DD02EB080313F8013C2E2B03D109073B
:1032300001D4A8F10108002D05DD3E2102F8081097
:103240006D1E08F10108407C002E02F8080008F10C
:10325000010804DA2D20764202F8080002E02B2053
:1032600002F808000A214FF47A70864208F101083A
:103270000BDB96FBF0F3303302F8083096FBF0F3EB
:1032800008F1010800FB136601E0642E0CDB6420EA
:1032900096FBF0F3303302F8083096FBF0F308F1B8
:1032A000010800FB136601E00A2E06DB96FBF1F035
:1032B000303002F8080008F1010896FBF1F001FB3C
:1032C0001060303002F80800A16908F1010808EB2D
:1032D000050202EB0A00081AA0612078C00602D499
:1032E0002046FFF705F8216A08AE01EB0A002062CC
:1032F00004E0D4E9012116F8010B9047BAF1010A64
:10330000F7D22078C00602D52046FEF7F1FF6E46C0
:1033100009E016F8010B3E280FD0D4E901219047AF
:10332000206A401C2062B8F10108F2D22046FEF764
:10333000F5FF09B00320BDE8F08F206A2844206221
:1033400003E0D4E90121302090476D1EEBD3F8E76C
:10335000F1A2000002FCFFFF10B5436913B1AFF307
:10336000008001E0FFF752FB012010BD128800F140
:10337000240182840022C2840122EDE711684FF00B
:10338000FF32E9E7007B00F08000704770B5164619
:103390000C46054600F01AF8036893F8010101286D
:1033A00006D0FF2C0FD8185D68B101202C7070BDBD
:1033B000D3F807013246214603F207130344284697
:1033C000BDE8704018474FF0FF3070BD10B500F0F9
:1033D00005F8001D10BD00BF0D92000000487047A9
:1033E000086200202DE9F0411F46044603260168CB
:1033F000072A01F4006004DB08B116A505E016A554
:1034000003E008B115A500E015A521F0100020602B
:10341000A069C01EA0610FB1401EA0612046FEF74A
:1034200067FF4FB1D4E9012138469047206A401C1C
:103430002062C01C206206E0206AFAE7D4E901217C
:1034400015F8010B9047761EF8D22046FEF766FF6E
:10345000BDE8F0814E414E006E616E00494E46005F
:10346000696E66002DE9F047814616468AB03548F8
:1034700078440DC88DE80D0032487844801C03ACB8
:103480000DC884E80D0041F69B300844372190FBBD
:10349000F1F290FBF1F5A5F1800501FB12041B3C54
:1034A00002D56442012000E00020DFF898A08046A9
:1034B0000027FA44AAF1BE0A0EE0E0070AD032461D
:1034C000684607EB470101230AEB810100F017FB77
:1034D0008DE8070064107F1C002CEED1194F7F444B
:1034E000AE3F19E0E80715D007EB04100DF1180AFC
:1034F00090E80E008AE80E00C068F04201D19819E9
:1035000008903246012306A903A800F0F8FA03AB9D
:1035100083E807006D10641C002DE3D14FF0010318
:1035200032466946B8F1000F03A802D000F0D2FA83
:1035300001E000F0E4FAC9E90001C9F808200AB086
:10354000BDE8F08774A0000010B50446AFF300801A
:103550002046BDE81040FEF743BE00004FF0013C9E
:1035600050F8042B51F8043B9A4221D1A2EB0C03F2
:10357000934313EACC1317D150F8042B51F8043BB2
:103580009A4215D1A2EB0C03934313EACC130BD14F
:1035900050F8042B51F8043B9A4209D1A2EB0C03DA
:1035A000934313EACC13DBD04FF00000704700BF09
:1035B000D01A01BAB1FA81F101F0180122FA01F032
:1035C000CB40C1F12001DBB2C0B2C01A2CFA01F32A
:1035D000D11A914311EAC311E6D170475FEA400C5A
:1035E00008BF91F0000F4FEA8C234FEAC12243EA53
:1035F00051514FEA1C5018BF00F5F0404FEA30001F
:1036000018BF41F000415FEA6C5C00F02980BCF11A
:10361000FF3F08BF40F080407047130C06BF120404
:103620004FF0100C4FF0000C130E04BF12020CF1FF
:10363000080C130F04BF12010CF1040C930F04BF0C
:1036400092000CF1020CD30F04BF52000CF1010CDC
:1036500011464FF00002A0F11F00A0EB0C007047D4
:1036600011F0004F08BF704731F000413FF4D5AF73
:103670000B0C06BF09044FF0100C4FF0000C0B0EA2
:1036800004BF09020CF1080C0B0F04BF09010CF177
:10369000040C8B0F04BF89000CF1020CCB0F04BF8C
:1036A00049000CF1010CCCF12003A0EB0C0022FA34
:1036B00003F302FA0CF241EA030100F10100704742
:1036C00020F07F4C80EA030023F07F47ACEB070338
:1036D00003F57C5300F0004003F1FF032DE980491E
:1036E0004FEA154B09B44FEA144325EA0B4E24EA7E
:1036F00003480FF2042606EB132749083E785FEAD9
:10370000320203FB0667C7F5000707FB06F64FEA20
:1037100054374FEAD64606F1020607FB066CCCF199
:10372000005C4FEA1C472CEA074C07FB06F40CFB35
:1037300006F504EB15464FEA961634BF00204FF00D
:1037400000404FEAD13706FB07FC4FEA1C4C0CFB4C
:103750000BF7D21B03FB0CF761EB07010CFB0EF719
:10376000B0EB074072EB17420CFB08F734BFA2EB3B
:103770000742B2EB074261EB17414FEA0C444FEAB4
:10378000910706FB07FC4FEA1C4C0CFB0BF7B0EB58
:10379000C74072EB573203FB0CF734BFA2EBC742B2
:1037A000B2EBC74261EB57310CFB0EF7B0EBC70031
:1037B00072EB57720CFB08F734BFA2EBC702B2EBF7
:1037C000C70261EB5771039F4FEA816141EA921191
:1037D00004EBCC044FEAD1374FEA826206FB07FCC8
:1037E00042EA90124FEA80604FEA1C4C0CFB0BF748
:1037F000D21B03FB0CF761EB07010CFB0EF7B0EBE0
:10380000074072EB17420CFB08F734BFA2EB0742EC
:10381000B2EB074261EB17414FEA8C554FEA910733
:1038200004EB9C2406FB07FC4FEA1C4C0CFB0BF73B
:10383000B0EBC74072EB573203FB0CF734BFA2EB7F
:10384000C742B2EBC74261EB57310CFB0EF7B0EB4E
:10385000C70072EB57720CFB08F734BFA2EBC7022C
:10386000B2EBC70261EB577115EB4C254FEA816152
:1038700041EA92114FEA82624FEAD13742EA90124E
:1038800006FB07FC44F100044FEA80604FEA1C4C41
:103890000CFB0BF7D21B03FB0CF761EB07010CFBD6
:1038A0000EF7B0EB074072EB17420CFB08F734BF82
:1038B000A2EB0742B2EB074261EB174115EB1C1577
:1038C0004FEA813141EA92414FEA823242EA904224
:1038D0004FEA80304FEA0C7644F1000448EA034393
:1038E0004EEA0B484FF0000EB2EB080C71EB0307E9
:1038F00024BF624639464EEB0E0E4FF0000B001807
:10390000524149414BEB0B0BB2EB080C71EB030737
:103910007BF1000B24BF624639464EEB0E0E4FF092
:10392000000B0018524149414BEB0B0BB2EB080C5A
:1039300071EB03077BF1000B24BF624639464EEB67
:103940000E0E51EA020718BF46F0010616EB0E767E
:1039500055F1000254F1000103D5BDE88901BDE82D
:103960000088BDE88901BDE80048B619524141EB25
:103970000101A3F10103704780807F7E7D7C7B7A0B
:103980007978777676757473727171706F6E6E6D0B
:103990006C6C6B6A6A6968686766666564646363B1
:1039A00062616160605F5F5E5E5D5D5C5C5B5B5A37
:1039B0005A595958585757565655555554545353A4
:1039C00052525251515050504F4F4F4E4E4D4D4DFF
:1039D0004C4C4C4B4B4B4A4A4A494949484848474A
:1039E0004747474646464545454444444443434388
:1039F0004342424242414141002B9C4630D4770031
:103A00002BD01CB54FEA370703B44FF010004FF02E
:103A10001001BAF1000F06D0BCF1000FDCBF40F07E
:103A2000080040F008014FF000000FBCBDE8104056
:103A30000BF1010BBBF1010F08BF5FEA170722BFB3
:103A400012F1010211F101014FF0004143F10003B5
:103A500000F0004043EA00007047F9D35708D0E770
:103A600046EA064613F1400F4FEA16461FDD13F1F2
:103A7000200FDFBF16430A46002120335B42BED031
:103A8000C3F1200746EA064602FA07F74FEA164650
:103A900046EA0706C3F1200722FA03F201FA07F704
:103AA00021FA03F14FF0000342EA0702A7E746EAD2
:103AB000020646EA06464FEA164646EA0106BCBF3B
:103AC00046EA0646360C4FF000034FF000024FF076
:103AD000000194E72DE9804C9A46934670B491E832
:103AE000380007C831EA400C48BF34EA430C03D51C
:103AF000FFF7E6FDFFF780FFF0BCBDE8008C2DE985
:103B0000804C9A46934670B491E8380007C810F08C
:103B1000804F08BF13F0804F03D100F005F8FFF786
:103B20006BFFF0BCBDE8008C20F07F4780EA03000B
:103B300023F07F4C07EB0C03A3F57C5300F000400F
:103B4000A3F1FE0392F0000F00F0B38095F0000F98
:103B500000F077802DE901494FEA11404FEA144601
:103B600021EA004800FB06FC24EA064708FB06F6AB
:103B700007FB08F800FB07F718EB06484CEB164C60
:103B80004FEA124B18EB07484FEA15464CEB17402B
:103B900022EA0B4E0BFB06FC25EA06470EFB06F657
:103BA00007FB0EFE0BFB07F71EEB064E4CEB164C0D
:103BB0004FF000061EEB074E4CEB174B18EB0B08B3
:103BC00040F1000018EB0E0B58EB000840F100002C
:103BD0008F1A4FF000013CBFC943661B14BFB5EB01
:103BE000040C00213CBFC943F61B4FEA17444EEAC0
:103BF0008E0E27EA04454FEA1C4704FB07622CEAB5
:103C0000074C05FB07F70CFB05F604FB0CFC16EB59
:103C1000074642EB174216EB0C4642EB1C421BEBED
:103C2000060658EB0202414146EA9E0601D5BDE870
:103C30000189B619524141EB0101A3F10103BDE82D
:103C400001894FEA14454FEA114724EA054621EA63
:103C5000074C05FB07F406FB07F70CFB06F105FB19
:103C60000CFC11EB074144EB17444FEA124711EBF0
:103C70000C4144EB1C4422EA074C05FB07F206FB0F
:103C800007F70CFB06F605FB0CFC16EB074642EBB0
:103C9000174216EB0C4642EB1C456A1854F1000122
:103CA00048BF7047B619524141EB0101A3F101032E
:103CB000704795F0000F37D04FEA11424FEA144792
:103CC00021EA024624EA074C02FB07F106FB07F74C
:103CD0000CFB06F402FB0CFC14EB074441EB174110
:103CE0004FEA154714EB0C4441EB1C4125EA074C05
:103CF00002FB07F506FB07F70CFB06F602FB0CFCC4
:103D000016EB074645EB174516EB0C4645EB1C42F8
:103D1000121951F1000148BF7047B619524141EBE9
:103D20000101A3F1010370474FEA14454FEA11471F
:103D300024EA054621EA074C05FB07F106FB07F7D5
:103D40000CFB06F24FF0000605FB0CFC12EB0742E1
:103D500041EB174112EB0C4251EB1C4148BF70473D
:103D6000921841EB0101A3F10103704710B503F66E
:103D70004FFA10B101F04CFF10BDBDE810402AF61B
:103D800035BD01F0EDBF000010B52AF61BFE02287C
:103D900018D00D4CD4F8880220F00100C4F8880235
:103DA0004FF0E0214FF00050C1F8800204F522747A
:103DB00002F0BAF805484168491C4160206840F0AB
:103DC0000100206010BD000000E00040AC2C00208D
:103DD000FEE7FEE7FEE703F0B7BEFEE7024909682B
:103DE00001F007010170704700A00040024801681F
:103DF00041F470010160704788ED00E002480068FE
:103E0000001D04F055B80000D02B00200248406887
:103E1000001D04F04DB80000D02B0020FEE703B4D5
:103E200001984100009850EAC12018BF04204A0DB3
:103E300018BF40F0010040F2FF72B2EB515F08BFC3
:103E400040F00200012808BF052002B0704700289A
:103E500009DB00F01F02012191404009800000F1C0
:103E6000E020C0F880127047002809DB00F01F0234
:103E7000012191404009800000F1E020C0F80011CC
:103E80007047002809DB00F01F0201219140400922
:103E9000800000F1E020C0F80011704700280FDB1F
:103EA0004109890001F1E021D1F8001100F01F0261
:103EB00001209040014201D001207047002070474E
:103EC00000207047002804DB00F1E02090F8000497
:103ED000704700F00F0000F1E02090F8140D7047DB
:103EE000002804DB00F1E02090F80004704700F0A7
:103EF0000F0000F1E02090F8140D704702480068B0
:103F0000C0F30220704700000CED00E0024800689A
:103F1000C0F30220704700000CED00E0EFF31080CA
:103F200070470000000000002DE9F0412DED020B6C
:103F30009FED3D0B2DED028B9FED3D8BDDE9025496
:103F4000C4F30A50A0F2FF36142E37DA002E18DA26
:103F500053EC102B9DED020B51EC100B08F064FBA1
:103F600053EC182B08F05CFF57D2002CBCBF4FF06D
:103F70000044002551DB54EA050018BF2E4C1BD12C
:103F80004BE02E4820FA06F704EA070028431FD02A
:103F900053EC102B9DED020B51EC100B08F044FB81
:103FA00053EC182B08F03CFF37D2002C03DD4FF404
:103FB0008010F0400444BC4300252EE0332E07DC83
:103FC000A6F114004FF0FF3121FA00F73D4206D16F
:103FD0009DED020BBDEC028B02B0BDE8F08153EC0D
:103FE000102B9DED020B51EC100B08F04FFF53EC22
:103FF000182B08F015FF10D2002C0DDD142E08BF71
:10400000641C09D0C6F13400012101FA00F02844F3
:10401000A84238BF641C0546BD43CDE902549DED5E
:10402000020BD7E7000000009C7500883CE4377E57
:1040300000000000000000000000F03FFFFF0F0044
:1040400080F31088704700002DE9F74F074602986B
:10405000DFF86CA1DFF86C814FEA500B5A48019DE4
:104060005C465646CAF80000D8F804203F2060F3AA
:104070000502C8F80420DAF8000020F4700040EAD5
:104080000750CAF80000DAF8000020F4702040EA77
:104090000740CAF800000D2F02D00E2F04D007E011
:1040A000306840F4004002E0306840F48040306006
:1040B000306840F400503060306820F0605030606C
:1040C000306820F00F0040F003003060002000F066
:1040D000AFF8012872D13168B24641F080413160B9
:1040E0000020424609E0D8F8083043F48033C8F88D
:1040F0000830811C00F1010005D091689046C1F3A1
:1041000000210029EFD1072000F092F8012855D1B5
:1041100042E000264FF47A7924E04E451ED9DAF8C1
:10412000001021F08041CAF80010DAF8001041F0C8
:104130000041CAF80010DAF8001021F00041CAF876
:104140000010002000F074F8012837D11F484169A1
:10415000491C41610520FCF5E5FC7FE70120FCF5E9
:10416000E1FC761CD8F80800C0F300200028D4D069
:10417000D8F80800434600F07F02A24200D9224648
:10418000002006E0196825F8021B090C25F8021B1F
:10419000401C9042F6D3A41A002CBAD10298C00752
:1041A00007D040468168C1F300210029FAD0006899
:1041B0002880BDE8FE4F002000F03AB8BDE8FE8F31
:1041C00000A8004000E000400A070807AC2C0020CF
:1041D0002DE9F04112490446002008601049803959
:1041E0000860104D686A104E00F00101494201401C
:1041F0003062C8050DD440F20117A869B84208D052
:1042000024B10120641EFCF58DFCF6E70020BDE81A
:10421000F08106480068B0616868F0610120F6E747
:1042200094581C4200E00040AC2C002000A8004044
:104230002DE9F041104F0546F868C0F30240A8424E
:1042400017D0F86820F007002843F86000244FF6E4
:10425000FF76F868C0F30240A84205D00120FCF5C3
:1042600061FC641CB442F4D3B44202D10020BDE826
:10427000F0810120FBE7000000E00040F0B50C46B3
:104280002DED088B89B006469FED559B2021684691
:10429000FEF7B4FAB0EE498AF0EE698A1022694658
:1042A0003046FFF7D1FE00256F4607EB4500008A38
:1042B00008F023FC53EC182B08F0B6F96D1C41EC08
:1042C000180BEDB2082DF0D39FED470B51EC180BF6
:1042D00053EC102B08F0A6FC41EC180B9FED44BBEF
:1042E0000D2E02D00E2E30D072E0608808F005FC52
:1042F00053EC1B2B08F04CFA9FED3F0B41EC190BD4
:1043000051EC100B08F084F941EC1A0BE08808F02E
:10431000F4FB53EC1A2B08F085FC41EC1A0B2088B7
:1043200008F0EBFB53EC182B08F0B0FD53EC1A2B04
:1043300008F02EFA9FED321B53EC112B08F028FAEF
:1043400053EC192B08F070F940E0A07EFF2801D053
:10435000E8B13DE09FED2C0B51EC100B08F058F943
:1043600041EC1A0BE08808F0C8FB41EC190B2089DE
:1043700008F0C3FB53EC182B08F088FD53EC192B05
:1043800008F006FA53EC1A2B08F04CFC1EE0A0884B
:1043900008F0B3FB41EC190BE08808F0AEFB08F025
:1043A00037F941EC1A0B208908F0A7FB53EC182BC6
:1043B00008F06CFD53EC1A2B08F0EAF953EC192BBA
:1043C00008F030FC53EC1B2B08F0E2F941EC190B20
:1043D00009B0B0EE490AF0EE690ABDEC088BF0BDF9
:1043E0000000000000000000000000000000C03FCE
:1043F00000000000000059400000000000000040E4
:10440000DE718A8EE4F25FBFE2E1E1E1E1E10E40BC
:1044100030380A2801D201207047002070477047C9
:1044200070B504466FF01305552801DB06200FE038
:10443000412C0ADA2D2C01DB042009E014F10A0FCB
:1044400001DB032004E0AC4201DB052000E0072093
:1044500004F048FB06F0BCFCA8B10F480068C0F3AC
:10446000805080B904F114010C48142902D240F2A2
:10447000DC5106E0AC4202DA4FF4AF6101E04FF4E8
:10448000C8614161C16106480168002903D0204626
:10449000BDE87040084770BD14A80040205F0020B0
:1044A000542E002010B51A4940F21A444FF4B97244
:1044B0000B694FF496710C3BA3420FD90424BE281C
:1044C00001DC0C241BE0DC2801DC082417E0FA28BE
:1044D0000EDD884210DD904211DD0FE0BE2801DCC8
:1044E0000B240CE0DC2801DC072408E0FA2801DCBE
:1044F000062404E0884201DC052400E00324204671
:1045000004F004FB2046BDE8104004F0E1BA0000CE
:10451000205F002006460F46154672B63846FEF765
:10452000ADF8402801D9402002E03846FEF7A6F851
:1045300080463046FEF7A2F8402801D9402002E02C
:104540003046FEF79BF804469C211048FEF756F9CA
:10455000424639460D48FEF7B0F80C48224631462F
:104560005C30FEF7AAF809484FF0AA3101644564AF
:104570004FF0BB3181644FF0CC3101654FF0DD313C
:104580008165002000F004F8FEE70000603900209B
:1045900030B5ADF20C4D04464FF4806103A8FEF730
:1045A0002DF9194D202085F83F0085F89B003CB17E
:1045B0002846012C436DC26C09D0022C0CD00FE0B0
:1045C000114A12A15C3203A8FDF760FE08E012A1B7
:1045D00003A8FDF75BFE03E017A103A8FDF756FE55
:1045E00003A90CA2686CCDE90121009019A3064A29
:1045F00019A1002000F0C0FD012C01D000F074FDD5
:104600000DF20C4D30BD0000603900205B45525268
:104610004F525D20257300005B5741524E494E4773
:104620005D20506172616D303A25642C5061726179
:104630006D313A25640000005B504152414D5D20D0
:10464000506172616D303A25642C506172616D3138
:104650003A256400000000006170705F617373654B
:1046600072742E6300000000014805F041BF000095
:10467000FC2B002006460F4690461D4672B640466B
:10468000FDF7FCFF402801D9402002E04046FDF73D
:10469000F5FF04469C210D48FEF7B0F8224641463E
:1046A0000A48FEF70AF809484FF05531016445649D
:1046B0004FF066318164C6644FF07731016547651C
:1046C000C94381650220FFF763FFFEE760390020E0
:1046D0002DE9F04106460F4690461D464046FDF73F
:1046E000CDFF402801D9402002E04046FDF7C6FF3B
:1046F00004469C210D48FEF781F8224641460B48AE
:10470000FDF7DBFF09484FF01131016445644900B2
:104710008164C6644FF03331016547654FF0443121
:104720008165BDE8F0410120FFF732BF603900200C
:10473000F0B58BB00024282101A8FEF75FF801F046
:104740002FFD2348019000258DF80850059506950A
:104750000795089509950A951E4901A800F0BCF82F
:104760001D4EB080411C0DD035707570B5701B4A60
:1047700040F6FC752B46A2F6FC7100F041F94FF4AF
:10478000FA7707E016A0FDF775FD0BB0F0BD0A2023
:10479000FCF5C2F9307838B9707828B9B07818B912
:1047A0002046641CB842F2D30C492A46A1F6FC709C
:1047B000FDF738FF18B110A0FDF75CFD02E017A06F
:1047C000FDF758FDB6F9040000F04CF8DDE70000F5
:1047D0000040014045482000082C0020F8490020F6
:1047E0006170705F646D61305F696E6974206661CD
:1047F000696C0D0A000000006170705F646D6130CB
:104800005F6D656D6F72795F746F5F6D656D6F72EF
:10481000793A206661696C0D0A0000006170705F72
:10482000646D61305F6D656D6F72795F746F5F6D20
:10483000656D6F72793A20737563636573730D0AE2
:104840000000000001220649002805D0012805D0FB
:10485000022800D14A7070478A7070470A7070470A
:10486000082C002070B5052801D3E82070BD194D33
:1048700000EB400005EB40142078C8B1EFF3108640
:10488000012080F31088201D02F07AFC00202070A7
:10489000FF202072002000EB400105EB4111097858
:1048A000012902D0401C0528F5D3052802D007E0D5
:1048B000E92070BD002005F0B9FB032003F041F8AA
:1048C00026B1012080F31088002070BD002080F305
:1048D0001088F9E70C3400202DE9F0470546894699
:1048E00000244FF0FF3846464FF0010A002D10D04B
:1048F0003C49032005F0AEFD287960B101280AD0BB
:10490000022808D0032806D0042804D04046BDE879
:10491000F087E520FBE7EFF31082012181F3108897
:10492000314F04EB440107EB41110B783BB14B686D
:10493000D5F800C0634510D10B7A83420DD104EB4A
:10494000440007EB401090F82D00022803D026B257
:104950000120087004E0052402E0641C052CE0D36B
:104960005AB3012080F31088052C34D20022032191
:104970001E4805F043FB04EB440107EB4114286893
:1049800060602879207204F10C00202205F10801F2
:10499000FDF7D8FE164860631648E0631648A0632A
:1049A00000202064C4F85C901449606888420ED1ED
:1049B0000320FFF773FA20B109E0002080F310888C
:1049C000D2E7032002F0B0FF032002F0CBFF201D4E
:1049D00002F026FC8246BAF1000F00D0464630466F
:1049E00095E70000B11F10000C34002028D22000F1
:1049F000CD61200031602000E95F200000400140CF
:104A000070B5052801D3E82070BD00EB40040A48CA
:104A100000EB4410047834B15C1E40F6FF75AC42E4
:104A200003D3E42070BDE92070BD001D02F01FFD1E
:104A30000028F9D170BD00000C3400202DE9F041B0
:104A4000014600291BD000240F4E0E4A357814E091
:104A500002EB04100F780378BB420CD14B6840681E
:104A6000034208D0707808B900F01CFB2046BDE86E
:104A7000F04100F04BBA641CE4B2AC42E8D3BDE8AC
:104A8000F08100004C380020F02B00207CB505465A
:104A90000E46002D01D0002418E0E5207CBD05EB7A
:104AA000041041680091017A8DF80410417A8DF864
:104AB000051000218DF80610C268007800236946B1
:104AC00000F036F80028E9D1641CE4B2B442E6D321
:104AD00000207CBD10B502460846052A24D2DFE836
:104AE00002F0030303111900104951F832200104A8
:104AF000090C05D022B10146104602F0F7FD0FE087
:104B0000E42010BD10F0FF0F02D002F07BF907E0A7
:104B1000E42010BD810505D00146002002F098FE7A
:104B2000002010BDE42010BDE62010BD44D22000BE
:104B30002DE9F05F05460C46904699462668002709
:104B4000042D11D031462846FFF7C4FF21462846E0
:104B500000F068F8002808D1032D08D04FF0100AA3
:104B60002807070E002451E0E620BDE8F09F4FF033
:104B7000080AF7E7F00746D03DB1012D05D0022D18
:104B800003D0032D27D0E620EFE7244800EBC50033
:104B900090F904B0BBF1000F17D0EFF310810120A2
:104BA00080F310881E4AE01942F8308002EBC00002
:104BB000C0F8049059B1012080F31088584602F0E3
:104BC000B3FE584602F0CEFE1DE0E420CDE7002003
:104BD00080F31088F2E7EFF31081012080F3108852
:104BE0000F4AE019703242F8308002EBC000C0F882
:104BF000049079B1012080F31088152002F094FE12
:104C0000152002F0AFFE7608641CE4B25445B1D31F
:104C10000020AAE7002080F31088EEE744D22000AD
:104C20002036002030B597B005460C461C2241497D
:104C300010A8FDF787FD1C223E491C3109A8FDF78D
:104C400081FD20223B49383101A8FDF77BFD94B15D
:104C50003949062005F0FEFB3849152005F0FAFB1E
:104C600034496C39A1F12C02052D60D2DFE805F042
:104C7000060606213900E52017B030BD207931F84D
:104C800010001190607932F810001290A079139002
:104C9000206810902748843850F83500218809048E
:104CA000090C04D018B110A902F0ADFD38E0E420E1
:104CB000E2E7207901EB4000808A0A90607902EBFC
:104CC0004000C0880B90A0790C9020680990207853
:104CD00010F0FF0F03D009A802F0FCF820E0E42058
:104CE000CAE72079031F042B01D8E720C4E7022874
:104CF00018D001200290207901EB4000008D039034
:104D0000607902EB400080890490A07905902068CA
:104D100001902088800508D001A9002002F0F4FD50
:104D20000020A9E702200290E5E7E420A4E7E620BE
:104D3000A2E70000C8D22000812010007D201000D2
:104D400002460020052A11D2DFE802F0030303091E
:104D50000C00074850F8320089B202F072BD88B2E8
:104D600002F018B989B2002002F0D0BD70470000EF
:104D700044D22000002803D0024908600120704777
:104D800000207047F82B002070B505460024091F4D
:104D9000062917D2DFE801F003070C111315284686
:104DA00000F0A4F80EE00124284600F09FF809E086
:104DB0000224284600F09AF804E0032402E00424C8
:104DC00000E00524034A214628461268BDE87040E9
:104DD00010470000F82B00202DE9F0410446204642
:104DE00000F0AEF801462E4800230826025D00F1CF
:104DF0000A0700F11405AAB1052A33D0082A2AD1DE
:104E0000092945D0082926D1295D491CC9B229554F
:104E1000142920D32B5506552046BDE8F041082122
:104E2000FFF7B2BF052913D0042916D0072914D0E3
:104E3000082910D1295D491CC9B2295514290AD362
:104E40002B5506552046BDE8F0410821FFF79CBFD1
:104E50003B5505210155BDE8F0812046BDE8F041F4
:104E6000FFF792BF05290CD0395D491CC9B23955ED
:104E70003229F0D303552046BDE8F0410521FFF764
:104E800083BF03552046BDE8F0410621FFF77CBFF4
:104E900003552046BDE8F0410921FFF775BF00002A
:104EA0002C39002070B504460D4600F00FF808B10B
:104EB00000F00EF90348044A2946005D5268BDE837
:104EC0007040104740380020F02B00200020064999
:104ED00011F810200AB100207047401CC0B20A2807
:104EE000F6D30120704700004A3900200349002210
:104EF00001F8102001EB4000427070474A39002051
:104F0000014A02F8101070474A390020024A012174
:104F100002EB4000417070474A39002070B5002410
:104F2000064D05EB4400407810B12046FFF754FFD2
:104F3000641CE4B20A2CF4D370BD00004A3900208E
:104F400070B500211D4B03F132051A5C002A09D00F
:104F5000002403F10A06012A0AD0022A12D0032AE9
:104F600024D11FE015F8102002B301221A541DE0CD
:104F700015F810201AB1345402221A5416E01C54A9
:104F8000042113E015F810204AB1325C521CD2B251
:104F90003254642A0AD3072103221A5406E0052159
:104FA0001C5403E015F8101011B10821084670BD1B
:104FB0001C54FFF79BFF0921F8E700001839002077
:104FC000704700002DE9F0410E4617460A2E02D820
:104FD0000FB100231AE00020BDE8F08103EB430489
:104FE00000EB8405114AA97AD154104910F8242005
:104FF0000C3101EB0314227069686160297A217217
:10500000697A61720A49E1605B1CDBB2B342E5D3A5
:10501000064831460C30FFF739FD064806704760F8
:105020000548FFF7A7FE0120D6E700004038002022
:105030003D4A2000F02B0020A54E20002DE9F04134
:105040000024124FDFF8488019E0002607EB041512
:1050500028786968FFF774FE10B9697A012902D0CF
:10506000012802D005E0012603E0687A022800D179
:10507000012631462046FFF743FF641CE4B298F84E
:1050800000008442E1D3BDE8F08100004C380020EC
:10509000F02B002010B5FFF7D1FFBDE81040FFF75F
:1050A0003DBF000010B5074A0121074800F064F930
:1050B00000220A21044800F0B5FA04490120487092
:1050C00010BD000095502000F0380020F02B00208B
:1050D00010B5034800F07EF902490020487010BD69
:1050E000F0380020F02B00200248406A002800D051
:1050F00000477047D0370020002806D0002904D090
:10510000024AD269002A00D010477047D0370020E9
:105110000248006A002800D000477047D0370020BE
:1051200070B50D4616460D4C00280AD001780329AB
:1051300011D80121A17601461A222046FDF7BDFAB9
:1051400005E00020A0761A210448FDF757FBE56131
:105150002662002070BD012070BD0000D037002005
:10516000044A1044807D084201D00120704700208D
:1051700070470000D03700202DE9FE4F07469246C9
:1051800099460024A046CDF80480CDF808805948FF
:105190000178B94202D2807E00287DD10EAD009503
:1051A000EFF311860220FEF78DFE8346FEF7A6FE82
:1051B000401C012181400BEB0100C0B280F311883B
:1051C00001213846FFF7CCFF38B14B484B4950F826
:1051D0002720204600F0A4F804461C213846FFF79B
:1051E000BFFF00285ED046A24449204600F098F850
:1051F000204484B204213846FFF7B2FFF8B152468A
:105200003E49204600F08CF8204484B208213846FC
:10521000FFF7A6FF38B13BA23849204600F080F8DE
:10522000204484B20BE010213846FFF799FF30B1DB
:1052300035A23249204600F073F8204484B2082198
:105240003846FFF78DFF90B14A462C49204600F0C2
:1052500067F8204484B210213846FFF781FF30B14F
:105260002AA22649204600F05BF8204484B210218F
:105270003846FFF775FF60B126A2052101A80C9BF7
:10528000FDF71AF801AA1D49204600F049F820440C
:1052900084B221A2194900E029E0204600F040F83C
:1052A000204484B21548C4F5807120442B460D9AE1
:1052B000FCF7C6FFCDF800804FF48071002804DBB6
:1052C0002044884201DC85B200E00D46A81C8842DB
:1052D00000D9FE2511A20949284600F021F82844EA
:1052E00081B20648FFF708FFF0B280F31188BDE8ED
:1052F000FE8F0000D0370020D82B0020D0360020B1
:1053000028000000200000003A000000204C696ED8
:10531000653A0000256C6400292000000D0A000099
:1053200030B50546002000290CD0002A0AD006E03E
:105330002B18FF2B06D8CC54521C401C80B214787A
:10534000002CF5D130BD000010B5084801780029C7
:105350000AD101210170064829F6A4FABDE81040DF
:105360000021044829F6A0BB10BD0000CC2B002072
:10537000252010005D9F20002DE9F04104460D46D8
:105380001746002D04D0012D02D00120BDE8F08188
:10539000E4B1DFB1607801281AD0EFF31186022062
:1053A000FEF79EFD8046FEF7B1FD401C01218140C5
:1053B00008EB0100C0B280F3118800206070A57076
:1053C000E761F0B280F311880020DFE70120DDE71C
:1053D0000620DBE710B50446002C0CD0204600F078
:1053E000B3F9FF2060700021A160E160216161617B
:1053F0000020E06110BD012010BDF0B5DDE90745DA
:10540000059981614FF47A76A2FB061C03FB06C363
:10541000002702FB0732C0E9021209196A41C0E9FC
:10542000041200210162F0BD2DE9F0410446002C78
:1054300013D0EFF311850220FEF752FD0746FEF769
:1054400065FD401C012606FA00F03844C0B280F326
:1054500011881248002121620EE00020BDE8F08191
:10546000D4E90432D1E9047CDB1B72EB0C0202D2DA
:10547000016A216203E00846016A0029F0D1046252
:105480006670064810380168491C0160016B416074
:10549000E8B280F311880120E0E70000083800201E
:1054A0002DE9F04105460024EFF311860220FEF7B6
:1054B00017FD0746FEF72AFD401C012181407818A0
:1054C000C0B280F31188134A106BE8B115B102F134
:1054D000100010E00446206A10631068401E10603F
:1054E0000CE0A94206D11168491E1160296A0162C7
:1054F0002C4603E00846016A0029F2D124B10020BD
:1055000020626070106B5060F0B280F3118820460A
:10551000BDE8F081F83700202DE9F041EFF3118765
:105520000220FEF7DDFC0446FEF7F0FC401C0121E2
:1055300081406018C0B280F31188114D002608E048
:105540002078012804D1E16909B1A0698847267053
:105550002D6A2C6A002CF3D1094D103D07E0E1695A
:1055600009B1A06988472670206AA8632662AC6BDF
:10557000002CF4D1F8B280F311880120BDE8F0814D
:10558000083800202DE9F041EFF311870220FEF7E3
:10559000A7FC0446FEF7BAFC401C012606FA00F000
:1055A0002044C0B280F311881D4DA5F110082DE0F4
:1055B000D4E90430D8E902125B1A60EB0200D8E9A2
:1055C0001021D21A814124D326702046FFF768FFAC
:1055D000A078012806D012482830002121620168F5
:1055E00061B10FE0D8E90220D4E902135118584103
:1055F000C4E904102046FFF717FF07E0046005E048
:1056000001F1200001680029FAD104602C6A002C05
:10561000CED1F8B280F311880120BDE8F0810000FE
:10562000083800202DE9FF5F82460E4693464FF072
:105630000008BAF1000F20D0414886421DD8E6B1DB
:10564000EFF311870220FEF74BFC0446FEF75EFCE9
:10565000401C012181406018C0B280F3118850467F
:1056600003F0F6F810B19AF8010040B1F8B280F3F7
:1056700011880F2004B0BDE8F09F0120FAE703F085
:1056800061FE04460D464FF47A7106FB01F0224696
:105690002B46002102F0C6FFDFF8A890B0B1D9F880
:1056A000040048B1D0E90410091B60EB0500C9E90A
:1056B000021003F0C1FE04E00021C9F80810C9F887
:1056C0000C104FF00108D9E9020106E0D9F80400F6
:1056D000D0E90421101B61EB0501CDE9020132463E
:1056E0000023CDF800B05046FFF787FE5046FFF785
:1056F0009BFE04F0BDFD4FF0E024D4F800014FF410
:10570000801510F4801F01D0012000E0002020B996
:105710001420FEF79CFBC4F80051B8F1000F0AD02A
:10572000D9F80400D0E90431D9E90202181A61EB72
:10573000020103F03DFEF8B280F31188002099E7E2
:10574000008AB907F83700202DE9F041044600250A
:10575000002C39D0EFF311870220FEF7C1FB06467B
:10576000FEF7D4FB401C012181407018C0B280F3C9
:1057700011886078012824D1144E7068A0420BD1A2
:1057800003F0E0FDD4E90432181A62EB0102C6E925
:10579000020203F051FE01252046FFF781FE5DB1B4
:1057A000706848B1D0E90421D6E90203101A61EB10
:1057B000030103F0FDFD04E01DB9706808B903F0B2
:1057C0003BFEF8B280F31188BDE8F081F837002085
:1057D00070B504461A4D55F82400703004F0ADFC45
:1057E00082B21646A2B155F8240090F801110129A1
:1057F0000ED0012180F80411802A0FD355F824001F
:10580000802200F18001703004F0B2FC80260CE0B0
:1058100055F82410002081F8000170BD55F82400CF
:1058200000F18001703004F0A3FC55F824003246EA
:1058300000F18001001D02F035FC0028EDD170BDA3
:10584000D02B0020704700002DE9F8430446534F49
:1058500057F82400061D022C7ED290F86C10002907
:105860007AD0012978D190F80011012974D190F8EB
:105870000111002970D1012180F80111002157F890
:105880002400D0E903231344027D02F00102D21D5B
:105890009D184268D36FC3F38003002BFAD090F8B1
:1058A0000421A2B13E4A1368491C90F83B20102AFB
:1058B00006D08268B3FBF2F26A43B1EBC21FF3D9A0
:1058C00057F82400703004F038FC85B226E0B0F8B8
:1058D0002480C58C001D02F07DF957F8240041F2A8
:1058E000883300EB0801491B8031001D2A4602F075
:1058F00092FBE5E757F8240001227030694604F076
:1059000037FC57F824004068C16FC1F340010029FB
:10591000FAD09DF8001001606D1EADB2002DE9D1E6
:1059200057F82400703004F008FC0028C8D1306813
:1059300041694906FCD5EFF31085012080F31088FA
:1059400057F82400703004F0F8FB78B1EFF31081C1
:10595000012080F3108800E015E03068426842F0D2
:105960008202426089B1012080F3108857F8241028
:10597000002081F8000157F8241081F8010145B199
:10598000012080F31088BDE8F883002080F31088A0
:10599000ECE7002080F31088F5E70000D02B002012
:1059A0005C0000202DE9F04105460F46002D06D091
:1059B0002AB12C78022C04D3E820BDE8F081E52040
:1059C000FBE7304E05F1580046F82400D2E90031DB
:1059D0000A467030194604F095FB291D286D06F023
:1059E00007F80028E9D156F82410281D486656F813
:1059F0002400076056F824001822083005F1400101
:105A0000FCF7A0FE204856F8241000EBC405686897
:105A1000486056F82400001D02F03CF956F82400B6
:105A2000001D02F0D9F9184801220321103804F0B2
:105A3000E5FA56F82410012081F86C0056F824107D
:105A4000002081F8000156F8241081F8010156F871
:105A5000241081F8020156F8241081F803010B4943
:105A60000C2004F0F7FC0A490D2004F0F3FC95F932
:105A7000010001F059FF95F9010001F073FF0020CA
:105A80009BE70000D02B002030D32000FD3D2000FC
:105A90000D3E20002DE9F04104461A4D55F8240032
:105AA000703004F04AFB82B2164600277AB155F8EE
:105AB000240090F80111012909D0802A0ED300F1A9
:105AC00080017030802204F053FB80260BE055F8F3
:105AD000240080F800710020BDE8F08100F1800111
:105AE000703004F045FB55F8240080F8047155F837
:105AF0002400324600F18001001D02F039FB00282D
:105B0000EAD1E9E7D02B002070B5022801D3E820C4
:105B100070BD104D55F8204064B194F86C604EB1E2
:105B200051B14AB15E1C09D044F62066B34205D992
:105B3000E42070BDE52070BDE42070BD002684F82F
:105B4000026155F82000001D02F065FA0028F4D12A
:105B500070BD0000D02B00202DE9F84F294D804664
:105B600092460E4601F10804A8F58041264A68686D
:105B7000B1F5804F01D25168401A844202D9052004
:105B8000BDE8F88F28681369411E9268C1F30B01C4
:105B9000411A9A1A01F6FF716B7AC1F30731C91ADB
:105BA00002EBC101081A001F844225D9174F0024B7
:105BB000009411231E224FF40049D7F800C0494633
:105BC0000120E0470021084600F044FF40B1009466
:105BD00013231E223C6849460120A0470A20CFE734
:105BE000687A02F051FC0028CAD1009412231E22C8
:105BF0003C6849460120A04752463146404606F0DF
:105C00004DFABDE7905C0020602C0020E0010020F0
:105C10002CF672BF10B500F047F800F005F8BDE8AB
:105C2000104000F025B8000000B587B003228DF8C1
:105C300004202020029005218DF80C1001208DF801
:105C40000D0000238DF80E308DF810208022059273
:105C50008DF818108DF819008DF81A00034A0221EA
:105C600001A8FFF7AFF907B000BD0000C14F200049
:105C70007CB50820009002248DF804408DF8054082
:105C800000258DF8065069460320FEF7CBFF102053
:105C900000908DF804408DF805408DF80650694657
:105CA0000320FEF7BFFF7CBD00B587B000F01EF8F3
:105CB00003208DF800001D208DF8160001208DF8BE
:105CC00017008DF818008DF81900044A0449684639
:105CD000FFF726FAFEF7C8FC07B000BDE55C200020
:105CE000515D20000020FFF7AFBD00007CB51448D7
:105CF00000904FF4806001901248002101704FF431
:105D0000E1320264032242648164C16401650123BB
:105D100043650274022444610825457403760271C8
:105D2000836007234371017307494163816380F8EE
:105D30003C4080F83D206A460449FFF733FE7CBDB5
:105D4000AC2E0020AC32002000400140455820001D
:105D50000A4601464FF47A730020FFF7D5BE0000D3
:105D6000194810B50068C0F3000038B1164808386B
:105D70000068C0F3000008B104F0F8FA13480068A6
:105D8000C0F3000038B1114808380068C0F30000C3
:105D900008B100F0E1FC04F061FA002813D002F031
:105DA00059FA00280FD000210C2001F057FE0120E5
:105DB000FCF6C4FB0648816821F4807181600548C7
:105DC00000218170C17010BD08E4004008E500406A
:105DD00000A00040802C002000B504F03FFA20B164
:105DE00002F038FA08B1012000BD002000BD00001B
:105DF00010B510491E2004F02DFB04F02FFAA8B1B5
:105E000001210C2001F02AFE0120FCF691FB0A4939
:105E1000012008700949D1F8801211F4403F00D1E7
:105E2000002004F075FA1E20FEF71EF800F03AFC80
:105E300010BD0000833D2000802C002000A0004009
:105E4000044903480860054903480860704700009A
:105E500011281000A0010020AB28100088010020AC
:105E60002DE9FC4188460446164D4FF6FF76164F45
:105E700021E0A968082201EB0030694603F0F0F93F
:105E8000082802D00B20BDE8FC81BDF80000B0421C
:105E90000ED00C489DF800101430C170BDF80210EF
:105EA00081809DF8012088F800202178417006E06B
:105EB0002078401C20702078797A8842D9D300203D
:105EC000E1E70000602C0020905C0020124810B533
:105ED000016821F00041016010490A78497842EADE
:105EE0008103011D0A6863F31F720A60016841F0B3
:105EF000004101600A48D0F8881241F00101C0F861
:105F0000881208491D2004F0A5FA4FF0E0214FF057
:105F10000050C1F8000110BD04A90040AC2C0020C5
:105F200000E00040893D2000F8B5EFF31086012025
:105F300080F3108806208DF800006846FDF74EFFBC
:105F40000220FAF5F5FA3220FAF5ECFD184C20683B
:105F500020F400302060251F286840F002002860EF
:105F6000144F7889FAF5DEFD286820F002002860D9
:105F7000B889FAF5D7FD9DF80000FAF5D9FA0C4872
:105F80003830016889020CD400682168C0F30440ED
:105F900041F400312160216821F4F83141EA0030F8
:105FA00020601EB1012080F31088F8BD0020FAE7C0
:105FB00008A90040602D002070B504460068164610
:105FC000421EC2F30B02821A0025831902F6FF72E9
:105FD0009A4200D80825324603F086F921687219E2
:105FE0001144216070BD000030B400210F4B01EB63
:105FF000410203EB42121478012C11D1147A057975
:10600000AC420DD152680468A24209D101EB4100B3
:1060100003EB4010C16D002905D030BC02200847B9
:10602000491C0529E3D330BC704700000C34002024
:1060300030B400210F4B01EB410203EB4212147804
:10604000012C11D1147A0579AC420DD15268046843
:10605000A24209D101EB410003EB4010C16D0029C0
:1060600005D030BC00200847491C0529E3D330BCCB
:10607000704700000C34002002004FF0010007D0F0
:1060800031B11268034B9A4202D108220A7070475C
:10609000002070470040014070B500240B4E04EB17
:1060A000440006EB4015287801280AD1281D01F08C
:1060B000B1F818B1012801D0002070BD281D01F0F1
:1060C00062FA641C052CEAD3012070BD0C34002058
:1060D000F8B5044611200D468DF8000069462046AB
:1060E000FFF7CAFF012824D19DF80010884012490B
:1060F000096808421DD0C5B9EFF31086012080F36E
:1061000010880E4920680025884200D10C4D0024DB
:1061100055F8240008B101F073F9641CE4B2052CB1
:10612000F6D33EB1012080F310889DF8000001F005
:106130003DFCF8BD0020F6E7282E0020004001407D
:10614000C45F0020F8B506004FF011000D468DF831
:1061500000004FF0000414D069463046FFF78CFF72
:1061600001280CD1012D00D01DB93068D0F8A00352
:1061700000B1012421469DF8000001F06FFC86F873
:106180002950F8BD08B511218DF800106946FFF7B8
:1061900073FF012803D19DF8000001F04BFC08BDFE
:1061A00010B5084800210170417081700020064A36
:1061B00040F6FC7402F6FC7310541954401CA042C3
:1061C000FAD310BD082C0020FC39002030B4002187
:1061D0000F4B01EB410203EB42121478012C11D159
:1061E000147A0579AC420DD152680468A24209D1F3
:1061F00001EB410003EB4010C16D002905D030BC1C
:1062000001200847491C0529E3D330BC7047000032
:106210000C340020024A5268002A00D01047704710
:10622000182E002010B5184C184A0368C9B1A342B3
:1062300028D10079052825D2002142F820100846EF
:1062400052F8201019B9401CC0B20528F8D305280F
:1062500018D1082001F0DCFBBDE81040082001F057
:106260009BBBA3420ED1017905290BD242F8210034
:106270000749082001F0C2FBBDE81040034908208F
:1062800001F0D0BB10BD000000400140C45F002001
:106290005D75200000B500F007F802490120886113
:1062A00000BD0000445E002030B5084C012504F814
:1062B000045B84E80F000648241F8068884201D2EE
:1062C000081A00E0401A606130BD0000DC5E00206A
:1062D000942C002010B502F037F804461821054828
:1062E000FCF78CFA034A002120461170BDE81040EB
:1062F00000F018B9DC5E0020F0B40E460146224FD3
:106300002048BB680578C0E90821994201D9CC1A18
:1063100000E05C1AFF68A7420AD28769A74201D948
:10632000C0E90642012D09D0022D1FD0032D27D12F
:1063300013463246F0BC0020FFF7ACBF41619942E2
:10634000016902D9491C816002E0491EC16081686F
:10635000C268914206D211444908016101210170CD
:10636000016909E002210170816805E0C369934277
:10637000DED00321017019463046F0BC00F006B8AB
:10638000F0BC7047845E0020942C0020054A936A7C
:106390005B1C93628AB2C1B20348044B406801F0AF
:1063A00067BF0000845E0020942C0020F96220006A
:1063B00070B50E4C05462C212046FCF71FFA002034
:1063C000A06040F2FF10FF22C4E903024FF0FF304B
:1063D000A061A06AE9B2401CA062012020700448BC
:1063E000044B4068BDE8704001F042BF845E00206D
:1063F000942C0020F96220002DE9F843254C074633
:10640000904620780D4601280BD0022813D0082092
:106410001346E0610A4601B03946BDE8F043FFF794
:1064200039BF40F2FF11C4E903712846BDE8F843C3
:10643000022200F061B8002600966846676100F00D
:106440002BF870B1012810D0022817D003281FD0D4
:10645000072043462A463946E061FFF71BFFBDE8A7
:10646000F8832846FFF7A4FFF9E70F2D04D2012295
:106470003146681CA66006E00520EAE735B1012236
:106480000021681EA66000F037F8E8E70620E0E784
:106490000098DEE7645E002010B51649144A144CDB
:1064A0000B698968D26864698A4201D98C4219D81B
:1064B0008A4201D28C4211D38A4201D9521A00E099
:1064C0008A1A8C4201D9611A00E0091B9A4203D34F
:1064D000994201D3002010BD9A4201D2012010BD83
:1064E000994201D2022010BD03210160084610BD6F
:1064F000645E0020942C0020074B30B49C69641C1F
:106500009C6158601A708AB2C1B20448044B40685A
:1065100030BC01F0ADBE0000645E0020942C002071
:10652000F963200070B5074C054620212046FCF792
:1065300065F900212846A160BDE870400122FFF7FF
:10654000DBBF0000645E0020F8B51D4C00250E4640
:106550000095E169491CE161C4E90162E168C4E9AF
:10656000030118498968814201D2401A00E0081AE3
:106570006169814201D9C4E90502684600F024F846
:1065800040B101280BD002280FD0032811D0009869
:10659000A06200E0A562204600F098F8F8BD012056
:1065A00084F820003046A16906E0A1683046491C05
:1065B00002E0A1683046491E00F04AF8F8BD00002C
:1065C000B05E0020942C0020F0B51F4A1F4DD36808
:1065D000A9688B4201D95C1A00E0CC1AED68A5428B
:1065E00010D2576A012F0DD092F82040012C09D00B
:1065F000154CD6694FF0010CA569A468BE4203D3BF
:10660000A54213D10020F0BD012E08D916698E4293
:1066100001D98B42F4D38E4201D28B42F0D88B4207
:1066200008D9B4F5FF7F08D9092109E082F820C014
:106630000120F0BD1CB10320F0BD0220F0BD0A21F5
:1066400001600420F0BD0000B05E0020942C00200A
:106650008AB2C1B20248034B406801F009BE000093
:10666000942C00204965200070B50D46044616465E
:106670002C210948FCF7C2F8074B0020B2B283F87E
:106680002000401E5C6258610448E9B2044B406837
:10669000BDE8704001F0ECBDB05E0020942C0020FD
:1066A0004965200010B501F0CBFD00280AD006484E
:1066B000007818B1BDE8104000F02EB8BDE81040D9
:1066C000FFF708BE10BD0000DC5E002000B500F042
:1066D00007F802490120886100BD0000445E0020E7
:1066E0000B4901220A71826A8A60C269CA60C26863
:1066F0000A6142684A6182688A61C26805488068A6
:10670000824201D9101A00E0801AC8617047000067
:10671000F45E0020942C00202DE9F04101F014FEDD
:10672000804601F023FE07460A48094C20214669AD
:1067300025682046FCF762F86D1C0020256020715A
:106740003A4641463046BDE8F041FFF78DBF0000B4
:10675000F45E0020942C002010B50E4C2069401CE3
:10676000206101F015FEE06001F0EEFD606001F0D7
:10677000FDFD094A0021A06011606161E3692BB150
:1067800002462179E068BDE8104018470120A06169
:1067900010BD0000445E002000E5004070B51648C2
:1067A00090F80014154D28680122C0F30220401C07
:1067B00082408818C0B280F31188114C0F482168BC
:1067C0000C306268A36880E80E00232204F10C01FB
:1067D0000C48FBF7B7FF216B4FF0E020C0F8001129
:1067E000616BC0F80411A06B286007484068C0B214
:1067F00080F3118870BD000002E000E00CED00E0C5
:10680000885F002000E400E0582D0020EFF31180A5
:106810000D4948604FF0E021D1F800210B48026398
:10682000D1F8041141630A4909680A4A89B211433F
:10683000816307490C310EC90160426083602322E5
:1068400005490C30FBF77EBF582D0020885F0020E3
:106850000CED00E00000FA0500E400E07CB50E4D10
:106860004FF6FF76AC68083408226946204602F0ED
:10687000FFFCBDF80010B1420CD059B1BDF80200C8
:10688000083081B2204600F02DFA0446286984427F
:10689000EAD37CBD20467CBD602C00202DE9FE4360
:1068A0000D4607466A4604F0B3FFE0B91648009C5F
:1068B0000CB98468083400264FF6FF7980460096AC
:1068C000082201A9204602F0D3FCBDF80400484587
:1068D00002D12E80009606E0B84207D115B1BDF86E
:1068E0000600288000940098BDE8FE83BDF80600ED
:1068F000083081B2204600F0F5F90446D8F81000BF
:106900008442DDD3E5E70000602C002008B503F0E9
:1069100081F903F0AFFE01208DF80000A3208DF86F
:10692000010002208DF802000098FBF5EFFA01202B
:1069300002F011FF03F030F903F0ACF903F094F921
:1069400003F05AFE002809D00548016A21F0010130
:1069500001620448016821F08001016008BD000067
:1069600000A0004000A9004002494968002900D069
:1069700008477047842E002070B5044600BFFDF71D
:10698000CDFA05460120FDF75BFB0948047024B9E8
:10699000482208490848FBF7D5FE1DB90020FDF73D
:1069A0004FFB02E00120FDF74BFB00BF70BD000074
:1069B0000E2C00203C5A0020002000E010B50748B3
:1069C00040680749486006480830402203490831BA
:1069D000FBF7B8FE03200249086010BDF4590020FF
:1069E000002000E0002003490968002900D0084782
:1069F00070470000842E002070B500BFFDF78EFAAE
:106A000005460120FDF71CFB0B48047834B94822E9
:106A10000A490B48FBF796FEFFF7D0FF0120064915
:106A200008701DB90020FDF70BFB02E00120FDF707
:106A300007FB00BF204670BD0E2C0020002000E0A8
:106A40003C5A002013B501216846FEF755FB012092
:106A50001CBD00002DE9F04F8DB00822ADF82420B8
:106A60000022DFF848828DF820204FF008090192BB
:106A70008DF8081016464FF0010BE8B3082203A961
:106A8000D8F80C0002F0ECFB08287CD19DF80C0033
:106A9000A52809D008F11400C188ADF82410447865
:106AA00080788DF8200049E09DF80D00D8F8081096
:106AB000022201EB00306946083002F0D1FBBDF83C
:106AC0000010A1F57F40FF380BD09DF80D00D8F8DD
:106AD000081001EB00304FF4805102F0A9FB0028B0
:106AE0007DD0BDF81210ADF824109DF80D109DF862
:106AF0000E00491CCCB200E00AE08DF8200002AB89
:106B000009AA08A903A805F0EFFB012868D015E041
:106B1000FFF7A4FE411EC1F30B01401AD8F808107C
:106B2000401AFF2100F6FF7001EB103010F0FF0457
:106B30008DF8204002D08DF808B0012604F0D0FD79
:106B4000ADE00025059506954CB1D8F80800042263
:106B500000EB043005A902F083FB042813D153484D
:106B6000A521C8F814501430C8F8185001704470AA
:106B70009DF820108170BDF82410C1809DF814107C
:106B80004746C17000E04EE0BDF816108180D8F88D
:106B9000080000EB043101EB09000190F86800EBFC
:106BA000090107914FF4805102F042FBB8B19DF802
:106BB00014202AB1012307A901A805F06DFB90BBA1
:106BC000BDF816202AB1002307A901A805F064FB2F
:106BD00048BBC4F1000A0198B968411A01E04BE0D2
:106BE00062E001EB0A30C0F58055082DCDF800B009
:106BF0001ADD08230AAA07A901A805F023FB90B90A
:106C0000BDF82810A1F57F40FF381AD0BDF82A2022
:106C1000083DAA4200DDAAB2002307A901A805F099
:106C20003BFB00B907E036E0ABB2214A07A901A857
:106C300005F008FBF5E7F868079900F580508142F8
:106C4000C9D31A4908221431F86802F073FB0828E6
:106C500021D1B8684FF4805100EB043002F0E8FA1B
:106C600050B176B1B868042200EB043005A902F0F7
:106C700061FB04280FD103E00B200DB0BDE8F08FBD
:106C800000260A4802AB09AA08A9143005F02CFB1B
:106C9000012809D008B10A20EFE7641CE4B20548D6
:106CA000407AA042BFF44DAF0020E6E7602C002000
:106CB000645B0020905C0020017882781144C9B2A6
:106CC00001710846704730B500224271448805E0E2
:106CD0008D5C4379521C2B44437192B29442F7D895
:106CE000407930BD10B5441801F0BEFD00B1082058
:106CF000204410BD024600210BE0084850F8313016
:106D0000501E834204D1054800EBC1004068704723
:106D1000491C1029F1DB0020F9E70000845A00200B
:106D2000002101E0491C4008C207FBD0084670471B
:106D300070B5044600BFFDF7F1F805460120FDF7E8
:106D40007FF9002014490870144815490860154857
:106D500015490860482215491548FBF7F3FC15480A
:106D6000124948600320086048221348FBF7EAFCF8
:106D700048220F490D48FBF7E5FC882C01D004F0B0
:106D80007FFB1DB90020FDF75BF902E00120FDF754
:106D900057F900BF70BD00000E2C0020796920005B
:106DA000882E0020F9692000842E0020002000E0B9
:106DB0003C5A002080620020F45900202DE9FE4357
:106DC0000546002403208DF8000000260C4F4FF0EC
:106DD0000108E8070BD008FA04F0019007EBC400A3
:106DE0004068029057F8341009B168468847641C1F
:106DF000A4B26D08761C082EEBDBBDE8FE83000014
:106E00009036002070B5304D2B684FF6FF7101EAC7
:106E1000002293432B600106090A2B1FC4B21E688F
:106E20008E430E431E602968A14329602749D1F88B
:106E300000428443C1F80042D1F808428443C1F8BB
:106E400008421C68C1B20A4394430C431C602A1DCB
:106E5000116821EA002141EA002111600124111D7D
:106E60000B6883430B600B6823EA002343EA00238B
:106E70000B601368C1B28B43136021E090FAA0F15C
:106E8000B1FA81F204FA02F1421E10400E4A0023C8
:106E90001032156825EA0145156091FAA1F1B1FAA1
:106EA00081F18A088907C90E9500094A2A44D2F857
:106EB0001459FF268E40B5438B401D43C2F8145928
:106EC0000028DBD170BD000018AA004000A00040DF
:106ED00000E0004000B589B0002815D0016800919D
:106EE000017901F00301019181680291C168039168
:106EF0000169049141690591816906914068000921
:106F00000790684601F0BEFC09B000BD2DE9F041D4
:106F10001E4DD5F8080210F0FF04D5F884006FF07C
:106F20000207C0F3400629D0D5F80802A043C5F8EF
:106F30000802E043C5F80802C5F8847014480068E8
:106F4000C0F3000040B1E00606D5D5F8000224F0F9
:106F5000100420F010000BE0A868C0F3000050B14E
:106F6000A00608D5D5F8000224F0200420F0200067
:106F7000C5F8000202E02046FFF720FF002E03D0F4
:106F8000002C01D1C5F88470BDE8F08100A000405C
:106F900024AA004004490006000A0968884301D079
:106FA000002070470120704718AA00402DE9F047E3
:106FB000040025D03148D0F800A0DFF8C480454651
:106FC000D8F800905046494600F01EFB6E68F9F56F
:106FD000D1FA2C484FF47A710068B0FBF1F54D43BB
:106FE0002179206801F038FF2079D4F800C000EB47
:106FF000400101EBC0010CEBC1030027414606E054
:107000000120BDE8F0874A68921BAA420FD81A6C8B
:10701000C2F34022002AF6D0012208308240CCF888
:10702000A02314E0D8F80400801BA8420FD9206CDC
:1070300040F02000206484F8287003212046FFF7E8
:1070400081F84946504600F0C1FA0320D9E721797A
:10705000206801F0C9FE0028E4D12179206801F000
:10706000D3FE01212046FFF76DF884F828704946C9
:10707000504600F0ABFA0020C3E70000FCED00E052
:10708000001000E05C0000202DE9F04104004FF00A
:10709000000612D094F829000027012810D094F897
:1070A0002900022814D094F82900042810D0206C5C
:1070B00040F004002064012608E00120BDE8F081D2
:1070C00084F82870E16B09B1204688473046F5E71F
:1070D000207901252168083005FA00F0C1F8A003E5
:1070E0002179206801F080FE0028F9D120792168FB
:1070F000083005FA00F0C1F8100320792168083043
:1071000005FA00F0C1F8180320792168083005FA63
:1071100000F0C1F8200320792168083005FA00F05A
:10712000C1F8280320792168083005FA00F0C1F879
:1071300030032179206805FA01F1C0F8381321796C
:10714000206805FA01F1C0F840132179206805FA9A
:1071500001F1C0F848132179206805FA01F1C0F85F
:107160005013207921688540C1F85853217920684F
:1071700001F091FD01212046FEF7E4FFA0E70000A9
:10718000F8B504004FF011008DF8000020D01E4E1D
:1071900020681E4F0025B04200D13D602179206853
:1071A00001F0F3FC2046FEF7EDFF256400212046A8
:1071B000FEF7C8FF30462168154E81420BD1207979
:1071C000012101FA00F230789043307002D002E0E1
:1071D0000120F8BD396001212046FFF71BF8694600
:1071E0002046FEF749FF012805D1307818B99DF8EF
:1071F000000000F0F9FB01212046FEF769FF84F84A
:1072000028500020F8BD0000004001400C5D1C42E9
:10721000182E002010B190F8290070470420704704
:1072200070B58CB0040005D094F82900254E0025D7
:1072300018B109E001200CB070BD84F82850206816
:10724000B04201D12048056002212046FEF77AFFB6
:10725000684601F0F0FDA0680890E0680990606958
:107260000390A0690490E0690590206A0690206967
:107270000290606A0A9021796A46206801F04AFD0E
:10728000256401212046FEF75DFF2046FEF77AFFC8
:1072900000212046FEF7BEFF2068B0420AD12179C6
:1072A0000120884009490A781043087008490820DD
:1072B00000F090FB01212046FEF70AFF84F82850D9
:1072C0000020B8E7004001400C5D1C42182E002051
:1072D000D77320002DE9F04104007AD094F82900FA
:1072E000002876D0206821790125D0F8083305FAE6
:1072F00001F232EA03034FF000061CD1D0F830331C
:107300009A4318D1083105FA01F1C0F830132179F8
:10731000206805FA01F2C0F85823206C40F0010003
:10732000206404212046FEF70DFF84F82860A16B3D
:1073300009B12046884720682179D0F8E87205FA1B
:1073400001F333EA070221D1D0F810732A46BB4378
:107350001CD1083102FA01F1C0F81013207921681C
:1073600002FA00F0C1F838032079216805FA00F22A
:10737000C1F83823206C206401212046FEF7E2FE8C
:1073800084F82860216B09B120468847206822795B
:10739000D0F8F03205FA02F131EA030319D1D0F83E
:1073A0001833994315D1083205FA02F1C0F81813C1
:1073B000217920688D40C0F84053206C206484F807
:1073C0002860616B002904D02046BDE8F0410847E1
:1073D000FFE7BDE8F08170B505004FF000044FF005
:1073E000010000D170BD55F8241021B1084600F00D
:1073F00007F80128F6D0641CE4B2052CF3D370BD65
:1074000010B588B30268416CC2F89813017903681B
:1074100001EB410404EBC101182404EBC101826CAF
:107420005A500179036801EB410404EBC1011C24AB
:1074300004EBC101C26C5A500179036801EB4104AD
:1074400004EBC101402404EBC101026D5A500268F3
:10745000416D007900EB400303EBC000442303EBD4
:10746000C0001150002010BDFFE70120FBE770B500
:10747000054600F008F8040003D12979286801F0D6
:1074800015FC204670BD2DE9F8431F4690468946FD
:1074900004004FF0000612D09FB194F82800012894
:1074A00014D0012584F8285094F8290001280FD021
:1074B0000226002084F828003046BDE8F883012029
:1074C000FBE7206C40F008002064F8E70220F4E7B6
:1074D00000212046FEF7FCFD2046FEF753FE022168
:1074E0002046FEF72FFE2179206801F0D4FB217998
:1074F000206801F0C5FB2179206801F0B6FB206906
:107500000090217943464A46206801F02DFB2179FD
:107510003A46206801F083FC2179206805FA01F1E0
:10752000C0F838132179206801F0E9FB207921683F
:1075300005FA00F0C1F840032179206801F0CBFB87
:10754000207921688540C1F858532179206801F0DD
:10755000CCFB2179206801F0B3FBADE770B50500E5
:107560004FF000044FF0010000D170BD55F8241019
:1075700021B1084600F007F80128F6D0641CE4B2F7
:10758000052CF3D370BDF0B10168D1F898234264A3
:10759000027902EB420303EBC202182303EBC2039E
:1075A000CB5883641C2303EBC203CB58C364402332
:1075B00003EBC203CB580365442303EBC202895893
:1075C00041650020704701207047000010B5EFF3BF
:1075D0001083012282F31088084A1468641E146024
:1075E00012681AB9064A1160064908601BB10120E9
:1075F00080F3108810BD0020FAE70000682E0020FC
:10760000001000E0FCED00E010B5EFF31082012364
:1076100083F31088094B1C68641C1C60084B40F005
:107620008070186041F00100064908601AB101201D
:1076300080F3108810BD0020FAE70000682E0020BB
:10764000FCED00E0001000E00A4610B50146002005
:10765000FAF562FC08B1002010BD012010BDFAF55A
:1076600061BC10B51446FAF5C9FC08B1002010BD84
:10767000204610BD2DE9F74F00244FF4807AC0B0AA
:1076800017468B461546524501D9564600E03E4600
:107690000BEB0401884632466846FBF70EF840982B
:1076A0003246204481466946FAF5EEFCB8B94846B0
:1076B00032466946FAF5A2FC88B940463246694628
:1076C000FAF7B0FF58B9AD1B0DD034445646B54259
:1076D00000D82E46BC4202D2A019B842D8D9002008
:1076E00043B0BDE8F08F3846FAE70000F0B5002857
:1076F00051D042688A434260274E8AB28BB23568C5
:107700000024954315433560436104614162816300
:10771000331D1A688A430A431A601A1D13688B4383
:1077200013601D4A103213688B430B43136001240E
:10773000121D13688B431360121D13688B430B4398
:107740001360154D8AB20C352B6893432B6020E0F3
:1077500091FAA1F2B2FA82F304FA03F24B1E194035
:107760000E4B002592FAA2F2B2FA82F2984203D1AD
:1077700093089207D20E00E004239E00084B334486
:10778000D3F80069FF279740BE4395402E43C3F8C6
:1077900000690029DCD1F0BD2CE900400000014067
:1077A00000E000402DE9FE4380460F463846FFF7D3
:1077B000B7FA85B20024DFF834900D4E59F8340042
:1077C00040450ED105EB041085B28DF800400197BD
:1077D00006EBC5004068029056F835200AB16846AD
:1077E0009047641C032CE9DBBDE8FE8344D22000F3
:1077F0002036002010B5816B8904890C02D081638A
:10780000FFF7D0FF10BD00B589B0002817D00029C0
:1078100015D00A6800920A7902F0030201928A6880
:107820000292CA6803920A6904924A6905928A69B7
:107830000692496809090791694601F019FB09B0E8
:1078400000BD0068814301D00020704701207047CF
:1078500070B52B4C294A6FF04040236800EA015074
:1078600002EA8122834303432360231F1D6895435B
:107870001D60234B08331D6805431D602568C1F357
:10788000090002439543054325601A1F146824EA42
:10789000812444EA812414601D6801248D431D6005
:1078A0001D6825EA812545EA81251D60136883430B
:1078B000136020E091FAA1F0B0FA80F204FA02F02D
:1078C0004A1E11400E4A00230C321568854315608C
:1078D00090FAA0F0B0FA80F082088007C00E950000
:1078E000084A2A44D2F81C59FF268640B5438340F3
:1078F0001D43C2F81C590029DCD170BDFFFF0F00E9
:1079000004AA004000E0004001F08EBB6FF0404050
:1079100000EA015003490968884301D000207047FC
:107920000120704700AA0040002809DB00F01F0278
:10793000012191404009800000F1E020C0F8801250
:10794000704700280DDB00F01F0201219140400923
:10795000800000F1E020C0F88011BFF34F8FBFF32B
:107960006F8F7047002809DB00F01F020121914052
:107970004009800000F1E020C0F8001170470000CD
:10798000012080F3108803490148C1F88C02FEE70A
:107990000001A1C500E00040112803D2024A0021E5
:1079A00042F82010704700006060002011280DD2BE
:1079B000074A074B02F07042C3F3130302EB431272
:1079C00002EB800000F100700021016070470000B0
:1079D000282E0020112804D2002902D0014A42F8A2
:1079E000201070471C600020112803D2024A002199
:1079F00042F82010704700001C600020112804D2BB
:107A0000002902D0014A42F820107047D85F0020B8
:107A1000112803D2024A002142F8201070470000CA
:107A2000D85F0020112802D2014A42F82010704786
:107A30006060002011280DD2074A074B02F0704207
:107A4000C3F3130302EB431202EB800000F100705A
:107A50000121016070470000242E002011280CD263
:107A6000064A064B02F07042C3F3130302EB4312C3
:107A700002EB800000F1007001607047202E0020B2
:107A80002DE9F041EFF311870220FCF729FA0446B3
:107A9000FCF73CFA401C012181406018C0B280F321
:107AA00011880020FDF7FCFC0546254ED5E904129F
:107AB000C6E902122348081A72F11E0019D306F112
:107AC00010000EE0DCE90412D6E90234B1EB030841
:107AD00072EB040804D3C91A62EB0402CCE9041265
